{
  "_format": "hh-sol-artifact-1",
  "contractName": "TestCHIVaultDeployer",
  "sourceName": "contracts/test/TestCHIVaultDeployer.sol",
  "abi": [
    {
      "inputs": [],
      "stateMutability": "nonpayable",
      "type": "constructor"
    },
    {
      "anonymous": false,
      "inputs": [
        {
          "indexed": true,
          "internalType": "address",
          "name": "oldCHIManager",
          "type": "address"
        },
        {
          "indexed": true,
          "internalType": "address",
          "name": "newCHIManager",
          "type": "address"
        }
      ],
      "name": "CHIManagerChanged",
      "type": "event"
    },
    {
      "anonymous": false,
      "inputs": [
        {
          "indexed": true,
          "internalType": "address",
          "name": "oldOwner",
          "type": "address"
        },
        {
          "indexed": true,
          "internalType": "address",
          "name": "newOwner",
          "type": "address"
        }
      ],
      "name": "OwnerChanged",
      "type": "event"
    },
    {
      "inputs": [],
      "name": "CHIManager",
      "outputs": [
        {
          "internalType": "address",
          "name": "",
          "type": "address"
        }
      ],
      "stateMutability": "view",
      "type": "function"
    },
    {
      "inputs": [
        {
          "internalType": "address",
          "name": "uniswapV3pool",
          "type": "address"
        },
        {
          "internalType": "address",
          "name": "manager",
          "type": "address"
        },
        {
          "internalType": "uint256",
          "name": "fee",
          "type": "uint256"
        }
      ],
      "name": "createVault",
      "outputs": [
        {
          "internalType": "address",
          "name": "pool",
          "type": "address"
        }
      ],
      "stateMutability": "nonpayable",
      "type": "function"
    },
    {
      "inputs": [],
      "name": "owner",
      "outputs": [
        {
          "internalType": "address",
          "name": "",
          "type": "address"
        }
      ],
      "stateMutability": "view",
      "type": "function"
    },
    {
      "inputs": [
        {
          "internalType": "address",
          "name": "_manager",
          "type": "address"
        }
      ],
      "name": "setCHIManager",
      "outputs": [],
      "stateMutability": "nonpayable",
      "type": "function"
    },
    {
      "inputs": [
        {
          "internalType": "address",
          "name": "_owner",
          "type": "address"
        }
      ],
      "name": "setOwner",
      "outputs": [],
      "stateMutability": "nonpayable",
      "type": "function"
    }
  ],
  "bytecode": "0x608060405234801561001057600080fd5b50600080546001600160a01b031916331790556139c6806100326000396000f3fe608060405234801561001057600080fd5b50600436106100675760003560e01c80638da5cb5b116100505780638da5cb5b146100e65780639d60da50146100ee578063a244a481146100f657610067565b806313af40351461006c57806358b4b71114610094575b600080fd5b6100926004803603602081101561008257600080fd5b50356001600160a01b031661011c565b005b6100ca600480360360608110156100aa57600080fd5b506001600160a01b038135811691602081013590911690604001356101a6565b604080516001600160a01b039092168252519081900360200190f35b6100ca61021e565b6100ca61022d565b6100926004803603602081101561010c57600080fd5b50356001600160a01b031661023c565b6000546001600160a01b0316331461013357600080fd5b600080546040516001600160a01b03808516939216917fb532073b38c83145e3e5135377a08bf9aab55bc0fd7c1179cd4fb995d2a5159c91a3600080547fffffffffffffffffffffffff0000000000000000000000000000000000000000166001600160a01b0392909216919091179055565b6001546000906001600160a01b031633146101c057600080fd5b8383836040516101cf906102c7565b80846001600160a01b03168152602001836001600160a01b031681526020018281526020019350505050604051809103906000f080158015610215573d6000803e3d6000fd5b50949350505050565b6000546001600160a01b031681565b6001546001600160a01b031681565b6000546001600160a01b0316331461025357600080fd5b6001546040516001600160a01b038084169216907f25196b6887a2c4bc24ff6330982317d18b73000e05091640ca171dcdc3995bdf90600090a3600180547fffffffffffffffffffffffff0000000000000000000000000000000000000000166001600160a01b0392909216919091179055565b6136e5806102d58339019056fe60e0604052620f42406005553480156200001857600080fd5b50604051620036e5380380620036e58339810160408190526200003b9162000299565b600080546001600160a01b0319166001600160a01b03858116919091179182905560408051630dfe168160e01b815290519290911691630dfe168191600480820192602092909190829003018186803b1580156200009857600080fd5b505afa158015620000ad573d6000803e3d6000fd5b505050506040513d601f19601f82011682018060405250810190620000d3919062000275565b60601b6001600160601b0319166080526000546040805163d21220a760e01b815290516001600160a01b039092169163d21220a791600480820192602092909190829003018186803b1580156200012957600080fd5b505afa1580156200013e573d6000803e3d6000fd5b505050506040513d601f19601f8201168201806040525081019062000164919062000275565b60601b6001600160601b03191660a052600054604080516334324e9f60e21b815290516001600160a01b039092169163d0c93a7c91600480820192602092909190829003018186803b158015620001ba57600080fd5b505afa158015620001cf573d6000803e3d6000fd5b505050506040513d601f19601f82011682018060405250810190620001f59190620002d9565b600290810b900b60e81b60c052600180546001600160a01b0319166001600160a01b038416179055600481905560055481106200024f5760405162461bcd60e51b81526004016200024690620002fc565b60405180910390fd5b50505062000317565b80516001600160a01b03811681146200027057600080fd5b919050565b60006020828403121562000287578081fd5b620002928262000258565b9392505050565b600080600060608486031215620002ae578182fd5b620002b98462000258565b9250620002c96020850162000258565b9150604084015190509250925092565b600060208284031215620002eb578081fd5b81518060020b811462000292578182fd5b6020808252600190820152603360f91b604082015260600190565b60805160601c60a05160601c60c05160e81c61335c6200038960003980610b335280611ba65280611bf65250806103c552806109d75280610b575280610bdd5280610d2c528061145452508061038b52806103f352806109b35280610ba35280610cf252806113aa525061335c6000f3fe608060405234801561001057600080fd5b506004361061018d5760003560e01c8063b5962917116100e3578063d34879971161008c578063db4dcce411610066578063db4dcce414610302578063eae989a214610315578063ecefc7051461031d5761018d565b8063d3487997146102b9578063d473a654146102cc578063d4da6185146102ef5761018d565b8063cc364f48116100bd578063cc364f481461027b578063d0c93a7c1461029c578063d21220a7146102b15761018d565b8063b596291714610249578063bf02b5ea14610251578063c4a7761e146102735761018d565b80635a64998b11610145578063a00fa77f1161011f578063a00fa77f14610231578063b0e21e8a14610239578063b135a145146102415761018d565b80635a64998b146102035780639d60da50146102165780639d9d75be1461021e5761018d565b806316f0115b1161017657806316f0115b146101c557806318160ddd146101cd5780632106fa46146101e25761018d565b80630430c130146101925780630dfe1681146101a7575b600080fd5b6101a56101a0366004612be2565b610325565b005b6101af6103f1565b6040516101bc9190612d80565b60405180910390f35b6101af610415565b6101d5610424565b6040516101bc9190612e59565b6101f56101f0366004612b6b565b61042a565b6040516101bc929190613244565b6101a5610211366004612a0a565b6105dd565b6101af610672565b6101a561022c366004612c95565b610681565b6101d56107e4565b6101d56107ea565b6101d56107f0565b6101a5610801565b61026461025f366004612cfe565b6108ad565b6040516101bc93929190613252565b6101f5610a83565b61028e610289366004612b6b565b610b16565b6040516101bc929190612e9a565b6102a4610b31565b6040516101bc9190612e8c565b6101af610b55565b6101a56102c7366004612c1a565b610b79565b6102df6102da366004612cc0565b610c0a565b6040516101bc9493929190613268565b6101f56102fd366004612b9b565b610e08565b6101a5610310366004612a0a565b610fe4565b6101d561107c565b6101d5611082565b6001546001600160a01b031633146103585760405162461bcd60e51b815260040161034f9061320d565b60405180910390fd5b6002546103659084611088565b6002556003546103759083611088565b60035582156103b2576103b26001600160a01b037f00000000000000000000000000000000000000000000000000000000000000001682856110ea565b81156103ec576103ec6001600160a01b037f00000000000000000000000000000000000000000000000000000000000000001682846110ea565b505050565b7f000000000000000000000000000000000000000000000000000000000000000081565b6000546001600160a01b031681565b60065490565b60015460009081906001600160a01b031633146104595760405162461bcd60e51b815260040161034f9061320d565b60008061046f61046a60078761116a565b61117d565b91509150600061047f838361118e565b90506001600160801b038116156105d55760005460405163a34123a760e01b81526001600160a01b039091169063a34123a7906104c490869086908690600401612eae565b6040805180830381600087803b1580156104dd57600080fd5b505af11580156104f1573d6000803e3d6000fd5b505050506040513d601f19601f820116820180604052508101906105159190612bbf565b9095509350841515806105285750600084115b156105d5576000546001600160a01b0316634f1eb3d830858561054a8a61124a565b6105538a61124a565b6040518663ffffffff1660e01b8152600401610573959493929190612e1c565b6040805180830381600087803b15801561058c57600080fd5b505af11580156105a0573d6000803e3d6000fd5b505050506040513d601f19601f820116820180604052508101906105c49190612a42565b6001600160801b0391821696501693505b505050915091565b6001546001600160a01b031633146106075760405162461bcd60e51b815260040161034f9061320d565b6000806106148484611265565b91509150816000146106385760405162461bcd60e51b815260040161034f90612fe7565b80156106565760405162461bcd60e51b815260040161034f90612fe7565b61066b610663858561136b565b600790611394565b5050505050565b6001546001600160a01b031681565b6001546001600160a01b031633146106ab5760405162461bcd60e51b815260040161034f9061320d565b6000806106bc61046a60078761116a565b915091506106c86113a0565b8411156106e75760405162461bcd60e51b815260040161034f9061308c565b6106ef61144a565b83111561070e5760405162461bcd60e51b815260040161034f9061301e565b600061071c8383878761149e565b90506001600160801b038116156107dc57600080546040805192835260208301908190527f3c8a7d8d0000000000000000000000000000000000000000000000000000000090526001600160a01b031690633c8a7d8d9061078890309087908790879060248101612d94565b6040805180830381600087803b1580156107a157600080fd5b505af11580156107b5573d6000803e3d6000fd5b505050506040513d601f19601f820116820180604052508101906107d99190612bbf565b50505b505050505050565b60035490565b60045490565b60006107fc6007611563565b905090565b60008061080c61156e565b60005b6108196007611563565b81101561086f5760008061083161046a60078561116a565b915091506000806108428484611647565b9092509050610851878361182b565b965061085d868261182b565b9550506001909301925061080f915050565b507f38436c42bcfd74414acafc159a381bf74b9880bc4c1c9f922686fc7161d9c7ad82826040516108a1929190613244565b60405180910390a15050565b600154600090819081906001600160a01b031633146108de5760405162461bcd60e51b815260040161034f9061320d565b60008711806108ed5750600086115b6109095760405162461bcd60e51b815260040161034f906131d6565b61091161156e565b61091b8787611885565b919450925090508261093f5760405162461bcd60e51b815260040161034f90612fb0565b8482101561095f5760405162461bcd60e51b815260040161034f90612f79565b8381101561097f5760405162461bcd60e51b815260040161034f90613168565b6040517fed1bbd0b000000000000000000000000000000000000000000000000000000008152339063ed1bbd0b90610a01907f00000000000000000000000000000000000000000000000000000000000000009086907f0000000000000000000000000000000000000000000000000000000000000000908790600401612e62565b600060405180830381600087803b158015610a1b57600080fd5b505af1158015610a2f573d6000803e3d6000fd5b50505050610a3c836119b5565b877f9b776d199f09c774f5b205c9bc2ac6f40d508c347aaea919867eeaf06ebef0e9848484604051610a7093929190613252565b60405180910390a2955095509592505050565b60008060005b610a936007611563565b811015610ae957600080610aab61046a60078561116a565b91509150600080610abc8484611265565b9092509050610acb878361182b565b9650610ad7868261182b565b95505060019093019250610a89915050565b50610afc610af56113a0565b839061182b565b9150610b10610b0961144a565b829061182b565b90509091565b600080610b2761046a60078561116a565b9094909350915050565b7f000000000000000000000000000000000000000000000000000000000000000081565b7f000000000000000000000000000000000000000000000000000000000000000081565b6000546001600160a01b03163314610b9057600080fd5b8315610bca57610bca6001600160a01b037f00000000000000000000000000000000000000000000000000000000000000001633866110ea565b8215610c0457610c046001600160a01b037f00000000000000000000000000000000000000000000000000000000000000001633856110ea565b50505050565b6001546000908190819081906001600160a01b03163314610c3d5760405162461bcd60e51b815260040161034f9061320d565b60008811610c5d5760405162461bcd60e51b815260040161034f90612fb0565b6001600160a01b03851615801590610c7e57506001600160a01b0385163014155b610c9a5760405162461bcd60e51b815260040161034f90612f42565b600080610ca78a886119c0565b91509150610cc9600654610cc38c610cbd6113a0565b90611a48565b90611aa1565b9350610cdd600654610cc38c610cbd61144a565b92508315610d1957610d196001600160a01b037f00000000000000000000000000000000000000000000000000000000000000001688866110ea565b8215610d5357610d536001600160a01b037f00000000000000000000000000000000000000000000000000000000000000001688856110ea565b610d5d828561182b565b9550610d69818461182b565b945088861015610d8b5760405162461bcd60e51b815260040161034f90612f79565b87851015610dab5760405162461bcd60e51b815260040161034f90613168565b610db48a611b08565b866001600160a01b03168b7f30011545efcd097ee25dae81386c1513acbd42b2af85ac6caae1a3b7d51933668c8989604051610df293929190613252565b60405180910390a3505095509550955095915050565b60015460009081906001600160a01b03163314610e375760405162461bcd60e51b815260040161034f9061320d565b600080610e4861046a60078861116a565b91509150610e56828261118e565b6001600160801b0316856001600160801b03161115610e875760405162461bcd60e51b815260040161034f90613055565b6001600160801b03851615610fdb5760005460405163a34123a760e01b81526001600160a01b039091169063a34123a790610eca90859085908a90600401612eae565b6040805180830381600087803b158015610ee357600080fd5b505af1158015610ef7573d6000803e3d6000fd5b505050506040513d601f19601f82011682018060405250810190610f1b9190612bbf565b909450925083151580610f2e5750600083115b15610fdb576000546001600160a01b0316634f1eb3d8308484610f508961124a565b610f598961124a565b6040518663ffffffff1660e01b8152600401610f79959493929190612e1c565b6040805180830381600087803b158015610f9257600080fd5b505af1158015610fa6573d6000803e3d6000fd5b505050506040513d601f19601f82011682018060405250810190610fca9190612a42565b6001600160801b0391821695501692505b50509250929050565b6001546001600160a01b0316331461100e5760405162461bcd60e51b815260040161034f9061320d565b60008061101b8484611265565b915091508160001461103f5760405162461bcd60e51b815260040161034f90612fe7565b801561105d5760405162461bcd60e51b815260040161034f90612fe7565b6110678484611b14565b61066b611074858561136b565b600790611c48565b60025490565b60055481565b6000828211156110df576040805162461bcd60e51b815260206004820152601e60248201527f536166654d6174683a207375627472616374696f6e206f766572666c6f770000604482015290519081900360640190fd5b508082035b92915050565b604080516001600160a01b038416602482015260448082018490528251808303909101815260649091019091526020810180517bffffffffffffffffffffffffffffffffffffffffffffffffffffffff167fa9059cbb000000000000000000000000000000000000000000000000000000001790526103ec908490611c54565b60006111768383611d05565b9392505050565b608081901c9160c091821b90911d90565b6000803084846040516020016111a693929190612d38565b60408051601f1981840301815290829052805160209091012060005463514ea4bf60e01b83529092506001600160a01b03169063514ea4bf906111ed908490600401612e59565b60a06040518083038186803b15801561120557600080fd5b505afa158015611219573d6000803e3d6000fd5b505050506040513d601f19601f8201168201806040525081019061123d9190612a70565b5092979650505050505050565b806001600160801b038116811461126057600080fd5b919050565b600080600030858560405160200161127f93929190612d38565b60408051601f198184030181529082905280516020909101206000805463514ea4bf60e01b845291935091829182916001600160a01b039091169063514ea4bf906112ce908790600401612e59565b60a06040518083038186803b1580156112e657600080fd5b505afa1580156112fa573d6000803e3d6000fd5b505050506040513d601f19601f8201168201806040525081019061131e9190612a70565b9450945050509250611331888885611d69565b9096509450611349866001600160801b03841661182b565b955061135e856001600160801b03831661182b565b9450505050509250929050565b600290810b62ffffff1691900b60801b72ffffff00000000000000000000000000000000160190565b60006111768383611e24565b60006107fc6002547f00000000000000000000000000000000000000000000000000000000000000006001600160a01b03166370a08231306040518263ffffffff1660e01b81526004016113f49190612d80565b60206040518083038186803b15801561140c57600080fd5b505afa158015611420573d6000803e3d6000fd5b505050506040513d601f19601f820116820180604052508101906114449190612b83565b90611088565b60006107fc6003547f00000000000000000000000000000000000000000000000000000000000000006001600160a01b03166370a08231306040518263ffffffff1660e01b81526004016113f49190612d80565b60008054604080517f3850c7bd000000000000000000000000000000000000000000000000000000008152905183926001600160a01b031691633850c7bd9160048083019260e0929190829003018186803b1580156114fc57600080fd5b505afa158015611510573d6000803e3d6000fd5b505050506040513d601f19601f820116820180604052508101906115349190612ad1565b50505050505090506115598161154988611eea565b61155288611eea565b8787612245565b9695505050505050565b60006110e482612309565b60005b61157b6007611563565b8110156116445760008061159361046a60078561116a565b9150915060006115a3838361118e565b6001600160801b0316111561163a576000805460405163a34123a760e01b81526001600160a01b039091169163a34123a7916115e6918691869190600401612eae565b6040805180830381600087803b1580156115ff57600080fd5b505af1158015611613573d6000803e3d6000fd5b505050506040513d601f19601f820116820180604052508101906116379190612bbf565b50505b5050600101611571565b50565b600080600030858560405160200161166193929190612d38565b60408051601f198184030181529082905280516020909101206000805463514ea4bf60e01b84529193509182916001600160a01b03169063514ea4bf906116ac908690600401612e59565b60a06040518083038186803b1580156116c457600080fd5b505afa1580156116d8573d6000803e3d6000fd5b505050506040513d601f19601f820116820180604052508101906116fc9190612a70565b6000546040517f4f1eb3d80000000000000000000000000000000000000000000000000000000081529297509095506001600160a01b03169350634f1eb3d89250611754915030908b908b9088908890600401612e1c565b6040805180830381600087803b15801561176d57600080fd5b505af1158015611781573d6000803e3d6000fd5b505050506040513d601f19601f820116820180604052508101906117a59190612a42565b6004546001600160801b0392831697509116945060009081901561181f576117de600554610cc36004548a611a4890919063ffffffff16565b91506117fb600554610cc360045489611a4890919063ffffffff16565b60025490915061180b908361182b565b60025560035461181b908261182b565b6003555b50505050509250929050565b600082820183811015611176576040805162461bcd60e51b815260206004820152601b60248201527f536166654d6174683a206164646974696f6e206f766572666c6f770000000000604482015290519081900360640190fd5b6000806000806000611895610a83565b91509150600654600014806118aa5750600082115b806118b55750600081115b6118bb57fe5b6006546118d9578693508592506118d2848461230d565b94506119ac565b816118fa578592506118d281610cc360065486611a4890919063ffffffff16565b8061191b578693506118d282610cc360065487611a4890919063ffffffff16565b600061193961192a8984611a48565b6119348986611a48565b612324565b90506000811161195b5760405162461bcd60e51b815260040161034f90612f0b565b611974600161196e84610cc38584611088565b9061182b565b9450611989600161196e85610cc38584611088565b93506119a882610cc385610cc360065486611a4890919063ffffffff16565b9550505b50509250925092565b600680549091019055565b60008060005b6119d06007611563565b811015611a40576000806119e861046a60078561116a565b9150915060006119f8838361118e565b6001600160801b03161115611a3657600080611a1684848b8b612333565b9092509050611a25878361182b565b9650611a31868261182b565b955050505b50506001016119c6565b509250929050565b600082611a57575060006110e4565b82820282848281611a6457fe5b04146111765760405162461bcd60e51b81526004018080602001828103825260218152602001806133056021913960400191505060405180910390fd5b6000808211611af7576040805162461bcd60e51b815260206004820152601a60248201527f536166654d6174683a206469766973696f6e206279207a65726f000000000000604482015290519081900360640190fd5b818381611b0057fe5b049392505050565b60068054919091039055565b8060020b8260020b12611b395760405162461bcd60e51b815260040161034f90612ed4565b7ffffffffffffffffffffffffffffffffffffffffffffffffffffffffffff27618600283900b1215611b7d5760405162461bcd60e51b815260040161034f906130fa565b620d89e8600282900b1315611ba45760405162461bcd60e51b815260040161034f906130c3565b7f000000000000000000000000000000000000000000000000000000000000000060020b8260020b81611bd357fe5b0760020b15611bf45760405162461bcd60e51b815260040161034f90613131565b7f000000000000000000000000000000000000000000000000000000000000000060020b8160020b81611c2357fe5b0760020b15611c445760405162461bcd60e51b815260040161034f9061319f565b5050565b600061117683836124d1565b6000611ca9826040518060400160405280602081526020017f5361666545524332303a206c6f772d6c6576656c2063616c6c206661696c6564815250856001600160a01b031661251b9092919063ffffffff16565b8051909150156103ec57808060200190516020811015611cc857600080fd5b50516103ec5760405162461bcd60e51b815260040180806020018281038252602a815260200180613326602a913960400191505060405180910390fd5b81546000908210611d475760405162461bcd60e51b81526004018080602001828103825260228152602001806132bd6022913960400191505060405180910390fd5b826000018281548110611d5657fe5b9060005260206000200154905092915050565b60008060008060009054906101000a90046001600160a01b03166001600160a01b0316633850c7bd6040518163ffffffff1660e01b815260040160e06040518083038186803b158015611dbb57600080fd5b505afa158015611dcf573d6000803e3d6000fd5b505050506040513d601f19601f82011682018060405250810190611df39190612ad1565b5050505050509050611e1781611e0888611eea565b611e1188611eea565b87612532565b9097909650945050505050565b60008181526001830160205260408120548015611ee05783546000198083019190810190600090879083908110611e5757fe5b9060005260206000200154905080876000018481548110611e7457fe5b600091825260208083209091019290925582815260018981019092526040902090840190558654879080611ea457fe5b600190038181906000526020600020016000905590558660010160008781526020019081526020016000206000905560019450505050506110e4565b60009150506110e4565b60008060008360020b12611f01578260020b611f09565b8260020b6000035b9050620d89e8811115611f63576040805162461bcd60e51b815260206004820152600160248201527f5400000000000000000000000000000000000000000000000000000000000000604482015290519081900360640190fd5b600060018216611f8457700100000000000000000000000000000000611f96565b6ffffcb933bd6fad37aa2d162d1a5940015b70ffffffffffffffffffffffffffffffffff1690506002821615611fca576ffff97272373d413259a46990580e213a0260801c5b6004821615611fe9576ffff2e50f5f656932ef12357cf3c7fdcc0260801c5b6008821615612008576fffe5caca7e10e4e61c3624eaa0941cd00260801c5b6010821615612027576fffcb9843d60f6159c9db58835c9266440260801c5b6020821615612046576fff973b41fa98c081472e6896dfb254c00260801c5b6040821615612065576fff2ea16466c96a3843ec78b326b528610260801c5b6080821615612084576ffe5dee046a99a2a811c461f1969c30530260801c5b6101008216156120a4576ffcbe86c7900a88aedcffc83b479aa3a40260801c5b6102008216156120c4576ff987a7253ac413176f2b074cf7815e540260801c5b6104008216156120e4576ff3392b0822b70005940c7a398e4b70f30260801c5b610800821615612104576fe7159475a2c29b7443b29c7fa6e889d90260801c5b611000821615612124576fd097f3bdfd2022b8845ad8f792aa58250260801c5b612000821615612144576fa9f746462d870fdf8a65dc1f90e061e50260801c5b614000821615612164576f70d869a156d2a1b890bb3df62baf32f70260801c5b618000821615612184576f31be135f97d08fd981231505542fcfa60260801c5b620100008216156121a5576f09aa508b5b7a84e1c677de54f3e99bc90260801c5b620200008216156121c5576e5d6af8dedb81196699c329225ee6040260801c5b620400008216156121e4576d2216e584f5fa1ea926041bedfe980260801c5b62080000821615612201576b048a170391f7dc42444e8fa20260801c5b60008460020b131561221c57806000198161221857fe5b0490505b640100000000810615612230576001612233565b60005b60ff16602082901c0192505050919050565b6000836001600160a01b0316856001600160a01b03161115612265579293925b846001600160a01b0316866001600160a01b031611612290576122898585856125ce565b9050612300565b836001600160a01b0316866001600160a01b031610156122f25760006122b78786866125ce565b905060006122c6878986612635565b9050806001600160801b0316826001600160801b0316106122e757806122e9565b815b92505050612300565b6122fd858584612635565b90505b95945050505050565b5490565b60008183101561231d5781611176565b5090919050565b600081831061231d5781611176565b6000806000612342878761118e565b9050600061237061236b600654610cc389866001600160801b0316611a4890919063ffffffff16565b61124a565b90506001600160801b038116156124c65760005460405163a34123a760e01b81526001600160a01b039091169063a34123a7906123b5908b908b908690600401612eae565b6040805180830381600087803b1580156123ce57600080fd5b505af11580156123e2573d6000803e3d6000fd5b505050506040513d601f19601f820116820180604052508101906124069190612bbf565b9094509250831515806124195750600083115b156124c6576000546001600160a01b0316634f1eb3d8868a8a61243b8961124a565b6124448961124a565b6040518663ffffffff1660e01b8152600401612464959493929190612e1c565b6040805180830381600087803b15801561247d57600080fd5b505af1158015612491573d6000803e3d6000fd5b505050506040513d601f19601f820116820180604052508101906124b59190612a42565b6001600160801b0391821695501692505b505094509492505050565b60006124dd838361267b565b612513575081546001818101845560008481526020808220909301849055845484825282860190935260409020919091556110e4565b5060006110e4565b606061252a8484600085612693565b949350505050565b600080836001600160a01b0316856001600160a01b03161115612553579293925b846001600160a01b0316866001600160a01b03161161257e576125778585856127ee565b91506125c5565b836001600160a01b0316866001600160a01b031610156125b7576125a38685856127ee565b91506125b0858785612857565b90506125c5565b6125c2858585612857565b90505b94509492505050565b6000826001600160a01b0316846001600160a01b031611156125ee579192915b600061261a856001600160a01b0316856001600160a01b03166c0100000000000000000000000061289f565b905061230061236b84838888036001600160a01b031661289f565b6000826001600160a01b0316846001600160a01b03161115612655579192915b61252a61236b836c010000000000000000000000008787036001600160a01b031661289f565b60009081526001919091016020526040902054151590565b6060824710156126d45760405162461bcd60e51b81526004018080602001828103825260268152602001806132df6026913960400191505060405180910390fd5b6126dd8561294e565b61272e576040805162461bcd60e51b815260206004820152601d60248201527f416464726573733a2063616c6c20746f206e6f6e2d636f6e7472616374000000604482015290519081900360640190fd5b600080866001600160a01b031685876040518082805190602001908083835b6020831061276c5780518252601f19909201916020918201910161274d565b6001836020036101000a03801982511681845116808217855250505050505090500191505060006040518083038185875af1925050503d80600081146127ce576040519150601f19603f3d011682016040523d82523d6000602084013e6127d3565b606091505b50915091506127e3828286612954565b979650505050505050565b6000826001600160a01b0316846001600160a01b0316111561280e579192915b836001600160a01b0316612847606060ff16846001600160801b0316901b8686036001600160a01b0316866001600160a01b031661289f565b8161284e57fe5b04949350505050565b6000826001600160a01b0316846001600160a01b03161115612877579192915b61252a826001600160801b03168585036001600160a01b03166c010000000000000000000000005b60008080600019858709868602925082811090839003039050806128d557600084116128ca57600080fd5b508290049050611176565b8084116128e157600080fd5b6000848688096000868103871696879004966002600389028118808a02820302808a02820302808a02820302808a02820302808a02820302808a02909103029181900381900460010186841190950394909402919094039290920491909117919091029150509392505050565b3b151590565b60608315612963575081611176565b8251156129735782518084602001fd5b8160405162461bcd60e51b81526004018080602001828103825283818151815260200191508051906020019080838360005b838110156129bd5781810151838201526020016129a5565b50505050905090810190601f1680156129ea5780820380516001836020036101000a031916815260200191505b509250505060405180910390fd5b805161ffff8116811461126057600080fd5b60008060408385031215612a1c578182fd5b8235612a2781613298565b91506020830135612a3781613298565b809150509250929050565b60008060408385031215612a54578182fd5b8251612a5f816132a7565b6020840151909250612a37816132a7565b600080600080600060a08688031215612a87578081fd5b8551612a92816132a7565b8095505060208601519350604086015192506060860151612ab2816132a7565b6080870151909250612ac3816132a7565b809150509295509295909350565b600080600080600080600060e0888a031215612aeb578182fd5b8751612af681613283565b6020890151909750612b0781613298565b9550612b15604089016129f8565b9450612b23606089016129f8565b9350612b31608089016129f8565b925060a088015160ff81168114612b46578283fd5b60c08901519092508015158114612b5b578182fd5b8091505092959891949750929550565b600060208284031215612b7c578081fd5b5035919050565b600060208284031215612b94578081fd5b5051919050565b60008060408385031215612bad578182fd5b823591506020830135612a37816132a7565b60008060408385031215612bd1578182fd5b505080516020909101519092909150565b600080600060608486031215612bf6578283fd5b83359250602084013591506040840135612c0f81613283565b809150509250925092565b60008060008060608587031215612c2f578384fd5b8435935060208501359250604085013567ffffffffffffffff80821115612c54578384fd5b818701915087601f830112612c67578384fd5b813581811115612c75578485fd5b886020828501011115612c86578485fd5b95989497505060200194505050565b600080600060608486031215612ca9578081fd5b505081359360208301359350604090920135919050565b600080600080600060a08688031215612cd7578283fd5b853594506020860135935060408601359250606086013591506080860135612ac381613283565b600080600080600060a08688031215612d15578283fd5b505083359560208501359550604085013594606081013594506080013592509050565b60609390931b7fffffffffffffffffffffffffffffffffffffffff000000000000000000000000168352600291820b60e890811b6014850152910b901b6017820152601a0190565b6001600160a01b0391909116815260200190565b60006001600160a01b038716825260208660020b818401528560020b60408401526001600160801b038516606084015260a0608084015283518060a0850152825b81811015612df15785810183015185820160c001528201612dd5565b81811115612e02578360c083870101525b50601f01601f19169290920160c001979650505050505050565b6001600160a01b03959095168552600293840b60208601529190920b60408401526001600160801b03918216606084015216608082015260a00190565b90815260200190565b6001600160a01b039485168152602081019390935292166040820152606081019190915260800190565b60029190910b815260200190565b600292830b8152910b602082015260400190565b600293840b81529190920b60208201526001600160801b03909116604082015260600190565b60208082526003908201527f544c550000000000000000000000000000000000000000000000000000000000604082015260600190565b60208082526001908201527f6300000000000000000000000000000000000000000000000000000000000000604082015260600190565b60208082526002908201527f746f000000000000000000000000000000000000000000000000000000000000604082015260600190565b60208082526003908201527f41304d0000000000000000000000000000000000000000000000000000000000604082015260600190565b60208082526001908201527f7300000000000000000000000000000000000000000000000000000000000000604082015260600190565b60208082526002908201527f6130000000000000000000000000000000000000000000000000000000000000604082015260600190565b60208082526003908201527f4942310000000000000000000000000000000000000000000000000000000000604082015260600190565b60208082526001908201527f4c00000000000000000000000000000000000000000000000000000000000000604082015260600190565b60208082526003908201527f4942300000000000000000000000000000000000000000000000000000000000604082015260600190565b60208082526003908201527f54554d0000000000000000000000000000000000000000000000000000000000604082015260600190565b60208082526003908201527f544c4d0000000000000000000000000000000000000000000000000000000000604082015260600190565b60208082526003908201527f544c460000000000000000000000000000000000000000000000000000000000604082015260600190565b60208082526003908201527f41314d0000000000000000000000000000000000000000000000000000000000604082015260600190565b60208082526003908201527f5455460000000000000000000000000000000000000000000000000000000000604082015260600190565b60208082526004908201527f6130613100000000000000000000000000000000000000000000000000000000604082015260600190565b60208082526001908201527f6d00000000000000000000000000000000000000000000000000000000000000604082015260600190565b918252602082015260400190565b9283526020830191909152604082015260600190565b93845260208401929092526040830152606082015260800190565b6001600160a01b038116811461164457600080fd5b8060020b811461164457600080fd5b6001600160801b038116811461164457600080fdfe456e756d657261626c655365743a20696e646578206f7574206f6620626f756e6473416464726573733a20696e73756666696369656e742062616c616e636520666f722063616c6c536166654d6174683a206d756c7469706c69636174696f6e206f766572666c6f775361666545524332303a204552433230206f7065726174696f6e20646964206e6f742073756363656564a164736f6c6343000706000aa164736f6c6343000706000a",
  "linkReferences": {},
  "deployedLinkReferences": {}
}