{
  "_format": "hh-sol-artifact-1",
  "contractName": "YangView",
  "sourceName": "contracts/YangView.sol",
  "abi": [
    {
      "inputs": [],
      "stateMutability": "nonpayable",
      "type": "constructor"
    },
    {
      "inputs": [
        {
          "internalType": "address",
          "name": "_pool",
          "type": "address"
        },
        {
          "internalType": "address",
          "name": "_vault",
          "type": "address"
        },
        {
          "internalType": "uint256",
          "name": "yangId",
          "type": "uint256"
        },
        {
          "internalType": "uint256",
          "name": "shares",
          "type": "uint256"
        }
      ],
      "name": "getAmounts",
      "outputs": [
        {
          "internalType": "uint256",
          "name": "amount0",
          "type": "uint256"
        },
        {
          "internalType": "uint256",
          "name": "amount1",
          "type": "uint256"
        }
      ],
      "stateMutability": "view",
      "type": "function"
    },
    {
      "inputs": [
        {
          "internalType": "address",
          "name": "_vault",
          "type": "address"
        },
        {
          "internalType": "uint256",
          "name": "amount0Desired",
          "type": "uint256"
        },
        {
          "internalType": "uint256",
          "name": "amount1Desired",
          "type": "uint256"
        }
      ],
      "name": "getSharesAndAmounts",
      "outputs": [
        {
          "internalType": "uint256",
          "name": "",
          "type": "uint256"
        },
        {
          "internalType": "uint256",
          "name": "",
          "type": "uint256"
        },
        {
          "internalType": "uint256",
          "name": "",
          "type": "uint256"
        }
      ],
      "stateMutability": "view",
      "type": "function"
    },
    {
      "inputs": [],
      "name": "owner",
      "outputs": [
        {
          "internalType": "address",
          "name": "",
          "type": "address"
        }
      ],
      "stateMutability": "view",
      "type": "function"
    },
    {
      "inputs": [
        {
          "internalType": "address",
          "name": "_yangNFT",
          "type": "address"
        }
      ],
      "name": "setYangNFT",
      "outputs": [],
      "stateMutability": "nonpayable",
      "type": "function"
    },
    {
      "inputs": [],
      "name": "yangNFT",
      "outputs": [
        {
          "internalType": "address",
          "name": "",
          "type": "address"
        }
      ],
      "stateMutability": "view",
      "type": "function"
    }
  ],
  "bytecode": "0x608060405234801561001057600080fd5b50600180546001600160a01b03191633179055611b54806100326000396000f3fe608060405234801561001057600080fd5b50600436106100675760003560e01c80638da5cb5b116100505780638da5cb5b146100ac578063abb54388146100b4578063e8dbd417146100d557610067565b80634259ab441461006c57806382dc04db1461008a575b600080fd5b6100746100ea565b6040516100819190611a80565b60405180910390f35b61009d610098366004611a13565b6100f9565b60405161008193929190611b10565b610074610244565b6100c76100c23660046119d2565b610253565b604051610081929190611b02565b6100e86100e33660046119b8565b61029e565b005b6000546001600160a01b031681565b60008054819081906001600160a01b031633146101315760405162461bcd60e51b815260040161012890611a94565b60405180910390fd5b6000869050600080826001600160a01b031663c4a7761e6040518163ffffffff1660e01b8152600401604080518083038186803b15801561017157600080fd5b505afa158015610185573d6000803e3d6000fd5b505050506040513d601f19601f820116820180604052508101906101a99190611a5d565b91509150600080600061022f85858d8d8a6001600160a01b03166318160ddd6040518163ffffffff1660e01b815260040160206040518083038186803b1580156101f257600080fd5b505afa158015610206573d6000803e3d6000fd5b505050506040513d601f19601f8201168201806040525081019061022a9190611a45565b610302565b919e909d50909b509950505050505050505050565b6001546001600160a01b031681565b6000805481906001600160a01b031633146102805760405162461bcd60e51b815260040161012890611a94565b848661028f8183338989610435565b90999098509650505050505050565b6001546001600160a01b031633146102c85760405162461bcd60e51b815260040161012890611acb565b600080547fffffffffffffffffffffffff0000000000000000000000000000000000000000166001600160a01b0392909216919091179055565b600080808315806103135750600088115b8061031e5750600087115b61032457fe5b8361033f57508490508361033882826109b8565b925061042a565b876103515750836103388185896109d3565b866103645785915061033882858a6109d3565b6000610382610373888a610a83565b61037d888c610a83565b610adc565b9050600081116103d9576040805162461bcd60e51b815260206004820152600160248201527f6300000000000000000000000000000000000000000000000000000000000000604482015290519081900360640190fd5b6103f76103f06103ea836001610aeb565b8a610b48565b6001610baf565b92506104106103f061040a836001610aeb565b8b610b48565b915061042661042082878c6109d3565b89610b48565b9350505b955095509592505050565b60008060005b866001600160a01b031663b135a1456040518163ffffffff1660e01b815260040160206040518083038186803b15801561047457600080fd5b505afa158015610488573d6000803e3d6000fd5b505050506040513d602081101561049e57600080fd5b50518110156105f557600080886001600160a01b031663cc364f48846040518263ffffffff1660e01b815260040180828152602001915050604080518083038186803b1580156104ed57600080fd5b505afa158015610501573d6000803e3d6000fd5b505050506040513d604081101561051757600080fd5b508051602090910151909250905060006105338b8b8585610c09565b90506fffffffffffffffffffffffffffffffff8116156105ea5760006040518061010001604052808d6001600160a01b031681526020018c6001600160a01b031681526020018b6001600160a01b031681526020018a8152602001836fffffffffffffffffffffffffffffffff1681526020018981526020018560020b81526020018460020b81525090506000806105ca83610c8e565b915091506105d88983610baf565b98506105e48882610baf565b97505050505b50505060010161043b565b506000876001600160a01b0316630dfe16816040518163ffffffff1660e01b815260040160206040518083038186803b15801561063157600080fd5b505afa158015610645573d6000803e3d6000fd5b505050506040513d602081101561065b57600080fd5b5051604080517fd21220a700000000000000000000000000000000000000000000000000000000815290519192506000916001600160a01b038b169163d21220a7916004808301926020929190829003018186803b1580156106bc57600080fd5b505afa1580156106d0573d6000803e3d6000fd5b505050506040513d60208110156106e657600080fd5b5051604080517f70a082310000000000000000000000000000000000000000000000000000000081526001600160a01b038b81166004830152915192935060009261087a9261080f92908716916370a0823191602480820192602092909190829003018186803b15801561075957600080fd5b505afa15801561076d573d6000803e3d6000fd5b505050506040513d602081101561078357600080fd5b5051604080517feae989a200000000000000000000000000000000000000000000000000000000815290516001600160a01b038e169163eae989a2916004808301926020929190829003018186803b1580156107de57600080fd5b505afa1580156107f2573d6000803e3d6000fd5b505050506040513d602081101561080857600080fd5b5051610aeb565b878b6001600160a01b03166318160ddd6040518163ffffffff1660e01b815260040160206040518083038186803b15801561084957600080fd5b505afa15801561085d573d6000803e3d6000fd5b505050506040513d602081101561087357600080fd5b50516109d3565b90506000610990610956846001600160a01b03166370a082318d6040518263ffffffff1660e01b815260040180826001600160a01b0316815260200191505060206040518083038186803b1580156108d157600080fd5b505afa1580156108e5573d6000803e3d6000fd5b505050506040513d60208110156108fb57600080fd5b5051604080517fa00fa77f00000000000000000000000000000000000000000000000000000000815290516001600160a01b038f169163a00fa77f916004808301926020929190829003018186803b1580156107de57600080fd5b888c6001600160a01b03166318160ddd6040518163ffffffff1660e01b815260040160206040518083038186803b15801561084957600080fd5b905061099c8683610baf565b95506109a88582610baf565b9450505050509550959350505050565b6000818310156109c857816109ca565b825b90505b92915050565b6000808060001985870986860292508281109083900303905080610a0957600084116109fe57600080fd5b508290049050610a7c565b808411610a1557600080fd5b6000848688096000868103871696879004966002600389028118808a02820302808a02820302808a02820302808a02820302808a02820302808a02909103029181900381900460010186841190950394909402919094039290920491909117919091029150505b9392505050565b600082610a92575060006109cd565b82820282848281610a9f57fe5b04146109ca5760405162461bcd60e51b8152600401808060200182810382526021815260200180611b276021913960400191505060405180910390fd5b60008183106109c857816109ca565b600082821115610b42576040805162461bcd60e51b815260206004820152601e60248201527f536166654d6174683a207375627472616374696f6e206f766572666c6f770000604482015290519081900360640190fd5b50900390565b6000808211610b9e576040805162461bcd60e51b815260206004820152601a60248201527f536166654d6174683a206469766973696f6e206279207a65726f000000000000604482015290519081900360640190fd5b818381610ba757fe5b049392505050565b6000828201838110156109ca576040805162461bcd60e51b815260206004820152601b60248201527f536166654d6174683a206164646974696f6e206f766572666c6f770000000000604482015290519081900360640190fd5b6000846001600160a01b031663514ea4bf610c25868686610df9565b6040518263ffffffff1660e01b81526004018082815260200191505060a06040518083038186803b158015610c5957600080fd5b505afa158015610c6d573d6000803e3d6000fd5b505050506040513d60a0811015610c8357600080fd5b505195945050505050565b6000806000610cfa610cf285608001516fffffffffffffffffffffffffffffffff168660a0015187602001516001600160a01b03166318160ddd6040518163ffffffff1660e01b815260040160206040518083038186803b15801561084957600080fd5b600003610e4f565b9050600081600f0b1315610df3576060840151845160c086015160e08701516000928392610d289287610e65565b915091506000610d468489602001518a60c001518b60e00151610f82565b90506000610d6189602001518a60c001518b60e00151610df9565b905060006040518060c001604052808b600001516001600160a01b031681526020018b604001516001600160a01b03168152602001848152602001838152602001868152602001858152509050600080610dc48c60c001518d60e0015185610fdb565b91509150818711610dd55786610dd7565b815b9a50808611610de65785610de8565b805b995050505050505050505b50915091565b6040805160609490941b6bffffffffffffffffffffffff1916602080860191909152600293840b60e890811b60348701529290930b90911b60378401528051808403601a018152603a9093019052815191012090565b80600f81900b8114610e6057600080fd5b919050565b600080600080876001600160a01b0316633850c7bd6040518163ffffffff1660e01b815260040160e06040518083038186803b158015610ea457600080fd5b505afa158015610eb8573d6000803e3d6000fd5b505050506040513d60e0811015610ece57600080fd5b5080516020909101519092509050600080600f87900b15610f6e578860020b8360020b1215610f1957610f12610f038a6110cc565b610f0c8a6110cc565b89611427565b9150610f6e565b8760020b8360020b1215610f5057610f3484610f0c8a6110cc565b9150610f49610f428a6110cc565b858961146c565b9050610f6e565b610f6b610f5c8a6110cc565b610f658a6110cc565b8961146c565b90505b60009182039a910398509650505050505050565b6040805160208082019690965260609490941b6bffffffffffffffffffffffff191684820152600292830b60e890811b60548601529190920b901b60578301528051808303603a018152605a9092019052805191012090565b600080600080600080600087602001516001600160a01b0316638ae881ab89604001516040518263ffffffff1660e01b81526004018082815260200191505060a06040518083038186803b15801561103257600080fd5b505afa158015611046573d6000803e3d6000fd5b505050506040513d60a081101561105c57600080fd5b508051602082015160408301516060808501516080909501518d51918e0151949a509298509096509294509250600091829161109a91908e8e61149b565b915091506110b98787878d6080015188018e60a0015188018787611743565b9850985050505050505050935093915050565b60008060008360020b126110e3578260020b6110eb565b8260020b6000035b9050620d89e8811115611145576040805162461bcd60e51b815260206004820152600160248201527f5400000000000000000000000000000000000000000000000000000000000000604482015290519081900360640190fd5b60006001821661116657700100000000000000000000000000000000611178565b6ffffcb933bd6fad37aa2d162d1a5940015b70ffffffffffffffffffffffffffffffffff16905060028216156111ac576ffff97272373d413259a46990580e213a0260801c5b60048216156111cb576ffff2e50f5f656932ef12357cf3c7fdcc0260801c5b60088216156111ea576fffe5caca7e10e4e61c3624eaa0941cd00260801c5b6010821615611209576fffcb9843d60f6159c9db58835c9266440260801c5b6020821615611228576fff973b41fa98c081472e6896dfb254c00260801c5b6040821615611247576fff2ea16466c96a3843ec78b326b528610260801c5b6080821615611266576ffe5dee046a99a2a811c461f1969c30530260801c5b610100821615611286576ffcbe86c7900a88aedcffc83b479aa3a40260801c5b6102008216156112a6576ff987a7253ac413176f2b074cf7815e540260801c5b6104008216156112c6576ff3392b0822b70005940c7a398e4b70f30260801c5b6108008216156112e6576fe7159475a2c29b7443b29c7fa6e889d90260801c5b611000821615611306576fd097f3bdfd2022b8845ad8f792aa58250260801c5b612000821615611326576fa9f746462d870fdf8a65dc1f90e061e50260801c5b614000821615611346576f70d869a156d2a1b890bb3df62baf32f70260801c5b618000821615611366576f31be135f97d08fd981231505542fcfa60260801c5b62010000821615611387576f09aa508b5b7a84e1c677de54f3e99bc90260801c5b620200008216156113a7576e5d6af8dedb81196699c329225ee6040260801c5b620400008216156113c6576d2216e584f5fa1ea926041bedfe980260801c5b620800008216156113e3576b048a170391f7dc42444e8fa20260801c5b60008460020b13156113fe5780600019816113fa57fe5b0490505b640100000000810615611412576001611415565b60005b60ff16602082901c0192505050919050565b60008082600f0b1261144d5761144861144385858560016117d0565b61188d565b611464565b61146061144385858560000360006117d0565b6000035b949350505050565b60008082600f0b126114885761144861144385858560016118bf565b61146061144385858560000360006118bf565b600080600080876001600160a01b031663514ea4bf886040518263ffffffff1660e01b81526004018082815260200191505060a06040518083038186803b1580156114e557600080fd5b505afa1580156114f9573d6000803e3d6000fd5b505050506040513d60a081101561150f57600080fd5b50602081015160409182015182517f3850c7bd000000000000000000000000000000000000000000000000000000008152925191945092506000916001600160a01b038b1691633850c7bd9160048082019260e092909190829003018186803b15801561157b57600080fd5b505afa15801561158f573d6000803e3d6000fd5b505050506040513d60e08110156115a557600080fd5b5060200151604080517ff30dba9300000000000000000000000000000000000000000000000000000000815260028a900b6004820152905191925060009182916001600160a01b038d169163f30dba939160248082019261010092909190829003018186803b15801561161757600080fd5b505afa15801561162b573d6000803e3d6000fd5b505050506040513d61010081101561164257600080fd5b506040810151606090910151909250905060008060028b810b9086900b1261166e575082905081611677565b50508185038185035b6000808e6001600160a01b031663f30dba938d6040518263ffffffff1660e01b8152600401808260020b81526020019150506101006040518083038186803b1580156116c257600080fd5b505afa1580156116d6573d6000803e3d6000fd5b505050506040513d6101008110156116ed57600080fd5b506040810151606090910151909250905060008060028e810b908a900b121561171a575082905081611723565b50508189038189035b94909903989098039e91909603919091039b509950505050505050505050565b6000806117768885038a6fffffffffffffffffffffffffffffffff167001000000000000000000000000000000006109d3565b860195506117aa8784038a6fffffffffffffffffffffffffffffffff167001000000000000000000000000000000006109d3565b6fffffffffffffffffffffffffffffffff9687169a950190951697509295505050505050565b6000836001600160a01b0316856001600160a01b031611156117f0579293925b7bffffffffffffffffffffffffffffffff000000000000000000000000606084901b166001600160a01b03868603811690871661182c57600080fd5b8361185c57866001600160a01b031661184f8383896001600160a01b03166109d3565b8161185657fe5b04611882565b6118826118738383896001600160a01b031661195c565b886001600160a01b0316611996565b979650505050505050565b60007f800000000000000000000000000000000000000000000000000000000000000082106118bb57600080fd5b5090565b6000836001600160a01b0316856001600160a01b031611156118df579293925b8161191e57611919836fffffffffffffffffffffffffffffffff168686036001600160a01b03166c010000000000000000000000006109d3565b611953565b611953836fffffffffffffffffffffffffffffffff168686036001600160a01b03166c0100000000000000000000000061195c565b95945050505050565b60006119698484846109d3565b90506000828061197557fe5b8486091115610a7c57600019811061198c57600080fd5b6001019392505050565b808204910615150190565b80356001600160a01b0381168114610e6057600080fd5b6000602082840312156119c9578081fd5b6109ca826119a1565b600080600080608085870312156119e7578283fd5b6119f0856119a1565b93506119fe602086016119a1565b93969395505050506040820135916060013590565b600080600060608486031215611a27578283fd5b611a30846119a1565b95602085013595506040909401359392505050565b600060208284031215611a56578081fd5b5051919050565b60008060408385031215611a6f578182fd5b505080516020909101519092909150565b6001600160a01b0391909116815260200190565b60208082526009908201527f6f6e6c792079616e670000000000000000000000000000000000000000000000604082015260600190565b6020808252600a908201527f6f6e6c79206f776e657200000000000000000000000000000000000000000000604082015260600190565b918252602082015260400190565b928352602083019190915260408201526060019056fe536166654d6174683a206d756c7469706c69636174696f6e206f766572666c6f77a164736f6c6343000706000a",
  "linkReferences": {},
  "deployedLinkReferences": {}
}