{
  "_format": "hh-sol-artifact-1",
  "contractName": "TestERC20",
  "sourceName": "contracts/test/TestERC20.sol",
  "abi": [
    {
      "inputs": [
        {
          "internalType": "uint256",
          "name": "amountToMint",
          "type": "uint256"
        }
      ],
      "stateMutability": "nonpayable",
      "type": "constructor"
    },
    {
      "anonymous": false,
      "inputs": [
        {
          "indexed": true,
          "internalType": "address",
          "name": "owner",
          "type": "address"
        },
        {
          "indexed": true,
          "internalType": "address",
          "name": "spender",
          "type": "address"
        },
        {
          "indexed": false,
          "internalType": "uint256",
          "name": "value",
          "type": "uint256"
        }
      ],
      "name": "Approval",
      "type": "event"
    },
    {
      "anonymous": false,
      "inputs": [
        {
          "indexed": true,
          "internalType": "address",
          "name": "from",
          "type": "address"
        },
        {
          "indexed": true,
          "internalType": "address",
          "name": "to",
          "type": "address"
        },
        {
          "indexed": false,
          "internalType": "uint256",
          "name": "value",
          "type": "uint256"
        }
      ],
      "name": "Transfer",
      "type": "event"
    },
    {
      "inputs": [
        {
          "internalType": "address",
          "name": "",
          "type": "address"
        },
        {
          "internalType": "address",
          "name": "",
          "type": "address"
        }
      ],
      "name": "allowance",
      "outputs": [
        {
          "internalType": "uint256",
          "name": "",
          "type": "uint256"
        }
      ],
      "stateMutability": "view",
      "type": "function"
    },
    {
      "inputs": [
        {
          "internalType": "address",
          "name": "spender",
          "type": "address"
        },
        {
          "internalType": "uint256",
          "name": "amount",
          "type": "uint256"
        }
      ],
      "name": "approve",
      "outputs": [
        {
          "internalType": "bool",
          "name": "",
          "type": "bool"
        }
      ],
      "stateMutability": "nonpayable",
      "type": "function"
    },
    {
      "inputs": [
        {
          "internalType": "address",
          "name": "",
          "type": "address"
        }
      ],
      "name": "balanceOf",
      "outputs": [
        {
          "internalType": "uint256",
          "name": "",
          "type": "uint256"
        }
      ],
      "stateMutability": "view",
      "type": "function"
    },
    {
      "inputs": [
        {
          "internalType": "address",
          "name": "to",
          "type": "address"
        },
        {
          "internalType": "uint256",
          "name": "amount",
          "type": "uint256"
        }
      ],
      "name": "mint",
      "outputs": [],
      "stateMutability": "nonpayable",
      "type": "function"
    },
    {
      "inputs": [
        {
          "internalType": "address",
          "name": "recipient",
          "type": "address"
        },
        {
          "internalType": "uint256",
          "name": "amount",
          "type": "uint256"
        }
      ],
      "name": "transfer",
      "outputs": [
        {
          "internalType": "bool",
          "name": "",
          "type": "bool"
        }
      ],
      "stateMutability": "nonpayable",
      "type": "function"
    },
    {
      "inputs": [
        {
          "internalType": "address",
          "name": "sender",
          "type": "address"
        },
        {
          "internalType": "address",
          "name": "recipient",
          "type": "address"
        },
        {
          "internalType": "uint256",
          "name": "amount",
          "type": "uint256"
        }
      ],
      "name": "transferFrom",
      "outputs": [
        {
          "internalType": "bool",
          "name": "",
          "type": "bool"
        }
      ],
      "stateMutability": "nonpayable",
      "type": "function"
    }
  ],
  "bytecode": "0x608060405234801561001057600080fd5b506040516108413803806108418339818101604052602081101561003357600080fd5b505161003f3382610045565b5061013c565b6001600160a01b03821660009081526020818152604082205461007191849061062b6100db821b17901c565b9050818110156100bb576040805162461bcd60e51b815260206004820152601060248201526f6f766572666c6f772062616c616e636560801b604482015290519081900360640190fd5b6001600160a01b0390921660009081526020819052604090209190915550565b600082820183811015610135576040805162461bcd60e51b815260206004820152601b60248201527f536166654d6174683a206164646974696f6e206f766572666c6f770000000000604482015290519081900360640190fd5b9392505050565b6106f68061014b6000396000f3fe608060405234801561001057600080fd5b50600436106100725760003560e01c806370a082311161005057806370a082311461011b578063a9059cbb14610153578063dd62ed3e1461017f57610072565b8063095ea7b31461007757806323b872dd146100b757806340c10f19146100ed575b600080fd5b6100a36004803603604081101561008d57600080fd5b506001600160a01b0381351690602001356101ad565b604080519115158252519081900360200190f35b6100a3600480360360608110156100cd57600080fd5b506001600160a01b03813581169160208101359091169060400135610213565b6101196004803603604081101561010357600080fd5b506001600160a01b038135169060200135610412565b005b6101416004803603602081101561013157600080fd5b50356001600160a01b03166104ac565b60408051918252519081900360200190f35b6100a36004803603604081101561016957600080fd5b506001600160a01b0381351690602001356104be565b6101416004803603604081101561019557600080fd5b506001600160a01b038135811691602001351661060e565b3360008181526001602090815260408083206001600160a01b038716808552908352818420869055815186815291519394909390927f8c5be1e5ebec7d5bd14f71427d1e84f3dd0314c0f7b2291e5b200ac8c7c3b925928290030190a350600192915050565b6001600160a01b03831660009081526001602090815260408083203384529091528120548281101561028c576040805162461bcd60e51b815260206004820152601660248201527f616c6c6f77616e636520696e73756666696369656e7400000000000000000000604482015290519081900360640190fd5b610296818461068c565b6001600160a01b0380871660009081526001602090815260408083203384528252808320949094559187168152908190522054838101811115610320576040805162461bcd60e51b815260206004820152601a60248201527f6f766572666c6f772062616c616e636520726563697069656e74000000000000604482015290519081900360640190fd5b61032a818561062b565b6001600160a01b038087166000908152602081905260408082209390935590881681522054848110156103a4576040805162461bcd60e51b815260206004820152601860248201527f756e646572666c6f772062616c616e63652073656e6465720000000000000000604482015290519081900360640190fd5b6103ae818661068c565b6001600160a01b03808916600081815260208181526040918290209490945580518981529051928a169391927fddf252ad1be2c89b69c2b068fc378daa952ba7f163c4a11628f55a4df523b3ef929181900390910190a35060019695505050505050565b6001600160a01b038216600090815260208190526040812054610435908361062b565b90508181101561048c576040805162461bcd60e51b815260206004820152601060248201527f6f766572666c6f772062616c616e636500000000000000000000000000000000604482015290519081900360640190fd5b6001600160a01b0390921660009081526020819052604090209190915550565b60006020819052908152604090205481565b3360009081526020819052604081205482811015610523576040805162461bcd60e51b815260206004820152601460248201527f696e73756666696369656e742062616c616e6365000000000000000000000000604482015290519081900360640190fd5b61052d818461068c565b33600090815260208190526040808220929092556001600160a01b038616815220548381018111156105a6576040805162461bcd60e51b815260206004820152601a60248201527f726563697069656e742062616c616e6365206f766572666c6f77000000000000604482015290519081900360640190fd5b6105b0818561062b565b6001600160a01b038616600081815260208181526040918290209390935580518781529051919233927fddf252ad1be2c89b69c2b068fc378daa952ba7f163c4a11628f55a4df523b3ef9281900390910190a3506001949350505050565b600160209081526000928352604080842090915290825290205481565b600082820183811015610685576040805162461bcd60e51b815260206004820152601b60248201527f536166654d6174683a206164646974696f6e206f766572666c6f770000000000604482015290519081900360640190fd5b9392505050565b6000828211156106e3576040805162461bcd60e51b815260206004820152601e60248201527f536166654d6174683a207375627472616374696f6e206f766572666c6f770000604482015290519081900360640190fd5b5090039056fea164736f6c6343000706000a",
  "linkReferences": {},
  "deployedLinkReferences": {}
}