{
  "_format": "hh-sol-artifact-1",
  "contractName": "TestCHIManager",
  "sourceName": "contracts/test/TestCHIManager.sol",
  "abi": [
    {
      "inputs": [
        {
          "internalType": "address",
          "name": "_v3Factory",
          "type": "address"
        },
        {
          "internalType": "address",
          "name": "_yangNFT",
          "type": "address"
        },
        {
          "internalType": "address",
          "name": "_deployer",
          "type": "address"
        },
        {
          "internalType": "bytes32",
          "name": "_merkleRoot",
          "type": "bytes32"
        }
      ],
      "stateMutability": "nonpayable",
      "type": "constructor"
    },
    {
      "anonymous": false,
      "inputs": [
        {
          "indexed": true,
          "internalType": "address",
          "name": "owner",
          "type": "address"
        },
        {
          "indexed": true,
          "internalType": "address",
          "name": "approved",
          "type": "address"
        },
        {
          "indexed": true,
          "internalType": "uint256",
          "name": "tokenId",
          "type": "uint256"
        }
      ],
      "name": "Approval",
      "type": "event"
    },
    {
      "anonymous": false,
      "inputs": [
        {
          "indexed": true,
          "internalType": "address",
          "name": "owner",
          "type": "address"
        },
        {
          "indexed": true,
          "internalType": "address",
          "name": "operator",
          "type": "address"
        },
        {
          "indexed": false,
          "internalType": "bool",
          "name": "approved",
          "type": "bool"
        }
      ],
      "name": "ApprovalForAll",
      "type": "event"
    },
    {
      "anonymous": false,
      "inputs": [
        {
          "indexed": false,
          "internalType": "uint256",
          "name": "tokenId",
          "type": "uint256"
        },
        {
          "indexed": false,
          "internalType": "address",
          "name": "pool",
          "type": "address"
        },
        {
          "indexed": false,
          "internalType": "address",
          "name": "vault",
          "type": "address"
        },
        {
          "indexed": false,
          "internalType": "uint256",
          "name": "vaultFee",
          "type": "uint256"
        }
      ],
      "name": "Create",
      "type": "event"
    },
    {
      "anonymous": false,
      "inputs": [
        {
          "indexed": true,
          "internalType": "address",
          "name": "from",
          "type": "address"
        },
        {
          "indexed": true,
          "internalType": "address",
          "name": "to",
          "type": "address"
        },
        {
          "indexed": true,
          "internalType": "uint256",
          "name": "tokenId",
          "type": "uint256"
        }
      ],
      "name": "Transfer",
      "type": "event"
    },
    {
      "inputs": [
        {
          "internalType": "contract IERC20",
          "name": "token0",
          "type": "address"
        },
        {
          "internalType": "uint256",
          "name": "amount0",
          "type": "uint256"
        },
        {
          "internalType": "contract IERC20",
          "name": "token1",
          "type": "address"
        },
        {
          "internalType": "uint256",
          "name": "amount1",
          "type": "uint256"
        }
      ],
      "name": "CHIDepositCallback",
      "outputs": [],
      "stateMutability": "nonpayable",
      "type": "function"
    },
    {
      "inputs": [
        {
          "internalType": "uint256",
          "name": "tokenId",
          "type": "uint256"
        },
        {
          "internalType": "uint256",
          "name": "rangeIndex",
          "type": "uint256"
        },
        {
          "internalType": "uint256",
          "name": "amount0Desired",
          "type": "uint256"
        },
        {
          "internalType": "uint256",
          "name": "amount1Desired",
          "type": "uint256"
        }
      ],
      "name": "addLiquidityToPosition",
      "outputs": [],
      "stateMutability": "nonpayable",
      "type": "function"
    },
    {
      "inputs": [
        {
          "internalType": "uint256",
          "name": "tokenId",
          "type": "uint256"
        },
        {
          "internalType": "int24",
          "name": "tickLower",
          "type": "int24"
        },
        {
          "internalType": "int24",
          "name": "tickUpper",
          "type": "int24"
        }
      ],
      "name": "addRange",
      "outputs": [],
      "stateMutability": "nonpayable",
      "type": "function"
    },
    {
      "inputs": [
        {
          "internalType": "address",
          "name": "to",
          "type": "address"
        },
        {
          "internalType": "uint256",
          "name": "tokenId",
          "type": "uint256"
        }
      ],
      "name": "approve",
      "outputs": [],
      "stateMutability": "nonpayable",
      "type": "function"
    },
    {
      "inputs": [
        {
          "internalType": "address",
          "name": "owner",
          "type": "address"
        }
      ],
      "name": "balanceOf",
      "outputs": [
        {
          "internalType": "uint256",
          "name": "",
          "type": "uint256"
        }
      ],
      "stateMutability": "view",
      "type": "function"
    },
    {
      "inputs": [],
      "name": "baseURI",
      "outputs": [
        {
          "internalType": "string",
          "name": "",
          "type": "string"
        }
      ],
      "stateMutability": "view",
      "type": "function"
    },
    {
      "inputs": [
        {
          "internalType": "uint256",
          "name": "tokenId",
          "type": "uint256"
        }
      ],
      "name": "chi",
      "outputs": [
        {
          "internalType": "address",
          "name": "owner",
          "type": "address"
        },
        {
          "internalType": "address",
          "name": "operator",
          "type": "address"
        },
        {
          "internalType": "address",
          "name": "pool",
          "type": "address"
        },
        {
          "internalType": "address",
          "name": "vault",
          "type": "address"
        },
        {
          "internalType": "uint256",
          "name": "accruedProtocolFees0",
          "type": "uint256"
        },
        {
          "internalType": "uint256",
          "name": "accruedProtocolFees1",
          "type": "uint256"
        },
        {
          "internalType": "uint256",
          "name": "fee",
          "type": "uint256"
        },
        {
          "internalType": "uint256",
          "name": "totalShares",
          "type": "uint256"
        }
      ],
      "stateMutability": "view",
      "type": "function"
    },
    {
      "inputs": [
        {
          "internalType": "uint256",
          "name": "tokenId",
          "type": "uint256"
        },
        {
          "internalType": "uint256",
          "name": "amount0",
          "type": "uint256"
        },
        {
          "internalType": "uint256",
          "name": "amount1",
          "type": "uint256"
        },
        {
          "internalType": "address",
          "name": "to",
          "type": "address"
        }
      ],
      "name": "collectProtocol",
      "outputs": [],
      "stateMutability": "nonpayable",
      "type": "function"
    },
    {
      "inputs": [],
      "name": "deployer",
      "outputs": [
        {
          "internalType": "address",
          "name": "",
          "type": "address"
        }
      ],
      "stateMutability": "view",
      "type": "function"
    },
    {
      "inputs": [
        {
          "internalType": "uint256",
          "name": "tokenId",
          "type": "uint256"
        }
      ],
      "name": "getApproved",
      "outputs": [
        {
          "internalType": "address",
          "name": "",
          "type": "address"
        }
      ],
      "stateMutability": "view",
      "type": "function"
    },
    {
      "inputs": [
        {
          "internalType": "address",
          "name": "owner",
          "type": "address"
        },
        {
          "internalType": "address",
          "name": "operator",
          "type": "address"
        }
      ],
      "name": "isApprovedForAll",
      "outputs": [
        {
          "internalType": "bool",
          "name": "",
          "type": "bool"
        }
      ],
      "stateMutability": "view",
      "type": "function"
    },
    {
      "inputs": [],
      "name": "merkleRoot",
      "outputs": [
        {
          "internalType": "bytes32",
          "name": "",
          "type": "bytes32"
        }
      ],
      "stateMutability": "view",
      "type": "function"
    },
    {
      "inputs": [
        {
          "components": [
            {
              "internalType": "address",
              "name": "recipient",
              "type": "address"
            },
            {
              "internalType": "address",
              "name": "token0",
              "type": "address"
            },
            {
              "internalType": "address",
              "name": "token1",
              "type": "address"
            },
            {
              "internalType": "uint24",
              "name": "fee",
              "type": "uint24"
            },
            {
              "internalType": "uint256",
              "name": "vaultFee",
              "type": "uint256"
            }
          ],
          "internalType": "struct ICHIManager.MintParams",
          "name": "params",
          "type": "tuple"
        },
        {
          "internalType": "bytes32[]",
          "name": "merkleProof",
          "type": "bytes32[]"
        }
      ],
      "name": "mint",
      "outputs": [
        {
          "internalType": "uint256",
          "name": "tokenId",
          "type": "uint256"
        },
        {
          "internalType": "address",
          "name": "vault",
          "type": "address"
        }
      ],
      "stateMutability": "nonpayable",
      "type": "function"
    },
    {
      "inputs": [],
      "name": "name",
      "outputs": [
        {
          "internalType": "string",
          "name": "",
          "type": "string"
        }
      ],
      "stateMutability": "view",
      "type": "function"
    },
    {
      "inputs": [],
      "name": "owner",
      "outputs": [
        {
          "internalType": "address",
          "name": "",
          "type": "address"
        }
      ],
      "stateMutability": "view",
      "type": "function"
    },
    {
      "inputs": [
        {
          "internalType": "uint256",
          "name": "tokenId",
          "type": "uint256"
        }
      ],
      "name": "ownerOf",
      "outputs": [
        {
          "internalType": "address",
          "name": "",
          "type": "address"
        }
      ],
      "stateMutability": "view",
      "type": "function"
    },
    {
      "inputs": [
        {
          "internalType": "bytes32",
          "name": "",
          "type": "bytes32"
        }
      ],
      "name": "positions",
      "outputs": [
        {
          "internalType": "uint256",
          "name": "shares",
          "type": "uint256"
        }
      ],
      "stateMutability": "view",
      "type": "function"
    },
    {
      "inputs": [
        {
          "internalType": "uint256",
          "name": "tokenId",
          "type": "uint256"
        },
        {
          "internalType": "uint256",
          "name": "rangeIndex",
          "type": "uint256"
        }
      ],
      "name": "removeAllLiquidityFromPosition",
      "outputs": [],
      "stateMutability": "nonpayable",
      "type": "function"
    },
    {
      "inputs": [
        {
          "internalType": "uint256",
          "name": "tokenId",
          "type": "uint256"
        },
        {
          "internalType": "uint256",
          "name": "rangeIndex",
          "type": "uint256"
        },
        {
          "internalType": "uint128",
          "name": "liquidity",
          "type": "uint128"
        }
      ],
      "name": "removeLiquidityFromPosition",
      "outputs": [],
      "stateMutability": "nonpayable",
      "type": "function"
    },
    {
      "inputs": [
        {
          "internalType": "uint256",
          "name": "tokenId",
          "type": "uint256"
        },
        {
          "internalType": "int24",
          "name": "tickLower",
          "type": "int24"
        },
        {
          "internalType": "int24",
          "name": "tickUpper",
          "type": "int24"
        }
      ],
      "name": "removeRange",
      "outputs": [],
      "stateMutability": "nonpayable",
      "type": "function"
    },
    {
      "inputs": [
        {
          "internalType": "address",
          "name": "from",
          "type": "address"
        },
        {
          "internalType": "address",
          "name": "to",
          "type": "address"
        },
        {
          "internalType": "uint256",
          "name": "tokenId",
          "type": "uint256"
        }
      ],
      "name": "safeTransferFrom",
      "outputs": [],
      "stateMutability": "nonpayable",
      "type": "function"
    },
    {
      "inputs": [
        {
          "internalType": "address",
          "name": "from",
          "type": "address"
        },
        {
          "internalType": "address",
          "name": "to",
          "type": "address"
        },
        {
          "internalType": "uint256",
          "name": "tokenId",
          "type": "uint256"
        },
        {
          "internalType": "bytes",
          "name": "_data",
          "type": "bytes"
        }
      ],
      "name": "safeTransferFrom",
      "outputs": [],
      "stateMutability": "nonpayable",
      "type": "function"
    },
    {
      "inputs": [
        {
          "internalType": "address",
          "name": "operator",
          "type": "address"
        },
        {
          "internalType": "bool",
          "name": "approved",
          "type": "bool"
        }
      ],
      "name": "setApprovalForAll",
      "outputs": [],
      "stateMutability": "nonpayable",
      "type": "function"
    },
    {
      "inputs": [
        {
          "internalType": "uint256",
          "name": "yangId",
          "type": "uint256"
        },
        {
          "internalType": "uint256",
          "name": "tokenId",
          "type": "uint256"
        },
        {
          "internalType": "uint256",
          "name": "amount0Desired",
          "type": "uint256"
        },
        {
          "internalType": "uint256",
          "name": "amount1Desired",
          "type": "uint256"
        },
        {
          "internalType": "uint256",
          "name": "amount0Min",
          "type": "uint256"
        },
        {
          "internalType": "uint256",
          "name": "amount1Min",
          "type": "uint256"
        }
      ],
      "name": "subscribe",
      "outputs": [
        {
          "internalType": "uint256",
          "name": "shares",
          "type": "uint256"
        },
        {
          "internalType": "uint256",
          "name": "amount0",
          "type": "uint256"
        },
        {
          "internalType": "uint256",
          "name": "amount1",
          "type": "uint256"
        }
      ],
      "stateMutability": "nonpayable",
      "type": "function"
    },
    {
      "inputs": [
        {
          "internalType": "bytes4",
          "name": "interfaceId",
          "type": "bytes4"
        }
      ],
      "name": "supportsInterface",
      "outputs": [
        {
          "internalType": "bool",
          "name": "",
          "type": "bool"
        }
      ],
      "stateMutability": "view",
      "type": "function"
    },
    {
      "inputs": [],
      "name": "symbol",
      "outputs": [
        {
          "internalType": "string",
          "name": "",
          "type": "string"
        }
      ],
      "stateMutability": "view",
      "type": "function"
    },
    {
      "inputs": [
        {
          "internalType": "uint256",
          "name": "index",
          "type": "uint256"
        }
      ],
      "name": "tokenByIndex",
      "outputs": [
        {
          "internalType": "uint256",
          "name": "",
          "type": "uint256"
        }
      ],
      "stateMutability": "view",
      "type": "function"
    },
    {
      "inputs": [
        {
          "internalType": "address",
          "name": "owner",
          "type": "address"
        },
        {
          "internalType": "uint256",
          "name": "index",
          "type": "uint256"
        }
      ],
      "name": "tokenOfOwnerByIndex",
      "outputs": [
        {
          "internalType": "uint256",
          "name": "",
          "type": "uint256"
        }
      ],
      "stateMutability": "view",
      "type": "function"
    },
    {
      "inputs": [
        {
          "internalType": "uint256",
          "name": "tokenId",
          "type": "uint256"
        }
      ],
      "name": "tokenURI",
      "outputs": [
        {
          "internalType": "string",
          "name": "",
          "type": "string"
        }
      ],
      "stateMutability": "view",
      "type": "function"
    },
    {
      "inputs": [],
      "name": "totalSupply",
      "outputs": [
        {
          "internalType": "uint256",
          "name": "",
          "type": "uint256"
        }
      ],
      "stateMutability": "view",
      "type": "function"
    },
    {
      "inputs": [
        {
          "internalType": "address",
          "name": "from",
          "type": "address"
        },
        {
          "internalType": "address",
          "name": "to",
          "type": "address"
        },
        {
          "internalType": "uint256",
          "name": "tokenId",
          "type": "uint256"
        }
      ],
      "name": "transferFrom",
      "outputs": [],
      "stateMutability": "nonpayable",
      "type": "function"
    },
    {
      "inputs": [
        {
          "internalType": "uint256",
          "name": "yangId",
          "type": "uint256"
        },
        {
          "internalType": "uint256",
          "name": "tokenId",
          "type": "uint256"
        },
        {
          "internalType": "uint256",
          "name": "shares",
          "type": "uint256"
        },
        {
          "internalType": "uint256",
          "name": "amount0Min",
          "type": "uint256"
        },
        {
          "internalType": "uint256",
          "name": "amount1Min",
          "type": "uint256"
        }
      ],
      "name": "unsubscribe",
      "outputs": [
        {
          "internalType": "uint256",
          "name": "amount0",
          "type": "uint256"
        },
        {
          "internalType": "uint256",
          "name": "amount1",
          "type": "uint256"
        }
      ],
      "stateMutability": "nonpayable",
      "type": "function"
    },
    {
      "inputs": [
        {
          "internalType": "bytes32",
          "name": "_merkleRoot",
          "type": "bytes32"
        }
      ],
      "name": "updateMerkleRoot",
      "outputs": [],
      "stateMutability": "nonpayable",
      "type": "function"
    },
    {
      "inputs": [],
      "name": "v3Factory",
      "outputs": [
        {
          "internalType": "address",
          "name": "",
          "type": "address"
        }
      ],
      "stateMutability": "view",
      "type": "function"
    },
    {
      "inputs": [],
      "name": "yangNFT",
      "outputs": [
        {
          "internalType": "address",
          "name": "",
          "type": "address"
        }
      ],
      "stateMutability": "view",
      "type": "function"
    }
  ],
  "bytecode": "0x6080604052600a80546001600160b01b03191660011790553480156200002457600080fd5b50604051620038cf380380620038cf83398101604081905262000047916200028f565b604051806060016040528060228152602001620038ad6022913960408051808201909152600381526243484960e81b60208201526200008d6301ffc9a760e01b62000141565b8151620000a2906006906020850190620001c6565b508051620000b8906007906020840190620001c6565b50620000cb6380ac58cd60e01b62000141565b620000dd635b5e139f60e01b62000141565b620000ef63780e9d6360e01b62000141565b5050600d8054336001600160a01b031991821617909155600e805482166001600160a01b03968716179055600f80548216948616949094179093556010805490931691909316179055601155620002e0565b6001600160e01b03198082161415620001a1576040805162461bcd60e51b815260206004820152601c60248201527f4552433136353a20696e76616c696420696e7465726661636520696400000000604482015290519081900360640190fd5b6001600160e01b0319166000908152602081905260409020805460ff19166001179055565b828054600181600116156101000203166002900490600052602060002090601f016020900481019282620001fe576000855562000249565b82601f106200021957805160ff191683800117855562000249565b8280016001018555821562000249579182015b82811115620002495782518255916020019190600101906200022c565b50620002579291506200025b565b5090565b5b808211156200025757600081556001016200025c565b80516001600160a01b03811681146200028a57600080fd5b919050565b60008060008060808587031215620002a5578384fd5b620002b08562000272565b9350620002c06020860162000272565b9250620002d06040860162000272565b6060959095015193969295505050565b6135bd80620002f06000396000f3fe608060405234801561001057600080fd5b50600436106102415760003560e01c80635d87b6e411610145578063b88d4fde116100bd578063d5f394881161008c578063e985e9c511610071578063e985e9c5146104b2578063ec28fcac146104c5578063ed1bbd0b146104e757610241565b8063d5f3948814610497578063e2c3350e1461049f57610241565b8063b88d4fde14610437578063b9decd661461044a578063c2108d1b14610471578063c87b56dd1461048457610241565b806372405f0b116101145780638da5cb5b116100f95780638da5cb5b1461041457806395d89b411461041c578063a22cb4651461042457610241565b806372405f0b146103eb5780637c887c591461040c57610241565b80635d87b6e4146103aa5780636352211e146103bd5780636c0360eb146103d057806370a08231146103d857610241565b80632eb4a7ab116101d857806346698e75116101a75780634b57512d1161018c5780634b57512d146103715780634f6ccce714610384578063514ea4bf1461039757610241565b806346698e751461033d5780634783f0ef1461035e57610241565b80632eb4a7ab146103075780632f745c591461030f5780634259ab441461032257806342842e0e1461032a57610241565b80630e082b74116102145780630e082b74146102b957806318160ddd146102cc57806323b872dd146102e157806325f368ae146102f457610241565b806301ffc9a71461024657806306fdde031461026f578063081812fc14610284578063095ea7b3146102a4575b600080fd5b610259610254366004612c3a565b6104fa565b6040516102669190613050565b60405180910390f35b610277610535565b6040516102669190613078565b610297610292366004612c22565b6105cb565b6040516102669190612fa6565b6102b76102b2366004612bdb565b61062d565b005b6102b76102c7366004612e02565b610703565b6102d46107e9565b604051610266919061305b565b6102b76102ef366004612aaa565b6107fa565b6102b7610302366004612e7b565b610851565b6102d4610910565b6102d461031d366004612bdb565b610916565b610297610941565b6102b7610338366004612aaa565b610950565b61035061034b366004612eec565b61096b565b604051610266929190612f98565b6102b761036c366004612c22565b610ae0565b6102b761037f366004612d83565b610b0f565b6102d4610392366004612c22565b610bcb565b6102d46103a5366004612c22565b610be1565b6102b76103b8366004612dbe565b610bf3565b6102976103cb366004612c22565b610ccd565b610277610cf5565b6102d46103e6366004612a3a565b610d56565b6103fe6103f9366004612cc1565b610dbe565b604051610266929190613283565b61029761111e565b61029761112d565b61027761113c565b6102b7610432366004612bae565b61119d565b6102b7610445366004612aea565b6112c0565b61045d610458366004612c22565b61131e565b604051610266989796959493929190612fde565b6102b761047f366004612ebb565b61158f565b610277610492366004612c22565b611614565b610297611895565b6102b76104ad366004612d83565b6118a4565b6102596104c0366004612a72565b611927565b6104d86104d3366004612f26565b611955565b604051610266939291906132fe565b6102b76104f5366004612c7a565b611ab1565b7fffffffff00000000000000000000000000000000000000000000000000000000811660009081526020819052604090205460ff165b919050565b60068054604080516020601f60026000196101006001881615020190951694909404938401819004810282018101909252828152606093909290918301828280156105c15780601f10610596576101008083540402835291602001916105c1565b820191906000526020600020905b8154815290600101906020018083116105a457829003601f168201915b5050505050905090565b60006105d682611c11565b6106115760405162461bcd60e51b815260040180806020018281038252602c8152602001806134db602c913960400191505060405180910390fd5b506000908152600460205260409020546001600160a01b031690565b600061063882610ccd565b9050806001600160a01b0316836001600160a01b0316141561068b5760405162461bcd60e51b815260040180806020018281038252602181526020018061355f6021913960400191505060405180910390fd5b806001600160a01b031661069d611c1e565b6001600160a01b031614806106b957506106b9816104c0611c1e565b6106f45760405162461bcd60e51b815260040180806020018281038252603881526020018061342e6038913960400191505060405180910390fd5b6106fe8383611c22565b505050565b8261070e3382611ca8565b6107335760405162461bcd60e51b815260040161072a906131a7565b60405180910390fd5b6000848152600c602052604090819020600281015491517fd4da618500000000000000000000000000000000000000000000000000000000815290916001600160a01b03169063d4da61859061078f90879087906004016132bf565b6040805180830381600087803b1580156107a857600080fd5b505af11580156107bc573d6000803e3d6000fd5b505050506040513d601f19601f820116820180604052508101906107e09190612ddf565b50505050505050565b60006107f56002611d4c565b905090565b61080b610805611c1e565b82611ca8565b6108465760405162461bcd60e51b81526004018080602001828103825260318152602001806135806031913960400191505060405180910390fd5b6106fe838383611d57565b8361085c3382611ca8565b6108785760405162461bcd60e51b815260040161072a906131a7565b6000858152600c602052604090819020600281015491517f0430c13000000000000000000000000000000000000000000000000000000000815290916001600160a01b031690630430c130906108d6908890889088906004016132df565b600060405180830381600087803b1580156108f057600080fd5b505af1158015610904573d6000803e3d6000fd5b50505050505050505050565b60115481565b6001600160a01b03821660009081526001602052604081206109389083611ea3565b90505b92915050565b600f546001600160a01b031681565b6106fe838383604051806020016040528060008152506112c0565b600f5460009081906001600160a01b0316331461099a5760405162461bcd60e51b815260040161072a906131de565b600087876040516020016109af929190612f98565b60408051601f1981840301815291815281516020928301206000818152600b90935291208054919250908711156109f85760405162461bcd60e51b815260040161072a90613170565b6000888152600c6020526040908190206002810154600f5492517fd473a65400000000000000000000000000000000000000000000000000000000815291926001600160a01b039182169263d473a65492610a60928f928e928e928e92911690600401613314565b6040805180830381600087803b158015610a7957600080fd5b505af1158015610a8d573d6000803e3d6000fd5b505050506040513d601f19601f82011682018060405250810190610ab19190612ddf565b6000858152600b60205260409020549196509450610acf9089611eaf565b909155509197909650945050505050565b600d546001600160a01b03163314610b0a5760405162461bcd60e51b815260040161072a90613215565b601155565b82610b1a3382611ca8565b610b365760405162461bcd60e51b815260040161072a906131a7565b6000848152600c602052604090819020600281015491517f5a64998b00000000000000000000000000000000000000000000000000000000815290916001600160a01b031690635a64998b90610b929087908790600401613064565b600060405180830381600087803b158015610bac57600080fd5b505af1158015610bc0573d6000803e3d6000fd5b505050505050505050565b600080610bd9600284611f0c565b509392505050565b600b6020526000908152604090205481565b81610bfe3382611ca8565b610c1a5760405162461bcd60e51b815260040161072a906131a7565b6000838152600c602052604090819020600281015491517f2106fa4600000000000000000000000000000000000000000000000000000000815290916001600160a01b031690632106fa4690610c7490869060040161305b565b6040805180830381600087803b158015610c8d57600080fd5b505af1158015610ca1573d6000803e3d6000fd5b505050506040513d601f19601f82011682018060405250810190610cc59190612ddf565b505050505050565b600061093b826040518060600160405280602981526020016134906029913960029190611f28565b60098054604080516020601f60026000196101006001881615020190951694909404938401819004810282018101909252828152606093909290918301828280156105c15780601f10610596576101008083540402835291602001916105c1565b60006001600160a01b038216610d9d5760405162461bcd60e51b815260040180806020018281038252602a815260200180613466602a913960400191505060405180910390fd5b6001600160a01b038216600090815260016020526040902061093b90611d4c565b6000808383600033604051602001610dd69190612f68565b604051602081830303815290604052805190602001209050610e2f838380806020026020016040519081016040528093929190818152602001838360200280828437600092019190915250506011549150849050611f3f565b610e4b5760405162461bcd60e51b815260040161072a906130cb565b600e546000906001600160a01b0316631698ee82610e6f60408c0160208d01612a3a565b610e7f60608d0160408e01612a3a565b610e8f60808e0160608f01612d48565b6040518463ffffffff1660e01b8152600401610ead93929190613028565b60206040518083038186803b158015610ec557600080fd5b505afa158015610ed9573d6000803e3d6000fd5b505050506040513d601f19601f82011682018060405250810190610efd9190612a56565b90506001600160a01b038116610f255760405162461bcd60e51b815260040161072a90613139565b6010546040517f58b4b7110000000000000000000000000000000000000000000000000000000081526001600160a01b03909116906358b4b71190610f76908490309060808f013590600401612fba565b602060405180830381600087803b158015610f9057600080fd5b505af1158015610fa4573d6000803e3d6000fd5b505050506040513d601f19601f82011682018060405250810190610fc89190612a56565b945061102f610fda60208b018b612a3a565b600a80547fffffffffffffffffffff000000000000000000000000000000000000000000008116600175ffffffffffffffffffffffffffffffffffffffffffff92831690810190921617909155975087611fe8565b60408051606081019091528061104860208c018c612a3a565b6001600160a01b03908116825283811660208084019190915288821660409384015260008a8152600c8252839020845181549084167fffffffffffffffffffffffff000000000000000000000000000000000000000091821617825591850151600182018054918516918416919091179055938301516002909401805494909216931692909217909155517ff03c0794e29ab9041701d90faa819fd394c96b5d374215f11d7dd03839606d5e9061110a9088908490899060808f01359061329a565b60405180910390a150505050935093915050565b600e546001600160a01b031681565b600d546001600160a01b031681565b60078054604080516020601f60026000196101006001881615020190951694909404938401819004810282018101909252828152606093909290918301828280156105c15780601f10610596576101008083540402835291602001916105c1565b6111a5611c1e565b6001600160a01b0316826001600160a01b0316141561120b576040805162461bcd60e51b815260206004820152601960248201527f4552433732313a20617070726f766520746f2063616c6c657200000000000000604482015290519081900360640190fd5b8060056000611218611c1e565b6001600160a01b0390811682526020808301939093526040918201600090812091871680825291909352912080547fffffffffffffffffffffffffffffffffffffffffffffffffffffffffffffff00169215159290921790915561127a611c1e565b6001600160a01b03167f17307eab39ab6107e8899845ad3d59bd9653f200f220920489ca2b5937696c318360405180821515815260200191505060405180910390a35050565b6112d16112cb611c1e565b83611ca8565b61130c5760405162461bcd60e51b81526004018080602001828103825260318152602001806135806031913960400191505060405180910390fd5b61131884848484612116565b50505050565b6000818152600c6020526040812081908190819081908190819081906113438a611c11565b61135f5760405162461bcd60e51b815260040161072a9061324c565b60028101546001600160a01b03166113768b610ccd565b825460018401546002850154604080517feae989a200000000000000000000000000000000000000000000000000000000815290516001600160a01b0394851694938416939283169287169163eae989a2916004808301926020929190829003018186803b1580156113e757600080fd5b505afa1580156113fb573d6000803e3d6000fd5b505050506040513d601f19601f8201168201806040525081019061141f9190612d6b565b856001600160a01b031663a00fa77f6040518163ffffffff1660e01b815260040160206040518083038186803b15801561145857600080fd5b505afa15801561146c573d6000803e3d6000fd5b505050506040513d601f19601f820116820180604052508101906114909190612d6b565b866001600160a01b031663b0e21e8a6040518163ffffffff1660e01b815260040160206040518083038186803b1580156114c957600080fd5b505afa1580156114dd573d6000803e3d6000fd5b505050506040513d601f19601f820116820180604052508101906115019190612d6b565b876001600160a01b03166318160ddd6040518163ffffffff1660e01b815260040160206040518083038186803b15801561153a57600080fd5b505afa15801561154e573d6000803e3d6000fd5b505050506040513d601f19601f820116820180604052508101906115729190612d6b565b995099509950995099509950995099505050919395975091939597565b8361159a3382611ca8565b6115b65760405162461bcd60e51b815260040161072a906131a7565b6000858152600c602052604090819020600281015491517f9d9d75be00000000000000000000000000000000000000000000000000000000815290916001600160a01b031690639d9d75be906108d6908890889088906004016132fe565b606061161f82611c11565b61165a5760405162461bcd60e51b815260040180806020018281038252602f815260200180613530602f913960400191505060405180910390fd5b60008281526008602090815260408083208054825160026001831615610100026000190190921691909104601f8101859004850282018501909352828152929091908301828280156116ed5780601f106116c2576101008083540402835291602001916116ed565b820191906000526020600020905b8154815290600101906020018083116116d057829003601f168201915b5050505050905060006116fe610cf5565b905080516000141561171257509050610530565b8151156117d35780826040516020018083805190602001908083835b6020831061174d5780518252601f19909201916020918201910161172e565b51815160209384036101000a600019018019909216911617905285519190930192850191508083835b602083106117955780518252601f199092019160209182019101611776565b6001836020036101000a0380198251168184511680821785525050505050509050019250505060405160208183030381529060405292505050610530565b806117dd85612168565b6040516020018083805190602001908083835b6020831061180f5780518252601f1990920191602091820191016117f0565b51815160209384036101000a600019018019909216911617905285519190930192850191508083835b602083106118575780518252601f199092019160209182019101611838565b6001836020036101000a0380198251168184511680821785525050505050509050019250505060405160208183030381529060405292505050919050565b6010546001600160a01b031681565b826118af3382611ca8565b6118cb5760405162461bcd60e51b815260040161072a906131a7565b6000848152600c602052604090819020600281015491517fdb4dcce400000000000000000000000000000000000000000000000000000000815290916001600160a01b03169063db4dcce490610b929087908790600401613064565b6001600160a01b03918216600090815260056020908152604080832093909416825291909152205460ff1690565b600f54600090819081906001600160a01b031633146119865760405162461bcd60e51b815260040161072a906131de565b60128890556000888152600c602052604090819020600281015491517fbf02b5ea0000000000000000000000000000000000000000000000000000000081528a926001600160a01b03169063bf02b5ea906119ed908e908d908d908d908d90600401613340565b606060405180830381600087803b158015611a0757600080fd5b505af1158015611a1b573d6000803e3d6000fd5b505050506040513d601f19601f82011682018060405250810190611a3f9190612e4e565b6040519297509095509350600090611a5d908d908d90602001612f98565b60408051601f1981840301815291815281516020928301206000818152600b909352912054909150611a8f9087612277565b6000918252600b60205260408220556012555092999198509650945050505050565b611aba336122d1565b8215611b6357600f546040517f23b872dd0000000000000000000000000000000000000000000000000000000081526001600160a01b03868116926323b872dd92611b0f929091169033908890600401612fba565b602060405180830381600087803b158015611b2957600080fd5b505af1158015611b3d573d6000803e3d6000fd5b505050506040513d601f19601f82011682018060405250810190611b619190612c06565b505b801561131857600f546040517f23b872dd0000000000000000000000000000000000000000000000000000000081526001600160a01b03848116926323b872dd92611bb8929091169033908690600401612fba565b602060405180830381600087803b158015611bd257600080fd5b505af1158015611be6573d6000803e3d6000fd5b505050506040513d601f19601f82011682018060405250810190611c0a9190612c06565b5050505050565b600061093b600283612315565b3390565b6000818152600c6020526040902080547fffffffffffffffffffffffff0000000000000000000000000000000000000000166001600160a01b0384169081179091558190611c6f82610ccd565b6001600160a01b03167f8c5be1e5ebec7d5bd14f71427d1e84f3dd0314c0f7b2291e5b200ac8c7c3b92560405160405180910390a45050565b6000611cb382611c11565b611cee5760405162461bcd60e51b815260040180806020018281038252602c815260200180613402602c913960400191505060405180910390fd5b6000611cf983610ccd565b9050806001600160a01b0316846001600160a01b03161480611d345750836001600160a01b0316611d29846105cb565b6001600160a01b0316145b80611d445750611d448185611927565b949350505050565b600061093b82612321565b826001600160a01b0316611d6a82610ccd565b6001600160a01b031614611daf5760405162461bcd60e51b81526004018080602001828103825260298152602001806135076029913960400191505060405180910390fd5b6001600160a01b038216611df45760405162461bcd60e51b81526004018080602001828103825260248152602001806133de6024913960400191505060405180910390fd5b611dff8383836106fe565b611e0a600082611c22565b6001600160a01b0383166000908152600160205260409020611e2c9082612325565b506001600160a01b0382166000908152600160205260409020611e4f9082612331565b50611e5c6002828461233d565b5080826001600160a01b0316846001600160a01b03167fddf252ad1be2c89b69c2b068fc378daa952ba7f163c4a11628f55a4df523b3ef60405160405180910390a4505050565b60006109388383612353565b600082821115611f06576040805162461bcd60e51b815260206004820152601e60248201527f536166654d6174683a207375627472616374696f6e206f766572666c6f770000604482015290519081900360640190fd5b50900390565b6000808080611f1b86866123b7565b9097909650945050505050565b6000611f35848484612432565b90505b9392505050565b600081815b8551811015611fdd576000868281518110611f5b57fe5b60200260200101519050808311611fa25782816040516020018083815260200182815260200192505050604051602081830303815290604052805190602001209250611fd4565b808360405160200180838152602001828152602001925050506040516020818303038152906040528051906020012092505b50600101611f44565b509092149392505050565b6001600160a01b038216612043576040805162461bcd60e51b815260206004820181905260248201527f4552433732313a206d696e7420746f20746865207a65726f2061646472657373604482015290519081900360640190fd5b61204c81611c11565b1561209e576040805162461bcd60e51b815260206004820152601c60248201527f4552433732313a20746f6b656e20616c7265616479206d696e74656400000000604482015290519081900360640190fd5b6120aa600083836106fe565b6001600160a01b03821660009081526001602052604090206120cc9082612331565b506120d96002828461233d565b5060405181906001600160a01b038416906000907fddf252ad1be2c89b69c2b068fc378daa952ba7f163c4a11628f55a4df523b3ef908290a45050565b612121848484611d57565b61212d848484846124fc565b6113185760405162461bcd60e51b81526004018080602001828103825260328152602001806133ac6032913960400191505060405180910390fd5b6060816121a9575060408051808201909152600181527f30000000000000000000000000000000000000000000000000000000000000006020820152610530565b8160005b81156121c157600101600a820491506121ad565b60008167ffffffffffffffff811180156121da57600080fd5b506040519080825280601f01601f191660200182016040528015612205576020820181803683370190505b50859350905060001982015b831561226e57600a840660300160f81b8282806001900393508151811061223457fe5b60200101907effffffffffffffffffffffffffffffffffffffffffffffffffffffffffffff1916908160001a905350600a84049350612211565b50949350505050565b600082820183811015610938576040805162461bcd60e51b815260206004820152601b60248201527f536166654d6174683a206164646974696f6e206f766572666c6f770000000000604482015290519081900360640190fd5b6012546000908152600c6020526040902060028101546001600160a01b038381169116146123115760405162461bcd60e51b815260040161072a90613102565b5050565b600061093883836126d8565b5490565b600061093883836126f0565b600061093883836127b6565b6000611f3584846001600160a01b038516612800565b815460009082106123955760405162461bcd60e51b815260040180806020018281038252602281526020018061338a6022913960400191505060405180910390fd5b8260000182815481106123a457fe5b9060005260206000200154905092915050565b8154600090819083106123fb5760405162461bcd60e51b81526004018080602001828103825260228152602001806134b96022913960400191505060405180910390fd5b600084600001848154811061240c57fe5b906000526020600020906002020190508060000154816001015492509250509250929050565b600082815260018401602052604081205482816124cd5760405162461bcd60e51b81526004018080602001828103825283818151815260200191508051906020019080838360005b8381101561249257818101518382015260200161247a565b50505050905090810190601f1680156124bf5780820380516001836020036101000a031916815260200191505b509250505060405180910390fd5b508460000160018203815481106124e057fe5b9060005260206000209060020201600101549150509392505050565b6000612510846001600160a01b0316612897565b61251c57506001611d44565b600061266d7f150b7a020000000000000000000000000000000000000000000000000000000061254a611c1e565b88878760405160240180856001600160a01b03168152602001846001600160a01b0316815260200183815260200180602001828103825283818151815260200191508051906020019080838360005b838110156125b1578181015183820152602001612599565b50505050905090810190601f1680156125de5780820380516001836020036101000a031916815260200191505b5095505050505050604051602081830303815290604052907bffffffffffffffffffffffffffffffffffffffffffffffffffffffff19166020820180517bffffffffffffffffffffffffffffffffffffffffffffffffffffffff83818316178352505050506040518060600160405280603281526020016133ac603291396001600160a01b038816919061289d565b9050600081806020019051602081101561268657600080fd5b50517fffffffff00000000000000000000000000000000000000000000000000000000167f150b7a02000000000000000000000000000000000000000000000000000000001492505050949350505050565b60009081526001919091016020526040902054151590565b600081815260018301602052604081205480156127ac578354600019808301919081019060009087908390811061272357fe5b906000526020600020015490508087600001848154811061274057fe5b60009182526020808320909101929092558281526001898101909252604090209084019055865487908061277057fe5b6001900381819060005260206000200160009055905586600101600087815260200190815260200160002060009055600194505050505061093b565b600091505061093b565b60006127c283836126d8565b6127f85750815460018181018455600084815260208082209093018490558454848252828601909352604090209190915561093b565b50600061093b565b600082815260018401602052604081205480612865575050604080518082018252838152602080820184815286546001818101895560008981528481209551600290930290950191825591519082015586548684528188019092529290912055611f38565b8285600001600183038154811061287857fe5b9060005260206000209060020201600101819055506000915050611f38565b3b151590565b6060611f358484600085856128b185612897565b612902576040805162461bcd60e51b815260206004820152601d60248201527f416464726573733a2063616c6c20746f206e6f6e2d636f6e7472616374000000604482015290519081900360640190fd5b600080866001600160a01b031685876040518082805190602001908083835b602083106129405780518252601f199092019160209182019101612921565b6001836020036101000a03801982511681845116808217855250505050505090500191505060006040518083038185875af1925050503d80600081146129a2576040519150601f19603f3d011682016040523d82523d6000602084013e6129a7565b606091505b50915091506129b78282866129c2565b979650505050505050565b606083156129d1575081611f38565b8251156129e15782518084602001fd5b60405162461bcd60e51b815260206004820181815284516024840152845185939192839260440191908501908083836000831561249257818101518382015260200161247a565b8035600281900b811461053057600080fd5b600060208284031215612a4b578081fd5b813561093881613363565b600060208284031215612a67578081fd5b815161093881613363565b60008060408385031215612a84578081fd5b8235612a8f81613363565b91506020830135612a9f81613363565b809150509250929050565b600080600060608486031215612abe578081fd5b8335612ac981613363565b92506020840135612ad981613363565b929592945050506040919091013590565b60008060008060808587031215612aff578081fd5b8435612b0a81613363565b9350602085810135612b1b81613363565b935060408601359250606086013567ffffffffffffffff80821115612b3e578384fd5b818801915088601f830112612b51578384fd5b813581811115612b5d57fe5b60405184601f19601f8401168201018181108482111715612b7a57fe5b60405281815283820185018b1015612b90578586fd5b81858501868301379081019093019390935250939692955090935050565b60008060408385031215612bc0578182fd5b8235612bcb81613363565b91506020830135612a9f8161337b565b60008060408385031215612bed578182fd5b8235612bf881613363565b946020939093013593505050565b600060208284031215612c17578081fd5b81516109388161337b565b600060208284031215612c33578081fd5b5035919050565b600060208284031215612c4b578081fd5b81357fffffffff0000000000000000000000000000000000000000000000000000000081168114610938578182fd5b60008060008060808587031215612c8f578081fd5b8435612c9a81613363565b9350602085013592506040850135612cb181613363565b9396929550929360600135925050565b600080600083850360c0811215612cd6578182fd5b60a0811215612ce3578182fd5b5083925060a084013567ffffffffffffffff80821115612d01578283fd5b818601915086601f830112612d14578283fd5b813581811115612d22578384fd5b8760208083028501011115612d35578384fd5b6020830194508093505050509250925092565b600060208284031215612d59578081fd5b813562ffffff81168114610938578182fd5b600060208284031215612d7c578081fd5b5051919050565b600080600060608486031215612d97578081fd5b83359250612da760208501612a28565b9150612db560408501612a28565b90509250925092565b60008060408385031215612dd0578182fd5b50508035926020909101359150565b60008060408385031215612df1578182fd5b505080516020909101519092909150565b600080600060608486031215612e16578081fd5b833592506020840135915060408401356fffffffffffffffffffffffffffffffff81168114612e43578182fd5b809150509250925092565b600080600060608486031215612e62578081fd5b8351925060208401519150604084015190509250925092565b60008060008060808587031215612e90578182fd5b8435935060208501359250604085013591506060850135612eb081613363565b939692955090935050565b60008060008060808587031215612ed0578182fd5b5050823594602084013594506040840135936060013592509050565b600080600080600060a08688031215612f03578283fd5b505083359560208501359550604085013594606081013594506080013592509050565b60008060008060008060c08789031215612f3e578384fd5b505084359660208601359650604086013595606081013595506080810135945060a0013592509050565b60609190911b7fffffffffffffffffffffffffffffffffffffffff00000000000000000000000016815260140190565b918252602082015260400190565b6001600160a01b0391909116815260200190565b6001600160a01b039384168152919092166020820152604081019190915260600190565b6001600160a01b03988916815296881660208801529487166040870152929095166060850152608084015260a083019390935260c082019290925260e08101919091526101000190565b6001600160a01b03938416815291909216602082015262ffffff909116604082015260600190565b901515815260200190565b90815260200190565b600292830b8152910b602082015260400190565b6000602080835283518082850152825b818110156130a457858101830151858201604001528201613088565b818111156130b55783604083870101525b50601f01601f1916929092016040019392505050565b60208082526009908201527f6f6e6c7920676f76730000000000000000000000000000000000000000000000604082015260600190565b6020808252600d908201527f63616c6c6261636b206661696c00000000000000000000000000000000000000604082015260600190565b60208082526011908201527f4e6f6e2d6578697374656e7420706f6f6c000000000000000000000000000000604082015260600190565b60208082526001908201527f7300000000000000000000000000000000000000000000000000000000000000604082015260600190565b6020808252600c908201527f4e6f7420617070726f7665640000000000000000000000000000000000000000604082015260600190565b60208082526001908201527f7900000000000000000000000000000000000000000000000000000000000000604082015260600190565b6020808252600a908201527f6f6e6c79206f776e657200000000000000000000000000000000000000000000604082015260600190565b60208082526010908201527f496e76616c696420746f6b656e20494400000000000000000000000000000000604082015260600190565b9182526001600160a01b0316602082015260400190565b9384526001600160a01b03928316602085015291166040830152606082015260800190565b9182526fffffffffffffffffffffffffffffffff16602082015260400190565b92835260208301919091526001600160a01b0316604082015260600190565b9283526020830191909152604082015260600190565b9485526020850193909352604084019190915260608301526001600160a01b0316608082015260a00190565b948552602085019390935260408401919091526060830152608082015260a00190565b6001600160a01b038116811461337857600080fd5b50565b801515811461337857600080fdfe456e756d657261626c655365743a20696e646578206f7574206f6620626f756e64734552433732313a207472616e7366657220746f206e6f6e20455243373231526563656976657220696d706c656d656e7465724552433732313a207472616e7366657220746f20746865207a65726f20616464726573734552433732313a206f70657261746f7220717565727920666f72206e6f6e6578697374656e7420746f6b656e4552433732313a20617070726f76652063616c6c6572206973206e6f74206f776e6572206e6f7220617070726f76656420666f7220616c6c4552433732313a2062616c616e636520717565727920666f7220746865207a65726f20616464726573734552433732313a206f776e657220717565727920666f72206e6f6e6578697374656e7420746f6b656e456e756d657261626c654d61703a20696e646578206f7574206f6620626f756e64734552433732313a20617070726f76656420717565727920666f72206e6f6e6578697374656e7420746f6b656e4552433732313a207472616e73666572206f6620746f6b656e2074686174206973206e6f74206f776e4552433732314d657461646174613a2055524920717565727920666f72206e6f6e6578697374656e7420746f6b656e4552433732313a20617070726f76616c20746f2063757272656e74206f776e65724552433732313a207472616e736665722063616c6c6572206973206e6f74206f776e6572206e6f7220617070726f766564a164736f6c6343000706000a59494e277320556e697377617020563320506f736974696f6e73204d616e61676572",
  "linkReferences": {},
  "deployedLinkReferences": {}
}