{
  "_format": "hh-sol-artifact-1",
  "contractName": "TestCHIManager",
  "sourceName": "contracts/test/TestCHIManager.sol",
  "abi": [
    {
      "inputs": [
        {
          "internalType": "address",
          "name": "_v3Factory",
          "type": "address"
        },
        {
          "internalType": "address",
          "name": "_yangNFT",
          "type": "address"
        },
        {
          "internalType": "address",
          "name": "_deployer",
          "type": "address"
        },
        {
          "internalType": "address",
          "name": "_gov",
          "type": "address"
        }
      ],
      "stateMutability": "nonpayable",
      "type": "constructor"
    },
    {
      "anonymous": false,
      "inputs": [
        {
          "indexed": true,
          "internalType": "address",
          "name": "owner",
          "type": "address"
        },
        {
          "indexed": true,
          "internalType": "address",
          "name": "approved",
          "type": "address"
        },
        {
          "indexed": true,
          "internalType": "uint256",
          "name": "tokenId",
          "type": "uint256"
        }
      ],
      "name": "Approval",
      "type": "event"
    },
    {
      "anonymous": false,
      "inputs": [
        {
          "indexed": true,
          "internalType": "address",
          "name": "owner",
          "type": "address"
        },
        {
          "indexed": true,
          "internalType": "address",
          "name": "operator",
          "type": "address"
        },
        {
          "indexed": false,
          "internalType": "bool",
          "name": "approved",
          "type": "bool"
        }
      ],
      "name": "ApprovalForAll",
      "type": "event"
    },
    {
      "anonymous": false,
      "inputs": [
        {
          "indexed": false,
          "internalType": "uint256",
          "name": "tokenId",
          "type": "uint256"
        },
        {
          "indexed": false,
          "internalType": "address",
          "name": "pool",
          "type": "address"
        },
        {
          "indexed": false,
          "internalType": "address",
          "name": "vault",
          "type": "address"
        },
        {
          "indexed": false,
          "internalType": "uint256",
          "name": "vaultFee",
          "type": "uint256"
        }
      ],
      "name": "Create",
      "type": "event"
    },
    {
      "anonymous": false,
      "inputs": [
        {
          "indexed": true,
          "internalType": "address",
          "name": "from",
          "type": "address"
        },
        {
          "indexed": true,
          "internalType": "address",
          "name": "to",
          "type": "address"
        },
        {
          "indexed": true,
          "internalType": "uint256",
          "name": "tokenId",
          "type": "uint256"
        }
      ],
      "name": "Transfer",
      "type": "event"
    },
    {
      "inputs": [
        {
          "internalType": "contract IERC20",
          "name": "token0",
          "type": "address"
        },
        {
          "internalType": "uint256",
          "name": "amount0",
          "type": "uint256"
        },
        {
          "internalType": "contract IERC20",
          "name": "token1",
          "type": "address"
        },
        {
          "internalType": "uint256",
          "name": "amount1",
          "type": "uint256"
        }
      ],
      "name": "CHIDepositCallback",
      "outputs": [],
      "stateMutability": "nonpayable",
      "type": "function"
    },
    {
      "inputs": [],
      "name": "acceptGovernance",
      "outputs": [],
      "stateMutability": "nonpayable",
      "type": "function"
    },
    {
      "inputs": [
        {
          "internalType": "uint256",
          "name": "tokenId",
          "type": "uint256"
        },
        {
          "internalType": "uint256",
          "name": "rangeIndex",
          "type": "uint256"
        },
        {
          "internalType": "uint256",
          "name": "amount0Desired",
          "type": "uint256"
        },
        {
          "internalType": "uint256",
          "name": "amount1Desired",
          "type": "uint256"
        }
      ],
      "name": "addLiquidityToPosition",
      "outputs": [],
      "stateMutability": "nonpayable",
      "type": "function"
    },
    {
      "inputs": [
        {
          "internalType": "uint256",
          "name": "tokenId",
          "type": "uint256"
        },
        {
          "internalType": "int24",
          "name": "tickLower",
          "type": "int24"
        },
        {
          "internalType": "int24",
          "name": "tickUpper",
          "type": "int24"
        }
      ],
      "name": "addRange",
      "outputs": [],
      "stateMutability": "nonpayable",
      "type": "function"
    },
    {
      "inputs": [
        {
          "internalType": "address",
          "name": "to",
          "type": "address"
        },
        {
          "internalType": "uint256",
          "name": "tokenId",
          "type": "uint256"
        }
      ],
      "name": "approve",
      "outputs": [],
      "stateMutability": "nonpayable",
      "type": "function"
    },
    {
      "inputs": [
        {
          "internalType": "address",
          "name": "owner",
          "type": "address"
        }
      ],
      "name": "balanceOf",
      "outputs": [
        {
          "internalType": "uint256",
          "name": "",
          "type": "uint256"
        }
      ],
      "stateMutability": "view",
      "type": "function"
    },
    {
      "inputs": [],
      "name": "baseURI",
      "outputs": [
        {
          "internalType": "string",
          "name": "",
          "type": "string"
        }
      ],
      "stateMutability": "view",
      "type": "function"
    },
    {
      "inputs": [
        {
          "internalType": "uint256",
          "name": "tokenId",
          "type": "uint256"
        }
      ],
      "name": "chi",
      "outputs": [
        {
          "internalType": "address",
          "name": "owner",
          "type": "address"
        },
        {
          "internalType": "address",
          "name": "operator",
          "type": "address"
        },
        {
          "internalType": "address",
          "name": "pool",
          "type": "address"
        },
        {
          "internalType": "address",
          "name": "vault",
          "type": "address"
        },
        {
          "internalType": "uint256",
          "name": "accruedProtocolFees0",
          "type": "uint256"
        },
        {
          "internalType": "uint256",
          "name": "accruedProtocolFees1",
          "type": "uint256"
        },
        {
          "internalType": "uint256",
          "name": "fee",
          "type": "uint256"
        },
        {
          "internalType": "uint256",
          "name": "totalShares",
          "type": "uint256"
        }
      ],
      "stateMutability": "view",
      "type": "function"
    },
    {
      "inputs": [],
      "name": "chigov",
      "outputs": [
        {
          "internalType": "address",
          "name": "",
          "type": "address"
        }
      ],
      "stateMutability": "view",
      "type": "function"
    },
    {
      "inputs": [
        {
          "internalType": "uint256",
          "name": "tokenId",
          "type": "uint256"
        },
        {
          "internalType": "uint256",
          "name": "amount0",
          "type": "uint256"
        },
        {
          "internalType": "uint256",
          "name": "amount1",
          "type": "uint256"
        },
        {
          "internalType": "address",
          "name": "to",
          "type": "address"
        }
      ],
      "name": "collectProtocol",
      "outputs": [],
      "stateMutability": "nonpayable",
      "type": "function"
    },
    {
      "inputs": [],
      "name": "deployer",
      "outputs": [
        {
          "internalType": "address",
          "name": "",
          "type": "address"
        }
      ],
      "stateMutability": "view",
      "type": "function"
    },
    {
      "inputs": [
        {
          "internalType": "uint256",
          "name": "tokenId",
          "type": "uint256"
        }
      ],
      "name": "getApproved",
      "outputs": [
        {
          "internalType": "address",
          "name": "",
          "type": "address"
        }
      ],
      "stateMutability": "view",
      "type": "function"
    },
    {
      "inputs": [
        {
          "internalType": "address",
          "name": "owner",
          "type": "address"
        },
        {
          "internalType": "address",
          "name": "operator",
          "type": "address"
        }
      ],
      "name": "isApprovedForAll",
      "outputs": [
        {
          "internalType": "bool",
          "name": "",
          "type": "bool"
        }
      ],
      "stateMutability": "view",
      "type": "function"
    },
    {
      "inputs": [
        {
          "components": [
            {
              "internalType": "address",
              "name": "recipient",
              "type": "address"
            },
            {
              "internalType": "address",
              "name": "token0",
              "type": "address"
            },
            {
              "internalType": "address",
              "name": "token1",
              "type": "address"
            },
            {
              "internalType": "uint24",
              "name": "fee",
              "type": "uint24"
            },
            {
              "internalType": "uint256",
              "name": "vaultFee",
              "type": "uint256"
            }
          ],
          "internalType": "struct ICHIManager.MintParams",
          "name": "params",
          "type": "tuple"
        }
      ],
      "name": "mint",
      "outputs": [
        {
          "internalType": "uint256",
          "name": "tokenId",
          "type": "uint256"
        },
        {
          "internalType": "address",
          "name": "vault",
          "type": "address"
        }
      ],
      "stateMutability": "nonpayable",
      "type": "function"
    },
    {
      "inputs": [],
      "name": "name",
      "outputs": [
        {
          "internalType": "string",
          "name": "",
          "type": "string"
        }
      ],
      "stateMutability": "view",
      "type": "function"
    },
    {
      "inputs": [],
      "name": "nextgov",
      "outputs": [
        {
          "internalType": "address",
          "name": "",
          "type": "address"
        }
      ],
      "stateMutability": "view",
      "type": "function"
    },
    {
      "inputs": [
        {
          "internalType": "uint256",
          "name": "tokenId",
          "type": "uint256"
        }
      ],
      "name": "ownerOf",
      "outputs": [
        {
          "internalType": "address",
          "name": "",
          "type": "address"
        }
      ],
      "stateMutability": "view",
      "type": "function"
    },
    {
      "inputs": [
        {
          "internalType": "bytes32",
          "name": "",
          "type": "bytes32"
        }
      ],
      "name": "positions",
      "outputs": [
        {
          "internalType": "uint256",
          "name": "shares",
          "type": "uint256"
        }
      ],
      "stateMutability": "view",
      "type": "function"
    },
    {
      "inputs": [
        {
          "internalType": "uint256",
          "name": "tokenId",
          "type": "uint256"
        },
        {
          "internalType": "uint256",
          "name": "rangeIndex",
          "type": "uint256"
        }
      ],
      "name": "removeAllLiquidityFromPosition",
      "outputs": [],
      "stateMutability": "nonpayable",
      "type": "function"
    },
    {
      "inputs": [
        {
          "internalType": "uint256",
          "name": "tokenId",
          "type": "uint256"
        },
        {
          "internalType": "uint256",
          "name": "rangeIndex",
          "type": "uint256"
        },
        {
          "internalType": "uint128",
          "name": "liquidity",
          "type": "uint128"
        }
      ],
      "name": "removeLiquidityFromPosition",
      "outputs": [],
      "stateMutability": "nonpayable",
      "type": "function"
    },
    {
      "inputs": [
        {
          "internalType": "uint256",
          "name": "tokenId",
          "type": "uint256"
        },
        {
          "internalType": "int24",
          "name": "tickLower",
          "type": "int24"
        },
        {
          "internalType": "int24",
          "name": "tickUpper",
          "type": "int24"
        }
      ],
      "name": "removeRange",
      "outputs": [],
      "stateMutability": "nonpayable",
      "type": "function"
    },
    {
      "inputs": [
        {
          "internalType": "address",
          "name": "from",
          "type": "address"
        },
        {
          "internalType": "address",
          "name": "to",
          "type": "address"
        },
        {
          "internalType": "uint256",
          "name": "tokenId",
          "type": "uint256"
        }
      ],
      "name": "safeTransferFrom",
      "outputs": [],
      "stateMutability": "nonpayable",
      "type": "function"
    },
    {
      "inputs": [
        {
          "internalType": "address",
          "name": "from",
          "type": "address"
        },
        {
          "internalType": "address",
          "name": "to",
          "type": "address"
        },
        {
          "internalType": "uint256",
          "name": "tokenId",
          "type": "uint256"
        },
        {
          "internalType": "bytes",
          "name": "_data",
          "type": "bytes"
        }
      ],
      "name": "safeTransferFrom",
      "outputs": [],
      "stateMutability": "nonpayable",
      "type": "function"
    },
    {
      "inputs": [
        {
          "internalType": "address",
          "name": "operator",
          "type": "address"
        },
        {
          "internalType": "bool",
          "name": "approved",
          "type": "bool"
        }
      ],
      "name": "setApprovalForAll",
      "outputs": [],
      "stateMutability": "nonpayable",
      "type": "function"
    },
    {
      "inputs": [
        {
          "internalType": "address",
          "name": "_governance",
          "type": "address"
        }
      ],
      "name": "setGovernance",
      "outputs": [],
      "stateMutability": "nonpayable",
      "type": "function"
    },
    {
      "inputs": [
        {
          "internalType": "uint256",
          "name": "yangId",
          "type": "uint256"
        },
        {
          "internalType": "uint256",
          "name": "tokenId",
          "type": "uint256"
        },
        {
          "internalType": "uint256",
          "name": "amount0Desired",
          "type": "uint256"
        },
        {
          "internalType": "uint256",
          "name": "amount1Desired",
          "type": "uint256"
        },
        {
          "internalType": "uint256",
          "name": "amount0Min",
          "type": "uint256"
        },
        {
          "internalType": "uint256",
          "name": "amount1Min",
          "type": "uint256"
        }
      ],
      "name": "subscribe",
      "outputs": [
        {
          "internalType": "uint256",
          "name": "shares",
          "type": "uint256"
        },
        {
          "internalType": "uint256",
          "name": "amount0",
          "type": "uint256"
        },
        {
          "internalType": "uint256",
          "name": "amount1",
          "type": "uint256"
        }
      ],
      "stateMutability": "nonpayable",
      "type": "function"
    },
    {
      "inputs": [
        {
          "internalType": "bytes4",
          "name": "interfaceId",
          "type": "bytes4"
        }
      ],
      "name": "supportsInterface",
      "outputs": [
        {
          "internalType": "bool",
          "name": "",
          "type": "bool"
        }
      ],
      "stateMutability": "view",
      "type": "function"
    },
    {
      "inputs": [],
      "name": "symbol",
      "outputs": [
        {
          "internalType": "string",
          "name": "",
          "type": "string"
        }
      ],
      "stateMutability": "view",
      "type": "function"
    },
    {
      "inputs": [
        {
          "internalType": "uint256",
          "name": "index",
          "type": "uint256"
        }
      ],
      "name": "tokenByIndex",
      "outputs": [
        {
          "internalType": "uint256",
          "name": "",
          "type": "uint256"
        }
      ],
      "stateMutability": "view",
      "type": "function"
    },
    {
      "inputs": [
        {
          "internalType": "address",
          "name": "owner",
          "type": "address"
        },
        {
          "internalType": "uint256",
          "name": "index",
          "type": "uint256"
        }
      ],
      "name": "tokenOfOwnerByIndex",
      "outputs": [
        {
          "internalType": "uint256",
          "name": "",
          "type": "uint256"
        }
      ],
      "stateMutability": "view",
      "type": "function"
    },
    {
      "inputs": [
        {
          "internalType": "uint256",
          "name": "tokenId",
          "type": "uint256"
        }
      ],
      "name": "tokenURI",
      "outputs": [
        {
          "internalType": "string",
          "name": "",
          "type": "string"
        }
      ],
      "stateMutability": "view",
      "type": "function"
    },
    {
      "inputs": [],
      "name": "totalSupply",
      "outputs": [
        {
          "internalType": "uint256",
          "name": "",
          "type": "uint256"
        }
      ],
      "stateMutability": "view",
      "type": "function"
    },
    {
      "inputs": [
        {
          "internalType": "address",
          "name": "from",
          "type": "address"
        },
        {
          "internalType": "address",
          "name": "to",
          "type": "address"
        },
        {
          "internalType": "uint256",
          "name": "tokenId",
          "type": "uint256"
        }
      ],
      "name": "transferFrom",
      "outputs": [],
      "stateMutability": "nonpayable",
      "type": "function"
    },
    {
      "inputs": [
        {
          "internalType": "uint256",
          "name": "yangId",
          "type": "uint256"
        },
        {
          "internalType": "uint256",
          "name": "tokenId",
          "type": "uint256"
        },
        {
          "internalType": "uint256",
          "name": "shares",
          "type": "uint256"
        },
        {
          "internalType": "uint256",
          "name": "amount0Min",
          "type": "uint256"
        },
        {
          "internalType": "uint256",
          "name": "amount1Min",
          "type": "uint256"
        }
      ],
      "name": "unsubscribe",
      "outputs": [
        {
          "internalType": "uint256",
          "name": "amount0",
          "type": "uint256"
        },
        {
          "internalType": "uint256",
          "name": "amount1",
          "type": "uint256"
        }
      ],
      "stateMutability": "nonpayable",
      "type": "function"
    },
    {
      "inputs": [],
      "name": "v3Factory",
      "outputs": [
        {
          "internalType": "address",
          "name": "",
          "type": "address"
        }
      ],
      "stateMutability": "view",
      "type": "function"
    },
    {
      "inputs": [],
      "name": "yangNFT",
      "outputs": [
        {
          "internalType": "address",
          "name": "",
          "type": "address"
        }
      ],
      "stateMutability": "view",
      "type": "function"
    }
  ],
  "bytecode": "0x6080604052600a80546001600160b01b03191660011790553480156200002457600080fd5b50604051620037c8380380620037c8833981016040819052620000479162000293565b604051806060016040528060228152602001620037a66022913960408051808201909152600381526243484960e81b60208201526200008d6301ffc9a760e01b62000145565b8151620000a2906006906020850190620001ca565b508051620000b8906007906020840190620001ca565b50620000cb6380ac58cd60e01b62000145565b620000dd635b5e139f60e01b62000145565b620000ef63780e9d6360e01b62000145565b5050600d80546001600160a01b039586166001600160a01b031991821617909155600e805494861694821694909417909355600f80549285169284169290921790915560108054919093169116179055620002ef565b6001600160e01b03198082161415620001a5576040805162461bcd60e51b815260206004820152601c60248201527f4552433136353a20696e76616c696420696e7465726661636520696400000000604482015290519081900360640190fd5b6001600160e01b0319166000908152602081905260409020805460ff19166001179055565b828054600181600116156101000203166002900490600052602060002090601f0160209004810192826200020257600085556200024d565b82601f106200021d57805160ff19168380011785556200024d565b828001600101855582156200024d579182015b828111156200024d57825182559160200191906001019062000230565b506200025b9291506200025f565b5090565b5b808211156200025b576000815560010162000260565b80516001600160a01b03811681146200028e57600080fd5b919050565b60008060008060808587031215620002a9578384fd5b620002b48562000276565b9350620002c46020860162000276565b9250620002d46040860162000276565b9150620002e46060860162000276565b905092959194509250565b6134a780620002ff6000396000f3fe608060405234801561001057600080fd5b506004361061025c5760003560e01c80636c0360eb11610145578063c2108d1b116100bd578063e3fe6eae1161008c578063ec28fcac11610071578063ec28fcac146104e0578063ed1bbd0b14610502578063f94e4e80146105155761025c565b8063e3fe6eae146104c5578063e985e9c5146104cd5761025c565b8063c2108d1b14610484578063c87b56dd14610497578063d5f39488146104aa578063e2c3350e146104b25761025c565b8063a22cb46511610114578063b88d4fde116100f9578063b88d4fde14610429578063b9decd661461043c578063bc7e5d86146104635761025c565b8063a22cb46514610403578063ab033ea9146104165761025c565b80636c0360eb146103d857806370a08231146103e05780637c887c59146103f357806395d89b41146103fb5761025c565b80632f745c59116101d85780634b57512d116101a7578063514ea4bf1161018c578063514ea4bf1461039f5780635d87b6e4146103b25780636352211e146103c55761025c565b80634b57512d146103795780634f6ccce71461038c5761025c565b80632f745c591461032a5780634259ab441461033d57806342842e0e1461034557806346698e75146103585761025c565b80630e082b741161022f578063238efcbc11610214578063238efcbc146102fc57806323b872dd1461030457806325f368ae146103175761025c565b80630e082b74146102d457806318160ddd146102e75761025c565b806301ffc9a71461026157806306fdde031461028a578063081812fc1461029f578063095ea7b3146102bf575b600080fd5b61027461026f366004612bc4565b61051d565b6040516102819190612f3a565b60405180910390f35b610292610558565b6040516102819190612f59565b6102b26102ad366004612bac565b6105ee565b6040516102819190612e90565b6102d26102cd366004612b65565b610650565b005b6102d26102e2366004612d1c565b610726565b6102ef61080c565b6040516102819190613164565b6102d261081d565b6102d2610312366004612a34565b610874565b6102d2610325366004612d95565b6108cb565b6102ef610338366004612b65565b61098a565b6102b26109b5565b6102d2610353366004612a34565b6109c4565b61036b610366366004612e06565b6109df565b604051610281929190612e82565b6102d2610387366004612c9d565b610b54565b6102ef61039a366004612bac565b610c10565b6102ef6103ad366004612bac565b610c26565b6102d26103c0366004612cd8565b610c38565b6102b26103d3366004612bac565b610d12565b610292610d3a565b6102ef6103ee3660046129c4565b610d9b565b6102b2610e03565b610292610e12565b6102d2610411366004612b38565b610e73565b6102d26104243660046129c4565b610f96565b6102d2610437366004612a74565b610fef565b61044f61044a366004612bac565b61104d565b604051610281989796959493929190612ec8565b610476610471366004612c4b565b6112be565b60405161028192919061316d565b6102d2610492366004612dd5565b6115af565b6102926104a5366004612bac565b611634565b6102b26118b5565b6102d26104c0366004612c9d565b6118c4565b6102b2611947565b6102746104db3660046129fc565b611956565b6104f36104ee366004612e40565b611984565b604051610281939291906131e8565b6102d2610510366004612c04565b611ae0565b6102b2611c40565b7fffffffff00000000000000000000000000000000000000000000000000000000811660009081526020819052604090205460ff165b919050565b60068054604080516020601f60026000196101006001881615020190951694909404938401819004810282018101909252828152606093909290918301828280156105e45780601f106105b9576101008083540402835291602001916105e4565b820191906000526020600020905b8154815290600101906020018083116105c757829003601f168201915b5050505050905090565b60006105f982611c4f565b6106345760405162461bcd60e51b815260040180806020018281038252602c8152602001806133c5602c913960400191505060405180910390fd5b506000908152600460205260409020546001600160a01b031690565b600061065b82610d12565b9050806001600160a01b0316836001600160a01b031614156106ae5760405162461bcd60e51b81526004018080602001828103825260218152602001806134496021913960400191505060405180910390fd5b806001600160a01b03166106c0611c5c565b6001600160a01b031614806106dc57506106dc816104db611c5c565b6107175760405162461bcd60e51b81526004018080602001828103825260388152602001806133186038913960400191505060405180910390fd5b6107218383611c60565b505050565b826107313382611cdb565b6107565760405162461bcd60e51b815260040161074d90613088565b60405180910390fd5b6000848152600c602052604090819020600281015491517fd4da618500000000000000000000000000000000000000000000000000000000815290916001600160a01b03169063d4da6185906107b290879087906004016131a9565b6040805180830381600087803b1580156107cb57600080fd5b505af11580156107df573d6000803e3d6000fd5b505050506040513d601f19601f820116820180604052508101906108039190612cf9565b50505050505050565b60006108186002611d7f565b905090565b6011546001600160a01b031633146108475760405162461bcd60e51b815260040161074d9061312d565b6010805473ffffffffffffffffffffffffffffffffffffffff199081163317909155601180549091169055565b61088561087f611c5c565b82611cdb565b6108c05760405162461bcd60e51b815260040180806020018281038252603181526020018061346a6031913960400191505060405180910390fd5b610721838383611d8a565b836108d63382611cdb565b6108f25760405162461bcd60e51b815260040161074d90613088565b6000858152600c602052604090819020600281015491517f0430c13000000000000000000000000000000000000000000000000000000000815290916001600160a01b031690630430c13090610950908890889088906004016131c9565b600060405180830381600087803b15801561096a57600080fd5b505af115801561097e573d6000803e3d6000fd5b50505050505050505050565b6001600160a01b03821660009081526001602052604081206109ac9083611ed6565b90505b92915050565b600e546001600160a01b031681565b61072183838360405180602001604052806000815250610fef565b600e5460009081906001600160a01b03163314610a0e5760405162461bcd60e51b815260040161074d906130bf565b60008787604051602001610a23929190612e82565b60408051601f1981840301815291815281516020928301206000818152600b9093529120805491925090871115610a6c5760405162461bcd60e51b815260040161074d90613051565b6000888152600c6020526040908190206002810154600e5492517fd473a65400000000000000000000000000000000000000000000000000000000815291926001600160a01b039182169263d473a65492610ad4928f928e928e928e929116906004016131fe565b6040805180830381600087803b158015610aed57600080fd5b505af1158015610b01573d6000803e3d6000fd5b505050506040513d601f19601f82011682018060405250810190610b259190612cf9565b6000858152600b60205260409020549196509450610b439089611ee2565b909155509197909650945050505050565b82610b5f3382611cdb565b610b7b5760405162461bcd60e51b815260040161074d90613088565b6000848152600c602052604090819020600281015491517f5a64998b00000000000000000000000000000000000000000000000000000000815290916001600160a01b031690635a64998b90610bd79087908790600401612f45565b600060405180830381600087803b158015610bf157600080fd5b505af1158015610c05573d6000803e3d6000fd5b505050505050505050565b600080610c1e600284611f3f565b509392505050565b600b6020526000908152604090205481565b81610c433382611cdb565b610c5f5760405162461bcd60e51b815260040161074d90613088565b6000838152600c602052604090819020600281015491517f2106fa4600000000000000000000000000000000000000000000000000000000815290916001600160a01b031690632106fa4690610cb9908690600401613164565b6040805180830381600087803b158015610cd257600080fd5b505af1158015610ce6573d6000803e3d6000fd5b505050506040513d601f19601f82011682018060405250810190610d0a9190612cf9565b505050505050565b60006109af8260405180606001604052806029815260200161337a6029913960029190611f5b565b60098054604080516020601f60026000196101006001881615020190951694909404938401819004810282018101909252828152606093909290918301828280156105e45780601f106105b9576101008083540402835291602001916105e4565b60006001600160a01b038216610de25760405162461bcd60e51b815260040180806020018281038252602a815260200180613350602a913960400191505060405180910390fd5b6001600160a01b03821660009081526001602052604090206109af90611d7f565b600d546001600160a01b031681565b60078054604080516020601f60026000196101006001881615020190951694909404938401819004810282018101909252828152606093909290918301828280156105e45780601f106105b9576101008083540402835291602001916105e4565b610e7b611c5c565b6001600160a01b0316826001600160a01b03161415610ee1576040805162461bcd60e51b815260206004820152601960248201527f4552433732313a20617070726f766520746f2063616c6c657200000000000000604482015290519081900360640190fd5b8060056000610eee611c5c565b6001600160a01b0390811682526020808301939093526040918201600090812091871680825291909352912080547fffffffffffffffffffffffffffffffffffffffffffffffffffffffffffffff001692151592909217909155610f50611c5c565b6001600160a01b03167f17307eab39ab6107e8899845ad3d59bd9653f200f220920489ca2b5937696c318360405180821515815260200191505060405180910390a35050565b6010546001600160a01b03163314610fc05760405162461bcd60e51b815260040161074d90612fac565b6011805473ffffffffffffffffffffffffffffffffffffffff19166001600160a01b0392909216919091179055565b611000610ffa611c5c565b83611cdb565b61103b5760405162461bcd60e51b815260040180806020018281038252603181526020018061346a6031913960400191505060405180910390fd5b61104784848484611f72565b50505050565b6000818152600c6020526040812081908190819081908190819081906110728a611c4f565b61108e5760405162461bcd60e51b815260040161074d906130f6565b60028101546001600160a01b03166110a58b610d12565b825460018401546002850154604080517feae989a200000000000000000000000000000000000000000000000000000000815290516001600160a01b0394851694938416939283169287169163eae989a2916004808301926020929190829003018186803b15801561111657600080fd5b505afa15801561112a573d6000803e3d6000fd5b505050506040513d601f19601f8201168201806040525081019061114e9190612c85565b856001600160a01b031663a00fa77f6040518163ffffffff1660e01b815260040160206040518083038186803b15801561118757600080fd5b505afa15801561119b573d6000803e3d6000fd5b505050506040513d601f19601f820116820180604052508101906111bf9190612c85565b866001600160a01b031663b0e21e8a6040518163ffffffff1660e01b815260040160206040518083038186803b1580156111f857600080fd5b505afa15801561120c573d6000803e3d6000fd5b505050506040513d601f19601f820116820180604052508101906112309190612c85565b876001600160a01b03166318160ddd6040518163ffffffff1660e01b815260040160206040518083038186803b15801561126957600080fd5b505afa15801561127d573d6000803e3d6000fd5b505050506040513d601f19601f820116820180604052508101906112a19190612c85565b995099509950995099509950995099505050919395975091939597565b60105460009081906001600160a01b031633146112ed5760405162461bcd60e51b815260040161074d90612fac565b600d546000906001600160a01b0316631698ee8261131160408701602088016129c4565b61132160608801604089016129c4565b6113316080890160608a01612c62565b6040518463ffffffff1660e01b815260040161134f93929190612f12565b60206040518083038186803b15801561136757600080fd5b505afa15801561137b573d6000803e3d6000fd5b505050506040513d601f19601f8201168201806040525081019061139f91906129e0565b90506001600160a01b0381166113c75760405162461bcd60e51b815260040161074d9061301a565b600f546040517f58b4b7110000000000000000000000000000000000000000000000000000000081526001600160a01b03909116906358b4b71190611418908490309060808a013590600401612ea4565b602060405180830381600087803b15801561143257600080fd5b505af1158015611446573d6000803e3d6000fd5b505050506040513d601f19601f8201168201806040525081019061146a91906129e0565b91506114d161147c60208601866129c4565b600a80547fffffffffffffffffffff000000000000000000000000000000000000000000008116600175ffffffffffffffffffffffffffffffffffffffffffff92831690810190921617909155945084611fc4565b6040805160608101909152806114ea60208701876129c4565b6001600160a01b0390811682528381166020808401919091528582166040938401526000878152600c82528390208451815490841673ffffffffffffffffffffffffffffffffffffffff1991821617825591850151600182018054918516918416919091179055938301516002909401805494909216931692909217909155517ff03c0794e29ab9041701d90faa819fd394c96b5d374215f11d7dd03839606d5e906115a19085908490869060808a013590613184565b60405180910390a150915091565b836115ba3382611cdb565b6115d65760405162461bcd60e51b815260040161074d90613088565b6000858152600c602052604090819020600281015491517f9d9d75be00000000000000000000000000000000000000000000000000000000815290916001600160a01b031690639d9d75be90610950908890889088906004016131e8565b606061163f82611c4f565b61167a5760405162461bcd60e51b815260040180806020018281038252602f81526020018061341a602f913960400191505060405180910390fd5b60008281526008602090815260408083208054825160026001831615610100026000190190921691909104601f81018590048502820185019093528281529290919083018282801561170d5780601f106116e25761010080835404028352916020019161170d565b820191906000526020600020905b8154815290600101906020018083116116f057829003601f168201915b50505050509050600061171e610d3a565b905080516000141561173257509050610553565b8151156117f35780826040516020018083805190602001908083835b6020831061176d5780518252601f19909201916020918201910161174e565b51815160209384036101000a600019018019909216911617905285519190930192850191508083835b602083106117b55780518252601f199092019160209182019101611796565b6001836020036101000a0380198251168184511680821785525050505050509050019250505060405160208183030381529060405292505050610553565b806117fd856120f2565b6040516020018083805190602001908083835b6020831061182f5780518252601f199092019160209182019101611810565b51815160209384036101000a600019018019909216911617905285519190930192850191508083835b602083106118775780518252601f199092019160209182019101611858565b6001836020036101000a0380198251168184511680821785525050505050509050019250505060405160208183030381529060405292505050919050565b600f546001600160a01b031681565b826118cf3382611cdb565b6118eb5760405162461bcd60e51b815260040161074d90613088565b6000848152600c602052604090819020600281015491517fdb4dcce400000000000000000000000000000000000000000000000000000000815290916001600160a01b03169063db4dcce490610bd79087908790600401612f45565b6010546001600160a01b031681565b6001600160a01b03918216600090815260056020908152604080832093909416825291909152205460ff1690565b600e54600090819081906001600160a01b031633146119b55760405162461bcd60e51b815260040161074d906130bf565b60128890556000888152600c602052604090819020600281015491517fbf02b5ea0000000000000000000000000000000000000000000000000000000081528a926001600160a01b03169063bf02b5ea90611a1c908e908d908d908d908d9060040161322a565b606060405180830381600087803b158015611a3657600080fd5b505af1158015611a4a573d6000803e3d6000fd5b505050506040513d601f19601f82011682018060405250810190611a6e9190612d68565b6040519297509095509350600090611a8c908d908d90602001612e82565b60408051601f1981840301815291815281516020928301206000818152600b909352912054909150611abe9087612201565b6000918252600b60205260408220556012555092999198509650945050505050565b611ae93361225b565b8215611b9257600e546040517f23b872dd0000000000000000000000000000000000000000000000000000000081526001600160a01b03868116926323b872dd92611b3e929091169033908890600401612ea4565b602060405180830381600087803b158015611b5857600080fd5b505af1158015611b6c573d6000803e3d6000fd5b505050506040513d601f19601f82011682018060405250810190611b909190612b90565b505b801561104757600e546040517f23b872dd0000000000000000000000000000000000000000000000000000000081526001600160a01b03848116926323b872dd92611be7929091169033908690600401612ea4565b602060405180830381600087803b158015611c0157600080fd5b505af1158015611c15573d6000803e3d6000fd5b505050506040513d601f19601f82011682018060405250810190611c399190612b90565b5050505050565b6011546001600160a01b031681565b60006109af60028361229f565b3390565b6000818152600c60205260409020805473ffffffffffffffffffffffffffffffffffffffff19166001600160a01b0384169081179091558190611ca282610d12565b6001600160a01b03167f8c5be1e5ebec7d5bd14f71427d1e84f3dd0314c0f7b2291e5b200ac8c7c3b92560405160405180910390a45050565b6000611ce682611c4f565b611d215760405162461bcd60e51b815260040180806020018281038252602c8152602001806132ec602c913960400191505060405180910390fd5b6000611d2c83610d12565b9050806001600160a01b0316846001600160a01b03161480611d675750836001600160a01b0316611d5c846105ee565b6001600160a01b0316145b80611d775750611d778185611956565b949350505050565b60006109af826122ab565b826001600160a01b0316611d9d82610d12565b6001600160a01b031614611de25760405162461bcd60e51b81526004018080602001828103825260298152602001806133f16029913960400191505060405180910390fd5b6001600160a01b038216611e275760405162461bcd60e51b81526004018080602001828103825260248152602001806132c86024913960400191505060405180910390fd5b611e32838383610721565b611e3d600082611c60565b6001600160a01b0383166000908152600160205260409020611e5f90826122af565b506001600160a01b0382166000908152600160205260409020611e8290826122bb565b50611e8f600282846122c7565b5080826001600160a01b0316846001600160a01b03167fddf252ad1be2c89b69c2b068fc378daa952ba7f163c4a11628f55a4df523b3ef60405160405180910390a4505050565b60006109ac83836122dd565b600082821115611f39576040805162461bcd60e51b815260206004820152601e60248201527f536166654d6174683a207375627472616374696f6e206f766572666c6f770000604482015290519081900360640190fd5b50900390565b6000808080611f4e8686612341565b9097909650945050505050565b6000611f688484846123bc565b90505b9392505050565b611f7d848484611d8a565b611f8984848484612486565b6110475760405162461bcd60e51b81526004018080602001828103825260328152602001806132966032913960400191505060405180910390fd5b6001600160a01b03821661201f576040805162461bcd60e51b815260206004820181905260248201527f4552433732313a206d696e7420746f20746865207a65726f2061646472657373604482015290519081900360640190fd5b61202881611c4f565b1561207a576040805162461bcd60e51b815260206004820152601c60248201527f4552433732313a20746f6b656e20616c7265616479206d696e74656400000000604482015290519081900360640190fd5b61208660008383610721565b6001600160a01b03821660009081526001602052604090206120a890826122bb565b506120b5600282846122c7565b5060405181906001600160a01b038416906000907fddf252ad1be2c89b69c2b068fc378daa952ba7f163c4a11628f55a4df523b3ef908290a45050565b606081612133575060408051808201909152600181527f30000000000000000000000000000000000000000000000000000000000000006020820152610553565b8160005b811561214b57600101600a82049150612137565b60008167ffffffffffffffff8111801561216457600080fd5b506040519080825280601f01601f19166020018201604052801561218f576020820181803683370190505b50859350905060001982015b83156121f857600a840660300160f81b828280600190039350815181106121be57fe5b60200101907effffffffffffffffffffffffffffffffffffffffffffffffffffffffffffff1916908160001a905350600a8404935061219b565b50949350505050565b6000828201838110156109ac576040805162461bcd60e51b815260206004820152601b60248201527f536166654d6174683a206164646974696f6e206f766572666c6f770000000000604482015290519081900360640190fd5b6012546000908152600c6020526040902060028101546001600160a01b0383811691161461229b5760405162461bcd60e51b815260040161074d90612fe3565b5050565b60006109ac8383612662565b5490565b60006109ac838361267a565b60006109ac8383612740565b6000611f6884846001600160a01b03851661278a565b8154600090821061231f5760405162461bcd60e51b81526004018080602001828103825260228152602001806132746022913960400191505060405180910390fd5b82600001828154811061232e57fe5b9060005260206000200154905092915050565b8154600090819083106123855760405162461bcd60e51b81526004018080602001828103825260228152602001806133a36022913960400191505060405180910390fd5b600084600001848154811061239657fe5b906000526020600020906002020190508060000154816001015492509250509250929050565b600082815260018401602052604081205482816124575760405162461bcd60e51b81526004018080602001828103825283818151815260200191508051906020019080838360005b8381101561241c578181015183820152602001612404565b50505050905090810190601f1680156124495780820380516001836020036101000a031916815260200191505b509250505060405180910390fd5b5084600001600182038154811061246a57fe5b9060005260206000209060020201600101549150509392505050565b600061249a846001600160a01b0316612821565b6124a657506001611d77565b60006125f77f150b7a02000000000000000000000000000000000000000000000000000000006124d4611c5c565b88878760405160240180856001600160a01b03168152602001846001600160a01b0316815260200183815260200180602001828103825283818151815260200191508051906020019080838360005b8381101561253b578181015183820152602001612523565b50505050905090810190601f1680156125685780820380516001836020036101000a031916815260200191505b5095505050505050604051602081830303815290604052907bffffffffffffffffffffffffffffffffffffffffffffffffffffffff19166020820180517bffffffffffffffffffffffffffffffffffffffffffffffffffffffff8381831617835250505050604051806060016040528060328152602001613296603291396001600160a01b0388169190612827565b9050600081806020019051602081101561261057600080fd5b50517fffffffff00000000000000000000000000000000000000000000000000000000167f150b7a02000000000000000000000000000000000000000000000000000000001492505050949350505050565b60009081526001919091016020526040902054151590565b6000818152600183016020526040812054801561273657835460001980830191908101906000908790839081106126ad57fe5b90600052602060002001549050808760000184815481106126ca57fe5b6000918252602080832090910192909255828152600189810190925260409020908401905586548790806126fa57fe5b600190038181906000526020600020016000905590558660010160008781526020019081526020016000206000905560019450505050506109af565b60009150506109af565b600061274c8383612662565b612782575081546001818101845560008481526020808220909301849055845484825282860190935260409020919091556109af565b5060006109af565b6000828152600184016020526040812054806127ef575050604080518082018252838152602080820184815286546001818101895560008981528481209551600290930290950191825591519082015586548684528188019092529290912055611f6b565b8285600001600183038154811061280257fe5b9060005260206000209060020201600101819055506000915050611f6b565b3b151590565b6060611f6884846000858561283b85612821565b61288c576040805162461bcd60e51b815260206004820152601d60248201527f416464726573733a2063616c6c20746f206e6f6e2d636f6e7472616374000000604482015290519081900360640190fd5b600080866001600160a01b031685876040518082805190602001908083835b602083106128ca5780518252601f1990920191602091820191016128ab565b6001836020036101000a03801982511681845116808217855250505050505090500191505060006040518083038185875af1925050503d806000811461292c576040519150601f19603f3d011682016040523d82523d6000602084013e612931565b606091505b509150915061294182828661294c565b979650505050505050565b6060831561295b575081611f6b565b82511561296b5782518084602001fd5b60405162461bcd60e51b815260206004820181815284516024840152845185939192839260440191908501908083836000831561241c578181015183820152602001612404565b8035600281900b811461055357600080fd5b6000602082840312156129d5578081fd5b81356109ac8161324d565b6000602082840312156129f1578081fd5b81516109ac8161324d565b60008060408385031215612a0e578081fd5b8235612a198161324d565b91506020830135612a298161324d565b809150509250929050565b600080600060608486031215612a48578081fd5b8335612a538161324d565b92506020840135612a638161324d565b929592945050506040919091013590565b60008060008060808587031215612a89578081fd5b8435612a948161324d565b9350602085810135612aa58161324d565b935060408601359250606086013567ffffffffffffffff80821115612ac8578384fd5b818801915088601f830112612adb578384fd5b813581811115612ae757fe5b60405184601f19601f8401168201018181108482111715612b0457fe5b60405281815283820185018b1015612b1a578586fd5b81858501868301379081019093019390935250939692955090935050565b60008060408385031215612b4a578182fd5b8235612b558161324d565b91506020830135612a2981613265565b60008060408385031215612b77578182fd5b8235612b828161324d565b946020939093013593505050565b600060208284031215612ba1578081fd5b81516109ac81613265565b600060208284031215612bbd578081fd5b5035919050565b600060208284031215612bd5578081fd5b81357fffffffff00000000000000000000000000000000000000000000000000000000811681146109ac578182fd5b60008060008060808587031215612c19578384fd5b8435612c248161324d565b9350602085013592506040850135612c3b8161324d565b9396929550929360600135925050565b600060a08284031215612c5c578081fd5b50919050565b600060208284031215612c73578081fd5b813562ffffff811681146109ac578182fd5b600060208284031215612c96578081fd5b5051919050565b600080600060608486031215612cb1578081fd5b83359250612cc1602085016129b2565b9150612ccf604085016129b2565b90509250925092565b60008060408385031215612cea578182fd5b50508035926020909101359150565b60008060408385031215612d0b578182fd5b505080516020909101519092909150565b600080600060608486031215612d30578081fd5b833592506020840135915060408401356fffffffffffffffffffffffffffffffff81168114612d5d578182fd5b809150509250925092565b600080600060608486031215612d7c578081fd5b8351925060208401519150604084015190509250925092565b60008060008060808587031215612daa578182fd5b8435935060208501359250604085013591506060850135612dca8161324d565b939692955090935050565b60008060008060808587031215612dea578182fd5b5050823594602084013594506040840135936060013592509050565b600080600080600060a08688031215612e1d578283fd5b505083359560208501359550604085013594606081013594506080013592509050565b60008060008060008060c08789031215612e58578384fd5b505084359660208601359650604086013595606081013595506080810135945060a0013592509050565b918252602082015260400190565b6001600160a01b0391909116815260200190565b6001600160a01b039384168152919092166020820152604081019190915260600190565b6001600160a01b03988916815296881660208801529487166040870152929095166060850152608084015260a083019390935260c082019290925260e08101919091526101000190565b6001600160a01b03938416815291909216602082015262ffffff909116604082015260600190565b901515815260200190565b600292830b8152910b602082015260400190565b6000602080835283518082850152825b81811015612f8557858101830151858201604001528201612f69565b81811115612f965783604083870101525b50601f01601f1916929092016040019392505050565b60208082526003908201527f676f760000000000000000000000000000000000000000000000000000000000604082015260600190565b6020808252600d908201527f63616c6c6261636b206661696c00000000000000000000000000000000000000604082015260600190565b60208082526011908201527f4e6f6e2d6578697374656e7420706f6f6c000000000000000000000000000000604082015260600190565b60208082526001908201527f7300000000000000000000000000000000000000000000000000000000000000604082015260600190565b6020808252600c908201527f4e6f7420617070726f7665640000000000000000000000000000000000000000604082015260600190565b60208082526001908201527f7900000000000000000000000000000000000000000000000000000000000000604082015260600190565b60208082526010908201527f496e76616c696420746f6b656e20494400000000000000000000000000000000604082015260600190565b60208082526008908201527f6e65787420676f76000000000000000000000000000000000000000000000000604082015260600190565b90815260200190565b9182526001600160a01b0316602082015260400190565b9384526001600160a01b03928316602085015291166040830152606082015260800190565b9182526fffffffffffffffffffffffffffffffff16602082015260400190565b92835260208301919091526001600160a01b0316604082015260600190565b9283526020830191909152604082015260600190565b9485526020850193909352604084019190915260608301526001600160a01b0316608082015260a00190565b948552602085019390935260408401919091526060830152608082015260a00190565b6001600160a01b038116811461326257600080fd5b50565b801515811461326257600080fdfe456e756d657261626c655365743a20696e646578206f7574206f6620626f756e64734552433732313a207472616e7366657220746f206e6f6e20455243373231526563656976657220696d706c656d656e7465724552433732313a207472616e7366657220746f20746865207a65726f20616464726573734552433732313a206f70657261746f7220717565727920666f72206e6f6e6578697374656e7420746f6b656e4552433732313a20617070726f76652063616c6c6572206973206e6f74206f776e6572206e6f7220617070726f76656420666f7220616c6c4552433732313a2062616c616e636520717565727920666f7220746865207a65726f20616464726573734552433732313a206f776e657220717565727920666f72206e6f6e6578697374656e7420746f6b656e456e756d657261626c654d61703a20696e646578206f7574206f6620626f756e64734552433732313a20617070726f76656420717565727920666f72206e6f6e6578697374656e7420746f6b656e4552433732313a207472616e73666572206f6620746f6b656e2074686174206973206e6f74206f776e4552433732314d657461646174613a2055524920717565727920666f72206e6f6e6578697374656e7420746f6b656e4552433732313a20617070726f76616c20746f2063757272656e74206f776e65724552433732313a207472616e736665722063616c6c6572206973206e6f74206f776e6572206e6f7220617070726f766564a164736f6c6343000706000a59494e277320556e697377617020563320506f736974696f6e73204d616e61676572",
  "linkReferences": {},
  "deployedLinkReferences": {}
}