{
  "_format": "hh-sol-artifact-1",
  "contractName": "TestCHIManager",
  "sourceName": "contracts/test/TestCHIManager.sol",
  "abi": [
    {
      "inputs": [
        {
          "internalType": "address",
          "name": "_v3Factory",
          "type": "address"
        },
        {
          "internalType": "address",
          "name": "_yangNFT",
          "type": "address"
        },
        {
          "internalType": "address",
          "name": "_deployer",
          "type": "address"
        },
        {
          "internalType": "address",
          "name": "_gov",
          "type": "address"
        }
      ],
      "stateMutability": "nonpayable",
      "type": "constructor"
    },
    {
      "anonymous": false,
      "inputs": [
        {
          "indexed": true,
          "internalType": "address",
          "name": "owner",
          "type": "address"
        },
        {
          "indexed": true,
          "internalType": "address",
          "name": "approved",
          "type": "address"
        },
        {
          "indexed": true,
          "internalType": "uint256",
          "name": "tokenId",
          "type": "uint256"
        }
      ],
      "name": "Approval",
      "type": "event"
    },
    {
      "anonymous": false,
      "inputs": [
        {
          "indexed": true,
          "internalType": "address",
          "name": "owner",
          "type": "address"
        },
        {
          "indexed": true,
          "internalType": "address",
          "name": "operator",
          "type": "address"
        },
        {
          "indexed": false,
          "internalType": "bool",
          "name": "approved",
          "type": "bool"
        }
      ],
      "name": "ApprovalForAll",
      "type": "event"
    },
    {
      "anonymous": false,
      "inputs": [
        {
          "indexed": false,
          "internalType": "uint256",
          "name": "tokenId",
          "type": "uint256"
        },
        {
          "indexed": false,
          "internalType": "address",
          "name": "pool",
          "type": "address"
        },
        {
          "indexed": false,
          "internalType": "address",
          "name": "vault",
          "type": "address"
        },
        {
          "indexed": false,
          "internalType": "uint256",
          "name": "vaultFee",
          "type": "uint256"
        }
      ],
      "name": "Create",
      "type": "event"
    },
    {
      "anonymous": false,
      "inputs": [
        {
          "indexed": true,
          "internalType": "address",
          "name": "from",
          "type": "address"
        },
        {
          "indexed": true,
          "internalType": "address",
          "name": "to",
          "type": "address"
        },
        {
          "indexed": true,
          "internalType": "uint256",
          "name": "tokenId",
          "type": "uint256"
        }
      ],
      "name": "Transfer",
      "type": "event"
    },
    {
      "inputs": [
        {
          "internalType": "contract IERC20",
          "name": "token0",
          "type": "address"
        },
        {
          "internalType": "uint256",
          "name": "amount0",
          "type": "uint256"
        },
        {
          "internalType": "contract IERC20",
          "name": "token1",
          "type": "address"
        },
        {
          "internalType": "uint256",
          "name": "amount1",
          "type": "uint256"
        }
      ],
      "name": "CHIDepositCallback",
      "outputs": [],
      "stateMutability": "nonpayable",
      "type": "function"
    },
    {
      "inputs": [],
      "name": "acceptGovernance",
      "outputs": [],
      "stateMutability": "nonpayable",
      "type": "function"
    },
    {
      "inputs": [
        {
          "internalType": "uint256",
          "name": "tokenId",
          "type": "uint256"
        },
        {
          "internalType": "uint256",
          "name": "rangeIndex",
          "type": "uint256"
        },
        {
          "internalType": "uint256",
          "name": "amount0Desired",
          "type": "uint256"
        },
        {
          "internalType": "uint256",
          "name": "amount1Desired",
          "type": "uint256"
        }
      ],
      "name": "addLiquidityToPosition",
      "outputs": [],
      "stateMutability": "nonpayable",
      "type": "function"
    },
    {
      "inputs": [
        {
          "internalType": "uint256",
          "name": "tokenId",
          "type": "uint256"
        },
        {
          "internalType": "int24",
          "name": "tickLower",
          "type": "int24"
        },
        {
          "internalType": "int24",
          "name": "tickUpper",
          "type": "int24"
        }
      ],
      "name": "addRange",
      "outputs": [],
      "stateMutability": "nonpayable",
      "type": "function"
    },
    {
      "inputs": [
        {
          "internalType": "address",
          "name": "to",
          "type": "address"
        },
        {
          "internalType": "uint256",
          "name": "tokenId",
          "type": "uint256"
        }
      ],
      "name": "approve",
      "outputs": [],
      "stateMutability": "nonpayable",
      "type": "function"
    },
    {
      "inputs": [
        {
          "internalType": "address",
          "name": "owner",
          "type": "address"
        }
      ],
      "name": "balanceOf",
      "outputs": [
        {
          "internalType": "uint256",
          "name": "",
          "type": "uint256"
        }
      ],
      "stateMutability": "view",
      "type": "function"
    },
    {
      "inputs": [],
      "name": "baseURI",
      "outputs": [
        {
          "internalType": "string",
          "name": "",
          "type": "string"
        }
      ],
      "stateMutability": "view",
      "type": "function"
    },
    {
      "inputs": [
        {
          "internalType": "uint256",
          "name": "tokenId",
          "type": "uint256"
        }
      ],
      "name": "chi",
      "outputs": [
        {
          "internalType": "address",
          "name": "owner",
          "type": "address"
        },
        {
          "internalType": "address",
          "name": "operator",
          "type": "address"
        },
        {
          "internalType": "address",
          "name": "pool",
          "type": "address"
        },
        {
          "internalType": "address",
          "name": "vault",
          "type": "address"
        },
        {
          "internalType": "uint256",
          "name": "accruedProtocolFees0",
          "type": "uint256"
        },
        {
          "internalType": "uint256",
          "name": "accruedProtocolFees1",
          "type": "uint256"
        },
        {
          "internalType": "uint256",
          "name": "fee",
          "type": "uint256"
        },
        {
          "internalType": "uint256",
          "name": "totalShares",
          "type": "uint256"
        }
      ],
      "stateMutability": "view",
      "type": "function"
    },
    {
      "inputs": [],
      "name": "chigov",
      "outputs": [
        {
          "internalType": "address",
          "name": "",
          "type": "address"
        }
      ],
      "stateMutability": "view",
      "type": "function"
    },
    {
      "inputs": [
        {
          "internalType": "uint256",
          "name": "tokenId",
          "type": "uint256"
        },
        {
          "internalType": "uint256",
          "name": "amount0",
          "type": "uint256"
        },
        {
          "internalType": "uint256",
          "name": "amount1",
          "type": "uint256"
        },
        {
          "internalType": "address",
          "name": "to",
          "type": "address"
        }
      ],
      "name": "collectProtocol",
      "outputs": [],
      "stateMutability": "nonpayable",
      "type": "function"
    },
    {
      "inputs": [],
      "name": "deployer",
      "outputs": [
        {
          "internalType": "address",
          "name": "",
          "type": "address"
        }
      ],
      "stateMutability": "view",
      "type": "function"
    },
    {
      "inputs": [
        {
          "internalType": "uint256",
          "name": "tokenId",
          "type": "uint256"
        }
      ],
      "name": "getApproved",
      "outputs": [
        {
          "internalType": "address",
          "name": "",
          "type": "address"
        }
      ],
      "stateMutability": "view",
      "type": "function"
    },
    {
      "inputs": [
        {
          "internalType": "address",
          "name": "owner",
          "type": "address"
        },
        {
          "internalType": "address",
          "name": "operator",
          "type": "address"
        }
      ],
      "name": "isApprovedForAll",
      "outputs": [
        {
          "internalType": "bool",
          "name": "",
          "type": "bool"
        }
      ],
      "stateMutability": "view",
      "type": "function"
    },
    {
      "inputs": [
        {
          "components": [
            {
              "internalType": "address",
              "name": "recipient",
              "type": "address"
            },
            {
              "internalType": "address",
              "name": "token0",
              "type": "address"
            },
            {
              "internalType": "address",
              "name": "token1",
              "type": "address"
            },
            {
              "internalType": "uint24",
              "name": "fee",
              "type": "uint24"
            },
            {
              "internalType": "uint256",
              "name": "vaultFee",
              "type": "uint256"
            }
          ],
          "internalType": "struct ICHIManager.MintParams",
          "name": "params",
          "type": "tuple"
        }
      ],
      "name": "mint",
      "outputs": [
        {
          "internalType": "uint256",
          "name": "tokenId",
          "type": "uint256"
        },
        {
          "internalType": "address",
          "name": "vault",
          "type": "address"
        }
      ],
      "stateMutability": "nonpayable",
      "type": "function"
    },
    {
      "inputs": [],
      "name": "name",
      "outputs": [
        {
          "internalType": "string",
          "name": "",
          "type": "string"
        }
      ],
      "stateMutability": "view",
      "type": "function"
    },
    {
      "inputs": [],
      "name": "nextgov",
      "outputs": [
        {
          "internalType": "address",
          "name": "",
          "type": "address"
        }
      ],
      "stateMutability": "view",
      "type": "function"
    },
    {
      "inputs": [
        {
          "internalType": "uint256",
          "name": "tokenId",
          "type": "uint256"
        }
      ],
      "name": "ownerOf",
      "outputs": [
        {
          "internalType": "address",
          "name": "",
          "type": "address"
        }
      ],
      "stateMutability": "view",
      "type": "function"
    },
    {
      "inputs": [
        {
          "internalType": "bytes32",
          "name": "",
          "type": "bytes32"
        }
      ],
      "name": "positions",
      "outputs": [
        {
          "internalType": "uint256",
          "name": "amount0",
          "type": "uint256"
        },
        {
          "internalType": "uint256",
          "name": "amount1",
          "type": "uint256"
        },
        {
          "internalType": "uint256",
          "name": "shares",
          "type": "uint256"
        }
      ],
      "stateMutability": "view",
      "type": "function"
    },
    {
      "inputs": [
        {
          "internalType": "uint256",
          "name": "tokenId",
          "type": "uint256"
        },
        {
          "internalType": "uint256",
          "name": "rangeIndex",
          "type": "uint256"
        }
      ],
      "name": "removeAllLiquidityFromPosition",
      "outputs": [],
      "stateMutability": "nonpayable",
      "type": "function"
    },
    {
      "inputs": [
        {
          "internalType": "uint256",
          "name": "tokenId",
          "type": "uint256"
        },
        {
          "internalType": "uint256",
          "name": "rangeIndex",
          "type": "uint256"
        },
        {
          "internalType": "uint128",
          "name": "liquidity",
          "type": "uint128"
        }
      ],
      "name": "removeLiquidityFromPosition",
      "outputs": [],
      "stateMutability": "nonpayable",
      "type": "function"
    },
    {
      "inputs": [
        {
          "internalType": "uint256",
          "name": "tokenId",
          "type": "uint256"
        },
        {
          "internalType": "int24",
          "name": "tickLower",
          "type": "int24"
        },
        {
          "internalType": "int24",
          "name": "tickUpper",
          "type": "int24"
        }
      ],
      "name": "removeRange",
      "outputs": [],
      "stateMutability": "nonpayable",
      "type": "function"
    },
    {
      "inputs": [
        {
          "internalType": "address",
          "name": "from",
          "type": "address"
        },
        {
          "internalType": "address",
          "name": "to",
          "type": "address"
        },
        {
          "internalType": "uint256",
          "name": "tokenId",
          "type": "uint256"
        }
      ],
      "name": "safeTransferFrom",
      "outputs": [],
      "stateMutability": "nonpayable",
      "type": "function"
    },
    {
      "inputs": [
        {
          "internalType": "address",
          "name": "from",
          "type": "address"
        },
        {
          "internalType": "address",
          "name": "to",
          "type": "address"
        },
        {
          "internalType": "uint256",
          "name": "tokenId",
          "type": "uint256"
        },
        {
          "internalType": "bytes",
          "name": "_data",
          "type": "bytes"
        }
      ],
      "name": "safeTransferFrom",
      "outputs": [],
      "stateMutability": "nonpayable",
      "type": "function"
    },
    {
      "inputs": [
        {
          "internalType": "address",
          "name": "operator",
          "type": "address"
        },
        {
          "internalType": "bool",
          "name": "approved",
          "type": "bool"
        }
      ],
      "name": "setApprovalForAll",
      "outputs": [],
      "stateMutability": "nonpayable",
      "type": "function"
    },
    {
      "inputs": [
        {
          "internalType": "address",
          "name": "_governance",
          "type": "address"
        }
      ],
      "name": "setGovernance",
      "outputs": [],
      "stateMutability": "nonpayable",
      "type": "function"
    },
    {
      "inputs": [
        {
          "internalType": "uint256",
          "name": "yangId",
          "type": "uint256"
        },
        {
          "internalType": "uint256",
          "name": "tokenId",
          "type": "uint256"
        },
        {
          "internalType": "uint256",
          "name": "amount0Desired",
          "type": "uint256"
        },
        {
          "internalType": "uint256",
          "name": "amount1Desired",
          "type": "uint256"
        },
        {
          "internalType": "uint256",
          "name": "amount0Min",
          "type": "uint256"
        },
        {
          "internalType": "uint256",
          "name": "amount1Min",
          "type": "uint256"
        }
      ],
      "name": "subscribe",
      "outputs": [
        {
          "internalType": "uint256",
          "name": "shares",
          "type": "uint256"
        },
        {
          "internalType": "uint256",
          "name": "amount0",
          "type": "uint256"
        },
        {
          "internalType": "uint256",
          "name": "amount1",
          "type": "uint256"
        }
      ],
      "stateMutability": "nonpayable",
      "type": "function"
    },
    {
      "inputs": [
        {
          "internalType": "bytes4",
          "name": "interfaceId",
          "type": "bytes4"
        }
      ],
      "name": "supportsInterface",
      "outputs": [
        {
          "internalType": "bool",
          "name": "",
          "type": "bool"
        }
      ],
      "stateMutability": "view",
      "type": "function"
    },
    {
      "inputs": [],
      "name": "symbol",
      "outputs": [
        {
          "internalType": "string",
          "name": "",
          "type": "string"
        }
      ],
      "stateMutability": "view",
      "type": "function"
    },
    {
      "inputs": [
        {
          "internalType": "uint256",
          "name": "index",
          "type": "uint256"
        }
      ],
      "name": "tokenByIndex",
      "outputs": [
        {
          "internalType": "uint256",
          "name": "",
          "type": "uint256"
        }
      ],
      "stateMutability": "view",
      "type": "function"
    },
    {
      "inputs": [
        {
          "internalType": "address",
          "name": "owner",
          "type": "address"
        },
        {
          "internalType": "uint256",
          "name": "index",
          "type": "uint256"
        }
      ],
      "name": "tokenOfOwnerByIndex",
      "outputs": [
        {
          "internalType": "uint256",
          "name": "",
          "type": "uint256"
        }
      ],
      "stateMutability": "view",
      "type": "function"
    },
    {
      "inputs": [
        {
          "internalType": "uint256",
          "name": "tokenId",
          "type": "uint256"
        }
      ],
      "name": "tokenURI",
      "outputs": [
        {
          "internalType": "string",
          "name": "",
          "type": "string"
        }
      ],
      "stateMutability": "view",
      "type": "function"
    },
    {
      "inputs": [],
      "name": "totalSupply",
      "outputs": [
        {
          "internalType": "uint256",
          "name": "",
          "type": "uint256"
        }
      ],
      "stateMutability": "view",
      "type": "function"
    },
    {
      "inputs": [
        {
          "internalType": "address",
          "name": "from",
          "type": "address"
        },
        {
          "internalType": "address",
          "name": "to",
          "type": "address"
        },
        {
          "internalType": "uint256",
          "name": "tokenId",
          "type": "uint256"
        }
      ],
      "name": "transferFrom",
      "outputs": [],
      "stateMutability": "nonpayable",
      "type": "function"
    },
    {
      "inputs": [
        {
          "internalType": "uint256",
          "name": "yangId",
          "type": "uint256"
        },
        {
          "internalType": "uint256",
          "name": "tokenId",
          "type": "uint256"
        },
        {
          "internalType": "uint256",
          "name": "shares",
          "type": "uint256"
        },
        {
          "internalType": "uint256",
          "name": "amount0Min",
          "type": "uint256"
        },
        {
          "internalType": "uint256",
          "name": "amount1Min",
          "type": "uint256"
        }
      ],
      "name": "unsubscribe",
      "outputs": [
        {
          "internalType": "uint256",
          "name": "amount0",
          "type": "uint256"
        },
        {
          "internalType": "uint256",
          "name": "amount1",
          "type": "uint256"
        }
      ],
      "stateMutability": "nonpayable",
      "type": "function"
    },
    {
      "inputs": [],
      "name": "v3Factory",
      "outputs": [
        {
          "internalType": "address",
          "name": "",
          "type": "address"
        }
      ],
      "stateMutability": "view",
      "type": "function"
    },
    {
      "inputs": [],
      "name": "yangNFT",
      "outputs": [
        {
          "internalType": "address",
          "name": "",
          "type": "address"
        }
      ],
      "stateMutability": "view",
      "type": "function"
    }
  ],
  "bytecode": "0x6080604052600a80546001600160b01b03191660011790553480156200002457600080fd5b50604051620037e7380380620037e7833981016040819052620000479162000293565b604051806060016040528060228152602001620037c56022913960408051808201909152600381526243484960e81b60208201526200008d6301ffc9a760e01b62000145565b8151620000a2906006906020850190620001ca565b508051620000b8906007906020840190620001ca565b50620000cb6380ac58cd60e01b62000145565b620000dd635b5e139f60e01b62000145565b620000ef63780e9d6360e01b62000145565b5050600d80546001600160a01b039586166001600160a01b031991821617909155600e805494861694821694909417909355600f80549285169284169290921790915560108054919093169116179055620002ef565b6001600160e01b03198082161415620001a5576040805162461bcd60e51b815260206004820152601c60248201527f4552433136353a20696e76616c696420696e7465726661636520696400000000604482015290519081900360640190fd5b6001600160e01b0319166000908152602081905260409020805460ff19166001179055565b828054600181600116156101000203166002900490600052602060002090601f0160209004810192826200020257600085556200024d565b82601f106200021d57805160ff19168380011785556200024d565b828001600101855582156200024d579182015b828111156200024d57825182559160200191906001019062000230565b506200025b9291506200025f565b5090565b5b808211156200025b576000815560010162000260565b80516001600160a01b03811681146200028e57600080fd5b919050565b60008060008060808587031215620002a9578384fd5b620002b48562000276565b9350620002c46020860162000276565b9250620002d46040860162000276565b9150620002e46060860162000276565b905092959194509250565b6134c680620002ff6000396000f3fe608060405234801561001057600080fd5b506004361061025c5760003560e01c80636c0360eb11610145578063c2108d1b116100bd578063e3fe6eae1161008c578063ec28fcac11610071578063ec28fcac146104ef578063ed1bbd0b14610502578063f94e4e80146105155761025c565b8063e3fe6eae146104d4578063e985e9c5146104dc5761025c565b8063c2108d1b14610493578063c87b56dd146104a6578063d5f39488146104b9578063e2c3350e146104c15761025c565b8063a22cb46511610114578063b88d4fde116100f9578063b88d4fde14610438578063b9decd661461044b578063bc7e5d86146104725761025c565b8063a22cb46514610412578063ab033ea9146104255761025c565b80636c0360eb146103e757806370a08231146103ef5780637c887c591461040257806395d89b411461040a5761025c565b80632f745c59116101d85780634b57512d116101a7578063514ea4bf1161018c578063514ea4bf1461039f5780635d87b6e4146103c15780636352211e146103d45761025c565b80634b57512d146103795780634f6ccce71461038c5761025c565b80632f745c591461032a5780634259ab441461033d57806342842e0e1461034557806346698e75146103585761025c565b80630e082b741161022f578063238efcbc11610214578063238efcbc146102fc57806323b872dd1461030457806325f368ae146103175761025c565b80630e082b74146102d457806318160ddd146102e75761025c565b806301ffc9a71461026157806306fdde031461028a578063081812fc1461029f578063095ea7b3146102bf575b600080fd5b61027461026f366004612be3565b61051d565b6040516102819190612f59565b60405180910390f35b610292610558565b6040516102819190612f78565b6102b26102ad366004612bcb565b6105ee565b6040516102819190612eaf565b6102d26102cd366004612b84565b610650565b005b6102d26102e2366004612d3b565b610726565b6102ef61080c565b6040516102819190613183565b6102d261081d565b6102d2610312366004612a53565b610874565b6102d2610325366004612db4565b6108cb565b6102ef610338366004612b84565b61098a565b6102b26109b5565b6102d2610353366004612a53565b6109c4565b61036b610366366004612e25565b6109df565b604051610281929190612ea1565b6102d2610387366004612cbc565b610b5e565b6102ef61039a366004612bcb565b610c1a565b6103b26103ad366004612bcb565b610c30565b60405161028193929190613207565b6102d26103cf366004612cf7565b610c51565b6102b26103e2366004612bcb565b610d2b565b610292610d53565b6102ef6103fd3660046129e3565b610db4565b6102b2610e1c565b610292610e2b565b6102d2610420366004612b57565b610e8c565b6102d26104333660046129e3565b610faf565b6102d2610446366004612a93565b611008565b61045e610459366004612bcb565b611066565b604051610281989796959493929190612ee7565b610485610480366004612c6a565b6112d7565b60405161028192919061318c565b6102d26104a1366004612df4565b6115c8565b6102926104b4366004612bcb565b61164d565b6102b26118ce565b6102d26104cf366004612cbc565b6118dd565b6102b2611960565b6102746104ea366004612a1b565b61196f565b6103b26104fd366004612e5f565b61199d565b6102d2610510366004612c23565b611aff565b6102b2611c5f565b7fffffffff00000000000000000000000000000000000000000000000000000000811660009081526020819052604090205460ff165b919050565b60068054604080516020601f60026000196101006001881615020190951694909404938401819004810282018101909252828152606093909290918301828280156105e45780601f106105b9576101008083540402835291602001916105e4565b820191906000526020600020905b8154815290600101906020018083116105c757829003601f168201915b5050505050905090565b60006105f982611c6e565b6106345760405162461bcd60e51b815260040180806020018281038252602c8152602001806133e4602c913960400191505060405180910390fd5b506000908152600460205260409020546001600160a01b031690565b600061065b82610d2b565b9050806001600160a01b0316836001600160a01b031614156106ae5760405162461bcd60e51b81526004018080602001828103825260218152602001806134686021913960400191505060405180910390fd5b806001600160a01b03166106c0611c7b565b6001600160a01b031614806106dc57506106dc816104ea611c7b565b6107175760405162461bcd60e51b81526004018080602001828103825260388152602001806133376038913960400191505060405180910390fd5b6107218383611c7f565b505050565b826107313382611cfa565b6107565760405162461bcd60e51b815260040161074d906130a7565b60405180910390fd5b6000848152600c602052604090819020600281015491517fd4da618500000000000000000000000000000000000000000000000000000000815290916001600160a01b03169063d4da6185906107b290879087906004016131c8565b6040805180830381600087803b1580156107cb57600080fd5b505af11580156107df573d6000803e3d6000fd5b505050506040513d601f19601f820116820180604052508101906108039190612d18565b50505050505050565b60006108186002611d9e565b905090565b6011546001600160a01b031633146108475760405162461bcd60e51b815260040161074d9061314c565b6010805473ffffffffffffffffffffffffffffffffffffffff199081163317909155601180549091169055565b61088561087f611c7b565b82611cfa565b6108c05760405162461bcd60e51b81526004018080602001828103825260318152602001806134896031913960400191505060405180910390fd5b610721838383611da9565b836108d63382611cfa565b6108f25760405162461bcd60e51b815260040161074d906130a7565b6000858152600c602052604090819020600281015491517f0430c13000000000000000000000000000000000000000000000000000000000815290916001600160a01b031690630430c13090610950908890889088906004016131e8565b600060405180830381600087803b15801561096a57600080fd5b505af115801561097e573d6000803e3d6000fd5b50505050505050505050565b6001600160a01b03821660009081526001602052604081206109ac9083611ef5565b90505b92915050565b600e546001600160a01b031681565b61072183838360405180602001604052806000815250611008565b600e5460009081906001600160a01b03163314610a0e5760405162461bcd60e51b815260040161074d906130de565b60008787604051602001610a23929190612ea1565b60408051601f1981840301815291815281516020928301206000818152600b9093529120600281015491925090871115610a6f5760405162461bcd60e51b815260040161074d90613070565b6000888152600c6020526040908190206002810154600e5492517fd473a65400000000000000000000000000000000000000000000000000000000815291926001600160a01b039182169263d473a65492610ad7928f928e928e928e9291169060040161321d565b6040805180830381600087803b158015610af057600080fd5b505af1158015610b04573d6000803e3d6000fd5b505050506040513d601f19601f82011682018060405250810190610b289190612d18565b6000858152600b60205260409020600201549196509450610b499089611f01565b82600201819055505050509550959350505050565b82610b693382611cfa565b610b855760405162461bcd60e51b815260040161074d906130a7565b6000848152600c602052604090819020600281015491517f5a64998b00000000000000000000000000000000000000000000000000000000815290916001600160a01b031690635a64998b90610be19087908790600401612f64565b600060405180830381600087803b158015610bfb57600080fd5b505af1158015610c0f573d6000803e3d6000fd5b505050505050505050565b600080610c28600284611f5e565b509392505050565b600b6020526000908152604090208054600182015460029092015490919083565b81610c5c3382611cfa565b610c785760405162461bcd60e51b815260040161074d906130a7565b6000838152600c602052604090819020600281015491517f2106fa4600000000000000000000000000000000000000000000000000000000815290916001600160a01b031690632106fa4690610cd2908690600401613183565b6040805180830381600087803b158015610ceb57600080fd5b505af1158015610cff573d6000803e3d6000fd5b505050506040513d601f19601f82011682018060405250810190610d239190612d18565b505050505050565b60006109af826040518060600160405280602981526020016133996029913960029190611f7a565b60098054604080516020601f60026000196101006001881615020190951694909404938401819004810282018101909252828152606093909290918301828280156105e45780601f106105b9576101008083540402835291602001916105e4565b60006001600160a01b038216610dfb5760405162461bcd60e51b815260040180806020018281038252602a81526020018061336f602a913960400191505060405180910390fd5b6001600160a01b03821660009081526001602052604090206109af90611d9e565b600d546001600160a01b031681565b60078054604080516020601f60026000196101006001881615020190951694909404938401819004810282018101909252828152606093909290918301828280156105e45780601f106105b9576101008083540402835291602001916105e4565b610e94611c7b565b6001600160a01b0316826001600160a01b03161415610efa576040805162461bcd60e51b815260206004820152601960248201527f4552433732313a20617070726f766520746f2063616c6c657200000000000000604482015290519081900360640190fd5b8060056000610f07611c7b565b6001600160a01b0390811682526020808301939093526040918201600090812091871680825291909352912080547fffffffffffffffffffffffffffffffffffffffffffffffffffffffffffffff001692151592909217909155610f69611c7b565b6001600160a01b03167f17307eab39ab6107e8899845ad3d59bd9653f200f220920489ca2b5937696c318360405180821515815260200191505060405180910390a35050565b6010546001600160a01b03163314610fd95760405162461bcd60e51b815260040161074d90612fcb565b6011805473ffffffffffffffffffffffffffffffffffffffff19166001600160a01b0392909216919091179055565b611019611013611c7b565b83611cfa565b6110545760405162461bcd60e51b81526004018080602001828103825260318152602001806134896031913960400191505060405180910390fd5b61106084848484611f91565b50505050565b6000818152600c60205260408120819081908190819081908190819061108b8a611c6e565b6110a75760405162461bcd60e51b815260040161074d90613115565b60028101546001600160a01b03166110be8b610d2b565b825460018401546002850154604080517feae989a200000000000000000000000000000000000000000000000000000000815290516001600160a01b0394851694938416939283169287169163eae989a2916004808301926020929190829003018186803b15801561112f57600080fd5b505afa158015611143573d6000803e3d6000fd5b505050506040513d601f19601f820116820180604052508101906111679190612ca4565b856001600160a01b031663a00fa77f6040518163ffffffff1660e01b815260040160206040518083038186803b1580156111a057600080fd5b505afa1580156111b4573d6000803e3d6000fd5b505050506040513d601f19601f820116820180604052508101906111d89190612ca4565b866001600160a01b031663b0e21e8a6040518163ffffffff1660e01b815260040160206040518083038186803b15801561121157600080fd5b505afa158015611225573d6000803e3d6000fd5b505050506040513d601f19601f820116820180604052508101906112499190612ca4565b876001600160a01b03166318160ddd6040518163ffffffff1660e01b815260040160206040518083038186803b15801561128257600080fd5b505afa158015611296573d6000803e3d6000fd5b505050506040513d601f19601f820116820180604052508101906112ba9190612ca4565b995099509950995099509950995099505050919395975091939597565b60105460009081906001600160a01b031633146113065760405162461bcd60e51b815260040161074d90612fcb565b600d546000906001600160a01b0316631698ee8261132a60408701602088016129e3565b61133a60608801604089016129e3565b61134a6080890160608a01612c81565b6040518463ffffffff1660e01b815260040161136893929190612f31565b60206040518083038186803b15801561138057600080fd5b505afa158015611394573d6000803e3d6000fd5b505050506040513d601f19601f820116820180604052508101906113b891906129ff565b90506001600160a01b0381166113e05760405162461bcd60e51b815260040161074d90613039565b600f546040517f58b4b7110000000000000000000000000000000000000000000000000000000081526001600160a01b03909116906358b4b71190611431908490309060808a013590600401612ec3565b602060405180830381600087803b15801561144b57600080fd5b505af115801561145f573d6000803e3d6000fd5b505050506040513d601f19601f8201168201806040525081019061148391906129ff565b91506114ea61149560208601866129e3565b600a80547fffffffffffffffffffff000000000000000000000000000000000000000000008116600175ffffffffffffffffffffffffffffffffffffffffffff92831690810190921617909155945084611fe3565b60408051606081019091528061150360208701876129e3565b6001600160a01b0390811682528381166020808401919091528582166040938401526000878152600c82528390208451815490841673ffffffffffffffffffffffffffffffffffffffff1991821617825591850151600182018054918516918416919091179055938301516002909401805494909216931692909217909155517ff03c0794e29ab9041701d90faa819fd394c96b5d374215f11d7dd03839606d5e906115ba9085908490869060808a0135906131a3565b60405180910390a150915091565b836115d33382611cfa565b6115ef5760405162461bcd60e51b815260040161074d906130a7565b6000858152600c602052604090819020600281015491517f9d9d75be00000000000000000000000000000000000000000000000000000000815290916001600160a01b031690639d9d75be9061095090889088908890600401613207565b606061165882611c6e565b6116935760405162461bcd60e51b815260040180806020018281038252602f815260200180613439602f913960400191505060405180910390fd5b60008281526008602090815260408083208054825160026001831615610100026000190190921691909104601f8101859004850282018501909352828152929091908301828280156117265780601f106116fb57610100808354040283529160200191611726565b820191906000526020600020905b81548152906001019060200180831161170957829003601f168201915b505050505090506000611737610d53565b905080516000141561174b57509050610553565b81511561180c5780826040516020018083805190602001908083835b602083106117865780518252601f199092019160209182019101611767565b51815160209384036101000a600019018019909216911617905285519190930192850191508083835b602083106117ce5780518252601f1990920191602091820191016117af565b6001836020036101000a0380198251168184511680821785525050505050509050019250505060405160208183030381529060405292505050610553565b8061181685612111565b6040516020018083805190602001908083835b602083106118485780518252601f199092019160209182019101611829565b51815160209384036101000a600019018019909216911617905285519190930192850191508083835b602083106118905780518252601f199092019160209182019101611871565b6001836020036101000a0380198251168184511680821785525050505050509050019250505060405160208183030381529060405292505050919050565b600f546001600160a01b031681565b826118e83382611cfa565b6119045760405162461bcd60e51b815260040161074d906130a7565b6000848152600c602052604090819020600281015491517fdb4dcce400000000000000000000000000000000000000000000000000000000815290916001600160a01b03169063db4dcce490610be19087908790600401612f64565b6010546001600160a01b031681565b6001600160a01b03918216600090815260056020908152604080832093909416825291909152205460ff1690565b600e54600090819081906001600160a01b031633146119ce5760405162461bcd60e51b815260040161074d906130de565b60128890556000888152600c602052604090819020600281015491517fbf02b5ea0000000000000000000000000000000000000000000000000000000081528a926001600160a01b03169063bf02b5ea90611a35908e908d908d908d908d90600401613249565b606060405180830381600087803b158015611a4f57600080fd5b505af1158015611a63573d6000803e3d6000fd5b505050506040513d601f19601f82011682018060405250810190611a879190612d87565b6040519297509095509350600090611aa5908d908d90602001612ea1565b60408051601f1981840301815291815281516020928301206000818152600b909352912060020154909150611ada9087612220565b6000918252600b60205260408220600201556012555092999198509650945050505050565b611b083361227a565b8215611bb157600e546040517f23b872dd0000000000000000000000000000000000000000000000000000000081526001600160a01b03868116926323b872dd92611b5d929091169033908890600401612ec3565b602060405180830381600087803b158015611b7757600080fd5b505af1158015611b8b573d6000803e3d6000fd5b505050506040513d601f19601f82011682018060405250810190611baf9190612baf565b505b801561106057600e546040517f23b872dd0000000000000000000000000000000000000000000000000000000081526001600160a01b03848116926323b872dd92611c06929091169033908690600401612ec3565b602060405180830381600087803b158015611c2057600080fd5b505af1158015611c34573d6000803e3d6000fd5b505050506040513d601f19601f82011682018060405250810190611c589190612baf565b5050505050565b6011546001600160a01b031681565b60006109af6002836122be565b3390565b6000818152600c60205260409020805473ffffffffffffffffffffffffffffffffffffffff19166001600160a01b0384169081179091558190611cc182610d2b565b6001600160a01b03167f8c5be1e5ebec7d5bd14f71427d1e84f3dd0314c0f7b2291e5b200ac8c7c3b92560405160405180910390a45050565b6000611d0582611c6e565b611d405760405162461bcd60e51b815260040180806020018281038252602c81526020018061330b602c913960400191505060405180910390fd5b6000611d4b83610d2b565b9050806001600160a01b0316846001600160a01b03161480611d865750836001600160a01b0316611d7b846105ee565b6001600160a01b0316145b80611d965750611d96818561196f565b949350505050565b60006109af826122ca565b826001600160a01b0316611dbc82610d2b565b6001600160a01b031614611e015760405162461bcd60e51b81526004018080602001828103825260298152602001806134106029913960400191505060405180910390fd5b6001600160a01b038216611e465760405162461bcd60e51b81526004018080602001828103825260248152602001806132e76024913960400191505060405180910390fd5b611e51838383610721565b611e5c600082611c7f565b6001600160a01b0383166000908152600160205260409020611e7e90826122ce565b506001600160a01b0382166000908152600160205260409020611ea190826122da565b50611eae600282846122e6565b5080826001600160a01b0316846001600160a01b03167fddf252ad1be2c89b69c2b068fc378daa952ba7f163c4a11628f55a4df523b3ef60405160405180910390a4505050565b60006109ac83836122fc565b600082821115611f58576040805162461bcd60e51b815260206004820152601e60248201527f536166654d6174683a207375627472616374696f6e206f766572666c6f770000604482015290519081900360640190fd5b50900390565b6000808080611f6d8686612360565b9097909650945050505050565b6000611f878484846123db565b90505b9392505050565b611f9c848484611da9565b611fa8848484846124a5565b6110605760405162461bcd60e51b81526004018080602001828103825260328152602001806132b56032913960400191505060405180910390fd5b6001600160a01b03821661203e576040805162461bcd60e51b815260206004820181905260248201527f4552433732313a206d696e7420746f20746865207a65726f2061646472657373604482015290519081900360640190fd5b61204781611c6e565b15612099576040805162461bcd60e51b815260206004820152601c60248201527f4552433732313a20746f6b656e20616c7265616479206d696e74656400000000604482015290519081900360640190fd5b6120a560008383610721565b6001600160a01b03821660009081526001602052604090206120c790826122da565b506120d4600282846122e6565b5060405181906001600160a01b038416906000907fddf252ad1be2c89b69c2b068fc378daa952ba7f163c4a11628f55a4df523b3ef908290a45050565b606081612152575060408051808201909152600181527f30000000000000000000000000000000000000000000000000000000000000006020820152610553565b8160005b811561216a57600101600a82049150612156565b60008167ffffffffffffffff8111801561218357600080fd5b506040519080825280601f01601f1916602001820160405280156121ae576020820181803683370190505b50859350905060001982015b831561221757600a840660300160f81b828280600190039350815181106121dd57fe5b60200101907effffffffffffffffffffffffffffffffffffffffffffffffffffffffffffff1916908160001a905350600a840493506121ba565b50949350505050565b6000828201838110156109ac576040805162461bcd60e51b815260206004820152601b60248201527f536166654d6174683a206164646974696f6e206f766572666c6f770000000000604482015290519081900360640190fd5b6012546000908152600c6020526040902060028101546001600160a01b038381169116146122ba5760405162461bcd60e51b815260040161074d90613002565b5050565b60006109ac8383612681565b5490565b60006109ac8383612699565b60006109ac838361275f565b6000611f8784846001600160a01b0385166127a9565b8154600090821061233e5760405162461bcd60e51b81526004018080602001828103825260228152602001806132936022913960400191505060405180910390fd5b82600001828154811061234d57fe5b9060005260206000200154905092915050565b8154600090819083106123a45760405162461bcd60e51b81526004018080602001828103825260228152602001806133c26022913960400191505060405180910390fd5b60008460000184815481106123b557fe5b906000526020600020906002020190508060000154816001015492509250509250929050565b600082815260018401602052604081205482816124765760405162461bcd60e51b81526004018080602001828103825283818151815260200191508051906020019080838360005b8381101561243b578181015183820152602001612423565b50505050905090810190601f1680156124685780820380516001836020036101000a031916815260200191505b509250505060405180910390fd5b5084600001600182038154811061248957fe5b9060005260206000209060020201600101549150509392505050565b60006124b9846001600160a01b0316612840565b6124c557506001611d96565b60006126167f150b7a02000000000000000000000000000000000000000000000000000000006124f3611c7b565b88878760405160240180856001600160a01b03168152602001846001600160a01b0316815260200183815260200180602001828103825283818151815260200191508051906020019080838360005b8381101561255a578181015183820152602001612542565b50505050905090810190601f1680156125875780820380516001836020036101000a031916815260200191505b5095505050505050604051602081830303815290604052907bffffffffffffffffffffffffffffffffffffffffffffffffffffffff19166020820180517bffffffffffffffffffffffffffffffffffffffffffffffffffffffff83818316178352505050506040518060600160405280603281526020016132b5603291396001600160a01b0388169190612846565b9050600081806020019051602081101561262f57600080fd5b50517fffffffff00000000000000000000000000000000000000000000000000000000167f150b7a02000000000000000000000000000000000000000000000000000000001492505050949350505050565b60009081526001919091016020526040902054151590565b6000818152600183016020526040812054801561275557835460001980830191908101906000908790839081106126cc57fe5b90600052602060002001549050808760000184815481106126e957fe5b60009182526020808320909101929092558281526001898101909252604090209084019055865487908061271957fe5b600190038181906000526020600020016000905590558660010160008781526020019081526020016000206000905560019450505050506109af565b60009150506109af565b600061276b8383612681565b6127a1575081546001818101845560008481526020808220909301849055845484825282860190935260409020919091556109af565b5060006109af565b60008281526001840160205260408120548061280e575050604080518082018252838152602080820184815286546001818101895560008981528481209551600290930290950191825591519082015586548684528188019092529290912055611f8a565b8285600001600183038154811061282157fe5b9060005260206000209060020201600101819055506000915050611f8a565b3b151590565b6060611f8784846000858561285a85612840565b6128ab576040805162461bcd60e51b815260206004820152601d60248201527f416464726573733a2063616c6c20746f206e6f6e2d636f6e7472616374000000604482015290519081900360640190fd5b600080866001600160a01b031685876040518082805190602001908083835b602083106128e95780518252601f1990920191602091820191016128ca565b6001836020036101000a03801982511681845116808217855250505050505090500191505060006040518083038185875af1925050503d806000811461294b576040519150601f19603f3d011682016040523d82523d6000602084013e612950565b606091505b509150915061296082828661296b565b979650505050505050565b6060831561297a575081611f8a565b82511561298a5782518084602001fd5b60405162461bcd60e51b815260206004820181815284516024840152845185939192839260440191908501908083836000831561243b578181015183820152602001612423565b8035600281900b811461055357600080fd5b6000602082840312156129f4578081fd5b81356109ac8161326c565b600060208284031215612a10578081fd5b81516109ac8161326c565b60008060408385031215612a2d578081fd5b8235612a388161326c565b91506020830135612a488161326c565b809150509250929050565b600080600060608486031215612a67578081fd5b8335612a728161326c565b92506020840135612a828161326c565b929592945050506040919091013590565b60008060008060808587031215612aa8578081fd5b8435612ab38161326c565b9350602085810135612ac48161326c565b935060408601359250606086013567ffffffffffffffff80821115612ae7578384fd5b818801915088601f830112612afa578384fd5b813581811115612b0657fe5b60405184601f19601f8401168201018181108482111715612b2357fe5b60405281815283820185018b1015612b39578586fd5b81858501868301379081019093019390935250939692955090935050565b60008060408385031215612b69578182fd5b8235612b748161326c565b91506020830135612a4881613284565b60008060408385031215612b96578182fd5b8235612ba18161326c565b946020939093013593505050565b600060208284031215612bc0578081fd5b81516109ac81613284565b600060208284031215612bdc578081fd5b5035919050565b600060208284031215612bf4578081fd5b81357fffffffff00000000000000000000000000000000000000000000000000000000811681146109ac578182fd5b60008060008060808587031215612c38578384fd5b8435612c438161326c565b9350602085013592506040850135612c5a8161326c565b9396929550929360600135925050565b600060a08284031215612c7b578081fd5b50919050565b600060208284031215612c92578081fd5b813562ffffff811681146109ac578182fd5b600060208284031215612cb5578081fd5b5051919050565b600080600060608486031215612cd0578081fd5b83359250612ce0602085016129d1565b9150612cee604085016129d1565b90509250925092565b60008060408385031215612d09578182fd5b50508035926020909101359150565b60008060408385031215612d2a578182fd5b505080516020909101519092909150565b600080600060608486031215612d4f578081fd5b833592506020840135915060408401356fffffffffffffffffffffffffffffffff81168114612d7c578182fd5b809150509250925092565b600080600060608486031215612d9b578081fd5b8351925060208401519150604084015190509250925092565b60008060008060808587031215612dc9578182fd5b8435935060208501359250604085013591506060850135612de98161326c565b939692955090935050565b60008060008060808587031215612e09578182fd5b5050823594602084013594506040840135936060013592509050565b600080600080600060a08688031215612e3c578283fd5b505083359560208501359550604085013594606081013594506080013592509050565b60008060008060008060c08789031215612e77578384fd5b505084359660208601359650604086013595606081013595506080810135945060a0013592509050565b918252602082015260400190565b6001600160a01b0391909116815260200190565b6001600160a01b039384168152919092166020820152604081019190915260600190565b6001600160a01b03988916815296881660208801529487166040870152929095166060850152608084015260a083019390935260c082019290925260e08101919091526101000190565b6001600160a01b03938416815291909216602082015262ffffff909116604082015260600190565b901515815260200190565b600292830b8152910b602082015260400190565b6000602080835283518082850152825b81811015612fa457858101830151858201604001528201612f88565b81811115612fb55783604083870101525b50601f01601f1916929092016040019392505050565b60208082526003908201527f676f760000000000000000000000000000000000000000000000000000000000604082015260600190565b6020808252600d908201527f63616c6c6261636b206661696c00000000000000000000000000000000000000604082015260600190565b60208082526011908201527f4e6f6e2d6578697374656e7420706f6f6c000000000000000000000000000000604082015260600190565b60208082526001908201527f7300000000000000000000000000000000000000000000000000000000000000604082015260600190565b6020808252600c908201527f4e6f7420617070726f7665640000000000000000000000000000000000000000604082015260600190565b60208082526001908201527f7900000000000000000000000000000000000000000000000000000000000000604082015260600190565b60208082526010908201527f496e76616c696420746f6b656e20494400000000000000000000000000000000604082015260600190565b60208082526008908201527f6e65787420676f76000000000000000000000000000000000000000000000000604082015260600190565b90815260200190565b9182526001600160a01b0316602082015260400190565b9384526001600160a01b03928316602085015291166040830152606082015260800190565b9182526fffffffffffffffffffffffffffffffff16602082015260400190565b92835260208301919091526001600160a01b0316604082015260600190565b9283526020830191909152604082015260600190565b9485526020850193909352604084019190915260608301526001600160a01b0316608082015260a00190565b948552602085019390935260408401919091526060830152608082015260a00190565b6001600160a01b038116811461328157600080fd5b50565b801515811461328157600080fdfe456e756d657261626c655365743a20696e646578206f7574206f6620626f756e64734552433732313a207472616e7366657220746f206e6f6e20455243373231526563656976657220696d706c656d656e7465724552433732313a207472616e7366657220746f20746865207a65726f20616464726573734552433732313a206f70657261746f7220717565727920666f72206e6f6e6578697374656e7420746f6b656e4552433732313a20617070726f76652063616c6c6572206973206e6f74206f776e6572206e6f7220617070726f76656420666f7220616c6c4552433732313a2062616c616e636520717565727920666f7220746865207a65726f20616464726573734552433732313a206f776e657220717565727920666f72206e6f6e6578697374656e7420746f6b656e456e756d657261626c654d61703a20696e646578206f7574206f6620626f756e64734552433732313a20617070726f76656420717565727920666f72206e6f6e6578697374656e7420746f6b656e4552433732313a207472616e73666572206f6620746f6b656e2074686174206973206e6f74206f776e4552433732314d657461646174613a2055524920717565727920666f72206e6f6e6578697374656e7420746f6b656e4552433732313a20617070726f76616c20746f2063757272656e74206f776e65724552433732313a207472616e736665722063616c6c6572206973206e6f74206f776e6572206e6f7220617070726f766564a164736f6c6343000706000a59494e277320556e697377617020563320506f736974696f6e73204d616e61676572",
  "linkReferences": {},
  "deployedLinkReferences": {}
}