{
  "_format": "hh-sol-artifact-1",
  "contractName": "YangNFTVault",
  "sourceName": "contracts/YangNFTVault.sol",
  "abi": [
    {
      "inputs": [],
      "stateMutability": "nonpayable",
      "type": "constructor"
    },
    {
      "anonymous": false,
      "inputs": [
        {
          "indexed": true,
          "internalType": "address",
          "name": "owner",
          "type": "address"
        },
        {
          "indexed": true,
          "internalType": "address",
          "name": "approved",
          "type": "address"
        },
        {
          "indexed": true,
          "internalType": "uint256",
          "name": "tokenId",
          "type": "uint256"
        }
      ],
      "name": "Approval",
      "type": "event"
    },
    {
      "anonymous": false,
      "inputs": [
        {
          "indexed": true,
          "internalType": "address",
          "name": "owner",
          "type": "address"
        },
        {
          "indexed": true,
          "internalType": "address",
          "name": "operator",
          "type": "address"
        },
        {
          "indexed": false,
          "internalType": "bool",
          "name": "approved",
          "type": "bool"
        }
      ],
      "name": "ApprovalForAll",
      "type": "event"
    },
    {
      "anonymous": false,
      "inputs": [
        {
          "indexed": true,
          "internalType": "address",
          "name": "recipient",
          "type": "address"
        },
        {
          "indexed": true,
          "internalType": "uint256",
          "name": "tokenId",
          "type": "uint256"
        }
      ],
      "name": "MintYangNFT",
      "type": "event"
    },
    {
      "anonymous": false,
      "inputs": [
        {
          "indexed": true,
          "internalType": "uint256",
          "name": "yangId",
          "type": "uint256"
        },
        {
          "indexed": true,
          "internalType": "uint256",
          "name": "chiId",
          "type": "uint256"
        },
        {
          "indexed": true,
          "internalType": "uint256",
          "name": "share",
          "type": "uint256"
        }
      ],
      "name": "Subscribe",
      "type": "event"
    },
    {
      "anonymous": false,
      "inputs": [
        {
          "indexed": true,
          "internalType": "address",
          "name": "from",
          "type": "address"
        },
        {
          "indexed": true,
          "internalType": "address",
          "name": "to",
          "type": "address"
        },
        {
          "indexed": true,
          "internalType": "uint256",
          "name": "tokenId",
          "type": "uint256"
        }
      ],
      "name": "Transfer",
      "type": "event"
    },
    {
      "anonymous": false,
      "inputs": [
        {
          "indexed": true,
          "internalType": "uint256",
          "name": "yangId",
          "type": "uint256"
        },
        {
          "indexed": true,
          "internalType": "uint256",
          "name": "chiId",
          "type": "uint256"
        },
        {
          "indexed": false,
          "internalType": "uint256",
          "name": "amount0",
          "type": "uint256"
        },
        {
          "indexed": false,
          "internalType": "uint256",
          "name": "amount1",
          "type": "uint256"
        }
      ],
      "name": "UnSubscribe",
      "type": "event"
    },
    {
      "inputs": [
        {
          "internalType": "address",
          "name": "to",
          "type": "address"
        },
        {
          "internalType": "uint256",
          "name": "tokenId",
          "type": "uint256"
        }
      ],
      "name": "approve",
      "outputs": [],
      "stateMutability": "nonpayable",
      "type": "function"
    },
    {
      "inputs": [
        {
          "internalType": "address",
          "name": "owner",
          "type": "address"
        }
      ],
      "name": "balanceOf",
      "outputs": [
        {
          "internalType": "uint256",
          "name": "",
          "type": "uint256"
        }
      ],
      "stateMutability": "view",
      "type": "function"
    },
    {
      "inputs": [],
      "name": "baseURI",
      "outputs": [
        {
          "internalType": "string",
          "name": "",
          "type": "string"
        }
      ],
      "stateMutability": "view",
      "type": "function"
    },
    {
      "inputs": [
        {
          "internalType": "uint256",
          "name": "yangId",
          "type": "uint256"
        },
        {
          "internalType": "uint256",
          "name": "chiId",
          "type": "uint256"
        }
      ],
      "name": "getAmounts",
      "outputs": [
        {
          "internalType": "uint256",
          "name": "amount0",
          "type": "uint256"
        },
        {
          "internalType": "uint256",
          "name": "amount1",
          "type": "uint256"
        }
      ],
      "stateMutability": "view",
      "type": "function"
    },
    {
      "inputs": [
        {
          "internalType": "uint256",
          "name": "tokenId",
          "type": "uint256"
        }
      ],
      "name": "getApproved",
      "outputs": [
        {
          "internalType": "address",
          "name": "",
          "type": "address"
        }
      ],
      "stateMutability": "view",
      "type": "function"
    },
    {
      "inputs": [
        {
          "internalType": "uint256",
          "name": "chiId",
          "type": "uint256"
        }
      ],
      "name": "getCHIAccruedFees",
      "outputs": [
        {
          "internalType": "uint256",
          "name": "fee0",
          "type": "uint256"
        },
        {
          "internalType": "uint256",
          "name": "fee1",
          "type": "uint256"
        }
      ],
      "stateMutability": "view",
      "type": "function"
    },
    {
      "inputs": [
        {
          "internalType": "uint256",
          "name": "chiId",
          "type": "uint256"
        }
      ],
      "name": "getCHITotalAmounts",
      "outputs": [
        {
          "internalType": "uint256",
          "name": "amount0",
          "type": "uint256"
        },
        {
          "internalType": "uint256",
          "name": "amount1",
          "type": "uint256"
        }
      ],
      "stateMutability": "view",
      "type": "function"
    },
    {
      "inputs": [
        {
          "internalType": "uint256",
          "name": "chiId",
          "type": "uint256"
        },
        {
          "internalType": "uint256",
          "name": "amount0Desired",
          "type": "uint256"
        },
        {
          "internalType": "uint256",
          "name": "amount1Desired",
          "type": "uint256"
        }
      ],
      "name": "getShares",
      "outputs": [
        {
          "internalType": "uint256",
          "name": "shares",
          "type": "uint256"
        },
        {
          "internalType": "uint256",
          "name": "amount0",
          "type": "uint256"
        },
        {
          "internalType": "uint256",
          "name": "amount1",
          "type": "uint256"
        }
      ],
      "stateMutability": "view",
      "type": "function"
    },
    {
      "inputs": [
        {
          "internalType": "address",
          "name": "recipient",
          "type": "address"
        }
      ],
      "name": "getTokenId",
      "outputs": [
        {
          "internalType": "uint256",
          "name": "",
          "type": "uint256"
        }
      ],
      "stateMutability": "view",
      "type": "function"
    },
    {
      "inputs": [
        {
          "internalType": "address",
          "name": "owner",
          "type": "address"
        },
        {
          "internalType": "address",
          "name": "operator",
          "type": "address"
        }
      ],
      "name": "isApprovedForAll",
      "outputs": [
        {
          "internalType": "bool",
          "name": "",
          "type": "bool"
        }
      ],
      "stateMutability": "view",
      "type": "function"
    },
    {
      "inputs": [
        {
          "internalType": "address",
          "name": "recipient",
          "type": "address"
        }
      ],
      "name": "mint",
      "outputs": [
        {
          "internalType": "uint256",
          "name": "tokenId",
          "type": "uint256"
        }
      ],
      "stateMutability": "nonpayable",
      "type": "function"
    },
    {
      "inputs": [],
      "name": "name",
      "outputs": [
        {
          "internalType": "string",
          "name": "",
          "type": "string"
        }
      ],
      "stateMutability": "view",
      "type": "function"
    },
    {
      "inputs": [],
      "name": "owner",
      "outputs": [
        {
          "internalType": "address",
          "name": "",
          "type": "address"
        }
      ],
      "stateMutability": "view",
      "type": "function"
    },
    {
      "inputs": [
        {
          "internalType": "uint256",
          "name": "tokenId",
          "type": "uint256"
        }
      ],
      "name": "ownerOf",
      "outputs": [
        {
          "internalType": "address",
          "name": "",
          "type": "address"
        }
      ],
      "stateMutability": "view",
      "type": "function"
    },
    {
      "inputs": [
        {
          "internalType": "bytes32",
          "name": "key",
          "type": "bytes32"
        }
      ],
      "name": "poolPositions",
      "outputs": [
        {
          "internalType": "uint128",
          "name": "liquidity",
          "type": "uint128"
        },
        {
          "internalType": "uint256",
          "name": "feeGrowthInside0LastX128",
          "type": "uint256"
        },
        {
          "internalType": "uint256",
          "name": "feeGrowthInside1LastX128",
          "type": "uint256"
        },
        {
          "internalType": "uint128",
          "name": "tokensOwed0",
          "type": "uint128"
        },
        {
          "internalType": "uint128",
          "name": "tokensOwed1",
          "type": "uint128"
        }
      ],
      "stateMutability": "view",
      "type": "function"
    },
    {
      "inputs": [
        {
          "internalType": "address",
          "name": "from",
          "type": "address"
        },
        {
          "internalType": "address",
          "name": "to",
          "type": "address"
        },
        {
          "internalType": "uint256",
          "name": "tokenId",
          "type": "uint256"
        }
      ],
      "name": "safeTransferFrom",
      "outputs": [],
      "stateMutability": "nonpayable",
      "type": "function"
    },
    {
      "inputs": [
        {
          "internalType": "address",
          "name": "from",
          "type": "address"
        },
        {
          "internalType": "address",
          "name": "to",
          "type": "address"
        },
        {
          "internalType": "uint256",
          "name": "tokenId",
          "type": "uint256"
        },
        {
          "internalType": "bytes",
          "name": "_data",
          "type": "bytes"
        }
      ],
      "name": "safeTransferFrom",
      "outputs": [],
      "stateMutability": "nonpayable",
      "type": "function"
    },
    {
      "inputs": [
        {
          "internalType": "address",
          "name": "operator",
          "type": "address"
        },
        {
          "internalType": "bool",
          "name": "approved",
          "type": "bool"
        }
      ],
      "name": "setApprovalForAll",
      "outputs": [],
      "stateMutability": "nonpayable",
      "type": "function"
    },
    {
      "inputs": [
        {
          "internalType": "address",
          "name": "_chiManager",
          "type": "address"
        }
      ],
      "name": "setCHIManager",
      "outputs": [],
      "stateMutability": "nonpayable",
      "type": "function"
    },
    {
      "inputs": [
        {
          "components": [
            {
              "internalType": "uint256",
              "name": "yangId",
              "type": "uint256"
            },
            {
              "internalType": "uint256",
              "name": "chiId",
              "type": "uint256"
            },
            {
              "internalType": "uint256",
              "name": "amount0Desired",
              "type": "uint256"
            },
            {
              "internalType": "uint256",
              "name": "amount1Desired",
              "type": "uint256"
            },
            {
              "internalType": "uint256",
              "name": "amount0Min",
              "type": "uint256"
            },
            {
              "internalType": "uint256",
              "name": "amount1Min",
              "type": "uint256"
            }
          ],
          "internalType": "struct IYangNFTVault.SubscribeParam",
          "name": "params",
          "type": "tuple"
        }
      ],
      "name": "subscribe",
      "outputs": [
        {
          "internalType": "uint256",
          "name": "amount0",
          "type": "uint256"
        },
        {
          "internalType": "uint256",
          "name": "amount1",
          "type": "uint256"
        },
        {
          "internalType": "uint256",
          "name": "shares",
          "type": "uint256"
        }
      ],
      "stateMutability": "nonpayable",
      "type": "function"
    },
    {
      "inputs": [
        {
          "internalType": "bytes4",
          "name": "interfaceId",
          "type": "bytes4"
        }
      ],
      "name": "supportsInterface",
      "outputs": [
        {
          "internalType": "bool",
          "name": "",
          "type": "bool"
        }
      ],
      "stateMutability": "view",
      "type": "function"
    },
    {
      "inputs": [],
      "name": "symbol",
      "outputs": [
        {
          "internalType": "string",
          "name": "",
          "type": "string"
        }
      ],
      "stateMutability": "view",
      "type": "function"
    },
    {
      "inputs": [
        {
          "internalType": "uint256",
          "name": "index",
          "type": "uint256"
        }
      ],
      "name": "tokenByIndex",
      "outputs": [
        {
          "internalType": "uint256",
          "name": "",
          "type": "uint256"
        }
      ],
      "stateMutability": "view",
      "type": "function"
    },
    {
      "inputs": [
        {
          "internalType": "address",
          "name": "owner",
          "type": "address"
        },
        {
          "internalType": "uint256",
          "name": "index",
          "type": "uint256"
        }
      ],
      "name": "tokenOfOwnerByIndex",
      "outputs": [
        {
          "internalType": "uint256",
          "name": "",
          "type": "uint256"
        }
      ],
      "stateMutability": "view",
      "type": "function"
    },
    {
      "inputs": [
        {
          "internalType": "uint256",
          "name": "tokenId",
          "type": "uint256"
        }
      ],
      "name": "tokenURI",
      "outputs": [
        {
          "internalType": "string",
          "name": "",
          "type": "string"
        }
      ],
      "stateMutability": "view",
      "type": "function"
    },
    {
      "inputs": [],
      "name": "totalSupply",
      "outputs": [
        {
          "internalType": "uint256",
          "name": "",
          "type": "uint256"
        }
      ],
      "stateMutability": "view",
      "type": "function"
    },
    {
      "inputs": [
        {
          "internalType": "address",
          "name": "from",
          "type": "address"
        },
        {
          "internalType": "address",
          "name": "to",
          "type": "address"
        },
        {
          "internalType": "uint256",
          "name": "tokenId",
          "type": "uint256"
        }
      ],
      "name": "transferFrom",
      "outputs": [],
      "stateMutability": "nonpayable",
      "type": "function"
    },
    {
      "inputs": [
        {
          "components": [
            {
              "internalType": "uint256",
              "name": "yangId",
              "type": "uint256"
            },
            {
              "internalType": "uint256",
              "name": "chiId",
              "type": "uint256"
            },
            {
              "internalType": "uint256",
              "name": "shares",
              "type": "uint256"
            },
            {
              "internalType": "uint256",
              "name": "amount0Min",
              "type": "uint256"
            },
            {
              "internalType": "uint256",
              "name": "amount1Min",
              "type": "uint256"
            }
          ],
          "internalType": "struct IYangNFTVault.UnSubscribeParam",
          "name": "params",
          "type": "tuple"
        }
      ],
      "name": "unsubscribe",
      "outputs": [],
      "stateMutability": "nonpayable",
      "type": "function"
    },
    {
      "inputs": [
        {
          "internalType": "uint256",
          "name": "yangId",
          "type": "uint256"
        },
        {
          "internalType": "uint256",
          "name": "chiId",
          "type": "uint256"
        }
      ],
      "name": "yangPositions",
      "outputs": [
        {
          "internalType": "uint256",
          "name": "amount0",
          "type": "uint256"
        },
        {
          "internalType": "uint256",
          "name": "amount1",
          "type": "uint256"
        },
        {
          "internalType": "uint256",
          "name": "shares",
          "type": "uint256"
        }
      ],
      "stateMutability": "view",
      "type": "function"
    }
  ],
  "bytecode": "0x60806040526001600d553480156200001657600080fd5b50604080518082018252601781527f59494e204173736574204d616e61676572205661756c740000000000000000006020808301919091528251808401909352600483526359414e4760e01b908301526001600055906200007e6301ffc9a760e01b620000fa565b81516200009390600790602085019062000182565b508051620000a990600890602084019062000182565b50620000bc6380ac58cd60e01b620000fa565b620000ce635b5e139f60e01b620000fa565b620000e063780e9d6360e01b620000fa565b5050600b80546001600160a01b031916331790556200022e565b6001600160e01b031980821614156200015a576040805162461bcd60e51b815260206004820152601c60248201527f4552433136353a20696e76616c696420696e7465726661636520696400000000604482015290519081900360640190fd5b6001600160e01b0319166000908152600160208190526040909120805460ff19169091179055565b828054600181600116156101000203166002900490600052602060002090601f016020900481019282620001ba576000855562000205565b82601f10620001d557805160ff191683800117855562000205565b8280016001018555821562000205579182015b8281111562000205578251825591602001919060010190620001e8565b506200021392915062000217565b5090565b5b8082111562000213576000815560010162000218565b615082806200023e6000396000f3fe608060405234801561001057600080fd5b50600436106101cf5760003560e01c80635f0600f71161010457806395d89b41116100a2578063c87b56dd11610071578063c87b56dd146103e5578063e5d9cc9a146103f8578063e985e9c51461040b578063f15376861461041e576101cf565b806395d89b41146103a4578063a22cb465146103ac578063a244a481146103bf578063b88d4fde146103d2576101cf565b80636c0360eb116100de5780636c0360eb1461035d57806370a08231146103655780638ae881ab146103785780638da5cb5b1461039c576101cf565b80635f0600f7146103245780636352211e146103375780636a6278421461034a576101cf565b806323b872dd1161017157806342842e0e1161014b57806342842e0e146102d857806342e6e0fe146102eb5780634f6ccce7146102fe5780635c0d107e14610311576101cf565b806323b872dd1461029f5780632f745c59146102b25780633ab2e4ba146102c5576101cf565b8063081812fc116101ad578063081812fc14610234578063095ea7b31461025457806316529c461461026957806318160ddd1461028a576101cf565b806301ffc9a7146101d45780630589ea3d146101fd57806306fdde031461021f575b600080fd5b6101e76101e236600461492c565b610431565b6040516101f49190614b1e565b60405180910390f35b61021061020b366004614a60565b61046c565b6040516101f493929190614d0a565b6102276104e1565b6040516101f49190614b29565b610247610242366004614914565b610577565b6040516101f49190614b0a565b6102676102623660046148e9565b6105d9565b005b61027c610277366004614a60565b6106af565b6040516101f4929190614afc565b6102926107f8565b6040516101f49190614d01565b6102676102ad3660046147c2565b610809565b6102926102c03660046148e9565b610860565b6102676102d33660046149df565b61088b565b6102676102e63660046147c2565b610cc8565b6102106102f9366004614aa4565b610ce3565b61029261030c366004614914565b610db8565b61021061031f36600461496c565b610dce565b61027c610332366004614914565b6110d6565b610247610345366004614914565b611209565b6102926103583660046146cd565b611231565b6102276112c5565b6102926103733660046146cd565b611326565b61038b610386366004614914565b61138e565b6040516101f4959493929190614cc6565b610247611401565b610227611410565b6102676103ba3660046148b8565b611471565b6102676103cd3660046146cd565b611594565b6102676103e0366004614802565b6115f8565b6102276103f3366004614914565b611656565b61027c610406366004614914565b6118d7565b6101e7610419366004614705565b611a7b565b61029261042c3660046146cd565b611aa9565b7fffffffff00000000000000000000000000000000000000000000000000000000811660009081526001602052604090205460ff165b919050565b600080600080600f60008787604051602001610489929190614afc565b60408051601f1981840301815291815281516020928301208352828201939093529082016000208251606081018452815480825260018301549382018490526002909201549301839052989097509095509350505050565b60078054604080516020601f600260001961010060018816150201909516949094049384018190048102820181019092528281526060939092909183018282801561056d5780601f106105425761010080835404028352916020019161056d565b820191906000526020600020905b81548152906001019060200180831161055057829003601f168201915b5050505050905090565b600061058282611ac4565b6105bd5760405162461bcd60e51b815260040180806020018281038252602c815260200180614f40602c913960400191505060405180910390fd5b506000908152600560205260409020546001600160a01b031690565b60006105e482611209565b9050806001600160a01b0316836001600160a01b031614156106375760405162461bcd60e51b8152600401808060200182810382526021815260200180614fc46021913960400191505060405180910390fd5b806001600160a01b0316610649611ad1565b6001600160a01b03161480610665575061066581610419611ad1565b6106a05760405162461bcd60e51b8152600401808060200182810382526038815260200180614e726038913960400191505060405180910390fd5b6106aa8383611ad5565b505050565b600c5460009081906001600160a01b03166106e55760405162461bcd60e51b81526004016106dc90614bea565b60405180910390fd5b600084846040516020016106fa929190614afc565b60408051601f1981840301815282825280516020918201206000818152600f8352839020606085018452805485526001810154928501929092526002909101549183018290529250156107ef57600c54604051635cef66b360e11b815260009182916001600160a01b039091169063b9decd669061077c908a90600401614d01565b6101006040518083038186803b15801561079557600080fd5b505afa1580156107a9573d6000803e3d6000fd5b505050506040513d601f19601f820116820180604052508101906107cd919061473d565b505050509350935050506107e782828a8660400151611b5b565b909650945050505b50509250929050565b60006108046003611b7c565b905090565b61081a610814611ad1565b82611b87565b6108555760405162461bcd60e51b8152600401808060200182810382526031815260200180614fe56031913960400191505060405180910390fd5b6106aa838383611c2b565b6001600160a01b03821660009081526002602052604081206108829083611d77565b90505b92915050565b600260005414156108e3576040805162461bcd60e51b815260206004820152601f60248201527f5265656e7472616e637947756172643a207265656e7472616e742063616c6c00604482015290519081900360640190fd5b600260005580516108f43382611b87565b6109105760405162461bcd60e51b81526004016106dc90614c58565b600c546001600160a01b03166109385760405162461bcd60e51b81526004016106dc90614bea565b600c546020830151604051635cef66b360e11b815260009283926001600160a01b039091169163b9decd669161097091600401614d01565b6101006040518083038186803b15801561098957600080fd5b505afa15801561099d573d6000803e3d6000fd5b505050506040513d601f19601f820116820180604052508101906109c1919061473d565b505050509350935050506000846000015185602001516040516020016109e8929190614afc565b6040516020818303038152906040528051906020012090508460400151600f6000838152602001908152602001600020600201541015610a3a5760405162461bcd60e51b81526004016106dc90614c8f565b600c548551602087015160408089015160608a015160808b015192517f46698e7500000000000000000000000000000000000000000000000000000000815260009687966001600160a01b03909116956346698e7595610aa09592949193600401614d20565b6040805180830381600087803b158015610ab957600080fd5b505af1158015610acd573d6000803e3d6000fd5b505050506040513d601f19601f82011682018060405250810190610af19190614a81565b915091506000859050610be6816001600160a01b0316630dfe16816040518163ffffffff1660e01b815260040160206040518083038186803b158015610b3657600080fd5b505afa158015610b4a573d6000803e3d6000fd5b505050506040513d601f19601f82011682018060405250810190610b6e91906146e9565b84836001600160a01b031663d21220a76040518163ffffffff1660e01b815260040160206040518083038186803b158015610ba857600080fd5b505afa158015610bbc573d6000803e3d6000fd5b505050506040513d601f19601f82011682018060405250810190610be091906146e9565b85611d83565b87516020890151600091610bfd91600f9190611db7565b9050610c1a89604001518260020154611df290919063ffffffff16565b600282015580548410610c2e576000610c3a565b8054610c3a9085611df2565b815560018101548310610c4e576000610c5d565b6001810154610c5d9084611df2565b600182015588518690610c769060109085908490611e4f565b60208a01518a516040517fb65ca58d729d89d58e1ed48a179b40d4a6b56e3e101a10085a0f43915cf1448890610caf9089908990614afc565b60405180910390a3505060016000555050505050505050565b6106aa838383604051806020016040528060008152506115f8565b600c54600090819081906001600160a01b0316610d125760405162461bcd60e51b81526004016106dc90614bea565b600c54604051635cef66b360e11b81526000916001600160a01b03169063b9decd6690610d43908a90600401614d01565b6101006040518083038186803b158015610d5c57600080fd5b505afa158015610d70573d6000803e3d6000fd5b505050506040513d601f19601f82011682018060405250810190610d94919061473d565b505050509350505050610da881878761203e565b9199909850909650945050505050565b600080610dc6600384612158565b509392505050565b60008060008360000151610de23382611b87565b610dfe5760405162461bcd60e51b81526004016106dc90614c58565b60026000541415610e56576040805162461bcd60e51b815260206004820152601f60248201527f5265656e7472616e637947756172643a207265656e7472616e742063616c6c00604482015290519081900360640190fd5b6002600055600c546001600160a01b0316610e835760405162461bcd60e51b81526004016106dc90614bea565b600c546020860151604051635cef66b360e11b815260009283926001600160a01b039091169163b9decd6691610ebb91600401614d01565b6101006040518083038186803b158015610ed457600080fd5b505afa158015610ee8573d6000803e3d6000fd5b505050506040513d601f19601f82011682018060405250810190610f0c919061473d565b5050505093509350505060008290506000816001600160a01b0316630dfe16816040518163ffffffff1660e01b815260040160206040518083038186803b158015610f5657600080fd5b505afa158015610f6a573d6000803e3d6000fd5b505050506040513d601f19601f82011682018060405250810190610f8e91906146e9565b90506000826001600160a01b031663d21220a76040518163ffffffff1660e01b815260040160206040518083038186803b158015610fcb57600080fd5b505afa158015610fdf573d6000803e3d6000fd5b505050506040513d601f19601f8201168201806040525081019061100391906146e9565b9050611019828b60400151838d60600151612174565b61102482828c6121de565b8c5160208e0151939c50919a50985060009161104291600f91611db7565b8054909150611051908b61231d565b81556001810154611062908a61231d565b60018201556002810154611076908961231d565b60028201558a5161108d9060109086908890611e4f565b60208b01518b516040518a9291907f17de92c1076ec5855c3edd4a6084a82c184adfda177deb99d6532697cdac91cb90600090a450506001600055509597949650929450505050565b600c5460009081906001600160a01b03166111035760405162461bcd60e51b81526004016106dc90614bea565b600c54604051635cef66b360e11b81526000916001600160a01b03169063b9decd6690611134908790600401614d01565b6101006040518083038186803b15801561114d57600080fd5b505afa158015611161573d6000803e3d6000fd5b505050506040513d601f19601f82011682018060405250810190611185919061473d565b505050509350505050806001600160a01b031663c4a7761e6040518163ffffffff1660e01b8152600401604080518083038186803b1580156111c657600080fd5b505afa1580156111da573d6000803e3d6000fd5b505050506040513d601f19601f820116820180604052508101906111fe9190614a81565b909590945092505050565b600061088582604051806060016040528060298152602001614ed46029913960039190612377565b6001600160a01b0381166000908152600e6020526040812054156112675760405162461bcd60e51b81526004016106dc90614b7c565b50600d80546001810190915561127d828261238e565b6001600160a01b0382166000818152600e6020526040808220849055518392917f74629109564de5ce9d04dc84bb5ecd8fbb0c98843a3fbd43f057825a9255449c91a3919050565b600a8054604080516020601f600260001961010060018816150201909516949094049384018190048102820181019092528281526060939092909183018282801561056d5780601f106105425761010080835404028352916020019161056d565b60006001600160a01b03821661136d5760405162461bcd60e51b815260040180806020018281038252602a815260200180614eaa602a913960400191505060405180910390fd5b6001600160a01b038216600090815260026020526040902061088590611b7c565b600090815260106020908152604091829020825160a08101845281546fffffffffffffffffffffffffffffffff9081168083526001840154948301859052600284015495830186905260039093015480821660608401819052600160801b90910490911660809092018290529194929392565b600b546001600160a01b031681565b60088054604080516020601f600260001961010060018816150201909516949094049384018190048102820181019092528281526060939092909183018282801561056d5780601f106105425761010080835404028352916020019161056d565b611479611ad1565b6001600160a01b0316826001600160a01b031614156114df576040805162461bcd60e51b815260206004820152601960248201527f4552433732313a20617070726f766520746f2063616c6c657200000000000000604482015290519081900360640190fd5b80600660006114ec611ad1565b6001600160a01b0390811682526020808301939093526040918201600090812091871680825291909352912080547fffffffffffffffffffffffffffffffffffffffffffffffffffffffffffffff00169215159290921790915561154e611ad1565b6001600160a01b03167f17307eab39ab6107e8899845ad3d59bd9653f200f220920489ca2b5937696c318360405180821515815260200191505060405180910390a35050565b600b546001600160a01b031633146115be5760405162461bcd60e51b81526004016106dc90614c21565b600c80547fffffffffffffffffffffffff0000000000000000000000000000000000000000166001600160a01b0392909216919091179055565b611609611603611ad1565b83611b87565b6116445760405162461bcd60e51b8152600401808060200182810382526031815260200180614fe56031913960400191505060405180910390fd5b611650848484846124bc565b50505050565b606061166182611ac4565b61169c5760405162461bcd60e51b815260040180806020018281038252602f815260200180614f95602f913960400191505060405180910390fd5b60008281526009602090815260408083208054825160026001831615610100026000190190921691909104601f81018590048502820185019093528281529290919083018282801561172f5780601f106117045761010080835404028352916020019161172f565b820191906000526020600020905b81548152906001019060200180831161171257829003601f168201915b5050505050905060006117406112c5565b905080516000141561175457509050610467565b8151156118155780826040516020018083805190602001908083835b6020831061178f5780518252601f199092019160209182019101611770565b51815160209384036101000a600019018019909216911617905285519190930192850191508083835b602083106117d75780518252601f1990920191602091820191016117b8565b6001836020036101000a0380198251168184511680821785525050505050509050019250505060405160208183030381529060405292505050610467565b8061181f8561250e565b6040516020018083805190602001908083835b602083106118515780518252601f199092019160209182019101611832565b51815160209384036101000a600019018019909216911617905285519190930192850191508083835b602083106118995780518252601f19909201916020918201910161187a565b6001836020036101000a0380198251168184511680821785525050505050509050019250505060405160208183030381529060405292505050919050565b600c5460009081906001600160a01b03166119045760405162461bcd60e51b81526004016106dc90614bea565b600c54604051635cef66b360e11b81526000916001600160a01b03169063b9decd6690611935908790600401614d01565b6101006040518083038186803b15801561194e57600080fd5b505afa158015611962573d6000803e3d6000fd5b505050506040513d601f19601f82011682018060405250810190611986919061473d565b505050509350505050806001600160a01b031663eae989a26040518163ffffffff1660e01b815260040160206040518083038186803b1580156119c857600080fd5b505afa1580156119dc573d6000803e3d6000fd5b505050506040513d601f19601f82011682018060405250810190611a009190614a48565b9250806001600160a01b031663a00fa77f6040518163ffffffff1660e01b815260040160206040518083038186803b158015611a3b57600080fd5b505afa158015611a4f573d6000803e3d6000fd5b505050506040513d601f19601f82011682018060405250810190611a739190614a48565b915050915091565b6001600160a01b03918216600090815260066020908152604080832093909416825291909152205460ff1690565b6001600160a01b03166000908152600e602052604090205490565b600061088560038361261d565b3390565b600081815260056020526040902080547fffffffffffffffffffffffff0000000000000000000000000000000000000000166001600160a01b0384169081179091558190611b2282611209565b6001600160a01b03167f8c5be1e5ebec7d5bd14f71427d1e84f3dd0314c0f7b2291e5b200ac8c7c3b92560405160405180910390a45050565b6000808486611b6d8183338989612629565b90999098509650505050505050565b600061088582612bac565b6000611b9282611ac4565b611bcd5760405162461bcd60e51b815260040180806020018281038252602c815260200180614e46602c913960400191505060405180910390fd5b6000611bd883611209565b9050806001600160a01b0316846001600160a01b03161480611c135750836001600160a01b0316611c0884610577565b6001600160a01b0316145b80611c235750611c238185611a7b565b949350505050565b826001600160a01b0316611c3e82611209565b6001600160a01b031614611c835760405162461bcd60e51b8152600401808060200182810382526029815260200180614f6c6029913960400191505060405180910390fd5b6001600160a01b038216611cc85760405162461bcd60e51b8152600401808060200182810382526024815260200180614dfc6024913960400191505060405180910390fd5b611cd38383836106aa565b611cde600082611ad5565b6001600160a01b0383166000908152600260205260409020611d009082612bb0565b506001600160a01b0382166000908152600260205260409020611d239082612bbc565b50611d3060038284612bc8565b5080826001600160a01b0316846001600160a01b03167fddf252ad1be2c89b69c2b068fc378daa952ba7f163c4a11628f55a4df523b3ef60405160405180910390a4505050565b60006108828383612bde565b8215611d9d57611d9d6001600160a01b0385163385612c42565b8015611650576116506001600160a01b0383163383612c42565b604080516020808201949094528082019290925280518083038201815260609092018152815191830191909120600090815292909152902090565b600082821115611e49576040805162461bcd60e51b815260206004820152601e60248201527f536166654d6174683a207375627472616374696f6e206f766572666c6f770000604482015290519081900360640190fd5b50900390565b60005b826001600160a01b031663b135a1456040518163ffffffff1660e01b815260040160206040518083038186803b158015611e8b57600080fd5b505afa158015611e9f573d6000803e3d6000fd5b505050506040513d6020811015611eb557600080fd5b505181101561203757600080846001600160a01b031663cc364f48846040518263ffffffff1660e01b815260040180828152602001915050604080518083038186803b158015611f0457600080fd5b505afa158015611f18573d6000803e3d6000fd5b505050506040513d6040811015611f2e57600080fd5b50805160209091015190925090506000611f4a87878585612cc2565b6fffffffffffffffffffffffffffffffff16111561202d576000611f718886888686612d47565b905060008060008060008b6001600160a01b031663514ea4bf611f958d8b8b612d71565b6040518263ffffffff1660e01b81526004018082815260200191505060a06040518083038186803b158015611fc957600080fd5b505afa158015611fdd573d6000803e3d6000fd5b505050506040513d60a0811015611ff357600080fd5b50805160208201516040830151606084015160809094015192985090965094509092509050612026868686868686612dc7565b5050505050505b5050600101611e52565b5050505050565b600080600080869050600080826001600160a01b031663c4a7761e6040518163ffffffff1660e01b8152600401604080518083038186803b15801561208257600080fd5b505afa158015612096573d6000803e3d6000fd5b505050506040513d60408110156120ac57600080fd5b81019080805190602001909291908051906020019092919050505091509150600080600061214185858d8d8a6001600160a01b03166318160ddd6040518163ffffffff1660e01b815260040160206040518083038186803b15801561211057600080fd5b505afa158015612124573d6000803e3d6000fd5b505050506040513d602081101561213a57600080fd5b5051612e37565b919a50985096505050505050505b93509350939050565b60008080806121678686612f6a565b9097909650945050505050565b600083116121945760405162461bcd60e51b81526004016106dc90614bb3565b600081116121b45760405162461bcd60e51b81526004016106dc90614bb3565b6121c96001600160a01b038516333086612fe5565b6116506001600160a01b038316333084612fe5565b600c54604082015160009182918291612204916001600160a01b0389811692169061306d565b600c546060850151612224916001600160a01b038881169291169061306d565b600c5484516020860151604080880151606089015160808a015160a08b015193517fec28fcac0000000000000000000000000000000000000000000000000000000081526001600160a01b039097169663ec28fcac9661228d9690959094939291600401614d43565b606060405180830381600087803b1580156122a757600080fd5b505af11580156122bb573d6000803e3d6000fd5b505050506040513d601f19601f820116820180604052508101906122df9190614acf565b600c549195509350909150612302906001600160a01b038881169116600061306d565b600c5461214f906001600160a01b038781169116600061306d565b600082820183811015610882576040805162461bcd60e51b815260206004820152601b60248201527f536166654d6174683a206164646974696f6e206f766572666c6f770000000000604482015290519081900360640190fd5b60006123848484846131c7565b90505b9392505050565b6001600160a01b0382166123e9576040805162461bcd60e51b815260206004820181905260248201527f4552433732313a206d696e7420746f20746865207a65726f2061646472657373604482015290519081900360640190fd5b6123f281611ac4565b15612444576040805162461bcd60e51b815260206004820152601c60248201527f4552433732313a20746f6b656e20616c7265616479206d696e74656400000000604482015290519081900360640190fd5b612450600083836106aa565b6001600160a01b03821660009081526002602052604090206124729082612bbc565b5061247f60038284612bc8565b5060405181906001600160a01b038416906000907fddf252ad1be2c89b69c2b068fc378daa952ba7f163c4a11628f55a4df523b3ef908290a45050565b6124c7848484611c2b565b6124d384848484613291565b6116505760405162461bcd60e51b8152600401808060200182810382526032815260200180614dca6032913960400191505060405180910390fd5b60608161254f575060408051808201909152600181527f30000000000000000000000000000000000000000000000000000000000000006020820152610467565b8160005b811561256757600101600a82049150612553565b60008167ffffffffffffffff8111801561258057600080fd5b506040519080825280601f01601f1916602001820160405280156125ab576020820181803683370190505b50859350905060001982015b831561261457600a840660300160f81b828280600190039350815181106125da57fe5b60200101907effffffffffffffffffffffffffffffffffffffffffffffffffffffffffffff1916908160001a905350600a840493506125b7565b50949350505050565b6000610882838361346d565b60008060005b866001600160a01b031663b135a1456040518163ffffffff1660e01b815260040160206040518083038186803b15801561266857600080fd5b505afa15801561267c573d6000803e3d6000fd5b505050506040513d602081101561269257600080fd5b50518110156127e957600080886001600160a01b031663cc364f48846040518263ffffffff1660e01b815260040180828152602001915050604080518083038186803b1580156126e157600080fd5b505afa1580156126f5573d6000803e3d6000fd5b505050506040513d604081101561270b57600080fd5b508051602090910151909250905060006127278b8b8585612cc2565b90506fffffffffffffffffffffffffffffffff8116156127de5760006040518061010001604052808d6001600160a01b031681526020018c6001600160a01b031681526020018b6001600160a01b031681526020018a8152602001836fffffffffffffffffffffffffffffffff1681526020018981526020018560020b81526020018460020b81525090506000806127be83613485565b915091506127cc898361231d565b98506127d8888261231d565b97505050505b50505060010161262f565b506000876001600160a01b0316630dfe16816040518163ffffffff1660e01b815260040160206040518083038186803b15801561282557600080fd5b505afa158015612839573d6000803e3d6000fd5b505050506040513d602081101561284f57600080fd5b5051604080517fd21220a700000000000000000000000000000000000000000000000000000000815290519192506000916001600160a01b038b169163d21220a7916004808301926020929190829003018186803b1580156128b057600080fd5b505afa1580156128c4573d6000803e3d6000fd5b505050506040513d60208110156128da57600080fd5b5051604080517f70a082310000000000000000000000000000000000000000000000000000000081526001600160a01b038b811660048301529151929350600092612a6e92612a0392908716916370a0823191602480820192602092909190829003018186803b15801561294d57600080fd5b505afa158015612961573d6000803e3d6000fd5b505050506040513d602081101561297757600080fd5b5051604080517feae989a200000000000000000000000000000000000000000000000000000000815290516001600160a01b038e169163eae989a2916004808301926020929190829003018186803b1580156129d257600080fd5b505afa1580156129e6573d6000803e3d6000fd5b505050506040513d60208110156129fc57600080fd5b5051611df2565b878b6001600160a01b03166318160ddd6040518163ffffffff1660e01b815260040160206040518083038186803b158015612a3d57600080fd5b505afa158015612a51573d6000803e3d6000fd5b505050506040513d6020811015612a6757600080fd5b50516135f0565b90506000612b84612b4a846001600160a01b03166370a082318d6040518263ffffffff1660e01b815260040180826001600160a01b0316815260200191505060206040518083038186803b158015612ac557600080fd5b505afa158015612ad9573d6000803e3d6000fd5b505050506040513d6020811015612aef57600080fd5b5051604080517fa00fa77f00000000000000000000000000000000000000000000000000000000815290516001600160a01b038f169163a00fa77f916004808301926020929190829003018186803b1580156129d257600080fd5b888c6001600160a01b03166318160ddd6040518163ffffffff1660e01b815260040160206040518083038186803b158015612a3d57600080fd5b9050612b90868361231d565b9550612b9c858261231d565b9450505050509550959350505050565b5490565b6000610882838361369f565b60006108828383613765565b600061238484846001600160a01b0385166137af565b81546000908210612c205760405162461bcd60e51b8152600401808060200182810382526022815260200180614da86022913960400191505060405180910390fd5b826000018281548110612c2f57fe5b9060005260206000200154905092915050565b604080516001600160a01b038416602482015260448082018490528251808303909101815260649091019091526020810180517bffffffffffffffffffffffffffffffffffffffffffffffffffffffff167fa9059cbb000000000000000000000000000000000000000000000000000000001790526106aa908490613846565b6000846001600160a01b031663514ea4bf612cde868686612d71565b6040518263ffffffff1660e01b81526004018082815260200191505060a06040518083038186803b158015612d1257600080fd5b505afa158015612d26573d6000803e3d6000fd5b505050506040513d60a0811015612d3c57600080fd5b505195945050505050565b6000856000612d58878787876138f7565b8152602001908152602001600020905095945050505050565b6040805160609490941b6bffffffffffffffffffffffff1916602080860191909152600293840b60e890811b60348701529290930b90911b60378401528051808403601a018152603a9093019052815191012090565b85546fffffffffffffffffffffffffffffffff9586167fffffffffffffffffffffffffffffffff000000000000000000000000000000009182161787556001870194909455600286019290925560039094018054918416600160801b029484169190921617909116919091179055565b60008080831580612e485750600088115b80612e535750600087115b612e5957fe5b83612e74575084905083612e6d8282613950565b9250612f5f565b87612e86575083612e6d8185896135f0565b86612e9957859150612e6d82858a6135f0565b6000612eb7612ea8888a613967565b612eb2888c613967565b6139c0565b905060008111612f0e576040805162461bcd60e51b815260206004820152600160248201527f6300000000000000000000000000000000000000000000000000000000000000604482015290519081900360640190fd5b612f2c612f25612f1f836001611df2565b8a6139cf565b600161231d565b9250612f45612f25612f3f836001611df2565b8b6139cf565b9150612f5b612f5582878c6135f0565b896139cf565b9350505b955095509592505050565b815460009081908310612fae5760405162461bcd60e51b8152600401808060200182810382526022815260200180614efd6022913960400191505060405180910390fd5b6000846000018481548110612fbf57fe5b906000526020600020906002020190508060000154816001015492509250509250929050565b604080516001600160a01b0380861660248301528416604482015260648082018490528251808303909101815260849091019091526020810180517bffffffffffffffffffffffffffffffffffffffffffffffffffffffff167f23b872dd00000000000000000000000000000000000000000000000000000000179052611650908590613846565b80158061310c5750604080517fdd62ed3e0000000000000000000000000000000000000000000000000000000081523060048201526001600160a01b03848116602483015291519185169163dd62ed3e91604480820192602092909190829003018186803b1580156130de57600080fd5b505afa1580156130f2573d6000803e3d6000fd5b505050506040513d602081101561310857600080fd5b5051155b6131475760405162461bcd60e51b81526004018080602001828103825260368152602001806150406036913960400191505060405180910390fd5b604080516001600160a01b038416602482015260448082018490528251808303909101815260649091019091526020810180517bffffffffffffffffffffffffffffffffffffffffffffffffffffffff167f095ea7b3000000000000000000000000000000000000000000000000000000001790526106aa908490613846565b600082815260018401602052604081205482816132625760405162461bcd60e51b81526004018080602001828103825283818151815260200191508051906020019080838360005b8381101561322757818101518382015260200161320f565b50505050905090810190601f1680156132545780820380516001836020036101000a031916815260200191505b509250505060405180910390fd5b5084600001600182038154811061327557fe5b9060005260206000209060020201600101549150509392505050565b60006132a5846001600160a01b0316613a36565b6132b157506001611c23565b60006134027f150b7a02000000000000000000000000000000000000000000000000000000006132df611ad1565b88878760405160240180856001600160a01b03168152602001846001600160a01b0316815260200183815260200180602001828103825283818151815260200191508051906020019080838360005b8381101561334657818101518382015260200161332e565b50505050905090810190601f1680156133735780820380516001836020036101000a031916815260200191505b5095505050505050604051602081830303815290604052907bffffffffffffffffffffffffffffffffffffffffffffffffffffffff19166020820180517bffffffffffffffffffffffffffffffffffffffffffffffffffffffff8381831617835250505050604051806060016040528060328152602001614dca603291396001600160a01b0388169190613a3c565b9050600081806020019051602081101561341b57600080fd5b50517fffffffff00000000000000000000000000000000000000000000000000000000167f150b7a02000000000000000000000000000000000000000000000000000000001492505050949350505050565b60009081526001919091016020526040902054151590565b60008060006134f16134e985608001516fffffffffffffffffffffffffffffffff168660a0015187602001516001600160a01b03166318160ddd6040518163ffffffff1660e01b815260040160206040518083038186803b158015612a3d57600080fd5b600003613a4b565b9050600081600f0b13156135ea576060840151845160c086015160e0870151600092839261351f9287613a5c565b91509150600061353d8489602001518a60c001518b60e001516138f7565b9050600061355889602001518a60c001518b60e00151612d71565b905060006040518060c001604052808b600001516001600160a01b031681526020018b604001516001600160a01b031681526020018481526020018381526020018681526020018581525090506000806135bb8c60c001518d60e0015185613b79565b915091508187116135cc57866135ce565b815b9a508086116135dd57856135df565b805b995050505050505050505b50915091565b6000808060001985870986860292508281109083900303905080613626576000841161361b57600080fd5b508290049050612387565b80841161363257600080fd5b6000848688096000868103871696879004966002600389028118808a02820302808a02820302808a02820302808a02820302808a02820302808a02909103029181900381900460010186841190950394909402919094039290920491909117919091029150509392505050565b6000818152600183016020526040812054801561375b57835460001980830191908101906000908790839081106136d257fe5b90600052602060002001549050808760000184815481106136ef57fe5b60009182526020808320909101929092558281526001898101909252604090209084019055865487908061371f57fe5b60019003818190600052602060002001600090559055866001016000878152602001908152602001600020600090556001945050505050610885565b6000915050610885565b6000613771838361346d565b6137a757508154600181810184556000848152602080822090930184905584548482528286019093526040902091909155610885565b506000610885565b600082815260018401602052604081205480613814575050604080518082018252838152602080820184815286546001818101895560008981528481209551600290930290950191825591519082015586548684528188019092529290912055612387565b8285600001600183038154811061382757fe5b9060005260206000209060020201600101819055506000915050612387565b600061389b826040518060400160405280602081526020017f5361666545524332303a206c6f772d6c6576656c2063616c6c206661696c6564815250856001600160a01b0316613a3c9092919063ffffffff16565b8051909150156106aa578080602001905160208110156138ba57600080fd5b50516106aa5760405162461bcd60e51b815260040180806020018281038252602a815260200180615016602a913960400191505060405180910390fd5b6040805160208082019690965260609490941b6bffffffffffffffffffffffff191684820152600292830b60e890811b60548601529190920b901b60578301528051808303603a018152605a9092019052805191012090565b6000818310156139605781610882565b5090919050565b60008261397657506000610885565b8282028284828161398357fe5b04146108825760405162461bcd60e51b8152600401808060200182810382526021815260200180614f1f6021913960400191505060405180910390fd5b60008183106139605781610882565b6000808211613a25576040805162461bcd60e51b815260206004820152601a60248201527f536166654d6174683a206469766973696f6e206279207a65726f000000000000604482015290519081900360640190fd5b818381613a2e57fe5b049392505050565b3b151590565b60606123848484600085613c6a565b80600f81900b811461046757600080fd5b600080600080876001600160a01b0316633850c7bd6040518163ffffffff1660e01b815260040160e06040518083038186803b158015613a9b57600080fd5b505afa158015613aaf573d6000803e3d6000fd5b505050506040513d60e0811015613ac557600080fd5b5080516020909101519092509050600080600f87900b15613b65578860020b8360020b1215613b1057613b09613afa8a613dc5565b613b038a613dc5565b89614113565b9150613b65565b8760020b8360020b1215613b4757613b2b84613b038a613dc5565b9150613b40613b398a613dc5565b8589614157565b9050613b65565b613b62613b538a613dc5565b613b5c8a613dc5565b89614157565b90505b60009182039a910398509650505050505050565b600080600080600080600087602001516001600160a01b0316638ae881ab89604001516040518263ffffffff1660e01b81526004018082815260200191505060a06040518083038186803b158015613bd057600080fd5b505afa158015613be4573d6000803e3d6000fd5b505050506040513d60a0811015613bfa57600080fd5b508051602082015160408301516060808501516080909501518d51918e0151949a5092985090965092945092506000918291613c3891908e8e614186565b91509150613c578787878d6080015188018e60a001518801878761442e565b9850985050505050505050935093915050565b606082471015613cab5760405162461bcd60e51b8152600401808060200182810382526026815260200180614e206026913960400191505060405180910390fd5b613cb485613a36565b613d05576040805162461bcd60e51b815260206004820152601d60248201527f416464726573733a2063616c6c20746f206e6f6e2d636f6e7472616374000000604482015290519081900360640190fd5b600080866001600160a01b031685876040518082805190602001908083835b60208310613d435780518252601f199092019160209182019101613d24565b6001836020036101000a03801982511681845116808217855250505050505090500191505060006040518083038185875af1925050503d8060008114613da5576040519150601f19603f3d011682016040523d82523d6000602084013e613daa565b606091505b5091509150613dba8282866144a1565b979650505050505050565b60008060008360020b12613ddc578260020b613de4565b8260020b6000035b9050620d89e8811115613e3e576040805162461bcd60e51b815260206004820152600160248201527f5400000000000000000000000000000000000000000000000000000000000000604482015290519081900360640190fd5b600060018216613e5257600160801b613e64565b6ffffcb933bd6fad37aa2d162d1a5940015b70ffffffffffffffffffffffffffffffffff1690506002821615613e98576ffff97272373d413259a46990580e213a0260801c5b6004821615613eb7576ffff2e50f5f656932ef12357cf3c7fdcc0260801c5b6008821615613ed6576fffe5caca7e10e4e61c3624eaa0941cd00260801c5b6010821615613ef5576fffcb9843d60f6159c9db58835c9266440260801c5b6020821615613f14576fff973b41fa98c081472e6896dfb254c00260801c5b6040821615613f33576fff2ea16466c96a3843ec78b326b528610260801c5b6080821615613f52576ffe5dee046a99a2a811c461f1969c30530260801c5b610100821615613f72576ffcbe86c7900a88aedcffc83b479aa3a40260801c5b610200821615613f92576ff987a7253ac413176f2b074cf7815e540260801c5b610400821615613fb2576ff3392b0822b70005940c7a398e4b70f30260801c5b610800821615613fd2576fe7159475a2c29b7443b29c7fa6e889d90260801c5b611000821615613ff2576fd097f3bdfd2022b8845ad8f792aa58250260801c5b612000821615614012576fa9f746462d870fdf8a65dc1f90e061e50260801c5b614000821615614032576f70d869a156d2a1b890bb3df62baf32f70260801c5b618000821615614052576f31be135f97d08fd981231505542fcfa60260801c5b62010000821615614073576f09aa508b5b7a84e1c677de54f3e99bc90260801c5b62020000821615614093576e5d6af8dedb81196699c329225ee6040260801c5b620400008216156140b2576d2216e584f5fa1ea926041bedfe980260801c5b620800008216156140cf576b048a170391f7dc42444e8fa20260801c5b60008460020b13156140ea5780600019816140e657fe5b0490505b6401000000008106156140fe576001614101565b60005b60ff16602082901c0192505050919050565b60008082600f0b126141395761413461412f8585856001614507565b6145b9565b612384565b61414c61412f8585856000036000614507565b600003949350505050565b60008082600f0b126141735761413461412f85858560016145eb565b61414c61412f85858560000360006145eb565b600080600080876001600160a01b031663514ea4bf886040518263ffffffff1660e01b81526004018082815260200191505060a06040518083038186803b1580156141d057600080fd5b505afa1580156141e4573d6000803e3d6000fd5b505050506040513d60a08110156141fa57600080fd5b50602081015160409182015182517f3850c7bd000000000000000000000000000000000000000000000000000000008152925191945092506000916001600160a01b038b1691633850c7bd9160048082019260e092909190829003018186803b15801561426657600080fd5b505afa15801561427a573d6000803e3d6000fd5b505050506040513d60e081101561429057600080fd5b5060200151604080517ff30dba9300000000000000000000000000000000000000000000000000000000815260028a900b6004820152905191925060009182916001600160a01b038d169163f30dba939160248082019261010092909190829003018186803b15801561430257600080fd5b505afa158015614316573d6000803e3d6000fd5b505050506040513d61010081101561432d57600080fd5b506040810151606090910151909250905060008060028b810b9086900b12614359575082905081614362565b50508185038185035b6000808e6001600160a01b031663f30dba938d6040518263ffffffff1660e01b8152600401808260020b81526020019150506101006040518083038186803b1580156143ad57600080fd5b505afa1580156143c1573d6000803e3d6000fd5b505050506040513d6101008110156143d857600080fd5b506040810151606090910151909250905060008060028e810b908a900b121561440557508290508161440e565b50508189038189035b94909903989098039e91909603919091039b509950505050505050505050565b6000806144548885038a6fffffffffffffffffffffffffffffffff16600160801b6135f0565b8601955061447b8784038a6fffffffffffffffffffffffffffffffff16600160801b6135f0565b6fffffffffffffffffffffffffffffffff9687169a950190951697509295505050505050565b606083156144b0575081612387565b8251156144c05782518084602001fd5b60405162461bcd60e51b815260206004820181815284516024840152845185939192839260440191908501908083836000831561322757818101518382015260200161320f565b6000836001600160a01b0316856001600160a01b03161115614527579293925b7bffffffffffffffffffffffffffffffff000000000000000000000000606084901b166001600160a01b03868603811690871661456357600080fd5b8361459357866001600160a01b03166145868383896001600160a01b03166135f0565b8161458d57fe5b04613dba565b613dba6145aa8383896001600160a01b0316614688565b886001600160a01b03166146c2565b60007f800000000000000000000000000000000000000000000000000000000000000082106145e757600080fd5b5090565b6000836001600160a01b0316856001600160a01b0316111561460b579293925b8161464a57614645836fffffffffffffffffffffffffffffffff168686036001600160a01b03166c010000000000000000000000006135f0565b61467f565b61467f836fffffffffffffffffffffffffffffffff168686036001600160a01b03166c01000000000000000000000000614688565b95945050505050565b60006146958484846135f0565b9050600082806146a157fe5b84860911156123875760001981106146b857600080fd5b6001019392505050565b808204910615150190565b6000602082840312156146de578081fd5b813561088281614d8f565b6000602082840312156146fa578081fd5b815161088281614d8f565b60008060408385031215614717578081fd5b823561472281614d8f565b9150602083013561473281614d8f565b809150509250929050565b600080600080600080600080610100898b031215614759578384fd5b885161476481614d8f565b60208a015190985061477581614d8f565b60408a015190975061478681614d8f565b60608a015190965061479781614d8f565b60808a015160a08b015160c08c015160e0909c01519a9d999c50979a91999098919650945092505050565b6000806000606084860312156147d6578283fd5b83356147e181614d8f565b925060208401356147f181614d8f565b929592945050506040919091013590565b60008060008060808587031215614817578384fd5b843561482281614d8f565b935060208581013561483381614d8f565b935060408601359250606086013567ffffffffffffffff80821115614856578384fd5b818801915088601f830112614869578384fd5b81358181111561487557fe5b61488784601f19601f84011601614d6b565b9150808252898482850101111561489c578485fd5b8084840185840137810190920192909252939692955090935050565b600080604083850312156148ca578182fd5b82356148d581614d8f565b915060208301358015158114614732578182fd5b600080604083850312156148fb578182fd5b823561490681614d8f565b946020939093013593505050565b600060208284031215614925578081fd5b5035919050565b60006020828403121561493d578081fd5b81357fffffffff0000000000000000000000000000000000000000000000000000000081168114610882578182fd5b600060c0828403121561497d578081fd5b60405160c0810181811067ffffffffffffffff8211171561499a57fe5b8060405250823581526020830135602082015260408301356040820152606083013560608201526080830135608082015260a083013560a08201528091505092915050565b600060a082840312156149f0578081fd5b60405160a0810181811067ffffffffffffffff82111715614a0d57fe5b806040525082358152602083013560208201526040830135604082015260608301356060820152608083013560808201528091505092915050565b600060208284031215614a59578081fd5b5051919050565b60008060408385031215614a72578182fd5b50508035926020909101359150565b60008060408385031215614a93578182fd5b505080516020909101519092909150565b600080600060608486031215614ab8578081fd5b505081359360208301359350604090920135919050565b600080600060608486031215614ae3578081fd5b8351925060208401519150604084015190509250925092565b918252602082015260400190565b6001600160a01b0391909116815260200190565b901515815260200190565b6000602080835283518082850152825b81811015614b5557858101830151858201604001528201614b39565b81811115614b665783604083870101525b50601f01601f1916929092016040019392505050565b60208082526002908201527f4f4f000000000000000000000000000000000000000000000000000000000000604082015260600190565b60208082526002908201527f4e5a000000000000000000000000000000000000000000000000000000000000604082015260600190565b60208082526003908201527f4348490000000000000000000000000000000000000000000000000000000000604082015260600190565b6020808252600a908201527f6f6e6c79206f776e657200000000000000000000000000000000000000000000604082015260600190565b6020808252600c908201527f6e6f7420617070726f7665640000000000000000000000000000000000000000604082015260600190565b60208082526013908201527f696e73756666696369656e742073686172657300000000000000000000000000604082015260600190565b6fffffffffffffffffffffffffffffffff95861681526020810194909452604084019290925283166060830152909116608082015260a00190565b90815260200190565b9283526020830191909152604082015260600190565b948552602085019390935260408401919091526060830152608082015260a00190565b958652602086019490945260408501929092526060840152608083015260a082015260c00190565b60405181810167ffffffffffffffff81118282101715614d8757fe5b604052919050565b6001600160a01b0381168114614da457600080fd5b5056fe456e756d657261626c655365743a20696e646578206f7574206f6620626f756e64734552433732313a207472616e7366657220746f206e6f6e20455243373231526563656976657220696d706c656d656e7465724552433732313a207472616e7366657220746f20746865207a65726f2061646472657373416464726573733a20696e73756666696369656e742062616c616e636520666f722063616c6c4552433732313a206f70657261746f7220717565727920666f72206e6f6e6578697374656e7420746f6b656e4552433732313a20617070726f76652063616c6c6572206973206e6f74206f776e6572206e6f7220617070726f76656420666f7220616c6c4552433732313a2062616c616e636520717565727920666f7220746865207a65726f20616464726573734552433732313a206f776e657220717565727920666f72206e6f6e6578697374656e7420746f6b656e456e756d657261626c654d61703a20696e646578206f7574206f6620626f756e6473536166654d6174683a206d756c7469706c69636174696f6e206f766572666c6f774552433732313a20617070726f76656420717565727920666f72206e6f6e6578697374656e7420746f6b656e4552433732313a207472616e73666572206f6620746f6b656e2074686174206973206e6f74206f776e4552433732314d657461646174613a2055524920717565727920666f72206e6f6e6578697374656e7420746f6b656e4552433732313a20617070726f76616c20746f2063757272656e74206f776e65724552433732313a207472616e736665722063616c6c6572206973206e6f74206f776e6572206e6f7220617070726f7665645361666545524332303a204552433230206f7065726174696f6e20646964206e6f7420737563636565645361666545524332303a20617070726f76652066726f6d206e6f6e2d7a65726f20746f206e6f6e2d7a65726f20616c6c6f77616e6365a164736f6c6343000706000a",
  "linkReferences": {},
  "deployedLinkReferences": {}
}