{
  "_format": "hh-sol-artifact-1",
  "contractName": "YangNFTVault",
  "sourceName": "contracts/YangNFTVault.sol",
  "abi": [
    {
      "inputs": [],
      "stateMutability": "nonpayable",
      "type": "constructor"
    },
    {
      "anonymous": false,
      "inputs": [
        {
          "indexed": true,
          "internalType": "address",
          "name": "owner",
          "type": "address"
        },
        {
          "indexed": true,
          "internalType": "address",
          "name": "approved",
          "type": "address"
        },
        {
          "indexed": true,
          "internalType": "uint256",
          "name": "tokenId",
          "type": "uint256"
        }
      ],
      "name": "Approval",
      "type": "event"
    },
    {
      "anonymous": false,
      "inputs": [
        {
          "indexed": true,
          "internalType": "address",
          "name": "owner",
          "type": "address"
        },
        {
          "indexed": true,
          "internalType": "address",
          "name": "operator",
          "type": "address"
        },
        {
          "indexed": false,
          "internalType": "bool",
          "name": "approved",
          "type": "bool"
        }
      ],
      "name": "ApprovalForAll",
      "type": "event"
    },
    {
      "anonymous": false,
      "inputs": [
        {
          "indexed": true,
          "internalType": "address",
          "name": "recipient",
          "type": "address"
        },
        {
          "indexed": true,
          "internalType": "uint256",
          "name": "tokenId",
          "type": "uint256"
        }
      ],
      "name": "MintYangNFT",
      "type": "event"
    },
    {
      "anonymous": false,
      "inputs": [
        {
          "indexed": true,
          "internalType": "uint256",
          "name": "yangId",
          "type": "uint256"
        },
        {
          "indexed": true,
          "internalType": "uint256",
          "name": "chiId",
          "type": "uint256"
        },
        {
          "indexed": true,
          "internalType": "uint256",
          "name": "share",
          "type": "uint256"
        }
      ],
      "name": "Subscribe",
      "type": "event"
    },
    {
      "anonymous": false,
      "inputs": [
        {
          "indexed": true,
          "internalType": "address",
          "name": "from",
          "type": "address"
        },
        {
          "indexed": true,
          "internalType": "address",
          "name": "to",
          "type": "address"
        },
        {
          "indexed": true,
          "internalType": "uint256",
          "name": "tokenId",
          "type": "uint256"
        }
      ],
      "name": "Transfer",
      "type": "event"
    },
    {
      "anonymous": false,
      "inputs": [
        {
          "indexed": true,
          "internalType": "uint256",
          "name": "yangId",
          "type": "uint256"
        },
        {
          "indexed": true,
          "internalType": "uint256",
          "name": "chiId",
          "type": "uint256"
        },
        {
          "indexed": false,
          "internalType": "uint256",
          "name": "amount0",
          "type": "uint256"
        },
        {
          "indexed": false,
          "internalType": "uint256",
          "name": "amount1",
          "type": "uint256"
        }
      ],
      "name": "UnSubscribe",
      "type": "event"
    },
    {
      "inputs": [
        {
          "internalType": "address",
          "name": "to",
          "type": "address"
        },
        {
          "internalType": "uint256",
          "name": "tokenId",
          "type": "uint256"
        }
      ],
      "name": "approve",
      "outputs": [],
      "stateMutability": "nonpayable",
      "type": "function"
    },
    {
      "inputs": [
        {
          "internalType": "address",
          "name": "owner",
          "type": "address"
        }
      ],
      "name": "balanceOf",
      "outputs": [
        {
          "internalType": "uint256",
          "name": "",
          "type": "uint256"
        }
      ],
      "stateMutability": "view",
      "type": "function"
    },
    {
      "inputs": [],
      "name": "baseURI",
      "outputs": [
        {
          "internalType": "string",
          "name": "",
          "type": "string"
        }
      ],
      "stateMutability": "view",
      "type": "function"
    },
    {
      "inputs": [
        {
          "internalType": "uint256",
          "name": "yangId",
          "type": "uint256"
        },
        {
          "internalType": "uint256",
          "name": "chiId",
          "type": "uint256"
        }
      ],
      "name": "getAmounts",
      "outputs": [
        {
          "internalType": "uint256",
          "name": "amount0",
          "type": "uint256"
        },
        {
          "internalType": "uint256",
          "name": "amount1",
          "type": "uint256"
        }
      ],
      "stateMutability": "view",
      "type": "function"
    },
    {
      "inputs": [
        {
          "internalType": "uint256",
          "name": "tokenId",
          "type": "uint256"
        }
      ],
      "name": "getApproved",
      "outputs": [
        {
          "internalType": "address",
          "name": "",
          "type": "address"
        }
      ],
      "stateMutability": "view",
      "type": "function"
    },
    {
      "inputs": [
        {
          "internalType": "uint256",
          "name": "chiId",
          "type": "uint256"
        }
      ],
      "name": "getCHIAccruedFees",
      "outputs": [
        {
          "internalType": "uint256",
          "name": "fee0",
          "type": "uint256"
        },
        {
          "internalType": "uint256",
          "name": "fee1",
          "type": "uint256"
        }
      ],
      "stateMutability": "view",
      "type": "function"
    },
    {
      "inputs": [
        {
          "internalType": "uint256",
          "name": "chiId",
          "type": "uint256"
        }
      ],
      "name": "getCHITotalAmounts",
      "outputs": [
        {
          "internalType": "uint256",
          "name": "amount0",
          "type": "uint256"
        },
        {
          "internalType": "uint256",
          "name": "amount1",
          "type": "uint256"
        }
      ],
      "stateMutability": "view",
      "type": "function"
    },
    {
      "inputs": [
        {
          "internalType": "uint256",
          "name": "chiId",
          "type": "uint256"
        },
        {
          "internalType": "uint256",
          "name": "amount0Desired",
          "type": "uint256"
        },
        {
          "internalType": "uint256",
          "name": "amount1Desired",
          "type": "uint256"
        }
      ],
      "name": "getShares",
      "outputs": [
        {
          "internalType": "uint256",
          "name": "shares",
          "type": "uint256"
        },
        {
          "internalType": "uint256",
          "name": "amount0",
          "type": "uint256"
        },
        {
          "internalType": "uint256",
          "name": "amount1",
          "type": "uint256"
        }
      ],
      "stateMutability": "view",
      "type": "function"
    },
    {
      "inputs": [
        {
          "internalType": "address",
          "name": "recipient",
          "type": "address"
        }
      ],
      "name": "getTokenId",
      "outputs": [
        {
          "internalType": "uint256",
          "name": "",
          "type": "uint256"
        }
      ],
      "stateMutability": "view",
      "type": "function"
    },
    {
      "inputs": [
        {
          "internalType": "address",
          "name": "owner",
          "type": "address"
        },
        {
          "internalType": "address",
          "name": "operator",
          "type": "address"
        }
      ],
      "name": "isApprovedForAll",
      "outputs": [
        {
          "internalType": "bool",
          "name": "",
          "type": "bool"
        }
      ],
      "stateMutability": "view",
      "type": "function"
    },
    {
      "inputs": [
        {
          "internalType": "address",
          "name": "recipient",
          "type": "address"
        }
      ],
      "name": "mint",
      "outputs": [
        {
          "internalType": "uint256",
          "name": "tokenId",
          "type": "uint256"
        }
      ],
      "stateMutability": "nonpayable",
      "type": "function"
    },
    {
      "inputs": [],
      "name": "name",
      "outputs": [
        {
          "internalType": "string",
          "name": "",
          "type": "string"
        }
      ],
      "stateMutability": "view",
      "type": "function"
    },
    {
      "inputs": [],
      "name": "owner",
      "outputs": [
        {
          "internalType": "address",
          "name": "",
          "type": "address"
        }
      ],
      "stateMutability": "view",
      "type": "function"
    },
    {
      "inputs": [
        {
          "internalType": "uint256",
          "name": "tokenId",
          "type": "uint256"
        }
      ],
      "name": "ownerOf",
      "outputs": [
        {
          "internalType": "address",
          "name": "",
          "type": "address"
        }
      ],
      "stateMutability": "view",
      "type": "function"
    },
    {
      "inputs": [
        {
          "internalType": "bytes32",
          "name": "key",
          "type": "bytes32"
        }
      ],
      "name": "poolPositions",
      "outputs": [
        {
          "internalType": "uint128",
          "name": "liquidity",
          "type": "uint128"
        },
        {
          "internalType": "uint256",
          "name": "feeGrowthInside0LastX128",
          "type": "uint256"
        },
        {
          "internalType": "uint256",
          "name": "feeGrowthInside1LastX128",
          "type": "uint256"
        },
        {
          "internalType": "uint128",
          "name": "tokensOwed0",
          "type": "uint128"
        },
        {
          "internalType": "uint128",
          "name": "tokensOwed1",
          "type": "uint128"
        }
      ],
      "stateMutability": "view",
      "type": "function"
    },
    {
      "inputs": [
        {
          "internalType": "address",
          "name": "from",
          "type": "address"
        },
        {
          "internalType": "address",
          "name": "to",
          "type": "address"
        },
        {
          "internalType": "uint256",
          "name": "tokenId",
          "type": "uint256"
        }
      ],
      "name": "safeTransferFrom",
      "outputs": [],
      "stateMutability": "nonpayable",
      "type": "function"
    },
    {
      "inputs": [
        {
          "internalType": "address",
          "name": "from",
          "type": "address"
        },
        {
          "internalType": "address",
          "name": "to",
          "type": "address"
        },
        {
          "internalType": "uint256",
          "name": "tokenId",
          "type": "uint256"
        },
        {
          "internalType": "bytes",
          "name": "_data",
          "type": "bytes"
        }
      ],
      "name": "safeTransferFrom",
      "outputs": [],
      "stateMutability": "nonpayable",
      "type": "function"
    },
    {
      "inputs": [
        {
          "internalType": "address",
          "name": "operator",
          "type": "address"
        },
        {
          "internalType": "bool",
          "name": "approved",
          "type": "bool"
        }
      ],
      "name": "setApprovalForAll",
      "outputs": [],
      "stateMutability": "nonpayable",
      "type": "function"
    },
    {
      "inputs": [
        {
          "internalType": "address",
          "name": "_chiManager",
          "type": "address"
        }
      ],
      "name": "setCHIManager",
      "outputs": [],
      "stateMutability": "nonpayable",
      "type": "function"
    },
    {
      "inputs": [
        {
          "components": [
            {
              "internalType": "uint256",
              "name": "yangId",
              "type": "uint256"
            },
            {
              "internalType": "uint256",
              "name": "chiId",
              "type": "uint256"
            },
            {
              "internalType": "uint256",
              "name": "amount0Desired",
              "type": "uint256"
            },
            {
              "internalType": "uint256",
              "name": "amount1Desired",
              "type": "uint256"
            },
            {
              "internalType": "uint256",
              "name": "amount0Min",
              "type": "uint256"
            },
            {
              "internalType": "uint256",
              "name": "amount1Min",
              "type": "uint256"
            }
          ],
          "internalType": "struct IYangNFTVault.SubscribeParam",
          "name": "params",
          "type": "tuple"
        }
      ],
      "name": "subscribe",
      "outputs": [
        {
          "internalType": "uint256",
          "name": "amount0",
          "type": "uint256"
        },
        {
          "internalType": "uint256",
          "name": "amount1",
          "type": "uint256"
        },
        {
          "internalType": "uint256",
          "name": "shares",
          "type": "uint256"
        }
      ],
      "stateMutability": "nonpayable",
      "type": "function"
    },
    {
      "inputs": [
        {
          "internalType": "bytes4",
          "name": "interfaceId",
          "type": "bytes4"
        }
      ],
      "name": "supportsInterface",
      "outputs": [
        {
          "internalType": "bool",
          "name": "",
          "type": "bool"
        }
      ],
      "stateMutability": "view",
      "type": "function"
    },
    {
      "inputs": [],
      "name": "symbol",
      "outputs": [
        {
          "internalType": "string",
          "name": "",
          "type": "string"
        }
      ],
      "stateMutability": "view",
      "type": "function"
    },
    {
      "inputs": [
        {
          "internalType": "uint256",
          "name": "index",
          "type": "uint256"
        }
      ],
      "name": "tokenByIndex",
      "outputs": [
        {
          "internalType": "uint256",
          "name": "",
          "type": "uint256"
        }
      ],
      "stateMutability": "view",
      "type": "function"
    },
    {
      "inputs": [
        {
          "internalType": "address",
          "name": "owner",
          "type": "address"
        },
        {
          "internalType": "uint256",
          "name": "index",
          "type": "uint256"
        }
      ],
      "name": "tokenOfOwnerByIndex",
      "outputs": [
        {
          "internalType": "uint256",
          "name": "",
          "type": "uint256"
        }
      ],
      "stateMutability": "view",
      "type": "function"
    },
    {
      "inputs": [
        {
          "internalType": "uint256",
          "name": "tokenId",
          "type": "uint256"
        }
      ],
      "name": "tokenURI",
      "outputs": [
        {
          "internalType": "string",
          "name": "",
          "type": "string"
        }
      ],
      "stateMutability": "view",
      "type": "function"
    },
    {
      "inputs": [],
      "name": "totalSupply",
      "outputs": [
        {
          "internalType": "uint256",
          "name": "",
          "type": "uint256"
        }
      ],
      "stateMutability": "view",
      "type": "function"
    },
    {
      "inputs": [
        {
          "internalType": "address",
          "name": "from",
          "type": "address"
        },
        {
          "internalType": "address",
          "name": "to",
          "type": "address"
        },
        {
          "internalType": "uint256",
          "name": "tokenId",
          "type": "uint256"
        }
      ],
      "name": "transferFrom",
      "outputs": [],
      "stateMutability": "nonpayable",
      "type": "function"
    },
    {
      "inputs": [
        {
          "components": [
            {
              "internalType": "uint256",
              "name": "yangId",
              "type": "uint256"
            },
            {
              "internalType": "uint256",
              "name": "chiId",
              "type": "uint256"
            },
            {
              "internalType": "uint256",
              "name": "shares",
              "type": "uint256"
            },
            {
              "internalType": "uint256",
              "name": "amount0Min",
              "type": "uint256"
            },
            {
              "internalType": "uint256",
              "name": "amount1Min",
              "type": "uint256"
            }
          ],
          "internalType": "struct IYangNFTVault.UnSubscribeParam",
          "name": "params",
          "type": "tuple"
        }
      ],
      "name": "unsubscribe",
      "outputs": [],
      "stateMutability": "nonpayable",
      "type": "function"
    },
    {
      "inputs": [
        {
          "internalType": "address",
          "name": "token",
          "type": "address"
        }
      ],
      "name": "vaults",
      "outputs": [
        {
          "internalType": "uint256",
          "name": "",
          "type": "uint256"
        }
      ],
      "stateMutability": "view",
      "type": "function"
    },
    {
      "inputs": [
        {
          "internalType": "address",
          "name": "token0",
          "type": "address"
        },
        {
          "internalType": "uint256",
          "name": "amount0",
          "type": "uint256"
        },
        {
          "internalType": "address",
          "name": "token1",
          "type": "address"
        },
        {
          "internalType": "uint256",
          "name": "amount1",
          "type": "uint256"
        }
      ],
      "name": "withdraw",
      "outputs": [],
      "stateMutability": "nonpayable",
      "type": "function"
    },
    {
      "inputs": [
        {
          "internalType": "uint256",
          "name": "yangId",
          "type": "uint256"
        },
        {
          "internalType": "uint256",
          "name": "chiId",
          "type": "uint256"
        }
      ],
      "name": "yangPositions",
      "outputs": [
        {
          "internalType": "uint256",
          "name": "amount0",
          "type": "uint256"
        },
        {
          "internalType": "uint256",
          "name": "amount1",
          "type": "uint256"
        },
        {
          "internalType": "uint256",
          "name": "shares",
          "type": "uint256"
        }
      ],
      "stateMutability": "view",
      "type": "function"
    }
  ],
  "bytecode": "0x60806040526001600d553480156200001657600080fd5b50604080518082018252601781527f59494e204173736574204d616e61676572205661756c740000000000000000006020808301919091528251808401909352600483526359414e4760e01b908301526001600055906200007e6301ffc9a760e01b620000fa565b81516200009390600790602085019062000182565b508051620000a990600890602084019062000182565b50620000bc6380ac58cd60e01b620000fa565b620000ce635b5e139f60e01b620000fa565b620000e063780e9d6360e01b620000fa565b5050600b80546001600160a01b031916331790556200022e565b6001600160e01b031980821614156200015a576040805162461bcd60e51b815260206004820152601c60248201527f4552433136353a20696e76616c696420696e7465726661636520696400000000604482015290519081900360640190fd5b6001600160e01b0319166000908152600160208190526040909120805460ff19169091179055565b828054600181600116156101000203166002900490600052602060002090601f016020900481019282620001ba576000855562000205565b82601f10620001d557805160ff191683800117855562000205565b8280016001018555821562000205579182015b8281111562000205578251825591602001919060010190620001e8565b506200021392915062000217565b5090565b5b8082111562000213576000815560010162000218565b615442806200023e6000396000f3fe608060405234801561001057600080fd5b50600436106101e55760003560e01c80635f0600f71161010f578063a22cb465116100a2578063c87b56dd11610071578063c87b56dd14610421578063e5d9cc9a14610434578063e985e9c514610447578063f15376861461045a576101e5565b8063a22cb465146103d5578063a244a481146103e8578063a622ee7c146103fb578063b88d4fde1461040e576101e5565b806370a08231116100de57806370a082311461038e5780638ae881ab146103a15780638da5cb5b146103c557806395d89b41146103cd576101e5565b80635f0600f71461034d5780636352211e146103605780636a627842146103735780636c0360eb14610386576101e5565b806323b872dd1161018757806342e6e0fe1161015657806342e6e0fe146103015780634b2084e3146103145780634f6ccce7146103275780635c0d107e1461033a576101e5565b806323b872dd146102b55780632f745c59146102c85780633ab2e4ba146102db57806342842e0e146102ee576101e5565b8063081812fc116101c3578063081812fc1461024a578063095ea7b31461026a57806316529c461461027f57806318160ddd146102a0576101e5565b806301ffc9a7146101ea5780630589ea3d1461021357806306fdde0314610235575b600080fd5b6101fd6101f8366004614ccc565b61046d565b60405161020a9190614ede565b60405180910390f35b610226610221366004614e00565b6104a8565b60405161020a939291906150ca565b61023d61051d565b60405161020a9190614ee9565b61025d610258366004614cb4565b6105b3565b60405161020a9190614eca565b61027d610278366004614c42565b610615565b005b61029261028d366004614e00565b6106eb565b60405161020a929190614ebc565b6102a8610834565b60405161020a91906150c1565b61027d6102c3366004614b1b565b610845565b6102a86102d6366004614c42565b61089c565b61027d6102e9366004614d7f565b6108c7565b61027d6102fc366004614b1b565b610db9565b61022661030f366004614e44565b610dd4565b61027d610322366004614c6d565b610ea9565b6102a8610335366004614cb4565b611003565b610226610348366004614d0c565b611019565b61029261035b366004614cb4565b611321565b61025d61036e366004614cb4565b611454565b6102a8610381366004614a26565b61147c565b61023d611510565b6102a861039c366004614a26565b611571565b6103b46103af366004614cb4565b6115d9565b60405161020a959493929190615086565b61025d61164c565b61023d61165b565b61027d6103e3366004614c11565b6116bc565b61027d6103f6366004614a26565b6117df565b6102a8610409366004614a26565b611843565b61027d61041c366004614b5b565b611895565b61023d61042f366004614cb4565b6118f3565b610292610442366004614cb4565b611b74565b6101fd610455366004614a5e565b611d18565b6102a8610468366004614a26565b611d46565b7fffffffff00000000000000000000000000000000000000000000000000000000811660009081526001602052604090205460ff165b919050565b600080600080600f600087876040516020016104c5929190614ebc565b60408051601f1981840301815291815281516020928301208352828201939093529082016000208251606081018452815480825260018301549382018490526002909201549301839052989097509095509350505050565b60078054604080516020601f60026000196101006001881615020190951694909404938401819004810282018101909252828152606093909290918301828280156105a95780601f1061057e576101008083540402835291602001916105a9565b820191906000526020600020905b81548152906001019060200180831161058c57829003601f168201915b5050505050905090565b60006105be82611d61565b6105f95760405162461bcd60e51b815260040180806020018281038252602c815260200180615300602c913960400191505060405180910390fd5b506000908152600560205260409020546001600160a01b031690565b600061062082611454565b9050806001600160a01b0316836001600160a01b031614156106735760405162461bcd60e51b81526004018080602001828103825260218152602001806153846021913960400191505060405180910390fd5b806001600160a01b0316610685611d6e565b6001600160a01b031614806106a157506106a181610455611d6e565b6106dc5760405162461bcd60e51b81526004018080602001828103825260388152602001806152326038913960400191505060405180910390fd5b6106e68383611d72565b505050565b600c5460009081906001600160a01b03166107215760405162461bcd60e51b815260040161071890614faa565b60405180910390fd5b60008484604051602001610736929190614ebc565b60408051601f1981840301815282825280516020918201206000818152600f83528390206060850184528054855260018101549285019290925260029091015491830182905292501561082b57600c54604051635cef66b360e11b815260009182916001600160a01b039091169063b9decd66906107b8908a906004016150c1565b6101006040518083038186803b1580156107d157600080fd5b505afa1580156107e5573d6000803e3d6000fd5b505050506040513d601f19601f820116820180604052508101906108099190614a96565b5050505093509350505061082382828a8660400151611df8565b909650945050505b50509250929050565b60006108406003611e19565b905090565b610856610850611d6e565b82611e24565b6108915760405162461bcd60e51b81526004018080602001828103825260318152602001806153a56031913960400191505060405180910390fd5b6106e6838383611ec8565b6001600160a01b03821660009081526002602052604081206108be9083612014565b90505b92915050565b6002600054141561091f576040805162461bcd60e51b815260206004820152601f60248201527f5265656e7472616e637947756172643a207265656e7472616e742063616c6c00604482015290519081900360640190fd5b600260005580516109303382611e24565b61094c5760405162461bcd60e51b815260040161071890615018565b600c546001600160a01b03166109745760405162461bcd60e51b815260040161071890614faa565b600c546020830151604051635cef66b360e11b815260009283926001600160a01b039091169163b9decd66916109ac916004016150c1565b6101006040518083038186803b1580156109c557600080fd5b505afa1580156109d9573d6000803e3d6000fd5b505050506040513d601f19601f820116820180604052508101906109fd9190614a96565b50505050935093505050600084600001518560200151604051602001610a24929190614ebc565b6040516020818303038152906040528051906020012090508460400151600f6000838152602001908152602001600020600201541015610a765760405162461bcd60e51b81526004016107189061504f565b600c548551602087015160408089015160608a015160808b015192517f46698e7500000000000000000000000000000000000000000000000000000000815260009687966001600160a01b03909116956346698e7595610adc95929491936004016150e0565b6040805180830381600087803b158015610af557600080fd5b505af1158015610b09573d6000803e3d6000fd5b505050506040513d601f19601f82011682018060405250810190610b2d9190614e21565b9092509050848215610c055760008860000151826001600160a01b0316630dfe16816040518163ffffffff1660e01b815260040160206040518083038186803b158015610b7957600080fd5b505afa158015610b8d573d6000803e3d6000fd5b505050506040513d601f19601f82011682018060405250810190610bb19190614a42565b604051602001610bc2929190614e9c565b60408051601f19818403018152918152815160209283012060008181526011909352912054909150610bf49085612020565b600091825260116020526040909120555b8115610cd75760008860000151826001600160a01b031663d21220a76040518163ffffffff1660e01b815260040160206040518083038186803b158015610c4b57600080fd5b505afa158015610c5f573d6000803e3d6000fd5b505050506040513d601f19601f82011682018060405250810190610c839190614a42565b604051602001610c94929190614e9c565b60408051601f19818403018152918152815160209283012060008181526011909352912054909150610cc69084612020565b600091825260116020526040909120555b87516020890151600091610cee91600f919061207a565b9050610d0b896040015182600201546120b590919063ffffffff16565b600282015580548410610d1f576000610d2b565b8054610d2b90856120b5565b815560018101548310610d3f576000610d4e565b6001810154610d4e90846120b5565b600182015588518690610d679060109085908490612112565b60208a01518a516040517fb65ca58d729d89d58e1ed48a179b40d4a6b56e3e101a10085a0f43915cf1448890610da09089908990614ebc565b60405180910390a3505060016000555050505050505050565b6106e683838360405180602001604052806000815250611895565b600c54600090819081906001600160a01b0316610e035760405162461bcd60e51b815260040161071890614faa565b600c54604051635cef66b360e11b81526000916001600160a01b03169063b9decd6690610e34908a906004016150c1565b6101006040518083038186803b158015610e4d57600080fd5b505afa158015610e61573d6000803e3d6000fd5b505050506040513d601f19601f82011682018060405250810190610e859190614a96565b505050509350505050610e99818787612301565b9199909850909650945050505050565b60026000541415610f01576040805162461bcd60e51b815260206004820152601f60248201527f5265656e7472616e637947756172643a207265656e7472616e742063616c6c00604482015290519081900360640190fd5b60026000908155610f1133611d46565b90508315610f855760008186604051602001610f2e929190614e9c565b60408051601f19818403018152918152815160209283012060008181526011909352912054909150610f6090866120b5565b600082815260116020526040902055610f836001600160a01b038716338761241b565b505b8115610ff75760008184604051602001610fa0929190614e9c565b60408051601f19818403018152918152815160209283012060008181526011909352912054909150610fd290846120b5565b600082815260116020526040902055610ff56001600160a01b038516338561241b565b505b50506001600055505050565b60008061101160038461249b565b509392505050565b6000806000836000015161102d3382611e24565b6110495760405162461bcd60e51b815260040161071890615018565b600260005414156110a1576040805162461bcd60e51b815260206004820152601f60248201527f5265656e7472616e637947756172643a207265656e7472616e742063616c6c00604482015290519081900360640190fd5b6002600055600c546001600160a01b03166110ce5760405162461bcd60e51b815260040161071890614faa565b600c546020860151604051635cef66b360e11b815260009283926001600160a01b039091169163b9decd6691611106916004016150c1565b6101006040518083038186803b15801561111f57600080fd5b505afa158015611133573d6000803e3d6000fd5b505050506040513d601f19601f820116820180604052508101906111579190614a96565b5050505093509350505060008290506000816001600160a01b0316630dfe16816040518163ffffffff1660e01b815260040160206040518083038186803b1580156111a157600080fd5b505afa1580156111b5573d6000803e3d6000fd5b505050506040513d601f19601f820116820180604052508101906111d99190614a42565b90506000826001600160a01b031663d21220a76040518163ffffffff1660e01b815260040160206040518083038186803b15801561121657600080fd5b505afa15801561122a573d6000803e3d6000fd5b505050506040513d601f19601f8201168201806040525081019061124e9190614a42565b9050611264828b60400151838d606001516124b7565b61126f82828c612521565b8c5160208e0151939c50919a50985060009161128d91600f9161207a565b805490915061129c908b612020565b815560018101546112ad908a612020565b600182015560028101546112c19089612020565b60028201558a516112d89060109086908890612112565b60208b01518b516040518a9291907f17de92c1076ec5855c3edd4a6084a82c184adfda177deb99d6532697cdac91cb90600090a450506001600055509597949650929450505050565b600c5460009081906001600160a01b031661134e5760405162461bcd60e51b815260040161071890614faa565b600c54604051635cef66b360e11b81526000916001600160a01b03169063b9decd669061137f9087906004016150c1565b6101006040518083038186803b15801561139857600080fd5b505afa1580156113ac573d6000803e3d6000fd5b505050506040513d601f19601f820116820180604052508101906113d09190614a96565b505050509350505050806001600160a01b031663c4a7761e6040518163ffffffff1660e01b8152600401604080518083038186803b15801561141157600080fd5b505afa158015611425573d6000803e3d6000fd5b505050506040513d601f19601f820116820180604052508101906114499190614e21565b909590945092505050565b60006108c1826040518060600160405280602981526020016152946029913960039190612750565b6001600160a01b0381166000908152600e6020526040812054156114b25760405162461bcd60e51b815260040161071890614f3c565b50600d8054600181019091556114c88282612767565b6001600160a01b0382166000818152600e6020526040808220849055518392917f74629109564de5ce9d04dc84bb5ecd8fbb0c98843a3fbd43f057825a9255449c91a3919050565b600a8054604080516020601f60026000196101006001881615020190951694909404938401819004810282018101909252828152606093909290918301828280156105a95780601f1061057e576101008083540402835291602001916105a9565b60006001600160a01b0382166115b85760405162461bcd60e51b815260040180806020018281038252602a81526020018061526a602a913960400191505060405180910390fd5b6001600160a01b03821660009081526002602052604090206108c190611e19565b600090815260106020908152604091829020825160a08101845281546fffffffffffffffffffffffffffffffff9081168083526001840154948301859052600284015495830186905260039093015480821660608401819052600160801b90910490911660809092018290529194929392565b600b546001600160a01b031681565b60088054604080516020601f60026000196101006001881615020190951694909404938401819004810282018101909252828152606093909290918301828280156105a95780601f1061057e576101008083540402835291602001916105a9565b6116c4611d6e565b6001600160a01b0316826001600160a01b0316141561172a576040805162461bcd60e51b815260206004820152601960248201527f4552433732313a20617070726f766520746f2063616c6c657200000000000000604482015290519081900360640190fd5b8060066000611737611d6e565b6001600160a01b0390811682526020808301939093526040918201600090812091871680825291909352912080547fffffffffffffffffffffffffffffffffffffffffffffffffffffffffffffff001692151592909217909155611799611d6e565b6001600160a01b03167f17307eab39ab6107e8899845ad3d59bd9653f200f220920489ca2b5937696c318360405180821515815260200191505060405180910390a35050565b600b546001600160a01b031633146118095760405162461bcd60e51b815260040161071890614fe1565b600c80547fffffffffffffffffffffffff0000000000000000000000000000000000000000166001600160a01b0392909216919091179055565b60008061184f33611d46565b9050601160008285604051602001611868929190614e9c565b60405160208183030381529060405280519060200120815260200190815260200160002054915050919050565b6118a66118a0611d6e565b83611e24565b6118e15760405162461bcd60e51b81526004018080602001828103825260318152602001806153a56031913960400191505060405180910390fd5b6118ed84848484612895565b50505050565b60606118fe82611d61565b6119395760405162461bcd60e51b815260040180806020018281038252602f815260200180615355602f913960400191505060405180910390fd5b60008281526009602090815260408083208054825160026001831615610100026000190190921691909104601f8101859004850282018501909352828152929091908301828280156119cc5780601f106119a1576101008083540402835291602001916119cc565b820191906000526020600020905b8154815290600101906020018083116119af57829003601f168201915b5050505050905060006119dd611510565b90508051600014156119f1575090506104a3565b815115611ab25780826040516020018083805190602001908083835b60208310611a2c5780518252601f199092019160209182019101611a0d565b51815160209384036101000a600019018019909216911617905285519190930192850191508083835b60208310611a745780518252601f199092019160209182019101611a55565b6001836020036101000a03801982511681845116808217855250505050505090500192505050604051602081830303815290604052925050506104a3565b80611abc856128e7565b6040516020018083805190602001908083835b60208310611aee5780518252601f199092019160209182019101611acf565b51815160209384036101000a600019018019909216911617905285519190930192850191508083835b60208310611b365780518252601f199092019160209182019101611b17565b6001836020036101000a0380198251168184511680821785525050505050509050019250505060405160208183030381529060405292505050919050565b600c5460009081906001600160a01b0316611ba15760405162461bcd60e51b815260040161071890614faa565b600c54604051635cef66b360e11b81526000916001600160a01b03169063b9decd6690611bd29087906004016150c1565b6101006040518083038186803b158015611beb57600080fd5b505afa158015611bff573d6000803e3d6000fd5b505050506040513d601f19601f82011682018060405250810190611c239190614a96565b505050509350505050806001600160a01b031663eae989a26040518163ffffffff1660e01b815260040160206040518083038186803b158015611c6557600080fd5b505afa158015611c79573d6000803e3d6000fd5b505050506040513d601f19601f82011682018060405250810190611c9d9190614de8565b9250806001600160a01b031663a00fa77f6040518163ffffffff1660e01b815260040160206040518083038186803b158015611cd857600080fd5b505afa158015611cec573d6000803e3d6000fd5b505050506040513d601f19601f82011682018060405250810190611d109190614de8565b915050915091565b6001600160a01b03918216600090815260066020908152604080832093909416825291909152205460ff1690565b6001600160a01b03166000908152600e602052604090205490565b60006108c16003836129f6565b3390565b600081815260056020526040902080547fffffffffffffffffffffffff0000000000000000000000000000000000000000166001600160a01b0384169081179091558190611dbf82611454565b6001600160a01b03167f8c5be1e5ebec7d5bd14f71427d1e84f3dd0314c0f7b2291e5b200ac8c7c3b92560405160405180910390a45050565b6000808486611e0a8183338989612a02565b90999098509650505050505050565b60006108c182612f85565b6000611e2f82611d61565b611e6a5760405162461bcd60e51b815260040180806020018281038252602c815260200180615206602c913960400191505060405180910390fd5b6000611e7583611454565b9050806001600160a01b0316846001600160a01b03161480611eb05750836001600160a01b0316611ea5846105b3565b6001600160a01b0316145b80611ec05750611ec08185611d18565b949350505050565b826001600160a01b0316611edb82611454565b6001600160a01b031614611f205760405162461bcd60e51b815260040180806020018281038252602981526020018061532c6029913960400191505060405180910390fd5b6001600160a01b038216611f655760405162461bcd60e51b81526004018080602001828103825260248152602001806151bc6024913960400191505060405180910390fd5b611f708383836106e6565b611f7b600082611d72565b6001600160a01b0383166000908152600260205260409020611f9d9082612f89565b506001600160a01b0382166000908152600260205260409020611fc09082612f95565b50611fcd60038284612fa1565b5080826001600160a01b0316846001600160a01b03167fddf252ad1be2c89b69c2b068fc378daa952ba7f163c4a11628f55a4df523b3ef60405160405180910390a4505050565b60006108be8383612fb7565b6000828201838110156108be576040805162461bcd60e51b815260206004820152601b60248201527f536166654d6174683a206164646974696f6e206f766572666c6f770000000000604482015290519081900360640190fd5b604080516020808201949094528082019290925280518083038201815260609092018152815191830191909120600090815292909152902090565b60008282111561210c576040805162461bcd60e51b815260206004820152601e60248201527f536166654d6174683a207375627472616374696f6e206f766572666c6f770000604482015290519081900360640190fd5b50900390565b60005b826001600160a01b031663b135a1456040518163ffffffff1660e01b815260040160206040518083038186803b15801561214e57600080fd5b505afa158015612162573d6000803e3d6000fd5b505050506040513d602081101561217857600080fd5b50518110156122fa57600080846001600160a01b031663cc364f48846040518263ffffffff1660e01b815260040180828152602001915050604080518083038186803b1580156121c757600080fd5b505afa1580156121db573d6000803e3d6000fd5b505050506040513d60408110156121f157600080fd5b5080516020909101519092509050600061220d8787858561301b565b6fffffffffffffffffffffffffffffffff1611156122f057600061223488868886866130a0565b905060008060008060008b6001600160a01b031663514ea4bf6122588d8b8b6130ca565b6040518263ffffffff1660e01b81526004018082815260200191505060a06040518083038186803b15801561228c57600080fd5b505afa1580156122a0573d6000803e3d6000fd5b505050506040513d60a08110156122b657600080fd5b508051602082015160408301516060840151608090940151929850909650945090925090506122e9868686868686613120565b5050505050505b5050600101612115565b5050505050565b600080600080869050600080826001600160a01b031663c4a7761e6040518163ffffffff1660e01b8152600401604080518083038186803b15801561234557600080fd5b505afa158015612359573d6000803e3d6000fd5b505050506040513d604081101561236f57600080fd5b81019080805190602001909291908051906020019092919050505091509150600080600061240485858d8d8a6001600160a01b03166318160ddd6040518163ffffffff1660e01b815260040160206040518083038186803b1580156123d357600080fd5b505afa1580156123e7573d6000803e3d6000fd5b505050506040513d60208110156123fd57600080fd5b5051613190565b919a50985096505050505050505b93509350939050565b604080516001600160a01b038416602482015260448082018490528251808303909101815260649091019091526020810180517bffffffffffffffffffffffffffffffffffffffffffffffffffffffff167fa9059cbb000000000000000000000000000000000000000000000000000000001790526106e69084906132c3565b60008080806124aa8686613374565b9097909650945050505050565b600083116124d75760405162461bcd60e51b815260040161071890614f73565b600081116124f75760405162461bcd60e51b815260040161071890614f73565b61250c6001600160a01b0385163330866133ef565b6118ed6001600160a01b0383163330846133ef565b600c54604082015160009182918291612547916001600160a01b03898116921690613477565b600c546060850151612567916001600160a01b0388811692911690613477565b600c5484516020860151604080880151606089015160808a015160a08b015193517fec28fcac0000000000000000000000000000000000000000000000000000000081526001600160a01b039097169663ec28fcac966125d09690959094939291600401615103565b606060405180830381600087803b1580156125ea57600080fd5b505af11580156125fe573d6000803e3d6000fd5b505050506040513d601f19601f820116820180604052508101906126229190614e6f565b60408701519195509350909150839003156126a257835160405160009161264d918990602001614e9c565b60405160208183030381529060405280519060200120905061269184866040015103601160008481526020019081526020016000205461202090919063ffffffff16565b600091825260116020526040909120555b60608401518290031561271a5783516040516000916126c5918890602001614e9c565b60405160208183030381529060405280519060200120905061270983866060015103601160008481526020019081526020016000205461202090919063ffffffff16565b600091825260116020526040909120555b600c54612735906001600160a01b0388811691166000613477565b600c54612412906001600160a01b0387811691166000613477565b600061275d8484846135d1565b90505b9392505050565b6001600160a01b0382166127c2576040805162461bcd60e51b815260206004820181905260248201527f4552433732313a206d696e7420746f20746865207a65726f2061646472657373604482015290519081900360640190fd5b6127cb81611d61565b1561281d576040805162461bcd60e51b815260206004820152601c60248201527f4552433732313a20746f6b656e20616c7265616479206d696e74656400000000604482015290519081900360640190fd5b612829600083836106e6565b6001600160a01b038216600090815260026020526040902061284b9082612f95565b5061285860038284612fa1565b5060405181906001600160a01b038416906000907fddf252ad1be2c89b69c2b068fc378daa952ba7f163c4a11628f55a4df523b3ef908290a45050565b6128a0848484611ec8565b6128ac8484848461369b565b6118ed5760405162461bcd60e51b815260040180806020018281038252603281526020018061518a6032913960400191505060405180910390fd5b606081612928575060408051808201909152600181527f300000000000000000000000000000000000000000000000000000000000000060208201526104a3565b8160005b811561294057600101600a8204915061292c565b60008167ffffffffffffffff8111801561295957600080fd5b506040519080825280601f01601f191660200182016040528015612984576020820181803683370190505b50859350905060001982015b83156129ed57600a840660300160f81b828280600190039350815181106129b357fe5b60200101907effffffffffffffffffffffffffffffffffffffffffffffffffffffffffffff1916908160001a905350600a84049350612990565b50949350505050565b60006108be8383613877565b60008060005b866001600160a01b031663b135a1456040518163ffffffff1660e01b815260040160206040518083038186803b158015612a4157600080fd5b505afa158015612a55573d6000803e3d6000fd5b505050506040513d6020811015612a6b57600080fd5b5051811015612bc257600080886001600160a01b031663cc364f48846040518263ffffffff1660e01b815260040180828152602001915050604080518083038186803b158015612aba57600080fd5b505afa158015612ace573d6000803e3d6000fd5b505050506040513d6040811015612ae457600080fd5b50805160209091015190925090506000612b008b8b858561301b565b90506fffffffffffffffffffffffffffffffff811615612bb75760006040518061010001604052808d6001600160a01b031681526020018c6001600160a01b031681526020018b6001600160a01b031681526020018a8152602001836fffffffffffffffffffffffffffffffff1681526020018981526020018560020b81526020018460020b8152509050600080612b978361388f565b91509150612ba58983612020565b9850612bb18882612020565b97505050505b505050600101612a08565b506000876001600160a01b0316630dfe16816040518163ffffffff1660e01b815260040160206040518083038186803b158015612bfe57600080fd5b505afa158015612c12573d6000803e3d6000fd5b505050506040513d6020811015612c2857600080fd5b5051604080517fd21220a700000000000000000000000000000000000000000000000000000000815290519192506000916001600160a01b038b169163d21220a7916004808301926020929190829003018186803b158015612c8957600080fd5b505afa158015612c9d573d6000803e3d6000fd5b505050506040513d6020811015612cb357600080fd5b5051604080517f70a082310000000000000000000000000000000000000000000000000000000081526001600160a01b038b811660048301529151929350600092612e4792612ddc92908716916370a0823191602480820192602092909190829003018186803b158015612d2657600080fd5b505afa158015612d3a573d6000803e3d6000fd5b505050506040513d6020811015612d5057600080fd5b5051604080517feae989a200000000000000000000000000000000000000000000000000000000815290516001600160a01b038e169163eae989a2916004808301926020929190829003018186803b158015612dab57600080fd5b505afa158015612dbf573d6000803e3d6000fd5b505050506040513d6020811015612dd557600080fd5b50516120b5565b878b6001600160a01b03166318160ddd6040518163ffffffff1660e01b815260040160206040518083038186803b158015612e1657600080fd5b505afa158015612e2a573d6000803e3d6000fd5b505050506040513d6020811015612e4057600080fd5b50516139fa565b90506000612f5d612f23846001600160a01b03166370a082318d6040518263ffffffff1660e01b815260040180826001600160a01b0316815260200191505060206040518083038186803b158015612e9e57600080fd5b505afa158015612eb2573d6000803e3d6000fd5b505050506040513d6020811015612ec857600080fd5b5051604080517fa00fa77f00000000000000000000000000000000000000000000000000000000815290516001600160a01b038f169163a00fa77f916004808301926020929190829003018186803b158015612dab57600080fd5b888c6001600160a01b03166318160ddd6040518163ffffffff1660e01b815260040160206040518083038186803b158015612e1657600080fd5b9050612f698683612020565b9550612f758582612020565b9450505050509550959350505050565b5490565b60006108be8383613aa9565b60006108be8383613b6f565b600061275d84846001600160a01b038516613bb9565b81546000908210612ff95760405162461bcd60e51b81526004018080602001828103825260228152602001806151686022913960400191505060405180910390fd5b82600001828154811061300857fe5b9060005260206000200154905092915050565b6000846001600160a01b031663514ea4bf6130378686866130ca565b6040518263ffffffff1660e01b81526004018082815260200191505060a06040518083038186803b15801561306b57600080fd5b505afa15801561307f573d6000803e3d6000fd5b505050506040513d60a081101561309557600080fd5b505195945050505050565b60008560006130b187878787613c50565b8152602001908152602001600020905095945050505050565b6040805160609490941b6bffffffffffffffffffffffff1916602080860191909152600293840b60e890811b60348701529290930b90911b60378401528051808403601a018152603a9093019052815191012090565b85546fffffffffffffffffffffffffffffffff9586167fffffffffffffffffffffffffffffffff000000000000000000000000000000009182161787556001870194909455600286019290925560039094018054918416600160801b029484169190921617909116919091179055565b600080808315806131a15750600088115b806131ac5750600087115b6131b257fe5b836131cd5750849050836131c68282613ca9565b92506132b8565b876131df5750836131c68185896139fa565b866131f2578591506131c682858a6139fa565b6000613210613201888a613cc0565b61320b888c613cc0565b613d19565b905060008111613267576040805162461bcd60e51b815260206004820152600160248201527f6300000000000000000000000000000000000000000000000000000000000000604482015290519081900360640190fd5b61328561327e6132788360016120b5565b8a613d28565b6001612020565b925061329e61327e6132988360016120b5565b8b613d28565b91506132b46132ae82878c6139fa565b89613d28565b9350505b955095509592505050565b6000613318826040518060400160405280602081526020017f5361666545524332303a206c6f772d6c6576656c2063616c6c206661696c6564815250856001600160a01b0316613d8f9092919063ffffffff16565b8051909150156106e65780806020019051602081101561333757600080fd5b50516106e65760405162461bcd60e51b815260040180806020018281038252602a8152602001806153d6602a913960400191505060405180910390fd5b8154600090819083106133b85760405162461bcd60e51b81526004018080602001828103825260228152602001806152bd6022913960400191505060405180910390fd5b60008460000184815481106133c957fe5b906000526020600020906002020190508060000154816001015492509250509250929050565b604080516001600160a01b0380861660248301528416604482015260648082018490528251808303909101815260849091019091526020810180517bffffffffffffffffffffffffffffffffffffffffffffffffffffffff167f23b872dd000000000000000000000000000000000000000000000000000000001790526118ed9085906132c3565b8015806135165750604080517fdd62ed3e0000000000000000000000000000000000000000000000000000000081523060048201526001600160a01b03848116602483015291519185169163dd62ed3e91604480820192602092909190829003018186803b1580156134e857600080fd5b505afa1580156134fc573d6000803e3d6000fd5b505050506040513d602081101561351257600080fd5b5051155b6135515760405162461bcd60e51b81526004018080602001828103825260368152602001806154006036913960400191505060405180910390fd5b604080516001600160a01b038416602482015260448082018490528251808303909101815260649091019091526020810180517bffffffffffffffffffffffffffffffffffffffffffffffffffffffff167f095ea7b3000000000000000000000000000000000000000000000000000000001790526106e69084906132c3565b6000828152600184016020526040812054828161366c5760405162461bcd60e51b81526004018080602001828103825283818151815260200191508051906020019080838360005b83811015613631578181015183820152602001613619565b50505050905090810190601f16801561365e5780820380516001836020036101000a031916815260200191505b509250505060405180910390fd5b5084600001600182038154811061367f57fe5b9060005260206000209060020201600101549150509392505050565b60006136af846001600160a01b0316613d9e565b6136bb57506001611ec0565b600061380c7f150b7a02000000000000000000000000000000000000000000000000000000006136e9611d6e565b88878760405160240180856001600160a01b03168152602001846001600160a01b0316815260200183815260200180602001828103825283818151815260200191508051906020019080838360005b83811015613750578181015183820152602001613738565b50505050905090810190601f16801561377d5780820380516001836020036101000a031916815260200191505b5095505050505050604051602081830303815290604052907bffffffffffffffffffffffffffffffffffffffffffffffffffffffff19166020820180517bffffffffffffffffffffffffffffffffffffffffffffffffffffffff838183161783525050505060405180606001604052806032815260200161518a603291396001600160a01b0388169190613d8f565b9050600081806020019051602081101561382557600080fd5b50517fffffffff00000000000000000000000000000000000000000000000000000000167f150b7a02000000000000000000000000000000000000000000000000000000001492505050949350505050565b60009081526001919091016020526040902054151590565b60008060006138fb6138f385608001516fffffffffffffffffffffffffffffffff168660a0015187602001516001600160a01b03166318160ddd6040518163ffffffff1660e01b815260040160206040518083038186803b158015612e1657600080fd5b600003613da4565b9050600081600f0b13156139f4576060840151845160c086015160e087015160009283926139299287613db5565b9150915060006139478489602001518a60c001518b60e00151613c50565b9050600061396289602001518a60c001518b60e001516130ca565b905060006040518060c001604052808b600001516001600160a01b031681526020018b604001516001600160a01b031681526020018481526020018381526020018681526020018581525090506000806139c58c60c001518d60e0015185613ed2565b915091508187116139d657866139d8565b815b9a508086116139e757856139e9565b805b995050505050505050505b50915091565b6000808060001985870986860292508281109083900303905080613a305760008411613a2557600080fd5b508290049050612760565b808411613a3c57600080fd5b6000848688096000868103871696879004966002600389028118808a02820302808a02820302808a02820302808a02820302808a02820302808a02909103029181900381900460010186841190950394909402919094039290920491909117919091029150509392505050565b60008181526001830160205260408120548015613b655783546000198083019190810190600090879083908110613adc57fe5b9060005260206000200154905080876000018481548110613af957fe5b600091825260208083209091019290925582815260018981019092526040902090840190558654879080613b2957fe5b600190038181906000526020600020016000905590558660010160008781526020019081526020016000206000905560019450505050506108c1565b60009150506108c1565b6000613b7b8383613877565b613bb1575081546001818101845560008481526020808220909301849055845484825282860190935260409020919091556108c1565b5060006108c1565b600082815260018401602052604081205480613c1e575050604080518082018252838152602080820184815286546001818101895560008981528481209551600290930290950191825591519082015586548684528188019092529290912055612760565b82856000016001830381548110613c3157fe5b9060005260206000209060020201600101819055506000915050612760565b6040805160208082019690965260609490941b6bffffffffffffffffffffffff191684820152600292830b60e890811b60548601529190920b901b60578301528051808303603a018152605a9092019052805191012090565b600081831015613cb957816108be565b5090919050565b600082613ccf575060006108c1565b82820282848281613cdc57fe5b04146108be5760405162461bcd60e51b81526004018080602001828103825260218152602001806152df6021913960400191505060405180910390fd5b6000818310613cb957816108be565b6000808211613d7e576040805162461bcd60e51b815260206004820152601a60248201527f536166654d6174683a206469766973696f6e206279207a65726f000000000000604482015290519081900360640190fd5b818381613d8757fe5b049392505050565b606061275d8484600085613fc3565b3b151590565b80600f81900b81146104a357600080fd5b600080600080876001600160a01b0316633850c7bd6040518163ffffffff1660e01b815260040160e06040518083038186803b158015613df457600080fd5b505afa158015613e08573d6000803e3d6000fd5b505050506040513d60e0811015613e1e57600080fd5b5080516020909101519092509050600080600f87900b15613ebe578860020b8360020b1215613e6957613e62613e538a61411e565b613e5c8a61411e565b8961446c565b9150613ebe565b8760020b8360020b1215613ea057613e8484613e5c8a61411e565b9150613e99613e928a61411e565b85896144b0565b9050613ebe565b613ebb613eac8a61411e565b613eb58a61411e565b896144b0565b90505b60009182039a910398509650505050505050565b600080600080600080600087602001516001600160a01b0316638ae881ab89604001516040518263ffffffff1660e01b81526004018082815260200191505060a06040518083038186803b158015613f2957600080fd5b505afa158015613f3d573d6000803e3d6000fd5b505050506040513d60a0811015613f5357600080fd5b508051602082015160408301516060808501516080909501518d51918e0151949a5092985090965092945092506000918291613f9191908e8e6144df565b91509150613fb08787878d6080015188018e60a0015188018787614787565b9850985050505050505050935093915050565b6060824710156140045760405162461bcd60e51b81526004018080602001828103825260268152602001806151e06026913960400191505060405180910390fd5b61400d85613d9e565b61405e576040805162461bcd60e51b815260206004820152601d60248201527f416464726573733a2063616c6c20746f206e6f6e2d636f6e7472616374000000604482015290519081900360640190fd5b600080866001600160a01b031685876040518082805190602001908083835b6020831061409c5780518252601f19909201916020918201910161407d565b6001836020036101000a03801982511681845116808217855250505050505090500191505060006040518083038185875af1925050503d80600081146140fe576040519150601f19603f3d011682016040523d82523d6000602084013e614103565b606091505b50915091506141138282866147fa565b979650505050505050565b60008060008360020b12614135578260020b61413d565b8260020b6000035b9050620d89e8811115614197576040805162461bcd60e51b815260206004820152600160248201527f5400000000000000000000000000000000000000000000000000000000000000604482015290519081900360640190fd5b6000600182166141ab57600160801b6141bd565b6ffffcb933bd6fad37aa2d162d1a5940015b70ffffffffffffffffffffffffffffffffff16905060028216156141f1576ffff97272373d413259a46990580e213a0260801c5b6004821615614210576ffff2e50f5f656932ef12357cf3c7fdcc0260801c5b600882161561422f576fffe5caca7e10e4e61c3624eaa0941cd00260801c5b601082161561424e576fffcb9843d60f6159c9db58835c9266440260801c5b602082161561426d576fff973b41fa98c081472e6896dfb254c00260801c5b604082161561428c576fff2ea16466c96a3843ec78b326b528610260801c5b60808216156142ab576ffe5dee046a99a2a811c461f1969c30530260801c5b6101008216156142cb576ffcbe86c7900a88aedcffc83b479aa3a40260801c5b6102008216156142eb576ff987a7253ac413176f2b074cf7815e540260801c5b61040082161561430b576ff3392b0822b70005940c7a398e4b70f30260801c5b61080082161561432b576fe7159475a2c29b7443b29c7fa6e889d90260801c5b61100082161561434b576fd097f3bdfd2022b8845ad8f792aa58250260801c5b61200082161561436b576fa9f746462d870fdf8a65dc1f90e061e50260801c5b61400082161561438b576f70d869a156d2a1b890bb3df62baf32f70260801c5b6180008216156143ab576f31be135f97d08fd981231505542fcfa60260801c5b620100008216156143cc576f09aa508b5b7a84e1c677de54f3e99bc90260801c5b620200008216156143ec576e5d6af8dedb81196699c329225ee6040260801c5b6204000082161561440b576d2216e584f5fa1ea926041bedfe980260801c5b62080000821615614428576b048a170391f7dc42444e8fa20260801c5b60008460020b131561444357806000198161443f57fe5b0490505b64010000000081061561445757600161445a565b60005b60ff16602082901c0192505050919050565b60008082600f0b126144925761448d6144888585856001614860565b614912565b61275d565b6144a56144888585856000036000614860565b600003949350505050565b60008082600f0b126144cc5761448d6144888585856001614944565b6144a56144888585856000036000614944565b600080600080876001600160a01b031663514ea4bf886040518263ffffffff1660e01b81526004018082815260200191505060a06040518083038186803b15801561452957600080fd5b505afa15801561453d573d6000803e3d6000fd5b505050506040513d60a081101561455357600080fd5b50602081015160409182015182517f3850c7bd000000000000000000000000000000000000000000000000000000008152925191945092506000916001600160a01b038b1691633850c7bd9160048082019260e092909190829003018186803b1580156145bf57600080fd5b505afa1580156145d3573d6000803e3d6000fd5b505050506040513d60e08110156145e957600080fd5b5060200151604080517ff30dba9300000000000000000000000000000000000000000000000000000000815260028a900b6004820152905191925060009182916001600160a01b038d169163f30dba939160248082019261010092909190829003018186803b15801561465b57600080fd5b505afa15801561466f573d6000803e3d6000fd5b505050506040513d61010081101561468657600080fd5b506040810151606090910151909250905060008060028b810b9086900b126146b25750829050816146bb565b50508185038185035b6000808e6001600160a01b031663f30dba938d6040518263ffffffff1660e01b8152600401808260020b81526020019150506101006040518083038186803b15801561470657600080fd5b505afa15801561471a573d6000803e3d6000fd5b505050506040513d61010081101561473157600080fd5b506040810151606090910151909250905060008060028e810b908a900b121561475e575082905081614767565b50508189038189035b94909903989098039e91909603919091039b509950505050505050505050565b6000806147ad8885038a6fffffffffffffffffffffffffffffffff16600160801b6139fa565b860195506147d48784038a6fffffffffffffffffffffffffffffffff16600160801b6139fa565b6fffffffffffffffffffffffffffffffff9687169a950190951697509295505050505050565b60608315614809575081612760565b8251156148195782518084602001fd5b60405162461bcd60e51b8152602060048201818152845160248401528451859391928392604401919085019080838360008315613631578181015183820152602001613619565b6000836001600160a01b0316856001600160a01b03161115614880579293925b7bffffffffffffffffffffffffffffffff000000000000000000000000606084901b166001600160a01b0386860381169087166148bc57600080fd5b836148ec57866001600160a01b03166148df8383896001600160a01b03166139fa565b816148e657fe5b04614113565b6141136149038383896001600160a01b03166149e1565b886001600160a01b0316614a1b565b60007f8000000000000000000000000000000000000000000000000000000000000000821061494057600080fd5b5090565b6000836001600160a01b0316856001600160a01b03161115614964579293925b816149a35761499e836fffffffffffffffffffffffffffffffff168686036001600160a01b03166c010000000000000000000000006139fa565b6149d8565b6149d8836fffffffffffffffffffffffffffffffff168686036001600160a01b03166c010000000000000000000000006149e1565b95945050505050565b60006149ee8484846139fa565b9050600082806149fa57fe5b8486091115612760576000198110614a1157600080fd5b6001019392505050565b808204910615150190565b600060208284031215614a37578081fd5b81356108be8161514f565b600060208284031215614a53578081fd5b81516108be8161514f565b60008060408385031215614a70578081fd5b8235614a7b8161514f565b91506020830135614a8b8161514f565b809150509250929050565b600080600080600080600080610100898b031215614ab2578384fd5b8851614abd8161514f565b60208a0151909850614ace8161514f565b60408a0151909750614adf8161514f565b60608a0151909650614af08161514f565b60808a015160a08b015160c08c015160e0909c01519a9d999c50979a91999098919650945092505050565b600080600060608486031215614b2f578283fd5b8335614b3a8161514f565b92506020840135614b4a8161514f565b929592945050506040919091013590565b60008060008060808587031215614b70578384fd5b8435614b7b8161514f565b9350602085810135614b8c8161514f565b935060408601359250606086013567ffffffffffffffff80821115614baf578384fd5b818801915088601f830112614bc2578384fd5b813581811115614bce57fe5b614be084601f19601f8401160161512b565b91508082528984828501011115614bf5578485fd5b8084840185840137810190920192909252939692955090935050565b60008060408385031215614c23578182fd5b8235614c2e8161514f565b915060208301358015158114614a8b578182fd5b60008060408385031215614c54578182fd5b8235614c5f8161514f565b946020939093013593505050565b60008060008060808587031215614c82578384fd5b8435614c8d8161514f565b9350602085013592506040850135614ca48161514f565b9396929550929360600135925050565b600060208284031215614cc5578081fd5b5035919050565b600060208284031215614cdd578081fd5b81357fffffffff00000000000000000000000000000000000000000000000000000000811681146108be578182fd5b600060c08284031215614d1d578081fd5b60405160c0810181811067ffffffffffffffff82111715614d3a57fe5b8060405250823581526020830135602082015260408301356040820152606083013560608201526080830135608082015260a083013560a08201528091505092915050565b600060a08284031215614d90578081fd5b60405160a0810181811067ffffffffffffffff82111715614dad57fe5b806040525082358152602083013560208201526040830135604082015260608301356060820152608083013560808201528091505092915050565b600060208284031215614df9578081fd5b5051919050565b60008060408385031215614e12578182fd5b50508035926020909101359150565b60008060408385031215614e33578182fd5b505080516020909101519092909150565b600080600060608486031215614e58578081fd5b505081359360208301359350604090920135919050565b600080600060608486031215614e83578081fd5b8351925060208401519150604084015190509250925092565b91825260601b6bffffffffffffffffffffffff1916602082015260340190565b918252602082015260400190565b6001600160a01b0391909116815260200190565b901515815260200190565b6000602080835283518082850152825b81811015614f1557858101830151858201604001528201614ef9565b81811115614f265783604083870101525b50601f01601f1916929092016040019392505050565b60208082526002908201527f4f4f000000000000000000000000000000000000000000000000000000000000604082015260600190565b60208082526002908201527f4e5a000000000000000000000000000000000000000000000000000000000000604082015260600190565b60208082526003908201527f4348490000000000000000000000000000000000000000000000000000000000604082015260600190565b6020808252600a908201527f6f6e6c79206f776e657200000000000000000000000000000000000000000000604082015260600190565b6020808252600c908201527f6e6f7420617070726f7665640000000000000000000000000000000000000000604082015260600190565b60208082526013908201527f696e73756666696369656e742073686172657300000000000000000000000000604082015260600190565b6fffffffffffffffffffffffffffffffff95861681526020810194909452604084019290925283166060830152909116608082015260a00190565b90815260200190565b9283526020830191909152604082015260600190565b948552602085019390935260408401919091526060830152608082015260a00190565b958652602086019490945260408501929092526060840152608083015260a082015260c00190565b60405181810167ffffffffffffffff8111828210171561514757fe5b604052919050565b6001600160a01b038116811461516457600080fd5b5056fe456e756d657261626c655365743a20696e646578206f7574206f6620626f756e64734552433732313a207472616e7366657220746f206e6f6e20455243373231526563656976657220696d706c656d656e7465724552433732313a207472616e7366657220746f20746865207a65726f2061646472657373416464726573733a20696e73756666696369656e742062616c616e636520666f722063616c6c4552433732313a206f70657261746f7220717565727920666f72206e6f6e6578697374656e7420746f6b656e4552433732313a20617070726f76652063616c6c6572206973206e6f74206f776e6572206e6f7220617070726f76656420666f7220616c6c4552433732313a2062616c616e636520717565727920666f7220746865207a65726f20616464726573734552433732313a206f776e657220717565727920666f72206e6f6e6578697374656e7420746f6b656e456e756d657261626c654d61703a20696e646578206f7574206f6620626f756e6473536166654d6174683a206d756c7469706c69636174696f6e206f766572666c6f774552433732313a20617070726f76656420717565727920666f72206e6f6e6578697374656e7420746f6b656e4552433732313a207472616e73666572206f6620746f6b656e2074686174206973206e6f74206f776e4552433732314d657461646174613a2055524920717565727920666f72206e6f6e6578697374656e7420746f6b656e4552433732313a20617070726f76616c20746f2063757272656e74206f776e65724552433732313a207472616e736665722063616c6c6572206973206e6f74206f776e6572206e6f7220617070726f7665645361666545524332303a204552433230206f7065726174696f6e20646964206e6f7420737563636565645361666545524332303a20617070726f76652066726f6d206e6f6e2d7a65726f20746f206e6f6e2d7a65726f20616c6c6f77616e6365a164736f6c6343000706000a",
  "linkReferences": {},
  "deployedLinkReferences": {}
}