{
  "_format": "hh-sol-artifact-1",
  "contractName": "YangNFTVault",
  "sourceName": "contracts/YangNFTVault.sol",
  "abi": [
    {
      "inputs": [],
      "stateMutability": "nonpayable",
      "type": "constructor"
    },
    {
      "anonymous": false,
      "inputs": [
        {
          "indexed": true,
          "internalType": "address",
          "name": "owner",
          "type": "address"
        },
        {
          "indexed": true,
          "internalType": "address",
          "name": "approved",
          "type": "address"
        },
        {
          "indexed": true,
          "internalType": "uint256",
          "name": "tokenId",
          "type": "uint256"
        }
      ],
      "name": "Approval",
      "type": "event"
    },
    {
      "anonymous": false,
      "inputs": [
        {
          "indexed": true,
          "internalType": "address",
          "name": "owner",
          "type": "address"
        },
        {
          "indexed": true,
          "internalType": "address",
          "name": "operator",
          "type": "address"
        },
        {
          "indexed": false,
          "internalType": "bool",
          "name": "approved",
          "type": "bool"
        }
      ],
      "name": "ApprovalForAll",
      "type": "event"
    },
    {
      "anonymous": false,
      "inputs": [
        {
          "indexed": true,
          "internalType": "address",
          "name": "recipient",
          "type": "address"
        },
        {
          "indexed": true,
          "internalType": "uint256",
          "name": "tokenId",
          "type": "uint256"
        }
      ],
      "name": "MintYangNFT",
      "type": "event"
    },
    {
      "anonymous": false,
      "inputs": [
        {
          "indexed": true,
          "internalType": "uint256",
          "name": "yangId",
          "type": "uint256"
        },
        {
          "indexed": true,
          "internalType": "uint256",
          "name": "chiId",
          "type": "uint256"
        },
        {
          "indexed": true,
          "internalType": "uint256",
          "name": "share",
          "type": "uint256"
        }
      ],
      "name": "Subscribe",
      "type": "event"
    },
    {
      "anonymous": false,
      "inputs": [
        {
          "indexed": true,
          "internalType": "address",
          "name": "from",
          "type": "address"
        },
        {
          "indexed": true,
          "internalType": "address",
          "name": "to",
          "type": "address"
        },
        {
          "indexed": true,
          "internalType": "uint256",
          "name": "tokenId",
          "type": "uint256"
        }
      ],
      "name": "Transfer",
      "type": "event"
    },
    {
      "anonymous": false,
      "inputs": [
        {
          "indexed": true,
          "internalType": "uint256",
          "name": "yangId",
          "type": "uint256"
        },
        {
          "indexed": true,
          "internalType": "uint256",
          "name": "chiId",
          "type": "uint256"
        },
        {
          "indexed": false,
          "internalType": "uint256",
          "name": "amount0",
          "type": "uint256"
        },
        {
          "indexed": false,
          "internalType": "uint256",
          "name": "amount1",
          "type": "uint256"
        }
      ],
      "name": "UnSubscribe",
      "type": "event"
    },
    {
      "inputs": [
        {
          "internalType": "address",
          "name": "to",
          "type": "address"
        },
        {
          "internalType": "uint256",
          "name": "tokenId",
          "type": "uint256"
        }
      ],
      "name": "approve",
      "outputs": [],
      "stateMutability": "nonpayable",
      "type": "function"
    },
    {
      "inputs": [
        {
          "internalType": "address",
          "name": "owner",
          "type": "address"
        }
      ],
      "name": "balanceOf",
      "outputs": [
        {
          "internalType": "uint256",
          "name": "",
          "type": "uint256"
        }
      ],
      "stateMutability": "view",
      "type": "function"
    },
    {
      "inputs": [],
      "name": "baseURI",
      "outputs": [
        {
          "internalType": "string",
          "name": "",
          "type": "string"
        }
      ],
      "stateMutability": "view",
      "type": "function"
    },
    {
      "inputs": [
        {
          "internalType": "address",
          "name": "token0",
          "type": "address"
        },
        {
          "internalType": "uint256",
          "name": "amount0",
          "type": "uint256"
        },
        {
          "internalType": "address",
          "name": "token1",
          "type": "address"
        },
        {
          "internalType": "uint256",
          "name": "amount1",
          "type": "uint256"
        }
      ],
      "name": "deposit",
      "outputs": [],
      "stateMutability": "nonpayable",
      "type": "function"
    },
    {
      "inputs": [
        {
          "internalType": "uint256",
          "name": "yangId",
          "type": "uint256"
        },
        {
          "internalType": "uint256",
          "name": "chiId",
          "type": "uint256"
        }
      ],
      "name": "getAmounts",
      "outputs": [
        {
          "internalType": "uint256",
          "name": "amount0",
          "type": "uint256"
        },
        {
          "internalType": "uint256",
          "name": "amount1",
          "type": "uint256"
        }
      ],
      "stateMutability": "view",
      "type": "function"
    },
    {
      "inputs": [
        {
          "internalType": "uint256",
          "name": "tokenId",
          "type": "uint256"
        }
      ],
      "name": "getApproved",
      "outputs": [
        {
          "internalType": "address",
          "name": "",
          "type": "address"
        }
      ],
      "stateMutability": "view",
      "type": "function"
    },
    {
      "inputs": [
        {
          "internalType": "uint256",
          "name": "chiId",
          "type": "uint256"
        }
      ],
      "name": "getCHIAccruedFees",
      "outputs": [
        {
          "internalType": "uint256",
          "name": "fee0",
          "type": "uint256"
        },
        {
          "internalType": "uint256",
          "name": "fee1",
          "type": "uint256"
        }
      ],
      "stateMutability": "view",
      "type": "function"
    },
    {
      "inputs": [
        {
          "internalType": "uint256",
          "name": "chiId",
          "type": "uint256"
        }
      ],
      "name": "getCHITotalAmounts",
      "outputs": [
        {
          "internalType": "uint256",
          "name": "amount0",
          "type": "uint256"
        },
        {
          "internalType": "uint256",
          "name": "amount1",
          "type": "uint256"
        }
      ],
      "stateMutability": "view",
      "type": "function"
    },
    {
      "inputs": [
        {
          "internalType": "uint256",
          "name": "chiId",
          "type": "uint256"
        },
        {
          "internalType": "uint256",
          "name": "amount0Desired",
          "type": "uint256"
        },
        {
          "internalType": "uint256",
          "name": "amount1Desired",
          "type": "uint256"
        }
      ],
      "name": "getShares",
      "outputs": [
        {
          "internalType": "uint256",
          "name": "",
          "type": "uint256"
        }
      ],
      "stateMutability": "view",
      "type": "function"
    },
    {
      "inputs": [
        {
          "internalType": "address",
          "name": "recipient",
          "type": "address"
        }
      ],
      "name": "getTokenId",
      "outputs": [
        {
          "internalType": "uint256",
          "name": "",
          "type": "uint256"
        }
      ],
      "stateMutability": "view",
      "type": "function"
    },
    {
      "inputs": [
        {
          "internalType": "address",
          "name": "owner",
          "type": "address"
        },
        {
          "internalType": "address",
          "name": "operator",
          "type": "address"
        }
      ],
      "name": "isApprovedForAll",
      "outputs": [
        {
          "internalType": "bool",
          "name": "",
          "type": "bool"
        }
      ],
      "stateMutability": "view",
      "type": "function"
    },
    {
      "inputs": [
        {
          "internalType": "address",
          "name": "recipient",
          "type": "address"
        }
      ],
      "name": "mint",
      "outputs": [
        {
          "internalType": "uint256",
          "name": "tokenId",
          "type": "uint256"
        }
      ],
      "stateMutability": "nonpayable",
      "type": "function"
    },
    {
      "inputs": [],
      "name": "name",
      "outputs": [
        {
          "internalType": "string",
          "name": "",
          "type": "string"
        }
      ],
      "stateMutability": "view",
      "type": "function"
    },
    {
      "inputs": [],
      "name": "owner",
      "outputs": [
        {
          "internalType": "address",
          "name": "",
          "type": "address"
        }
      ],
      "stateMutability": "view",
      "type": "function"
    },
    {
      "inputs": [
        {
          "internalType": "uint256",
          "name": "tokenId",
          "type": "uint256"
        }
      ],
      "name": "ownerOf",
      "outputs": [
        {
          "internalType": "address",
          "name": "",
          "type": "address"
        }
      ],
      "stateMutability": "view",
      "type": "function"
    },
    {
      "inputs": [
        {
          "internalType": "bytes32",
          "name": "key",
          "type": "bytes32"
        }
      ],
      "name": "poolPositions",
      "outputs": [
        {
          "internalType": "uint128",
          "name": "liquidity",
          "type": "uint128"
        },
        {
          "internalType": "uint256",
          "name": "feeGrowthInside0LastX128",
          "type": "uint256"
        },
        {
          "internalType": "uint256",
          "name": "feeGrowthInside1LastX128",
          "type": "uint256"
        },
        {
          "internalType": "uint128",
          "name": "tokensOwed0",
          "type": "uint128"
        },
        {
          "internalType": "uint128",
          "name": "tokensOwed1",
          "type": "uint128"
        }
      ],
      "stateMutability": "view",
      "type": "function"
    },
    {
      "inputs": [
        {
          "internalType": "address",
          "name": "from",
          "type": "address"
        },
        {
          "internalType": "address",
          "name": "to",
          "type": "address"
        },
        {
          "internalType": "uint256",
          "name": "tokenId",
          "type": "uint256"
        }
      ],
      "name": "safeTransferFrom",
      "outputs": [],
      "stateMutability": "nonpayable",
      "type": "function"
    },
    {
      "inputs": [
        {
          "internalType": "address",
          "name": "from",
          "type": "address"
        },
        {
          "internalType": "address",
          "name": "to",
          "type": "address"
        },
        {
          "internalType": "uint256",
          "name": "tokenId",
          "type": "uint256"
        },
        {
          "internalType": "bytes",
          "name": "_data",
          "type": "bytes"
        }
      ],
      "name": "safeTransferFrom",
      "outputs": [],
      "stateMutability": "nonpayable",
      "type": "function"
    },
    {
      "inputs": [
        {
          "internalType": "address",
          "name": "operator",
          "type": "address"
        },
        {
          "internalType": "bool",
          "name": "approved",
          "type": "bool"
        }
      ],
      "name": "setApprovalForAll",
      "outputs": [],
      "stateMutability": "nonpayable",
      "type": "function"
    },
    {
      "inputs": [
        {
          "internalType": "address",
          "name": "_chiManager",
          "type": "address"
        }
      ],
      "name": "setCHIManager",
      "outputs": [],
      "stateMutability": "nonpayable",
      "type": "function"
    },
    {
      "inputs": [
        {
          "components": [
            {
              "internalType": "uint256",
              "name": "yangId",
              "type": "uint256"
            },
            {
              "internalType": "uint256",
              "name": "chiId",
              "type": "uint256"
            },
            {
              "internalType": "uint256",
              "name": "amount0Desired",
              "type": "uint256"
            },
            {
              "internalType": "uint256",
              "name": "amount1Desired",
              "type": "uint256"
            },
            {
              "internalType": "uint256",
              "name": "amount0Min",
              "type": "uint256"
            },
            {
              "internalType": "uint256",
              "name": "amount1Min",
              "type": "uint256"
            }
          ],
          "internalType": "struct IYangNFTVault.SubscribeParam",
          "name": "params",
          "type": "tuple"
        }
      ],
      "name": "subscribe",
      "outputs": [
        {
          "internalType": "uint256",
          "name": "amount0",
          "type": "uint256"
        },
        {
          "internalType": "uint256",
          "name": "amount1",
          "type": "uint256"
        },
        {
          "internalType": "uint256",
          "name": "shares",
          "type": "uint256"
        }
      ],
      "stateMutability": "nonpayable",
      "type": "function"
    },
    {
      "inputs": [
        {
          "internalType": "bytes4",
          "name": "interfaceId",
          "type": "bytes4"
        }
      ],
      "name": "supportsInterface",
      "outputs": [
        {
          "internalType": "bool",
          "name": "",
          "type": "bool"
        }
      ],
      "stateMutability": "view",
      "type": "function"
    },
    {
      "inputs": [],
      "name": "symbol",
      "outputs": [
        {
          "internalType": "string",
          "name": "",
          "type": "string"
        }
      ],
      "stateMutability": "view",
      "type": "function"
    },
    {
      "inputs": [
        {
          "internalType": "uint256",
          "name": "index",
          "type": "uint256"
        }
      ],
      "name": "tokenByIndex",
      "outputs": [
        {
          "internalType": "uint256",
          "name": "",
          "type": "uint256"
        }
      ],
      "stateMutability": "view",
      "type": "function"
    },
    {
      "inputs": [
        {
          "internalType": "address",
          "name": "owner",
          "type": "address"
        },
        {
          "internalType": "uint256",
          "name": "index",
          "type": "uint256"
        }
      ],
      "name": "tokenOfOwnerByIndex",
      "outputs": [
        {
          "internalType": "uint256",
          "name": "",
          "type": "uint256"
        }
      ],
      "stateMutability": "view",
      "type": "function"
    },
    {
      "inputs": [
        {
          "internalType": "uint256",
          "name": "tokenId",
          "type": "uint256"
        }
      ],
      "name": "tokenURI",
      "outputs": [
        {
          "internalType": "string",
          "name": "",
          "type": "string"
        }
      ],
      "stateMutability": "view",
      "type": "function"
    },
    {
      "inputs": [],
      "name": "totalSupply",
      "outputs": [
        {
          "internalType": "uint256",
          "name": "",
          "type": "uint256"
        }
      ],
      "stateMutability": "view",
      "type": "function"
    },
    {
      "inputs": [
        {
          "internalType": "address",
          "name": "from",
          "type": "address"
        },
        {
          "internalType": "address",
          "name": "to",
          "type": "address"
        },
        {
          "internalType": "uint256",
          "name": "tokenId",
          "type": "uint256"
        }
      ],
      "name": "transferFrom",
      "outputs": [],
      "stateMutability": "nonpayable",
      "type": "function"
    },
    {
      "inputs": [
        {
          "components": [
            {
              "internalType": "uint256",
              "name": "yangId",
              "type": "uint256"
            },
            {
              "internalType": "uint256",
              "name": "chiId",
              "type": "uint256"
            },
            {
              "internalType": "uint256",
              "name": "shares",
              "type": "uint256"
            },
            {
              "internalType": "uint256",
              "name": "amount0Min",
              "type": "uint256"
            },
            {
              "internalType": "uint256",
              "name": "amount1Min",
              "type": "uint256"
            }
          ],
          "internalType": "struct IYangNFTVault.UnSubscribeParam",
          "name": "params",
          "type": "tuple"
        }
      ],
      "name": "unsubscribe",
      "outputs": [],
      "stateMutability": "nonpayable",
      "type": "function"
    },
    {
      "inputs": [
        {
          "internalType": "address",
          "name": "token",
          "type": "address"
        }
      ],
      "name": "vaults",
      "outputs": [
        {
          "internalType": "uint256",
          "name": "",
          "type": "uint256"
        }
      ],
      "stateMutability": "view",
      "type": "function"
    },
    {
      "inputs": [
        {
          "internalType": "address",
          "name": "token0",
          "type": "address"
        },
        {
          "internalType": "uint256",
          "name": "amount0",
          "type": "uint256"
        },
        {
          "internalType": "address",
          "name": "token1",
          "type": "address"
        },
        {
          "internalType": "uint256",
          "name": "amount1",
          "type": "uint256"
        }
      ],
      "name": "withdraw",
      "outputs": [],
      "stateMutability": "nonpayable",
      "type": "function"
    },
    {
      "inputs": [
        {
          "internalType": "uint256",
          "name": "yangId",
          "type": "uint256"
        },
        {
          "internalType": "uint256",
          "name": "chiId",
          "type": "uint256"
        }
      ],
      "name": "yangPositions",
      "outputs": [
        {
          "internalType": "uint256",
          "name": "amount0",
          "type": "uint256"
        },
        {
          "internalType": "uint256",
          "name": "amount1",
          "type": "uint256"
        },
        {
          "internalType": "uint256",
          "name": "shares",
          "type": "uint256"
        }
      ],
      "stateMutability": "view",
      "type": "function"
    }
  ],
  "bytecode": "0x60806040526001600d553480156200001657600080fd5b50604080518082018252601781527f59494e204173736574204d616e61676572205661756c740000000000000000006020808301919091528251808401909352600483526359414e4760e01b908301526001600055906200007e6301ffc9a760e01b620000fa565b81516200009390600790602085019062000182565b508051620000a990600890602084019062000182565b50620000bc6380ac58cd60e01b620000fa565b620000ce635b5e139f60e01b620000fa565b620000e063780e9d6360e01b620000fa565b5050600b80546001600160a01b031916331790556200022e565b6001600160e01b031980821614156200015a576040805162461bcd60e51b815260206004820152601c60248201527f4552433136353a20696e76616c696420696e7465726661636520696400000000604482015290519081900360640190fd5b6001600160e01b0319166000908152600160208190526040909120805460ff19169091179055565b828054600181600116156101000203166002900490600052602060002090601f016020900481019282620001ba576000855562000205565b82601f10620001d557805160ff191683800117855562000205565b8280016001018555821562000205579182015b8281111562000205578251825591602001919060010190620001e8565b506200021392915062000217565b5090565b5b8082111562000213576000815560010162000218565b615364806200023e6000396000f3fe608060405234801561001057600080fd5b50600436106101f05760003560e01c80636352211e1161010f578063a22cb465116100a2578063c87b56dd11610071578063c87b56dd1461043f578063e5d9cc9a14610452578063e985e9c514610465578063f153768614610478576101f0565b8063a22cb465146103f3578063a244a48114610406578063a622ee7c14610419578063b88d4fde1461042c576101f0565b80638ae881ab116100de5780638ae881ab146103ac5780638da5cb5b146103d057806390d25074146103d857806395d89b41146103eb576101f0565b80636352211e1461036b5780636a6278421461037e5780636c0360eb1461039157806370a0823114610399576101f0565b80632f745c59116101875780634b2084e3116101565780634b2084e31461031f5780634f6ccce7146103325780635c0d107e146103455780635f0600f714610358576101f0565b80632f745c59146102d35780633ab2e4ba146102e657806342842e0e146102f957806342e6e0fe1461030c576101f0565b8063095ea7b3116101c3578063095ea7b31461027557806316529c461461028a57806318160ddd146102ab57806323b872dd146102c0576101f0565b806301ffc9a7146101f55780630589ea3d1461021e57806306fdde0314610240578063081812fc14610255575b600080fd5b610208610203366004614bee565b61048b565b6040516102159190614e00565b60405180910390f35b61023161022c366004614d22565b6104c6565b60405161021593929190614fec565b61024861053b565b6040516102159190614e0b565b610268610263366004614bd6565b6105d1565b6040516102159190614dec565b610288610283366004614b64565b610633565b005b61029d610298366004614d22565b610709565b604051610215929190614dde565b6102b3610852565b6040516102159190614fe3565b6102886102ce366004614a3d565b610863565b6102b36102e1366004614b64565b6108ba565b6102886102f4366004614ca1565b6108e5565b610288610307366004614a3d565b610d75565b6102b361031a366004614d66565b610d90565b61028861032d366004614b8f565b610e62565b6102b3610340366004614bd6565b610f5a565b610231610353366004614c2e565b610f70565b61029d610366366004614bd6565b611278565b610268610379366004614bd6565b6113ab565b6102b361038c366004614948565b6113d3565b610248611467565b6102b36103a7366004614948565b6114c8565b6103bf6103ba366004614bd6565b611530565b604051610215959493929190614fa8565b6102686115a3565b6102886103e6366004614b8f565b6115b2565b610248611622565b610288610401366004614b33565b611683565b610288610414366004614948565b6117a6565b6102b3610427366004614948565b61180a565b61028861043a366004614a7d565b61185c565b61024861044d366004614bd6565b6118b4565b61029d610460366004614bd6565b611b35565b610208610473366004614980565b611cd9565b6102b3610486366004614948565b611d07565b7fffffffff00000000000000000000000000000000000000000000000000000000811660009081526001602052604090205460ff165b919050565b600080600080600f600087876040516020016104e3929190614dde565b60408051601f1981840301815291815281516020928301208352828201939093529082016000208251606081018452815480825260018301549382018490526002909201549301839052989097509095509350505050565b60078054604080516020601f60026000196101006001881615020190951694909404938401819004810282018101909252828152606093909290918301828280156105c75780601f1061059c576101008083540402835291602001916105c7565b820191906000526020600020905b8154815290600101906020018083116105aa57829003601f168201915b5050505050905090565b60006105dc82611d22565b6106175760405162461bcd60e51b815260040180806020018281038252602c815260200180615222602c913960400191505060405180910390fd5b506000908152600560205260409020546001600160a01b031690565b600061063e826113ab565b9050806001600160a01b0316836001600160a01b031614156106915760405162461bcd60e51b81526004018080602001828103825260218152602001806152a66021913960400191505060405180910390fd5b806001600160a01b03166106a3611d2f565b6001600160a01b031614806106bf57506106bf81610473611d2f565b6106fa5760405162461bcd60e51b81526004018080602001828103825260388152602001806151546038913960400191505060405180910390fd5b6107048383611d33565b505050565b600c5460009081906001600160a01b031661073f5760405162461bcd60e51b815260040161073690614ecc565b60405180910390fd5b60008484604051602001610754929190614dde565b60408051601f1981840301815282825280516020918201206000818152600f83528390206060850184528054855260018101549285019290925260029091015491830182905292501561084957600c54604051635cef66b360e11b815260009182916001600160a01b039091169063b9decd66906107d6908a90600401614fe3565b6101006040518083038186803b1580156107ef57600080fd5b505afa158015610803573d6000803e3d6000fd5b505050506040513d601f19601f8201168201806040525081019061082791906149b8565b5050505093509350505061084182828a8660400151611db9565b909650945050505b50509250929050565b600061085e6003611dda565b905090565b61087461086e611d2f565b82611de5565b6108af5760405162461bcd60e51b81526004018080602001828103825260318152602001806152c76031913960400191505060405180910390fd5b610704838383611e89565b6001600160a01b03821660009081526002602052604081206108dc9083611fd5565b90505b92915050565b80516108f13382611de5565b61090d5760405162461bcd60e51b815260040161073690614f3a565b600c546001600160a01b03166109355760405162461bcd60e51b815260040161073690614ecc565b600c546020830151604051635cef66b360e11b815260009283926001600160a01b039091169163b9decd669161096d91600401614fe3565b6101006040518083038186803b15801561098657600080fd5b505afa15801561099a573d6000803e3d6000fd5b505050506040513d601f19601f820116820180604052508101906109be91906149b8565b505050509350935050506000846000015185602001516040516020016109e5929190614dde565b6040516020818303038152906040528051906020012090508460400151600f6000838152602001908152602001600020600201541015610a375760405162461bcd60e51b815260040161073690614f71565b600c548551602087015160408089015160608a015160808b015192517f46698e7500000000000000000000000000000000000000000000000000000000815260009687966001600160a01b03909116956346698e7595610a9d9592949193600401615002565b6040805180830381600087803b158015610ab657600080fd5b505af1158015610aca573d6000803e3d6000fd5b505050506040513d601f19601f82011682018060405250810190610aee9190614d43565b9092509050848215610bc65760008860000151826001600160a01b0316630dfe16816040518163ffffffff1660e01b815260040160206040518083038186803b158015610b3a57600080fd5b505afa158015610b4e573d6000803e3d6000fd5b505050506040513d601f19601f82011682018060405250810190610b729190614964565b604051602001610b83929190614dbe565b60408051601f19818403018152918152815160209283012060008181526011909352912054909150610bb59085611fe1565b600091825260116020526040909120555b8115610c985760008860000151826001600160a01b031663d21220a76040518163ffffffff1660e01b815260040160206040518083038186803b158015610c0c57600080fd5b505afa158015610c20573d6000803e3d6000fd5b505050506040513d601f19601f82011682018060405250810190610c449190614964565b604051602001610c55929190614dbe565b60408051601f19818403018152918152815160209283012060008181526011909352912054909150610c879084611fe1565b600091825260116020526040909120555b87516020890151600091610caf91600f919061203b565b9050610ccc8960400151826002015461207690919063ffffffff16565b600282015580548410610ce0576000610cec565b8054610cec9085612076565b815560018101548310610d00576000610d0f565b6001810154610d0f9084612076565b600182015588518690610d2890601090859084906120d3565b60208a01518a516040517fb65ca58d729d89d58e1ed48a179b40d4a6b56e3e101a10085a0f43915cf1448890610d619089908990614dde565b60405180910390a350505050505050505050565b6107048383836040518060200160405280600081525061185c565b600c546000906001600160a01b0316610dbb5760405162461bcd60e51b815260040161073690614ecc565b600c54604051635cef66b360e11b81526000916001600160a01b03169063b9decd6690610dec908890600401614fe3565b6101006040518083038186803b158015610e0557600080fd5b505afa158015610e19573d6000803e3d6000fd5b505050506040513d601f19601f82011682018060405250810190610e3d91906149b8565b5050505093505050506000610e538286866122bb565b509093505050505b9392505050565b6000610e6d33611d07565b90508315610ee15760008186604051602001610e8a929190614dbe565b60408051601f19818403018152918152815160209283012060008181526011909352912054909150610ebc9086612076565b600082815260116020526040902055610edf6001600160a01b03871633876123d5565b505b8115610f535760008184604051602001610efc929190614dbe565b60408051601f19818403018152918152815160209283012060008181526011909352912054909150610f2e9084612076565b600082815260116020526040902055610f516001600160a01b03851633856123d5565b505b5050505050565b600080610f68600384612455565b509392505050565b60008060008360000151610f843382611de5565b610fa05760405162461bcd60e51b815260040161073690614f3a565b60026000541415610ff8576040805162461bcd60e51b815260206004820152601f60248201527f5265656e7472616e637947756172643a207265656e7472616e742063616c6c00604482015290519081900360640190fd5b6002600055600c546001600160a01b03166110255760405162461bcd60e51b815260040161073690614ecc565b600c546020860151604051635cef66b360e11b815260009283926001600160a01b039091169163b9decd669161105d91600401614fe3565b6101006040518083038186803b15801561107657600080fd5b505afa15801561108a573d6000803e3d6000fd5b505050506040513d601f19601f820116820180604052508101906110ae91906149b8565b5050505093509350505060008290506000816001600160a01b0316630dfe16816040518163ffffffff1660e01b815260040160206040518083038186803b1580156110f857600080fd5b505afa15801561110c573d6000803e3d6000fd5b505050506040513d601f19601f820116820180604052508101906111309190614964565b90506000826001600160a01b031663d21220a76040518163ffffffff1660e01b815260040160206040518083038186803b15801561116d57600080fd5b505afa158015611181573d6000803e3d6000fd5b505050506040513d601f19601f820116820180604052508101906111a59190614964565b90506111bb828b60400151838d606001516115b2565b6111c682828c612471565b8c5160208e0151939c50919a5098506000916111e491600f9161203b565b80549091506111f3908b611fe1565b81556001810154611204908a611fe1565b600182015560028101546112189089611fe1565b60028201558a5161122f90601090869088906120d3565b60208b01518b516040518a9291907f17de92c1076ec5855c3edd4a6084a82c184adfda177deb99d6532697cdac91cb90600090a450506001600055509597949650929450505050565b600c5460009081906001600160a01b03166112a55760405162461bcd60e51b815260040161073690614ecc565b600c54604051635cef66b360e11b81526000916001600160a01b03169063b9decd66906112d6908790600401614fe3565b6101006040518083038186803b1580156112ef57600080fd5b505afa158015611303573d6000803e3d6000fd5b505050506040513d601f19601f8201168201806040525081019061132791906149b8565b505050509350505050806001600160a01b031663c4a7761e6040518163ffffffff1660e01b8152600401604080518083038186803b15801561136857600080fd5b505afa15801561137c573d6000803e3d6000fd5b505050506040513d601f19601f820116820180604052508101906113a09190614d43565b909590945092505050565b60006108df826040518060600160405280602981526020016151b6602991396003919061267c565b6001600160a01b0381166000908152600e6020526040812054156114095760405162461bcd60e51b815260040161073690614e5e565b50600d80546001810190915561141f8282612689565b6001600160a01b0382166000818152600e6020526040808220849055518392917f74629109564de5ce9d04dc84bb5ecd8fbb0c98843a3fbd43f057825a9255449c91a3919050565b600a8054604080516020601f60026000196101006001881615020190951694909404938401819004810282018101909252828152606093909290918301828280156105c75780601f1061059c576101008083540402835291602001916105c7565b60006001600160a01b03821661150f5760405162461bcd60e51b815260040180806020018281038252602a81526020018061518c602a913960400191505060405180910390fd5b6001600160a01b03821660009081526002602052604090206108df90611dda565b600090815260106020908152604091829020825160a08101845281546fffffffffffffffffffffffffffffffff9081168083526001840154948301859052600284015495830186905260039093015480821660608401819052600160801b90910490911660809092018290529194929392565b600b546001600160a01b031681565b600083116115d25760405162461bcd60e51b815260040161073690614e95565b600081116115f25760405162461bcd60e51b815260040161073690614e95565b6116076001600160a01b0385163330866127b7565b61161c6001600160a01b0383163330846127b7565b50505050565b60088054604080516020601f60026000196101006001881615020190951694909404938401819004810282018101909252828152606093909290918301828280156105c75780601f1061059c576101008083540402835291602001916105c7565b61168b611d2f565b6001600160a01b0316826001600160a01b031614156116f1576040805162461bcd60e51b815260206004820152601960248201527f4552433732313a20617070726f766520746f2063616c6c657200000000000000604482015290519081900360640190fd5b80600660006116fe611d2f565b6001600160a01b0390811682526020808301939093526040918201600090812091871680825291909352912080547fffffffffffffffffffffffffffffffffffffffffffffffffffffffffffffff001692151592909217909155611760611d2f565b6001600160a01b03167f17307eab39ab6107e8899845ad3d59bd9653f200f220920489ca2b5937696c318360405180821515815260200191505060405180910390a35050565b600b546001600160a01b031633146117d05760405162461bcd60e51b815260040161073690614f03565b600c80547fffffffffffffffffffffffff0000000000000000000000000000000000000000166001600160a01b0392909216919091179055565b60008061181633611d07565b905060116000828560405160200161182f929190614dbe565b60405160208183030381529060405280519060200120815260200190815260200160002054915050919050565b61186d611867611d2f565b83611de5565b6118a85760405162461bcd60e51b81526004018080602001828103825260318152602001806152c76031913960400191505060405180910390fd5b61161c8484848461283f565b60606118bf82611d22565b6118fa5760405162461bcd60e51b815260040180806020018281038252602f815260200180615277602f913960400191505060405180910390fd5b60008281526009602090815260408083208054825160026001831615610100026000190190921691909104601f81018590048502820185019093528281529290919083018282801561198d5780601f106119625761010080835404028352916020019161198d565b820191906000526020600020905b81548152906001019060200180831161197057829003601f168201915b50505050509050600061199e611467565b90508051600014156119b2575090506104c1565b815115611a735780826040516020018083805190602001908083835b602083106119ed5780518252601f1990920191602091820191016119ce565b51815160209384036101000a600019018019909216911617905285519190930192850191508083835b60208310611a355780518252601f199092019160209182019101611a16565b6001836020036101000a03801982511681845116808217855250505050505090500192505050604051602081830303815290604052925050506104c1565b80611a7d85612891565b6040516020018083805190602001908083835b60208310611aaf5780518252601f199092019160209182019101611a90565b51815160209384036101000a600019018019909216911617905285519190930192850191508083835b60208310611af75780518252601f199092019160209182019101611ad8565b6001836020036101000a0380198251168184511680821785525050505050509050019250505060405160208183030381529060405292505050919050565b600c5460009081906001600160a01b0316611b625760405162461bcd60e51b815260040161073690614ecc565b600c54604051635cef66b360e11b81526000916001600160a01b03169063b9decd6690611b93908790600401614fe3565b6101006040518083038186803b158015611bac57600080fd5b505afa158015611bc0573d6000803e3d6000fd5b505050506040513d601f19601f82011682018060405250810190611be491906149b8565b505050509350505050806001600160a01b031663eae989a26040518163ffffffff1660e01b815260040160206040518083038186803b158015611c2657600080fd5b505afa158015611c3a573d6000803e3d6000fd5b505050506040513d601f19601f82011682018060405250810190611c5e9190614d0a565b9250806001600160a01b031663a00fa77f6040518163ffffffff1660e01b815260040160206040518083038186803b158015611c9957600080fd5b505afa158015611cad573d6000803e3d6000fd5b505050506040513d601f19601f82011682018060405250810190611cd19190614d0a565b915050915091565b6001600160a01b03918216600090815260066020908152604080832093909416825291909152205460ff1690565b6001600160a01b03166000908152600e602052604090205490565b60006108df6003836129a0565b3390565b600081815260056020526040902080547fffffffffffffffffffffffff0000000000000000000000000000000000000000166001600160a01b0384169081179091558190611d80826113ab565b6001600160a01b03167f8c5be1e5ebec7d5bd14f71427d1e84f3dd0314c0f7b2291e5b200ac8c7c3b92560405160405180910390a45050565b6000808486611dcb81833389896129ac565b90999098509650505050505050565b60006108df82612f2f565b6000611df082611d22565b611e2b5760405162461bcd60e51b815260040180806020018281038252602c815260200180615128602c913960400191505060405180910390fd5b6000611e36836113ab565b9050806001600160a01b0316846001600160a01b03161480611e715750836001600160a01b0316611e66846105d1565b6001600160a01b0316145b80611e815750611e818185611cd9565b949350505050565b826001600160a01b0316611e9c826113ab565b6001600160a01b031614611ee15760405162461bcd60e51b815260040180806020018281038252602981526020018061524e6029913960400191505060405180910390fd5b6001600160a01b038216611f265760405162461bcd60e51b81526004018080602001828103825260248152602001806150de6024913960400191505060405180910390fd5b611f31838383610704565b611f3c600082611d33565b6001600160a01b0383166000908152600260205260409020611f5e9082612f33565b506001600160a01b0382166000908152600260205260409020611f819082612f3f565b50611f8e60038284612f4b565b5080826001600160a01b0316846001600160a01b03167fddf252ad1be2c89b69c2b068fc378daa952ba7f163c4a11628f55a4df523b3ef60405160405180910390a4505050565b60006108dc8383612f61565b6000828201838110156108dc576040805162461bcd60e51b815260206004820152601b60248201527f536166654d6174683a206164646974696f6e206f766572666c6f770000000000604482015290519081900360640190fd5b604080516020808201949094528082019290925280518083038201815260609092018152815191830191909120600090815292909152902090565b6000828211156120cd576040805162461bcd60e51b815260206004820152601e60248201527f536166654d6174683a207375627472616374696f6e206f766572666c6f770000604482015290519081900360640190fd5b50900390565b60005b826001600160a01b031663b135a1456040518163ffffffff1660e01b815260040160206040518083038186803b15801561210f57600080fd5b505afa158015612123573d6000803e3d6000fd5b505050506040513d602081101561213957600080fd5b5051811015610f5357600080846001600160a01b031663cc364f48846040518263ffffffff1660e01b815260040180828152602001915050604080518083038186803b15801561218857600080fd5b505afa15801561219c573d6000803e3d6000fd5b505050506040513d60408110156121b257600080fd5b508051602090910151909250905060006121ce87878585612fc5565b6fffffffffffffffffffffffffffffffff1611156122b15760006121f5888688868661304a565b905060008060008060008b6001600160a01b031663514ea4bf6122198d8b8b613074565b6040518263ffffffff1660e01b81526004018082815260200191505060a06040518083038186803b15801561224d57600080fd5b505afa158015612261573d6000803e3d6000fd5b505050506040513d60a081101561227757600080fd5b508051602082015160408301516060840151608090940151929850909650945090925090506122aa8686868686866130ca565b5050505050505b50506001016120d6565b600080600080869050600080826001600160a01b031663c4a7761e6040518163ffffffff1660e01b8152600401604080518083038186803b1580156122ff57600080fd5b505afa158015612313573d6000803e3d6000fd5b505050506040513d604081101561232957600080fd5b8101908080519060200190929190805190602001909291905050509150915060008060006123be85858d8d8a6001600160a01b03166318160ddd6040518163ffffffff1660e01b815260040160206040518083038186803b15801561238d57600080fd5b505afa1580156123a1573d6000803e3d6000fd5b505050506040513d60208110156123b757600080fd5b505161313a565b919a50985096505050505050505b93509350939050565b604080516001600160a01b038416602482015260448082018490528251808303909101815260649091019091526020810180517bffffffffffffffffffffffffffffffffffffffffffffffffffffffff167fa9059cbb0000000000000000000000000000000000000000000000000000000017905261070490849061326d565b6000808080612464868661331e565b9097909650945050505050565b600c54604082015160009182918291612497916001600160a01b03898116921690613399565b600c5460608501516124b7916001600160a01b0388811692911690613399565b600c5484516020860151604080880151606089015160808a015160a08b015193517fec28fcac0000000000000000000000000000000000000000000000000000000081526001600160a01b039097169663ec28fcac966125209690959094939291600401615025565b606060405180830381600087803b15801561253a57600080fd5b505af115801561254e573d6000803e3d6000fd5b505050506040513d601f19601f820116820180604052508101906125729190614d91565b60408701519195509350909150839003156125e057835160405160009161259d918990602001614dbe565b60408051601f198184030181529181528151602092830120600081815260119093529120549091506125cf9085611fe1565b600091825260116020526040909120555b606084015182900315612646578351604051600091612603918890602001614dbe565b60408051601f198184030181529181528151602092830120600081815260119093529120549091506126359084611fe1565b600091825260116020526040909120555b600c54612661906001600160a01b0388811691166000613399565b600c546123cc906001600160a01b0387811691166000613399565b6000611e818484846134f3565b6001600160a01b0382166126e4576040805162461bcd60e51b815260206004820181905260248201527f4552433732313a206d696e7420746f20746865207a65726f2061646472657373604482015290519081900360640190fd5b6126ed81611d22565b1561273f576040805162461bcd60e51b815260206004820152601c60248201527f4552433732313a20746f6b656e20616c7265616479206d696e74656400000000604482015290519081900360640190fd5b61274b60008383610704565b6001600160a01b038216600090815260026020526040902061276d9082612f3f565b5061277a60038284612f4b565b5060405181906001600160a01b038416906000907fddf252ad1be2c89b69c2b068fc378daa952ba7f163c4a11628f55a4df523b3ef908290a45050565b604080516001600160a01b0380861660248301528416604482015260648082018490528251808303909101815260849091019091526020810180517bffffffffffffffffffffffffffffffffffffffffffffffffffffffff167f23b872dd0000000000000000000000000000000000000000000000000000000017905261161c90859061326d565b61284a848484611e89565b612856848484846135bd565b61161c5760405162461bcd60e51b81526004018080602001828103825260328152602001806150ac6032913960400191505060405180910390fd5b6060816128d2575060408051808201909152600181527f300000000000000000000000000000000000000000000000000000000000000060208201526104c1565b8160005b81156128ea57600101600a820491506128d6565b60008167ffffffffffffffff8111801561290357600080fd5b506040519080825280601f01601f19166020018201604052801561292e576020820181803683370190505b50859350905060001982015b831561299757600a840660300160f81b8282806001900393508151811061295d57fe5b60200101907effffffffffffffffffffffffffffffffffffffffffffffffffffffffffffff1916908160001a905350600a8404935061293a565b50949350505050565b60006108dc8383613799565b60008060005b866001600160a01b031663b135a1456040518163ffffffff1660e01b815260040160206040518083038186803b1580156129eb57600080fd5b505afa1580156129ff573d6000803e3d6000fd5b505050506040513d6020811015612a1557600080fd5b5051811015612b6c57600080886001600160a01b031663cc364f48846040518263ffffffff1660e01b815260040180828152602001915050604080518083038186803b158015612a6457600080fd5b505afa158015612a78573d6000803e3d6000fd5b505050506040513d6040811015612a8e57600080fd5b50805160209091015190925090506000612aaa8b8b8585612fc5565b90506fffffffffffffffffffffffffffffffff811615612b615760006040518061010001604052808d6001600160a01b031681526020018c6001600160a01b031681526020018b6001600160a01b031681526020018a8152602001836fffffffffffffffffffffffffffffffff1681526020018981526020018560020b81526020018460020b8152509050600080612b41836137b1565b91509150612b4f8983611fe1565b9850612b5b8882611fe1565b97505050505b5050506001016129b2565b506000876001600160a01b0316630dfe16816040518163ffffffff1660e01b815260040160206040518083038186803b158015612ba857600080fd5b505afa158015612bbc573d6000803e3d6000fd5b505050506040513d6020811015612bd257600080fd5b5051604080517fd21220a700000000000000000000000000000000000000000000000000000000815290519192506000916001600160a01b038b169163d21220a7916004808301926020929190829003018186803b158015612c3357600080fd5b505afa158015612c47573d6000803e3d6000fd5b505050506040513d6020811015612c5d57600080fd5b5051604080517f70a082310000000000000000000000000000000000000000000000000000000081526001600160a01b038b811660048301529151929350600092612df192612d8692908716916370a0823191602480820192602092909190829003018186803b158015612cd057600080fd5b505afa158015612ce4573d6000803e3d6000fd5b505050506040513d6020811015612cfa57600080fd5b5051604080517feae989a200000000000000000000000000000000000000000000000000000000815290516001600160a01b038e169163eae989a2916004808301926020929190829003018186803b158015612d5557600080fd5b505afa158015612d69573d6000803e3d6000fd5b505050506040513d6020811015612d7f57600080fd5b5051612076565b878b6001600160a01b03166318160ddd6040518163ffffffff1660e01b815260040160206040518083038186803b158015612dc057600080fd5b505afa158015612dd4573d6000803e3d6000fd5b505050506040513d6020811015612dea57600080fd5b505161391c565b90506000612f07612ecd846001600160a01b03166370a082318d6040518263ffffffff1660e01b815260040180826001600160a01b0316815260200191505060206040518083038186803b158015612e4857600080fd5b505afa158015612e5c573d6000803e3d6000fd5b505050506040513d6020811015612e7257600080fd5b5051604080517fa00fa77f00000000000000000000000000000000000000000000000000000000815290516001600160a01b038f169163a00fa77f916004808301926020929190829003018186803b158015612d5557600080fd5b888c6001600160a01b03166318160ddd6040518163ffffffff1660e01b815260040160206040518083038186803b158015612dc057600080fd5b9050612f138683611fe1565b9550612f1f8582611fe1565b9450505050509550959350505050565b5490565b60006108dc83836139cb565b60006108dc8383613a91565b6000611e8184846001600160a01b038516613adb565b81546000908210612fa35760405162461bcd60e51b815260040180806020018281038252602281526020018061508a6022913960400191505060405180910390fd5b826000018281548110612fb257fe5b9060005260206000200154905092915050565b6000846001600160a01b031663514ea4bf612fe1868686613074565b6040518263ffffffff1660e01b81526004018082815260200191505060a06040518083038186803b15801561301557600080fd5b505afa158015613029573d6000803e3d6000fd5b505050506040513d60a081101561303f57600080fd5b505195945050505050565b600085600061305b87878787613b72565b8152602001908152602001600020905095945050505050565b6040805160609490941b6bffffffffffffffffffffffff1916602080860191909152600293840b60e890811b60348701529290930b90911b60378401528051808403601a018152603a9093019052815191012090565b85546fffffffffffffffffffffffffffffffff9586167fffffffffffffffffffffffffffffffff000000000000000000000000000000009182161787556001870194909455600286019290925560039094018054918416600160801b029484169190921617909116919091179055565b6000808083158061314b5750600088115b806131565750600087115b61315c57fe5b836131775750849050836131708282613bcb565b9250613262565b8761318957508361317081858961391c565b8661319c5785915061317082858a61391c565b60006131ba6131ab888a613be2565b6131b5888c613be2565b613c3b565b905060008111613211576040805162461bcd60e51b815260206004820152600160248201527f6300000000000000000000000000000000000000000000000000000000000000604482015290519081900360640190fd5b61322f613228613222836001612076565b8a613c4a565b6001611fe1565b9250613248613228613242836001612076565b8b613c4a565b915061325e61325882878c61391c565b89613c4a565b9350505b955095509592505050565b60006132c2826040518060400160405280602081526020017f5361666545524332303a206c6f772d6c6576656c2063616c6c206661696c6564815250856001600160a01b0316613cb19092919063ffffffff16565b805190915015610704578080602001905160208110156132e157600080fd5b50516107045760405162461bcd60e51b815260040180806020018281038252602a8152602001806152f8602a913960400191505060405180910390fd5b8154600090819083106133625760405162461bcd60e51b81526004018080602001828103825260228152602001806151df6022913960400191505060405180910390fd5b600084600001848154811061337357fe5b906000526020600020906002020190508060000154816001015492509250509250929050565b8015806134385750604080517fdd62ed3e0000000000000000000000000000000000000000000000000000000081523060048201526001600160a01b03848116602483015291519185169163dd62ed3e91604480820192602092909190829003018186803b15801561340a57600080fd5b505afa15801561341e573d6000803e3d6000fd5b505050506040513d602081101561343457600080fd5b5051155b6134735760405162461bcd60e51b81526004018080602001828103825260368152602001806153226036913960400191505060405180910390fd5b604080516001600160a01b038416602482015260448082018490528251808303909101815260649091019091526020810180517bffffffffffffffffffffffffffffffffffffffffffffffffffffffff167f095ea7b30000000000000000000000000000000000000000000000000000000017905261070490849061326d565b6000828152600184016020526040812054828161358e5760405162461bcd60e51b81526004018080602001828103825283818151815260200191508051906020019080838360005b8381101561355357818101518382015260200161353b565b50505050905090810190601f1680156135805780820380516001836020036101000a031916815260200191505b509250505060405180910390fd5b508460000160018203815481106135a157fe5b9060005260206000209060020201600101549150509392505050565b60006135d1846001600160a01b0316613cc0565b6135dd57506001611e81565b600061372e7f150b7a020000000000000000000000000000000000000000000000000000000061360b611d2f565b88878760405160240180856001600160a01b03168152602001846001600160a01b0316815260200183815260200180602001828103825283818151815260200191508051906020019080838360005b8381101561367257818101518382015260200161365a565b50505050905090810190601f16801561369f5780820380516001836020036101000a031916815260200191505b5095505050505050604051602081830303815290604052907bffffffffffffffffffffffffffffffffffffffffffffffffffffffff19166020820180517bffffffffffffffffffffffffffffffffffffffffffffffffffffffff83818316178352505050506040518060600160405280603281526020016150ac603291396001600160a01b0388169190613cb1565b9050600081806020019051602081101561374757600080fd5b50517fffffffff00000000000000000000000000000000000000000000000000000000167f150b7a02000000000000000000000000000000000000000000000000000000001492505050949350505050565b60009081526001919091016020526040902054151590565b600080600061381d61381585608001516fffffffffffffffffffffffffffffffff168660a0015187602001516001600160a01b03166318160ddd6040518163ffffffff1660e01b815260040160206040518083038186803b158015612dc057600080fd5b600003613cc6565b9050600081600f0b1315613916576060840151845160c086015160e0870151600092839261384b9287613cd7565b9150915060006138698489602001518a60c001518b60e00151613b72565b9050600061388489602001518a60c001518b60e00151613074565b905060006040518060c001604052808b600001516001600160a01b031681526020018b604001516001600160a01b031681526020018481526020018381526020018681526020018581525090506000806138e78c60c001518d60e0015185613df4565b915091508187116138f857866138fa565b815b9a50808611613909578561390b565b805b995050505050505050505b50915091565b6000808060001985870986860292508281109083900303905080613952576000841161394757600080fd5b508290049050610e5b565b80841161395e57600080fd5b6000848688096000868103871696879004966002600389028118808a02820302808a02820302808a02820302808a02820302808a02820302808a02909103029181900381900460010186841190950394909402919094039290920491909117919091029150509392505050565b60008181526001830160205260408120548015613a8757835460001980830191908101906000908790839081106139fe57fe5b9060005260206000200154905080876000018481548110613a1b57fe5b600091825260208083209091019290925582815260018981019092526040902090840190558654879080613a4b57fe5b600190038181906000526020600020016000905590558660010160008781526020019081526020016000206000905560019450505050506108df565b60009150506108df565b6000613a9d8383613799565b613ad3575081546001818101845560008481526020808220909301849055845484825282860190935260409020919091556108df565b5060006108df565b600082815260018401602052604081205480613b40575050604080518082018252838152602080820184815286546001818101895560008981528481209551600290930290950191825591519082015586548684528188019092529290912055610e5b565b82856000016001830381548110613b5357fe5b9060005260206000209060020201600101819055506000915050610e5b565b6040805160208082019690965260609490941b6bffffffffffffffffffffffff191684820152600292830b60e890811b60548601529190920b901b60578301528051808303603a018152605a9092019052805191012090565b600081831015613bdb57816108dc565b5090919050565b600082613bf1575060006108df565b82820282848281613bfe57fe5b04146108dc5760405162461bcd60e51b81526004018080602001828103825260218152602001806152016021913960400191505060405180910390fd5b6000818310613bdb57816108dc565b6000808211613ca0576040805162461bcd60e51b815260206004820152601a60248201527f536166654d6174683a206469766973696f6e206279207a65726f000000000000604482015290519081900360640190fd5b818381613ca957fe5b049392505050565b6060611e818484600085613ee5565b3b151590565b80600f81900b81146104c157600080fd5b600080600080876001600160a01b0316633850c7bd6040518163ffffffff1660e01b815260040160e06040518083038186803b158015613d1657600080fd5b505afa158015613d2a573d6000803e3d6000fd5b505050506040513d60e0811015613d4057600080fd5b5080516020909101519092509050600080600f87900b15613de0578860020b8360020b1215613d8b57613d84613d758a614040565b613d7e8a614040565b8961438e565b9150613de0565b8760020b8360020b1215613dc257613da684613d7e8a614040565b9150613dbb613db48a614040565b85896143d2565b9050613de0565b613ddd613dce8a614040565b613dd78a614040565b896143d2565b90505b60009182039a910398509650505050505050565b600080600080600080600087602001516001600160a01b0316638ae881ab89604001516040518263ffffffff1660e01b81526004018082815260200191505060a06040518083038186803b158015613e4b57600080fd5b505afa158015613e5f573d6000803e3d6000fd5b505050506040513d60a0811015613e7557600080fd5b508051602082015160408301516060808501516080909501518d51918e0151949a5092985090965092945092506000918291613eb391908e8e614401565b91509150613ed28787878d6080015188018e60a00151880187876146a9565b9850985050505050505050935093915050565b606082471015613f265760405162461bcd60e51b81526004018080602001828103825260268152602001806151026026913960400191505060405180910390fd5b613f2f85613cc0565b613f80576040805162461bcd60e51b815260206004820152601d60248201527f416464726573733a2063616c6c20746f206e6f6e2d636f6e7472616374000000604482015290519081900360640190fd5b600080866001600160a01b031685876040518082805190602001908083835b60208310613fbe5780518252601f199092019160209182019101613f9f565b6001836020036101000a03801982511681845116808217855250505050505090500191505060006040518083038185875af1925050503d8060008114614020576040519150601f19603f3d011682016040523d82523d6000602084013e614025565b606091505b509150915061403582828661471c565b979650505050505050565b60008060008360020b12614057578260020b61405f565b8260020b6000035b9050620d89e88111156140b9576040805162461bcd60e51b815260206004820152600160248201527f5400000000000000000000000000000000000000000000000000000000000000604482015290519081900360640190fd5b6000600182166140cd57600160801b6140df565b6ffffcb933bd6fad37aa2d162d1a5940015b70ffffffffffffffffffffffffffffffffff1690506002821615614113576ffff97272373d413259a46990580e213a0260801c5b6004821615614132576ffff2e50f5f656932ef12357cf3c7fdcc0260801c5b6008821615614151576fffe5caca7e10e4e61c3624eaa0941cd00260801c5b6010821615614170576fffcb9843d60f6159c9db58835c9266440260801c5b602082161561418f576fff973b41fa98c081472e6896dfb254c00260801c5b60408216156141ae576fff2ea16466c96a3843ec78b326b528610260801c5b60808216156141cd576ffe5dee046a99a2a811c461f1969c30530260801c5b6101008216156141ed576ffcbe86c7900a88aedcffc83b479aa3a40260801c5b61020082161561420d576ff987a7253ac413176f2b074cf7815e540260801c5b61040082161561422d576ff3392b0822b70005940c7a398e4b70f30260801c5b61080082161561424d576fe7159475a2c29b7443b29c7fa6e889d90260801c5b61100082161561426d576fd097f3bdfd2022b8845ad8f792aa58250260801c5b61200082161561428d576fa9f746462d870fdf8a65dc1f90e061e50260801c5b6140008216156142ad576f70d869a156d2a1b890bb3df62baf32f70260801c5b6180008216156142cd576f31be135f97d08fd981231505542fcfa60260801c5b620100008216156142ee576f09aa508b5b7a84e1c677de54f3e99bc90260801c5b6202000082161561430e576e5d6af8dedb81196699c329225ee6040260801c5b6204000082161561432d576d2216e584f5fa1ea926041bedfe980260801c5b6208000082161561434a576b048a170391f7dc42444e8fa20260801c5b60008460020b131561436557806000198161436157fe5b0490505b64010000000081061561437957600161437c565b60005b60ff16602082901c0192505050919050565b60008082600f0b126143b4576143af6143aa8585856001614782565b614834565b611e81565b6143c76143aa8585856000036000614782565b600003949350505050565b60008082600f0b126143ee576143af6143aa8585856001614866565b6143c76143aa8585856000036000614866565b600080600080876001600160a01b031663514ea4bf886040518263ffffffff1660e01b81526004018082815260200191505060a06040518083038186803b15801561444b57600080fd5b505afa15801561445f573d6000803e3d6000fd5b505050506040513d60a081101561447557600080fd5b50602081015160409182015182517f3850c7bd000000000000000000000000000000000000000000000000000000008152925191945092506000916001600160a01b038b1691633850c7bd9160048082019260e092909190829003018186803b1580156144e157600080fd5b505afa1580156144f5573d6000803e3d6000fd5b505050506040513d60e081101561450b57600080fd5b5060200151604080517ff30dba9300000000000000000000000000000000000000000000000000000000815260028a900b6004820152905191925060009182916001600160a01b038d169163f30dba939160248082019261010092909190829003018186803b15801561457d57600080fd5b505afa158015614591573d6000803e3d6000fd5b505050506040513d6101008110156145a857600080fd5b506040810151606090910151909250905060008060028b810b9086900b126145d45750829050816145dd565b50508185038185035b6000808e6001600160a01b031663f30dba938d6040518263ffffffff1660e01b8152600401808260020b81526020019150506101006040518083038186803b15801561462857600080fd5b505afa15801561463c573d6000803e3d6000fd5b505050506040513d61010081101561465357600080fd5b506040810151606090910151909250905060008060028e810b908a900b1215614680575082905081614689565b50508189038189035b94909903989098039e91909603919091039b509950505050505050505050565b6000806146cf8885038a6fffffffffffffffffffffffffffffffff16600160801b61391c565b860195506146f68784038a6fffffffffffffffffffffffffffffffff16600160801b61391c565b6fffffffffffffffffffffffffffffffff9687169a950190951697509295505050505050565b6060831561472b575081610e5b565b82511561473b5782518084602001fd5b60405162461bcd60e51b815260206004820181815284516024840152845185939192839260440191908501908083836000831561355357818101518382015260200161353b565b6000836001600160a01b0316856001600160a01b031611156147a2579293925b7bffffffffffffffffffffffffffffffff000000000000000000000000606084901b166001600160a01b0386860381169087166147de57600080fd5b8361480e57866001600160a01b03166148018383896001600160a01b031661391c565b8161480857fe5b04614035565b6140356148258383896001600160a01b0316614903565b886001600160a01b031661493d565b60007f8000000000000000000000000000000000000000000000000000000000000000821061486257600080fd5b5090565b6000836001600160a01b0316856001600160a01b03161115614886579293925b816148c5576148c0836fffffffffffffffffffffffffffffffff168686036001600160a01b03166c0100000000000000000000000061391c565b6148fa565b6148fa836fffffffffffffffffffffffffffffffff168686036001600160a01b03166c01000000000000000000000000614903565b95945050505050565b600061491084848461391c565b90506000828061491c57fe5b8486091115610e5b57600019811061493357600080fd5b6001019392505050565b808204910615150190565b600060208284031215614959578081fd5b81356108dc81615071565b600060208284031215614975578081fd5b81516108dc81615071565b60008060408385031215614992578081fd5b823561499d81615071565b915060208301356149ad81615071565b809150509250929050565b600080600080600080600080610100898b0312156149d4578384fd5b88516149df81615071565b60208a01519098506149f081615071565b60408a0151909750614a0181615071565b60608a0151909650614a1281615071565b60808a015160a08b015160c08c015160e0909c01519a9d999c50979a91999098919650945092505050565b600080600060608486031215614a51578283fd5b8335614a5c81615071565b92506020840135614a6c81615071565b929592945050506040919091013590565b60008060008060808587031215614a92578384fd5b8435614a9d81615071565b9350602085810135614aae81615071565b935060408601359250606086013567ffffffffffffffff80821115614ad1578384fd5b818801915088601f830112614ae4578384fd5b813581811115614af057fe5b614b0284601f19601f8401160161504d565b91508082528984828501011115614b17578485fd5b8084840185840137810190920192909252939692955090935050565b60008060408385031215614b45578182fd5b8235614b5081615071565b9150602083013580151581146149ad578182fd5b60008060408385031215614b76578182fd5b8235614b8181615071565b946020939093013593505050565b60008060008060808587031215614ba4578384fd5b8435614baf81615071565b9350602085013592506040850135614bc681615071565b9396929550929360600135925050565b600060208284031215614be7578081fd5b5035919050565b600060208284031215614bff578081fd5b81357fffffffff00000000000000000000000000000000000000000000000000000000811681146108dc578182fd5b600060c08284031215614c3f578081fd5b60405160c0810181811067ffffffffffffffff82111715614c5c57fe5b8060405250823581526020830135602082015260408301356040820152606083013560608201526080830135608082015260a083013560a08201528091505092915050565b600060a08284031215614cb2578081fd5b60405160a0810181811067ffffffffffffffff82111715614ccf57fe5b806040525082358152602083013560208201526040830135604082015260608301356060820152608083013560808201528091505092915050565b600060208284031215614d1b578081fd5b5051919050565b60008060408385031215614d34578182fd5b50508035926020909101359150565b60008060408385031215614d55578182fd5b505080516020909101519092909150565b600080600060608486031215614d7a578081fd5b505081359360208301359350604090920135919050565b600080600060608486031215614da5578081fd5b8351925060208401519150604084015190509250925092565b91825260601b6bffffffffffffffffffffffff1916602082015260340190565b918252602082015260400190565b6001600160a01b0391909116815260200190565b901515815260200190565b6000602080835283518082850152825b81811015614e3757858101830151858201604001528201614e1b565b81811115614e485783604083870101525b50601f01601f1916929092016040019392505050565b60208082526002908201527f4f4f000000000000000000000000000000000000000000000000000000000000604082015260600190565b60208082526002908201527f4e5a000000000000000000000000000000000000000000000000000000000000604082015260600190565b60208082526003908201527f4348490000000000000000000000000000000000000000000000000000000000604082015260600190565b6020808252600a908201527f6f6e6c79206f776e657200000000000000000000000000000000000000000000604082015260600190565b6020808252600c908201527f6e6f7420617070726f7665640000000000000000000000000000000000000000604082015260600190565b60208082526013908201527f696e73756666696369656e742073686172657300000000000000000000000000604082015260600190565b6fffffffffffffffffffffffffffffffff95861681526020810194909452604084019290925283166060830152909116608082015260a00190565b90815260200190565b9283526020830191909152604082015260600190565b948552602085019390935260408401919091526060830152608082015260a00190565b958652602086019490945260408501929092526060840152608083015260a082015260c00190565b60405181810167ffffffffffffffff8111828210171561506957fe5b604052919050565b6001600160a01b038116811461508657600080fd5b5056fe456e756d657261626c655365743a20696e646578206f7574206f6620626f756e64734552433732313a207472616e7366657220746f206e6f6e20455243373231526563656976657220696d706c656d656e7465724552433732313a207472616e7366657220746f20746865207a65726f2061646472657373416464726573733a20696e73756666696369656e742062616c616e636520666f722063616c6c4552433732313a206f70657261746f7220717565727920666f72206e6f6e6578697374656e7420746f6b656e4552433732313a20617070726f76652063616c6c6572206973206e6f74206f776e6572206e6f7220617070726f76656420666f7220616c6c4552433732313a2062616c616e636520717565727920666f7220746865207a65726f20616464726573734552433732313a206f776e657220717565727920666f72206e6f6e6578697374656e7420746f6b656e456e756d657261626c654d61703a20696e646578206f7574206f6620626f756e6473536166654d6174683a206d756c7469706c69636174696f6e206f766572666c6f774552433732313a20617070726f76656420717565727920666f72206e6f6e6578697374656e7420746f6b656e4552433732313a207472616e73666572206f6620746f6b656e2074686174206973206e6f74206f776e4552433732314d657461646174613a2055524920717565727920666f72206e6f6e6578697374656e7420746f6b656e4552433732313a20617070726f76616c20746f2063757272656e74206f776e65724552433732313a207472616e736665722063616c6c6572206973206e6f74206f776e6572206e6f7220617070726f7665645361666545524332303a204552433230206f7065726174696f6e20646964206e6f7420737563636565645361666545524332303a20617070726f76652066726f6d206e6f6e2d7a65726f20746f206e6f6e2d7a65726f20616c6c6f77616e6365a164736f6c6343000706000a",
  "linkReferences": {},
  "deployedLinkReferences": {}
}