{
  "_format": "hh-sol-artifact-1",
  "contractName": "YangNFTVault",
  "sourceName": "contracts/YangNFTVault.sol",
  "abi": [
    {
      "inputs": [],
      "stateMutability": "nonpayable",
      "type": "constructor"
    },
    {
      "anonymous": false,
      "inputs": [
        {
          "indexed": true,
          "internalType": "address",
          "name": "owner",
          "type": "address"
        },
        {
          "indexed": true,
          "internalType": "address",
          "name": "approved",
          "type": "address"
        },
        {
          "indexed": true,
          "internalType": "uint256",
          "name": "tokenId",
          "type": "uint256"
        }
      ],
      "name": "Approval",
      "type": "event"
    },
    {
      "anonymous": false,
      "inputs": [
        {
          "indexed": true,
          "internalType": "address",
          "name": "owner",
          "type": "address"
        },
        {
          "indexed": true,
          "internalType": "address",
          "name": "operator",
          "type": "address"
        },
        {
          "indexed": false,
          "internalType": "bool",
          "name": "approved",
          "type": "bool"
        }
      ],
      "name": "ApprovalForAll",
      "type": "event"
    },
    {
      "anonymous": false,
      "inputs": [
        {
          "indexed": true,
          "internalType": "address",
          "name": "recipient",
          "type": "address"
        },
        {
          "indexed": true,
          "internalType": "uint256",
          "name": "tokenId",
          "type": "uint256"
        }
      ],
      "name": "MintYangNFT",
      "type": "event"
    },
    {
      "anonymous": false,
      "inputs": [
        {
          "indexed": true,
          "internalType": "uint256",
          "name": "yangId",
          "type": "uint256"
        },
        {
          "indexed": true,
          "internalType": "uint256",
          "name": "chiId",
          "type": "uint256"
        },
        {
          "indexed": true,
          "internalType": "uint256",
          "name": "share",
          "type": "uint256"
        }
      ],
      "name": "Subscribe",
      "type": "event"
    },
    {
      "anonymous": false,
      "inputs": [
        {
          "indexed": true,
          "internalType": "address",
          "name": "from",
          "type": "address"
        },
        {
          "indexed": true,
          "internalType": "address",
          "name": "to",
          "type": "address"
        },
        {
          "indexed": true,
          "internalType": "uint256",
          "name": "tokenId",
          "type": "uint256"
        }
      ],
      "name": "Transfer",
      "type": "event"
    },
    {
      "anonymous": false,
      "inputs": [
        {
          "indexed": true,
          "internalType": "uint256",
          "name": "yangId",
          "type": "uint256"
        },
        {
          "indexed": true,
          "internalType": "uint256",
          "name": "chiId",
          "type": "uint256"
        },
        {
          "indexed": false,
          "internalType": "uint256",
          "name": "amount0",
          "type": "uint256"
        },
        {
          "indexed": false,
          "internalType": "uint256",
          "name": "amount1",
          "type": "uint256"
        }
      ],
      "name": "UnSubscribe",
      "type": "event"
    },
    {
      "inputs": [
        {
          "internalType": "address",
          "name": "to",
          "type": "address"
        },
        {
          "internalType": "uint256",
          "name": "tokenId",
          "type": "uint256"
        }
      ],
      "name": "approve",
      "outputs": [],
      "stateMutability": "nonpayable",
      "type": "function"
    },
    {
      "inputs": [
        {
          "internalType": "address",
          "name": "owner",
          "type": "address"
        }
      ],
      "name": "balanceOf",
      "outputs": [
        {
          "internalType": "uint256",
          "name": "",
          "type": "uint256"
        }
      ],
      "stateMutability": "view",
      "type": "function"
    },
    {
      "inputs": [],
      "name": "baseURI",
      "outputs": [
        {
          "internalType": "string",
          "name": "",
          "type": "string"
        }
      ],
      "stateMutability": "view",
      "type": "function"
    },
    {
      "inputs": [
        {
          "internalType": "uint256",
          "name": "yangId",
          "type": "uint256"
        },
        {
          "internalType": "uint256",
          "name": "chiId",
          "type": "uint256"
        }
      ],
      "name": "getAmounts",
      "outputs": [
        {
          "internalType": "uint256",
          "name": "amount0",
          "type": "uint256"
        },
        {
          "internalType": "uint256",
          "name": "amount1",
          "type": "uint256"
        }
      ],
      "stateMutability": "view",
      "type": "function"
    },
    {
      "inputs": [
        {
          "internalType": "uint256",
          "name": "tokenId",
          "type": "uint256"
        }
      ],
      "name": "getApproved",
      "outputs": [
        {
          "internalType": "address",
          "name": "",
          "type": "address"
        }
      ],
      "stateMutability": "view",
      "type": "function"
    },
    {
      "inputs": [
        {
          "internalType": "uint256",
          "name": "chiId",
          "type": "uint256"
        }
      ],
      "name": "getCHIAccruedFees",
      "outputs": [
        {
          "internalType": "uint256",
          "name": "fee0",
          "type": "uint256"
        },
        {
          "internalType": "uint256",
          "name": "fee1",
          "type": "uint256"
        }
      ],
      "stateMutability": "view",
      "type": "function"
    },
    {
      "inputs": [
        {
          "internalType": "uint256",
          "name": "chiId",
          "type": "uint256"
        }
      ],
      "name": "getCHITotalAmounts",
      "outputs": [
        {
          "internalType": "uint256",
          "name": "amount0",
          "type": "uint256"
        },
        {
          "internalType": "uint256",
          "name": "amount1",
          "type": "uint256"
        }
      ],
      "stateMutability": "view",
      "type": "function"
    },
    {
      "inputs": [
        {
          "internalType": "uint256",
          "name": "chiId",
          "type": "uint256"
        },
        {
          "internalType": "uint256",
          "name": "amount0Desired",
          "type": "uint256"
        },
        {
          "internalType": "uint256",
          "name": "amount1Desired",
          "type": "uint256"
        }
      ],
      "name": "getShares",
      "outputs": [
        {
          "internalType": "uint256",
          "name": "",
          "type": "uint256"
        }
      ],
      "stateMutability": "view",
      "type": "function"
    },
    {
      "inputs": [
        {
          "internalType": "address",
          "name": "recipient",
          "type": "address"
        }
      ],
      "name": "getTokenId",
      "outputs": [
        {
          "internalType": "uint256",
          "name": "",
          "type": "uint256"
        }
      ],
      "stateMutability": "view",
      "type": "function"
    },
    {
      "inputs": [
        {
          "internalType": "address",
          "name": "owner",
          "type": "address"
        },
        {
          "internalType": "address",
          "name": "operator",
          "type": "address"
        }
      ],
      "name": "isApprovedForAll",
      "outputs": [
        {
          "internalType": "bool",
          "name": "",
          "type": "bool"
        }
      ],
      "stateMutability": "view",
      "type": "function"
    },
    {
      "inputs": [
        {
          "internalType": "address",
          "name": "recipient",
          "type": "address"
        }
      ],
      "name": "mint",
      "outputs": [
        {
          "internalType": "uint256",
          "name": "tokenId",
          "type": "uint256"
        }
      ],
      "stateMutability": "nonpayable",
      "type": "function"
    },
    {
      "inputs": [],
      "name": "name",
      "outputs": [
        {
          "internalType": "string",
          "name": "",
          "type": "string"
        }
      ],
      "stateMutability": "view",
      "type": "function"
    },
    {
      "inputs": [],
      "name": "owner",
      "outputs": [
        {
          "internalType": "address",
          "name": "",
          "type": "address"
        }
      ],
      "stateMutability": "view",
      "type": "function"
    },
    {
      "inputs": [
        {
          "internalType": "uint256",
          "name": "tokenId",
          "type": "uint256"
        }
      ],
      "name": "ownerOf",
      "outputs": [
        {
          "internalType": "address",
          "name": "",
          "type": "address"
        }
      ],
      "stateMutability": "view",
      "type": "function"
    },
    {
      "inputs": [
        {
          "internalType": "bytes32",
          "name": "key",
          "type": "bytes32"
        }
      ],
      "name": "poolPositions",
      "outputs": [
        {
          "internalType": "uint128",
          "name": "liquidity",
          "type": "uint128"
        },
        {
          "internalType": "uint256",
          "name": "feeGrowthInside0LastX128",
          "type": "uint256"
        },
        {
          "internalType": "uint256",
          "name": "feeGrowthInside1LastX128",
          "type": "uint256"
        },
        {
          "internalType": "uint128",
          "name": "tokensOwed0",
          "type": "uint128"
        },
        {
          "internalType": "uint128",
          "name": "tokensOwed1",
          "type": "uint128"
        }
      ],
      "stateMutability": "view",
      "type": "function"
    },
    {
      "inputs": [
        {
          "internalType": "address",
          "name": "from",
          "type": "address"
        },
        {
          "internalType": "address",
          "name": "to",
          "type": "address"
        },
        {
          "internalType": "uint256",
          "name": "tokenId",
          "type": "uint256"
        }
      ],
      "name": "safeTransferFrom",
      "outputs": [],
      "stateMutability": "nonpayable",
      "type": "function"
    },
    {
      "inputs": [
        {
          "internalType": "address",
          "name": "from",
          "type": "address"
        },
        {
          "internalType": "address",
          "name": "to",
          "type": "address"
        },
        {
          "internalType": "uint256",
          "name": "tokenId",
          "type": "uint256"
        },
        {
          "internalType": "bytes",
          "name": "_data",
          "type": "bytes"
        }
      ],
      "name": "safeTransferFrom",
      "outputs": [],
      "stateMutability": "nonpayable",
      "type": "function"
    },
    {
      "inputs": [
        {
          "internalType": "address",
          "name": "operator",
          "type": "address"
        },
        {
          "internalType": "bool",
          "name": "approved",
          "type": "bool"
        }
      ],
      "name": "setApprovalForAll",
      "outputs": [],
      "stateMutability": "nonpayable",
      "type": "function"
    },
    {
      "inputs": [
        {
          "internalType": "address",
          "name": "_chiManager",
          "type": "address"
        }
      ],
      "name": "setCHIManager",
      "outputs": [],
      "stateMutability": "nonpayable",
      "type": "function"
    },
    {
      "inputs": [
        {
          "components": [
            {
              "internalType": "uint256",
              "name": "yangId",
              "type": "uint256"
            },
            {
              "internalType": "uint256",
              "name": "chiId",
              "type": "uint256"
            },
            {
              "internalType": "uint256",
              "name": "amount0Desired",
              "type": "uint256"
            },
            {
              "internalType": "uint256",
              "name": "amount1Desired",
              "type": "uint256"
            },
            {
              "internalType": "uint256",
              "name": "amount0Min",
              "type": "uint256"
            },
            {
              "internalType": "uint256",
              "name": "amount1Min",
              "type": "uint256"
            }
          ],
          "internalType": "struct IYangNFTVault.SubscribeParam",
          "name": "params",
          "type": "tuple"
        }
      ],
      "name": "subscribe",
      "outputs": [
        {
          "internalType": "uint256",
          "name": "amount0",
          "type": "uint256"
        },
        {
          "internalType": "uint256",
          "name": "amount1",
          "type": "uint256"
        },
        {
          "internalType": "uint256",
          "name": "shares",
          "type": "uint256"
        }
      ],
      "stateMutability": "nonpayable",
      "type": "function"
    },
    {
      "inputs": [
        {
          "internalType": "bytes4",
          "name": "interfaceId",
          "type": "bytes4"
        }
      ],
      "name": "supportsInterface",
      "outputs": [
        {
          "internalType": "bool",
          "name": "",
          "type": "bool"
        }
      ],
      "stateMutability": "view",
      "type": "function"
    },
    {
      "inputs": [],
      "name": "symbol",
      "outputs": [
        {
          "internalType": "string",
          "name": "",
          "type": "string"
        }
      ],
      "stateMutability": "view",
      "type": "function"
    },
    {
      "inputs": [
        {
          "internalType": "uint256",
          "name": "index",
          "type": "uint256"
        }
      ],
      "name": "tokenByIndex",
      "outputs": [
        {
          "internalType": "uint256",
          "name": "",
          "type": "uint256"
        }
      ],
      "stateMutability": "view",
      "type": "function"
    },
    {
      "inputs": [
        {
          "internalType": "address",
          "name": "owner",
          "type": "address"
        },
        {
          "internalType": "uint256",
          "name": "index",
          "type": "uint256"
        }
      ],
      "name": "tokenOfOwnerByIndex",
      "outputs": [
        {
          "internalType": "uint256",
          "name": "",
          "type": "uint256"
        }
      ],
      "stateMutability": "view",
      "type": "function"
    },
    {
      "inputs": [
        {
          "internalType": "uint256",
          "name": "tokenId",
          "type": "uint256"
        }
      ],
      "name": "tokenURI",
      "outputs": [
        {
          "internalType": "string",
          "name": "",
          "type": "string"
        }
      ],
      "stateMutability": "view",
      "type": "function"
    },
    {
      "inputs": [],
      "name": "totalSupply",
      "outputs": [
        {
          "internalType": "uint256",
          "name": "",
          "type": "uint256"
        }
      ],
      "stateMutability": "view",
      "type": "function"
    },
    {
      "inputs": [
        {
          "internalType": "address",
          "name": "from",
          "type": "address"
        },
        {
          "internalType": "address",
          "name": "to",
          "type": "address"
        },
        {
          "internalType": "uint256",
          "name": "tokenId",
          "type": "uint256"
        }
      ],
      "name": "transferFrom",
      "outputs": [],
      "stateMutability": "nonpayable",
      "type": "function"
    },
    {
      "inputs": [
        {
          "components": [
            {
              "internalType": "uint256",
              "name": "yangId",
              "type": "uint256"
            },
            {
              "internalType": "uint256",
              "name": "chiId",
              "type": "uint256"
            },
            {
              "internalType": "uint256",
              "name": "shares",
              "type": "uint256"
            },
            {
              "internalType": "uint256",
              "name": "amount0Min",
              "type": "uint256"
            },
            {
              "internalType": "uint256",
              "name": "amount1Min",
              "type": "uint256"
            }
          ],
          "internalType": "struct IYangNFTVault.UnSubscribeParam",
          "name": "params",
          "type": "tuple"
        }
      ],
      "name": "unsubscribe",
      "outputs": [],
      "stateMutability": "nonpayable",
      "type": "function"
    },
    {
      "inputs": [
        {
          "internalType": "address",
          "name": "token",
          "type": "address"
        }
      ],
      "name": "vaults",
      "outputs": [
        {
          "internalType": "uint256",
          "name": "",
          "type": "uint256"
        }
      ],
      "stateMutability": "view",
      "type": "function"
    },
    {
      "inputs": [
        {
          "internalType": "address",
          "name": "token0",
          "type": "address"
        },
        {
          "internalType": "uint256",
          "name": "amount0",
          "type": "uint256"
        },
        {
          "internalType": "address",
          "name": "token1",
          "type": "address"
        },
        {
          "internalType": "uint256",
          "name": "amount1",
          "type": "uint256"
        }
      ],
      "name": "withdraw",
      "outputs": [],
      "stateMutability": "nonpayable",
      "type": "function"
    },
    {
      "inputs": [
        {
          "internalType": "uint256",
          "name": "yangId",
          "type": "uint256"
        },
        {
          "internalType": "uint256",
          "name": "chiId",
          "type": "uint256"
        }
      ],
      "name": "yangPositions",
      "outputs": [
        {
          "internalType": "uint256",
          "name": "amount0",
          "type": "uint256"
        },
        {
          "internalType": "uint256",
          "name": "amount1",
          "type": "uint256"
        },
        {
          "internalType": "uint256",
          "name": "shares",
          "type": "uint256"
        }
      ],
      "stateMutability": "view",
      "type": "function"
    }
  ],
  "bytecode": "0x60806040526001600d553480156200001657600080fd5b50604080518082018252601781527f59494e204173736574204d616e61676572205661756c740000000000000000006020808301919091528251808401909352600483526359414e4760e01b908301526001600055906200007e6301ffc9a760e01b620000fa565b81516200009390600790602085019062000182565b508051620000a990600890602084019062000182565b50620000bc6380ac58cd60e01b620000fa565b620000ce635b5e139f60e01b620000fa565b620000e063780e9d6360e01b620000fa565b5050600b80546001600160a01b031916331790556200022e565b6001600160e01b031980821614156200015a576040805162461bcd60e51b815260206004820152601c60248201527f4552433136353a20696e76616c696420696e7465726661636520696400000000604482015290519081900360640190fd5b6001600160e01b0319166000908152600160208190526040909120805460ff19169091179055565b828054600181600116156101000203166002900490600052602060002090601f016020900481019282620001ba576000855562000205565b82601f10620001d557805160ff191683800117855562000205565b8280016001018555821562000205579182015b8281111562000205578251825591602001919060010190620001e8565b506200021392915062000217565b5090565b5b8082111562000213576000815560010162000218565b6153af806200023e6000396000f3fe608060405234801561001057600080fd5b50600436106101e55760003560e01c80635f0600f71161010f578063a22cb465116100a2578063c87b56dd11610071578063c87b56dd14610421578063e5d9cc9a14610434578063e985e9c514610447578063f15376861461045a576101e5565b8063a22cb465146103d5578063a244a481146103e8578063a622ee7c146103fb578063b88d4fde1461040e576101e5565b806370a08231116100de57806370a082311461038e5780638ae881ab146103a15780638da5cb5b146103c557806395d89b41146103cd576101e5565b80635f0600f71461034d5780636352211e146103605780636a627842146103735780636c0360eb14610386576101e5565b806323b872dd1161018757806342e6e0fe1161015657806342e6e0fe146103015780634b2084e3146103145780634f6ccce7146103275780635c0d107e1461033a576101e5565b806323b872dd146102b55780632f745c59146102c85780633ab2e4ba146102db57806342842e0e146102ee576101e5565b8063081812fc116101c3578063081812fc1461024a578063095ea7b31461026a57806316529c461461027f57806318160ddd146102a0576101e5565b806301ffc9a7146101ea5780630589ea3d1461021357806306fdde0314610235575b600080fd5b6101fd6101f8366004614c39565b61046d565b60405161020a9190614e4b565b60405180910390f35b610226610221366004614d6d565b6104a8565b60405161020a93929190615037565b61023d61051d565b60405161020a9190614e56565b61025d610258366004614c21565b6105b3565b60405161020a9190614e37565b61027d610278366004614baf565b610615565b005b61029261028d366004614d6d565b6106eb565b60405161020a929190614e29565b6102a8610834565b60405161020a919061502e565b61027d6102c3366004614a88565b610845565b6102a86102d6366004614baf565b61089c565b61027d6102e9366004614cec565b6108c7565b61027d6102fc366004614a88565b610d57565b6102a861030f366004614db1565b610d72565b61027d610322366004614bda565b610e44565b6102a8610335366004614c21565b610f9e565b610226610348366004614c79565b610fb4565b61029261035b366004614c21565b6112bc565b61025d61036e366004614c21565b6113ef565b6102a8610381366004614993565b611417565b61023d6114ab565b6102a861039c366004614993565b61150c565b6103b46103af366004614c21565b611574565b60405161020a959493929190614ff3565b61025d6115e7565b61023d6115f6565b61027d6103e3366004614b7e565b611657565b61027d6103f6366004614993565b61177a565b6102a8610409366004614993565b6117de565b61027d61041c366004614ac8565b611830565b61023d61042f366004614c21565b61188e565b610292610442366004614c21565b611b0f565b6101fd6104553660046149cb565b611cb3565b6102a8610468366004614993565b611ce1565b7fffffffff00000000000000000000000000000000000000000000000000000000811660009081526001602052604090205460ff165b919050565b600080600080600f600087876040516020016104c5929190614e29565b60408051601f1981840301815291815281516020928301208352828201939093529082016000208251606081018452815480825260018301549382018490526002909201549301839052989097509095509350505050565b60078054604080516020601f60026000196101006001881615020190951694909404938401819004810282018101909252828152606093909290918301828280156105a95780601f1061057e576101008083540402835291602001916105a9565b820191906000526020600020905b81548152906001019060200180831161058c57829003601f168201915b5050505050905090565b60006105be82611cfc565b6105f95760405162461bcd60e51b815260040180806020018281038252602c81526020018061526d602c913960400191505060405180910390fd5b506000908152600560205260409020546001600160a01b031690565b6000610620826113ef565b9050806001600160a01b0316836001600160a01b031614156106735760405162461bcd60e51b81526004018080602001828103825260218152602001806152f16021913960400191505060405180910390fd5b806001600160a01b0316610685611d09565b6001600160a01b031614806106a157506106a181610455611d09565b6106dc5760405162461bcd60e51b815260040180806020018281038252603881526020018061519f6038913960400191505060405180910390fd5b6106e68383611d0d565b505050565b600c5460009081906001600160a01b03166107215760405162461bcd60e51b815260040161071890614f17565b60405180910390fd5b60008484604051602001610736929190614e29565b60408051601f1981840301815282825280516020918201206000818152600f83528390206060850184528054855260018101549285019290925260029091015491830182905292501561082b57600c54604051635cef66b360e11b815260009182916001600160a01b039091169063b9decd66906107b8908a9060040161502e565b6101006040518083038186803b1580156107d157600080fd5b505afa1580156107e5573d6000803e3d6000fd5b505050506040513d601f19601f820116820180604052508101906108099190614a03565b5050505093509350505061082382828a8660400151611d93565b909650945050505b50509250929050565b60006108406003611db4565b905090565b610856610850611d09565b82611dbf565b6108915760405162461bcd60e51b81526004018080602001828103825260318152602001806153126031913960400191505060405180910390fd5b6106e6838383611e63565b6001600160a01b03821660009081526002602052604081206108be9083611faf565b90505b92915050565b80516108d33382611dbf565b6108ef5760405162461bcd60e51b815260040161071890614f85565b600c546001600160a01b03166109175760405162461bcd60e51b815260040161071890614f17565b600c546020830151604051635cef66b360e11b815260009283926001600160a01b039091169163b9decd669161094f9160040161502e565b6101006040518083038186803b15801561096857600080fd5b505afa15801561097c573d6000803e3d6000fd5b505050506040513d601f19601f820116820180604052508101906109a09190614a03565b505050509350935050506000846000015185602001516040516020016109c7929190614e29565b6040516020818303038152906040528051906020012090508460400151600f6000838152602001908152602001600020600201541015610a195760405162461bcd60e51b815260040161071890614fbc565b600c548551602087015160408089015160608a015160808b015192517f46698e7500000000000000000000000000000000000000000000000000000000815260009687966001600160a01b03909116956346698e7595610a7f959294919360040161504d565b6040805180830381600087803b158015610a9857600080fd5b505af1158015610aac573d6000803e3d6000fd5b505050506040513d601f19601f82011682018060405250810190610ad09190614d8e565b9092509050848215610ba85760008860000151826001600160a01b0316630dfe16816040518163ffffffff1660e01b815260040160206040518083038186803b158015610b1c57600080fd5b505afa158015610b30573d6000803e3d6000fd5b505050506040513d601f19601f82011682018060405250810190610b5491906149af565b604051602001610b65929190614e09565b60408051601f19818403018152918152815160209283012060008181526011909352912054909150610b979085611fbb565b600091825260116020526040909120555b8115610c7a5760008860000151826001600160a01b031663d21220a76040518163ffffffff1660e01b815260040160206040518083038186803b158015610bee57600080fd5b505afa158015610c02573d6000803e3d6000fd5b505050506040513d601f19601f82011682018060405250810190610c2691906149af565b604051602001610c37929190614e09565b60408051601f19818403018152918152815160209283012060008181526011909352912054909150610c699084611fbb565b600091825260116020526040909120555b87516020890151600091610c9191600f9190612015565b9050610cae8960400151826002015461205090919063ffffffff16565b600282015580548410610cc2576000610cce565b8054610cce9085612050565b815560018101548310610ce2576000610cf1565b6001810154610cf19084612050565b600182015588518690610d0a90601090859084906120ad565b60208a01518a516040517fb65ca58d729d89d58e1ed48a179b40d4a6b56e3e101a10085a0f43915cf1448890610d439089908990614e29565b60405180910390a350505050505050505050565b6106e683838360405180602001604052806000815250611830565b600c546000906001600160a01b0316610d9d5760405162461bcd60e51b815260040161071890614f17565b600c54604051635cef66b360e11b81526000916001600160a01b03169063b9decd6690610dce90889060040161502e565b6101006040518083038186803b158015610de757600080fd5b505afa158015610dfb573d6000803e3d6000fd5b505050506040513d601f19601f82011682018060405250810190610e1f9190614a03565b5050505093505050506000610e3582868661229c565b509093505050505b9392505050565b60026000541415610e9c576040805162461bcd60e51b815260206004820152601f60248201527f5265656e7472616e637947756172643a207265656e7472616e742063616c6c00604482015290519081900360640190fd5b60026000908155610eac33611ce1565b90508315610f205760008186604051602001610ec9929190614e09565b60408051601f19818403018152918152815160209283012060008181526011909352912054909150610efb9086612050565b600082815260116020526040902055610f1e6001600160a01b03871633876123b6565b505b8115610f925760008184604051602001610f3b929190614e09565b60408051601f19818403018152918152815160209283012060008181526011909352912054909150610f6d9084612050565b600082815260116020526040902055610f906001600160a01b03851633856123b6565b505b50506001600055505050565b600080610fac600384612436565b509392505050565b60008060008360000151610fc83382611dbf565b610fe45760405162461bcd60e51b815260040161071890614f85565b6002600054141561103c576040805162461bcd60e51b815260206004820152601f60248201527f5265656e7472616e637947756172643a207265656e7472616e742063616c6c00604482015290519081900360640190fd5b6002600055600c546001600160a01b03166110695760405162461bcd60e51b815260040161071890614f17565b600c546020860151604051635cef66b360e11b815260009283926001600160a01b039091169163b9decd66916110a19160040161502e565b6101006040518083038186803b1580156110ba57600080fd5b505afa1580156110ce573d6000803e3d6000fd5b505050506040513d601f19601f820116820180604052508101906110f29190614a03565b5050505093509350505060008290506000816001600160a01b0316630dfe16816040518163ffffffff1660e01b815260040160206040518083038186803b15801561113c57600080fd5b505afa158015611150573d6000803e3d6000fd5b505050506040513d601f19601f8201168201806040525081019061117491906149af565b90506000826001600160a01b031663d21220a76040518163ffffffff1660e01b815260040160206040518083038186803b1580156111b157600080fd5b505afa1580156111c5573d6000803e3d6000fd5b505050506040513d601f19601f820116820180604052508101906111e991906149af565b90506111ff828b60400151838d60600151612452565b61120a82828c6124bc565b8c5160208e0151939c50919a50985060009161122891600f91612015565b8054909150611237908b611fbb565b81556001810154611248908a611fbb565b6001820155600281015461125c9089611fbb565b60028201558a5161127390601090869088906120ad565b60208b01518b516040518a9291907f17de92c1076ec5855c3edd4a6084a82c184adfda177deb99d6532697cdac91cb90600090a450506001600055509597949650929450505050565b600c5460009081906001600160a01b03166112e95760405162461bcd60e51b815260040161071890614f17565b600c54604051635cef66b360e11b81526000916001600160a01b03169063b9decd669061131a90879060040161502e565b6101006040518083038186803b15801561133357600080fd5b505afa158015611347573d6000803e3d6000fd5b505050506040513d601f19601f8201168201806040525081019061136b9190614a03565b505050509350505050806001600160a01b031663c4a7761e6040518163ffffffff1660e01b8152600401604080518083038186803b1580156113ac57600080fd5b505afa1580156113c0573d6000803e3d6000fd5b505050506040513d601f19601f820116820180604052508101906113e49190614d8e565b909590945092505050565b60006108c18260405180606001604052806029815260200161520160299139600391906126c7565b6001600160a01b0381166000908152600e60205260408120541561144d5760405162461bcd60e51b815260040161071890614ea9565b50600d80546001810190915561146382826126d4565b6001600160a01b0382166000818152600e6020526040808220849055518392917f74629109564de5ce9d04dc84bb5ecd8fbb0c98843a3fbd43f057825a9255449c91a3919050565b600a8054604080516020601f60026000196101006001881615020190951694909404938401819004810282018101909252828152606093909290918301828280156105a95780601f1061057e576101008083540402835291602001916105a9565b60006001600160a01b0382166115535760405162461bcd60e51b815260040180806020018281038252602a8152602001806151d7602a913960400191505060405180910390fd5b6001600160a01b03821660009081526002602052604090206108c190611db4565b600090815260106020908152604091829020825160a08101845281546fffffffffffffffffffffffffffffffff9081168083526001840154948301859052600284015495830186905260039093015480821660608401819052600160801b90910490911660809092018290529194929392565b600b546001600160a01b031681565b60088054604080516020601f60026000196101006001881615020190951694909404938401819004810282018101909252828152606093909290918301828280156105a95780601f1061057e576101008083540402835291602001916105a9565b61165f611d09565b6001600160a01b0316826001600160a01b031614156116c5576040805162461bcd60e51b815260206004820152601960248201527f4552433732313a20617070726f766520746f2063616c6c657200000000000000604482015290519081900360640190fd5b80600660006116d2611d09565b6001600160a01b0390811682526020808301939093526040918201600090812091871680825291909352912080547fffffffffffffffffffffffffffffffffffffffffffffffffffffffffffffff001692151592909217909155611734611d09565b6001600160a01b03167f17307eab39ab6107e8899845ad3d59bd9653f200f220920489ca2b5937696c318360405180821515815260200191505060405180910390a35050565b600b546001600160a01b031633146117a45760405162461bcd60e51b815260040161071890614f4e565b600c80547fffffffffffffffffffffffff0000000000000000000000000000000000000000166001600160a01b0392909216919091179055565b6000806117ea33611ce1565b9050601160008285604051602001611803929190614e09565b60405160208183030381529060405280519060200120815260200190815260200160002054915050919050565b61184161183b611d09565b83611dbf565b61187c5760405162461bcd60e51b81526004018080602001828103825260318152602001806153126031913960400191505060405180910390fd5b61188884848484612802565b50505050565b606061189982611cfc565b6118d45760405162461bcd60e51b815260040180806020018281038252602f8152602001806152c2602f913960400191505060405180910390fd5b60008281526009602090815260408083208054825160026001831615610100026000190190921691909104601f8101859004850282018501909352828152929091908301828280156119675780601f1061193c57610100808354040283529160200191611967565b820191906000526020600020905b81548152906001019060200180831161194a57829003601f168201915b5050505050905060006119786114ab565b905080516000141561198c575090506104a3565b815115611a4d5780826040516020018083805190602001908083835b602083106119c75780518252601f1990920191602091820191016119a8565b51815160209384036101000a600019018019909216911617905285519190930192850191508083835b60208310611a0f5780518252601f1990920191602091820191016119f0565b6001836020036101000a03801982511681845116808217855250505050505090500192505050604051602081830303815290604052925050506104a3565b80611a5785612854565b6040516020018083805190602001908083835b60208310611a895780518252601f199092019160209182019101611a6a565b51815160209384036101000a600019018019909216911617905285519190930192850191508083835b60208310611ad15780518252601f199092019160209182019101611ab2565b6001836020036101000a0380198251168184511680821785525050505050509050019250505060405160208183030381529060405292505050919050565b600c5460009081906001600160a01b0316611b3c5760405162461bcd60e51b815260040161071890614f17565b600c54604051635cef66b360e11b81526000916001600160a01b03169063b9decd6690611b6d90879060040161502e565b6101006040518083038186803b158015611b8657600080fd5b505afa158015611b9a573d6000803e3d6000fd5b505050506040513d601f19601f82011682018060405250810190611bbe9190614a03565b505050509350505050806001600160a01b031663eae989a26040518163ffffffff1660e01b815260040160206040518083038186803b158015611c0057600080fd5b505afa158015611c14573d6000803e3d6000fd5b505050506040513d601f19601f82011682018060405250810190611c389190614d55565b9250806001600160a01b031663a00fa77f6040518163ffffffff1660e01b815260040160206040518083038186803b158015611c7357600080fd5b505afa158015611c87573d6000803e3d6000fd5b505050506040513d601f19601f82011682018060405250810190611cab9190614d55565b915050915091565b6001600160a01b03918216600090815260066020908152604080832093909416825291909152205460ff1690565b6001600160a01b03166000908152600e602052604090205490565b60006108c1600383612963565b3390565b600081815260056020526040902080547fffffffffffffffffffffffff0000000000000000000000000000000000000000166001600160a01b0384169081179091558190611d5a826113ef565b6001600160a01b03167f8c5be1e5ebec7d5bd14f71427d1e84f3dd0314c0f7b2291e5b200ac8c7c3b92560405160405180910390a45050565b6000808486611da5818333898961296f565b90999098509650505050505050565b60006108c182612ef2565b6000611dca82611cfc565b611e055760405162461bcd60e51b815260040180806020018281038252602c815260200180615173602c913960400191505060405180910390fd5b6000611e10836113ef565b9050806001600160a01b0316846001600160a01b03161480611e4b5750836001600160a01b0316611e40846105b3565b6001600160a01b0316145b80611e5b5750611e5b8185611cb3565b949350505050565b826001600160a01b0316611e76826113ef565b6001600160a01b031614611ebb5760405162461bcd60e51b81526004018080602001828103825260298152602001806152996029913960400191505060405180910390fd5b6001600160a01b038216611f005760405162461bcd60e51b81526004018080602001828103825260248152602001806151296024913960400191505060405180910390fd5b611f0b8383836106e6565b611f16600082611d0d565b6001600160a01b0383166000908152600260205260409020611f389082612ef6565b506001600160a01b0382166000908152600260205260409020611f5b9082612f02565b50611f6860038284612f0e565b5080826001600160a01b0316846001600160a01b03167fddf252ad1be2c89b69c2b068fc378daa952ba7f163c4a11628f55a4df523b3ef60405160405180910390a4505050565b60006108be8383612f24565b6000828201838110156108be576040805162461bcd60e51b815260206004820152601b60248201527f536166654d6174683a206164646974696f6e206f766572666c6f770000000000604482015290519081900360640190fd5b604080516020808201949094528082019290925280518083038201815260609092018152815191830191909120600090815292909152902090565b6000828211156120a7576040805162461bcd60e51b815260206004820152601e60248201527f536166654d6174683a207375627472616374696f6e206f766572666c6f770000604482015290519081900360640190fd5b50900390565b60005b826001600160a01b031663b135a1456040518163ffffffff1660e01b815260040160206040518083038186803b1580156120e957600080fd5b505afa1580156120fd573d6000803e3d6000fd5b505050506040513d602081101561211357600080fd5b505181101561229557600080846001600160a01b031663cc364f48846040518263ffffffff1660e01b815260040180828152602001915050604080518083038186803b15801561216257600080fd5b505afa158015612176573d6000803e3d6000fd5b505050506040513d604081101561218c57600080fd5b508051602090910151909250905060006121a887878585612f88565b6fffffffffffffffffffffffffffffffff16111561228b5760006121cf888688868661300d565b905060008060008060008b6001600160a01b031663514ea4bf6121f38d8b8b613037565b6040518263ffffffff1660e01b81526004018082815260200191505060a06040518083038186803b15801561222757600080fd5b505afa15801561223b573d6000803e3d6000fd5b505050506040513d60a081101561225157600080fd5b5080516020820151604083015160608401516080909401519298509096509450909250905061228486868686868661308d565b5050505050505b50506001016120b0565b5050505050565b600080600080869050600080826001600160a01b031663c4a7761e6040518163ffffffff1660e01b8152600401604080518083038186803b1580156122e057600080fd5b505afa1580156122f4573d6000803e3d6000fd5b505050506040513d604081101561230a57600080fd5b81019080805190602001909291908051906020019092919050505091509150600080600061239f85858d8d8a6001600160a01b03166318160ddd6040518163ffffffff1660e01b815260040160206040518083038186803b15801561236e57600080fd5b505afa158015612382573d6000803e3d6000fd5b505050506040513d602081101561239857600080fd5b50516130fd565b919a50985096505050505050505b93509350939050565b604080516001600160a01b038416602482015260448082018490528251808303909101815260649091019091526020810180517bffffffffffffffffffffffffffffffffffffffffffffffffffffffff167fa9059cbb000000000000000000000000000000000000000000000000000000001790526106e6908490613230565b600080808061244586866132e1565b9097909650945050505050565b600083116124725760405162461bcd60e51b815260040161071890614ee0565b600081116124925760405162461bcd60e51b815260040161071890614ee0565b6124a76001600160a01b03851633308661335c565b6118886001600160a01b03831633308461335c565b600c546040820151600091829182916124e2916001600160a01b038981169216906133e4565b600c546060850151612502916001600160a01b03888116929116906133e4565b600c5484516020860151604080880151606089015160808a015160a08b015193517fec28fcac0000000000000000000000000000000000000000000000000000000081526001600160a01b039097169663ec28fcac9661256b9690959094939291600401615070565b606060405180830381600087803b15801561258557600080fd5b505af1158015612599573d6000803e3d6000fd5b505050506040513d601f19601f820116820180604052508101906125bd9190614ddc565b604087015191955093509091508390031561262b5783516040516000916125e8918990602001614e09565b60408051601f1981840301815291815281516020928301206000818152601190935291205490915061261a9085611fbb565b600091825260116020526040909120555b60608401518290031561269157835160405160009161264e918890602001614e09565b60408051601f198184030181529181528151602092830120600081815260119093529120549091506126809084611fbb565b600091825260116020526040909120555b600c546126ac906001600160a01b03888116911660006133e4565b600c546123ad906001600160a01b03878116911660006133e4565b6000611e5b84848461353e565b6001600160a01b03821661272f576040805162461bcd60e51b815260206004820181905260248201527f4552433732313a206d696e7420746f20746865207a65726f2061646472657373604482015290519081900360640190fd5b61273881611cfc565b1561278a576040805162461bcd60e51b815260206004820152601c60248201527f4552433732313a20746f6b656e20616c7265616479206d696e74656400000000604482015290519081900360640190fd5b612796600083836106e6565b6001600160a01b03821660009081526002602052604090206127b89082612f02565b506127c560038284612f0e565b5060405181906001600160a01b038416906000907fddf252ad1be2c89b69c2b068fc378daa952ba7f163c4a11628f55a4df523b3ef908290a45050565b61280d848484611e63565b61281984848484613608565b6118885760405162461bcd60e51b81526004018080602001828103825260328152602001806150f76032913960400191505060405180910390fd5b606081612895575060408051808201909152600181527f300000000000000000000000000000000000000000000000000000000000000060208201526104a3565b8160005b81156128ad57600101600a82049150612899565b60008167ffffffffffffffff811180156128c657600080fd5b506040519080825280601f01601f1916602001820160405280156128f1576020820181803683370190505b50859350905060001982015b831561295a57600a840660300160f81b8282806001900393508151811061292057fe5b60200101907effffffffffffffffffffffffffffffffffffffffffffffffffffffffffffff1916908160001a905350600a840493506128fd565b50949350505050565b60006108be83836137e4565b60008060005b866001600160a01b031663b135a1456040518163ffffffff1660e01b815260040160206040518083038186803b1580156129ae57600080fd5b505afa1580156129c2573d6000803e3d6000fd5b505050506040513d60208110156129d857600080fd5b5051811015612b2f57600080886001600160a01b031663cc364f48846040518263ffffffff1660e01b815260040180828152602001915050604080518083038186803b158015612a2757600080fd5b505afa158015612a3b573d6000803e3d6000fd5b505050506040513d6040811015612a5157600080fd5b50805160209091015190925090506000612a6d8b8b8585612f88565b90506fffffffffffffffffffffffffffffffff811615612b245760006040518061010001604052808d6001600160a01b031681526020018c6001600160a01b031681526020018b6001600160a01b031681526020018a8152602001836fffffffffffffffffffffffffffffffff1681526020018981526020018560020b81526020018460020b8152509050600080612b04836137fc565b91509150612b128983611fbb565b9850612b1e8882611fbb565b97505050505b505050600101612975565b506000876001600160a01b0316630dfe16816040518163ffffffff1660e01b815260040160206040518083038186803b158015612b6b57600080fd5b505afa158015612b7f573d6000803e3d6000fd5b505050506040513d6020811015612b9557600080fd5b5051604080517fd21220a700000000000000000000000000000000000000000000000000000000815290519192506000916001600160a01b038b169163d21220a7916004808301926020929190829003018186803b158015612bf657600080fd5b505afa158015612c0a573d6000803e3d6000fd5b505050506040513d6020811015612c2057600080fd5b5051604080517f70a082310000000000000000000000000000000000000000000000000000000081526001600160a01b038b811660048301529151929350600092612db492612d4992908716916370a0823191602480820192602092909190829003018186803b158015612c9357600080fd5b505afa158015612ca7573d6000803e3d6000fd5b505050506040513d6020811015612cbd57600080fd5b5051604080517feae989a200000000000000000000000000000000000000000000000000000000815290516001600160a01b038e169163eae989a2916004808301926020929190829003018186803b158015612d1857600080fd5b505afa158015612d2c573d6000803e3d6000fd5b505050506040513d6020811015612d4257600080fd5b5051612050565b878b6001600160a01b03166318160ddd6040518163ffffffff1660e01b815260040160206040518083038186803b158015612d8357600080fd5b505afa158015612d97573d6000803e3d6000fd5b505050506040513d6020811015612dad57600080fd5b5051613967565b90506000612eca612e90846001600160a01b03166370a082318d6040518263ffffffff1660e01b815260040180826001600160a01b0316815260200191505060206040518083038186803b158015612e0b57600080fd5b505afa158015612e1f573d6000803e3d6000fd5b505050506040513d6020811015612e3557600080fd5b5051604080517fa00fa77f00000000000000000000000000000000000000000000000000000000815290516001600160a01b038f169163a00fa77f916004808301926020929190829003018186803b158015612d1857600080fd5b888c6001600160a01b03166318160ddd6040518163ffffffff1660e01b815260040160206040518083038186803b158015612d8357600080fd5b9050612ed68683611fbb565b9550612ee28582611fbb565b9450505050509550959350505050565b5490565b60006108be8383613a16565b60006108be8383613adc565b6000611e5b84846001600160a01b038516613b26565b81546000908210612f665760405162461bcd60e51b81526004018080602001828103825260228152602001806150d56022913960400191505060405180910390fd5b826000018281548110612f7557fe5b9060005260206000200154905092915050565b6000846001600160a01b031663514ea4bf612fa4868686613037565b6040518263ffffffff1660e01b81526004018082815260200191505060a06040518083038186803b158015612fd857600080fd5b505afa158015612fec573d6000803e3d6000fd5b505050506040513d60a081101561300257600080fd5b505195945050505050565b600085600061301e87878787613bbd565b8152602001908152602001600020905095945050505050565b6040805160609490941b6bffffffffffffffffffffffff1916602080860191909152600293840b60e890811b60348701529290930b90911b60378401528051808403601a018152603a9093019052815191012090565b85546fffffffffffffffffffffffffffffffff9586167fffffffffffffffffffffffffffffffff000000000000000000000000000000009182161787556001870194909455600286019290925560039094018054918416600160801b029484169190921617909116919091179055565b6000808083158061310e5750600088115b806131195750600087115b61311f57fe5b8361313a5750849050836131338282613c16565b9250613225565b8761314c575083613133818589613967565b8661315f5785915061313382858a613967565b600061317d61316e888a613c2d565b613178888c613c2d565b613c86565b9050600081116131d4576040805162461bcd60e51b815260206004820152600160248201527f6300000000000000000000000000000000000000000000000000000000000000604482015290519081900360640190fd5b6131f26131eb6131e5836001612050565b8a613c95565b6001611fbb565b925061320b6131eb613205836001612050565b8b613c95565b915061322161321b82878c613967565b89613c95565b9350505b955095509592505050565b6000613285826040518060400160405280602081526020017f5361666545524332303a206c6f772d6c6576656c2063616c6c206661696c6564815250856001600160a01b0316613cfc9092919063ffffffff16565b8051909150156106e6578080602001905160208110156132a457600080fd5b50516106e65760405162461bcd60e51b815260040180806020018281038252602a815260200180615343602a913960400191505060405180910390fd5b8154600090819083106133255760405162461bcd60e51b815260040180806020018281038252602281526020018061522a6022913960400191505060405180910390fd5b600084600001848154811061333657fe5b906000526020600020906002020190508060000154816001015492509250509250929050565b604080516001600160a01b0380861660248301528416604482015260648082018490528251808303909101815260849091019091526020810180517bffffffffffffffffffffffffffffffffffffffffffffffffffffffff167f23b872dd00000000000000000000000000000000000000000000000000000000179052611888908590613230565b8015806134835750604080517fdd62ed3e0000000000000000000000000000000000000000000000000000000081523060048201526001600160a01b03848116602483015291519185169163dd62ed3e91604480820192602092909190829003018186803b15801561345557600080fd5b505afa158015613469573d6000803e3d6000fd5b505050506040513d602081101561347f57600080fd5b5051155b6134be5760405162461bcd60e51b815260040180806020018281038252603681526020018061536d6036913960400191505060405180910390fd5b604080516001600160a01b038416602482015260448082018490528251808303909101815260649091019091526020810180517bffffffffffffffffffffffffffffffffffffffffffffffffffffffff167f095ea7b3000000000000000000000000000000000000000000000000000000001790526106e6908490613230565b600082815260018401602052604081205482816135d95760405162461bcd60e51b81526004018080602001828103825283818151815260200191508051906020019080838360005b8381101561359e578181015183820152602001613586565b50505050905090810190601f1680156135cb5780820380516001836020036101000a031916815260200191505b509250505060405180910390fd5b508460000160018203815481106135ec57fe5b9060005260206000209060020201600101549150509392505050565b600061361c846001600160a01b0316613d0b565b61362857506001611e5b565b60006137797f150b7a0200000000000000000000000000000000000000000000000000000000613656611d09565b88878760405160240180856001600160a01b03168152602001846001600160a01b0316815260200183815260200180602001828103825283818151815260200191508051906020019080838360005b838110156136bd5781810151838201526020016136a5565b50505050905090810190601f1680156136ea5780820380516001836020036101000a031916815260200191505b5095505050505050604051602081830303815290604052907bffffffffffffffffffffffffffffffffffffffffffffffffffffffff19166020820180517bffffffffffffffffffffffffffffffffffffffffffffffffffffffff83818316178352505050506040518060600160405280603281526020016150f7603291396001600160a01b0388169190613cfc565b9050600081806020019051602081101561379257600080fd5b50517fffffffff00000000000000000000000000000000000000000000000000000000167f150b7a02000000000000000000000000000000000000000000000000000000001492505050949350505050565b60009081526001919091016020526040902054151590565b600080600061386861386085608001516fffffffffffffffffffffffffffffffff168660a0015187602001516001600160a01b03166318160ddd6040518163ffffffff1660e01b815260040160206040518083038186803b158015612d8357600080fd5b600003613d11565b9050600081600f0b1315613961576060840151845160c086015160e087015160009283926138969287613d22565b9150915060006138b48489602001518a60c001518b60e00151613bbd565b905060006138cf89602001518a60c001518b60e00151613037565b905060006040518060c001604052808b600001516001600160a01b031681526020018b604001516001600160a01b031681526020018481526020018381526020018681526020018581525090506000806139328c60c001518d60e0015185613e3f565b915091508187116139435786613945565b815b9a508086116139545785613956565b805b995050505050505050505b50915091565b600080806000198587098686029250828110908390030390508061399d576000841161399257600080fd5b508290049050610e3d565b8084116139a957600080fd5b6000848688096000868103871696879004966002600389028118808a02820302808a02820302808a02820302808a02820302808a02820302808a02909103029181900381900460010186841190950394909402919094039290920491909117919091029150509392505050565b60008181526001830160205260408120548015613ad25783546000198083019190810190600090879083908110613a4957fe5b9060005260206000200154905080876000018481548110613a6657fe5b600091825260208083209091019290925582815260018981019092526040902090840190558654879080613a9657fe5b600190038181906000526020600020016000905590558660010160008781526020019081526020016000206000905560019450505050506108c1565b60009150506108c1565b6000613ae883836137e4565b613b1e575081546001818101845560008481526020808220909301849055845484825282860190935260409020919091556108c1565b5060006108c1565b600082815260018401602052604081205480613b8b575050604080518082018252838152602080820184815286546001818101895560008981528481209551600290930290950191825591519082015586548684528188019092529290912055610e3d565b82856000016001830381548110613b9e57fe5b9060005260206000209060020201600101819055506000915050610e3d565b6040805160208082019690965260609490941b6bffffffffffffffffffffffff191684820152600292830b60e890811b60548601529190920b901b60578301528051808303603a018152605a9092019052805191012090565b600081831015613c2657816108be565b5090919050565b600082613c3c575060006108c1565b82820282848281613c4957fe5b04146108be5760405162461bcd60e51b815260040180806020018281038252602181526020018061524c6021913960400191505060405180910390fd5b6000818310613c2657816108be565b6000808211613ceb576040805162461bcd60e51b815260206004820152601a60248201527f536166654d6174683a206469766973696f6e206279207a65726f000000000000604482015290519081900360640190fd5b818381613cf457fe5b049392505050565b6060611e5b8484600085613f30565b3b151590565b80600f81900b81146104a357600080fd5b600080600080876001600160a01b0316633850c7bd6040518163ffffffff1660e01b815260040160e06040518083038186803b158015613d6157600080fd5b505afa158015613d75573d6000803e3d6000fd5b505050506040513d60e0811015613d8b57600080fd5b5080516020909101519092509050600080600f87900b15613e2b578860020b8360020b1215613dd657613dcf613dc08a61408b565b613dc98a61408b565b896143d9565b9150613e2b565b8760020b8360020b1215613e0d57613df184613dc98a61408b565b9150613e06613dff8a61408b565b858961441d565b9050613e2b565b613e28613e198a61408b565b613e228a61408b565b8961441d565b90505b60009182039a910398509650505050505050565b600080600080600080600087602001516001600160a01b0316638ae881ab89604001516040518263ffffffff1660e01b81526004018082815260200191505060a06040518083038186803b158015613e9657600080fd5b505afa158015613eaa573d6000803e3d6000fd5b505050506040513d60a0811015613ec057600080fd5b508051602082015160408301516060808501516080909501518d51918e0151949a5092985090965092945092506000918291613efe91908e8e61444c565b91509150613f1d8787878d6080015188018e60a00151880187876146f4565b9850985050505050505050935093915050565b606082471015613f715760405162461bcd60e51b815260040180806020018281038252602681526020018061514d6026913960400191505060405180910390fd5b613f7a85613d0b565b613fcb576040805162461bcd60e51b815260206004820152601d60248201527f416464726573733a2063616c6c20746f206e6f6e2d636f6e7472616374000000604482015290519081900360640190fd5b600080866001600160a01b031685876040518082805190602001908083835b602083106140095780518252601f199092019160209182019101613fea565b6001836020036101000a03801982511681845116808217855250505050505090500191505060006040518083038185875af1925050503d806000811461406b576040519150601f19603f3d011682016040523d82523d6000602084013e614070565b606091505b5091509150614080828286614767565b979650505050505050565b60008060008360020b126140a2578260020b6140aa565b8260020b6000035b9050620d89e8811115614104576040805162461bcd60e51b815260206004820152600160248201527f5400000000000000000000000000000000000000000000000000000000000000604482015290519081900360640190fd5b60006001821661411857600160801b61412a565b6ffffcb933bd6fad37aa2d162d1a5940015b70ffffffffffffffffffffffffffffffffff169050600282161561415e576ffff97272373d413259a46990580e213a0260801c5b600482161561417d576ffff2e50f5f656932ef12357cf3c7fdcc0260801c5b600882161561419c576fffe5caca7e10e4e61c3624eaa0941cd00260801c5b60108216156141bb576fffcb9843d60f6159c9db58835c9266440260801c5b60208216156141da576fff973b41fa98c081472e6896dfb254c00260801c5b60408216156141f9576fff2ea16466c96a3843ec78b326b528610260801c5b6080821615614218576ffe5dee046a99a2a811c461f1969c30530260801c5b610100821615614238576ffcbe86c7900a88aedcffc83b479aa3a40260801c5b610200821615614258576ff987a7253ac413176f2b074cf7815e540260801c5b610400821615614278576ff3392b0822b70005940c7a398e4b70f30260801c5b610800821615614298576fe7159475a2c29b7443b29c7fa6e889d90260801c5b6110008216156142b8576fd097f3bdfd2022b8845ad8f792aa58250260801c5b6120008216156142d8576fa9f746462d870fdf8a65dc1f90e061e50260801c5b6140008216156142f8576f70d869a156d2a1b890bb3df62baf32f70260801c5b618000821615614318576f31be135f97d08fd981231505542fcfa60260801c5b62010000821615614339576f09aa508b5b7a84e1c677de54f3e99bc90260801c5b62020000821615614359576e5d6af8dedb81196699c329225ee6040260801c5b62040000821615614378576d2216e584f5fa1ea926041bedfe980260801c5b62080000821615614395576b048a170391f7dc42444e8fa20260801c5b60008460020b13156143b05780600019816143ac57fe5b0490505b6401000000008106156143c45760016143c7565b60005b60ff16602082901c0192505050919050565b60008082600f0b126143ff576143fa6143f585858560016147cd565b61487f565b611e5b565b6144126143f585858560000360006147cd565b600003949350505050565b60008082600f0b12614439576143fa6143f585858560016148b1565b6144126143f585858560000360006148b1565b600080600080876001600160a01b031663514ea4bf886040518263ffffffff1660e01b81526004018082815260200191505060a06040518083038186803b15801561449657600080fd5b505afa1580156144aa573d6000803e3d6000fd5b505050506040513d60a08110156144c057600080fd5b50602081015160409182015182517f3850c7bd000000000000000000000000000000000000000000000000000000008152925191945092506000916001600160a01b038b1691633850c7bd9160048082019260e092909190829003018186803b15801561452c57600080fd5b505afa158015614540573d6000803e3d6000fd5b505050506040513d60e081101561455657600080fd5b5060200151604080517ff30dba9300000000000000000000000000000000000000000000000000000000815260028a900b6004820152905191925060009182916001600160a01b038d169163f30dba939160248082019261010092909190829003018186803b1580156145c857600080fd5b505afa1580156145dc573d6000803e3d6000fd5b505050506040513d6101008110156145f357600080fd5b506040810151606090910151909250905060008060028b810b9086900b1261461f575082905081614628565b50508185038185035b6000808e6001600160a01b031663f30dba938d6040518263ffffffff1660e01b8152600401808260020b81526020019150506101006040518083038186803b15801561467357600080fd5b505afa158015614687573d6000803e3d6000fd5b505050506040513d61010081101561469e57600080fd5b506040810151606090910151909250905060008060028e810b908a900b12156146cb5750829050816146d4565b50508189038189035b94909903989098039e91909603919091039b509950505050505050505050565b60008061471a8885038a6fffffffffffffffffffffffffffffffff16600160801b613967565b860195506147418784038a6fffffffffffffffffffffffffffffffff16600160801b613967565b6fffffffffffffffffffffffffffffffff9687169a950190951697509295505050505050565b60608315614776575081610e3d565b8251156147865782518084602001fd5b60405162461bcd60e51b815260206004820181815284516024840152845185939192839260440191908501908083836000831561359e578181015183820152602001613586565b6000836001600160a01b0316856001600160a01b031611156147ed579293925b7bffffffffffffffffffffffffffffffff000000000000000000000000606084901b166001600160a01b03868603811690871661482957600080fd5b8361485957866001600160a01b031661484c8383896001600160a01b0316613967565b8161485357fe5b04614080565b6140806148708383896001600160a01b031661494e565b886001600160a01b0316614988565b60007f800000000000000000000000000000000000000000000000000000000000000082106148ad57600080fd5b5090565b6000836001600160a01b0316856001600160a01b031611156148d1579293925b816149105761490b836fffffffffffffffffffffffffffffffff168686036001600160a01b03166c01000000000000000000000000613967565b614945565b614945836fffffffffffffffffffffffffffffffff168686036001600160a01b03166c0100000000000000000000000061494e565b95945050505050565b600061495b848484613967565b90506000828061496757fe5b8486091115610e3d57600019811061497e57600080fd5b6001019392505050565b808204910615150190565b6000602082840312156149a4578081fd5b81356108be816150bc565b6000602082840312156149c0578081fd5b81516108be816150bc565b600080604083850312156149dd578081fd5b82356149e8816150bc565b915060208301356149f8816150bc565b809150509250929050565b600080600080600080600080610100898b031215614a1f578384fd5b8851614a2a816150bc565b60208a0151909850614a3b816150bc565b60408a0151909750614a4c816150bc565b60608a0151909650614a5d816150bc565b60808a015160a08b015160c08c015160e0909c01519a9d999c50979a91999098919650945092505050565b600080600060608486031215614a9c578283fd5b8335614aa7816150bc565b92506020840135614ab7816150bc565b929592945050506040919091013590565b60008060008060808587031215614add578384fd5b8435614ae8816150bc565b9350602085810135614af9816150bc565b935060408601359250606086013567ffffffffffffffff80821115614b1c578384fd5b818801915088601f830112614b2f578384fd5b813581811115614b3b57fe5b614b4d84601f19601f84011601615098565b91508082528984828501011115614b62578485fd5b8084840185840137810190920192909252939692955090935050565b60008060408385031215614b90578182fd5b8235614b9b816150bc565b9150602083013580151581146149f8578182fd5b60008060408385031215614bc1578182fd5b8235614bcc816150bc565b946020939093013593505050565b60008060008060808587031215614bef578384fd5b8435614bfa816150bc565b9350602085013592506040850135614c11816150bc565b9396929550929360600135925050565b600060208284031215614c32578081fd5b5035919050565b600060208284031215614c4a578081fd5b81357fffffffff00000000000000000000000000000000000000000000000000000000811681146108be578182fd5b600060c08284031215614c8a578081fd5b60405160c0810181811067ffffffffffffffff82111715614ca757fe5b8060405250823581526020830135602082015260408301356040820152606083013560608201526080830135608082015260a083013560a08201528091505092915050565b600060a08284031215614cfd578081fd5b60405160a0810181811067ffffffffffffffff82111715614d1a57fe5b806040525082358152602083013560208201526040830135604082015260608301356060820152608083013560808201528091505092915050565b600060208284031215614d66578081fd5b5051919050565b60008060408385031215614d7f578182fd5b50508035926020909101359150565b60008060408385031215614da0578182fd5b505080516020909101519092909150565b600080600060608486031215614dc5578081fd5b505081359360208301359350604090920135919050565b600080600060608486031215614df0578081fd5b8351925060208401519150604084015190509250925092565b91825260601b6bffffffffffffffffffffffff1916602082015260340190565b918252602082015260400190565b6001600160a01b0391909116815260200190565b901515815260200190565b6000602080835283518082850152825b81811015614e8257858101830151858201604001528201614e66565b81811115614e935783604083870101525b50601f01601f1916929092016040019392505050565b60208082526002908201527f4f4f000000000000000000000000000000000000000000000000000000000000604082015260600190565b60208082526002908201527f4e5a000000000000000000000000000000000000000000000000000000000000604082015260600190565b60208082526003908201527f4348490000000000000000000000000000000000000000000000000000000000604082015260600190565b6020808252600a908201527f6f6e6c79206f776e657200000000000000000000000000000000000000000000604082015260600190565b6020808252600c908201527f6e6f7420617070726f7665640000000000000000000000000000000000000000604082015260600190565b60208082526013908201527f696e73756666696369656e742073686172657300000000000000000000000000604082015260600190565b6fffffffffffffffffffffffffffffffff95861681526020810194909452604084019290925283166060830152909116608082015260a00190565b90815260200190565b9283526020830191909152604082015260600190565b948552602085019390935260408401919091526060830152608082015260a00190565b958652602086019490945260408501929092526060840152608083015260a082015260c00190565b60405181810167ffffffffffffffff811182821017156150b457fe5b604052919050565b6001600160a01b03811681146150d157600080fd5b5056fe456e756d657261626c655365743a20696e646578206f7574206f6620626f756e64734552433732313a207472616e7366657220746f206e6f6e20455243373231526563656976657220696d706c656d656e7465724552433732313a207472616e7366657220746f20746865207a65726f2061646472657373416464726573733a20696e73756666696369656e742062616c616e636520666f722063616c6c4552433732313a206f70657261746f7220717565727920666f72206e6f6e6578697374656e7420746f6b656e4552433732313a20617070726f76652063616c6c6572206973206e6f74206f776e6572206e6f7220617070726f76656420666f7220616c6c4552433732313a2062616c616e636520717565727920666f7220746865207a65726f20616464726573734552433732313a206f776e657220717565727920666f72206e6f6e6578697374656e7420746f6b656e456e756d657261626c654d61703a20696e646578206f7574206f6620626f756e6473536166654d6174683a206d756c7469706c69636174696f6e206f766572666c6f774552433732313a20617070726f76656420717565727920666f72206e6f6e6578697374656e7420746f6b656e4552433732313a207472616e73666572206f6620746f6b656e2074686174206973206e6f74206f776e4552433732314d657461646174613a2055524920717565727920666f72206e6f6e6578697374656e7420746f6b656e4552433732313a20617070726f76616c20746f2063757272656e74206f776e65724552433732313a207472616e736665722063616c6c6572206973206e6f74206f776e6572206e6f7220617070726f7665645361666545524332303a204552433230206f7065726174696f6e20646964206e6f7420737563636565645361666545524332303a20617070726f76652066726f6d206e6f6e2d7a65726f20746f206e6f6e2d7a65726f20616c6c6f77616e6365a164736f6c6343000706000a",
  "linkReferences": {},
  "deployedLinkReferences": {}
}