{
  "_format": "hh-sol-artifact-1",
  "contractName": "YangNFTVault",
  "sourceName": "contracts/YangNFTVault.sol",
  "abi": [
    {
      "anonymous": false,
      "inputs": [
        {
          "indexed": true,
          "internalType": "address",
          "name": "owner",
          "type": "address"
        },
        {
          "indexed": true,
          "internalType": "address",
          "name": "approved",
          "type": "address"
        },
        {
          "indexed": true,
          "internalType": "uint256",
          "name": "tokenId",
          "type": "uint256"
        }
      ],
      "name": "Approval",
      "type": "event"
    },
    {
      "anonymous": false,
      "inputs": [
        {
          "indexed": true,
          "internalType": "address",
          "name": "owner",
          "type": "address"
        },
        {
          "indexed": true,
          "internalType": "address",
          "name": "operator",
          "type": "address"
        },
        {
          "indexed": false,
          "internalType": "bool",
          "name": "approved",
          "type": "bool"
        }
      ],
      "name": "ApprovalForAll",
      "type": "event"
    },
    {
      "anonymous": false,
      "inputs": [
        {
          "indexed": true,
          "internalType": "address",
          "name": "recipient",
          "type": "address"
        },
        {
          "indexed": true,
          "internalType": "uint256",
          "name": "tokenId",
          "type": "uint256"
        }
      ],
      "name": "MintYangNFT",
      "type": "event"
    },
    {
      "anonymous": false,
      "inputs": [
        {
          "indexed": true,
          "internalType": "uint256",
          "name": "yangId",
          "type": "uint256"
        },
        {
          "indexed": true,
          "internalType": "uint256",
          "name": "chiId",
          "type": "uint256"
        },
        {
          "indexed": true,
          "internalType": "uint256",
          "name": "share",
          "type": "uint256"
        }
      ],
      "name": "Subscribe",
      "type": "event"
    },
    {
      "anonymous": false,
      "inputs": [
        {
          "indexed": true,
          "internalType": "address",
          "name": "from",
          "type": "address"
        },
        {
          "indexed": true,
          "internalType": "address",
          "name": "to",
          "type": "address"
        },
        {
          "indexed": true,
          "internalType": "uint256",
          "name": "tokenId",
          "type": "uint256"
        }
      ],
      "name": "Transfer",
      "type": "event"
    },
    {
      "anonymous": false,
      "inputs": [
        {
          "indexed": true,
          "internalType": "uint256",
          "name": "yangId",
          "type": "uint256"
        },
        {
          "indexed": true,
          "internalType": "uint256",
          "name": "chiId",
          "type": "uint256"
        },
        {
          "indexed": false,
          "internalType": "uint256",
          "name": "amount0",
          "type": "uint256"
        },
        {
          "indexed": false,
          "internalType": "uint256",
          "name": "amount1",
          "type": "uint256"
        }
      ],
      "name": "UnSubscribe",
      "type": "event"
    },
    {
      "inputs": [
        {
          "internalType": "address",
          "name": "to",
          "type": "address"
        },
        {
          "internalType": "uint256",
          "name": "tokenId",
          "type": "uint256"
        }
      ],
      "name": "approve",
      "outputs": [],
      "stateMutability": "nonpayable",
      "type": "function"
    },
    {
      "inputs": [
        {
          "internalType": "address",
          "name": "owner",
          "type": "address"
        }
      ],
      "name": "balanceOf",
      "outputs": [
        {
          "internalType": "uint256",
          "name": "",
          "type": "uint256"
        }
      ],
      "stateMutability": "view",
      "type": "function"
    },
    {
      "inputs": [],
      "name": "baseURI",
      "outputs": [
        {
          "internalType": "string",
          "name": "",
          "type": "string"
        }
      ],
      "stateMutability": "view",
      "type": "function"
    },
    {
      "inputs": [
        {
          "internalType": "uint256",
          "name": "yangId",
          "type": "uint256"
        },
        {
          "internalType": "uint256",
          "name": "chiId",
          "type": "uint256"
        }
      ],
      "name": "getAmounts",
      "outputs": [
        {
          "internalType": "uint256",
          "name": "amount0",
          "type": "uint256"
        },
        {
          "internalType": "uint256",
          "name": "amount1",
          "type": "uint256"
        }
      ],
      "stateMutability": "view",
      "type": "function"
    },
    {
      "inputs": [
        {
          "internalType": "uint256",
          "name": "tokenId",
          "type": "uint256"
        }
      ],
      "name": "getApproved",
      "outputs": [
        {
          "internalType": "address",
          "name": "",
          "type": "address"
        }
      ],
      "stateMutability": "view",
      "type": "function"
    },
    {
      "inputs": [
        {
          "internalType": "uint256",
          "name": "chiId",
          "type": "uint256"
        }
      ],
      "name": "getCHIAccruedFees",
      "outputs": [
        {
          "internalType": "uint256",
          "name": "fee0",
          "type": "uint256"
        },
        {
          "internalType": "uint256",
          "name": "fee1",
          "type": "uint256"
        }
      ],
      "stateMutability": "view",
      "type": "function"
    },
    {
      "inputs": [
        {
          "internalType": "uint256",
          "name": "chiId",
          "type": "uint256"
        }
      ],
      "name": "getCHITotalAmounts",
      "outputs": [
        {
          "internalType": "uint256",
          "name": "amount0",
          "type": "uint256"
        },
        {
          "internalType": "uint256",
          "name": "amount1",
          "type": "uint256"
        }
      ],
      "stateMutability": "view",
      "type": "function"
    },
    {
      "inputs": [
        {
          "internalType": "uint256",
          "name": "chiId",
          "type": "uint256"
        },
        {
          "internalType": "uint256",
          "name": "amount0Desired",
          "type": "uint256"
        },
        {
          "internalType": "uint256",
          "name": "amount1Desired",
          "type": "uint256"
        }
      ],
      "name": "getShares",
      "outputs": [
        {
          "internalType": "uint256",
          "name": "shares",
          "type": "uint256"
        },
        {
          "internalType": "uint256",
          "name": "amount0",
          "type": "uint256"
        },
        {
          "internalType": "uint256",
          "name": "amount1",
          "type": "uint256"
        }
      ],
      "stateMutability": "view",
      "type": "function"
    },
    {
      "inputs": [
        {
          "internalType": "address",
          "name": "recipient",
          "type": "address"
        }
      ],
      "name": "getTokenId",
      "outputs": [
        {
          "internalType": "uint256",
          "name": "",
          "type": "uint256"
        }
      ],
      "stateMutability": "view",
      "type": "function"
    },
    {
      "inputs": [
        {
          "internalType": "uint256",
          "name": "_initId",
          "type": "uint256"
        }
      ],
      "name": "initialize",
      "outputs": [],
      "stateMutability": "nonpayable",
      "type": "function"
    },
    {
      "inputs": [
        {
          "internalType": "address",
          "name": "owner",
          "type": "address"
        },
        {
          "internalType": "address",
          "name": "operator",
          "type": "address"
        }
      ],
      "name": "isApprovedForAll",
      "outputs": [
        {
          "internalType": "bool",
          "name": "",
          "type": "bool"
        }
      ],
      "stateMutability": "view",
      "type": "function"
    },
    {
      "inputs": [
        {
          "internalType": "address",
          "name": "recipient",
          "type": "address"
        }
      ],
      "name": "mint",
      "outputs": [
        {
          "internalType": "uint256",
          "name": "tokenId",
          "type": "uint256"
        }
      ],
      "stateMutability": "nonpayable",
      "type": "function"
    },
    {
      "inputs": [],
      "name": "name",
      "outputs": [
        {
          "internalType": "string",
          "name": "",
          "type": "string"
        }
      ],
      "stateMutability": "view",
      "type": "function"
    },
    {
      "inputs": [],
      "name": "owner",
      "outputs": [
        {
          "internalType": "address",
          "name": "",
          "type": "address"
        }
      ],
      "stateMutability": "view",
      "type": "function"
    },
    {
      "inputs": [
        {
          "internalType": "uint256",
          "name": "tokenId",
          "type": "uint256"
        }
      ],
      "name": "ownerOf",
      "outputs": [
        {
          "internalType": "address",
          "name": "",
          "type": "address"
        }
      ],
      "stateMutability": "view",
      "type": "function"
    },
    {
      "inputs": [
        {
          "internalType": "bytes32",
          "name": "key",
          "type": "bytes32"
        }
      ],
      "name": "poolPositions",
      "outputs": [
        {
          "internalType": "uint128",
          "name": "liquidity",
          "type": "uint128"
        },
        {
          "internalType": "uint256",
          "name": "feeGrowthInside0LastX128",
          "type": "uint256"
        },
        {
          "internalType": "uint256",
          "name": "feeGrowthInside1LastX128",
          "type": "uint256"
        },
        {
          "internalType": "uint128",
          "name": "tokensOwed0",
          "type": "uint128"
        },
        {
          "internalType": "uint128",
          "name": "tokensOwed1",
          "type": "uint128"
        }
      ],
      "stateMutability": "view",
      "type": "function"
    },
    {
      "inputs": [
        {
          "internalType": "address",
          "name": "from",
          "type": "address"
        },
        {
          "internalType": "address",
          "name": "to",
          "type": "address"
        },
        {
          "internalType": "uint256",
          "name": "tokenId",
          "type": "uint256"
        }
      ],
      "name": "safeTransferFrom",
      "outputs": [],
      "stateMutability": "nonpayable",
      "type": "function"
    },
    {
      "inputs": [
        {
          "internalType": "address",
          "name": "from",
          "type": "address"
        },
        {
          "internalType": "address",
          "name": "to",
          "type": "address"
        },
        {
          "internalType": "uint256",
          "name": "tokenId",
          "type": "uint256"
        },
        {
          "internalType": "bytes",
          "name": "_data",
          "type": "bytes"
        }
      ],
      "name": "safeTransferFrom",
      "outputs": [],
      "stateMutability": "nonpayable",
      "type": "function"
    },
    {
      "inputs": [
        {
          "internalType": "address",
          "name": "operator",
          "type": "address"
        },
        {
          "internalType": "bool",
          "name": "approved",
          "type": "bool"
        }
      ],
      "name": "setApprovalForAll",
      "outputs": [],
      "stateMutability": "nonpayable",
      "type": "function"
    },
    {
      "inputs": [
        {
          "internalType": "address",
          "name": "_chiManager",
          "type": "address"
        }
      ],
      "name": "setCHIManager",
      "outputs": [],
      "stateMutability": "nonpayable",
      "type": "function"
    },
    {
      "inputs": [
        {
          "components": [
            {
              "internalType": "uint256",
              "name": "yangId",
              "type": "uint256"
            },
            {
              "internalType": "uint256",
              "name": "chiId",
              "type": "uint256"
            },
            {
              "internalType": "uint256",
              "name": "amount0Desired",
              "type": "uint256"
            },
            {
              "internalType": "uint256",
              "name": "amount1Desired",
              "type": "uint256"
            },
            {
              "internalType": "uint256",
              "name": "amount0Min",
              "type": "uint256"
            },
            {
              "internalType": "uint256",
              "name": "amount1Min",
              "type": "uint256"
            }
          ],
          "internalType": "struct IYangNFTVault.SubscribeParam",
          "name": "params",
          "type": "tuple"
        }
      ],
      "name": "subscribe",
      "outputs": [
        {
          "internalType": "uint256",
          "name": "amount0",
          "type": "uint256"
        },
        {
          "internalType": "uint256",
          "name": "amount1",
          "type": "uint256"
        },
        {
          "internalType": "uint256",
          "name": "shares",
          "type": "uint256"
        }
      ],
      "stateMutability": "nonpayable",
      "type": "function"
    },
    {
      "inputs": [
        {
          "internalType": "bytes4",
          "name": "interfaceId",
          "type": "bytes4"
        }
      ],
      "name": "supportsInterface",
      "outputs": [
        {
          "internalType": "bool",
          "name": "",
          "type": "bool"
        }
      ],
      "stateMutability": "view",
      "type": "function"
    },
    {
      "inputs": [],
      "name": "symbol",
      "outputs": [
        {
          "internalType": "string",
          "name": "",
          "type": "string"
        }
      ],
      "stateMutability": "view",
      "type": "function"
    },
    {
      "inputs": [
        {
          "internalType": "uint256",
          "name": "index",
          "type": "uint256"
        }
      ],
      "name": "tokenByIndex",
      "outputs": [
        {
          "internalType": "uint256",
          "name": "",
          "type": "uint256"
        }
      ],
      "stateMutability": "view",
      "type": "function"
    },
    {
      "inputs": [
        {
          "internalType": "address",
          "name": "owner",
          "type": "address"
        },
        {
          "internalType": "uint256",
          "name": "index",
          "type": "uint256"
        }
      ],
      "name": "tokenOfOwnerByIndex",
      "outputs": [
        {
          "internalType": "uint256",
          "name": "",
          "type": "uint256"
        }
      ],
      "stateMutability": "view",
      "type": "function"
    },
    {
      "inputs": [
        {
          "internalType": "uint256",
          "name": "tokenId",
          "type": "uint256"
        }
      ],
      "name": "tokenURI",
      "outputs": [
        {
          "internalType": "string",
          "name": "",
          "type": "string"
        }
      ],
      "stateMutability": "view",
      "type": "function"
    },
    {
      "inputs": [],
      "name": "totalSupply",
      "outputs": [
        {
          "internalType": "uint256",
          "name": "",
          "type": "uint256"
        }
      ],
      "stateMutability": "view",
      "type": "function"
    },
    {
      "inputs": [
        {
          "internalType": "address",
          "name": "from",
          "type": "address"
        },
        {
          "internalType": "address",
          "name": "to",
          "type": "address"
        },
        {
          "internalType": "uint256",
          "name": "tokenId",
          "type": "uint256"
        }
      ],
      "name": "transferFrom",
      "outputs": [],
      "stateMutability": "nonpayable",
      "type": "function"
    },
    {
      "inputs": [
        {
          "components": [
            {
              "internalType": "uint256",
              "name": "yangId",
              "type": "uint256"
            },
            {
              "internalType": "uint256",
              "name": "chiId",
              "type": "uint256"
            },
            {
              "internalType": "uint256",
              "name": "shares",
              "type": "uint256"
            },
            {
              "internalType": "uint256",
              "name": "amount0Min",
              "type": "uint256"
            },
            {
              "internalType": "uint256",
              "name": "amount1Min",
              "type": "uint256"
            }
          ],
          "internalType": "struct IYangNFTVault.UnSubscribeParam",
          "name": "params",
          "type": "tuple"
        }
      ],
      "name": "unsubscribe",
      "outputs": [],
      "stateMutability": "nonpayable",
      "type": "function"
    },
    {
      "inputs": [
        {
          "internalType": "uint256",
          "name": "yangId",
          "type": "uint256"
        },
        {
          "internalType": "uint256",
          "name": "chiId",
          "type": "uint256"
        }
      ],
      "name": "yangPositions",
      "outputs": [
        {
          "internalType": "uint256",
          "name": "amount0",
          "type": "uint256"
        },
        {
          "internalType": "uint256",
          "name": "amount1",
          "type": "uint256"
        },
        {
          "internalType": "uint256",
          "name": "shares",
          "type": "uint256"
        }
      ],
      "stateMutability": "view",
      "type": "function"
    }
  ],
  "bytecode": "0x608060405234801561001057600080fd5b5061566f806100206000396000f3fe608060405234801561001057600080fd5b50600436106101da5760003560e01c80636352211e11610104578063a22cb465116100a2578063e5d9cc9a11610071578063e5d9cc9a14610403578063e985e9c514610416578063f153768614610429578063fe4b84df1461043c576101da565b8063a22cb465146103b7578063a244a481146103ca578063b88d4fde146103dd578063c87b56dd146103f0576101da565b806370a08231116100de57806370a08231146103705780638ae881ab146103835780638da5cb5b146103a757806395d89b41146103af576101da565b80636352211e146103425780636a627842146103555780636c0360eb14610368576101da565b806323b872dd1161017c57806342e6e0fe1161014b57806342e6e0fe146102f65780634f6ccce7146103095780635c0d107e1461031c5780635f0600f71461032f576101da565b806323b872dd146102aa5780632f745c59146102bd5780633ab2e4ba146102d057806342842e0e146102e3576101da565b8063081812fc116101b8578063081812fc1461023f578063095ea7b31461025f57806316529c461461027457806318160ddd14610295576101da565b806301ffc9a7146101df5780630589ea3d1461020857806306fdde031461022a575b600080fd5b6101f26101ed366004614eee565b61044f565b6040516101ff91906150e0565b60405180910390f35b61021b610216366004615022565b61048a565b6040516101ff939291906152cc565b6102326104ff565b6040516101ff91906150eb565b61025261024d366004614ed6565b610595565b6040516101ff91906150cc565b61027261026d366004614eab565b6105f7565b005b610287610282366004615022565b6106cd565b6040516101ff9291906150be565b61029d610816565b6040516101ff91906152c3565b6102726102b8366004614d84565b610827565b61029d6102cb366004614eab565b61087e565b6102726102de366004614fa1565b6108a9565b6102726102f1366004614d84565b610ce5565b61021b610304366004615066565b610d00565b61029d610317366004614ed6565b610dd5565b61021b61032a366004614f2e565b610deb565b61028761033d366004614ed6565b6110f2565b610252610350366004614ed6565b611225565b61029d610363366004614c8f565b61124d565b6102326112e1565b61029d61037e366004614c8f565b611342565b610396610391366004614ed6565b6113aa565b6040516101ff959493929190615288565b61025261141d565b61023261142c565b6102726103c5366004614e7a565b61148d565b6102726103d8366004614c8f565b611592565b6102726103eb366004614dc4565b6115eb565b6102326103fe366004614ed6565b611649565b610287610411366004614ed6565b6118ca565b6101f2610424366004614cc7565b611a6e565b61029d610437366004614c8f565b611a9c565b61027261044a366004614ed6565b611ab7565b7fffffffff00000000000000000000000000000000000000000000000000000000811660009081526065602052604090205460ff165b919050565b60008060008060cd600087876040516020016104a79291906150be565b60408051601f1981840301815291815281516020928301208352828201939093529082016000208251606081018452815480825260018301549382018490526002909201549301839052989097509095509350505050565b609c8054604080516020601f600260001961010060018816150201909516949094049384018190048102820181019092528281526060939092909183018282801561058b5780601f106105605761010080835404028352916020019161058b565b820191906000526020600020905b81548152906001019060200180831161056e57829003601f168201915b5050505050905090565b60006105a082611bef565b6105db5760405162461bcd60e51b815260040180806020018281038252602c81526020018061552d602c913960400191505060405180910390fd5b506000908152609a60205260409020546001600160a01b031690565b600061060282611225565b9050806001600160a01b0316836001600160a01b031614156106555760405162461bcd60e51b81526004018080602001828103825260218152602001806155b16021913960400191505060405180910390fd5b806001600160a01b0316610667611bfc565b6001600160a01b03161480610683575061068381610424611bfc565b6106be5760405162461bcd60e51b81526004018080602001828103825260388152602001806154316038913960400191505060405180910390fd5b6106c88383611c00565b505050565b60ca5460009081906001600160a01b03166107035760405162461bcd60e51b81526004016106fa906151ac565b60405180910390fd5b600084846040516020016107189291906150be565b60408051601f198184030181528282528051602091820120600081815260cd83528390206060850184528054855260018101549285019290925260029091015491830182905292501561080d5760ca54604051635cef66b360e11b815260009182916001600160a01b039091169063b9decd669061079a908a906004016152c3565b6101006040518083038186803b1580156107b357600080fd5b505afa1580156107c7573d6000803e3d6000fd5b505050506040513d601f19601f820116820180604052508101906107eb9190614cff565b5050505093509350505061080582828a8660400151611c7b565b909650945050505b50509250929050565b60006108226098611c9c565b905090565b610838610832611bfc565b82611ca7565b6108735760405162461bcd60e51b81526004018080602001828103825260318152602001806155d26031913960400191505060405180910390fd5b6106c8838383611d4b565b6001600160a01b03821660009081526097602052604081206108a09083611e97565b90505b92915050565b60026001541415610901576040805162461bcd60e51b815260206004820152601f60248201527f5265656e7472616e637947756172643a207265656e7472616e742063616c6c00604482015290519081900360640190fd5b600260015580516109123382611ca7565b61092e5760405162461bcd60e51b81526004016106fa9061521a565b60ca546001600160a01b03166109565760405162461bcd60e51b81526004016106fa906151ac565b60ca546020830151604051635cef66b360e11b815260009283926001600160a01b039091169163b9decd669161098e916004016152c3565b6101006040518083038186803b1580156109a757600080fd5b505afa1580156109bb573d6000803e3d6000fd5b505050506040513d601f19601f820116820180604052508101906109df9190614cff565b50505050935093505050600084600001518560200151604051602001610a069291906150be565b604051602081830303815290604052805190602001209050846040015160cd6000838152602001908152602001600020600201541015610a585760405162461bcd60e51b81526004016106fa90615251565b60ca548551602087015160408089015160608a015160808b015192517f46698e7500000000000000000000000000000000000000000000000000000000815260009687966001600160a01b03909116956346698e7595610abe95929491936004016152e2565b6040805180830381600087803b158015610ad757600080fd5b505af1158015610aeb573d6000803e3d6000fd5b505050506040513d601f19601f82011682018060405250810190610b0f9190615043565b915091506000859050610c04816001600160a01b0316630dfe16816040518163ffffffff1660e01b815260040160206040518083038186803b158015610b5457600080fd5b505afa158015610b68573d6000803e3d6000fd5b505050506040513d601f19601f82011682018060405250810190610b8c9190614cab565b84836001600160a01b031663d21220a76040518163ffffffff1660e01b815260040160206040518083038186803b158015610bc657600080fd5b505afa158015610bda573d6000803e3d6000fd5b505050506040513d601f19601f82011682018060405250810190610bfe9190614cab565b85611ea3565b87516020890151600091610c1b9160cd9190611ed7565b9050610c3889604001518260020154611f1290919063ffffffff16565b600282015580548410610c4c576000610c58565b8054610c589085611f12565b815560018101548310610c6c576000610c7b565b6001810154610c7b9084611f12565b600182015588518690610c949060ce9085908490611f6f565b60208a01518a516040517fb65ca58d729d89d58e1ed48a179b40d4a6b56e3e101a10085a0f43915cf1448890610ccd90899089906150be565b60405180910390a35050600180555050505050505050565b6106c8838383604051806020016040528060008152506115eb565b60ca54600090819081906001600160a01b0316610d2f5760405162461bcd60e51b81526004016106fa906151ac565b60ca54604051635cef66b360e11b81526000916001600160a01b03169063b9decd6690610d60908a906004016152c3565b6101006040518083038186803b158015610d7957600080fd5b505afa158015610d8d573d6000803e3d6000fd5b505050506040513d601f19601f82011682018060405250810190610db19190614cff565b505050509350505050610dc581878761215e565b9199909850909650945050505050565b600080610de3609884612278565b509392505050565b60008060008360000151610dff3382611ca7565b610e1b5760405162461bcd60e51b81526004016106fa9061521a565b60026001541415610e73576040805162461bcd60e51b815260206004820152601f60248201527f5265656e7472616e637947756172643a207265656e7472616e742063616c6c00604482015290519081900360640190fd5b600260015560ca546001600160a01b0316610ea05760405162461bcd60e51b81526004016106fa906151ac565b60ca546020860151604051635cef66b360e11b815260009283926001600160a01b039091169163b9decd6691610ed8916004016152c3565b6101006040518083038186803b158015610ef157600080fd5b505afa158015610f05573d6000803e3d6000fd5b505050506040513d601f19601f82011682018060405250810190610f299190614cff565b5050505093509350505060008290506000816001600160a01b0316630dfe16816040518163ffffffff1660e01b815260040160206040518083038186803b158015610f7357600080fd5b505afa158015610f87573d6000803e3d6000fd5b505050506040513d601f19601f82011682018060405250810190610fab9190614cab565b90506000826001600160a01b031663d21220a76040518163ffffffff1660e01b815260040160206040518083038186803b158015610fe857600080fd5b505afa158015610ffc573d6000803e3d6000fd5b505050506040513d601f19601f820116820180604052508101906110209190614cab565b9050611036828b60400151838d60600151612294565b61104182828c6122fe565b8c5160208e0151939c50919a50985060009161105f9160cd91611ed7565b805490915061106e908b61243d565b8155600181015461107f908a61243d565b60018201556002810154611093908961243d565b60028201558a516110aa9060ce9086908890611f6f565b60208b01518b516040518a9291907f17de92c1076ec5855c3edd4a6084a82c184adfda177deb99d6532697cdac91cb90600090a4505060018055509597949650929450505050565b60ca5460009081906001600160a01b031661111f5760405162461bcd60e51b81526004016106fa906151ac565b60ca54604051635cef66b360e11b81526000916001600160a01b03169063b9decd66906111509087906004016152c3565b6101006040518083038186803b15801561116957600080fd5b505afa15801561117d573d6000803e3d6000fd5b505050506040513d601f19601f820116820180604052508101906111a19190614cff565b505050509350505050806001600160a01b031663c4a7761e6040518163ffffffff1660e01b8152600401604080518083038186803b1580156111e257600080fd5b505afa1580156111f6573d6000803e3d6000fd5b505050506040513d601f19601f8201168201806040525081019061121a9190615043565b909590945092505050565b60006108a3826040518060600160405280602981526020016154936029913960989190612497565b6001600160a01b038116600090815260cc6020526040812054156112835760405162461bcd60e51b81526004016106fa9061513e565b5060cb80546001810190915561129982826124ae565b6001600160a01b038216600081815260cc6020526040808220849055518392917f74629109564de5ce9d04dc84bb5ecd8fbb0c98843a3fbd43f057825a9255449c91a3919050565b609f8054604080516020601f600260001961010060018816150201909516949094049384018190048102820181019092528281526060939092909183018282801561058b5780601f106105605761010080835404028352916020019161058b565b60006001600160a01b0382166113895760405162461bcd60e51b815260040180806020018281038252602a815260200180615469602a913960400191505060405180910390fd5b6001600160a01b03821660009081526097602052604090206108a390611c9c565b600090815260ce6020908152604091829020825160a08101845281546fffffffffffffffffffffffffffffffff9081168083526001840154948301859052600284015495830186905260039093015480821660608401819052600160801b90910490911660809092018290529194929392565b60c9546001600160a01b031681565b609d8054604080516020601f600260001961010060018816150201909516949094049384018190048102820181019092528281526060939092909183018282801561058b5780601f106105605761010080835404028352916020019161058b565b611495611bfc565b6001600160a01b0316826001600160a01b031614156114fb576040805162461bcd60e51b815260206004820152601960248201527f4552433732313a20617070726f766520746f2063616c6c657200000000000000604482015290519081900360640190fd5b80609b6000611508611bfc565b6001600160a01b03908116825260208083019390935260409182016000908120918716808252919093529120805460ff19169215159290921790915561154c611bfc565b6001600160a01b03167f17307eab39ab6107e8899845ad3d59bd9653f200f220920489ca2b5937696c318360405180821515815260200191505060405180910390a35050565b60c9546001600160a01b031633146115bc5760405162461bcd60e51b81526004016106fa906151e3565b60ca805473ffffffffffffffffffffffffffffffffffffffff19166001600160a01b0392909216919091179055565b6115fc6115f6611bfc565b83611ca7565b6116375760405162461bcd60e51b81526004018080602001828103825260318152602001806155d26031913960400191505060405180910390fd5b611643848484846125dc565b50505050565b606061165482611bef565b61168f5760405162461bcd60e51b815260040180806020018281038252602f815260200180615582602f913960400191505060405180910390fd5b6000828152609e602090815260408083208054825160026001831615610100026000190190921691909104601f8101859004850282018501909352828152929091908301828280156117225780601f106116f757610100808354040283529160200191611722565b820191906000526020600020905b81548152906001019060200180831161170557829003601f168201915b5050505050905060006117336112e1565b905080516000141561174757509050610485565b8151156118085780826040516020018083805190602001908083835b602083106117825780518252601f199092019160209182019101611763565b51815160209384036101000a600019018019909216911617905285519190930192850191508083835b602083106117ca5780518252601f1990920191602091820191016117ab565b6001836020036101000a0380198251168184511680821785525050505050509050019250505060405160208183030381529060405292505050610485565b806118128561262e565b6040516020018083805190602001908083835b602083106118445780518252601f199092019160209182019101611825565b51815160209384036101000a600019018019909216911617905285519190930192850191508083835b6020831061188c5780518252601f19909201916020918201910161186d565b6001836020036101000a0380198251168184511680821785525050505050509050019250505060405160208183030381529060405292505050919050565b60ca5460009081906001600160a01b03166118f75760405162461bcd60e51b81526004016106fa906151ac565b60ca54604051635cef66b360e11b81526000916001600160a01b03169063b9decd66906119289087906004016152c3565b6101006040518083038186803b15801561194157600080fd5b505afa158015611955573d6000803e3d6000fd5b505050506040513d601f19601f820116820180604052508101906119799190614cff565b505050509350505050806001600160a01b031663eae989a26040518163ffffffff1660e01b815260040160206040518083038186803b1580156119bb57600080fd5b505afa1580156119cf573d6000803e3d6000fd5b505050506040513d601f19601f820116820180604052508101906119f3919061500a565b9250806001600160a01b031663a00fa77f6040518163ffffffff1660e01b815260040160206040518083038186803b158015611a2e57600080fd5b505afa158015611a42573d6000803e3d6000fd5b505050506040513d601f19601f82011682018060405250810190611a66919061500a565b915050915091565b6001600160a01b039182166000908152609b6020908152604080832093909416825291909152205460ff1690565b6001600160a01b0316600090815260cc602052604090205490565b600054610100900460ff1680611ad05750611ad061273d565b80611ade575060005460ff16155b611b195760405162461bcd60e51b815260040180806020018281038252602e8152602001806154bc602e913960400191505060405180910390fd5b600054610100900460ff16158015611b44576000805460ff1961ff0019909116610100171660011790555b60c9805473ffffffffffffffffffffffffffffffffffffffff19163317905560cb829055604080518082018252601781527f59494e204173736574204d616e61676572205661756c740000000000000000006020808301919091528251808401909352600483527f59414e470000000000000000000000000000000000000000000000000000000090830152611bd99161274e565b8015611beb576000805461ff00191690555b5050565b60006108a360988361280b565b3390565b6000818152609a60205260409020805473ffffffffffffffffffffffffffffffffffffffff19166001600160a01b0384169081179091558190611c4282611225565b6001600160a01b03167f8c5be1e5ebec7d5bd14f71427d1e84f3dd0314c0f7b2291e5b200ac8c7c3b92560405160405180910390a45050565b6000808486611c8d8183338989612817565b90999098509650505050505050565b60006108a382612d9a565b6000611cb282611bef565b611ced5760405162461bcd60e51b815260040180806020018281038252602c815260200180615405602c913960400191505060405180910390fd5b6000611cf883611225565b9050806001600160a01b0316846001600160a01b03161480611d335750836001600160a01b0316611d2884610595565b6001600160a01b0316145b80611d435750611d438185611a6e565b949350505050565b826001600160a01b0316611d5e82611225565b6001600160a01b031614611da35760405162461bcd60e51b81526004018080602001828103825260298152602001806155596029913960400191505060405180910390fd5b6001600160a01b038216611de85760405162461bcd60e51b81526004018080602001828103825260248152602001806153bb6024913960400191505060405180910390fd5b611df38383836106c8565b611dfe600082611c00565b6001600160a01b0383166000908152609760205260409020611e209082612d9e565b506001600160a01b0382166000908152609760205260409020611e439082612daa565b50611e5060988284612db6565b5080826001600160a01b0316846001600160a01b03167fddf252ad1be2c89b69c2b068fc378daa952ba7f163c4a11628f55a4df523b3ef60405160405180910390a4505050565b60006108a08383612dcc565b8215611ebd57611ebd6001600160a01b0385163385612e30565b8015611643576116436001600160a01b0383163383612e30565b604080516020808201949094528082019290925280518083038201815260609092018152815191830191909120600090815292909152902090565b600082821115611f69576040805162461bcd60e51b815260206004820152601e60248201527f536166654d6174683a207375627472616374696f6e206f766572666c6f770000604482015290519081900360640190fd5b50900390565b60005b826001600160a01b031663b135a1456040518163ffffffff1660e01b815260040160206040518083038186803b158015611fab57600080fd5b505afa158015611fbf573d6000803e3d6000fd5b505050506040513d6020811015611fd557600080fd5b505181101561215757600080846001600160a01b031663cc364f48846040518263ffffffff1660e01b815260040180828152602001915050604080518083038186803b15801561202457600080fd5b505afa158015612038573d6000803e3d6000fd5b505050506040513d604081101561204e57600080fd5b5080516020909101519092509050600061206a87878585612eb0565b6fffffffffffffffffffffffffffffffff16111561214d5760006120918886888686612f35565b905060008060008060008b6001600160a01b031663514ea4bf6120b58d8b8b612f5f565b6040518263ffffffff1660e01b81526004018082815260200191505060a06040518083038186803b1580156120e957600080fd5b505afa1580156120fd573d6000803e3d6000fd5b505050506040513d60a081101561211357600080fd5b50805160208201516040830151606084015160809094015192985090965094509092509050612146868686868686612fb5565b5050505050505b5050600101611f72565b5050505050565b600080600080869050600080826001600160a01b031663c4a7761e6040518163ffffffff1660e01b8152600401604080518083038186803b1580156121a257600080fd5b505afa1580156121b6573d6000803e3d6000fd5b505050506040513d60408110156121cc57600080fd5b81019080805190602001909291908051906020019092919050505091509150600080600061226185858d8d8a6001600160a01b03166318160ddd6040518163ffffffff1660e01b815260040160206040518083038186803b15801561223057600080fd5b505afa158015612244573d6000803e3d6000fd5b505050506040513d602081101561225a57600080fd5b5051613025565b919a50985096505050505050505b93509350939050565b60008080806122878686613158565b9097909650945050505050565b600083116122b45760405162461bcd60e51b81526004016106fa90615175565b600081116122d45760405162461bcd60e51b81526004016106fa90615175565b6122e96001600160a01b0385163330866131d3565b6116436001600160a01b0383163330846131d3565b60ca54604082015160009182918291612324916001600160a01b0389811692169061325b565b60ca546060850151612344916001600160a01b038881169291169061325b565b60ca5484516020860151604080880151606089015160808a015160a08b015193517fec28fcac0000000000000000000000000000000000000000000000000000000081526001600160a01b039097169663ec28fcac966123ad9690959094939291600401615305565b606060405180830381600087803b1580156123c757600080fd5b505af11580156123db573d6000803e3d6000fd5b505050506040513d601f19601f820116820180604052508101906123ff9190615091565b60ca549195509350909150612422906001600160a01b038881169116600061325b565b60ca5461226f906001600160a01b038781169116600061325b565b6000828201838110156108a0576040805162461bcd60e51b815260206004820152601b60248201527f536166654d6174683a206164646974696f6e206f766572666c6f770000000000604482015290519081900360640190fd5b60006124a48484846133b5565b90505b9392505050565b6001600160a01b038216612509576040805162461bcd60e51b815260206004820181905260248201527f4552433732313a206d696e7420746f20746865207a65726f2061646472657373604482015290519081900360640190fd5b61251281611bef565b15612564576040805162461bcd60e51b815260206004820152601c60248201527f4552433732313a20746f6b656e20616c7265616479206d696e74656400000000604482015290519081900360640190fd5b612570600083836106c8565b6001600160a01b03821660009081526097602052604090206125929082612daa565b5061259f60988284612db6565b5060405181906001600160a01b038416906000907fddf252ad1be2c89b69c2b068fc378daa952ba7f163c4a11628f55a4df523b3ef908290a45050565b6125e7848484611d4b565b6125f38484848461347f565b6116435760405162461bcd60e51b81526004018080602001828103825260328152602001806153896032913960400191505060405180910390fd5b60608161266f575060408051808201909152600181527f30000000000000000000000000000000000000000000000000000000000000006020820152610485565b8160005b811561268757600101600a82049150612673565b60008167ffffffffffffffff811180156126a057600080fd5b506040519080825280601f01601f1916602001820160405280156126cb576020820181803683370190505b50859350905060001982015b831561273457600a840660300160f81b828280600190039350815181106126fa57fe5b60200101907effffffffffffffffffffffffffffffffffffffffffffffffffffffffffffff1916908160001a905350600a840493506126d7565b50949350505050565b60006127483061365b565b15905090565b600054610100900460ff1680612767575061276761273d565b80612775575060005460ff16155b6127b05760405162461bcd60e51b815260040180806020018281038252602e8152602001806154bc602e913960400191505060405180910390fd5b600054610100900460ff161580156127db576000805460ff1961ff0019909116610100171660011790555b6127e3613661565b6127eb613703565b6127f583836137b9565b80156106c8576000805461ff0019169055505050565b60006108a083836138e9565b60008060005b866001600160a01b031663b135a1456040518163ffffffff1660e01b815260040160206040518083038186803b15801561285657600080fd5b505afa15801561286a573d6000803e3d6000fd5b505050506040513d602081101561288057600080fd5b50518110156129d757600080886001600160a01b031663cc364f48846040518263ffffffff1660e01b815260040180828152602001915050604080518083038186803b1580156128cf57600080fd5b505afa1580156128e3573d6000803e3d6000fd5b505050506040513d60408110156128f957600080fd5b508051602090910151909250905060006129158b8b8585612eb0565b90506fffffffffffffffffffffffffffffffff8116156129cc5760006040518061010001604052808d6001600160a01b031681526020018c6001600160a01b031681526020018b6001600160a01b031681526020018a8152602001836fffffffffffffffffffffffffffffffff1681526020018981526020018560020b81526020018460020b81525090506000806129ac83613901565b915091506129ba898361243d565b98506129c6888261243d565b97505050505b50505060010161281d565b506000876001600160a01b0316630dfe16816040518163ffffffff1660e01b815260040160206040518083038186803b158015612a1357600080fd5b505afa158015612a27573d6000803e3d6000fd5b505050506040513d6020811015612a3d57600080fd5b5051604080517fd21220a700000000000000000000000000000000000000000000000000000000815290519192506000916001600160a01b038b169163d21220a7916004808301926020929190829003018186803b158015612a9e57600080fd5b505afa158015612ab2573d6000803e3d6000fd5b505050506040513d6020811015612ac857600080fd5b5051604080517f70a082310000000000000000000000000000000000000000000000000000000081526001600160a01b038b811660048301529151929350600092612c5c92612bf192908716916370a0823191602480820192602092909190829003018186803b158015612b3b57600080fd5b505afa158015612b4f573d6000803e3d6000fd5b505050506040513d6020811015612b6557600080fd5b5051604080517feae989a200000000000000000000000000000000000000000000000000000000815290516001600160a01b038e169163eae989a2916004808301926020929190829003018186803b158015612bc057600080fd5b505afa158015612bd4573d6000803e3d6000fd5b505050506040513d6020811015612bea57600080fd5b5051611f12565b878b6001600160a01b03166318160ddd6040518163ffffffff1660e01b815260040160206040518083038186803b158015612c2b57600080fd5b505afa158015612c3f573d6000803e3d6000fd5b505050506040513d6020811015612c5557600080fd5b5051613a6c565b90506000612d72612d38846001600160a01b03166370a082318d6040518263ffffffff1660e01b815260040180826001600160a01b0316815260200191505060206040518083038186803b158015612cb357600080fd5b505afa158015612cc7573d6000803e3d6000fd5b505050506040513d6020811015612cdd57600080fd5b5051604080517fa00fa77f00000000000000000000000000000000000000000000000000000000815290516001600160a01b038f169163a00fa77f916004808301926020929190829003018186803b158015612bc057600080fd5b888c6001600160a01b03166318160ddd6040518163ffffffff1660e01b815260040160206040518083038186803b158015612c2b57600080fd5b9050612d7e868361243d565b9550612d8a858261243d565b9450505050509550959350505050565b5490565b60006108a08383613b1b565b60006108a08383613be1565b60006124a484846001600160a01b038516613c2b565b81546000908210612e0e5760405162461bcd60e51b81526004018080602001828103825260228152602001806153676022913960400191505060405180910390fd5b826000018281548110612e1d57fe5b9060005260206000200154905092915050565b604080516001600160a01b038416602482015260448082018490528251808303909101815260649091019091526020810180517bffffffffffffffffffffffffffffffffffffffffffffffffffffffff167fa9059cbb000000000000000000000000000000000000000000000000000000001790526106c8908490613cc2565b6000846001600160a01b031663514ea4bf612ecc868686612f5f565b6040518263ffffffff1660e01b81526004018082815260200191505060a06040518083038186803b158015612f0057600080fd5b505afa158015612f14573d6000803e3d6000fd5b505050506040513d60a0811015612f2a57600080fd5b505195945050505050565b6000856000612f4687878787613d73565b8152602001908152602001600020905095945050505050565b6040805160609490941b6bffffffffffffffffffffffff1916602080860191909152600293840b60e890811b60348701529290930b90911b60378401528051808403601a018152603a9093019052815191012090565b85546fffffffffffffffffffffffffffffffff9586167fffffffffffffffffffffffffffffffff000000000000000000000000000000009182161787556001870194909455600286019290925560039094018054918416600160801b029484169190921617909116919091179055565b600080808315806130365750600088115b806130415750600087115b61304757fe5b8361306257508490508361305b8282613dcc565b925061314d565b8761307457508361305b818589613a6c565b866130875785915061305b82858a613a6c565b60006130a5613096888a613de3565b6130a0888c613de3565b613e3c565b9050600081116130fc576040805162461bcd60e51b815260206004820152600160248201527f6300000000000000000000000000000000000000000000000000000000000000604482015290519081900360640190fd5b61311a61311361310d836001611f12565b8a613e4b565b600161243d565b925061313361311361312d836001611f12565b8b613e4b565b915061314961314382878c613a6c565b89613e4b565b9350505b955095509592505050565b81546000908190831061319c5760405162461bcd60e51b81526004018080602001828103825260228152602001806154ea6022913960400191505060405180910390fd5b60008460000184815481106131ad57fe5b906000526020600020906002020190508060000154816001015492509250509250929050565b604080516001600160a01b0380861660248301528416604482015260648082018490528251808303909101815260849091019091526020810180517bffffffffffffffffffffffffffffffffffffffffffffffffffffffff167f23b872dd00000000000000000000000000000000000000000000000000000000179052611643908590613cc2565b8015806132fa5750604080517fdd62ed3e0000000000000000000000000000000000000000000000000000000081523060048201526001600160a01b03848116602483015291519185169163dd62ed3e91604480820192602092909190829003018186803b1580156132cc57600080fd5b505afa1580156132e0573d6000803e3d6000fd5b505050506040513d60208110156132f657600080fd5b5051155b6133355760405162461bcd60e51b815260040180806020018281038252603681526020018061562d6036913960400191505060405180910390fd5b604080516001600160a01b038416602482015260448082018490528251808303909101815260649091019091526020810180517bffffffffffffffffffffffffffffffffffffffffffffffffffffffff167f095ea7b3000000000000000000000000000000000000000000000000000000001790526106c8908490613cc2565b600082815260018401602052604081205482816134505760405162461bcd60e51b81526004018080602001828103825283818151815260200191508051906020019080838360005b838110156134155781810151838201526020016133fd565b50505050905090810190601f1680156134425780820380516001836020036101000a031916815260200191505b509250505060405180910390fd5b5084600001600182038154811061346357fe5b9060005260206000209060020201600101549150509392505050565b6000613493846001600160a01b031661365b565b61349f57506001611d43565b60006135f07f150b7a02000000000000000000000000000000000000000000000000000000006134cd611bfc565b88878760405160240180856001600160a01b03168152602001846001600160a01b0316815260200183815260200180602001828103825283818151815260200191508051906020019080838360005b8381101561353457818101518382015260200161351c565b50505050905090810190601f1680156135615780820380516001836020036101000a031916815260200191505b5095505050505050604051602081830303815290604052907bffffffffffffffffffffffffffffffffffffffffffffffffffffffff19166020820180517bffffffffffffffffffffffffffffffffffffffffffffffffffffffff8381831617835250505050604051806060016040528060328152602001615389603291396001600160a01b0388169190613eb2565b9050600081806020019051602081101561360957600080fd5b50517fffffffff00000000000000000000000000000000000000000000000000000000167f150b7a02000000000000000000000000000000000000000000000000000000001492505050949350505050565b3b151590565b600054610100900460ff168061367a575061367a61273d565b80613688575060005460ff16155b6136c35760405162461bcd60e51b815260040180806020018281038252602e8152602001806154bc602e913960400191505060405180910390fd5b600054610100900460ff161580156136ee576000805460ff1961ff0019909116610100171660011790555b8015613700576000805461ff00191690555b50565b600054610100900460ff168061371c575061371c61273d565b8061372a575060005460ff16155b6137655760405162461bcd60e51b815260040180806020018281038252602e8152602001806154bc602e913960400191505060405180910390fd5b600054610100900460ff16158015613790576000805460ff1961ff0019909116610100171660011790555b6136ee7f01ffc9a700000000000000000000000000000000000000000000000000000000613ec1565b600054610100900460ff16806137d257506137d261273d565b806137e0575060005460ff16155b61381b5760405162461bcd60e51b815260040180806020018281038252602e8152602001806154bc602e913960400191505060405180910390fd5b600054610100900460ff16158015613846576000805460ff1961ff0019909116610100171660011790555b825161385990609c906020860190614bf7565b50815161386d90609d906020850190614bf7565b506138977f80ac58cd00000000000000000000000000000000000000000000000000000000613ec1565b6138c07f5b5e139f00000000000000000000000000000000000000000000000000000000613ec1565b6127f57f780e9d6300000000000000000000000000000000000000000000000000000000613ec1565b60009081526001919091016020526040902054151590565b600080600061396d61396585608001516fffffffffffffffffffffffffffffffff168660a0015187602001516001600160a01b03166318160ddd6040518163ffffffff1660e01b815260040160206040518083038186803b158015612c2b57600080fd5b600003613f75565b9050600081600f0b1315613a66576060840151845160c086015160e0870151600092839261399b9287613f86565b9150915060006139b98489602001518a60c001518b60e00151613d73565b905060006139d489602001518a60c001518b60e00151612f5f565b905060006040518060c001604052808b600001516001600160a01b031681526020018b604001516001600160a01b03168152602001848152602001838152602001868152602001858152509050600080613a378c60c001518d60e00151856140a3565b91509150818711613a485786613a4a565b815b9a50808611613a595785613a5b565b805b995050505050505050505b50915091565b6000808060001985870986860292508281109083900303905080613aa25760008411613a9757600080fd5b5082900490506124a7565b808411613aae57600080fd5b6000848688096000868103871696879004966002600389028118808a02820302808a02820302808a02820302808a02820302808a02820302808a02909103029181900381900460010186841190950394909402919094039290920491909117919091029150509392505050565b60008181526001830160205260408120548015613bd75783546000198083019190810190600090879083908110613b4e57fe5b9060005260206000200154905080876000018481548110613b6b57fe5b600091825260208083209091019290925582815260018981019092526040902090840190558654879080613b9b57fe5b600190038181906000526020600020016000905590558660010160008781526020019081526020016000206000905560019450505050506108a3565b60009150506108a3565b6000613bed83836138e9565b613c23575081546001818101845560008481526020808220909301849055845484825282860190935260409020919091556108a3565b5060006108a3565b600082815260018401602052604081205480613c905750506040805180820182528381526020808201848152865460018181018955600089815284812095516002909302909501918255915190820155865486845281880190925292909120556124a7565b82856000016001830381548110613ca357fe5b90600052602060002090600202016001018190555060009150506124a7565b6000613d17826040518060400160405280602081526020017f5361666545524332303a206c6f772d6c6576656c2063616c6c206661696c6564815250856001600160a01b0316613eb29092919063ffffffff16565b8051909150156106c857808060200190516020811015613d3657600080fd5b50516106c85760405162461bcd60e51b815260040180806020018281038252602a815260200180615603602a913960400191505060405180910390fd5b6040805160208082019690965260609490941b6bffffffffffffffffffffffff191684820152600292830b60e890811b60548601529190920b901b60578301528051808303603a018152605a9092019052805191012090565b600081831015613ddc57816108a0565b5090919050565b600082613df2575060006108a3565b82820282848281613dff57fe5b04146108a05760405162461bcd60e51b815260040180806020018281038252602181526020018061550c6021913960400191505060405180910390fd5b6000818310613ddc57816108a0565b6000808211613ea1576040805162461bcd60e51b815260206004820152601a60248201527f536166654d6174683a206469766973696f6e206279207a65726f000000000000604482015290519081900360640190fd5b818381613eaa57fe5b049392505050565b60606124a48484600085614194565b7fffffffff000000000000000000000000000000000000000000000000000000008082161415613f38576040805162461bcd60e51b815260206004820152601c60248201527f4552433136353a20696e76616c696420696e7465726661636520696400000000604482015290519081900360640190fd5b7fffffffff00000000000000000000000000000000000000000000000000000000166000908152606560205260409020805460ff19166001179055565b80600f81900b811461048557600080fd5b600080600080876001600160a01b0316633850c7bd6040518163ffffffff1660e01b815260040160e06040518083038186803b158015613fc557600080fd5b505afa158015613fd9573d6000803e3d6000fd5b505050506040513d60e0811015613fef57600080fd5b5080516020909101519092509050600080600f87900b1561408f578860020b8360020b121561403a576140336140248a6142ef565b61402d8a6142ef565b8961463d565b915061408f565b8760020b8360020b1215614071576140558461402d8a6142ef565b915061406a6140638a6142ef565b8589614681565b905061408f565b61408c61407d8a6142ef565b6140868a6142ef565b89614681565b90505b60009182039a910398509650505050505050565b600080600080600080600087602001516001600160a01b0316638ae881ab89604001516040518263ffffffff1660e01b81526004018082815260200191505060a06040518083038186803b1580156140fa57600080fd5b505afa15801561410e573d6000803e3d6000fd5b505050506040513d60a081101561412457600080fd5b508051602082015160408301516060808501516080909501518d51918e0151949a509298509096509294509250600091829161416291908e8e6146b0565b915091506141818787878d6080015188018e60a0015188018787614958565b9850985050505050505050935093915050565b6060824710156141d55760405162461bcd60e51b81526004018080602001828103825260268152602001806153df6026913960400191505060405180910390fd5b6141de8561365b565b61422f576040805162461bcd60e51b815260206004820152601d60248201527f416464726573733a2063616c6c20746f206e6f6e2d636f6e7472616374000000604482015290519081900360640190fd5b600080866001600160a01b031685876040518082805190602001908083835b6020831061426d5780518252601f19909201916020918201910161424e565b6001836020036101000a03801982511681845116808217855250505050505090500191505060006040518083038185875af1925050503d80600081146142cf576040519150601f19603f3d011682016040523d82523d6000602084013e6142d4565b606091505b50915091506142e48282866149cb565b979650505050505050565b60008060008360020b12614306578260020b61430e565b8260020b6000035b9050620d89e8811115614368576040805162461bcd60e51b815260206004820152600160248201527f5400000000000000000000000000000000000000000000000000000000000000604482015290519081900360640190fd5b60006001821661437c57600160801b61438e565b6ffffcb933bd6fad37aa2d162d1a5940015b70ffffffffffffffffffffffffffffffffff16905060028216156143c2576ffff97272373d413259a46990580e213a0260801c5b60048216156143e1576ffff2e50f5f656932ef12357cf3c7fdcc0260801c5b6008821615614400576fffe5caca7e10e4e61c3624eaa0941cd00260801c5b601082161561441f576fffcb9843d60f6159c9db58835c9266440260801c5b602082161561443e576fff973b41fa98c081472e6896dfb254c00260801c5b604082161561445d576fff2ea16466c96a3843ec78b326b528610260801c5b608082161561447c576ffe5dee046a99a2a811c461f1969c30530260801c5b61010082161561449c576ffcbe86c7900a88aedcffc83b479aa3a40260801c5b6102008216156144bc576ff987a7253ac413176f2b074cf7815e540260801c5b6104008216156144dc576ff3392b0822b70005940c7a398e4b70f30260801c5b6108008216156144fc576fe7159475a2c29b7443b29c7fa6e889d90260801c5b61100082161561451c576fd097f3bdfd2022b8845ad8f792aa58250260801c5b61200082161561453c576fa9f746462d870fdf8a65dc1f90e061e50260801c5b61400082161561455c576f70d869a156d2a1b890bb3df62baf32f70260801c5b61800082161561457c576f31be135f97d08fd981231505542fcfa60260801c5b6201000082161561459d576f09aa508b5b7a84e1c677de54f3e99bc90260801c5b620200008216156145bd576e5d6af8dedb81196699c329225ee6040260801c5b620400008216156145dc576d2216e584f5fa1ea926041bedfe980260801c5b620800008216156145f9576b048a170391f7dc42444e8fa20260801c5b60008460020b131561461457806000198161461057fe5b0490505b64010000000081061561462857600161462b565b60005b60ff16602082901c0192505050919050565b60008082600f0b126146635761465e6146598585856001614a31565b614ae3565b6124a4565b6146766146598585856000036000614a31565b600003949350505050565b60008082600f0b1261469d5761465e6146598585856001614b15565b6146766146598585856000036000614b15565b600080600080876001600160a01b031663514ea4bf886040518263ffffffff1660e01b81526004018082815260200191505060a06040518083038186803b1580156146fa57600080fd5b505afa15801561470e573d6000803e3d6000fd5b505050506040513d60a081101561472457600080fd5b50602081015160409182015182517f3850c7bd000000000000000000000000000000000000000000000000000000008152925191945092506000916001600160a01b038b1691633850c7bd9160048082019260e092909190829003018186803b15801561479057600080fd5b505afa1580156147a4573d6000803e3d6000fd5b505050506040513d60e08110156147ba57600080fd5b5060200151604080517ff30dba9300000000000000000000000000000000000000000000000000000000815260028a900b6004820152905191925060009182916001600160a01b038d169163f30dba939160248082019261010092909190829003018186803b15801561482c57600080fd5b505afa158015614840573d6000803e3d6000fd5b505050506040513d61010081101561485757600080fd5b506040810151606090910151909250905060008060028b810b9086900b1261488357508290508161488c565b50508185038185035b6000808e6001600160a01b031663f30dba938d6040518263ffffffff1660e01b8152600401808260020b81526020019150506101006040518083038186803b1580156148d757600080fd5b505afa1580156148eb573d6000803e3d6000fd5b505050506040513d61010081101561490257600080fd5b506040810151606090910151909250905060008060028e810b908a900b121561492f575082905081614938565b50508189038189035b94909903989098039e91909603919091039b509950505050505050505050565b60008061497e8885038a6fffffffffffffffffffffffffffffffff16600160801b613a6c565b860195506149a58784038a6fffffffffffffffffffffffffffffffff16600160801b613a6c565b6fffffffffffffffffffffffffffffffff9687169a950190951697509295505050505050565b606083156149da5750816124a7565b8251156149ea5782518084602001fd5b60405162461bcd60e51b81526020600482018181528451602484015284518593919283926044019190850190808383600083156134155781810151838201526020016133fd565b6000836001600160a01b0316856001600160a01b03161115614a51579293925b7bffffffffffffffffffffffffffffffff000000000000000000000000606084901b166001600160a01b038686038116908716614a8d57600080fd5b83614abd57866001600160a01b0316614ab08383896001600160a01b0316613a6c565b81614ab757fe5b046142e4565b6142e4614ad48383896001600160a01b0316614bb2565b886001600160a01b0316614bec565b60007f80000000000000000000000000000000000000000000000000000000000000008210614b1157600080fd5b5090565b6000836001600160a01b0316856001600160a01b03161115614b35579293925b81614b7457614b6f836fffffffffffffffffffffffffffffffff168686036001600160a01b03166c01000000000000000000000000613a6c565b614ba9565b614ba9836fffffffffffffffffffffffffffffffff168686036001600160a01b03166c01000000000000000000000000614bb2565b95945050505050565b6000614bbf848484613a6c565b905060008280614bcb57fe5b84860911156124a7576000198110614be257600080fd5b6001019392505050565b808204910615150190565b828054600181600116156101000203166002900490600052602060002090601f016020900481019282614c2d5760008555614c73565b82601f10614c4657805160ff1916838001178555614c73565b82800160010185558215614c73579182015b82811115614c73578251825591602001919060010190614c58565b50614b119291505b80821115614b115760008155600101614c7b565b600060208284031215614ca0578081fd5b81356108a081615351565b600060208284031215614cbc578081fd5b81516108a081615351565b60008060408385031215614cd9578081fd5b8235614ce481615351565b91506020830135614cf481615351565b809150509250929050565b600080600080600080600080610100898b031215614d1b578384fd5b8851614d2681615351565b60208a0151909850614d3781615351565b60408a0151909750614d4881615351565b60608a0151909650614d5981615351565b60808a015160a08b015160c08c015160e0909c01519a9d999c50979a91999098919650945092505050565b600080600060608486031215614d98578283fd5b8335614da381615351565b92506020840135614db381615351565b929592945050506040919091013590565b60008060008060808587031215614dd9578384fd5b8435614de481615351565b9350602085810135614df581615351565b935060408601359250606086013567ffffffffffffffff80821115614e18578384fd5b818801915088601f830112614e2b578384fd5b813581811115614e3757fe5b614e4984601f19601f8401160161532d565b91508082528984828501011115614e5e578485fd5b8084840185840137810190920192909252939692955090935050565b60008060408385031215614e8c578182fd5b8235614e9781615351565b915060208301358015158114614cf4578182fd5b60008060408385031215614ebd578182fd5b8235614ec881615351565b946020939093013593505050565b600060208284031215614ee7578081fd5b5035919050565b600060208284031215614eff578081fd5b81357fffffffff00000000000000000000000000000000000000000000000000000000811681146108a0578182fd5b600060c08284031215614f3f578081fd5b60405160c0810181811067ffffffffffffffff82111715614f5c57fe5b8060405250823581526020830135602082015260408301356040820152606083013560608201526080830135608082015260a083013560a08201528091505092915050565b600060a08284031215614fb2578081fd5b60405160a0810181811067ffffffffffffffff82111715614fcf57fe5b806040525082358152602083013560208201526040830135604082015260608301356060820152608083013560808201528091505092915050565b60006020828403121561501b578081fd5b5051919050565b60008060408385031215615034578182fd5b50508035926020909101359150565b60008060408385031215615055578182fd5b505080516020909101519092909150565b60008060006060848603121561507a578081fd5b505081359360208301359350604090920135919050565b6000806000606084860312156150a5578081fd5b8351925060208401519150604084015190509250925092565b918252602082015260400190565b6001600160a01b0391909116815260200190565b901515815260200190565b6000602080835283518082850152825b81811015615117578581018301518582016040015282016150fb565b818111156151285783604083870101525b50601f01601f1916929092016040019392505050565b60208082526002908201527f4f4f000000000000000000000000000000000000000000000000000000000000604082015260600190565b60208082526002908201527f4e5a000000000000000000000000000000000000000000000000000000000000604082015260600190565b60208082526003908201527f4348490000000000000000000000000000000000000000000000000000000000604082015260600190565b6020808252600a908201527f6f6e6c79206f776e657200000000000000000000000000000000000000000000604082015260600190565b6020808252600c908201527f6e6f7420617070726f7665640000000000000000000000000000000000000000604082015260600190565b60208082526013908201527f696e73756666696369656e742073686172657300000000000000000000000000604082015260600190565b6fffffffffffffffffffffffffffffffff95861681526020810194909452604084019290925283166060830152909116608082015260a00190565b90815260200190565b9283526020830191909152604082015260600190565b948552602085019390935260408401919091526060830152608082015260a00190565b958652602086019490945260408501929092526060840152608083015260a082015260c00190565b60405181810167ffffffffffffffff8111828210171561534957fe5b604052919050565b6001600160a01b038116811461370057600080fdfe456e756d657261626c655365743a20696e646578206f7574206f6620626f756e64734552433732313a207472616e7366657220746f206e6f6e20455243373231526563656976657220696d706c656d656e7465724552433732313a207472616e7366657220746f20746865207a65726f2061646472657373416464726573733a20696e73756666696369656e742062616c616e636520666f722063616c6c4552433732313a206f70657261746f7220717565727920666f72206e6f6e6578697374656e7420746f6b656e4552433732313a20617070726f76652063616c6c6572206973206e6f74206f776e6572206e6f7220617070726f76656420666f7220616c6c4552433732313a2062616c616e636520717565727920666f7220746865207a65726f20616464726573734552433732313a206f776e657220717565727920666f72206e6f6e6578697374656e7420746f6b656e496e697469616c697a61626c653a20636f6e747261637420697320616c726561647920696e697469616c697a6564456e756d657261626c654d61703a20696e646578206f7574206f6620626f756e6473536166654d6174683a206d756c7469706c69636174696f6e206f766572666c6f774552433732313a20617070726f76656420717565727920666f72206e6f6e6578697374656e7420746f6b656e4552433732313a207472616e73666572206f6620746f6b656e2074686174206973206e6f74206f776e4552433732314d657461646174613a2055524920717565727920666f72206e6f6e6578697374656e7420746f6b656e4552433732313a20617070726f76616c20746f2063757272656e74206f776e65724552433732313a207472616e736665722063616c6c6572206973206e6f74206f776e6572206e6f7220617070726f7665645361666545524332303a204552433230206f7065726174696f6e20646964206e6f7420737563636565645361666545524332303a20617070726f76652066726f6d206e6f6e2d7a65726f20746f206e6f6e2d7a65726f20616c6c6f77616e6365a164736f6c6343000706000a",
  "linkReferences": {},
  "deployedLinkReferences": {}
}