{
  "_format": "hh-sol-artifact-1",
  "contractName": "YangNFTVault",
  "sourceName": "contracts/YangNFTVault.sol",
  "abi": [
    {
      "anonymous": false,
      "inputs": [
        {
          "indexed": true,
          "internalType": "address",
          "name": "owner",
          "type": "address"
        },
        {
          "indexed": true,
          "internalType": "address",
          "name": "approved",
          "type": "address"
        },
        {
          "indexed": true,
          "internalType": "uint256",
          "name": "tokenId",
          "type": "uint256"
        }
      ],
      "name": "Approval",
      "type": "event"
    },
    {
      "anonymous": false,
      "inputs": [
        {
          "indexed": true,
          "internalType": "address",
          "name": "owner",
          "type": "address"
        },
        {
          "indexed": true,
          "internalType": "address",
          "name": "operator",
          "type": "address"
        },
        {
          "indexed": false,
          "internalType": "bool",
          "name": "approved",
          "type": "bool"
        }
      ],
      "name": "ApprovalForAll",
      "type": "event"
    },
    {
      "anonymous": false,
      "inputs": [
        {
          "indexed": true,
          "internalType": "address",
          "name": "recipient",
          "type": "address"
        },
        {
          "indexed": true,
          "internalType": "uint256",
          "name": "tokenId",
          "type": "uint256"
        }
      ],
      "name": "MintYangNFT",
      "type": "event"
    },
    {
      "anonymous": false,
      "inputs": [
        {
          "indexed": true,
          "internalType": "uint256",
          "name": "yangId",
          "type": "uint256"
        },
        {
          "indexed": true,
          "internalType": "uint256",
          "name": "chiId",
          "type": "uint256"
        },
        {
          "indexed": true,
          "internalType": "uint256",
          "name": "share",
          "type": "uint256"
        }
      ],
      "name": "Subscribe",
      "type": "event"
    },
    {
      "anonymous": false,
      "inputs": [
        {
          "indexed": true,
          "internalType": "address",
          "name": "from",
          "type": "address"
        },
        {
          "indexed": true,
          "internalType": "address",
          "name": "to",
          "type": "address"
        },
        {
          "indexed": true,
          "internalType": "uint256",
          "name": "tokenId",
          "type": "uint256"
        }
      ],
      "name": "Transfer",
      "type": "event"
    },
    {
      "anonymous": false,
      "inputs": [
        {
          "indexed": true,
          "internalType": "uint256",
          "name": "yangId",
          "type": "uint256"
        },
        {
          "indexed": true,
          "internalType": "uint256",
          "name": "chiId",
          "type": "uint256"
        },
        {
          "indexed": false,
          "internalType": "uint256",
          "name": "amount0",
          "type": "uint256"
        },
        {
          "indexed": false,
          "internalType": "uint256",
          "name": "amount1",
          "type": "uint256"
        }
      ],
      "name": "UnSubscribe",
      "type": "event"
    },
    {
      "inputs": [
        {
          "internalType": "address",
          "name": "to",
          "type": "address"
        },
        {
          "internalType": "uint256",
          "name": "tokenId",
          "type": "uint256"
        }
      ],
      "name": "approve",
      "outputs": [],
      "stateMutability": "nonpayable",
      "type": "function"
    },
    {
      "inputs": [
        {
          "internalType": "address",
          "name": "owner",
          "type": "address"
        }
      ],
      "name": "balanceOf",
      "outputs": [
        {
          "internalType": "uint256",
          "name": "",
          "type": "uint256"
        }
      ],
      "stateMutability": "view",
      "type": "function"
    },
    {
      "inputs": [],
      "name": "baseURI",
      "outputs": [
        {
          "internalType": "string",
          "name": "",
          "type": "string"
        }
      ],
      "stateMutability": "view",
      "type": "function"
    },
    {
      "inputs": [
        {
          "internalType": "uint256",
          "name": "yangId",
          "type": "uint256"
        },
        {
          "internalType": "uint256",
          "name": "chiId",
          "type": "uint256"
        }
      ],
      "name": "getAmounts",
      "outputs": [
        {
          "internalType": "uint256",
          "name": "amount0",
          "type": "uint256"
        },
        {
          "internalType": "uint256",
          "name": "amount1",
          "type": "uint256"
        }
      ],
      "stateMutability": "view",
      "type": "function"
    },
    {
      "inputs": [
        {
          "internalType": "uint256",
          "name": "tokenId",
          "type": "uint256"
        }
      ],
      "name": "getApproved",
      "outputs": [
        {
          "internalType": "address",
          "name": "",
          "type": "address"
        }
      ],
      "stateMutability": "view",
      "type": "function"
    },
    {
      "inputs": [
        {
          "internalType": "uint256",
          "name": "chiId",
          "type": "uint256"
        }
      ],
      "name": "getCHIAccruedFees",
      "outputs": [
        {
          "internalType": "uint256",
          "name": "fee0",
          "type": "uint256"
        },
        {
          "internalType": "uint256",
          "name": "fee1",
          "type": "uint256"
        }
      ],
      "stateMutability": "view",
      "type": "function"
    },
    {
      "inputs": [
        {
          "internalType": "uint256",
          "name": "chiId",
          "type": "uint256"
        }
      ],
      "name": "getCHITotalAmounts",
      "outputs": [
        {
          "internalType": "uint256",
          "name": "amount0",
          "type": "uint256"
        },
        {
          "internalType": "uint256",
          "name": "amount1",
          "type": "uint256"
        }
      ],
      "stateMutability": "view",
      "type": "function"
    },
    {
      "inputs": [
        {
          "internalType": "uint256",
          "name": "chiId",
          "type": "uint256"
        },
        {
          "internalType": "uint256",
          "name": "amount0Desired",
          "type": "uint256"
        },
        {
          "internalType": "uint256",
          "name": "amount1Desired",
          "type": "uint256"
        }
      ],
      "name": "getShares",
      "outputs": [
        {
          "internalType": "uint256",
          "name": "shares",
          "type": "uint256"
        },
        {
          "internalType": "uint256",
          "name": "amount0",
          "type": "uint256"
        },
        {
          "internalType": "uint256",
          "name": "amount1",
          "type": "uint256"
        }
      ],
      "stateMutability": "view",
      "type": "function"
    },
    {
      "inputs": [
        {
          "internalType": "address",
          "name": "recipient",
          "type": "address"
        }
      ],
      "name": "getTokenId",
      "outputs": [
        {
          "internalType": "uint256",
          "name": "",
          "type": "uint256"
        }
      ],
      "stateMutability": "view",
      "type": "function"
    },
    {
      "inputs": [],
      "name": "initialize",
      "outputs": [],
      "stateMutability": "nonpayable",
      "type": "function"
    },
    {
      "inputs": [
        {
          "internalType": "address",
          "name": "owner",
          "type": "address"
        },
        {
          "internalType": "address",
          "name": "operator",
          "type": "address"
        }
      ],
      "name": "isApprovedForAll",
      "outputs": [
        {
          "internalType": "bool",
          "name": "",
          "type": "bool"
        }
      ],
      "stateMutability": "view",
      "type": "function"
    },
    {
      "inputs": [
        {
          "internalType": "address",
          "name": "recipient",
          "type": "address"
        }
      ],
      "name": "mint",
      "outputs": [
        {
          "internalType": "uint256",
          "name": "tokenId",
          "type": "uint256"
        }
      ],
      "stateMutability": "nonpayable",
      "type": "function"
    },
    {
      "inputs": [],
      "name": "name",
      "outputs": [
        {
          "internalType": "string",
          "name": "",
          "type": "string"
        }
      ],
      "stateMutability": "view",
      "type": "function"
    },
    {
      "inputs": [],
      "name": "owner",
      "outputs": [
        {
          "internalType": "address",
          "name": "",
          "type": "address"
        }
      ],
      "stateMutability": "view",
      "type": "function"
    },
    {
      "inputs": [
        {
          "internalType": "uint256",
          "name": "tokenId",
          "type": "uint256"
        }
      ],
      "name": "ownerOf",
      "outputs": [
        {
          "internalType": "address",
          "name": "",
          "type": "address"
        }
      ],
      "stateMutability": "view",
      "type": "function"
    },
    {
      "inputs": [
        {
          "internalType": "bytes32",
          "name": "key",
          "type": "bytes32"
        }
      ],
      "name": "poolPositions",
      "outputs": [
        {
          "internalType": "uint128",
          "name": "liquidity",
          "type": "uint128"
        },
        {
          "internalType": "uint256",
          "name": "feeGrowthInside0LastX128",
          "type": "uint256"
        },
        {
          "internalType": "uint256",
          "name": "feeGrowthInside1LastX128",
          "type": "uint256"
        },
        {
          "internalType": "uint128",
          "name": "tokensOwed0",
          "type": "uint128"
        },
        {
          "internalType": "uint128",
          "name": "tokensOwed1",
          "type": "uint128"
        }
      ],
      "stateMutability": "view",
      "type": "function"
    },
    {
      "inputs": [
        {
          "internalType": "address",
          "name": "from",
          "type": "address"
        },
        {
          "internalType": "address",
          "name": "to",
          "type": "address"
        },
        {
          "internalType": "uint256",
          "name": "tokenId",
          "type": "uint256"
        }
      ],
      "name": "safeTransferFrom",
      "outputs": [],
      "stateMutability": "nonpayable",
      "type": "function"
    },
    {
      "inputs": [
        {
          "internalType": "address",
          "name": "from",
          "type": "address"
        },
        {
          "internalType": "address",
          "name": "to",
          "type": "address"
        },
        {
          "internalType": "uint256",
          "name": "tokenId",
          "type": "uint256"
        },
        {
          "internalType": "bytes",
          "name": "_data",
          "type": "bytes"
        }
      ],
      "name": "safeTransferFrom",
      "outputs": [],
      "stateMutability": "nonpayable",
      "type": "function"
    },
    {
      "inputs": [
        {
          "internalType": "address",
          "name": "operator",
          "type": "address"
        },
        {
          "internalType": "bool",
          "name": "approved",
          "type": "bool"
        }
      ],
      "name": "setApprovalForAll",
      "outputs": [],
      "stateMutability": "nonpayable",
      "type": "function"
    },
    {
      "inputs": [
        {
          "internalType": "address",
          "name": "_chiManager",
          "type": "address"
        }
      ],
      "name": "setCHIManager",
      "outputs": [],
      "stateMutability": "nonpayable",
      "type": "function"
    },
    {
      "inputs": [
        {
          "components": [
            {
              "internalType": "uint256",
              "name": "yangId",
              "type": "uint256"
            },
            {
              "internalType": "uint256",
              "name": "chiId",
              "type": "uint256"
            },
            {
              "internalType": "uint256",
              "name": "amount0Desired",
              "type": "uint256"
            },
            {
              "internalType": "uint256",
              "name": "amount1Desired",
              "type": "uint256"
            },
            {
              "internalType": "uint256",
              "name": "amount0Min",
              "type": "uint256"
            },
            {
              "internalType": "uint256",
              "name": "amount1Min",
              "type": "uint256"
            }
          ],
          "internalType": "struct IYangNFTVault.SubscribeParam",
          "name": "params",
          "type": "tuple"
        }
      ],
      "name": "subscribe",
      "outputs": [
        {
          "internalType": "uint256",
          "name": "amount0",
          "type": "uint256"
        },
        {
          "internalType": "uint256",
          "name": "amount1",
          "type": "uint256"
        },
        {
          "internalType": "uint256",
          "name": "shares",
          "type": "uint256"
        }
      ],
      "stateMutability": "nonpayable",
      "type": "function"
    },
    {
      "inputs": [
        {
          "internalType": "bytes4",
          "name": "interfaceId",
          "type": "bytes4"
        }
      ],
      "name": "supportsInterface",
      "outputs": [
        {
          "internalType": "bool",
          "name": "",
          "type": "bool"
        }
      ],
      "stateMutability": "view",
      "type": "function"
    },
    {
      "inputs": [],
      "name": "symbol",
      "outputs": [
        {
          "internalType": "string",
          "name": "",
          "type": "string"
        }
      ],
      "stateMutability": "view",
      "type": "function"
    },
    {
      "inputs": [
        {
          "internalType": "uint256",
          "name": "index",
          "type": "uint256"
        }
      ],
      "name": "tokenByIndex",
      "outputs": [
        {
          "internalType": "uint256",
          "name": "",
          "type": "uint256"
        }
      ],
      "stateMutability": "view",
      "type": "function"
    },
    {
      "inputs": [
        {
          "internalType": "address",
          "name": "owner",
          "type": "address"
        },
        {
          "internalType": "uint256",
          "name": "index",
          "type": "uint256"
        }
      ],
      "name": "tokenOfOwnerByIndex",
      "outputs": [
        {
          "internalType": "uint256",
          "name": "",
          "type": "uint256"
        }
      ],
      "stateMutability": "view",
      "type": "function"
    },
    {
      "inputs": [
        {
          "internalType": "uint256",
          "name": "tokenId",
          "type": "uint256"
        }
      ],
      "name": "tokenURI",
      "outputs": [
        {
          "internalType": "string",
          "name": "",
          "type": "string"
        }
      ],
      "stateMutability": "view",
      "type": "function"
    },
    {
      "inputs": [],
      "name": "totalSupply",
      "outputs": [
        {
          "internalType": "uint256",
          "name": "",
          "type": "uint256"
        }
      ],
      "stateMutability": "view",
      "type": "function"
    },
    {
      "inputs": [
        {
          "internalType": "address",
          "name": "from",
          "type": "address"
        },
        {
          "internalType": "address",
          "name": "to",
          "type": "address"
        },
        {
          "internalType": "uint256",
          "name": "tokenId",
          "type": "uint256"
        }
      ],
      "name": "transferFrom",
      "outputs": [],
      "stateMutability": "nonpayable",
      "type": "function"
    },
    {
      "inputs": [
        {
          "components": [
            {
              "internalType": "uint256",
              "name": "yangId",
              "type": "uint256"
            },
            {
              "internalType": "uint256",
              "name": "chiId",
              "type": "uint256"
            },
            {
              "internalType": "uint256",
              "name": "shares",
              "type": "uint256"
            },
            {
              "internalType": "uint256",
              "name": "amount0Min",
              "type": "uint256"
            },
            {
              "internalType": "uint256",
              "name": "amount1Min",
              "type": "uint256"
            }
          ],
          "internalType": "struct IYangNFTVault.UnSubscribeParam",
          "name": "params",
          "type": "tuple"
        }
      ],
      "name": "unsubscribe",
      "outputs": [],
      "stateMutability": "nonpayable",
      "type": "function"
    },
    {
      "inputs": [
        {
          "internalType": "uint256",
          "name": "yangId",
          "type": "uint256"
        },
        {
          "internalType": "uint256",
          "name": "chiId",
          "type": "uint256"
        }
      ],
      "name": "yangPositions",
      "outputs": [
        {
          "internalType": "uint256",
          "name": "amount0",
          "type": "uint256"
        },
        {
          "internalType": "uint256",
          "name": "amount1",
          "type": "uint256"
        },
        {
          "internalType": "uint256",
          "name": "shares",
          "type": "uint256"
        }
      ],
      "stateMutability": "view",
      "type": "function"
    }
  ],
  "bytecode": "0x6080604052600160cb5534801561001557600080fd5b5061565c806100256000396000f3fe608060405234801561001057600080fd5b50600436106101da5760003560e01c80636352211e1161010457806395d89b41116100a2578063c87b56dd11610071578063c87b56dd146103f8578063e5d9cc9a1461040b578063e985e9c51461041e578063f153768614610431576101da565b806395d89b41146103b7578063a22cb465146103bf578063a244a481146103d2578063b88d4fde146103e5576101da565b806370a08231116100de57806370a08231146103705780638129fc1c146103835780638ae881ab1461038b5780638da5cb5b146103af576101da565b80636352211e146103425780636a627842146103555780636c0360eb14610368576101da565b806323b872dd1161017c57806342e6e0fe1161014b57806342e6e0fe146102f65780634f6ccce7146103095780635c0d107e1461031c5780635f0600f71461032f576101da565b806323b872dd146102aa5780632f745c59146102bd5780633ab2e4ba146102d057806342842e0e146102e3576101da565b8063081812fc116101b8578063081812fc1461023f578063095ea7b31461025f57806316529c461461027457806318160ddd14610295576101da565b806301ffc9a7146101df5780630589ea3d1461020857806306fdde031461022a575b600080fd5b6101f26101ed366004614edb565b610444565b6040516101ff91906150cd565b60405180910390f35b61021b61021636600461500f565b61047f565b6040516101ff939291906152b9565b6102326104f4565b6040516101ff91906150d8565b61025261024d366004614ec3565b61058a565b6040516101ff91906150b9565b61027261026d366004614e98565b6105ec565b005b61028761028236600461500f565b6106c2565b6040516101ff9291906150ab565b61029d61080b565b6040516101ff91906152b0565b6102726102b8366004614d71565b61081c565b61029d6102cb366004614e98565b610873565b6102726102de366004614f8e565b61089e565b6102726102f1366004614d71565b610cda565b61021b610304366004615053565b610cf5565b61029d610317366004614ec3565b610dca565b61021b61032a366004614f1b565b610de0565b61028761033d366004614ec3565b6110e7565b610252610350366004614ec3565b61121a565b61029d610363366004614c7c565b611242565b6102326112d6565b61029d61037e366004614c7c565b611337565b61027261139f565b61039e610399366004614ec3565b6114d1565b6040516101ff959493929190615275565b610252611544565b610232611553565b6102726103cd366004614e67565b6115b4565b6102726103e0366004614c7c565b6116b9565b6102726103f3366004614db1565b611712565b610232610406366004614ec3565b611770565b610287610419366004614ec3565b6119f1565b6101f261042c366004614cb4565b611b95565b61029d61043f366004614c7c565b611bc3565b7fffffffff00000000000000000000000000000000000000000000000000000000811660009081526065602052604090205460ff165b919050565b60008060008060cd6000878760405160200161049c9291906150ab565b60408051601f1981840301815291815281516020928301208352828201939093529082016000208251606081018452815480825260018301549382018490526002909201549301839052989097509095509350505050565b609c8054604080516020601f60026000196101006001881615020190951694909404938401819004810282018101909252828152606093909290918301828280156105805780601f1061055557610100808354040283529160200191610580565b820191906000526020600020905b81548152906001019060200180831161056357829003601f168201915b5050505050905090565b600061059582611bde565b6105d05760405162461bcd60e51b815260040180806020018281038252602c81526020018061551a602c913960400191505060405180910390fd5b506000908152609a60205260409020546001600160a01b031690565b60006105f78261121a565b9050806001600160a01b0316836001600160a01b0316141561064a5760405162461bcd60e51b815260040180806020018281038252602181526020018061559e6021913960400191505060405180910390fd5b806001600160a01b031661065c611beb565b6001600160a01b0316148061067857506106788161042c611beb565b6106b35760405162461bcd60e51b815260040180806020018281038252603881526020018061541e6038913960400191505060405180910390fd5b6106bd8383611bef565b505050565b60ca5460009081906001600160a01b03166106f85760405162461bcd60e51b81526004016106ef90615199565b60405180910390fd5b6000848460405160200161070d9291906150ab565b60408051601f198184030181528282528051602091820120600081815260cd8352839020606085018452805485526001810154928501929092526002909101549183018290529250156108025760ca54604051635cef66b360e11b815260009182916001600160a01b039091169063b9decd669061078f908a906004016152b0565b6101006040518083038186803b1580156107a857600080fd5b505afa1580156107bc573d6000803e3d6000fd5b505050506040513d601f19601f820116820180604052508101906107e09190614cec565b505050509350935050506107fa82828a8660400151611c6a565b909650945050505b50509250929050565b60006108176098611c8b565b905090565b61082d610827611beb565b82611c96565b6108685760405162461bcd60e51b81526004018080602001828103825260318152602001806155bf6031913960400191505060405180910390fd5b6106bd838383611d3a565b6001600160a01b03821660009081526097602052604081206108959083611e86565b90505b92915050565b600260015414156108f6576040805162461bcd60e51b815260206004820152601f60248201527f5265656e7472616e637947756172643a207265656e7472616e742063616c6c00604482015290519081900360640190fd5b600260015580516109073382611c96565b6109235760405162461bcd60e51b81526004016106ef90615207565b60ca546001600160a01b031661094b5760405162461bcd60e51b81526004016106ef90615199565b60ca546020830151604051635cef66b360e11b815260009283926001600160a01b039091169163b9decd6691610983916004016152b0565b6101006040518083038186803b15801561099c57600080fd5b505afa1580156109b0573d6000803e3d6000fd5b505050506040513d601f19601f820116820180604052508101906109d49190614cec565b505050509350935050506000846000015185602001516040516020016109fb9291906150ab565b604051602081830303815290604052805190602001209050846040015160cd6000838152602001908152602001600020600201541015610a4d5760405162461bcd60e51b81526004016106ef9061523e565b60ca548551602087015160408089015160608a015160808b015192517f46698e7500000000000000000000000000000000000000000000000000000000815260009687966001600160a01b03909116956346698e7595610ab395929491936004016152cf565b6040805180830381600087803b158015610acc57600080fd5b505af1158015610ae0573d6000803e3d6000fd5b505050506040513d601f19601f82011682018060405250810190610b049190615030565b915091506000859050610bf9816001600160a01b0316630dfe16816040518163ffffffff1660e01b815260040160206040518083038186803b158015610b4957600080fd5b505afa158015610b5d573d6000803e3d6000fd5b505050506040513d601f19601f82011682018060405250810190610b819190614c98565b84836001600160a01b031663d21220a76040518163ffffffff1660e01b815260040160206040518083038186803b158015610bbb57600080fd5b505afa158015610bcf573d6000803e3d6000fd5b505050506040513d601f19601f82011682018060405250810190610bf39190614c98565b85611e92565b87516020890151600091610c109160cd9190611ec6565b9050610c2d89604001518260020154611f0190919063ffffffff16565b600282015580548410610c41576000610c4d565b8054610c4d9085611f01565b815560018101548310610c61576000610c70565b6001810154610c709084611f01565b600182015588518690610c899060ce9085908490611f5e565b60208a01518a516040517fb65ca58d729d89d58e1ed48a179b40d4a6b56e3e101a10085a0f43915cf1448890610cc290899089906150ab565b60405180910390a35050600180555050505050505050565b6106bd83838360405180602001604052806000815250611712565b60ca54600090819081906001600160a01b0316610d245760405162461bcd60e51b81526004016106ef90615199565b60ca54604051635cef66b360e11b81526000916001600160a01b03169063b9decd6690610d55908a906004016152b0565b6101006040518083038186803b158015610d6e57600080fd5b505afa158015610d82573d6000803e3d6000fd5b505050506040513d601f19601f82011682018060405250810190610da69190614cec565b505050509350505050610dba81878761214d565b9199909850909650945050505050565b600080610dd8609884612267565b509392505050565b60008060008360000151610df43382611c96565b610e105760405162461bcd60e51b81526004016106ef90615207565b60026001541415610e68576040805162461bcd60e51b815260206004820152601f60248201527f5265656e7472616e637947756172643a207265656e7472616e742063616c6c00604482015290519081900360640190fd5b600260015560ca546001600160a01b0316610e955760405162461bcd60e51b81526004016106ef90615199565b60ca546020860151604051635cef66b360e11b815260009283926001600160a01b039091169163b9decd6691610ecd916004016152b0565b6101006040518083038186803b158015610ee657600080fd5b505afa158015610efa573d6000803e3d6000fd5b505050506040513d601f19601f82011682018060405250810190610f1e9190614cec565b5050505093509350505060008290506000816001600160a01b0316630dfe16816040518163ffffffff1660e01b815260040160206040518083038186803b158015610f6857600080fd5b505afa158015610f7c573d6000803e3d6000fd5b505050506040513d601f19601f82011682018060405250810190610fa09190614c98565b90506000826001600160a01b031663d21220a76040518163ffffffff1660e01b815260040160206040518083038186803b158015610fdd57600080fd5b505afa158015610ff1573d6000803e3d6000fd5b505050506040513d601f19601f820116820180604052508101906110159190614c98565b905061102b828b60400151838d60600151612283565b61103682828c6122ed565b8c5160208e0151939c50919a5098506000916110549160cd91611ec6565b8054909150611063908b61242c565b81556001810154611074908a61242c565b60018201556002810154611088908961242c565b60028201558a5161109f9060ce9086908890611f5e565b60208b01518b516040518a9291907f17de92c1076ec5855c3edd4a6084a82c184adfda177deb99d6532697cdac91cb90600090a4505060018055509597949650929450505050565b60ca5460009081906001600160a01b03166111145760405162461bcd60e51b81526004016106ef90615199565b60ca54604051635cef66b360e11b81526000916001600160a01b03169063b9decd66906111459087906004016152b0565b6101006040518083038186803b15801561115e57600080fd5b505afa158015611172573d6000803e3d6000fd5b505050506040513d601f19601f820116820180604052508101906111969190614cec565b505050509350505050806001600160a01b031663c4a7761e6040518163ffffffff1660e01b8152600401604080518083038186803b1580156111d757600080fd5b505afa1580156111eb573d6000803e3d6000fd5b505050506040513d601f19601f8201168201806040525081019061120f9190615030565b909590945092505050565b6000610898826040518060600160405280602981526020016154806029913960989190612486565b6001600160a01b038116600090815260cc6020526040812054156112785760405162461bcd60e51b81526004016106ef9061512b565b5060cb80546001810190915561128e828261249d565b6001600160a01b038216600081815260cc6020526040808220849055518392917f74629109564de5ce9d04dc84bb5ecd8fbb0c98843a3fbd43f057825a9255449c91a3919050565b609f8054604080516020601f60026000196101006001881615020190951694909404938401819004810282018101909252828152606093909290918301828280156105805780601f1061055557610100808354040283529160200191610580565b60006001600160a01b03821661137e5760405162461bcd60e51b815260040180806020018281038252602a815260200180615456602a913960400191505060405180910390fd5b6001600160a01b038216600090815260976020526040902061089890611c8b565b600054610100900460ff16806113b857506113b86125cb565b806113c6575060005460ff16155b6114015760405162461bcd60e51b815260040180806020018281038252602e8152602001806154a9602e913960400191505060405180910390fd5b600054610100900460ff1615801561142c576000805460ff1961ff0019909116610100171660011790555b60c9805473ffffffffffffffffffffffffffffffffffffffff191633179055604080518082018252601781527f59494e204173736574204d616e61676572205661756c740000000000000000006020808301919091528251808401909352600483527f59414e4700000000000000000000000000000000000000000000000000000000908301526114bc916125dc565b80156114ce576000805461ff00191690555b50565b600090815260ce6020908152604091829020825160a08101845281546fffffffffffffffffffffffffffffffff9081168083526001840154948301859052600284015495830186905260039093015480821660608401819052600160801b90910490911660809092018290529194929392565b60c9546001600160a01b031681565b609d8054604080516020601f60026000196101006001881615020190951694909404938401819004810282018101909252828152606093909290918301828280156105805780601f1061055557610100808354040283529160200191610580565b6115bc611beb565b6001600160a01b0316826001600160a01b03161415611622576040805162461bcd60e51b815260206004820152601960248201527f4552433732313a20617070726f766520746f2063616c6c657200000000000000604482015290519081900360640190fd5b80609b600061162f611beb565b6001600160a01b03908116825260208083019390935260409182016000908120918716808252919093529120805460ff191692151592909217909155611673611beb565b6001600160a01b03167f17307eab39ab6107e8899845ad3d59bd9653f200f220920489ca2b5937696c318360405180821515815260200191505060405180910390a35050565b60c9546001600160a01b031633146116e35760405162461bcd60e51b81526004016106ef906151d0565b60ca805473ffffffffffffffffffffffffffffffffffffffff19166001600160a01b0392909216919091179055565b61172361171d611beb565b83611c96565b61175e5760405162461bcd60e51b81526004018080602001828103825260318152602001806155bf6031913960400191505060405180910390fd5b61176a84848484612699565b50505050565b606061177b82611bde565b6117b65760405162461bcd60e51b815260040180806020018281038252602f81526020018061556f602f913960400191505060405180910390fd5b6000828152609e602090815260408083208054825160026001831615610100026000190190921691909104601f8101859004850282018501909352828152929091908301828280156118495780601f1061181e57610100808354040283529160200191611849565b820191906000526020600020905b81548152906001019060200180831161182c57829003601f168201915b50505050509050600061185a6112d6565b905080516000141561186e5750905061047a565b81511561192f5780826040516020018083805190602001908083835b602083106118a95780518252601f19909201916020918201910161188a565b51815160209384036101000a600019018019909216911617905285519190930192850191508083835b602083106118f15780518252601f1990920191602091820191016118d2565b6001836020036101000a038019825116818451168082178552505050505050905001925050506040516020818303038152906040529250505061047a565b80611939856126eb565b6040516020018083805190602001908083835b6020831061196b5780518252601f19909201916020918201910161194c565b51815160209384036101000a600019018019909216911617905285519190930192850191508083835b602083106119b35780518252601f199092019160209182019101611994565b6001836020036101000a0380198251168184511680821785525050505050509050019250505060405160208183030381529060405292505050919050565b60ca5460009081906001600160a01b0316611a1e5760405162461bcd60e51b81526004016106ef90615199565b60ca54604051635cef66b360e11b81526000916001600160a01b03169063b9decd6690611a4f9087906004016152b0565b6101006040518083038186803b158015611a6857600080fd5b505afa158015611a7c573d6000803e3d6000fd5b505050506040513d601f19601f82011682018060405250810190611aa09190614cec565b505050509350505050806001600160a01b031663eae989a26040518163ffffffff1660e01b815260040160206040518083038186803b158015611ae257600080fd5b505afa158015611af6573d6000803e3d6000fd5b505050506040513d601f19601f82011682018060405250810190611b1a9190614ff7565b9250806001600160a01b031663a00fa77f6040518163ffffffff1660e01b815260040160206040518083038186803b158015611b5557600080fd5b505afa158015611b69573d6000803e3d6000fd5b505050506040513d601f19601f82011682018060405250810190611b8d9190614ff7565b915050915091565b6001600160a01b039182166000908152609b6020908152604080832093909416825291909152205460ff1690565b6001600160a01b0316600090815260cc602052604090205490565b60006108986098836127fa565b3390565b6000818152609a60205260409020805473ffffffffffffffffffffffffffffffffffffffff19166001600160a01b0384169081179091558190611c318261121a565b6001600160a01b03167f8c5be1e5ebec7d5bd14f71427d1e84f3dd0314c0f7b2291e5b200ac8c7c3b92560405160405180910390a45050565b6000808486611c7c8183338989612806565b90999098509650505050505050565b600061089882612d89565b6000611ca182611bde565b611cdc5760405162461bcd60e51b815260040180806020018281038252602c8152602001806153f2602c913960400191505060405180910390fd5b6000611ce78361121a565b9050806001600160a01b0316846001600160a01b03161480611d225750836001600160a01b0316611d178461058a565b6001600160a01b0316145b80611d325750611d328185611b95565b949350505050565b826001600160a01b0316611d4d8261121a565b6001600160a01b031614611d925760405162461bcd60e51b81526004018080602001828103825260298152602001806155466029913960400191505060405180910390fd5b6001600160a01b038216611dd75760405162461bcd60e51b81526004018080602001828103825260248152602001806153a86024913960400191505060405180910390fd5b611de28383836106bd565b611ded600082611bef565b6001600160a01b0383166000908152609760205260409020611e0f9082612d8d565b506001600160a01b0382166000908152609760205260409020611e329082612d99565b50611e3f60988284612da5565b5080826001600160a01b0316846001600160a01b03167fddf252ad1be2c89b69c2b068fc378daa952ba7f163c4a11628f55a4df523b3ef60405160405180910390a4505050565b60006108958383612dbb565b8215611eac57611eac6001600160a01b0385163385612e1f565b801561176a5761176a6001600160a01b0383163383612e1f565b604080516020808201949094528082019290925280518083038201815260609092018152815191830191909120600090815292909152902090565b600082821115611f58576040805162461bcd60e51b815260206004820152601e60248201527f536166654d6174683a207375627472616374696f6e206f766572666c6f770000604482015290519081900360640190fd5b50900390565b60005b826001600160a01b031663b135a1456040518163ffffffff1660e01b815260040160206040518083038186803b158015611f9a57600080fd5b505afa158015611fae573d6000803e3d6000fd5b505050506040513d6020811015611fc457600080fd5b505181101561214657600080846001600160a01b031663cc364f48846040518263ffffffff1660e01b815260040180828152602001915050604080518083038186803b15801561201357600080fd5b505afa158015612027573d6000803e3d6000fd5b505050506040513d604081101561203d57600080fd5b5080516020909101519092509050600061205987878585612e9f565b6fffffffffffffffffffffffffffffffff16111561213c5760006120808886888686612f24565b905060008060008060008b6001600160a01b031663514ea4bf6120a48d8b8b612f4e565b6040518263ffffffff1660e01b81526004018082815260200191505060a06040518083038186803b1580156120d857600080fd5b505afa1580156120ec573d6000803e3d6000fd5b505050506040513d60a081101561210257600080fd5b50805160208201516040830151606084015160809094015192985090965094509092509050612135868686868686612fa4565b5050505050505b5050600101611f61565b5050505050565b600080600080869050600080826001600160a01b031663c4a7761e6040518163ffffffff1660e01b8152600401604080518083038186803b15801561219157600080fd5b505afa1580156121a5573d6000803e3d6000fd5b505050506040513d60408110156121bb57600080fd5b81019080805190602001909291908051906020019092919050505091509150600080600061225085858d8d8a6001600160a01b03166318160ddd6040518163ffffffff1660e01b815260040160206040518083038186803b15801561221f57600080fd5b505afa158015612233573d6000803e3d6000fd5b505050506040513d602081101561224957600080fd5b5051613014565b919a50985096505050505050505b93509350939050565b60008080806122768686613147565b9097909650945050505050565b600083116122a35760405162461bcd60e51b81526004016106ef90615162565b600081116122c35760405162461bcd60e51b81526004016106ef90615162565b6122d86001600160a01b0385163330866131c2565b61176a6001600160a01b0383163330846131c2565b60ca54604082015160009182918291612313916001600160a01b0389811692169061324a565b60ca546060850151612333916001600160a01b038881169291169061324a565b60ca5484516020860151604080880151606089015160808a015160a08b015193517fec28fcac0000000000000000000000000000000000000000000000000000000081526001600160a01b039097169663ec28fcac9661239c96909590949392916004016152f2565b606060405180830381600087803b1580156123b657600080fd5b505af11580156123ca573d6000803e3d6000fd5b505050506040513d601f19601f820116820180604052508101906123ee919061507e565b60ca549195509350909150612411906001600160a01b038881169116600061324a565b60ca5461225e906001600160a01b038781169116600061324a565b600082820183811015610895576040805162461bcd60e51b815260206004820152601b60248201527f536166654d6174683a206164646974696f6e206f766572666c6f770000000000604482015290519081900360640190fd5b60006124938484846133a4565b90505b9392505050565b6001600160a01b0382166124f8576040805162461bcd60e51b815260206004820181905260248201527f4552433732313a206d696e7420746f20746865207a65726f2061646472657373604482015290519081900360640190fd5b61250181611bde565b15612553576040805162461bcd60e51b815260206004820152601c60248201527f4552433732313a20746f6b656e20616c7265616479206d696e74656400000000604482015290519081900360640190fd5b61255f600083836106bd565b6001600160a01b03821660009081526097602052604090206125819082612d99565b5061258e60988284612da5565b5060405181906001600160a01b038416906000907fddf252ad1be2c89b69c2b068fc378daa952ba7f163c4a11628f55a4df523b3ef908290a45050565b60006125d63061346e565b15905090565b600054610100900460ff16806125f557506125f56125cb565b80612603575060005460ff16155b61263e5760405162461bcd60e51b815260040180806020018281038252602e8152602001806154a9602e913960400191505060405180910390fd5b600054610100900460ff16158015612669576000805460ff1961ff0019909116610100171660011790555b612671613474565b612679613514565b61268383836135ca565b80156106bd576000805461ff0019169055505050565b6126a4848484611d3a565b6126b0848484846136fa565b61176a5760405162461bcd60e51b81526004018080602001828103825260328152602001806153766032913960400191505060405180910390fd5b60608161272c575060408051808201909152600181527f3000000000000000000000000000000000000000000000000000000000000000602082015261047a565b8160005b811561274457600101600a82049150612730565b60008167ffffffffffffffff8111801561275d57600080fd5b506040519080825280601f01601f191660200182016040528015612788576020820181803683370190505b50859350905060001982015b83156127f157600a840660300160f81b828280600190039350815181106127b757fe5b60200101907effffffffffffffffffffffffffffffffffffffffffffffffffffffffffffff1916908160001a905350600a84049350612794565b50949350505050565b600061089583836138d6565b60008060005b866001600160a01b031663b135a1456040518163ffffffff1660e01b815260040160206040518083038186803b15801561284557600080fd5b505afa158015612859573d6000803e3d6000fd5b505050506040513d602081101561286f57600080fd5b50518110156129c657600080886001600160a01b031663cc364f48846040518263ffffffff1660e01b815260040180828152602001915050604080518083038186803b1580156128be57600080fd5b505afa1580156128d2573d6000803e3d6000fd5b505050506040513d60408110156128e857600080fd5b508051602090910151909250905060006129048b8b8585612e9f565b90506fffffffffffffffffffffffffffffffff8116156129bb5760006040518061010001604052808d6001600160a01b031681526020018c6001600160a01b031681526020018b6001600160a01b031681526020018a8152602001836fffffffffffffffffffffffffffffffff1681526020018981526020018560020b81526020018460020b815250905060008061299b836138ee565b915091506129a9898361242c565b98506129b5888261242c565b97505050505b50505060010161280c565b506000876001600160a01b0316630dfe16816040518163ffffffff1660e01b815260040160206040518083038186803b158015612a0257600080fd5b505afa158015612a16573d6000803e3d6000fd5b505050506040513d6020811015612a2c57600080fd5b5051604080517fd21220a700000000000000000000000000000000000000000000000000000000815290519192506000916001600160a01b038b169163d21220a7916004808301926020929190829003018186803b158015612a8d57600080fd5b505afa158015612aa1573d6000803e3d6000fd5b505050506040513d6020811015612ab757600080fd5b5051604080517f70a082310000000000000000000000000000000000000000000000000000000081526001600160a01b038b811660048301529151929350600092612c4b92612be092908716916370a0823191602480820192602092909190829003018186803b158015612b2a57600080fd5b505afa158015612b3e573d6000803e3d6000fd5b505050506040513d6020811015612b5457600080fd5b5051604080517feae989a200000000000000000000000000000000000000000000000000000000815290516001600160a01b038e169163eae989a2916004808301926020929190829003018186803b158015612baf57600080fd5b505afa158015612bc3573d6000803e3d6000fd5b505050506040513d6020811015612bd957600080fd5b5051611f01565b878b6001600160a01b03166318160ddd6040518163ffffffff1660e01b815260040160206040518083038186803b158015612c1a57600080fd5b505afa158015612c2e573d6000803e3d6000fd5b505050506040513d6020811015612c4457600080fd5b5051613a59565b90506000612d61612d27846001600160a01b03166370a082318d6040518263ffffffff1660e01b815260040180826001600160a01b0316815260200191505060206040518083038186803b158015612ca257600080fd5b505afa158015612cb6573d6000803e3d6000fd5b505050506040513d6020811015612ccc57600080fd5b5051604080517fa00fa77f00000000000000000000000000000000000000000000000000000000815290516001600160a01b038f169163a00fa77f916004808301926020929190829003018186803b158015612baf57600080fd5b888c6001600160a01b03166318160ddd6040518163ffffffff1660e01b815260040160206040518083038186803b158015612c1a57600080fd5b9050612d6d868361242c565b9550612d79858261242c565b9450505050509550959350505050565b5490565b60006108958383613b08565b60006108958383613bce565b600061249384846001600160a01b038516613c18565b81546000908210612dfd5760405162461bcd60e51b81526004018080602001828103825260228152602001806153546022913960400191505060405180910390fd5b826000018281548110612e0c57fe5b9060005260206000200154905092915050565b604080516001600160a01b038416602482015260448082018490528251808303909101815260649091019091526020810180517bffffffffffffffffffffffffffffffffffffffffffffffffffffffff167fa9059cbb000000000000000000000000000000000000000000000000000000001790526106bd908490613caf565b6000846001600160a01b031663514ea4bf612ebb868686612f4e565b6040518263ffffffff1660e01b81526004018082815260200191505060a06040518083038186803b158015612eef57600080fd5b505afa158015612f03573d6000803e3d6000fd5b505050506040513d60a0811015612f1957600080fd5b505195945050505050565b6000856000612f3587878787613d60565b8152602001908152602001600020905095945050505050565b6040805160609490941b6bffffffffffffffffffffffff1916602080860191909152600293840b60e890811b60348701529290930b90911b60378401528051808403601a018152603a9093019052815191012090565b85546fffffffffffffffffffffffffffffffff9586167fffffffffffffffffffffffffffffffff000000000000000000000000000000009182161787556001870194909455600286019290925560039094018054918416600160801b029484169190921617909116919091179055565b600080808315806130255750600088115b806130305750600087115b61303657fe5b8361305157508490508361304a8282613db9565b925061313c565b8761306357508361304a818589613a59565b866130765785915061304a82858a613a59565b6000613094613085888a613dd0565b61308f888c613dd0565b613e29565b9050600081116130eb576040805162461bcd60e51b815260206004820152600160248201527f6300000000000000000000000000000000000000000000000000000000000000604482015290519081900360640190fd5b6131096131026130fc836001611f01565b8a613e38565b600161242c565b925061312261310261311c836001611f01565b8b613e38565b915061313861313282878c613a59565b89613e38565b9350505b955095509592505050565b81546000908190831061318b5760405162461bcd60e51b81526004018080602001828103825260228152602001806154d76022913960400191505060405180910390fd5b600084600001848154811061319c57fe5b906000526020600020906002020190508060000154816001015492509250509250929050565b604080516001600160a01b0380861660248301528416604482015260648082018490528251808303909101815260849091019091526020810180517bffffffffffffffffffffffffffffffffffffffffffffffffffffffff167f23b872dd0000000000000000000000000000000000000000000000000000000017905261176a908590613caf565b8015806132e95750604080517fdd62ed3e0000000000000000000000000000000000000000000000000000000081523060048201526001600160a01b03848116602483015291519185169163dd62ed3e91604480820192602092909190829003018186803b1580156132bb57600080fd5b505afa1580156132cf573d6000803e3d6000fd5b505050506040513d60208110156132e557600080fd5b5051155b6133245760405162461bcd60e51b815260040180806020018281038252603681526020018061561a6036913960400191505060405180910390fd5b604080516001600160a01b038416602482015260448082018490528251808303909101815260649091019091526020810180517bffffffffffffffffffffffffffffffffffffffffffffffffffffffff167f095ea7b3000000000000000000000000000000000000000000000000000000001790526106bd908490613caf565b6000828152600184016020526040812054828161343f5760405162461bcd60e51b81526004018080602001828103825283818151815260200191508051906020019080838360005b838110156134045781810151838201526020016133ec565b50505050905090810190601f1680156134315780820380516001836020036101000a031916815260200191505b509250505060405180910390fd5b5084600001600182038154811061345257fe5b9060005260206000209060020201600101549150509392505050565b3b151590565b600054610100900460ff168061348d575061348d6125cb565b8061349b575060005460ff16155b6134d65760405162461bcd60e51b815260040180806020018281038252602e8152602001806154a9602e913960400191505060405180910390fd5b600054610100900460ff161580156114bc576000805460ff1961ff00199091166101001716600117905580156114ce576000805461ff001916905550565b600054610100900460ff168061352d575061352d6125cb565b8061353b575060005460ff16155b6135765760405162461bcd60e51b815260040180806020018281038252602e8152602001806154a9602e913960400191505060405180910390fd5b600054610100900460ff161580156135a1576000805460ff1961ff0019909116610100171660011790555b6114bc7f01ffc9a700000000000000000000000000000000000000000000000000000000613e9f565b600054610100900460ff16806135e357506135e36125cb565b806135f1575060005460ff16155b61362c5760405162461bcd60e51b815260040180806020018281038252602e8152602001806154a9602e913960400191505060405180910390fd5b600054610100900460ff16158015613657576000805460ff1961ff0019909116610100171660011790555b825161366a90609c906020860190614be4565b50815161367e90609d906020850190614be4565b506136a87f80ac58cd00000000000000000000000000000000000000000000000000000000613e9f565b6136d17f5b5e139f00000000000000000000000000000000000000000000000000000000613e9f565b6126837f780e9d6300000000000000000000000000000000000000000000000000000000613e9f565b600061370e846001600160a01b031661346e565b61371a57506001611d32565b600061386b7f150b7a0200000000000000000000000000000000000000000000000000000000613748611beb565b88878760405160240180856001600160a01b03168152602001846001600160a01b0316815260200183815260200180602001828103825283818151815260200191508051906020019080838360005b838110156137af578181015183820152602001613797565b50505050905090810190601f1680156137dc5780820380516001836020036101000a031916815260200191505b5095505050505050604051602081830303815290604052907bffffffffffffffffffffffffffffffffffffffffffffffffffffffff19166020820180517bffffffffffffffffffffffffffffffffffffffffffffffffffffffff8381831617835250505050604051806060016040528060328152602001615376603291396001600160a01b0388169190613f53565b9050600081806020019051602081101561388457600080fd5b50517fffffffff00000000000000000000000000000000000000000000000000000000167f150b7a02000000000000000000000000000000000000000000000000000000001492505050949350505050565b60009081526001919091016020526040902054151590565b600080600061395a61395285608001516fffffffffffffffffffffffffffffffff168660a0015187602001516001600160a01b03166318160ddd6040518163ffffffff1660e01b815260040160206040518083038186803b158015612c1a57600080fd5b600003613f62565b9050600081600f0b1315613a53576060840151845160c086015160e087015160009283926139889287613f73565b9150915060006139a68489602001518a60c001518b60e00151613d60565b905060006139c189602001518a60c001518b60e00151612f4e565b905060006040518060c001604052808b600001516001600160a01b031681526020018b604001516001600160a01b03168152602001848152602001838152602001868152602001858152509050600080613a248c60c001518d60e0015185614090565b91509150818711613a355786613a37565b815b9a50808611613a465785613a48565b805b995050505050505050505b50915091565b6000808060001985870986860292508281109083900303905080613a8f5760008411613a8457600080fd5b508290049050612496565b808411613a9b57600080fd5b6000848688096000868103871696879004966002600389028118808a02820302808a02820302808a02820302808a02820302808a02820302808a02909103029181900381900460010186841190950394909402919094039290920491909117919091029150509392505050565b60008181526001830160205260408120548015613bc45783546000198083019190810190600090879083908110613b3b57fe5b9060005260206000200154905080876000018481548110613b5857fe5b600091825260208083209091019290925582815260018981019092526040902090840190558654879080613b8857fe5b60019003818190600052602060002001600090559055866001016000878152602001908152602001600020600090556001945050505050610898565b6000915050610898565b6000613bda83836138d6565b613c1057508154600181810184556000848152602080822090930184905584548482528286019093526040902091909155610898565b506000610898565b600082815260018401602052604081205480613c7d575050604080518082018252838152602080820184815286546001818101895560008981528481209551600290930290950191825591519082015586548684528188019092529290912055612496565b82856000016001830381548110613c9057fe5b9060005260206000209060020201600101819055506000915050612496565b6000613d04826040518060400160405280602081526020017f5361666545524332303a206c6f772d6c6576656c2063616c6c206661696c6564815250856001600160a01b0316613f539092919063ffffffff16565b8051909150156106bd57808060200190516020811015613d2357600080fd5b50516106bd5760405162461bcd60e51b815260040180806020018281038252602a8152602001806155f0602a913960400191505060405180910390fd5b6040805160208082019690965260609490941b6bffffffffffffffffffffffff191684820152600292830b60e890811b60548601529190920b901b60578301528051808303603a018152605a9092019052805191012090565b600081831015613dc95781610895565b5090919050565b600082613ddf57506000610898565b82820282848281613dec57fe5b04146108955760405162461bcd60e51b81526004018080602001828103825260218152602001806154f96021913960400191505060405180910390fd5b6000818310613dc95781610895565b6000808211613e8e576040805162461bcd60e51b815260206004820152601a60248201527f536166654d6174683a206469766973696f6e206279207a65726f000000000000604482015290519081900360640190fd5b818381613e9757fe5b049392505050565b7fffffffff000000000000000000000000000000000000000000000000000000008082161415613f16576040805162461bcd60e51b815260206004820152601c60248201527f4552433136353a20696e76616c696420696e7465726661636520696400000000604482015290519081900360640190fd5b7fffffffff00000000000000000000000000000000000000000000000000000000166000908152606560205260409020805460ff19166001179055565b60606124938484600085614181565b80600f81900b811461047a57600080fd5b600080600080876001600160a01b0316633850c7bd6040518163ffffffff1660e01b815260040160e06040518083038186803b158015613fb257600080fd5b505afa158015613fc6573d6000803e3d6000fd5b505050506040513d60e0811015613fdc57600080fd5b5080516020909101519092509050600080600f87900b1561407c578860020b8360020b1215614027576140206140118a6142dc565b61401a8a6142dc565b8961462a565b915061407c565b8760020b8360020b121561405e576140428461401a8a6142dc565b91506140576140508a6142dc565b858961466e565b905061407c565b61407961406a8a6142dc565b6140738a6142dc565b8961466e565b90505b60009182039a910398509650505050505050565b600080600080600080600087602001516001600160a01b0316638ae881ab89604001516040518263ffffffff1660e01b81526004018082815260200191505060a06040518083038186803b1580156140e757600080fd5b505afa1580156140fb573d6000803e3d6000fd5b505050506040513d60a081101561411157600080fd5b508051602082015160408301516060808501516080909501518d51918e0151949a509298509096509294509250600091829161414f91908e8e61469d565b9150915061416e8787878d6080015188018e60a0015188018787614945565b9850985050505050505050935093915050565b6060824710156141c25760405162461bcd60e51b81526004018080602001828103825260268152602001806153cc6026913960400191505060405180910390fd5b6141cb8561346e565b61421c576040805162461bcd60e51b815260206004820152601d60248201527f416464726573733a2063616c6c20746f206e6f6e2d636f6e7472616374000000604482015290519081900360640190fd5b600080866001600160a01b031685876040518082805190602001908083835b6020831061425a5780518252601f19909201916020918201910161423b565b6001836020036101000a03801982511681845116808217855250505050505090500191505060006040518083038185875af1925050503d80600081146142bc576040519150601f19603f3d011682016040523d82523d6000602084013e6142c1565b606091505b50915091506142d18282866149b8565b979650505050505050565b60008060008360020b126142f3578260020b6142fb565b8260020b6000035b9050620d89e8811115614355576040805162461bcd60e51b815260206004820152600160248201527f5400000000000000000000000000000000000000000000000000000000000000604482015290519081900360640190fd5b60006001821661436957600160801b61437b565b6ffffcb933bd6fad37aa2d162d1a5940015b70ffffffffffffffffffffffffffffffffff16905060028216156143af576ffff97272373d413259a46990580e213a0260801c5b60048216156143ce576ffff2e50f5f656932ef12357cf3c7fdcc0260801c5b60088216156143ed576fffe5caca7e10e4e61c3624eaa0941cd00260801c5b601082161561440c576fffcb9843d60f6159c9db58835c9266440260801c5b602082161561442b576fff973b41fa98c081472e6896dfb254c00260801c5b604082161561444a576fff2ea16466c96a3843ec78b326b528610260801c5b6080821615614469576ffe5dee046a99a2a811c461f1969c30530260801c5b610100821615614489576ffcbe86c7900a88aedcffc83b479aa3a40260801c5b6102008216156144a9576ff987a7253ac413176f2b074cf7815e540260801c5b6104008216156144c9576ff3392b0822b70005940c7a398e4b70f30260801c5b6108008216156144e9576fe7159475a2c29b7443b29c7fa6e889d90260801c5b611000821615614509576fd097f3bdfd2022b8845ad8f792aa58250260801c5b612000821615614529576fa9f746462d870fdf8a65dc1f90e061e50260801c5b614000821615614549576f70d869a156d2a1b890bb3df62baf32f70260801c5b618000821615614569576f31be135f97d08fd981231505542fcfa60260801c5b6201000082161561458a576f09aa508b5b7a84e1c677de54f3e99bc90260801c5b620200008216156145aa576e5d6af8dedb81196699c329225ee6040260801c5b620400008216156145c9576d2216e584f5fa1ea926041bedfe980260801c5b620800008216156145e6576b048a170391f7dc42444e8fa20260801c5b60008460020b13156146015780600019816145fd57fe5b0490505b640100000000810615614615576001614618565b60005b60ff16602082901c0192505050919050565b60008082600f0b126146505761464b6146468585856001614a1e565b614ad0565b612493565b6146636146468585856000036000614a1e565b600003949350505050565b60008082600f0b1261468a5761464b6146468585856001614b02565b6146636146468585856000036000614b02565b600080600080876001600160a01b031663514ea4bf886040518263ffffffff1660e01b81526004018082815260200191505060a06040518083038186803b1580156146e757600080fd5b505afa1580156146fb573d6000803e3d6000fd5b505050506040513d60a081101561471157600080fd5b50602081015160409182015182517f3850c7bd000000000000000000000000000000000000000000000000000000008152925191945092506000916001600160a01b038b1691633850c7bd9160048082019260e092909190829003018186803b15801561477d57600080fd5b505afa158015614791573d6000803e3d6000fd5b505050506040513d60e08110156147a757600080fd5b5060200151604080517ff30dba9300000000000000000000000000000000000000000000000000000000815260028a900b6004820152905191925060009182916001600160a01b038d169163f30dba939160248082019261010092909190829003018186803b15801561481957600080fd5b505afa15801561482d573d6000803e3d6000fd5b505050506040513d61010081101561484457600080fd5b506040810151606090910151909250905060008060028b810b9086900b12614870575082905081614879565b50508185038185035b6000808e6001600160a01b031663f30dba938d6040518263ffffffff1660e01b8152600401808260020b81526020019150506101006040518083038186803b1580156148c457600080fd5b505afa1580156148d8573d6000803e3d6000fd5b505050506040513d6101008110156148ef57600080fd5b506040810151606090910151909250905060008060028e810b908a900b121561491c575082905081614925565b50508189038189035b94909903989098039e91909603919091039b509950505050505050505050565b60008061496b8885038a6fffffffffffffffffffffffffffffffff16600160801b613a59565b860195506149928784038a6fffffffffffffffffffffffffffffffff16600160801b613a59565b6fffffffffffffffffffffffffffffffff9687169a950190951697509295505050505050565b606083156149c7575081612496565b8251156149d75782518084602001fd5b60405162461bcd60e51b81526020600482018181528451602484015284518593919283926044019190850190808383600083156134045781810151838201526020016133ec565b6000836001600160a01b0316856001600160a01b03161115614a3e579293925b7bffffffffffffffffffffffffffffffff000000000000000000000000606084901b166001600160a01b038686038116908716614a7a57600080fd5b83614aaa57866001600160a01b0316614a9d8383896001600160a01b0316613a59565b81614aa457fe5b046142d1565b6142d1614ac18383896001600160a01b0316614b9f565b886001600160a01b0316614bd9565b60007f80000000000000000000000000000000000000000000000000000000000000008210614afe57600080fd5b5090565b6000836001600160a01b0316856001600160a01b03161115614b22579293925b81614b6157614b5c836fffffffffffffffffffffffffffffffff168686036001600160a01b03166c01000000000000000000000000613a59565b614b96565b614b96836fffffffffffffffffffffffffffffffff168686036001600160a01b03166c01000000000000000000000000614b9f565b95945050505050565b6000614bac848484613a59565b905060008280614bb857fe5b8486091115612496576000198110614bcf57600080fd5b6001019392505050565b808204910615150190565b828054600181600116156101000203166002900490600052602060002090601f016020900481019282614c1a5760008555614c60565b82601f10614c3357805160ff1916838001178555614c60565b82800160010185558215614c60579182015b82811115614c60578251825591602001919060010190614c45565b50614afe9291505b80821115614afe5760008155600101614c68565b600060208284031215614c8d578081fd5b81356108958161533e565b600060208284031215614ca9578081fd5b81516108958161533e565b60008060408385031215614cc6578081fd5b8235614cd18161533e565b91506020830135614ce18161533e565b809150509250929050565b600080600080600080600080610100898b031215614d08578384fd5b8851614d138161533e565b60208a0151909850614d248161533e565b60408a0151909750614d358161533e565b60608a0151909650614d468161533e565b60808a015160a08b015160c08c015160e0909c01519a9d999c50979a91999098919650945092505050565b600080600060608486031215614d85578283fd5b8335614d908161533e565b92506020840135614da08161533e565b929592945050506040919091013590565b60008060008060808587031215614dc6578384fd5b8435614dd18161533e565b9350602085810135614de28161533e565b935060408601359250606086013567ffffffffffffffff80821115614e05578384fd5b818801915088601f830112614e18578384fd5b813581811115614e2457fe5b614e3684601f19601f8401160161531a565b91508082528984828501011115614e4b578485fd5b8084840185840137810190920192909252939692955090935050565b60008060408385031215614e79578182fd5b8235614e848161533e565b915060208301358015158114614ce1578182fd5b60008060408385031215614eaa578182fd5b8235614eb58161533e565b946020939093013593505050565b600060208284031215614ed4578081fd5b5035919050565b600060208284031215614eec578081fd5b81357fffffffff0000000000000000000000000000000000000000000000000000000081168114610895578182fd5b600060c08284031215614f2c578081fd5b60405160c0810181811067ffffffffffffffff82111715614f4957fe5b8060405250823581526020830135602082015260408301356040820152606083013560608201526080830135608082015260a083013560a08201528091505092915050565b600060a08284031215614f9f578081fd5b60405160a0810181811067ffffffffffffffff82111715614fbc57fe5b806040525082358152602083013560208201526040830135604082015260608301356060820152608083013560808201528091505092915050565b600060208284031215615008578081fd5b5051919050565b60008060408385031215615021578182fd5b50508035926020909101359150565b60008060408385031215615042578182fd5b505080516020909101519092909150565b600080600060608486031215615067578081fd5b505081359360208301359350604090920135919050565b600080600060608486031215615092578081fd5b8351925060208401519150604084015190509250925092565b918252602082015260400190565b6001600160a01b0391909116815260200190565b901515815260200190565b6000602080835283518082850152825b81811015615104578581018301518582016040015282016150e8565b818111156151155783604083870101525b50601f01601f1916929092016040019392505050565b60208082526002908201527f4f4f000000000000000000000000000000000000000000000000000000000000604082015260600190565b60208082526002908201527f4e5a000000000000000000000000000000000000000000000000000000000000604082015260600190565b60208082526003908201527f4348490000000000000000000000000000000000000000000000000000000000604082015260600190565b6020808252600a908201527f6f6e6c79206f776e657200000000000000000000000000000000000000000000604082015260600190565b6020808252600c908201527f6e6f7420617070726f7665640000000000000000000000000000000000000000604082015260600190565b60208082526013908201527f696e73756666696369656e742073686172657300000000000000000000000000604082015260600190565b6fffffffffffffffffffffffffffffffff95861681526020810194909452604084019290925283166060830152909116608082015260a00190565b90815260200190565b9283526020830191909152604082015260600190565b948552602085019390935260408401919091526060830152608082015260a00190565b958652602086019490945260408501929092526060840152608083015260a082015260c00190565b60405181810167ffffffffffffffff8111828210171561533657fe5b604052919050565b6001600160a01b03811681146114ce57600080fdfe456e756d657261626c655365743a20696e646578206f7574206f6620626f756e64734552433732313a207472616e7366657220746f206e6f6e20455243373231526563656976657220696d706c656d656e7465724552433732313a207472616e7366657220746f20746865207a65726f2061646472657373416464726573733a20696e73756666696369656e742062616c616e636520666f722063616c6c4552433732313a206f70657261746f7220717565727920666f72206e6f6e6578697374656e7420746f6b656e4552433732313a20617070726f76652063616c6c6572206973206e6f74206f776e6572206e6f7220617070726f76656420666f7220616c6c4552433732313a2062616c616e636520717565727920666f7220746865207a65726f20616464726573734552433732313a206f776e657220717565727920666f72206e6f6e6578697374656e7420746f6b656e496e697469616c697a61626c653a20636f6e747261637420697320616c726561647920696e697469616c697a6564456e756d657261626c654d61703a20696e646578206f7574206f6620626f756e6473536166654d6174683a206d756c7469706c69636174696f6e206f766572666c6f774552433732313a20617070726f76656420717565727920666f72206e6f6e6578697374656e7420746f6b656e4552433732313a207472616e73666572206f6620746f6b656e2074686174206973206e6f74206f776e4552433732314d657461646174613a2055524920717565727920666f72206e6f6e6578697374656e7420746f6b656e4552433732313a20617070726f76616c20746f2063757272656e74206f776e65724552433732313a207472616e736665722063616c6c6572206973206e6f74206f776e6572206e6f7220617070726f7665645361666545524332303a204552433230206f7065726174696f6e20646964206e6f7420737563636565645361666545524332303a20617070726f76652066726f6d206e6f6e2d7a65726f20746f206e6f6e2d7a65726f20616c6c6f77616e6365a164736f6c6343000706000a",
  "linkReferences": {},
  "deployedLinkReferences": {}
}