{
  "_format": "hh-sol-artifact-1",
  "contractName": "YangNFTVault",
  "sourceName": "contracts/YangNFTVault.sol",
  "abi": [
    {
      "anonymous": false,
      "inputs": [
        {
          "indexed": true,
          "internalType": "address",
          "name": "owner",
          "type": "address"
        },
        {
          "indexed": true,
          "internalType": "address",
          "name": "approved",
          "type": "address"
        },
        {
          "indexed": true,
          "internalType": "uint256",
          "name": "tokenId",
          "type": "uint256"
        }
      ],
      "name": "Approval",
      "type": "event"
    },
    {
      "anonymous": false,
      "inputs": [
        {
          "indexed": true,
          "internalType": "address",
          "name": "owner",
          "type": "address"
        },
        {
          "indexed": true,
          "internalType": "address",
          "name": "operator",
          "type": "address"
        },
        {
          "indexed": false,
          "internalType": "bool",
          "name": "approved",
          "type": "bool"
        }
      ],
      "name": "ApprovalForAll",
      "type": "event"
    },
    {
      "anonymous": false,
      "inputs": [
        {
          "indexed": true,
          "internalType": "address",
          "name": "recipient",
          "type": "address"
        },
        {
          "indexed": true,
          "internalType": "uint256",
          "name": "tokenId",
          "type": "uint256"
        }
      ],
      "name": "MintYangNFT",
      "type": "event"
    },
    {
      "anonymous": false,
      "inputs": [
        {
          "indexed": true,
          "internalType": "uint256",
          "name": "yangId",
          "type": "uint256"
        },
        {
          "indexed": true,
          "internalType": "uint256",
          "name": "chiId",
          "type": "uint256"
        },
        {
          "indexed": true,
          "internalType": "uint256",
          "name": "share",
          "type": "uint256"
        }
      ],
      "name": "Subscribe",
      "type": "event"
    },
    {
      "anonymous": false,
      "inputs": [
        {
          "indexed": true,
          "internalType": "address",
          "name": "from",
          "type": "address"
        },
        {
          "indexed": true,
          "internalType": "address",
          "name": "to",
          "type": "address"
        },
        {
          "indexed": true,
          "internalType": "uint256",
          "name": "tokenId",
          "type": "uint256"
        }
      ],
      "name": "Transfer",
      "type": "event"
    },
    {
      "anonymous": false,
      "inputs": [
        {
          "indexed": true,
          "internalType": "uint256",
          "name": "yangId",
          "type": "uint256"
        },
        {
          "indexed": true,
          "internalType": "uint256",
          "name": "chiId",
          "type": "uint256"
        },
        {
          "indexed": false,
          "internalType": "uint256",
          "name": "amount0",
          "type": "uint256"
        },
        {
          "indexed": false,
          "internalType": "uint256",
          "name": "amount1",
          "type": "uint256"
        }
      ],
      "name": "UnSubscribe",
      "type": "event"
    },
    {
      "inputs": [
        {
          "internalType": "address",
          "name": "to",
          "type": "address"
        },
        {
          "internalType": "uint256",
          "name": "tokenId",
          "type": "uint256"
        }
      ],
      "name": "approve",
      "outputs": [],
      "stateMutability": "nonpayable",
      "type": "function"
    },
    {
      "inputs": [
        {
          "internalType": "address",
          "name": "owner",
          "type": "address"
        }
      ],
      "name": "balanceOf",
      "outputs": [
        {
          "internalType": "uint256",
          "name": "",
          "type": "uint256"
        }
      ],
      "stateMutability": "view",
      "type": "function"
    },
    {
      "inputs": [],
      "name": "baseURI",
      "outputs": [
        {
          "internalType": "string",
          "name": "",
          "type": "string"
        }
      ],
      "stateMutability": "view",
      "type": "function"
    },
    {
      "inputs": [
        {
          "internalType": "uint256",
          "name": "yangId",
          "type": "uint256"
        },
        {
          "internalType": "uint256",
          "name": "chiId",
          "type": "uint256"
        }
      ],
      "name": "getAmounts",
      "outputs": [
        {
          "internalType": "uint256",
          "name": "amount0",
          "type": "uint256"
        },
        {
          "internalType": "uint256",
          "name": "amount1",
          "type": "uint256"
        }
      ],
      "stateMutability": "view",
      "type": "function"
    },
    {
      "inputs": [
        {
          "internalType": "uint256",
          "name": "tokenId",
          "type": "uint256"
        }
      ],
      "name": "getApproved",
      "outputs": [
        {
          "internalType": "address",
          "name": "",
          "type": "address"
        }
      ],
      "stateMutability": "view",
      "type": "function"
    },
    {
      "inputs": [
        {
          "internalType": "uint256",
          "name": "chiId",
          "type": "uint256"
        }
      ],
      "name": "getCHIAccruedFees",
      "outputs": [
        {
          "internalType": "uint256",
          "name": "fee0",
          "type": "uint256"
        },
        {
          "internalType": "uint256",
          "name": "fee1",
          "type": "uint256"
        }
      ],
      "stateMutability": "view",
      "type": "function"
    },
    {
      "inputs": [
        {
          "internalType": "uint256",
          "name": "chiId",
          "type": "uint256"
        }
      ],
      "name": "getCHITotalAmounts",
      "outputs": [
        {
          "internalType": "uint256",
          "name": "amount0",
          "type": "uint256"
        },
        {
          "internalType": "uint256",
          "name": "amount1",
          "type": "uint256"
        }
      ],
      "stateMutability": "view",
      "type": "function"
    },
    {
      "inputs": [
        {
          "internalType": "uint256",
          "name": "chiId",
          "type": "uint256"
        },
        {
          "internalType": "uint256",
          "name": "amount0Desired",
          "type": "uint256"
        },
        {
          "internalType": "uint256",
          "name": "amount1Desired",
          "type": "uint256"
        }
      ],
      "name": "getShares",
      "outputs": [
        {
          "internalType": "uint256",
          "name": "shares",
          "type": "uint256"
        },
        {
          "internalType": "uint256",
          "name": "amount0",
          "type": "uint256"
        },
        {
          "internalType": "uint256",
          "name": "amount1",
          "type": "uint256"
        }
      ],
      "stateMutability": "view",
      "type": "function"
    },
    {
      "inputs": [
        {
          "internalType": "address",
          "name": "recipient",
          "type": "address"
        }
      ],
      "name": "getTokenId",
      "outputs": [
        {
          "internalType": "uint256",
          "name": "",
          "type": "uint256"
        }
      ],
      "stateMutability": "view",
      "type": "function"
    },
    {
      "inputs": [
        {
          "internalType": "uint256",
          "name": "_initId",
          "type": "uint256"
        }
      ],
      "name": "initialize",
      "outputs": [],
      "stateMutability": "nonpayable",
      "type": "function"
    },
    {
      "inputs": [
        {
          "internalType": "address",
          "name": "owner",
          "type": "address"
        },
        {
          "internalType": "address",
          "name": "operator",
          "type": "address"
        }
      ],
      "name": "isApprovedForAll",
      "outputs": [
        {
          "internalType": "bool",
          "name": "",
          "type": "bool"
        }
      ],
      "stateMutability": "view",
      "type": "function"
    },
    {
      "inputs": [
        {
          "internalType": "address",
          "name": "recipient",
          "type": "address"
        }
      ],
      "name": "mint",
      "outputs": [
        {
          "internalType": "uint256",
          "name": "tokenId",
          "type": "uint256"
        }
      ],
      "stateMutability": "nonpayable",
      "type": "function"
    },
    {
      "inputs": [],
      "name": "name",
      "outputs": [
        {
          "internalType": "string",
          "name": "",
          "type": "string"
        }
      ],
      "stateMutability": "view",
      "type": "function"
    },
    {
      "inputs": [],
      "name": "owner",
      "outputs": [
        {
          "internalType": "address",
          "name": "",
          "type": "address"
        }
      ],
      "stateMutability": "view",
      "type": "function"
    },
    {
      "inputs": [
        {
          "internalType": "uint256",
          "name": "tokenId",
          "type": "uint256"
        }
      ],
      "name": "ownerOf",
      "outputs": [
        {
          "internalType": "address",
          "name": "",
          "type": "address"
        }
      ],
      "stateMutability": "view",
      "type": "function"
    },
    {
      "inputs": [
        {
          "internalType": "bytes32",
          "name": "key",
          "type": "bytes32"
        }
      ],
      "name": "poolPositions",
      "outputs": [
        {
          "internalType": "uint128",
          "name": "liquidity",
          "type": "uint128"
        },
        {
          "internalType": "uint256",
          "name": "feeGrowthInside0LastX128",
          "type": "uint256"
        },
        {
          "internalType": "uint256",
          "name": "feeGrowthInside1LastX128",
          "type": "uint256"
        },
        {
          "internalType": "uint128",
          "name": "tokensOwed0",
          "type": "uint128"
        },
        {
          "internalType": "uint128",
          "name": "tokensOwed1",
          "type": "uint128"
        }
      ],
      "stateMutability": "view",
      "type": "function"
    },
    {
      "inputs": [
        {
          "internalType": "address",
          "name": "from",
          "type": "address"
        },
        {
          "internalType": "address",
          "name": "to",
          "type": "address"
        },
        {
          "internalType": "uint256",
          "name": "tokenId",
          "type": "uint256"
        }
      ],
      "name": "safeTransferFrom",
      "outputs": [],
      "stateMutability": "nonpayable",
      "type": "function"
    },
    {
      "inputs": [
        {
          "internalType": "address",
          "name": "from",
          "type": "address"
        },
        {
          "internalType": "address",
          "name": "to",
          "type": "address"
        },
        {
          "internalType": "uint256",
          "name": "tokenId",
          "type": "uint256"
        },
        {
          "internalType": "bytes",
          "name": "_data",
          "type": "bytes"
        }
      ],
      "name": "safeTransferFrom",
      "outputs": [],
      "stateMutability": "nonpayable",
      "type": "function"
    },
    {
      "inputs": [
        {
          "internalType": "address",
          "name": "operator",
          "type": "address"
        },
        {
          "internalType": "bool",
          "name": "approved",
          "type": "bool"
        }
      ],
      "name": "setApprovalForAll",
      "outputs": [],
      "stateMutability": "nonpayable",
      "type": "function"
    },
    {
      "inputs": [
        {
          "internalType": "address",
          "name": "_chiManager",
          "type": "address"
        }
      ],
      "name": "setCHIManager",
      "outputs": [],
      "stateMutability": "nonpayable",
      "type": "function"
    },
    {
      "inputs": [
        {
          "components": [
            {
              "internalType": "uint256",
              "name": "yangId",
              "type": "uint256"
            },
            {
              "internalType": "uint256",
              "name": "chiId",
              "type": "uint256"
            },
            {
              "internalType": "uint256",
              "name": "amount0Desired",
              "type": "uint256"
            },
            {
              "internalType": "uint256",
              "name": "amount1Desired",
              "type": "uint256"
            },
            {
              "internalType": "uint256",
              "name": "amount0Min",
              "type": "uint256"
            },
            {
              "internalType": "uint256",
              "name": "amount1Min",
              "type": "uint256"
            }
          ],
          "internalType": "struct IYangNFTVault.SubscribeParam",
          "name": "params",
          "type": "tuple"
        }
      ],
      "name": "subscribe",
      "outputs": [
        {
          "internalType": "uint256",
          "name": "amount0",
          "type": "uint256"
        },
        {
          "internalType": "uint256",
          "name": "amount1",
          "type": "uint256"
        },
        {
          "internalType": "uint256",
          "name": "shares",
          "type": "uint256"
        }
      ],
      "stateMutability": "nonpayable",
      "type": "function"
    },
    {
      "inputs": [
        {
          "internalType": "bytes4",
          "name": "interfaceId",
          "type": "bytes4"
        }
      ],
      "name": "supportsInterface",
      "outputs": [
        {
          "internalType": "bool",
          "name": "",
          "type": "bool"
        }
      ],
      "stateMutability": "view",
      "type": "function"
    },
    {
      "inputs": [],
      "name": "symbol",
      "outputs": [
        {
          "internalType": "string",
          "name": "",
          "type": "string"
        }
      ],
      "stateMutability": "view",
      "type": "function"
    },
    {
      "inputs": [],
      "name": "testC",
      "outputs": [
        {
          "internalType": "uint256",
          "name": "",
          "type": "uint256"
        }
      ],
      "stateMutability": "view",
      "type": "function"
    },
    {
      "inputs": [
        {
          "internalType": "uint256",
          "name": "index",
          "type": "uint256"
        }
      ],
      "name": "tokenByIndex",
      "outputs": [
        {
          "internalType": "uint256",
          "name": "",
          "type": "uint256"
        }
      ],
      "stateMutability": "view",
      "type": "function"
    },
    {
      "inputs": [
        {
          "internalType": "address",
          "name": "owner",
          "type": "address"
        },
        {
          "internalType": "uint256",
          "name": "index",
          "type": "uint256"
        }
      ],
      "name": "tokenOfOwnerByIndex",
      "outputs": [
        {
          "internalType": "uint256",
          "name": "",
          "type": "uint256"
        }
      ],
      "stateMutability": "view",
      "type": "function"
    },
    {
      "inputs": [
        {
          "internalType": "uint256",
          "name": "tokenId",
          "type": "uint256"
        }
      ],
      "name": "tokenURI",
      "outputs": [
        {
          "internalType": "string",
          "name": "",
          "type": "string"
        }
      ],
      "stateMutability": "view",
      "type": "function"
    },
    {
      "inputs": [],
      "name": "totalSupply",
      "outputs": [
        {
          "internalType": "uint256",
          "name": "",
          "type": "uint256"
        }
      ],
      "stateMutability": "view",
      "type": "function"
    },
    {
      "inputs": [
        {
          "internalType": "address",
          "name": "from",
          "type": "address"
        },
        {
          "internalType": "address",
          "name": "to",
          "type": "address"
        },
        {
          "internalType": "uint256",
          "name": "tokenId",
          "type": "uint256"
        }
      ],
      "name": "transferFrom",
      "outputs": [],
      "stateMutability": "nonpayable",
      "type": "function"
    },
    {
      "inputs": [
        {
          "components": [
            {
              "internalType": "uint256",
              "name": "yangId",
              "type": "uint256"
            },
            {
              "internalType": "uint256",
              "name": "chiId",
              "type": "uint256"
            },
            {
              "internalType": "uint256",
              "name": "shares",
              "type": "uint256"
            },
            {
              "internalType": "uint256",
              "name": "amount0Min",
              "type": "uint256"
            },
            {
              "internalType": "uint256",
              "name": "amount1Min",
              "type": "uint256"
            }
          ],
          "internalType": "struct IYangNFTVault.UnSubscribeParam",
          "name": "params",
          "type": "tuple"
        }
      ],
      "name": "unsubscribe",
      "outputs": [],
      "stateMutability": "nonpayable",
      "type": "function"
    },
    {
      "inputs": [
        {
          "internalType": "uint256",
          "name": "yangId",
          "type": "uint256"
        },
        {
          "internalType": "uint256",
          "name": "chiId",
          "type": "uint256"
        }
      ],
      "name": "yangPositions",
      "outputs": [
        {
          "internalType": "uint256",
          "name": "amount0",
          "type": "uint256"
        },
        {
          "internalType": "uint256",
          "name": "amount1",
          "type": "uint256"
        },
        {
          "internalType": "uint256",
          "name": "shares",
          "type": "uint256"
        }
      ],
      "stateMutability": "view",
      "type": "function"
    }
  ],
  "bytecode": "0x608060405234801561001057600080fd5b5061568d806100206000396000f3fe608060405234801561001057600080fd5b50600436106101e55760003560e01c80636352211e1161010f578063a244a481116100a2578063e985e9c511610071578063e985e9c514610421578063eccbd4c214610434578063f15376861461043c578063fe4b84df1461044f576101e5565b8063a244a481146103d5578063b88d4fde146103e8578063c87b56dd146103fb578063e5d9cc9a1461040e576101e5565b80638ae881ab116100de5780638ae881ab1461038e5780638da5cb5b146103b257806395d89b41146103ba578063a22cb465146103c2576101e5565b80636352211e1461034d5780636a627842146103605780636c0360eb1461037357806370a082311461037b576101e5565b806323b872dd1161018757806342e6e0fe1161015657806342e6e0fe146103015780634f6ccce7146103145780635c0d107e146103275780635f0600f71461033a576101e5565b806323b872dd146102b55780632f745c59146102c85780633ab2e4ba146102db57806342842e0e146102ee576101e5565b8063081812fc116101c3578063081812fc1461024a578063095ea7b31461026a57806316529c461461027f57806318160ddd146102a0576101e5565b806301ffc9a7146101ea5780630589ea3d1461021357806306fdde0314610235575b600080fd5b6101fd6101f8366004614f0c565b610462565b60405161020a91906150fe565b60405180910390f35b610226610221366004615040565b61049d565b60405161020a939291906152ea565b61023d610512565b60405161020a9190615109565b61025d610258366004614ef4565b6105a8565b60405161020a91906150ea565b61027d610278366004614ec9565b61060a565b005b61029261028d366004615040565b6106e0565b60405161020a9291906150dc565b6102a8610829565b60405161020a91906152e1565b61027d6102c3366004614da2565b61083a565b6102a86102d6366004614ec9565b610891565b61027d6102e9366004614fbf565b6108bc565b61027d6102fc366004614da2565b610cf8565b61022661030f366004615084565b610d13565b6102a8610322366004614ef4565b610de8565b610226610335366004614f4c565b610dfe565b610292610348366004614ef4565b611105565b61025d61035b366004614ef4565b611238565b6102a861036e366004614cad565b611260565b61023d6112f4565b6102a8610389366004614cad565b611355565b6103a161039c366004614ef4565b6113bd565b60405161020a9594939291906152a6565b61025d611430565b61023d61143f565b61027d6103d0366004614e98565b6114a0565b61027d6103e3366004614cad565b6115a5565b61027d6103f6366004614de2565b6115fe565b61023d610409366004614ef4565b61165c565b61029261041c366004614ef4565b6118dd565b6101fd61042f366004614ce5565b611a81565b6102a8611aaf565b6102a861044a366004614cad565b611ab5565b61027d61045d366004614ef4565b611ad0565b7fffffffff00000000000000000000000000000000000000000000000000000000811660009081526065602052604090205460ff165b919050565b60008060008060cd600087876040516020016104ba9291906150dc565b60408051601f1981840301815291815281516020928301208352828201939093529082016000208251606081018452815480825260018301549382018490526002909201549301839052989097509095509350505050565b609c8054604080516020601f600260001961010060018816150201909516949094049384018190048102820181019092528281526060939092909183018282801561059e5780601f106105735761010080835404028352916020019161059e565b820191906000526020600020905b81548152906001019060200180831161058157829003601f168201915b5050505050905090565b60006105b382611c0d565b6105ee5760405162461bcd60e51b815260040180806020018281038252602c81526020018061554b602c913960400191505060405180910390fd5b506000908152609a60205260409020546001600160a01b031690565b600061061582611238565b9050806001600160a01b0316836001600160a01b031614156106685760405162461bcd60e51b81526004018080602001828103825260218152602001806155cf6021913960400191505060405180910390fd5b806001600160a01b031661067a611c1a565b6001600160a01b0316148061069657506106968161042f611c1a565b6106d15760405162461bcd60e51b815260040180806020018281038252603881526020018061544f6038913960400191505060405180910390fd5b6106db8383611c1e565b505050565b60ca5460009081906001600160a01b03166107165760405162461bcd60e51b815260040161070d906151ca565b60405180910390fd5b6000848460405160200161072b9291906150dc565b60408051601f198184030181528282528051602091820120600081815260cd8352839020606085018452805485526001810154928501929092526002909101549183018290529250156108205760ca54604051635cef66b360e11b815260009182916001600160a01b039091169063b9decd66906107ad908a906004016152e1565b6101006040518083038186803b1580156107c657600080fd5b505afa1580156107da573d6000803e3d6000fd5b505050506040513d601f19601f820116820180604052508101906107fe9190614d1d565b5050505093509350505061081882828a8660400151611c99565b909650945050505b50509250929050565b60006108356098611cba565b905090565b61084b610845611c1a565b82611cc5565b6108865760405162461bcd60e51b81526004018080602001828103825260318152602001806155f06031913960400191505060405180910390fd5b6106db838383611d69565b6001600160a01b03821660009081526097602052604081206108b39083611eb5565b90505b92915050565b60026001541415610914576040805162461bcd60e51b815260206004820152601f60248201527f5265656e7472616e637947756172643a207265656e7472616e742063616c6c00604482015290519081900360640190fd5b600260015580516109253382611cc5565b6109415760405162461bcd60e51b815260040161070d90615238565b60ca546001600160a01b03166109695760405162461bcd60e51b815260040161070d906151ca565b60ca546020830151604051635cef66b360e11b815260009283926001600160a01b039091169163b9decd66916109a1916004016152e1565b6101006040518083038186803b1580156109ba57600080fd5b505afa1580156109ce573d6000803e3d6000fd5b505050506040513d601f19601f820116820180604052508101906109f29190614d1d565b50505050935093505050600084600001518560200151604051602001610a199291906150dc565b604051602081830303815290604052805190602001209050846040015160cd6000838152602001908152602001600020600201541015610a6b5760405162461bcd60e51b815260040161070d9061526f565b60ca548551602087015160408089015160608a015160808b015192517f46698e7500000000000000000000000000000000000000000000000000000000815260009687966001600160a01b03909116956346698e7595610ad19592949193600401615300565b6040805180830381600087803b158015610aea57600080fd5b505af1158015610afe573d6000803e3d6000fd5b505050506040513d601f19601f82011682018060405250810190610b229190615061565b915091506000859050610c17816001600160a01b0316630dfe16816040518163ffffffff1660e01b815260040160206040518083038186803b158015610b6757600080fd5b505afa158015610b7b573d6000803e3d6000fd5b505050506040513d601f19601f82011682018060405250810190610b9f9190614cc9565b84836001600160a01b031663d21220a76040518163ffffffff1660e01b815260040160206040518083038186803b158015610bd957600080fd5b505afa158015610bed573d6000803e3d6000fd5b505050506040513d601f19601f82011682018060405250810190610c119190614cc9565b85611ec1565b87516020890151600091610c2e9160cd9190611ef5565b9050610c4b89604001518260020154611f3090919063ffffffff16565b600282015580548410610c5f576000610c6b565b8054610c6b9085611f30565b815560018101548310610c7f576000610c8e565b6001810154610c8e9084611f30565b600182015588518690610ca79060ce9085908490611f8d565b60208a01518a516040517fb65ca58d729d89d58e1ed48a179b40d4a6b56e3e101a10085a0f43915cf1448890610ce090899089906150dc565b60405180910390a35050600180555050505050505050565b6106db838383604051806020016040528060008152506115fe565b60ca54600090819081906001600160a01b0316610d425760405162461bcd60e51b815260040161070d906151ca565b60ca54604051635cef66b360e11b81526000916001600160a01b03169063b9decd6690610d73908a906004016152e1565b6101006040518083038186803b158015610d8c57600080fd5b505afa158015610da0573d6000803e3d6000fd5b505050506040513d601f19601f82011682018060405250810190610dc49190614d1d565b505050509350505050610dd881878761217c565b9199909850909650945050505050565b600080610df6609884612296565b509392505050565b60008060008360000151610e123382611cc5565b610e2e5760405162461bcd60e51b815260040161070d90615238565b60026001541415610e86576040805162461bcd60e51b815260206004820152601f60248201527f5265656e7472616e637947756172643a207265656e7472616e742063616c6c00604482015290519081900360640190fd5b600260015560ca546001600160a01b0316610eb35760405162461bcd60e51b815260040161070d906151ca565b60ca546020860151604051635cef66b360e11b815260009283926001600160a01b039091169163b9decd6691610eeb916004016152e1565b6101006040518083038186803b158015610f0457600080fd5b505afa158015610f18573d6000803e3d6000fd5b505050506040513d601f19601f82011682018060405250810190610f3c9190614d1d565b5050505093509350505060008290506000816001600160a01b0316630dfe16816040518163ffffffff1660e01b815260040160206040518083038186803b158015610f8657600080fd5b505afa158015610f9a573d6000803e3d6000fd5b505050506040513d601f19601f82011682018060405250810190610fbe9190614cc9565b90506000826001600160a01b031663d21220a76040518163ffffffff1660e01b815260040160206040518083038186803b158015610ffb57600080fd5b505afa15801561100f573d6000803e3d6000fd5b505050506040513d601f19601f820116820180604052508101906110339190614cc9565b9050611049828b60400151838d606001516122b2565b61105482828c61231c565b8c5160208e0151939c50919a5098506000916110729160cd91611ef5565b8054909150611081908b61245b565b81556001810154611092908a61245b565b600182015560028101546110a6908961245b565b60028201558a516110bd9060ce9086908890611f8d565b60208b01518b516040518a9291907f17de92c1076ec5855c3edd4a6084a82c184adfda177deb99d6532697cdac91cb90600090a4505060018055509597949650929450505050565b60ca5460009081906001600160a01b03166111325760405162461bcd60e51b815260040161070d906151ca565b60ca54604051635cef66b360e11b81526000916001600160a01b03169063b9decd66906111639087906004016152e1565b6101006040518083038186803b15801561117c57600080fd5b505afa158015611190573d6000803e3d6000fd5b505050506040513d601f19601f820116820180604052508101906111b49190614d1d565b505050509350505050806001600160a01b031663c4a7761e6040518163ffffffff1660e01b8152600401604080518083038186803b1580156111f557600080fd5b505afa158015611209573d6000803e3d6000fd5b505050506040513d601f19601f8201168201806040525081019061122d9190615061565b909590945092505050565b60006108b6826040518060600160405280602981526020016154b160299139609891906124b5565b6001600160a01b038116600090815260cc6020526040812054156112965760405162461bcd60e51b815260040161070d9061515c565b5060cb8054600181019091556112ac82826124cc565b6001600160a01b038216600081815260cc6020526040808220849055518392917f74629109564de5ce9d04dc84bb5ecd8fbb0c98843a3fbd43f057825a9255449c91a3919050565b609f8054604080516020601f600260001961010060018816150201909516949094049384018190048102820181019092528281526060939092909183018282801561059e5780601f106105735761010080835404028352916020019161059e565b60006001600160a01b03821661139c5760405162461bcd60e51b815260040180806020018281038252602a815260200180615487602a913960400191505060405180910390fd5b6001600160a01b03821660009081526097602052604090206108b690611cba565b600090815260ce6020908152604091829020825160a08101845281546fffffffffffffffffffffffffffffffff9081168083526001840154948301859052600284015495830186905260039093015480821660608401819052600160801b90910490911660809092018290529194929392565b60c9546001600160a01b031681565b609d8054604080516020601f600260001961010060018816150201909516949094049384018190048102820181019092528281526060939092909183018282801561059e5780601f106105735761010080835404028352916020019161059e565b6114a8611c1a565b6001600160a01b0316826001600160a01b0316141561150e576040805162461bcd60e51b815260206004820152601960248201527f4552433732313a20617070726f766520746f2063616c6c657200000000000000604482015290519081900360640190fd5b80609b600061151b611c1a565b6001600160a01b03908116825260208083019390935260409182016000908120918716808252919093529120805460ff19169215159290921790915561155f611c1a565b6001600160a01b03167f17307eab39ab6107e8899845ad3d59bd9653f200f220920489ca2b5937696c318360405180821515815260200191505060405180910390a35050565b60c9546001600160a01b031633146115cf5760405162461bcd60e51b815260040161070d90615201565b60ca805473ffffffffffffffffffffffffffffffffffffffff19166001600160a01b0392909216919091179055565b61160f611609611c1a565b83611cc5565b61164a5760405162461bcd60e51b81526004018080602001828103825260318152602001806155f06031913960400191505060405180910390fd5b611656848484846125fa565b50505050565b606061166782611c0d565b6116a25760405162461bcd60e51b815260040180806020018281038252602f8152602001806155a0602f913960400191505060405180910390fd5b6000828152609e602090815260408083208054825160026001831615610100026000190190921691909104601f8101859004850282018501909352828152929091908301828280156117355780601f1061170a57610100808354040283529160200191611735565b820191906000526020600020905b81548152906001019060200180831161171857829003601f168201915b5050505050905060006117466112f4565b905080516000141561175a57509050610498565b81511561181b5780826040516020018083805190602001908083835b602083106117955780518252601f199092019160209182019101611776565b51815160209384036101000a600019018019909216911617905285519190930192850191508083835b602083106117dd5780518252601f1990920191602091820191016117be565b6001836020036101000a0380198251168184511680821785525050505050509050019250505060405160208183030381529060405292505050610498565b806118258561264c565b6040516020018083805190602001908083835b602083106118575780518252601f199092019160209182019101611838565b51815160209384036101000a600019018019909216911617905285519190930192850191508083835b6020831061189f5780518252601f199092019160209182019101611880565b6001836020036101000a0380198251168184511680821785525050505050509050019250505060405160208183030381529060405292505050919050565b60ca5460009081906001600160a01b031661190a5760405162461bcd60e51b815260040161070d906151ca565b60ca54604051635cef66b360e11b81526000916001600160a01b03169063b9decd669061193b9087906004016152e1565b6101006040518083038186803b15801561195457600080fd5b505afa158015611968573d6000803e3d6000fd5b505050506040513d601f19601f8201168201806040525081019061198c9190614d1d565b505050509350505050806001600160a01b031663eae989a26040518163ffffffff1660e01b815260040160206040518083038186803b1580156119ce57600080fd5b505afa1580156119e2573d6000803e3d6000fd5b505050506040513d601f19601f82011682018060405250810190611a069190615028565b9250806001600160a01b031663a00fa77f6040518163ffffffff1660e01b815260040160206040518083038186803b158015611a4157600080fd5b505afa158015611a55573d6000803e3d6000fd5b505050506040513d601f19601f82011682018060405250810190611a799190615028565b915050915091565b6001600160a01b039182166000908152609b6020908152604080832093909416825291909152205460ff1690565b60cf5481565b6001600160a01b0316600090815260cc602052604090205490565b600054610100900460ff1680611ae95750611ae961275b565b80611af7575060005460ff16155b611b325760405162461bcd60e51b815260040180806020018281038252602e8152602001806154da602e913960400191505060405180910390fd5b600054610100900460ff16158015611b5d576000805460ff1961ff0019909116610100171660011790555b60c9805473ffffffffffffffffffffffffffffffffffffffff19163317905560cb82905560cf829055604080518082018252601781527f59494e204173736574204d616e61676572205661756c740000000000000000006020808301919091528251808401909352600483527f59414e470000000000000000000000000000000000000000000000000000000090830152611bf79161276c565b8015611c09576000805461ff00191690555b5050565b60006108b6609883612829565b3390565b6000818152609a60205260409020805473ffffffffffffffffffffffffffffffffffffffff19166001600160a01b0384169081179091558190611c6082611238565b6001600160a01b03167f8c5be1e5ebec7d5bd14f71427d1e84f3dd0314c0f7b2291e5b200ac8c7c3b92560405160405180910390a45050565b6000808486611cab8183338989612835565b90999098509650505050505050565b60006108b682612db8565b6000611cd082611c0d565b611d0b5760405162461bcd60e51b815260040180806020018281038252602c815260200180615423602c913960400191505060405180910390fd5b6000611d1683611238565b9050806001600160a01b0316846001600160a01b03161480611d515750836001600160a01b0316611d46846105a8565b6001600160a01b0316145b80611d615750611d618185611a81565b949350505050565b826001600160a01b0316611d7c82611238565b6001600160a01b031614611dc15760405162461bcd60e51b81526004018080602001828103825260298152602001806155776029913960400191505060405180910390fd5b6001600160a01b038216611e065760405162461bcd60e51b81526004018080602001828103825260248152602001806153d96024913960400191505060405180910390fd5b611e118383836106db565b611e1c600082611c1e565b6001600160a01b0383166000908152609760205260409020611e3e9082612dbc565b506001600160a01b0382166000908152609760205260409020611e619082612dc8565b50611e6e60988284612dd4565b5080826001600160a01b0316846001600160a01b03167fddf252ad1be2c89b69c2b068fc378daa952ba7f163c4a11628f55a4df523b3ef60405160405180910390a4505050565b60006108b38383612dea565b8215611edb57611edb6001600160a01b0385163385612e4e565b8015611656576116566001600160a01b0383163383612e4e565b604080516020808201949094528082019290925280518083038201815260609092018152815191830191909120600090815292909152902090565b600082821115611f87576040805162461bcd60e51b815260206004820152601e60248201527f536166654d6174683a207375627472616374696f6e206f766572666c6f770000604482015290519081900360640190fd5b50900390565b60005b826001600160a01b031663b135a1456040518163ffffffff1660e01b815260040160206040518083038186803b158015611fc957600080fd5b505afa158015611fdd573d6000803e3d6000fd5b505050506040513d6020811015611ff357600080fd5b505181101561217557600080846001600160a01b031663cc364f48846040518263ffffffff1660e01b815260040180828152602001915050604080518083038186803b15801561204257600080fd5b505afa158015612056573d6000803e3d6000fd5b505050506040513d604081101561206c57600080fd5b5080516020909101519092509050600061208887878585612ece565b6fffffffffffffffffffffffffffffffff16111561216b5760006120af8886888686612f53565b905060008060008060008b6001600160a01b031663514ea4bf6120d38d8b8b612f7d565b6040518263ffffffff1660e01b81526004018082815260200191505060a06040518083038186803b15801561210757600080fd5b505afa15801561211b573d6000803e3d6000fd5b505050506040513d60a081101561213157600080fd5b50805160208201516040830151606084015160809094015192985090965094509092509050612164868686868686612fd3565b5050505050505b5050600101611f90565b5050505050565b600080600080869050600080826001600160a01b031663c4a7761e6040518163ffffffff1660e01b8152600401604080518083038186803b1580156121c057600080fd5b505afa1580156121d4573d6000803e3d6000fd5b505050506040513d60408110156121ea57600080fd5b81019080805190602001909291908051906020019092919050505091509150600080600061227f85858d8d8a6001600160a01b03166318160ddd6040518163ffffffff1660e01b815260040160206040518083038186803b15801561224e57600080fd5b505afa158015612262573d6000803e3d6000fd5b505050506040513d602081101561227857600080fd5b5051613043565b919a50985096505050505050505b93509350939050565b60008080806122a58686613176565b9097909650945050505050565b600083116122d25760405162461bcd60e51b815260040161070d90615193565b600081116122f25760405162461bcd60e51b815260040161070d90615193565b6123076001600160a01b0385163330866131f1565b6116566001600160a01b0383163330846131f1565b60ca54604082015160009182918291612342916001600160a01b03898116921690613279565b60ca546060850151612362916001600160a01b0388811692911690613279565b60ca5484516020860151604080880151606089015160808a015160a08b015193517fec28fcac0000000000000000000000000000000000000000000000000000000081526001600160a01b039097169663ec28fcac966123cb9690959094939291600401615323565b606060405180830381600087803b1580156123e557600080fd5b505af11580156123f9573d6000803e3d6000fd5b505050506040513d601f19601f8201168201806040525081019061241d91906150af565b60ca549195509350909150612440906001600160a01b0388811691166000613279565b60ca5461228d906001600160a01b0387811691166000613279565b6000828201838110156108b3576040805162461bcd60e51b815260206004820152601b60248201527f536166654d6174683a206164646974696f6e206f766572666c6f770000000000604482015290519081900360640190fd5b60006124c28484846133d3565b90505b9392505050565b6001600160a01b038216612527576040805162461bcd60e51b815260206004820181905260248201527f4552433732313a206d696e7420746f20746865207a65726f2061646472657373604482015290519081900360640190fd5b61253081611c0d565b15612582576040805162461bcd60e51b815260206004820152601c60248201527f4552433732313a20746f6b656e20616c7265616479206d696e74656400000000604482015290519081900360640190fd5b61258e600083836106db565b6001600160a01b03821660009081526097602052604090206125b09082612dc8565b506125bd60988284612dd4565b5060405181906001600160a01b038416906000907fddf252ad1be2c89b69c2b068fc378daa952ba7f163c4a11628f55a4df523b3ef908290a45050565b612605848484611d69565b6126118484848461349d565b6116565760405162461bcd60e51b81526004018080602001828103825260328152602001806153a76032913960400191505060405180910390fd5b60608161268d575060408051808201909152600181527f30000000000000000000000000000000000000000000000000000000000000006020820152610498565b8160005b81156126a557600101600a82049150612691565b60008167ffffffffffffffff811180156126be57600080fd5b506040519080825280601f01601f1916602001820160405280156126e9576020820181803683370190505b50859350905060001982015b831561275257600a840660300160f81b8282806001900393508151811061271857fe5b60200101907effffffffffffffffffffffffffffffffffffffffffffffffffffffffffffff1916908160001a905350600a840493506126f5565b50949350505050565b600061276630613679565b15905090565b600054610100900460ff1680612785575061278561275b565b80612793575060005460ff16155b6127ce5760405162461bcd60e51b815260040180806020018281038252602e8152602001806154da602e913960400191505060405180910390fd5b600054610100900460ff161580156127f9576000805460ff1961ff0019909116610100171660011790555b61280161367f565b612809613721565b61281383836137d7565b80156106db576000805461ff0019169055505050565b60006108b38383613907565b60008060005b866001600160a01b031663b135a1456040518163ffffffff1660e01b815260040160206040518083038186803b15801561287457600080fd5b505afa158015612888573d6000803e3d6000fd5b505050506040513d602081101561289e57600080fd5b50518110156129f557600080886001600160a01b031663cc364f48846040518263ffffffff1660e01b815260040180828152602001915050604080518083038186803b1580156128ed57600080fd5b505afa158015612901573d6000803e3d6000fd5b505050506040513d604081101561291757600080fd5b508051602090910151909250905060006129338b8b8585612ece565b90506fffffffffffffffffffffffffffffffff8116156129ea5760006040518061010001604052808d6001600160a01b031681526020018c6001600160a01b031681526020018b6001600160a01b031681526020018a8152602001836fffffffffffffffffffffffffffffffff1681526020018981526020018560020b81526020018460020b81525090506000806129ca8361391f565b915091506129d8898361245b565b98506129e4888261245b565b97505050505b50505060010161283b565b506000876001600160a01b0316630dfe16816040518163ffffffff1660e01b815260040160206040518083038186803b158015612a3157600080fd5b505afa158015612a45573d6000803e3d6000fd5b505050506040513d6020811015612a5b57600080fd5b5051604080517fd21220a700000000000000000000000000000000000000000000000000000000815290519192506000916001600160a01b038b169163d21220a7916004808301926020929190829003018186803b158015612abc57600080fd5b505afa158015612ad0573d6000803e3d6000fd5b505050506040513d6020811015612ae657600080fd5b5051604080517f70a082310000000000000000000000000000000000000000000000000000000081526001600160a01b038b811660048301529151929350600092612c7a92612c0f92908716916370a0823191602480820192602092909190829003018186803b158015612b5957600080fd5b505afa158015612b6d573d6000803e3d6000fd5b505050506040513d6020811015612b8357600080fd5b5051604080517feae989a200000000000000000000000000000000000000000000000000000000815290516001600160a01b038e169163eae989a2916004808301926020929190829003018186803b158015612bde57600080fd5b505afa158015612bf2573d6000803e3d6000fd5b505050506040513d6020811015612c0857600080fd5b5051611f30565b878b6001600160a01b03166318160ddd6040518163ffffffff1660e01b815260040160206040518083038186803b158015612c4957600080fd5b505afa158015612c5d573d6000803e3d6000fd5b505050506040513d6020811015612c7357600080fd5b5051613a8a565b90506000612d90612d56846001600160a01b03166370a082318d6040518263ffffffff1660e01b815260040180826001600160a01b0316815260200191505060206040518083038186803b158015612cd157600080fd5b505afa158015612ce5573d6000803e3d6000fd5b505050506040513d6020811015612cfb57600080fd5b5051604080517fa00fa77f00000000000000000000000000000000000000000000000000000000815290516001600160a01b038f169163a00fa77f916004808301926020929190829003018186803b158015612bde57600080fd5b888c6001600160a01b03166318160ddd6040518163ffffffff1660e01b815260040160206040518083038186803b158015612c4957600080fd5b9050612d9c868361245b565b9550612da8858261245b565b9450505050509550959350505050565b5490565b60006108b38383613b39565b60006108b38383613bff565b60006124c284846001600160a01b038516613c49565b81546000908210612e2c5760405162461bcd60e51b81526004018080602001828103825260228152602001806153856022913960400191505060405180910390fd5b826000018281548110612e3b57fe5b9060005260206000200154905092915050565b604080516001600160a01b038416602482015260448082018490528251808303909101815260649091019091526020810180517bffffffffffffffffffffffffffffffffffffffffffffffffffffffff167fa9059cbb000000000000000000000000000000000000000000000000000000001790526106db908490613ce0565b6000846001600160a01b031663514ea4bf612eea868686612f7d565b6040518263ffffffff1660e01b81526004018082815260200191505060a06040518083038186803b158015612f1e57600080fd5b505afa158015612f32573d6000803e3d6000fd5b505050506040513d60a0811015612f4857600080fd5b505195945050505050565b6000856000612f6487878787613d91565b8152602001908152602001600020905095945050505050565b6040805160609490941b6bffffffffffffffffffffffff1916602080860191909152600293840b60e890811b60348701529290930b90911b60378401528051808403601a018152603a9093019052815191012090565b85546fffffffffffffffffffffffffffffffff9586167fffffffffffffffffffffffffffffffff000000000000000000000000000000009182161787556001870194909455600286019290925560039094018054918416600160801b029484169190921617909116919091179055565b600080808315806130545750600088115b8061305f5750600087115b61306557fe5b836130805750849050836130798282613dea565b925061316b565b87613092575083613079818589613a8a565b866130a55785915061307982858a613a8a565b60006130c36130b4888a613e01565b6130be888c613e01565b613e5a565b90506000811161311a576040805162461bcd60e51b815260206004820152600160248201527f6300000000000000000000000000000000000000000000000000000000000000604482015290519081900360640190fd5b61313861313161312b836001611f30565b8a613e69565b600161245b565b925061315161313161314b836001611f30565b8b613e69565b915061316761316182878c613a8a565b89613e69565b9350505b955095509592505050565b8154600090819083106131ba5760405162461bcd60e51b81526004018080602001828103825260228152602001806155086022913960400191505060405180910390fd5b60008460000184815481106131cb57fe5b906000526020600020906002020190508060000154816001015492509250509250929050565b604080516001600160a01b0380861660248301528416604482015260648082018490528251808303909101815260849091019091526020810180517bffffffffffffffffffffffffffffffffffffffffffffffffffffffff167f23b872dd00000000000000000000000000000000000000000000000000000000179052611656908590613ce0565b8015806133185750604080517fdd62ed3e0000000000000000000000000000000000000000000000000000000081523060048201526001600160a01b03848116602483015291519185169163dd62ed3e91604480820192602092909190829003018186803b1580156132ea57600080fd5b505afa1580156132fe573d6000803e3d6000fd5b505050506040513d602081101561331457600080fd5b5051155b6133535760405162461bcd60e51b815260040180806020018281038252603681526020018061564b6036913960400191505060405180910390fd5b604080516001600160a01b038416602482015260448082018490528251808303909101815260649091019091526020810180517bffffffffffffffffffffffffffffffffffffffffffffffffffffffff167f095ea7b3000000000000000000000000000000000000000000000000000000001790526106db908490613ce0565b6000828152600184016020526040812054828161346e5760405162461bcd60e51b81526004018080602001828103825283818151815260200191508051906020019080838360005b8381101561343357818101518382015260200161341b565b50505050905090810190601f1680156134605780820380516001836020036101000a031916815260200191505b509250505060405180910390fd5b5084600001600182038154811061348157fe5b9060005260206000209060020201600101549150509392505050565b60006134b1846001600160a01b0316613679565b6134bd57506001611d61565b600061360e7f150b7a02000000000000000000000000000000000000000000000000000000006134eb611c1a565b88878760405160240180856001600160a01b03168152602001846001600160a01b0316815260200183815260200180602001828103825283818151815260200191508051906020019080838360005b8381101561355257818101518382015260200161353a565b50505050905090810190601f16801561357f5780820380516001836020036101000a031916815260200191505b5095505050505050604051602081830303815290604052907bffffffffffffffffffffffffffffffffffffffffffffffffffffffff19166020820180517bffffffffffffffffffffffffffffffffffffffffffffffffffffffff83818316178352505050506040518060600160405280603281526020016153a7603291396001600160a01b0388169190613ed0565b9050600081806020019051602081101561362757600080fd5b50517fffffffff00000000000000000000000000000000000000000000000000000000167f150b7a02000000000000000000000000000000000000000000000000000000001492505050949350505050565b3b151590565b600054610100900460ff1680613698575061369861275b565b806136a6575060005460ff16155b6136e15760405162461bcd60e51b815260040180806020018281038252602e8152602001806154da602e913960400191505060405180910390fd5b600054610100900460ff1615801561370c576000805460ff1961ff0019909116610100171660011790555b801561371e576000805461ff00191690555b50565b600054610100900460ff168061373a575061373a61275b565b80613748575060005460ff16155b6137835760405162461bcd60e51b815260040180806020018281038252602e8152602001806154da602e913960400191505060405180910390fd5b600054610100900460ff161580156137ae576000805460ff1961ff0019909116610100171660011790555b61370c7f01ffc9a700000000000000000000000000000000000000000000000000000000613edf565b600054610100900460ff16806137f057506137f061275b565b806137fe575060005460ff16155b6138395760405162461bcd60e51b815260040180806020018281038252602e8152602001806154da602e913960400191505060405180910390fd5b600054610100900460ff16158015613864576000805460ff1961ff0019909116610100171660011790555b825161387790609c906020860190614c15565b50815161388b90609d906020850190614c15565b506138b57f80ac58cd00000000000000000000000000000000000000000000000000000000613edf565b6138de7f5b5e139f00000000000000000000000000000000000000000000000000000000613edf565b6128137f780e9d6300000000000000000000000000000000000000000000000000000000613edf565b60009081526001919091016020526040902054151590565b600080600061398b61398385608001516fffffffffffffffffffffffffffffffff168660a0015187602001516001600160a01b03166318160ddd6040518163ffffffff1660e01b815260040160206040518083038186803b158015612c4957600080fd5b600003613f93565b9050600081600f0b1315613a84576060840151845160c086015160e087015160009283926139b99287613fa4565b9150915060006139d78489602001518a60c001518b60e00151613d91565b905060006139f289602001518a60c001518b60e00151612f7d565b905060006040518060c001604052808b600001516001600160a01b031681526020018b604001516001600160a01b03168152602001848152602001838152602001868152602001858152509050600080613a558c60c001518d60e00151856140c1565b91509150818711613a665786613a68565b815b9a50808611613a775785613a79565b805b995050505050505050505b50915091565b6000808060001985870986860292508281109083900303905080613ac05760008411613ab557600080fd5b5082900490506124c5565b808411613acc57600080fd5b6000848688096000868103871696879004966002600389028118808a02820302808a02820302808a02820302808a02820302808a02820302808a02909103029181900381900460010186841190950394909402919094039290920491909117919091029150509392505050565b60008181526001830160205260408120548015613bf55783546000198083019190810190600090879083908110613b6c57fe5b9060005260206000200154905080876000018481548110613b8957fe5b600091825260208083209091019290925582815260018981019092526040902090840190558654879080613bb957fe5b600190038181906000526020600020016000905590558660010160008781526020019081526020016000206000905560019450505050506108b6565b60009150506108b6565b6000613c0b8383613907565b613c41575081546001818101845560008481526020808220909301849055845484825282860190935260409020919091556108b6565b5060006108b6565b600082815260018401602052604081205480613cae5750506040805180820182528381526020808201848152865460018181018955600089815284812095516002909302909501918255915190820155865486845281880190925292909120556124c5565b82856000016001830381548110613cc157fe5b90600052602060002090600202016001018190555060009150506124c5565b6000613d35826040518060400160405280602081526020017f5361666545524332303a206c6f772d6c6576656c2063616c6c206661696c6564815250856001600160a01b0316613ed09092919063ffffffff16565b8051909150156106db57808060200190516020811015613d5457600080fd5b50516106db5760405162461bcd60e51b815260040180806020018281038252602a815260200180615621602a913960400191505060405180910390fd5b6040805160208082019690965260609490941b6bffffffffffffffffffffffff191684820152600292830b60e890811b60548601529190920b901b60578301528051808303603a018152605a9092019052805191012090565b600081831015613dfa57816108b3565b5090919050565b600082613e10575060006108b6565b82820282848281613e1d57fe5b04146108b35760405162461bcd60e51b815260040180806020018281038252602181526020018061552a6021913960400191505060405180910390fd5b6000818310613dfa57816108b3565b6000808211613ebf576040805162461bcd60e51b815260206004820152601a60248201527f536166654d6174683a206469766973696f6e206279207a65726f000000000000604482015290519081900360640190fd5b818381613ec857fe5b049392505050565b60606124c284846000856141b2565b7fffffffff000000000000000000000000000000000000000000000000000000008082161415613f56576040805162461bcd60e51b815260206004820152601c60248201527f4552433136353a20696e76616c696420696e7465726661636520696400000000604482015290519081900360640190fd5b7fffffffff00000000000000000000000000000000000000000000000000000000166000908152606560205260409020805460ff19166001179055565b80600f81900b811461049857600080fd5b600080600080876001600160a01b0316633850c7bd6040518163ffffffff1660e01b815260040160e06040518083038186803b158015613fe357600080fd5b505afa158015613ff7573d6000803e3d6000fd5b505050506040513d60e081101561400d57600080fd5b5080516020909101519092509050600080600f87900b156140ad578860020b8360020b1215614058576140516140428a61430d565b61404b8a61430d565b8961465b565b91506140ad565b8760020b8360020b121561408f576140738461404b8a61430d565b91506140886140818a61430d565b858961469f565b90506140ad565b6140aa61409b8a61430d565b6140a48a61430d565b8961469f565b90505b60009182039a910398509650505050505050565b600080600080600080600087602001516001600160a01b0316638ae881ab89604001516040518263ffffffff1660e01b81526004018082815260200191505060a06040518083038186803b15801561411857600080fd5b505afa15801561412c573d6000803e3d6000fd5b505050506040513d60a081101561414257600080fd5b508051602082015160408301516060808501516080909501518d51918e0151949a509298509096509294509250600091829161418091908e8e6146ce565b9150915061419f8787878d6080015188018e60a0015188018787614976565b9850985050505050505050935093915050565b6060824710156141f35760405162461bcd60e51b81526004018080602001828103825260268152602001806153fd6026913960400191505060405180910390fd5b6141fc85613679565b61424d576040805162461bcd60e51b815260206004820152601d60248201527f416464726573733a2063616c6c20746f206e6f6e2d636f6e7472616374000000604482015290519081900360640190fd5b600080866001600160a01b031685876040518082805190602001908083835b6020831061428b5780518252601f19909201916020918201910161426c565b6001836020036101000a03801982511681845116808217855250505050505090500191505060006040518083038185875af1925050503d80600081146142ed576040519150601f19603f3d011682016040523d82523d6000602084013e6142f2565b606091505b50915091506143028282866149e9565b979650505050505050565b60008060008360020b12614324578260020b61432c565b8260020b6000035b9050620d89e8811115614386576040805162461bcd60e51b815260206004820152600160248201527f5400000000000000000000000000000000000000000000000000000000000000604482015290519081900360640190fd5b60006001821661439a57600160801b6143ac565b6ffffcb933bd6fad37aa2d162d1a5940015b70ffffffffffffffffffffffffffffffffff16905060028216156143e0576ffff97272373d413259a46990580e213a0260801c5b60048216156143ff576ffff2e50f5f656932ef12357cf3c7fdcc0260801c5b600882161561441e576fffe5caca7e10e4e61c3624eaa0941cd00260801c5b601082161561443d576fffcb9843d60f6159c9db58835c9266440260801c5b602082161561445c576fff973b41fa98c081472e6896dfb254c00260801c5b604082161561447b576fff2ea16466c96a3843ec78b326b528610260801c5b608082161561449a576ffe5dee046a99a2a811c461f1969c30530260801c5b6101008216156144ba576ffcbe86c7900a88aedcffc83b479aa3a40260801c5b6102008216156144da576ff987a7253ac413176f2b074cf7815e540260801c5b6104008216156144fa576ff3392b0822b70005940c7a398e4b70f30260801c5b61080082161561451a576fe7159475a2c29b7443b29c7fa6e889d90260801c5b61100082161561453a576fd097f3bdfd2022b8845ad8f792aa58250260801c5b61200082161561455a576fa9f746462d870fdf8a65dc1f90e061e50260801c5b61400082161561457a576f70d869a156d2a1b890bb3df62baf32f70260801c5b61800082161561459a576f31be135f97d08fd981231505542fcfa60260801c5b620100008216156145bb576f09aa508b5b7a84e1c677de54f3e99bc90260801c5b620200008216156145db576e5d6af8dedb81196699c329225ee6040260801c5b620400008216156145fa576d2216e584f5fa1ea926041bedfe980260801c5b62080000821615614617576b048a170391f7dc42444e8fa20260801c5b60008460020b131561463257806000198161462e57fe5b0490505b640100000000810615614646576001614649565b60005b60ff16602082901c0192505050919050565b60008082600f0b126146815761467c6146778585856001614a4f565b614b01565b6124c2565b6146946146778585856000036000614a4f565b600003949350505050565b60008082600f0b126146bb5761467c6146778585856001614b33565b6146946146778585856000036000614b33565b600080600080876001600160a01b031663514ea4bf886040518263ffffffff1660e01b81526004018082815260200191505060a06040518083038186803b15801561471857600080fd5b505afa15801561472c573d6000803e3d6000fd5b505050506040513d60a081101561474257600080fd5b50602081015160409182015182517f3850c7bd000000000000000000000000000000000000000000000000000000008152925191945092506000916001600160a01b038b1691633850c7bd9160048082019260e092909190829003018186803b1580156147ae57600080fd5b505afa1580156147c2573d6000803e3d6000fd5b505050506040513d60e08110156147d857600080fd5b5060200151604080517ff30dba9300000000000000000000000000000000000000000000000000000000815260028a900b6004820152905191925060009182916001600160a01b038d169163f30dba939160248082019261010092909190829003018186803b15801561484a57600080fd5b505afa15801561485e573d6000803e3d6000fd5b505050506040513d61010081101561487557600080fd5b506040810151606090910151909250905060008060028b810b9086900b126148a15750829050816148aa565b50508185038185035b6000808e6001600160a01b031663f30dba938d6040518263ffffffff1660e01b8152600401808260020b81526020019150506101006040518083038186803b1580156148f557600080fd5b505afa158015614909573d6000803e3d6000fd5b505050506040513d61010081101561492057600080fd5b506040810151606090910151909250905060008060028e810b908a900b121561494d575082905081614956565b50508189038189035b94909903989098039e91909603919091039b509950505050505050505050565b60008061499c8885038a6fffffffffffffffffffffffffffffffff16600160801b613a8a565b860195506149c38784038a6fffffffffffffffffffffffffffffffff16600160801b613a8a565b6fffffffffffffffffffffffffffffffff9687169a950190951697509295505050505050565b606083156149f85750816124c5565b825115614a085782518084602001fd5b60405162461bcd60e51b815260206004820181815284516024840152845185939192839260440191908501908083836000831561343357818101518382015260200161341b565b6000836001600160a01b0316856001600160a01b03161115614a6f579293925b7bffffffffffffffffffffffffffffffff000000000000000000000000606084901b166001600160a01b038686038116908716614aab57600080fd5b83614adb57866001600160a01b0316614ace8383896001600160a01b0316613a8a565b81614ad557fe5b04614302565b614302614af28383896001600160a01b0316614bd0565b886001600160a01b0316614c0a565b60007f80000000000000000000000000000000000000000000000000000000000000008210614b2f57600080fd5b5090565b6000836001600160a01b0316856001600160a01b03161115614b53579293925b81614b9257614b8d836fffffffffffffffffffffffffffffffff168686036001600160a01b03166c01000000000000000000000000613a8a565b614bc7565b614bc7836fffffffffffffffffffffffffffffffff168686036001600160a01b03166c01000000000000000000000000614bd0565b95945050505050565b6000614bdd848484613a8a565b905060008280614be957fe5b84860911156124c5576000198110614c0057600080fd5b6001019392505050565b808204910615150190565b828054600181600116156101000203166002900490600052602060002090601f016020900481019282614c4b5760008555614c91565b82601f10614c6457805160ff1916838001178555614c91565b82800160010185558215614c91579182015b82811115614c91578251825591602001919060010190614c76565b50614b2f9291505b80821115614b2f5760008155600101614c99565b600060208284031215614cbe578081fd5b81356108b38161536f565b600060208284031215614cda578081fd5b81516108b38161536f565b60008060408385031215614cf7578081fd5b8235614d028161536f565b91506020830135614d128161536f565b809150509250929050565b600080600080600080600080610100898b031215614d39578384fd5b8851614d448161536f565b60208a0151909850614d558161536f565b60408a0151909750614d668161536f565b60608a0151909650614d778161536f565b60808a015160a08b015160c08c015160e0909c01519a9d999c50979a91999098919650945092505050565b600080600060608486031215614db6578283fd5b8335614dc18161536f565b92506020840135614dd18161536f565b929592945050506040919091013590565b60008060008060808587031215614df7578384fd5b8435614e028161536f565b9350602085810135614e138161536f565b935060408601359250606086013567ffffffffffffffff80821115614e36578384fd5b818801915088601f830112614e49578384fd5b813581811115614e5557fe5b614e6784601f19601f8401160161534b565b91508082528984828501011115614e7c578485fd5b8084840185840137810190920192909252939692955090935050565b60008060408385031215614eaa578182fd5b8235614eb58161536f565b915060208301358015158114614d12578182fd5b60008060408385031215614edb578182fd5b8235614ee68161536f565b946020939093013593505050565b600060208284031215614f05578081fd5b5035919050565b600060208284031215614f1d578081fd5b81357fffffffff00000000000000000000000000000000000000000000000000000000811681146108b3578182fd5b600060c08284031215614f5d578081fd5b60405160c0810181811067ffffffffffffffff82111715614f7a57fe5b8060405250823581526020830135602082015260408301356040820152606083013560608201526080830135608082015260a083013560a08201528091505092915050565b600060a08284031215614fd0578081fd5b60405160a0810181811067ffffffffffffffff82111715614fed57fe5b806040525082358152602083013560208201526040830135604082015260608301356060820152608083013560808201528091505092915050565b600060208284031215615039578081fd5b5051919050565b60008060408385031215615052578182fd5b50508035926020909101359150565b60008060408385031215615073578182fd5b505080516020909101519092909150565b600080600060608486031215615098578081fd5b505081359360208301359350604090920135919050565b6000806000606084860312156150c3578081fd5b8351925060208401519150604084015190509250925092565b918252602082015260400190565b6001600160a01b0391909116815260200190565b901515815260200190565b6000602080835283518082850152825b8181101561513557858101830151858201604001528201615119565b818111156151465783604083870101525b50601f01601f1916929092016040019392505050565b60208082526002908201527f4f4f000000000000000000000000000000000000000000000000000000000000604082015260600190565b60208082526002908201527f4e5a000000000000000000000000000000000000000000000000000000000000604082015260600190565b60208082526003908201527f4348490000000000000000000000000000000000000000000000000000000000604082015260600190565b6020808252600a908201527f6f6e6c79206f776e657200000000000000000000000000000000000000000000604082015260600190565b6020808252600c908201527f6e6f7420617070726f7665640000000000000000000000000000000000000000604082015260600190565b60208082526013908201527f696e73756666696369656e742073686172657300000000000000000000000000604082015260600190565b6fffffffffffffffffffffffffffffffff95861681526020810194909452604084019290925283166060830152909116608082015260a00190565b90815260200190565b9283526020830191909152604082015260600190565b948552602085019390935260408401919091526060830152608082015260a00190565b958652602086019490945260408501929092526060840152608083015260a082015260c00190565b60405181810167ffffffffffffffff8111828210171561536757fe5b604052919050565b6001600160a01b038116811461371e57600080fdfe456e756d657261626c655365743a20696e646578206f7574206f6620626f756e64734552433732313a207472616e7366657220746f206e6f6e20455243373231526563656976657220696d706c656d656e7465724552433732313a207472616e7366657220746f20746865207a65726f2061646472657373416464726573733a20696e73756666696369656e742062616c616e636520666f722063616c6c4552433732313a206f70657261746f7220717565727920666f72206e6f6e6578697374656e7420746f6b656e4552433732313a20617070726f76652063616c6c6572206973206e6f74206f776e6572206e6f7220617070726f76656420666f7220616c6c4552433732313a2062616c616e636520717565727920666f7220746865207a65726f20616464726573734552433732313a206f776e657220717565727920666f72206e6f6e6578697374656e7420746f6b656e496e697469616c697a61626c653a20636f6e747261637420697320616c726561647920696e697469616c697a6564456e756d657261626c654d61703a20696e646578206f7574206f6620626f756e6473536166654d6174683a206d756c7469706c69636174696f6e206f766572666c6f774552433732313a20617070726f76656420717565727920666f72206e6f6e6578697374656e7420746f6b656e4552433732313a207472616e73666572206f6620746f6b656e2074686174206973206e6f74206f776e4552433732314d657461646174613a2055524920717565727920666f72206e6f6e6578697374656e7420746f6b656e4552433732313a20617070726f76616c20746f2063757272656e74206f776e65724552433732313a207472616e736665722063616c6c6572206973206e6f74206f776e6572206e6f7220617070726f7665645361666545524332303a204552433230206f7065726174696f6e20646964206e6f7420737563636565645361666545524332303a20617070726f76652066726f6d206e6f6e2d7a65726f20746f206e6f6e2d7a65726f20616c6c6f77616e6365a164736f6c6343000706000a",
  "linkReferences": {},
  "deployedLinkReferences": {}
}