{
  "_format": "hh-sol-artifact-1",
  "contractName": "YangNFTVault",
  "sourceName": "contracts/YangNFTVault.sol",
  "abi": [
    {
      "inputs": [
        {
          "internalType": "address",
          "name": "_gov",
          "type": "address"
        }
      ],
      "stateMutability": "nonpayable",
      "type": "constructor"
    },
    {
      "anonymous": false,
      "inputs": [
        {
          "indexed": true,
          "internalType": "address",
          "name": "owner",
          "type": "address"
        },
        {
          "indexed": true,
          "internalType": "address",
          "name": "approved",
          "type": "address"
        },
        {
          "indexed": true,
          "internalType": "uint256",
          "name": "tokenId",
          "type": "uint256"
        }
      ],
      "name": "Approval",
      "type": "event"
    },
    {
      "anonymous": false,
      "inputs": [
        {
          "indexed": true,
          "internalType": "address",
          "name": "owner",
          "type": "address"
        },
        {
          "indexed": true,
          "internalType": "address",
          "name": "operator",
          "type": "address"
        },
        {
          "indexed": false,
          "internalType": "bool",
          "name": "approved",
          "type": "bool"
        }
      ],
      "name": "ApprovalForAll",
      "type": "event"
    },
    {
      "anonymous": false,
      "inputs": [
        {
          "indexed": true,
          "internalType": "uint256",
          "name": "tokenId",
          "type": "uint256"
        },
        {
          "indexed": true,
          "internalType": "address",
          "name": "token0",
          "type": "address"
        },
        {
          "indexed": false,
          "internalType": "address",
          "name": "token1",
          "type": "address"
        }
      ],
      "name": "Deposit",
      "type": "event"
    },
    {
      "anonymous": false,
      "inputs": [
        {
          "indexed": true,
          "internalType": "address",
          "name": "recipient",
          "type": "address"
        },
        {
          "indexed": true,
          "internalType": "uint256",
          "name": "tokenId",
          "type": "uint256"
        }
      ],
      "name": "MintYangNFT",
      "type": "event"
    },
    {
      "anonymous": false,
      "inputs": [
        {
          "indexed": true,
          "internalType": "uint256",
          "name": "yangId",
          "type": "uint256"
        },
        {
          "indexed": true,
          "internalType": "uint256",
          "name": "chiId",
          "type": "uint256"
        },
        {
          "indexed": true,
          "internalType": "uint256",
          "name": "share",
          "type": "uint256"
        }
      ],
      "name": "Subscribe",
      "type": "event"
    },
    {
      "anonymous": false,
      "inputs": [
        {
          "indexed": true,
          "internalType": "address",
          "name": "from",
          "type": "address"
        },
        {
          "indexed": true,
          "internalType": "address",
          "name": "to",
          "type": "address"
        },
        {
          "indexed": true,
          "internalType": "uint256",
          "name": "tokenId",
          "type": "uint256"
        }
      ],
      "name": "Transfer",
      "type": "event"
    },
    {
      "anonymous": false,
      "inputs": [
        {
          "indexed": true,
          "internalType": "uint256",
          "name": "yangId",
          "type": "uint256"
        },
        {
          "indexed": true,
          "internalType": "uint256",
          "name": "chiId",
          "type": "uint256"
        },
        {
          "indexed": false,
          "internalType": "uint256",
          "name": "amount0",
          "type": "uint256"
        },
        {
          "indexed": false,
          "internalType": "uint256",
          "name": "amount1",
          "type": "uint256"
        }
      ],
      "name": "UnSubscribe",
      "type": "event"
    },
    {
      "anonymous": false,
      "inputs": [
        {
          "indexed": true,
          "internalType": "uint256",
          "name": "tokenId",
          "type": "uint256"
        },
        {
          "indexed": true,
          "internalType": "address",
          "name": "token0",
          "type": "address"
        },
        {
          "indexed": false,
          "internalType": "address",
          "name": "token1",
          "type": "address"
        }
      ],
      "name": "Withdraw",
      "type": "event"
    },
    {
      "inputs": [
        {
          "internalType": "address",
          "name": "to",
          "type": "address"
        },
        {
          "internalType": "uint256",
          "name": "tokenId",
          "type": "uint256"
        }
      ],
      "name": "approve",
      "outputs": [],
      "stateMutability": "nonpayable",
      "type": "function"
    },
    {
      "inputs": [
        {
          "internalType": "address",
          "name": "owner",
          "type": "address"
        }
      ],
      "name": "balanceOf",
      "outputs": [
        {
          "internalType": "uint256",
          "name": "",
          "type": "uint256"
        }
      ],
      "stateMutability": "view",
      "type": "function"
    },
    {
      "inputs": [],
      "name": "baseURI",
      "outputs": [
        {
          "internalType": "string",
          "name": "",
          "type": "string"
        }
      ],
      "stateMutability": "view",
      "type": "function"
    },
    {
      "inputs": [
        {
          "internalType": "uint256",
          "name": "tokenId",
          "type": "uint256"
        },
        {
          "internalType": "address",
          "name": "token0",
          "type": "address"
        },
        {
          "internalType": "uint256",
          "name": "amount0",
          "type": "uint256"
        },
        {
          "internalType": "address",
          "name": "token1",
          "type": "address"
        },
        {
          "internalType": "uint256",
          "name": "amount1",
          "type": "uint256"
        }
      ],
      "name": "deposit",
      "outputs": [],
      "stateMutability": "nonpayable",
      "type": "function"
    },
    {
      "inputs": [
        {
          "internalType": "uint256",
          "name": "yangId",
          "type": "uint256"
        },
        {
          "internalType": "uint256",
          "name": "chiId",
          "type": "uint256"
        },
        {
          "internalType": "address",
          "name": "user",
          "type": "address"
        }
      ],
      "name": "getAmounts",
      "outputs": [
        {
          "internalType": "uint256",
          "name": "amount0",
          "type": "uint256"
        },
        {
          "internalType": "uint256",
          "name": "amount1",
          "type": "uint256"
        }
      ],
      "stateMutability": "view",
      "type": "function"
    },
    {
      "inputs": [
        {
          "internalType": "uint256",
          "name": "tokenId",
          "type": "uint256"
        }
      ],
      "name": "getApproved",
      "outputs": [
        {
          "internalType": "address",
          "name": "",
          "type": "address"
        }
      ],
      "stateMutability": "view",
      "type": "function"
    },
    {
      "inputs": [
        {
          "internalType": "uint256",
          "name": "chiId",
          "type": "uint256"
        }
      ],
      "name": "getCHIAccruedFees",
      "outputs": [
        {
          "internalType": "uint256",
          "name": "fee0",
          "type": "uint256"
        },
        {
          "internalType": "uint256",
          "name": "fee1",
          "type": "uint256"
        }
      ],
      "stateMutability": "view",
      "type": "function"
    },
    {
      "inputs": [
        {
          "internalType": "uint256",
          "name": "chiId",
          "type": "uint256"
        }
      ],
      "name": "getCHITotalAmounts",
      "outputs": [
        {
          "internalType": "uint256",
          "name": "amount0",
          "type": "uint256"
        },
        {
          "internalType": "uint256",
          "name": "amount1",
          "type": "uint256"
        }
      ],
      "stateMutability": "view",
      "type": "function"
    },
    {
      "inputs": [
        {
          "internalType": "uint256",
          "name": "chiId",
          "type": "uint256"
        },
        {
          "internalType": "uint256",
          "name": "amount0Desired",
          "type": "uint256"
        },
        {
          "internalType": "uint256",
          "name": "amount1Desired",
          "type": "uint256"
        }
      ],
      "name": "getShares",
      "outputs": [
        {
          "internalType": "uint256",
          "name": "",
          "type": "uint256"
        }
      ],
      "stateMutability": "view",
      "type": "function"
    },
    {
      "inputs": [],
      "name": "gov",
      "outputs": [
        {
          "internalType": "address",
          "name": "",
          "type": "address"
        }
      ],
      "stateMutability": "view",
      "type": "function"
    },
    {
      "inputs": [
        {
          "internalType": "address",
          "name": "owner",
          "type": "address"
        },
        {
          "internalType": "address",
          "name": "operator",
          "type": "address"
        }
      ],
      "name": "isApprovedForAll",
      "outputs": [
        {
          "internalType": "bool",
          "name": "",
          "type": "bool"
        }
      ],
      "stateMutability": "view",
      "type": "function"
    },
    {
      "inputs": [
        {
          "internalType": "address",
          "name": "recipient",
          "type": "address"
        }
      ],
      "name": "mint",
      "outputs": [
        {
          "internalType": "uint256",
          "name": "tokenId",
          "type": "uint256"
        }
      ],
      "stateMutability": "nonpayable",
      "type": "function"
    },
    {
      "inputs": [],
      "name": "name",
      "outputs": [
        {
          "internalType": "string",
          "name": "",
          "type": "string"
        }
      ],
      "stateMutability": "view",
      "type": "function"
    },
    {
      "inputs": [],
      "name": "owner",
      "outputs": [
        {
          "internalType": "address",
          "name": "",
          "type": "address"
        }
      ],
      "stateMutability": "view",
      "type": "function"
    },
    {
      "inputs": [
        {
          "internalType": "uint256",
          "name": "tokenId",
          "type": "uint256"
        }
      ],
      "name": "ownerOf",
      "outputs": [
        {
          "internalType": "address",
          "name": "",
          "type": "address"
        }
      ],
      "stateMutability": "view",
      "type": "function"
    },
    {
      "inputs": [
        {
          "internalType": "bytes32",
          "name": "key",
          "type": "bytes32"
        }
      ],
      "name": "poolPositions",
      "outputs": [
        {
          "internalType": "uint128",
          "name": "liquidity",
          "type": "uint128"
        },
        {
          "internalType": "uint256",
          "name": "feeGrowthInside0LastX128",
          "type": "uint256"
        },
        {
          "internalType": "uint256",
          "name": "feeGrowthInside1LastX128",
          "type": "uint256"
        },
        {
          "internalType": "uint128",
          "name": "tokensOwed0",
          "type": "uint128"
        },
        {
          "internalType": "uint128",
          "name": "tokensOwed1",
          "type": "uint128"
        }
      ],
      "stateMutability": "view",
      "type": "function"
    },
    {
      "inputs": [
        {
          "internalType": "address",
          "name": "from",
          "type": "address"
        },
        {
          "internalType": "address",
          "name": "to",
          "type": "address"
        },
        {
          "internalType": "uint256",
          "name": "tokenId",
          "type": "uint256"
        }
      ],
      "name": "safeTransferFrom",
      "outputs": [],
      "stateMutability": "nonpayable",
      "type": "function"
    },
    {
      "inputs": [
        {
          "internalType": "address",
          "name": "from",
          "type": "address"
        },
        {
          "internalType": "address",
          "name": "to",
          "type": "address"
        },
        {
          "internalType": "uint256",
          "name": "tokenId",
          "type": "uint256"
        },
        {
          "internalType": "bytes",
          "name": "_data",
          "type": "bytes"
        }
      ],
      "name": "safeTransferFrom",
      "outputs": [],
      "stateMutability": "nonpayable",
      "type": "function"
    },
    {
      "inputs": [
        {
          "internalType": "address",
          "name": "operator",
          "type": "address"
        },
        {
          "internalType": "bool",
          "name": "approved",
          "type": "bool"
        }
      ],
      "name": "setApprovalForAll",
      "outputs": [],
      "stateMutability": "nonpayable",
      "type": "function"
    },
    {
      "inputs": [
        {
          "internalType": "address",
          "name": "_chiManager",
          "type": "address"
        }
      ],
      "name": "setCHIManager",
      "outputs": [],
      "stateMutability": "nonpayable",
      "type": "function"
    },
    {
      "inputs": [
        {
          "internalType": "address",
          "name": "_yangView",
          "type": "address"
        }
      ],
      "name": "setYangView",
      "outputs": [],
      "stateMutability": "nonpayable",
      "type": "function"
    },
    {
      "inputs": [
        {
          "components": [
            {
              "internalType": "uint256",
              "name": "yangId",
              "type": "uint256"
            },
            {
              "internalType": "uint256",
              "name": "chiId",
              "type": "uint256"
            },
            {
              "internalType": "uint256",
              "name": "amount0Desired",
              "type": "uint256"
            },
            {
              "internalType": "uint256",
              "name": "amount1Desired",
              "type": "uint256"
            },
            {
              "internalType": "uint256",
              "name": "amount0Min",
              "type": "uint256"
            },
            {
              "internalType": "uint256",
              "name": "amount1Min",
              "type": "uint256"
            }
          ],
          "internalType": "struct IYangNFTVault.SubscribeParam",
          "name": "params",
          "type": "tuple"
        }
      ],
      "name": "subscribe",
      "outputs": [
        {
          "internalType": "uint256",
          "name": "",
          "type": "uint256"
        }
      ],
      "stateMutability": "nonpayable",
      "type": "function"
    },
    {
      "inputs": [
        {
          "internalType": "bytes4",
          "name": "interfaceId",
          "type": "bytes4"
        }
      ],
      "name": "supportsInterface",
      "outputs": [
        {
          "internalType": "bool",
          "name": "",
          "type": "bool"
        }
      ],
      "stateMutability": "view",
      "type": "function"
    },
    {
      "inputs": [],
      "name": "symbol",
      "outputs": [
        {
          "internalType": "string",
          "name": "",
          "type": "string"
        }
      ],
      "stateMutability": "view",
      "type": "function"
    },
    {
      "inputs": [
        {
          "internalType": "uint256",
          "name": "index",
          "type": "uint256"
        }
      ],
      "name": "tokenByIndex",
      "outputs": [
        {
          "internalType": "uint256",
          "name": "",
          "type": "uint256"
        }
      ],
      "stateMutability": "view",
      "type": "function"
    },
    {
      "inputs": [
        {
          "internalType": "address",
          "name": "owner",
          "type": "address"
        },
        {
          "internalType": "uint256",
          "name": "index",
          "type": "uint256"
        }
      ],
      "name": "tokenOfOwnerByIndex",
      "outputs": [
        {
          "internalType": "uint256",
          "name": "",
          "type": "uint256"
        }
      ],
      "stateMutability": "view",
      "type": "function"
    },
    {
      "inputs": [
        {
          "internalType": "uint256",
          "name": "tokenId",
          "type": "uint256"
        }
      ],
      "name": "tokenURI",
      "outputs": [
        {
          "internalType": "string",
          "name": "",
          "type": "string"
        }
      ],
      "stateMutability": "view",
      "type": "function"
    },
    {
      "inputs": [],
      "name": "totalSupply",
      "outputs": [
        {
          "internalType": "uint256",
          "name": "",
          "type": "uint256"
        }
      ],
      "stateMutability": "view",
      "type": "function"
    },
    {
      "inputs": [
        {
          "internalType": "address",
          "name": "from",
          "type": "address"
        },
        {
          "internalType": "address",
          "name": "to",
          "type": "address"
        },
        {
          "internalType": "uint256",
          "name": "tokenId",
          "type": "uint256"
        }
      ],
      "name": "transferFrom",
      "outputs": [],
      "stateMutability": "nonpayable",
      "type": "function"
    },
    {
      "inputs": [
        {
          "components": [
            {
              "internalType": "uint256",
              "name": "yangId",
              "type": "uint256"
            },
            {
              "internalType": "uint256",
              "name": "chiId",
              "type": "uint256"
            },
            {
              "internalType": "uint256",
              "name": "shares",
              "type": "uint256"
            },
            {
              "internalType": "uint256",
              "name": "amount0Min",
              "type": "uint256"
            },
            {
              "internalType": "uint256",
              "name": "amount1Min",
              "type": "uint256"
            }
          ],
          "internalType": "struct IYangNFTVault.UnSubscribeParam",
          "name": "params",
          "type": "tuple"
        }
      ],
      "name": "unsubscribe",
      "outputs": [],
      "stateMutability": "nonpayable",
      "type": "function"
    },
    {
      "inputs": [
        {
          "internalType": "uint256",
          "name": "tokenId",
          "type": "uint256"
        },
        {
          "internalType": "address",
          "name": "token0",
          "type": "address"
        },
        {
          "internalType": "uint256",
          "name": "amount0",
          "type": "uint256"
        },
        {
          "internalType": "address",
          "name": "token1",
          "type": "address"
        },
        {
          "internalType": "uint256",
          "name": "amount1",
          "type": "uint256"
        }
      ],
      "name": "withdraw",
      "outputs": [],
      "stateMutability": "nonpayable",
      "type": "function"
    },
    {
      "inputs": [
        {
          "internalType": "address",
          "name": "recipient",
          "type": "address"
        },
        {
          "internalType": "address",
          "name": "token",
          "type": "address"
        },
        {
          "internalType": "uint256",
          "name": "tokenId",
          "type": "uint256"
        }
      ],
      "name": "yangPositions",
      "outputs": [
        {
          "internalType": "uint256",
          "name": "",
          "type": "uint256"
        }
      ],
      "stateMutability": "view",
      "type": "function"
    },
    {
      "inputs": [],
      "name": "yangView",
      "outputs": [
        {
          "internalType": "address",
          "name": "",
          "type": "address"
        }
      ],
      "stateMutability": "view",
      "type": "function"
    }
  ],
  "bytecode": "0x60806040526001600f553480156200001657600080fd5b50604051620043c4380380620043c483398101604081905262000039916200026c565b604080518082018252601481527f59414e472773204173736574204d616e616765720000000000000000000000006020808301919091528251808401909352600483526359414e4760e01b90830152600160005590620000a06301ffc9a760e01b62000138565b8151620000b5906007906020850190620001c0565b508051620000cb906008906020840190620001c0565b50620000de6380ac58cd60e01b62000138565b620000f0635b5e139f60e01b62000138565b6200010263780e9d6360e01b62000138565b5050600b8054336001600160a01b031991821617909155600c80549091166001600160a01b03929092169190911790556200029c565b6001600160e01b0319808216141562000198576040805162461bcd60e51b815260206004820152601c60248201527f4552433136353a20696e76616c696420696e7465726661636520696400000000604482015290519081900360640190fd5b6001600160e01b0319166000908152600160208190526040909120805460ff19169091179055565b828054600181600116156101000203166002900490600052602060002090601f016020900481019282620001f8576000855562000243565b82601f106200021357805160ff191683800117855562000243565b8280016001018555821562000243579182015b828111156200024357825182559160200191906001019062000226565b506200025192915062000255565b5090565b5b8082111562000251576000815560010162000256565b6000602082840312156200027e578081fd5b81516001600160a01b038116811462000295578182fd5b9392505050565b61411880620002ac6000396000f3fe608060405234801561001057600080fd5b506004361061020b5760003560e01c80635c0d107e1161012a5780638ae881ab116100bd578063a244a4811161008c578063c87b56dd11610071578063c87b56dd1461045b578063e5d9cc9a1461046e578063e985e9c5146104815761020b565b8063a244a48114610435578063b88d4fde146104485761020b565b80638ae881ab146103ee5780638da5cb5b1461041257806395d89b411461041a578063a22cb465146104225761020b565b806365f13f2c116100f957806365f13f2c146103ad5780636a627842146103c05780636c0360eb146103d357806370a08231146103db5761020b565b80635c0d107e1461036c5780635f0600f71461037f5780636352211e1461039257806365b98e00146103a55761020b565b806323b872dd116101a257806342842e0e1161017157806342842e0e1461032057806342e6e0fe146103335780634f6ccce714610346578063536fbbf7146103595761020b565b806323b872dd146102d45780632599da08146102e75780632f745c59146102fa5780633ab2e4ba1461030d5761020b565b806312d43a51116101de57806312d43a51146102835780631468c8651461028b57806318160ddd146102ac5780631d322dbb146102c15761020b565b806301ffc9a71461021057806306fdde0314610239578063081812fc1461024e578063095ea7b31461026e575b600080fd5b61022361021e366004613886565b610494565b6040516102309190613b6f565b60405180910390f35b6102416104cf565b6040516102309190613b7a565b61026161025c36600461386e565b610565565b6040516102309190613b11565b61028161027c366004613843565b6105c7565b005b61026161069d565b61029e610299366004613a2e565b6106ac565b604051610230929190613dc9565b6102b4610874565b6040516102309190613dc0565b6102816102cf3660046139ba565b610885565b6102816102e236600461371c565b6109ab565b6102b46102f536600461371c565b610a02565b6102b4610308366004613843565b610a71565b61028161031b366004613939565b610a9c565b61028161032e36600461371c565b610ea5565b6102b4610341366004613a66565b610ec0565b6102b461035436600461386e565b611022565b6102816103673660046139ba565b611038565b6102b461037a3660046138c6565b611149565b61029e61038d36600461386e565b6116b2565b6102616103a036600461386e565b6117e5565b61026161180d565b6102816103bb366004613627565b61181c565b6102b46103ce366004613627565b611875565b610241611941565b6102b46103e9366004613627565b6119a2565b6104016103fc36600461386e565b611a0a565b604051610230959493929190613d85565b610261611a8a565b610241611a99565b610281610430366004613812565b611afa565b610281610443366004613627565b611bff565b61028161045636600461375c565b611c58565b61024161046936600461386e565b611cb6565b61029e61047c36600461386e565b611f37565b61022361048f36600461365f565b6120db565b7fffffffff00000000000000000000000000000000000000000000000000000000811660009081526001602052604090205460ff165b919050565b60078054604080516020601f600260001961010060018816150201909516949094049384018190048102820181019092528281526060939092909183018282801561055b5780601f106105305761010080835404028352916020019161055b565b820191906000526020600020905b81548152906001019060200180831161053e57829003601f168201915b5050505050905090565b600061057082612109565b6105ab5760405162461bcd60e51b815260040180806020018281038252602c815260200180613fd6602c913960400191505060405180910390fd5b506000908152600560205260409020546001600160a01b031690565b60006105d2826117e5565b9050806001600160a01b0316836001600160a01b031614156106255760405162461bcd60e51b815260040180806020018281038252602181526020018061405a6021913960400191505060405180910390fd5b806001600160a01b0316610637612116565b6001600160a01b0316148061065357506106538161048f612116565b61068e5760405162461bcd60e51b8152600401808060200182810382526038815260200180613f296038913960400191505060405180910390fd5b610698838361211a565b505050565b600c546001600160a01b031681565b600d5460009081906001600160a01b03166106e25760405162461bcd60e51b81526004016106d990613c3b565b60405180910390fd5b60008585856040516020016106f993929190613ae9565b60408051601f198184030181529181528151602092830120600081815260129093529120549091501561086b57600d54604051635cef66b360e11b815260009182916001600160a01b039091169063b9decd669061075b908a90600401613dc0565b6101006040518083038186803b15801561077457600080fd5b505afa158015610788573d6000803e3d6000fd5b505050506040513d601f19601f820116820180604052508101906107ac9190613697565b5050600e5460008a815260126020526040908190205490517fabb543880000000000000000000000000000000000000000000000000000000081529599509397506001600160a01b0316955063abb5438894506108149388938893508f925090600401613b25565b604080518083038186803b15801561082b57600080fd5b505afa15801561083f573d6000803e3d6000fd5b505050506040513d601f19601f820116820180604052508101906108639190613a0b565b909550935050505b50935093915050565b60006108806003612195565b905090565b8461089033826121a0565b6108ac5760405162461bcd60e51b81526004016106d990613d17565b60026000541415610904576040805162461bcd60e51b815260206004820152601f60248201527f5265656e7472616e637947756172643a207265656e7472616e742063616c6c00604482015290519081900360640190fd5b6002600055836109265760405162461bcd60e51b81526004016106d990613c04565b600082116109465760405162461bcd60e51b81526004016106d990613c04565b610951868686612244565b61095c868484612244565b846001600160a01b0316867fa51bb7c2c2049ab09fbff5561211a4ee34b3b4cee74c42f1bce5461cd4ef3f8d856040516109969190613b11565b60405180910390a35050600160005550505050565b6109bc6109b6612116565b826121a0565b6109f75760405162461bcd60e51b815260040180806020018281038252603181526020018061407b6031913960400191505060405180910390fd5b61069883838361228b565b6000610a0e84836121a0565b610a2a5760405162461bcd60e51b81526004016106d990613d17565b6000828585604051602001610a4193929190613abe565b60408051601f198184030181529181528151602092830120600090815260119092529020549150505b9392505050565b6001600160a01b0382166000908152600260205260408120610a9390836123d7565b90505b92915050565b8051610aa833826121a0565b610ac45760405162461bcd60e51b81526004016106d990613d17565b60026000541415610b1c576040805162461bcd60e51b815260206004820152601f60248201527f5265656e7472616e637947756172643a207265656e7472616e742063616c6c00604482015290519081900360640190fd5b6002600055600d546001600160a01b0316610b495760405162461bcd60e51b81526004016106d990613c3b565b600d546020830151604051635cef66b360e11b815260009283926001600160a01b039091169163b9decd6691610b8191600401613dc0565b6101006040518083038186803b158015610b9a57600080fd5b505afa158015610bae573d6000803e3d6000fd5b505050506040513d601f19601f82011682018060405250810190610bd29190613697565b5050505093509350505060008460000151856020015133604051602001610bfb93929190613ae9565b604051602081830303815290604052805190602001209050846040015160126000838152602001908152602001600020541015610c4a5760405162461bcd60e51b81526004016106d990613d4e565b600d548551602087015160408089015160608a015160808b015192517f46698e7500000000000000000000000000000000000000000000000000000000815260009687966001600160a01b03909116956346698e7595610cb09592949193600401613dd7565b6040805180830381600087803b158015610cc957600080fd5b505af1158015610cdd573d6000803e3d6000fd5b505050506040513d601f19601f82011682018060405250810190610d019190613a0b565b6040808a0151600087815260126020529190912054929450909250610d2691906123e3565b60126000858152602001908152602001600020819055506000859050610dc18860000151826001600160a01b0316630dfe16816040518163ffffffff1660e01b815260040160206040518083038186803b158015610d8357600080fd5b505afa158015610d97573d6000803e3d6000fd5b505050506040513d601f19601f82011682018060405250810190610dbb9190613643565b85612440565b610e408860000151826001600160a01b031663d21220a76040518163ffffffff1660e01b815260040160206040518083038186803b158015610e0257600080fd5b505afa158015610e16573d6000803e3d6000fd5b505050506040513d601f19601f82011682018060405250810190610e3a9190613643565b84612440565b87518590610e54906013908490849061249e565b602089015189516040517fb65ca58d729d89d58e1ed48a179b40d4a6b56e3e101a10085a0f43915cf1448890610e8d9088908890613dc9565b60405180910390a35050600160005550505050505050565b61069883838360405180602001604052806000815250611c58565b600d546000906001600160a01b0316610eeb5760405162461bcd60e51b81526004016106d990613c3b565b600d54604051635cef66b360e11b81526000916001600160a01b03169063b9decd6690610f1c908890600401613dc0565b6101006040518083038186803b158015610f3557600080fd5b505afa158015610f49573d6000803e3d6000fd5b505050506040513d601f19601f82011682018060405250810190610f6d9190613697565b5050600e546040517f82dc04db000000000000000000000000000000000000000000000000000000008152939750600096506001600160a01b031694506382dc04db9350610fc5928792508a91508990600401613b4e565b60606040518083038186803b158015610fdd57600080fd5b505afa158015610ff1573d6000803e3d6000fd5b505050506040513d601f19601f820116820180604052508101906110159190613a91565b5090979650505050505050565b60008061103060038461268d565b509392505050565b8461104333826121a0565b61105f5760405162461bcd60e51b81526004016106d990613d17565b600260005414156110b7576040805162461bcd60e51b815260206004820152601f60248201527f5265656e7472616e637947756172643a207265656e7472616e742063616c6c00604482015290519081900360640190fd5b6002600055836110d95760405162461bcd60e51b81526004016106d990613c04565b600082116110f95760405162461bcd60e51b81526004016106d990613c04565b6111048686866126a9565b61110f8684846126a9565b846001600160a01b0316867fa3d2cbcb90e0658235d4ba62aed9a50c231df9bc5bbfb74c95badbc798f38d1a856040516109969190613b11565b805160009061115833826121a0565b6111745760405162461bcd60e51b81526004016106d990613d17565b600260005414156111cc576040805162461bcd60e51b815260206004820152601f60248201527f5265656e7472616e637947756172643a207265656e7472616e742063616c6c00604482015290519081900360640190fd5b6002600055600d546001600160a01b03166111f95760405162461bcd60e51b81526004016106d990613c3b565b600d546020840151604051635cef66b360e11b815260009283926001600160a01b039091169163b9decd669161123191600401613dc0565b6101006040518083038186803b15801561124a57600080fd5b505afa15801561125e573d6000803e3d6000fd5b505050506040513d601f19601f820116820180604052508101906112829190613697565b505050509350935050506000829050611330600d60009054906101000a90046001600160a01b03168760400151836001600160a01b0316630dfe16816040518163ffffffff1660e01b815260040160206040518083038186803b1580156112e857600080fd5b505afa1580156112fc573d6000803e3d6000fd5b505050506040513d601f19601f820116820180604052508101906113209190613643565b6001600160a01b031691906126f0565b611387600d60009054906101000a90046001600160a01b03168760600151836001600160a01b031663d21220a76040518163ffffffff1660e01b815260040160206040518083038186803b1580156112e857600080fd5b600d54865160208801516040808a015160608b015160808c015160a08d015193517fec28fcac000000000000000000000000000000000000000000000000000000008152600097889788976001600160a01b039092169663ec28fcac966113f8969295939490939190600401613dfa565b606060405180830381600087803b15801561141257600080fd5b505af1158015611426573d6000803e3d6000fd5b505050506040513d601f19601f8201168201806040525081019061144a9190613a91565b9250925092506114cf8960000151856001600160a01b0316630dfe16816040518163ffffffff1660e01b815260040160206040518083038186803b15801561149157600080fd5b505afa1580156114a5573d6000803e3d6000fd5b505050506040513d601f19601f820116820180604052508101906114c99190613643565b8461284a565b61154e8960000151856001600160a01b031663d21220a76040518163ffffffff1660e01b815260040160206040518083038186803b15801561151057600080fd5b505afa158015611524573d6000803e3d6000fd5b505050506040513d601f19601f820116820180604052508101906115489190613643565b8361284a565b6115a2600d60009054906101000a90046001600160a01b03166000866001600160a01b0316630dfe16816040518163ffffffff1660e01b815260040160206040518083038186803b1580156112e857600080fd5b6115f6600d60009054906101000a90046001600160a01b03166000866001600160a01b031663d21220a76040518163ffffffff1660e01b815260040160206040518083038186803b1580156112e857600080fd5b600089600001518a602001513360405160200161161593929190613ae9565b60408051601f1981840301815291815281516020928301206000818152601290935291205490915061164790856128c5565b6000828152601260205260409020558951869061166a906013908890849061249e565b60208b01518b51604051879291907f17de92c1076ec5855c3edd4a6084a82c184adfda177deb99d6532697cdac91cb90600090a4505060016000555090979650505050505050565b600d5460009081906001600160a01b03166116df5760405162461bcd60e51b81526004016106d990613c3b565b600d54604051635cef66b360e11b81526000916001600160a01b03169063b9decd6690611710908790600401613dc0565b6101006040518083038186803b15801561172957600080fd5b505afa15801561173d573d6000803e3d6000fd5b505050506040513d601f19601f820116820180604052508101906117619190613697565b505050509350505050806001600160a01b031663c4a7761e6040518163ffffffff1660e01b8152600401604080518083038186803b1580156117a257600080fd5b505afa1580156117b6573d6000803e3d6000fd5b505050506040513d601f19601f820116820180604052508101906117da9190613a0b565b909590945092505050565b6000610a9682604051806060016040528060298152602001613f8b602991396003919061291f565b600e546001600160a01b031681565b600b546001600160a01b031633146118465760405162461bcd60e51b81526004016106d990613ce0565b600e805473ffffffffffffffffffffffffffffffffffffffff19166001600160a01b0392909216919091179055565b600c546000906001600160a01b031633146118a25760405162461bcd60e51b81526004016106d990613ca9565b6001600160a01b03821660009081526010602052604090205460ff16156118db5760405162461bcd60e51b81526004016106d990613bcd565b50600f8054600181019091556118f1828261292c565b6001600160a01b038216600081815260106020526040808220805460ff19166001179055518392917f74629109564de5ce9d04dc84bb5ecd8fbb0c98843a3fbd43f057825a9255449c91a3919050565b600a8054604080516020601f600260001961010060018816150201909516949094049384018190048102820181019092528281526060939092909183018282801561055b5780601f106105305761010080835404028352916020019161055b565b60006001600160a01b0382166119e95760405162461bcd60e51b815260040180806020018281038252602a815260200180613f61602a913960400191505060405180910390fd5b6001600160a01b0382166000908152600260205260409020610a9690612195565b600090815260136020908152604091829020825160a08101845281546fffffffffffffffffffffffffffffffff908116808352600184015494830185905260028401549583018690526003909301548082166060840181905270010000000000000000000000000000000090910490911660809092018290529194929392565b600b546001600160a01b031681565b60088054604080516020601f600260001961010060018816150201909516949094049384018190048102820181019092528281526060939092909183018282801561055b5780601f106105305761010080835404028352916020019161055b565b611b02612116565b6001600160a01b0316826001600160a01b03161415611b68576040805162461bcd60e51b815260206004820152601960248201527f4552433732313a20617070726f766520746f2063616c6c657200000000000000604482015290519081900360640190fd5b8060066000611b75612116565b6001600160a01b03908116825260208083019390935260409182016000908120918716808252919093529120805460ff191692151592909217909155611bb9612116565b6001600160a01b03167f17307eab39ab6107e8899845ad3d59bd9653f200f220920489ca2b5937696c318360405180821515815260200191505060405180910390a35050565b600b546001600160a01b03163314611c295760405162461bcd60e51b81526004016106d990613ce0565b600d805473ffffffffffffffffffffffffffffffffffffffff19166001600160a01b0392909216919091179055565b611c69611c63612116565b836121a0565b611ca45760405162461bcd60e51b815260040180806020018281038252603181526020018061407b6031913960400191505060405180910390fd5b611cb084848484612a5a565b50505050565b6060611cc182612109565b611cfc5760405162461bcd60e51b815260040180806020018281038252602f81526020018061402b602f913960400191505060405180910390fd5b60008281526009602090815260408083208054825160026001831615610100026000190190921691909104601f810185900485028201850190935282815292909190830182828015611d8f5780601f10611d6457610100808354040283529160200191611d8f565b820191906000526020600020905b815481529060010190602001808311611d7257829003601f168201915b505050505090506000611da0611941565b9050805160001415611db4575090506104ca565b815115611e755780826040516020018083805190602001908083835b60208310611def5780518252601f199092019160209182019101611dd0565b51815160209384036101000a600019018019909216911617905285519190930192850191508083835b60208310611e375780518252601f199092019160209182019101611e18565b6001836020036101000a03801982511681845116808217855250505050505090500192505050604051602081830303815290604052925050506104ca565b80611e7f85612aac565b6040516020018083805190602001908083835b60208310611eb15780518252601f199092019160209182019101611e92565b51815160209384036101000a600019018019909216911617905285519190930192850191508083835b60208310611ef95780518252601f199092019160209182019101611eda565b6001836020036101000a0380198251168184511680821785525050505050509050019250505060405160208183030381529060405292505050919050565b600d5460009081906001600160a01b0316611f645760405162461bcd60e51b81526004016106d990613c3b565b600d54604051635cef66b360e11b81526000916001600160a01b03169063b9decd6690611f95908790600401613dc0565b6101006040518083038186803b158015611fae57600080fd5b505afa158015611fc2573d6000803e3d6000fd5b505050506040513d601f19601f82011682018060405250810190611fe69190613697565b505050509350505050806001600160a01b031663eae989a26040518163ffffffff1660e01b815260040160206040518083038186803b15801561202857600080fd5b505afa15801561203c573d6000803e3d6000fd5b505050506040513d601f19601f8201168201806040525081019061206091906139a2565b9250806001600160a01b031663a00fa77f6040518163ffffffff1660e01b815260040160206040518083038186803b15801561209b57600080fd5b505afa1580156120af573d6000803e3d6000fd5b505050506040513d601f19601f820116820180604052508101906120d391906139a2565b915050915091565b6001600160a01b03918216600090815260066020908152604080832093909416825291909152205460ff1690565b6000610a96600383612bbb565b3390565b6000818152600560205260409020805473ffffffffffffffffffffffffffffffffffffffff19166001600160a01b038416908117909155819061215c826117e5565b6001600160a01b03167f8c5be1e5ebec7d5bd14f71427d1e84f3dd0314c0f7b2291e5b200ac8c7c3b92560405160405180910390a45050565b6000610a9682612bc7565b60006121ab82612109565b6121e65760405162461bcd60e51b815260040180806020018281038252602c815260200180613efd602c913960400191505060405180910390fd5b60006121f1836117e5565b9050806001600160a01b0316846001600160a01b0316148061222c5750836001600160a01b031661222184610565565b6001600160a01b0316145b8061223c575061223c81856120db565b949350505050565b8261224f33826121a0565b61226b5760405162461bcd60e51b81526004016106d990613d17565b61227684848461284a565b611cb06001600160a01b038416303385612bcb565b826001600160a01b031661229e826117e5565b6001600160a01b0316146122e35760405162461bcd60e51b81526004018080602001828103825260298152602001806140026029913960400191505060405180910390fd5b6001600160a01b0382166123285760405162461bcd60e51b8152600401808060200182810382526024815260200180613eb36024913960400191505060405180910390fd5b612333838383610698565b61233e60008261211a565b6001600160a01b03831660009081526002602052604090206123609082612c53565b506001600160a01b03821660009081526002602052604090206123839082612c5f565b5061239060038284612c6b565b5080826001600160a01b0316846001600160a01b03167fddf252ad1be2c89b69c2b068fc378daa952ba7f163c4a11628f55a4df523b3ef60405160405180910390a4505050565b6000610a938383612c81565b60008282111561243a576040805162461bcd60e51b815260206004820152601e60248201527f536166654d6174683a207375627472616374696f6e206f766572666c6f770000604482015290519081900360640190fd5b50900390565b600083338460405160200161245793929190613abe565b60408051601f1981840301815291815281516020928301206000818152601190935291205490915061248990836128c5565b60009182526011602052604090912055505050565b60005b826001600160a01b031663b135a1456040518163ffffffff1660e01b815260040160206040518083038186803b1580156124da57600080fd5b505afa1580156124ee573d6000803e3d6000fd5b505050506040513d602081101561250457600080fd5b505181101561268657600080846001600160a01b031663cc364f48846040518263ffffffff1660e01b815260040180828152602001915050604080518083038186803b15801561255357600080fd5b505afa158015612567573d6000803e3d6000fd5b505050506040513d604081101561257d57600080fd5b5080516020909101519092509050600061259987878585612ce5565b6fffffffffffffffffffffffffffffffff16111561267c5760006125c08886888686612d6a565b905060008060008060008b6001600160a01b031663514ea4bf6125e48d8b8b612d94565b6040518263ffffffff1660e01b81526004018082815260200191505060a06040518083038186803b15801561261857600080fd5b505afa15801561262c573d6000803e3d6000fd5b505050506040513d60a081101561264257600080fd5b50805160208201516040830151606084015160809094015192985090965094509092509050612675868686868686612dea565b5050505050505b50506001016124a1565b5050505050565b600080808061269c8686612e67565b9097909650945050505050565b826126b433826121a0565b6126d05760405162461bcd60e51b81526004016106d990613d17565b6126e56001600160a01b038416333085612bcb565b611cb0848484612440565b80158061278f5750604080517fdd62ed3e0000000000000000000000000000000000000000000000000000000081523060048201526001600160a01b03848116602483015291519185169163dd62ed3e91604480820192602092909190829003018186803b15801561276157600080fd5b505afa158015612775573d6000803e3d6000fd5b505050506040513d602081101561278b57600080fd5b5051155b6127ca5760405162461bcd60e51b81526004018080602001828103825260368152602001806140d66036913960400191505060405180910390fd5b604080516001600160a01b038416602482015260448082018490528251808303909101815260649091019091526020810180517bffffffffffffffffffffffffffffffffffffffffffffffffffffffff167f095ea7b300000000000000000000000000000000000000000000000000000000179052610698908490612ee2565b600083338460405160200161286193929190613abe565b60405160208183030381529060405280519060200120905081601160008381526020019081526020016000205410156128ac5760405162461bcd60e51b81526004016106d990613c72565b60008181526011602052604090205461248990836123e3565b600082820183811015610a93576040805162461bcd60e51b815260206004820152601b60248201527f536166654d6174683a206164646974696f6e206f766572666c6f770000000000604482015290519081900360640190fd5b600061223c848484612f93565b6001600160a01b038216612987576040805162461bcd60e51b815260206004820181905260248201527f4552433732313a206d696e7420746f20746865207a65726f2061646472657373604482015290519081900360640190fd5b61299081612109565b156129e2576040805162461bcd60e51b815260206004820152601c60248201527f4552433732313a20746f6b656e20616c7265616479206d696e74656400000000604482015290519081900360640190fd5b6129ee60008383610698565b6001600160a01b0382166000908152600260205260409020612a109082612c5f565b50612a1d60038284612c6b565b5060405181906001600160a01b038416906000907fddf252ad1be2c89b69c2b068fc378daa952ba7f163c4a11628f55a4df523b3ef908290a45050565b612a6584848461228b565b612a718484848461305d565b611cb05760405162461bcd60e51b8152600401808060200182810382526032815260200180613e816032913960400191505060405180910390fd5b606081612aed575060408051808201909152600181527f300000000000000000000000000000000000000000000000000000000000000060208201526104ca565b8160005b8115612b0557600101600a82049150612af1565b60008167ffffffffffffffff81118015612b1e57600080fd5b506040519080825280601f01601f191660200182016040528015612b49576020820181803683370190505b50859350905060001982015b8315612bb257600a840660300160f81b82828060019003935081518110612b7857fe5b60200101907effffffffffffffffffffffffffffffffffffffffffffffffffffffffffffff1916908160001a905350600a84049350612b55565b50949350505050565b6000610a938383613239565b5490565b604080516001600160a01b0380861660248301528416604482015260648082018490528251808303909101815260849091019091526020810180517bffffffffffffffffffffffffffffffffffffffffffffffffffffffff167f23b872dd00000000000000000000000000000000000000000000000000000000179052611cb0908590612ee2565b6000610a938383613251565b6000610a938383613317565b600061223c84846001600160a01b038516613361565b81546000908210612cc35760405162461bcd60e51b8152600401808060200182810382526022815260200180613e5f6022913960400191505060405180910390fd5b826000018281548110612cd257fe5b9060005260206000200154905092915050565b6000846001600160a01b031663514ea4bf612d01868686612d94565b6040518263ffffffff1660e01b81526004018082815260200191505060a06040518083038186803b158015612d3557600080fd5b505afa158015612d49573d6000803e3d6000fd5b505050506040513d60a0811015612d5f57600080fd5b505195945050505050565b6000856000612d7b878787876133f8565b8152602001908152602001600020905095945050505050565b6040805160609490941b6bffffffffffffffffffffffff1916602080860191909152600293840b60e890811b60348701529290930b90911b60378401528051808403601a018152603a9093019052815191012090565b85546fffffffffffffffffffffffffffffffff9586167fffffffffffffffffffffffffffffffff000000000000000000000000000000009182161787556001870194909455600286019290925560039094018054918416700100000000000000000000000000000000029484169190921617909116919091179055565b815460009081908310612eab5760405162461bcd60e51b8152600401808060200182810382526022815260200180613fb46022913960400191505060405180910390fd5b6000846000018481548110612ebc57fe5b906000526020600020906002020190508060000154816001015492509250509250929050565b6000612f37826040518060400160405280602081526020017f5361666545524332303a206c6f772d6c6576656c2063616c6c206661696c6564815250856001600160a01b03166134519092919063ffffffff16565b80519091501561069857808060200190516020811015612f5657600080fd5b50516106985760405162461bcd60e51b815260040180806020018281038252602a8152602001806140ac602a913960400191505060405180910390fd5b6000828152600184016020526040812054828161302e5760405162461bcd60e51b81526004018080602001828103825283818151815260200191508051906020019080838360005b83811015612ff3578181015183820152602001612fdb565b50505050905090810190601f1680156130205780820380516001836020036101000a031916815260200191505b509250505060405180910390fd5b5084600001600182038154811061304157fe5b9060005260206000209060020201600101549150509392505050565b6000613071846001600160a01b0316613460565b61307d5750600161223c565b60006131ce7f150b7a02000000000000000000000000000000000000000000000000000000006130ab612116565b88878760405160240180856001600160a01b03168152602001846001600160a01b0316815260200183815260200180602001828103825283818151815260200191508051906020019080838360005b838110156131125781810151838201526020016130fa565b50505050905090810190601f16801561313f5780820380516001836020036101000a031916815260200191505b5095505050505050604051602081830303815290604052907bffffffffffffffffffffffffffffffffffffffffffffffffffffffff19166020820180517bffffffffffffffffffffffffffffffffffffffffffffffffffffffff8381831617835250505050604051806060016040528060328152602001613e81603291396001600160a01b0388169190613451565b905060008180602001905160208110156131e757600080fd5b50517fffffffff00000000000000000000000000000000000000000000000000000000167f150b7a02000000000000000000000000000000000000000000000000000000001492505050949350505050565b60009081526001919091016020526040902054151590565b6000818152600183016020526040812054801561330d578354600019808301919081019060009087908390811061328457fe5b90600052602060002001549050808760000184815481106132a157fe5b6000918252602080832090910192909255828152600189810190925260409020908401905586548790806132d157fe5b60019003818190600052602060002001600090559055866001016000878152602001908152602001600020600090556001945050505050610a96565b6000915050610a96565b60006133238383613239565b61335957508154600181810184556000848152602080822090930184905584548482528286019093526040902091909155610a96565b506000610a96565b6000828152600184016020526040812054806133c6575050604080518082018252838152602080820184815286546001818101895560008981528481209551600290930290950191825591519082015586548684528188019092529290912055610a6a565b828560000160018303815481106133d957fe5b9060005260206000209060020201600101819055506000915050610a6a565b6040805160208082019690965260609490941b6bffffffffffffffffffffffff191684820152600292830b60e890811b60548601529190920b901b60578301528051808303603a018152605a9092019052805191012090565b606061223c8484600085613466565b3b151590565b6060824710156134a75760405162461bcd60e51b8152600401808060200182810382526026815260200180613ed76026913960400191505060405180910390fd5b6134b085613460565b613501576040805162461bcd60e51b815260206004820152601d60248201527f416464726573733a2063616c6c20746f206e6f6e2d636f6e7472616374000000604482015290519081900360640190fd5b600080866001600160a01b031685876040518082805190602001908083835b6020831061353f5780518252601f199092019160209182019101613520565b6001836020036101000a03801982511681845116808217855250505050505090500191505060006040518083038185875af1925050503d80600081146135a1576040519150601f19603f3d011682016040523d82523d6000602084013e6135a6565b606091505b50915091506135b68282866135c1565b979650505050505050565b606083156135d0575081610a6a565b8251156135e05782518084602001fd5b60405162461bcd60e51b8152602060048201818152845160248401528451859391928392604401919085019080838360008315612ff3578181015183820152602001612fdb565b600060208284031215613638578081fd5b8135610a9381613e46565b600060208284031215613654578081fd5b8151610a9381613e46565b60008060408385031215613671578081fd5b823561367c81613e46565b9150602083013561368c81613e46565b809150509250929050565b600080600080600080600080610100898b0312156136b3578384fd5b88516136be81613e46565b60208a01519098506136cf81613e46565b60408a01519097506136e081613e46565b60608a01519096506136f181613e46565b60808a015160a08b015160c08c015160e0909c01519a9d999c50979a91999098919650945092505050565b600080600060608486031215613730578283fd5b833561373b81613e46565b9250602084013561374b81613e46565b929592945050506040919091013590565b60008060008060808587031215613771578384fd5b843561377c81613e46565b935060208581013561378d81613e46565b935060408601359250606086013567ffffffffffffffff808211156137b0578384fd5b818801915088601f8301126137c3578384fd5b8135818111156137cf57fe5b6137e184601f19601f84011601613e22565b915080825289848285010111156137f6578485fd5b8084840185840137810190920192909252939692955090935050565b60008060408385031215613824578182fd5b823561382f81613e46565b91506020830135801515811461368c578182fd5b60008060408385031215613855578182fd5b823561386081613e46565b946020939093013593505050565b60006020828403121561387f578081fd5b5035919050565b600060208284031215613897578081fd5b81357fffffffff0000000000000000000000000000000000000000000000000000000081168114610a93578182fd5b600060c082840312156138d7578081fd5b60405160c0810181811067ffffffffffffffff821117156138f457fe5b8060405250823581526020830135602082015260408301356040820152606083013560608201526080830135608082015260a083013560a08201528091505092915050565b600060a0828403121561394a578081fd5b60405160a0810181811067ffffffffffffffff8211171561396757fe5b806040525082358152602083013560208201526040830135604082015260608301356060820152608083013560808201528091505092915050565b6000602082840312156139b3578081fd5b5051919050565b600080600080600060a086880312156139d1578283fd5b8535945060208601356139e381613e46565b93506040860135925060608601356139fa81613e46565b949793965091946080013592915050565b60008060408385031215613a1d578182fd5b505080516020909101519092909150565b600080600060608486031215613a42578081fd5b83359250602084013591506040840135613a5b81613e46565b809150509250925092565b600080600060608486031215613a7a578081fd5b505081359360208301359350604090920135919050565b600080600060608486031215613aa5578081fd5b8351925060208401519150604084015190509250925092565b9283526bffffffffffffffffffffffff19606092831b81166020850152911b16603482015260480190565b928352602083019190915260601b6bffffffffffffffffffffffff1916604082015260540190565b6001600160a01b0391909116815260200190565b6001600160a01b0394851681529290931660208301526040820152606081019190915260800190565b6001600160a01b039390931683526020830191909152604082015260600190565b901515815260200190565b6000602080835283518082850152825b81811015613ba657858101830151858201604001528201613b8a565b81811115613bb75783604083870101525b50601f01601f1916929092016040019392505050565b60208082526002908201527f4f4f000000000000000000000000000000000000000000000000000000000000604082015260600190565b60208082526002908201527f4e5a000000000000000000000000000000000000000000000000000000000000604082015260600190565b60208082526003908201527f4348490000000000000000000000000000000000000000000000000000000000604082015260600190565b60208082526014908201527f696e73756666696369656e742062616c616e6365000000000000000000000000604082015260600190565b60208082526008908201527f6f6e6c7920676f76000000000000000000000000000000000000000000000000604082015260600190565b6020808252600a908201527f6f6e6c79206f776e657200000000000000000000000000000000000000000000604082015260600190565b6020808252600c908201527f6e6f7420617070726f7665640000000000000000000000000000000000000000604082015260600190565b60208082526013908201527f696e73756666696369656e742073686172657300000000000000000000000000604082015260600190565b6fffffffffffffffffffffffffffffffff95861681526020810194909452604084019290925283166060830152909116608082015260a00190565b90815260200190565b918252602082015260400190565b948552602085019390935260408401919091526060830152608082015260a00190565b958652602086019490945260408501929092526060840152608083015260a082015260c00190565b60405181810167ffffffffffffffff81118282101715613e3e57fe5b604052919050565b6001600160a01b0381168114613e5b57600080fd5b5056fe456e756d657261626c655365743a20696e646578206f7574206f6620626f756e64734552433732313a207472616e7366657220746f206e6f6e20455243373231526563656976657220696d706c656d656e7465724552433732313a207472616e7366657220746f20746865207a65726f2061646472657373416464726573733a20696e73756666696369656e742062616c616e636520666f722063616c6c4552433732313a206f70657261746f7220717565727920666f72206e6f6e6578697374656e7420746f6b656e4552433732313a20617070726f76652063616c6c6572206973206e6f74206f776e6572206e6f7220617070726f76656420666f7220616c6c4552433732313a2062616c616e636520717565727920666f7220746865207a65726f20616464726573734552433732313a206f776e657220717565727920666f72206e6f6e6578697374656e7420746f6b656e456e756d657261626c654d61703a20696e646578206f7574206f6620626f756e64734552433732313a20617070726f76656420717565727920666f72206e6f6e6578697374656e7420746f6b656e4552433732313a207472616e73666572206f6620746f6b656e2074686174206973206e6f74206f776e4552433732314d657461646174613a2055524920717565727920666f72206e6f6e6578697374656e7420746f6b656e4552433732313a20617070726f76616c20746f2063757272656e74206f776e65724552433732313a207472616e736665722063616c6c6572206973206e6f74206f776e6572206e6f7220617070726f7665645361666545524332303a204552433230206f7065726174696f6e20646964206e6f7420737563636565645361666545524332303a20617070726f76652066726f6d206e6f6e2d7a65726f20746f206e6f6e2d7a65726f20616c6c6f77616e6365a164736f6c6343000706000a",
  "linkReferences": {},
  "deployedLinkReferences": {}
}