{
  "_format": "hh-sol-artifact-1",
  "contractName": "YangNFTVault",
  "sourceName": "contracts/YangNFTVault.sol",
  "abi": [
    {
      "inputs": [
        {
          "internalType": "address",
          "name": "_gov",
          "type": "address"
        }
      ],
      "stateMutability": "nonpayable",
      "type": "constructor"
    },
    {
      "anonymous": false,
      "inputs": [
        {
          "indexed": true,
          "internalType": "address",
          "name": "owner",
          "type": "address"
        },
        {
          "indexed": true,
          "internalType": "address",
          "name": "approved",
          "type": "address"
        },
        {
          "indexed": true,
          "internalType": "uint256",
          "name": "tokenId",
          "type": "uint256"
        }
      ],
      "name": "Approval",
      "type": "event"
    },
    {
      "anonymous": false,
      "inputs": [
        {
          "indexed": true,
          "internalType": "address",
          "name": "owner",
          "type": "address"
        },
        {
          "indexed": true,
          "internalType": "address",
          "name": "operator",
          "type": "address"
        },
        {
          "indexed": false,
          "internalType": "bool",
          "name": "approved",
          "type": "bool"
        }
      ],
      "name": "ApprovalForAll",
      "type": "event"
    },
    {
      "anonymous": false,
      "inputs": [
        {
          "indexed": true,
          "internalType": "uint256",
          "name": "tokenId",
          "type": "uint256"
        },
        {
          "indexed": true,
          "internalType": "address",
          "name": "token0",
          "type": "address"
        },
        {
          "indexed": false,
          "internalType": "address",
          "name": "token1",
          "type": "address"
        }
      ],
      "name": "Deposit",
      "type": "event"
    },
    {
      "anonymous": false,
      "inputs": [
        {
          "indexed": true,
          "internalType": "address",
          "name": "recipient",
          "type": "address"
        },
        {
          "indexed": true,
          "internalType": "uint256",
          "name": "tokenId",
          "type": "uint256"
        }
      ],
      "name": "MintYangNFT",
      "type": "event"
    },
    {
      "anonymous": false,
      "inputs": [
        {
          "indexed": true,
          "internalType": "uint256",
          "name": "yangId",
          "type": "uint256"
        },
        {
          "indexed": true,
          "internalType": "uint256",
          "name": "chiId",
          "type": "uint256"
        },
        {
          "indexed": true,
          "internalType": "uint256",
          "name": "share",
          "type": "uint256"
        }
      ],
      "name": "Subscribe",
      "type": "event"
    },
    {
      "anonymous": false,
      "inputs": [
        {
          "indexed": true,
          "internalType": "address",
          "name": "from",
          "type": "address"
        },
        {
          "indexed": true,
          "internalType": "address",
          "name": "to",
          "type": "address"
        },
        {
          "indexed": true,
          "internalType": "uint256",
          "name": "tokenId",
          "type": "uint256"
        }
      ],
      "name": "Transfer",
      "type": "event"
    },
    {
      "anonymous": false,
      "inputs": [
        {
          "indexed": true,
          "internalType": "uint256",
          "name": "yangId",
          "type": "uint256"
        },
        {
          "indexed": true,
          "internalType": "uint256",
          "name": "chiId",
          "type": "uint256"
        },
        {
          "indexed": false,
          "internalType": "uint256",
          "name": "amount0",
          "type": "uint256"
        },
        {
          "indexed": false,
          "internalType": "uint256",
          "name": "amount1",
          "type": "uint256"
        }
      ],
      "name": "UnSubscribe",
      "type": "event"
    },
    {
      "anonymous": false,
      "inputs": [
        {
          "indexed": true,
          "internalType": "uint256",
          "name": "tokenId",
          "type": "uint256"
        },
        {
          "indexed": true,
          "internalType": "address",
          "name": "token0",
          "type": "address"
        },
        {
          "indexed": false,
          "internalType": "address",
          "name": "token1",
          "type": "address"
        }
      ],
      "name": "Withdraw",
      "type": "event"
    },
    {
      "inputs": [],
      "name": "acceptGovernance",
      "outputs": [],
      "stateMutability": "nonpayable",
      "type": "function"
    },
    {
      "inputs": [
        {
          "internalType": "address",
          "name": "to",
          "type": "address"
        },
        {
          "internalType": "uint256",
          "name": "tokenId",
          "type": "uint256"
        }
      ],
      "name": "approve",
      "outputs": [],
      "stateMutability": "nonpayable",
      "type": "function"
    },
    {
      "inputs": [
        {
          "internalType": "address",
          "name": "owner",
          "type": "address"
        }
      ],
      "name": "balanceOf",
      "outputs": [
        {
          "internalType": "uint256",
          "name": "",
          "type": "uint256"
        }
      ],
      "stateMutability": "view",
      "type": "function"
    },
    {
      "inputs": [],
      "name": "baseURI",
      "outputs": [
        {
          "internalType": "string",
          "name": "",
          "type": "string"
        }
      ],
      "stateMutability": "view",
      "type": "function"
    },
    {
      "inputs": [
        {
          "internalType": "uint256",
          "name": "tokenId",
          "type": "uint256"
        },
        {
          "internalType": "address",
          "name": "token0",
          "type": "address"
        },
        {
          "internalType": "uint256",
          "name": "amount0",
          "type": "uint256"
        },
        {
          "internalType": "address",
          "name": "token1",
          "type": "address"
        },
        {
          "internalType": "uint256",
          "name": "amount1",
          "type": "uint256"
        }
      ],
      "name": "deposit",
      "outputs": [],
      "stateMutability": "nonpayable",
      "type": "function"
    },
    {
      "inputs": [
        {
          "internalType": "uint256",
          "name": "yangId",
          "type": "uint256"
        },
        {
          "internalType": "uint256",
          "name": "chiId",
          "type": "uint256"
        },
        {
          "internalType": "address",
          "name": "user",
          "type": "address"
        }
      ],
      "name": "getAmounts",
      "outputs": [
        {
          "internalType": "uint256",
          "name": "amount0",
          "type": "uint256"
        },
        {
          "internalType": "uint256",
          "name": "amount1",
          "type": "uint256"
        }
      ],
      "stateMutability": "view",
      "type": "function"
    },
    {
      "inputs": [
        {
          "internalType": "uint256",
          "name": "tokenId",
          "type": "uint256"
        }
      ],
      "name": "getApproved",
      "outputs": [
        {
          "internalType": "address",
          "name": "",
          "type": "address"
        }
      ],
      "stateMutability": "view",
      "type": "function"
    },
    {
      "inputs": [
        {
          "internalType": "uint256",
          "name": "chiId",
          "type": "uint256"
        }
      ],
      "name": "getCHIAccruedFees",
      "outputs": [
        {
          "internalType": "uint256",
          "name": "fee0",
          "type": "uint256"
        },
        {
          "internalType": "uint256",
          "name": "fee1",
          "type": "uint256"
        }
      ],
      "stateMutability": "view",
      "type": "function"
    },
    {
      "inputs": [
        {
          "internalType": "uint256",
          "name": "chiId",
          "type": "uint256"
        }
      ],
      "name": "getCHITotalAmounts",
      "outputs": [
        {
          "internalType": "uint256",
          "name": "amount0",
          "type": "uint256"
        },
        {
          "internalType": "uint256",
          "name": "amount1",
          "type": "uint256"
        }
      ],
      "stateMutability": "view",
      "type": "function"
    },
    {
      "inputs": [
        {
          "internalType": "uint256",
          "name": "chiId",
          "type": "uint256"
        },
        {
          "internalType": "uint256",
          "name": "amount0Desired",
          "type": "uint256"
        },
        {
          "internalType": "uint256",
          "name": "amount1Desired",
          "type": "uint256"
        }
      ],
      "name": "getShares",
      "outputs": [
        {
          "internalType": "uint256",
          "name": "",
          "type": "uint256"
        }
      ],
      "stateMutability": "view",
      "type": "function"
    },
    {
      "inputs": [],
      "name": "gov",
      "outputs": [
        {
          "internalType": "address",
          "name": "",
          "type": "address"
        }
      ],
      "stateMutability": "view",
      "type": "function"
    },
    {
      "inputs": [
        {
          "internalType": "address",
          "name": "owner",
          "type": "address"
        },
        {
          "internalType": "address",
          "name": "operator",
          "type": "address"
        }
      ],
      "name": "isApprovedForAll",
      "outputs": [
        {
          "internalType": "bool",
          "name": "",
          "type": "bool"
        }
      ],
      "stateMutability": "view",
      "type": "function"
    },
    {
      "inputs": [
        {
          "internalType": "address",
          "name": "recipient",
          "type": "address"
        }
      ],
      "name": "mint",
      "outputs": [
        {
          "internalType": "uint256",
          "name": "tokenId",
          "type": "uint256"
        }
      ],
      "stateMutability": "nonpayable",
      "type": "function"
    },
    {
      "inputs": [],
      "name": "name",
      "outputs": [
        {
          "internalType": "string",
          "name": "",
          "type": "string"
        }
      ],
      "stateMutability": "view",
      "type": "function"
    },
    {
      "inputs": [],
      "name": "nextgov",
      "outputs": [
        {
          "internalType": "address",
          "name": "",
          "type": "address"
        }
      ],
      "stateMutability": "view",
      "type": "function"
    },
    {
      "inputs": [],
      "name": "owner",
      "outputs": [
        {
          "internalType": "address",
          "name": "",
          "type": "address"
        }
      ],
      "stateMutability": "view",
      "type": "function"
    },
    {
      "inputs": [
        {
          "internalType": "uint256",
          "name": "tokenId",
          "type": "uint256"
        }
      ],
      "name": "ownerOf",
      "outputs": [
        {
          "internalType": "address",
          "name": "",
          "type": "address"
        }
      ],
      "stateMutability": "view",
      "type": "function"
    },
    {
      "inputs": [
        {
          "internalType": "bytes32",
          "name": "key",
          "type": "bytes32"
        }
      ],
      "name": "poolPositions",
      "outputs": [
        {
          "internalType": "uint128",
          "name": "liquidity",
          "type": "uint128"
        },
        {
          "internalType": "uint256",
          "name": "feeGrowthInside0LastX128",
          "type": "uint256"
        },
        {
          "internalType": "uint256",
          "name": "feeGrowthInside1LastX128",
          "type": "uint256"
        },
        {
          "internalType": "uint128",
          "name": "tokensOwed0",
          "type": "uint128"
        },
        {
          "internalType": "uint128",
          "name": "tokensOwed1",
          "type": "uint128"
        }
      ],
      "stateMutability": "view",
      "type": "function"
    },
    {
      "inputs": [
        {
          "internalType": "address",
          "name": "from",
          "type": "address"
        },
        {
          "internalType": "address",
          "name": "to",
          "type": "address"
        },
        {
          "internalType": "uint256",
          "name": "tokenId",
          "type": "uint256"
        }
      ],
      "name": "safeTransferFrom",
      "outputs": [],
      "stateMutability": "nonpayable",
      "type": "function"
    },
    {
      "inputs": [
        {
          "internalType": "address",
          "name": "from",
          "type": "address"
        },
        {
          "internalType": "address",
          "name": "to",
          "type": "address"
        },
        {
          "internalType": "uint256",
          "name": "tokenId",
          "type": "uint256"
        },
        {
          "internalType": "bytes",
          "name": "_data",
          "type": "bytes"
        }
      ],
      "name": "safeTransferFrom",
      "outputs": [],
      "stateMutability": "nonpayable",
      "type": "function"
    },
    {
      "inputs": [
        {
          "internalType": "address",
          "name": "operator",
          "type": "address"
        },
        {
          "internalType": "bool",
          "name": "approved",
          "type": "bool"
        }
      ],
      "name": "setApprovalForAll",
      "outputs": [],
      "stateMutability": "nonpayable",
      "type": "function"
    },
    {
      "inputs": [
        {
          "internalType": "address",
          "name": "_chiManager",
          "type": "address"
        }
      ],
      "name": "setCHIManager",
      "outputs": [],
      "stateMutability": "nonpayable",
      "type": "function"
    },
    {
      "inputs": [
        {
          "internalType": "address",
          "name": "_governance",
          "type": "address"
        }
      ],
      "name": "setGovernance",
      "outputs": [],
      "stateMutability": "nonpayable",
      "type": "function"
    },
    {
      "inputs": [
        {
          "internalType": "address",
          "name": "_yangView",
          "type": "address"
        }
      ],
      "name": "setYangView",
      "outputs": [],
      "stateMutability": "nonpayable",
      "type": "function"
    },
    {
      "inputs": [
        {
          "components": [
            {
              "internalType": "uint256",
              "name": "yangId",
              "type": "uint256"
            },
            {
              "internalType": "uint256",
              "name": "chiId",
              "type": "uint256"
            },
            {
              "internalType": "uint256",
              "name": "amount0Desired",
              "type": "uint256"
            },
            {
              "internalType": "uint256",
              "name": "amount1Desired",
              "type": "uint256"
            },
            {
              "internalType": "uint256",
              "name": "amount0Min",
              "type": "uint256"
            },
            {
              "internalType": "uint256",
              "name": "amount1Min",
              "type": "uint256"
            }
          ],
          "internalType": "struct IYangNFTVault.SubscribeParam",
          "name": "params",
          "type": "tuple"
        }
      ],
      "name": "subscribe",
      "outputs": [
        {
          "internalType": "uint256",
          "name": "",
          "type": "uint256"
        }
      ],
      "stateMutability": "nonpayable",
      "type": "function"
    },
    {
      "inputs": [
        {
          "internalType": "bytes4",
          "name": "interfaceId",
          "type": "bytes4"
        }
      ],
      "name": "supportsInterface",
      "outputs": [
        {
          "internalType": "bool",
          "name": "",
          "type": "bool"
        }
      ],
      "stateMutability": "view",
      "type": "function"
    },
    {
      "inputs": [],
      "name": "symbol",
      "outputs": [
        {
          "internalType": "string",
          "name": "",
          "type": "string"
        }
      ],
      "stateMutability": "view",
      "type": "function"
    },
    {
      "inputs": [
        {
          "internalType": "uint256",
          "name": "index",
          "type": "uint256"
        }
      ],
      "name": "tokenByIndex",
      "outputs": [
        {
          "internalType": "uint256",
          "name": "",
          "type": "uint256"
        }
      ],
      "stateMutability": "view",
      "type": "function"
    },
    {
      "inputs": [
        {
          "internalType": "address",
          "name": "owner",
          "type": "address"
        },
        {
          "internalType": "uint256",
          "name": "index",
          "type": "uint256"
        }
      ],
      "name": "tokenOfOwnerByIndex",
      "outputs": [
        {
          "internalType": "uint256",
          "name": "",
          "type": "uint256"
        }
      ],
      "stateMutability": "view",
      "type": "function"
    },
    {
      "inputs": [
        {
          "internalType": "uint256",
          "name": "tokenId",
          "type": "uint256"
        }
      ],
      "name": "tokenURI",
      "outputs": [
        {
          "internalType": "string",
          "name": "",
          "type": "string"
        }
      ],
      "stateMutability": "view",
      "type": "function"
    },
    {
      "inputs": [],
      "name": "totalSupply",
      "outputs": [
        {
          "internalType": "uint256",
          "name": "",
          "type": "uint256"
        }
      ],
      "stateMutability": "view",
      "type": "function"
    },
    {
      "inputs": [
        {
          "internalType": "address",
          "name": "from",
          "type": "address"
        },
        {
          "internalType": "address",
          "name": "to",
          "type": "address"
        },
        {
          "internalType": "uint256",
          "name": "tokenId",
          "type": "uint256"
        }
      ],
      "name": "transferFrom",
      "outputs": [],
      "stateMutability": "nonpayable",
      "type": "function"
    },
    {
      "inputs": [
        {
          "components": [
            {
              "internalType": "uint256",
              "name": "yangId",
              "type": "uint256"
            },
            {
              "internalType": "uint256",
              "name": "chiId",
              "type": "uint256"
            },
            {
              "internalType": "uint256",
              "name": "shares",
              "type": "uint256"
            },
            {
              "internalType": "uint256",
              "name": "amount0Min",
              "type": "uint256"
            },
            {
              "internalType": "uint256",
              "name": "amount1Min",
              "type": "uint256"
            }
          ],
          "internalType": "struct IYangNFTVault.UnSubscribeParam",
          "name": "params",
          "type": "tuple"
        }
      ],
      "name": "unsubscribe",
      "outputs": [],
      "stateMutability": "nonpayable",
      "type": "function"
    },
    {
      "inputs": [
        {
          "internalType": "uint256",
          "name": "tokenId",
          "type": "uint256"
        },
        {
          "internalType": "address",
          "name": "token0",
          "type": "address"
        },
        {
          "internalType": "uint256",
          "name": "amount0",
          "type": "uint256"
        },
        {
          "internalType": "address",
          "name": "token1",
          "type": "address"
        },
        {
          "internalType": "uint256",
          "name": "amount1",
          "type": "uint256"
        }
      ],
      "name": "withdraw",
      "outputs": [],
      "stateMutability": "nonpayable",
      "type": "function"
    },
    {
      "inputs": [
        {
          "internalType": "address",
          "name": "recipient",
          "type": "address"
        },
        {
          "internalType": "address",
          "name": "token",
          "type": "address"
        },
        {
          "internalType": "uint256",
          "name": "tokenId",
          "type": "uint256"
        }
      ],
      "name": "yangPositions",
      "outputs": [
        {
          "internalType": "uint256",
          "name": "",
          "type": "uint256"
        }
      ],
      "stateMutability": "view",
      "type": "function"
    },
    {
      "inputs": [],
      "name": "yangView",
      "outputs": [
        {
          "internalType": "address",
          "name": "",
          "type": "address"
        }
      ],
      "stateMutability": "view",
      "type": "function"
    }
  ],
  "bytecode": "0x608060405260016010553480156200001657600080fd5b506040516200452e3803806200452e83398101604081905262000039916200026c565b604080518082018252601481527f59414e472773204173736574204d616e616765720000000000000000000000006020808301919091528251808401909352600483526359414e4760e01b90830152600160005590620000a06301ffc9a760e01b62000138565b8151620000b5906007906020850190620001c0565b508051620000cb906008906020840190620001c0565b50620000de6380ac58cd60e01b62000138565b620000f0635b5e139f60e01b62000138565b6200010263780e9d6360e01b62000138565b5050600b8054336001600160a01b031991821617909155600c80549091166001600160a01b03929092169190911790556200029c565b6001600160e01b0319808216141562000198576040805162461bcd60e51b815260206004820152601c60248201527f4552433136353a20696e76616c696420696e7465726661636520696400000000604482015290519081900360640190fd5b6001600160e01b0319166000908152600160208190526040909120805460ff19169091179055565b828054600181600116156101000203166002900490600052602060002090601f016020900481019282620001f8576000855562000243565b82601f106200021357805160ff191683800117855562000243565b8280016001018555821562000243579182015b828111156200024357825182559160200191906001019062000226565b506200025192915062000255565b5090565b5b8082111562000251576000815560010162000256565b6000602082840312156200027e578081fd5b81516001600160a01b038116811462000295578182fd5b9392505050565b61428280620002ac6000396000f3fe608060405234801561001057600080fd5b506004361061025c5760003560e01c80635f0600f71161014557806395d89b41116100bd578063b88d4fde1161008c578063e5d9cc9a11610071578063e5d9cc9a146104da578063e985e9c5146104ed578063f94e4e80146105005761025c565b8063b88d4fde146104b4578063c87b56dd146104c75761025c565b806395d89b4114610473578063a22cb4651461047b578063a244a4811461048e578063ab033ea9146104a15761025c565b80636a6278421161011457806370a08231116100f957806370a08231146104345780638ae881ab146104475780638da5cb5b1461046b5761025c565b80636a627842146104195780636c0360eb1461042c5761025c565b80635f0600f7146103d85780636352211e146103eb57806365b98e00146103fe57806365f13f2c146104065761025c565b806323b872dd116101d857806342842e0e116101a75780634f6ccce71161018c5780634f6ccce71461039f578063536fbbf7146103b25780635c0d107e146103c55761025c565b806342842e0e1461037957806342e6e0fe1461038c5761025c565b806323b872dd1461032d5780632599da08146103405780632f745c59146103535780633ab2e4ba146103665761025c565b806312d43a511161022f57806318160ddd1161021457806318160ddd146102fd5780631d322dbb14610312578063238efcbc146103255761025c565b806312d43a51146102d45780631468c865146102dc5761025c565b806301ffc9a71461026157806306fdde031461028a578063081812fc1461029f578063095ea7b3146102bf575b600080fd5b61027461026f3660046139b9565b610508565b6040516102819190613ca2565b60405180910390f35b610292610543565b6040516102819190613cad565b6102b26102ad3660046139a1565b6105d9565b6040516102819190613c44565b6102d26102cd366004613976565b61063b565b005b6102b2610711565b6102ef6102ea366004613b61565b610720565b604051610281929190613f33565b6103056108e8565b6040516102819190613f2a565b6102d2610320366004613aed565b6108f9565b6102d2610a1f565b6102d261033b36600461384f565b610a76565b61030561034e36600461384f565b610acd565b610305610361366004613976565b610b3c565b6102d2610374366004613a6c565b610b67565b6102d261038736600461384f565b610f70565b61030561039a366004613b99565b610f8b565b6103056103ad3660046139a1565b6110ed565b6102d26103c0366004613aed565b611103565b6103056103d33660046139f9565b611214565b6102ef6103e63660046139a1565b61177d565b6102b26103f93660046139a1565b6118b0565b6102b26118d8565b6102d261041436600461375a565b6118e7565b61030561042736600461375a565b611940565b610292611a0c565b61030561044236600461375a565b611a6d565b61045a6104553660046139a1565b611ad5565b604051610281959493929190613eef565b6102b2611b55565b610292611b64565b6102d2610489366004613945565b611bc5565b6102d261049c36600461375a565b611cca565b6102d26104af36600461375a565b611d23565b6102d26104c236600461388f565b611d7c565b6102926104d53660046139a1565b611dda565b6102ef6104e83660046139a1565b61205b565b6102746104fb366004613792565b6121ff565b6102b261222d565b7fffffffff00000000000000000000000000000000000000000000000000000000811660009081526001602052604090205460ff165b919050565b60078054604080516020601f60026000196101006001881615020190951694909404938401819004810282018101909252828152606093909290918301828280156105cf5780601f106105a4576101008083540402835291602001916105cf565b820191906000526020600020905b8154815290600101906020018083116105b257829003601f168201915b5050505050905090565b60006105e48261223c565b61061f5760405162461bcd60e51b815260040180806020018281038252602c815260200180614140602c913960400191505060405180910390fd5b506000908152600560205260409020546001600160a01b031690565b6000610646826118b0565b9050806001600160a01b0316836001600160a01b031614156106995760405162461bcd60e51b81526004018080602001828103825260218152602001806141c46021913960400191505060405180910390fd5b806001600160a01b03166106ab612249565b6001600160a01b031614806106c757506106c7816104fb612249565b6107025760405162461bcd60e51b81526004018080602001828103825260388152602001806140936038913960400191505060405180910390fd5b61070c838361224d565b505050565b600c546001600160a01b031681565b600e5460009081906001600160a01b03166107565760405162461bcd60e51b815260040161074d90613d6e565b60405180910390fd5b600085858560405160200161076d93929190613c1c565b60408051601f19818403018152918152815160209283012060008181526013909352912054909150156108df57600e54604051635cef66b360e11b815260009182916001600160a01b039091169063b9decd66906107cf908a90600401613f2a565b6101006040518083038186803b1580156107e857600080fd5b505afa1580156107fc573d6000803e3d6000fd5b505050506040513d601f19601f8201168201806040525081019061082091906137ca565b5050600f5460008a815260136020526040908190205490517fabb543880000000000000000000000000000000000000000000000000000000081529599509397506001600160a01b0316955063abb5438894506108889388938893508f925090600401613c58565b604080518083038186803b15801561089f57600080fd5b505afa1580156108b3573d6000803e3d6000fd5b505050506040513d601f19601f820116820180604052508101906108d79190613b3e565b909550935050505b50935093915050565b60006108f460036122c8565b905090565b8461090433826122d3565b6109205760405162461bcd60e51b815260040161074d90613e4a565b60026000541415610978576040805162461bcd60e51b815260206004820152601f60248201527f5265656e7472616e637947756172643a207265656e7472616e742063616c6c00604482015290519081900360640190fd5b60026000558361099a5760405162461bcd60e51b815260040161074d90613d37565b600082116109ba5760405162461bcd60e51b815260040161074d90613d37565b6109c5868686612377565b6109d0868484612377565b846001600160a01b0316867fa51bb7c2c2049ab09fbff5561211a4ee34b3b4cee74c42f1bce5461cd4ef3f8d85604051610a0a9190613c44565b60405180910390a35050600160005550505050565b600d546001600160a01b03163314610a495760405162461bcd60e51b815260040161074d90613eb8565b600c805473ffffffffffffffffffffffffffffffffffffffff199081163317909155600d80549091169055565b610a87610a81612249565b826122d3565b610ac25760405162461bcd60e51b81526004018080602001828103825260318152602001806141e56031913960400191505060405180910390fd5b61070c8383836123be565b6000610ad984836122d3565b610af55760405162461bcd60e51b815260040161074d90613e4a565b6000828585604051602001610b0c93929190613bf1565b60408051601f198184030181529181528151602092830120600090815260129092529020549150505b9392505050565b6001600160a01b0382166000908152600260205260408120610b5e908361250a565b90505b92915050565b8051610b7333826122d3565b610b8f5760405162461bcd60e51b815260040161074d90613e4a565b60026000541415610be7576040805162461bcd60e51b815260206004820152601f60248201527f5265656e7472616e637947756172643a207265656e7472616e742063616c6c00604482015290519081900360640190fd5b6002600055600e546001600160a01b0316610c145760405162461bcd60e51b815260040161074d90613d6e565b600e546020830151604051635cef66b360e11b815260009283926001600160a01b039091169163b9decd6691610c4c91600401613f2a565b6101006040518083038186803b158015610c6557600080fd5b505afa158015610c79573d6000803e3d6000fd5b505050506040513d601f19601f82011682018060405250810190610c9d91906137ca565b5050505093509350505060008460000151856020015133604051602001610cc693929190613c1c565b604051602081830303815290604052805190602001209050846040015160136000838152602001908152602001600020541015610d155760405162461bcd60e51b815260040161074d90613e81565b600e548551602087015160408089015160608a015160808b015192517f46698e7500000000000000000000000000000000000000000000000000000000815260009687966001600160a01b03909116956346698e7595610d7b9592949193600401613f41565b6040805180830381600087803b158015610d9457600080fd5b505af1158015610da8573d6000803e3d6000fd5b505050506040513d601f19601f82011682018060405250810190610dcc9190613b3e565b6040808a0151600087815260136020529190912054929450909250610df19190612516565b60136000858152602001908152602001600020819055506000859050610e8c8860000151826001600160a01b0316630dfe16816040518163ffffffff1660e01b815260040160206040518083038186803b158015610e4e57600080fd5b505afa158015610e62573d6000803e3d6000fd5b505050506040513d601f19601f82011682018060405250810190610e869190613776565b85612573565b610f0b8860000151826001600160a01b031663d21220a76040518163ffffffff1660e01b815260040160206040518083038186803b158015610ecd57600080fd5b505afa158015610ee1573d6000803e3d6000fd5b505050506040513d601f19601f82011682018060405250810190610f059190613776565b84612573565b87518590610f1f90601490849084906125d1565b602089015189516040517fb65ca58d729d89d58e1ed48a179b40d4a6b56e3e101a10085a0f43915cf1448890610f589088908890613f33565b60405180910390a35050600160005550505050505050565b61070c83838360405180602001604052806000815250611d7c565b600e546000906001600160a01b0316610fb65760405162461bcd60e51b815260040161074d90613d6e565b600e54604051635cef66b360e11b81526000916001600160a01b03169063b9decd6690610fe7908890600401613f2a565b6101006040518083038186803b15801561100057600080fd5b505afa158015611014573d6000803e3d6000fd5b505050506040513d601f19601f8201168201806040525081019061103891906137ca565b5050600f546040517f82dc04db000000000000000000000000000000000000000000000000000000008152939750600096506001600160a01b031694506382dc04db9350611090928792508a91508990600401613c81565b60606040518083038186803b1580156110a857600080fd5b505afa1580156110bc573d6000803e3d6000fd5b505050506040513d601f19601f820116820180604052508101906110e09190613bc4565b5090979650505050505050565b6000806110fb6003846127c0565b509392505050565b8461110e33826122d3565b61112a5760405162461bcd60e51b815260040161074d90613e4a565b60026000541415611182576040805162461bcd60e51b815260206004820152601f60248201527f5265656e7472616e637947756172643a207265656e7472616e742063616c6c00604482015290519081900360640190fd5b6002600055836111a45760405162461bcd60e51b815260040161074d90613d37565b600082116111c45760405162461bcd60e51b815260040161074d90613d37565b6111cf8686866127dc565b6111da8684846127dc565b846001600160a01b0316867fa3d2cbcb90e0658235d4ba62aed9a50c231df9bc5bbfb74c95badbc798f38d1a85604051610a0a9190613c44565b805160009061122333826122d3565b61123f5760405162461bcd60e51b815260040161074d90613e4a565b60026000541415611297576040805162461bcd60e51b815260206004820152601f60248201527f5265656e7472616e637947756172643a207265656e7472616e742063616c6c00604482015290519081900360640190fd5b6002600055600e546001600160a01b03166112c45760405162461bcd60e51b815260040161074d90613d6e565b600e546020840151604051635cef66b360e11b815260009283926001600160a01b039091169163b9decd66916112fc91600401613f2a565b6101006040518083038186803b15801561131557600080fd5b505afa158015611329573d6000803e3d6000fd5b505050506040513d601f19601f8201168201806040525081019061134d91906137ca565b5050505093509350505060008290506113fb600e60009054906101000a90046001600160a01b03168760400151836001600160a01b0316630dfe16816040518163ffffffff1660e01b815260040160206040518083038186803b1580156113b357600080fd5b505afa1580156113c7573d6000803e3d6000fd5b505050506040513d601f19601f820116820180604052508101906113eb9190613776565b6001600160a01b03169190612823565b611452600e60009054906101000a90046001600160a01b03168760600151836001600160a01b031663d21220a76040518163ffffffff1660e01b815260040160206040518083038186803b1580156113b357600080fd5b600e54865160208801516040808a015160608b015160808c015160a08d015193517fec28fcac000000000000000000000000000000000000000000000000000000008152600097889788976001600160a01b039092169663ec28fcac966114c3969295939490939190600401613f64565b606060405180830381600087803b1580156114dd57600080fd5b505af11580156114f1573d6000803e3d6000fd5b505050506040513d601f19601f820116820180604052508101906115159190613bc4565b92509250925061159a8960000151856001600160a01b0316630dfe16816040518163ffffffff1660e01b815260040160206040518083038186803b15801561155c57600080fd5b505afa158015611570573d6000803e3d6000fd5b505050506040513d601f19601f820116820180604052508101906115949190613776565b8461297d565b6116198960000151856001600160a01b031663d21220a76040518163ffffffff1660e01b815260040160206040518083038186803b1580156115db57600080fd5b505afa1580156115ef573d6000803e3d6000fd5b505050506040513d601f19601f820116820180604052508101906116139190613776565b8361297d565b61166d600e60009054906101000a90046001600160a01b03166000866001600160a01b0316630dfe16816040518163ffffffff1660e01b815260040160206040518083038186803b1580156113b357600080fd5b6116c1600e60009054906101000a90046001600160a01b03166000866001600160a01b031663d21220a76040518163ffffffff1660e01b815260040160206040518083038186803b1580156113b357600080fd5b600089600001518a60200151336040516020016116e093929190613c1c565b60408051601f1981840301815291815281516020928301206000818152601390935291205490915061171290856129f8565b6000828152601360205260409020558951869061173590601490889084906125d1565b60208b01518b51604051879291907f17de92c1076ec5855c3edd4a6084a82c184adfda177deb99d6532697cdac91cb90600090a4505060016000555090979650505050505050565b600e5460009081906001600160a01b03166117aa5760405162461bcd60e51b815260040161074d90613d6e565b600e54604051635cef66b360e11b81526000916001600160a01b03169063b9decd66906117db908790600401613f2a565b6101006040518083038186803b1580156117f457600080fd5b505afa158015611808573d6000803e3d6000fd5b505050506040513d601f19601f8201168201806040525081019061182c91906137ca565b505050509350505050806001600160a01b031663c4a7761e6040518163ffffffff1660e01b8152600401604080518083038186803b15801561186d57600080fd5b505afa158015611881573d6000803e3d6000fd5b505050506040513d601f19601f820116820180604052508101906118a59190613b3e565b909590945092505050565b6000610b61826040518060600160405280602981526020016140f56029913960039190612a52565b600f546001600160a01b031681565b600b546001600160a01b031633146119115760405162461bcd60e51b815260040161074d90613e13565b600f805473ffffffffffffffffffffffffffffffffffffffff19166001600160a01b0392909216919091179055565b600c546000906001600160a01b0316331461196d5760405162461bcd60e51b815260040161074d90613ddc565b6001600160a01b03821660009081526011602052604090205460ff16156119a65760405162461bcd60e51b815260040161074d90613d00565b5060108054600181019091556119bc8282612a5f565b6001600160a01b038216600081815260116020526040808220805460ff19166001179055518392917f74629109564de5ce9d04dc84bb5ecd8fbb0c98843a3fbd43f057825a9255449c91a3919050565b600a8054604080516020601f60026000196101006001881615020190951694909404938401819004810282018101909252828152606093909290918301828280156105cf5780601f106105a4576101008083540402835291602001916105cf565b60006001600160a01b038216611ab45760405162461bcd60e51b815260040180806020018281038252602a8152602001806140cb602a913960400191505060405180910390fd5b6001600160a01b0382166000908152600260205260409020610b61906122c8565b600090815260146020908152604091829020825160a08101845281546fffffffffffffffffffffffffffffffff908116808352600184015494830185905260028401549583018690526003909301548082166060840181905270010000000000000000000000000000000090910490911660809092018290529194929392565b600b546001600160a01b031681565b60088054604080516020601f60026000196101006001881615020190951694909404938401819004810282018101909252828152606093909290918301828280156105cf5780601f106105a4576101008083540402835291602001916105cf565b611bcd612249565b6001600160a01b0316826001600160a01b03161415611c33576040805162461bcd60e51b815260206004820152601960248201527f4552433732313a20617070726f766520746f2063616c6c657200000000000000604482015290519081900360640190fd5b8060066000611c40612249565b6001600160a01b03908116825260208083019390935260409182016000908120918716808252919093529120805460ff191692151592909217909155611c84612249565b6001600160a01b03167f17307eab39ab6107e8899845ad3d59bd9653f200f220920489ca2b5937696c318360405180821515815260200191505060405180910390a35050565b600b546001600160a01b03163314611cf45760405162461bcd60e51b815260040161074d90613e13565b600e805473ffffffffffffffffffffffffffffffffffffffff19166001600160a01b0392909216919091179055565b600c546001600160a01b03163314611d4d5760405162461bcd60e51b815260040161074d90613ddc565b600d805473ffffffffffffffffffffffffffffffffffffffff19166001600160a01b0392909216919091179055565b611d8d611d87612249565b836122d3565b611dc85760405162461bcd60e51b81526004018080602001828103825260318152602001806141e56031913960400191505060405180910390fd5b611dd484848484612b8d565b50505050565b6060611de58261223c565b611e205760405162461bcd60e51b815260040180806020018281038252602f815260200180614195602f913960400191505060405180910390fd5b60008281526009602090815260408083208054825160026001831615610100026000190190921691909104601f810185900485028201850190935282815292909190830182828015611eb35780601f10611e8857610100808354040283529160200191611eb3565b820191906000526020600020905b815481529060010190602001808311611e9657829003601f168201915b505050505090506000611ec4611a0c565b9050805160001415611ed85750905061053e565b815115611f995780826040516020018083805190602001908083835b60208310611f135780518252601f199092019160209182019101611ef4565b51815160209384036101000a600019018019909216911617905285519190930192850191508083835b60208310611f5b5780518252601f199092019160209182019101611f3c565b6001836020036101000a038019825116818451168082178552505050505050905001925050506040516020818303038152906040529250505061053e565b80611fa385612bdf565b6040516020018083805190602001908083835b60208310611fd55780518252601f199092019160209182019101611fb6565b51815160209384036101000a600019018019909216911617905285519190930192850191508083835b6020831061201d5780518252601f199092019160209182019101611ffe565b6001836020036101000a0380198251168184511680821785525050505050509050019250505060405160208183030381529060405292505050919050565b600e5460009081906001600160a01b03166120885760405162461bcd60e51b815260040161074d90613d6e565b600e54604051635cef66b360e11b81526000916001600160a01b03169063b9decd66906120b9908790600401613f2a565b6101006040518083038186803b1580156120d257600080fd5b505afa1580156120e6573d6000803e3d6000fd5b505050506040513d601f19601f8201168201806040525081019061210a91906137ca565b505050509350505050806001600160a01b031663eae989a26040518163ffffffff1660e01b815260040160206040518083038186803b15801561214c57600080fd5b505afa158015612160573d6000803e3d6000fd5b505050506040513d601f19601f820116820180604052508101906121849190613ad5565b9250806001600160a01b031663a00fa77f6040518163ffffffff1660e01b815260040160206040518083038186803b1580156121bf57600080fd5b505afa1580156121d3573d6000803e3d6000fd5b505050506040513d601f19601f820116820180604052508101906121f79190613ad5565b915050915091565b6001600160a01b03918216600090815260066020908152604080832093909416825291909152205460ff1690565b600d546001600160a01b031681565b6000610b61600383612cee565b3390565b6000818152600560205260409020805473ffffffffffffffffffffffffffffffffffffffff19166001600160a01b038416908117909155819061228f826118b0565b6001600160a01b03167f8c5be1e5ebec7d5bd14f71427d1e84f3dd0314c0f7b2291e5b200ac8c7c3b92560405160405180910390a45050565b6000610b6182612cfa565b60006122de8261223c565b6123195760405162461bcd60e51b815260040180806020018281038252602c815260200180614067602c913960400191505060405180910390fd5b6000612324836118b0565b9050806001600160a01b0316846001600160a01b0316148061235f5750836001600160a01b0316612354846105d9565b6001600160a01b0316145b8061236f575061236f81856121ff565b949350505050565b8261238233826122d3565b61239e5760405162461bcd60e51b815260040161074d90613e4a565b6123a984848461297d565b611dd46001600160a01b038416303385612cfe565b826001600160a01b03166123d1826118b0565b6001600160a01b0316146124165760405162461bcd60e51b815260040180806020018281038252602981526020018061416c6029913960400191505060405180910390fd5b6001600160a01b03821661245b5760405162461bcd60e51b815260040180806020018281038252602481526020018061401d6024913960400191505060405180910390fd5b61246683838361070c565b61247160008261224d565b6001600160a01b03831660009081526002602052604090206124939082612d86565b506001600160a01b03821660009081526002602052604090206124b69082612d92565b506124c360038284612d9e565b5080826001600160a01b0316846001600160a01b03167fddf252ad1be2c89b69c2b068fc378daa952ba7f163c4a11628f55a4df523b3ef60405160405180910390a4505050565b6000610b5e8383612db4565b60008282111561256d576040805162461bcd60e51b815260206004820152601e60248201527f536166654d6174683a207375627472616374696f6e206f766572666c6f770000604482015290519081900360640190fd5b50900390565b600083338460405160200161258a93929190613bf1565b60408051601f198184030181529181528151602092830120600081815260129093529120549091506125bc90836129f8565b60009182526012602052604090912055505050565b60005b826001600160a01b031663b135a1456040518163ffffffff1660e01b815260040160206040518083038186803b15801561260d57600080fd5b505afa158015612621573d6000803e3d6000fd5b505050506040513d602081101561263757600080fd5b50518110156127b957600080846001600160a01b031663cc364f48846040518263ffffffff1660e01b815260040180828152602001915050604080518083038186803b15801561268657600080fd5b505afa15801561269a573d6000803e3d6000fd5b505050506040513d60408110156126b057600080fd5b508051602090910151909250905060006126cc87878585612e18565b6fffffffffffffffffffffffffffffffff1611156127af5760006126f38886888686612e9d565b905060008060008060008b6001600160a01b031663514ea4bf6127178d8b8b612ec7565b6040518263ffffffff1660e01b81526004018082815260200191505060a06040518083038186803b15801561274b57600080fd5b505afa15801561275f573d6000803e3d6000fd5b505050506040513d60a081101561277557600080fd5b508051602082015160408301516060840151608090940151929850909650945090925090506127a8868686868686612f1d565b5050505050505b50506001016125d4565b5050505050565b60008080806127cf8686612f9a565b9097909650945050505050565b826127e733826122d3565b6128035760405162461bcd60e51b815260040161074d90613e4a565b6128186001600160a01b038416333085612cfe565b611dd4848484612573565b8015806128c25750604080517fdd62ed3e0000000000000000000000000000000000000000000000000000000081523060048201526001600160a01b03848116602483015291519185169163dd62ed3e91604480820192602092909190829003018186803b15801561289457600080fd5b505afa1580156128a8573d6000803e3d6000fd5b505050506040513d60208110156128be57600080fd5b5051155b6128fd5760405162461bcd60e51b81526004018080602001828103825260368152602001806142406036913960400191505060405180910390fd5b604080516001600160a01b038416602482015260448082018490528251808303909101815260649091019091526020810180517bffffffffffffffffffffffffffffffffffffffffffffffffffffffff167f095ea7b30000000000000000000000000000000000000000000000000000000017905261070c908490613015565b600083338460405160200161299493929190613bf1565b60405160208183030381529060405280519060200120905081601260008381526020019081526020016000205410156129df5760405162461bcd60e51b815260040161074d90613da5565b6000818152601260205260409020546125bc9083612516565b600082820183811015610b5e576040805162461bcd60e51b815260206004820152601b60248201527f536166654d6174683a206164646974696f6e206f766572666c6f770000000000604482015290519081900360640190fd5b600061236f8484846130c6565b6001600160a01b038216612aba576040805162461bcd60e51b815260206004820181905260248201527f4552433732313a206d696e7420746f20746865207a65726f2061646472657373604482015290519081900360640190fd5b612ac38161223c565b15612b15576040805162461bcd60e51b815260206004820152601c60248201527f4552433732313a20746f6b656e20616c7265616479206d696e74656400000000604482015290519081900360640190fd5b612b216000838361070c565b6001600160a01b0382166000908152600260205260409020612b439082612d92565b50612b5060038284612d9e565b5060405181906001600160a01b038416906000907fddf252ad1be2c89b69c2b068fc378daa952ba7f163c4a11628f55a4df523b3ef908290a45050565b612b988484846123be565b612ba484848484613190565b611dd45760405162461bcd60e51b8152600401808060200182810382526032815260200180613feb6032913960400191505060405180910390fd5b606081612c20575060408051808201909152600181527f3000000000000000000000000000000000000000000000000000000000000000602082015261053e565b8160005b8115612c3857600101600a82049150612c24565b60008167ffffffffffffffff81118015612c5157600080fd5b506040519080825280601f01601f191660200182016040528015612c7c576020820181803683370190505b50859350905060001982015b8315612ce557600a840660300160f81b82828060019003935081518110612cab57fe5b60200101907effffffffffffffffffffffffffffffffffffffffffffffffffffffffffffff1916908160001a905350600a84049350612c88565b50949350505050565b6000610b5e838361336c565b5490565b604080516001600160a01b0380861660248301528416604482015260648082018490528251808303909101815260849091019091526020810180517bffffffffffffffffffffffffffffffffffffffffffffffffffffffff167f23b872dd00000000000000000000000000000000000000000000000000000000179052611dd4908590613015565b6000610b5e8383613384565b6000610b5e838361344a565b600061236f84846001600160a01b038516613494565b81546000908210612df65760405162461bcd60e51b8152600401808060200182810382526022815260200180613fc96022913960400191505060405180910390fd5b826000018281548110612e0557fe5b9060005260206000200154905092915050565b6000846001600160a01b031663514ea4bf612e34868686612ec7565b6040518263ffffffff1660e01b81526004018082815260200191505060a06040518083038186803b158015612e6857600080fd5b505afa158015612e7c573d6000803e3d6000fd5b505050506040513d60a0811015612e9257600080fd5b505195945050505050565b6000856000612eae8787878761352b565b8152602001908152602001600020905095945050505050565b6040805160609490941b6bffffffffffffffffffffffff1916602080860191909152600293840b60e890811b60348701529290930b90911b60378401528051808403601a018152603a9093019052815191012090565b85546fffffffffffffffffffffffffffffffff9586167fffffffffffffffffffffffffffffffff000000000000000000000000000000009182161787556001870194909455600286019290925560039094018054918416700100000000000000000000000000000000029484169190921617909116919091179055565b815460009081908310612fde5760405162461bcd60e51b815260040180806020018281038252602281526020018061411e6022913960400191505060405180910390fd5b6000846000018481548110612fef57fe5b906000526020600020906002020190508060000154816001015492509250509250929050565b600061306a826040518060400160405280602081526020017f5361666545524332303a206c6f772d6c6576656c2063616c6c206661696c6564815250856001600160a01b03166135849092919063ffffffff16565b80519091501561070c5780806020019051602081101561308957600080fd5b505161070c5760405162461bcd60e51b815260040180806020018281038252602a815260200180614216602a913960400191505060405180910390fd5b600082815260018401602052604081205482816131615760405162461bcd60e51b81526004018080602001828103825283818151815260200191508051906020019080838360005b8381101561312657818101518382015260200161310e565b50505050905090810190601f1680156131535780820380516001836020036101000a031916815260200191505b509250505060405180910390fd5b5084600001600182038154811061317457fe5b9060005260206000209060020201600101549150509392505050565b60006131a4846001600160a01b0316613593565b6131b05750600161236f565b60006133017f150b7a02000000000000000000000000000000000000000000000000000000006131de612249565b88878760405160240180856001600160a01b03168152602001846001600160a01b0316815260200183815260200180602001828103825283818151815260200191508051906020019080838360005b8381101561324557818101518382015260200161322d565b50505050905090810190601f1680156132725780820380516001836020036101000a031916815260200191505b5095505050505050604051602081830303815290604052907bffffffffffffffffffffffffffffffffffffffffffffffffffffffff19166020820180517bffffffffffffffffffffffffffffffffffffffffffffffffffffffff8381831617835250505050604051806060016040528060328152602001613feb603291396001600160a01b0388169190613584565b9050600081806020019051602081101561331a57600080fd5b50517fffffffff00000000000000000000000000000000000000000000000000000000167f150b7a02000000000000000000000000000000000000000000000000000000001492505050949350505050565b60009081526001919091016020526040902054151590565b6000818152600183016020526040812054801561344057835460001980830191908101906000908790839081106133b757fe5b90600052602060002001549050808760000184815481106133d457fe5b60009182526020808320909101929092558281526001898101909252604090209084019055865487908061340457fe5b60019003818190600052602060002001600090559055866001016000878152602001908152602001600020600090556001945050505050610b61565b6000915050610b61565b6000613456838361336c565b61348c57508154600181810184556000848152602080822090930184905584548482528286019093526040902091909155610b61565b506000610b61565b6000828152600184016020526040812054806134f9575050604080518082018252838152602080820184815286546001818101895560008981528481209551600290930290950191825591519082015586548684528188019092529290912055610b35565b8285600001600183038154811061350c57fe5b9060005260206000209060020201600101819055506000915050610b35565b6040805160208082019690965260609490941b6bffffffffffffffffffffffff191684820152600292830b60e890811b60548601529190920b901b60578301528051808303603a018152605a9092019052805191012090565b606061236f8484600085613599565b3b151590565b6060824710156135da5760405162461bcd60e51b81526004018080602001828103825260268152602001806140416026913960400191505060405180910390fd5b6135e385613593565b613634576040805162461bcd60e51b815260206004820152601d60248201527f416464726573733a2063616c6c20746f206e6f6e2d636f6e7472616374000000604482015290519081900360640190fd5b600080866001600160a01b031685876040518082805190602001908083835b602083106136725780518252601f199092019160209182019101613653565b6001836020036101000a03801982511681845116808217855250505050505090500191505060006040518083038185875af1925050503d80600081146136d4576040519150601f19603f3d011682016040523d82523d6000602084013e6136d9565b606091505b50915091506136e98282866136f4565b979650505050505050565b60608315613703575081610b35565b8251156137135782518084602001fd5b60405162461bcd60e51b815260206004820181815284516024840152845185939192839260440191908501908083836000831561312657818101518382015260200161310e565b60006020828403121561376b578081fd5b8135610b5e81613fb0565b600060208284031215613787578081fd5b8151610b5e81613fb0565b600080604083850312156137a4578081fd5b82356137af81613fb0565b915060208301356137bf81613fb0565b809150509250929050565b600080600080600080600080610100898b0312156137e6578384fd5b88516137f181613fb0565b60208a015190985061380281613fb0565b60408a015190975061381381613fb0565b60608a015190965061382481613fb0565b60808a015160a08b015160c08c015160e0909c01519a9d999c50979a91999098919650945092505050565b600080600060608486031215613863578283fd5b833561386e81613fb0565b9250602084013561387e81613fb0565b929592945050506040919091013590565b600080600080608085870312156138a4578384fd5b84356138af81613fb0565b93506020858101356138c081613fb0565b935060408601359250606086013567ffffffffffffffff808211156138e3578384fd5b818801915088601f8301126138f6578384fd5b81358181111561390257fe5b61391484601f19601f84011601613f8c565b91508082528984828501011115613929578485fd5b8084840185840137810190920192909252939692955090935050565b60008060408385031215613957578182fd5b823561396281613fb0565b9150602083013580151581146137bf578182fd5b60008060408385031215613988578182fd5b823561399381613fb0565b946020939093013593505050565b6000602082840312156139b2578081fd5b5035919050565b6000602082840312156139ca578081fd5b81357fffffffff0000000000000000000000000000000000000000000000000000000081168114610b5e578182fd5b600060c08284031215613a0a578081fd5b60405160c0810181811067ffffffffffffffff82111715613a2757fe5b8060405250823581526020830135602082015260408301356040820152606083013560608201526080830135608082015260a083013560a08201528091505092915050565b600060a08284031215613a7d578081fd5b60405160a0810181811067ffffffffffffffff82111715613a9a57fe5b806040525082358152602083013560208201526040830135604082015260608301356060820152608083013560808201528091505092915050565b600060208284031215613ae6578081fd5b5051919050565b600080600080600060a08688031215613b04578283fd5b853594506020860135613b1681613fb0565b9350604086013592506060860135613b2d81613fb0565b949793965091946080013592915050565b60008060408385031215613b50578182fd5b505080516020909101519092909150565b600080600060608486031215613b75578081fd5b83359250602084013591506040840135613b8e81613fb0565b809150509250925092565b600080600060608486031215613bad578081fd5b505081359360208301359350604090920135919050565b600080600060608486031215613bd8578081fd5b8351925060208401519150604084015190509250925092565b9283526bffffffffffffffffffffffff19606092831b81166020850152911b16603482015260480190565b928352602083019190915260601b6bffffffffffffffffffffffff1916604082015260540190565b6001600160a01b0391909116815260200190565b6001600160a01b0394851681529290931660208301526040820152606081019190915260800190565b6001600160a01b039390931683526020830191909152604082015260600190565b901515815260200190565b6000602080835283518082850152825b81811015613cd957858101830151858201604001528201613cbd565b81811115613cea5783604083870101525b50601f01601f1916929092016040019392505050565b60208082526002908201527f4f4f000000000000000000000000000000000000000000000000000000000000604082015260600190565b60208082526002908201527f4e5a000000000000000000000000000000000000000000000000000000000000604082015260600190565b60208082526003908201527f4348490000000000000000000000000000000000000000000000000000000000604082015260600190565b60208082526014908201527f696e73756666696369656e742062616c616e6365000000000000000000000000604082015260600190565b60208082526008908201527f6f6e6c7920676f76000000000000000000000000000000000000000000000000604082015260600190565b6020808252600a908201527f6f6e6c79206f776e657200000000000000000000000000000000000000000000604082015260600190565b6020808252600c908201527f6e6f7420617070726f7665640000000000000000000000000000000000000000604082015260600190565b60208082526013908201527f696e73756666696369656e742073686172657300000000000000000000000000604082015260600190565b60208082526008908201527f6e65787420676f76000000000000000000000000000000000000000000000000604082015260600190565b6fffffffffffffffffffffffffffffffff95861681526020810194909452604084019290925283166060830152909116608082015260a00190565b90815260200190565b918252602082015260400190565b948552602085019390935260408401919091526060830152608082015260a00190565b958652602086019490945260408501929092526060840152608083015260a082015260c00190565b60405181810167ffffffffffffffff81118282101715613fa857fe5b604052919050565b6001600160a01b0381168114613fc557600080fd5b5056fe456e756d657261626c655365743a20696e646578206f7574206f6620626f756e64734552433732313a207472616e7366657220746f206e6f6e20455243373231526563656976657220696d706c656d656e7465724552433732313a207472616e7366657220746f20746865207a65726f2061646472657373416464726573733a20696e73756666696369656e742062616c616e636520666f722063616c6c4552433732313a206f70657261746f7220717565727920666f72206e6f6e6578697374656e7420746f6b656e4552433732313a20617070726f76652063616c6c6572206973206e6f74206f776e6572206e6f7220617070726f76656420666f7220616c6c4552433732313a2062616c616e636520717565727920666f7220746865207a65726f20616464726573734552433732313a206f776e657220717565727920666f72206e6f6e6578697374656e7420746f6b656e456e756d657261626c654d61703a20696e646578206f7574206f6620626f756e64734552433732313a20617070726f76656420717565727920666f72206e6f6e6578697374656e7420746f6b656e4552433732313a207472616e73666572206f6620746f6b656e2074686174206973206e6f74206f776e4552433732314d657461646174613a2055524920717565727920666f72206e6f6e6578697374656e7420746f6b656e4552433732313a20617070726f76616c20746f2063757272656e74206f776e65724552433732313a207472616e736665722063616c6c6572206973206e6f74206f776e6572206e6f7220617070726f7665645361666545524332303a204552433230206f7065726174696f6e20646964206e6f7420737563636565645361666545524332303a20617070726f76652066726f6d206e6f6e2d7a65726f20746f206e6f6e2d7a65726f20616c6c6f77616e6365a164736f6c6343000706000a",
  "linkReferences": {},
  "deployedLinkReferences": {}
}