{
  "_format": "hh-sol-artifact-1",
  "contractName": "YangNFTVault",
  "sourceName": "contracts/YangNFTVault.sol",
  "abi": [
    {
      "inputs": [
        {
          "internalType": "address",
          "name": "_gov",
          "type": "address"
        }
      ],
      "stateMutability": "nonpayable",
      "type": "constructor"
    },
    {
      "anonymous": false,
      "inputs": [
        {
          "indexed": true,
          "internalType": "address",
          "name": "owner",
          "type": "address"
        },
        {
          "indexed": true,
          "internalType": "address",
          "name": "approved",
          "type": "address"
        },
        {
          "indexed": true,
          "internalType": "uint256",
          "name": "tokenId",
          "type": "uint256"
        }
      ],
      "name": "Approval",
      "type": "event"
    },
    {
      "anonymous": false,
      "inputs": [
        {
          "indexed": true,
          "internalType": "address",
          "name": "owner",
          "type": "address"
        },
        {
          "indexed": true,
          "internalType": "address",
          "name": "operator",
          "type": "address"
        },
        {
          "indexed": false,
          "internalType": "bool",
          "name": "approved",
          "type": "bool"
        }
      ],
      "name": "ApprovalForAll",
      "type": "event"
    },
    {
      "anonymous": false,
      "inputs": [
        {
          "indexed": true,
          "internalType": "uint256",
          "name": "tokenId",
          "type": "uint256"
        },
        {
          "indexed": true,
          "internalType": "address",
          "name": "token0",
          "type": "address"
        },
        {
          "indexed": false,
          "internalType": "address",
          "name": "token1",
          "type": "address"
        }
      ],
      "name": "Deposit",
      "type": "event"
    },
    {
      "anonymous": false,
      "inputs": [
        {
          "indexed": true,
          "internalType": "address",
          "name": "recipient",
          "type": "address"
        },
        {
          "indexed": true,
          "internalType": "uint256",
          "name": "tokenId",
          "type": "uint256"
        }
      ],
      "name": "MintYangNFT",
      "type": "event"
    },
    {
      "anonymous": false,
      "inputs": [
        {
          "indexed": true,
          "internalType": "uint256",
          "name": "yangId",
          "type": "uint256"
        },
        {
          "indexed": true,
          "internalType": "uint256",
          "name": "chiId",
          "type": "uint256"
        },
        {
          "indexed": true,
          "internalType": "uint256",
          "name": "share",
          "type": "uint256"
        }
      ],
      "name": "Subscribe",
      "type": "event"
    },
    {
      "anonymous": false,
      "inputs": [
        {
          "indexed": true,
          "internalType": "address",
          "name": "from",
          "type": "address"
        },
        {
          "indexed": true,
          "internalType": "address",
          "name": "to",
          "type": "address"
        },
        {
          "indexed": true,
          "internalType": "uint256",
          "name": "tokenId",
          "type": "uint256"
        }
      ],
      "name": "Transfer",
      "type": "event"
    },
    {
      "anonymous": false,
      "inputs": [
        {
          "indexed": true,
          "internalType": "uint256",
          "name": "yangId",
          "type": "uint256"
        },
        {
          "indexed": true,
          "internalType": "uint256",
          "name": "chiId",
          "type": "uint256"
        },
        {
          "indexed": false,
          "internalType": "uint256",
          "name": "amount0",
          "type": "uint256"
        },
        {
          "indexed": false,
          "internalType": "uint256",
          "name": "amount1",
          "type": "uint256"
        }
      ],
      "name": "UnSubscribe",
      "type": "event"
    },
    {
      "anonymous": false,
      "inputs": [
        {
          "indexed": true,
          "internalType": "uint256",
          "name": "tokenId",
          "type": "uint256"
        },
        {
          "indexed": true,
          "internalType": "address",
          "name": "token0",
          "type": "address"
        },
        {
          "indexed": false,
          "internalType": "address",
          "name": "token1",
          "type": "address"
        }
      ],
      "name": "Withdraw",
      "type": "event"
    },
    {
      "inputs": [],
      "name": "acceptGovernance",
      "outputs": [],
      "stateMutability": "nonpayable",
      "type": "function"
    },
    {
      "inputs": [
        {
          "internalType": "address",
          "name": "to",
          "type": "address"
        },
        {
          "internalType": "uint256",
          "name": "tokenId",
          "type": "uint256"
        }
      ],
      "name": "approve",
      "outputs": [],
      "stateMutability": "nonpayable",
      "type": "function"
    },
    {
      "inputs": [
        {
          "internalType": "address",
          "name": "owner",
          "type": "address"
        }
      ],
      "name": "balanceOf",
      "outputs": [
        {
          "internalType": "uint256",
          "name": "",
          "type": "uint256"
        }
      ],
      "stateMutability": "view",
      "type": "function"
    },
    {
      "inputs": [],
      "name": "baseURI",
      "outputs": [
        {
          "internalType": "string",
          "name": "",
          "type": "string"
        }
      ],
      "stateMutability": "view",
      "type": "function"
    },
    {
      "inputs": [
        {
          "internalType": "uint256",
          "name": "tokenId",
          "type": "uint256"
        },
        {
          "internalType": "address",
          "name": "token0",
          "type": "address"
        },
        {
          "internalType": "uint256",
          "name": "amount0",
          "type": "uint256"
        },
        {
          "internalType": "address",
          "name": "token1",
          "type": "address"
        },
        {
          "internalType": "uint256",
          "name": "amount1",
          "type": "uint256"
        }
      ],
      "name": "deposit",
      "outputs": [],
      "stateMutability": "nonpayable",
      "type": "function"
    },
    {
      "inputs": [
        {
          "internalType": "uint256",
          "name": "yangId",
          "type": "uint256"
        },
        {
          "internalType": "uint256",
          "name": "chiId",
          "type": "uint256"
        },
        {
          "internalType": "address",
          "name": "user",
          "type": "address"
        }
      ],
      "name": "getAmounts",
      "outputs": [
        {
          "internalType": "uint256",
          "name": "amount0",
          "type": "uint256"
        },
        {
          "internalType": "uint256",
          "name": "amount1",
          "type": "uint256"
        }
      ],
      "stateMutability": "view",
      "type": "function"
    },
    {
      "inputs": [
        {
          "internalType": "uint256",
          "name": "tokenId",
          "type": "uint256"
        }
      ],
      "name": "getApproved",
      "outputs": [
        {
          "internalType": "address",
          "name": "",
          "type": "address"
        }
      ],
      "stateMutability": "view",
      "type": "function"
    },
    {
      "inputs": [
        {
          "internalType": "uint256",
          "name": "chiId",
          "type": "uint256"
        }
      ],
      "name": "getCHIAccruedFees",
      "outputs": [
        {
          "internalType": "uint256",
          "name": "fee0",
          "type": "uint256"
        },
        {
          "internalType": "uint256",
          "name": "fee1",
          "type": "uint256"
        }
      ],
      "stateMutability": "view",
      "type": "function"
    },
    {
      "inputs": [
        {
          "internalType": "uint256",
          "name": "chiId",
          "type": "uint256"
        }
      ],
      "name": "getCHITotalAmounts",
      "outputs": [
        {
          "internalType": "uint256",
          "name": "amount0",
          "type": "uint256"
        },
        {
          "internalType": "uint256",
          "name": "amount1",
          "type": "uint256"
        }
      ],
      "stateMutability": "view",
      "type": "function"
    },
    {
      "inputs": [
        {
          "internalType": "uint256",
          "name": "chiId",
          "type": "uint256"
        },
        {
          "internalType": "uint256",
          "name": "amount0Desired",
          "type": "uint256"
        },
        {
          "internalType": "uint256",
          "name": "amount1Desired",
          "type": "uint256"
        }
      ],
      "name": "getShares",
      "outputs": [
        {
          "internalType": "uint256",
          "name": "",
          "type": "uint256"
        }
      ],
      "stateMutability": "view",
      "type": "function"
    },
    {
      "inputs": [
        {
          "internalType": "address",
          "name": "recipient",
          "type": "address"
        }
      ],
      "name": "getTokenId",
      "outputs": [
        {
          "internalType": "uint256",
          "name": "",
          "type": "uint256"
        }
      ],
      "stateMutability": "view",
      "type": "function"
    },
    {
      "inputs": [],
      "name": "gov",
      "outputs": [
        {
          "internalType": "address",
          "name": "",
          "type": "address"
        }
      ],
      "stateMutability": "view",
      "type": "function"
    },
    {
      "inputs": [
        {
          "internalType": "address",
          "name": "owner",
          "type": "address"
        },
        {
          "internalType": "address",
          "name": "operator",
          "type": "address"
        }
      ],
      "name": "isApprovedForAll",
      "outputs": [
        {
          "internalType": "bool",
          "name": "",
          "type": "bool"
        }
      ],
      "stateMutability": "view",
      "type": "function"
    },
    {
      "inputs": [
        {
          "internalType": "address",
          "name": "recipient",
          "type": "address"
        }
      ],
      "name": "mint",
      "outputs": [
        {
          "internalType": "uint256",
          "name": "tokenId",
          "type": "uint256"
        }
      ],
      "stateMutability": "nonpayable",
      "type": "function"
    },
    {
      "inputs": [],
      "name": "name",
      "outputs": [
        {
          "internalType": "string",
          "name": "",
          "type": "string"
        }
      ],
      "stateMutability": "view",
      "type": "function"
    },
    {
      "inputs": [],
      "name": "nextgov",
      "outputs": [
        {
          "internalType": "address",
          "name": "",
          "type": "address"
        }
      ],
      "stateMutability": "view",
      "type": "function"
    },
    {
      "inputs": [],
      "name": "owner",
      "outputs": [
        {
          "internalType": "address",
          "name": "",
          "type": "address"
        }
      ],
      "stateMutability": "view",
      "type": "function"
    },
    {
      "inputs": [
        {
          "internalType": "uint256",
          "name": "tokenId",
          "type": "uint256"
        }
      ],
      "name": "ownerOf",
      "outputs": [
        {
          "internalType": "address",
          "name": "",
          "type": "address"
        }
      ],
      "stateMutability": "view",
      "type": "function"
    },
    {
      "inputs": [
        {
          "internalType": "bytes32",
          "name": "key",
          "type": "bytes32"
        }
      ],
      "name": "poolPositions",
      "outputs": [
        {
          "internalType": "uint128",
          "name": "liquidity",
          "type": "uint128"
        },
        {
          "internalType": "uint256",
          "name": "feeGrowthInside0LastX128",
          "type": "uint256"
        },
        {
          "internalType": "uint256",
          "name": "feeGrowthInside1LastX128",
          "type": "uint256"
        },
        {
          "internalType": "uint128",
          "name": "tokensOwed0",
          "type": "uint128"
        },
        {
          "internalType": "uint128",
          "name": "tokensOwed1",
          "type": "uint128"
        }
      ],
      "stateMutability": "view",
      "type": "function"
    },
    {
      "inputs": [
        {
          "internalType": "address",
          "name": "from",
          "type": "address"
        },
        {
          "internalType": "address",
          "name": "to",
          "type": "address"
        },
        {
          "internalType": "uint256",
          "name": "tokenId",
          "type": "uint256"
        }
      ],
      "name": "safeTransferFrom",
      "outputs": [],
      "stateMutability": "nonpayable",
      "type": "function"
    },
    {
      "inputs": [
        {
          "internalType": "address",
          "name": "from",
          "type": "address"
        },
        {
          "internalType": "address",
          "name": "to",
          "type": "address"
        },
        {
          "internalType": "uint256",
          "name": "tokenId",
          "type": "uint256"
        },
        {
          "internalType": "bytes",
          "name": "_data",
          "type": "bytes"
        }
      ],
      "name": "safeTransferFrom",
      "outputs": [],
      "stateMutability": "nonpayable",
      "type": "function"
    },
    {
      "inputs": [
        {
          "internalType": "address",
          "name": "operator",
          "type": "address"
        },
        {
          "internalType": "bool",
          "name": "approved",
          "type": "bool"
        }
      ],
      "name": "setApprovalForAll",
      "outputs": [],
      "stateMutability": "nonpayable",
      "type": "function"
    },
    {
      "inputs": [
        {
          "internalType": "address",
          "name": "_chiManager",
          "type": "address"
        }
      ],
      "name": "setCHIManager",
      "outputs": [],
      "stateMutability": "nonpayable",
      "type": "function"
    },
    {
      "inputs": [
        {
          "internalType": "address",
          "name": "_governance",
          "type": "address"
        }
      ],
      "name": "setGovernance",
      "outputs": [],
      "stateMutability": "nonpayable",
      "type": "function"
    },
    {
      "inputs": [
        {
          "internalType": "address",
          "name": "_yangView",
          "type": "address"
        }
      ],
      "name": "setYangView",
      "outputs": [],
      "stateMutability": "nonpayable",
      "type": "function"
    },
    {
      "inputs": [
        {
          "components": [
            {
              "internalType": "uint256",
              "name": "yangId",
              "type": "uint256"
            },
            {
              "internalType": "uint256",
              "name": "chiId",
              "type": "uint256"
            },
            {
              "internalType": "uint256",
              "name": "amount0Desired",
              "type": "uint256"
            },
            {
              "internalType": "uint256",
              "name": "amount1Desired",
              "type": "uint256"
            },
            {
              "internalType": "uint256",
              "name": "amount0Min",
              "type": "uint256"
            },
            {
              "internalType": "uint256",
              "name": "amount1Min",
              "type": "uint256"
            }
          ],
          "internalType": "struct IYangNFTVault.SubscribeParam",
          "name": "params",
          "type": "tuple"
        }
      ],
      "name": "subscribe",
      "outputs": [
        {
          "internalType": "uint256",
          "name": "",
          "type": "uint256"
        }
      ],
      "stateMutability": "nonpayable",
      "type": "function"
    },
    {
      "inputs": [
        {
          "internalType": "bytes4",
          "name": "interfaceId",
          "type": "bytes4"
        }
      ],
      "name": "supportsInterface",
      "outputs": [
        {
          "internalType": "bool",
          "name": "",
          "type": "bool"
        }
      ],
      "stateMutability": "view",
      "type": "function"
    },
    {
      "inputs": [],
      "name": "symbol",
      "outputs": [
        {
          "internalType": "string",
          "name": "",
          "type": "string"
        }
      ],
      "stateMutability": "view",
      "type": "function"
    },
    {
      "inputs": [
        {
          "internalType": "uint256",
          "name": "index",
          "type": "uint256"
        }
      ],
      "name": "tokenByIndex",
      "outputs": [
        {
          "internalType": "uint256",
          "name": "",
          "type": "uint256"
        }
      ],
      "stateMutability": "view",
      "type": "function"
    },
    {
      "inputs": [
        {
          "internalType": "address",
          "name": "owner",
          "type": "address"
        },
        {
          "internalType": "uint256",
          "name": "index",
          "type": "uint256"
        }
      ],
      "name": "tokenOfOwnerByIndex",
      "outputs": [
        {
          "internalType": "uint256",
          "name": "",
          "type": "uint256"
        }
      ],
      "stateMutability": "view",
      "type": "function"
    },
    {
      "inputs": [
        {
          "internalType": "uint256",
          "name": "tokenId",
          "type": "uint256"
        }
      ],
      "name": "tokenURI",
      "outputs": [
        {
          "internalType": "string",
          "name": "",
          "type": "string"
        }
      ],
      "stateMutability": "view",
      "type": "function"
    },
    {
      "inputs": [],
      "name": "totalSupply",
      "outputs": [
        {
          "internalType": "uint256",
          "name": "",
          "type": "uint256"
        }
      ],
      "stateMutability": "view",
      "type": "function"
    },
    {
      "inputs": [
        {
          "internalType": "address",
          "name": "from",
          "type": "address"
        },
        {
          "internalType": "address",
          "name": "to",
          "type": "address"
        },
        {
          "internalType": "uint256",
          "name": "tokenId",
          "type": "uint256"
        }
      ],
      "name": "transferFrom",
      "outputs": [],
      "stateMutability": "nonpayable",
      "type": "function"
    },
    {
      "inputs": [
        {
          "components": [
            {
              "internalType": "uint256",
              "name": "yangId",
              "type": "uint256"
            },
            {
              "internalType": "uint256",
              "name": "chiId",
              "type": "uint256"
            },
            {
              "internalType": "uint256",
              "name": "shares",
              "type": "uint256"
            },
            {
              "internalType": "uint256",
              "name": "amount0Min",
              "type": "uint256"
            },
            {
              "internalType": "uint256",
              "name": "amount1Min",
              "type": "uint256"
            }
          ],
          "internalType": "struct IYangNFTVault.UnSubscribeParam",
          "name": "params",
          "type": "tuple"
        }
      ],
      "name": "unsubscribe",
      "outputs": [],
      "stateMutability": "nonpayable",
      "type": "function"
    },
    {
      "inputs": [
        {
          "internalType": "uint256",
          "name": "tokenId",
          "type": "uint256"
        },
        {
          "internalType": "address",
          "name": "token0",
          "type": "address"
        },
        {
          "internalType": "uint256",
          "name": "amount0",
          "type": "uint256"
        },
        {
          "internalType": "address",
          "name": "token1",
          "type": "address"
        },
        {
          "internalType": "uint256",
          "name": "amount1",
          "type": "uint256"
        }
      ],
      "name": "withdraw",
      "outputs": [],
      "stateMutability": "nonpayable",
      "type": "function"
    },
    {
      "inputs": [
        {
          "internalType": "address",
          "name": "recipient",
          "type": "address"
        },
        {
          "internalType": "address",
          "name": "token",
          "type": "address"
        },
        {
          "internalType": "uint256",
          "name": "tokenId",
          "type": "uint256"
        }
      ],
      "name": "yangPositions",
      "outputs": [
        {
          "internalType": "uint256",
          "name": "",
          "type": "uint256"
        }
      ],
      "stateMutability": "view",
      "type": "function"
    },
    {
      "inputs": [],
      "name": "yangView",
      "outputs": [
        {
          "internalType": "address",
          "name": "",
          "type": "address"
        }
      ],
      "stateMutability": "view",
      "type": "function"
    }
  ],
  "bytecode": "0x608060405260016010553480156200001657600080fd5b506040516200458a3803806200458a83398101604081905262000039916200026c565b604080518082018252601481527f59414e472773204173736574204d616e616765720000000000000000000000006020808301919091528251808401909352600483526359414e4760e01b90830152600160005590620000a06301ffc9a760e01b62000138565b8151620000b5906007906020850190620001c0565b508051620000cb906008906020840190620001c0565b50620000de6380ac58cd60e01b62000138565b620000f0635b5e139f60e01b62000138565b6200010263780e9d6360e01b62000138565b5050600b8054336001600160a01b031991821617909155600c80549091166001600160a01b03929092169190911790556200029c565b6001600160e01b0319808216141562000198576040805162461bcd60e51b815260206004820152601c60248201527f4552433136353a20696e76616c696420696e7465726661636520696400000000604482015290519081900360640190fd5b6001600160e01b0319166000908152600160208190526040909120805460ff19169091179055565b828054600181600116156101000203166002900490600052602060002090601f016020900481019282620001f8576000855562000243565b82601f106200021357805160ff191683800117855562000243565b8280016001018555821562000243579182015b828111156200024357825182559160200191906001019062000226565b506200025192915062000255565b5090565b5b8082111562000251576000815560010162000256565b6000602082840312156200027e578081fd5b81516001600160a01b038116811462000295578182fd5b9392505050565b6142de80620002ac6000396000f3fe608060405234801561001057600080fd5b50600436106102775760003560e01c80635f0600f71161016057806395d89b41116100d8578063c87b56dd1161008c578063e985e9c511610071578063e985e9c514610508578063f15376861461051b578063f94e4e801461052e57610277565b8063c87b56dd146104e2578063e5d9cc9a146104f557610277565b8063a244a481116100bd578063a244a481146104a9578063ab033ea9146104bc578063b88d4fde146104cf57610277565b806395d89b411461048e578063a22cb4651461049657610277565b80636a6278421161012f57806370a082311161011457806370a082311461044f5780638ae881ab146104625780638da5cb5b1461048657610277565b80636a627842146104345780636c0360eb1461044757610277565b80635f0600f7146103f35780636352211e1461040657806365b98e001461041957806365f13f2c1461042157610277565b806323b872dd116101f357806342842e0e116101c25780634f6ccce7116101a75780634f6ccce7146103ba578063536fbbf7146103cd5780635c0d107e146103e057610277565b806342842e0e1461039457806342e6e0fe146103a757610277565b806323b872dd146103485780632599da081461035b5780632f745c591461036e5780633ab2e4ba1461038157610277565b806312d43a511161024a57806318160ddd1161022f57806318160ddd146103185780631d322dbb1461032d578063238efcbc1461034057610277565b806312d43a51146102ef5780631468c865146102f757610277565b806301ffc9a71461027c57806306fdde03146102a5578063081812fc146102ba578063095ea7b3146102da575b600080fd5b61028f61028a366004613a15565b610536565b60405161029c9190613cfe565b60405180910390f35b6102ad610571565b60405161029c9190613d09565b6102cd6102c83660046139fd565b610607565b60405161029c9190613ca0565b6102ed6102e83660046139d2565b610669565b005b6102cd61073f565b61030a610305366004613bbd565b61074e565b60405161029c929190613f8f565b610320610916565b60405161029c9190613f86565b6102ed61033b366004613b49565b610927565b6102ed610a4d565b6102ed6103563660046138ab565b610aa4565b6103206103693660046138ab565b610afb565b61032061037c3660046139d2565b610b6a565b6102ed61038f366004613ac8565b610b95565b6102ed6103a23660046138ab565b610f9e565b6103206103b5366004613bf5565b610fb9565b6103206103c83660046139fd565b61111b565b6102ed6103db366004613b49565b611131565b6103206103ee366004613a55565b611242565b61030a6104013660046139fd565b6117ab565b6102cd6104143660046139fd565b6118de565b6102cd611906565b6102ed61042f3660046137b6565b611915565b6103206104423660046137b6565b61196e565b6102ad611a2f565b61032061045d3660046137b6565b611a90565b6104756104703660046139fd565b611af8565b60405161029c959493929190613f4b565b6102cd611b78565b6102ad611b87565b6102ed6104a43660046139a1565b611be8565b6102ed6104b73660046137b6565b611d0b565b6102ed6104ca3660046137b6565b611d64565b6102ed6104dd3660046138eb565b611dbd565b6102ad6104f03660046139fd565b611e1b565b61030a6105033660046139fd565b61209c565b61028f6105163660046137ee565b612240565b6103206105293660046137b6565b61226e565b6102cd612289565b7fffffffff00000000000000000000000000000000000000000000000000000000811660009081526001602052604090205460ff165b919050565b60078054604080516020601f60026000196101006001881615020190951694909404938401819004810282018101909252828152606093909290918301828280156105fd5780601f106105d2576101008083540402835291602001916105fd565b820191906000526020600020905b8154815290600101906020018083116105e057829003601f168201915b5050505050905090565b600061061282612298565b61064d5760405162461bcd60e51b815260040180806020018281038252602c81526020018061419c602c913960400191505060405180910390fd5b506000908152600560205260409020546001600160a01b031690565b6000610674826118de565b9050806001600160a01b0316836001600160a01b031614156106c75760405162461bcd60e51b81526004018080602001828103825260218152602001806142206021913960400191505060405180910390fd5b806001600160a01b03166106d96122a5565b6001600160a01b031614806106f557506106f5816105166122a5565b6107305760405162461bcd60e51b81526004018080602001828103825260388152602001806140ef6038913960400191505060405180910390fd5b61073a83836122a9565b505050565b600c546001600160a01b031681565b600e5460009081906001600160a01b03166107845760405162461bcd60e51b815260040161077b90613dca565b60405180910390fd5b600085858560405160200161079b93929190613c78565b60408051601f198184030181529181528151602092830120600081815260139093529120549091501561090d57600e54604051635cef66b360e11b815260009182916001600160a01b039091169063b9decd66906107fd908a90600401613f86565b6101006040518083038186803b15801561081657600080fd5b505afa15801561082a573d6000803e3d6000fd5b505050506040513d601f19601f8201168201806040525081019061084e9190613826565b5050600f5460008a815260136020526040908190205490517fabb543880000000000000000000000000000000000000000000000000000000081529599509397506001600160a01b0316955063abb5438894506108b69388938893508f925090600401613cb4565b604080518083038186803b1580156108cd57600080fd5b505afa1580156108e1573d6000803e3d6000fd5b505050506040513d601f19601f820116820180604052508101906109059190613b9a565b909550935050505b50935093915050565b60006109226003612324565b905090565b84610932338261232f565b61094e5760405162461bcd60e51b815260040161077b90613ea6565b600260005414156109a6576040805162461bcd60e51b815260206004820152601f60248201527f5265656e7472616e637947756172643a207265656e7472616e742063616c6c00604482015290519081900360640190fd5b6002600055836109c85760405162461bcd60e51b815260040161077b90613d93565b600082116109e85760405162461bcd60e51b815260040161077b90613d93565b6109f38686866123d3565b6109fe8684846123d3565b846001600160a01b0316867fa51bb7c2c2049ab09fbff5561211a4ee34b3b4cee74c42f1bce5461cd4ef3f8d85604051610a389190613ca0565b60405180910390a35050600160005550505050565b600d546001600160a01b03163314610a775760405162461bcd60e51b815260040161077b90613f14565b600c805473ffffffffffffffffffffffffffffffffffffffff199081163317909155600d80549091169055565b610ab5610aaf6122a5565b8261232f565b610af05760405162461bcd60e51b81526004018080602001828103825260318152602001806142416031913960400191505060405180910390fd5b61073a83838361241a565b6000610b07848361232f565b610b235760405162461bcd60e51b815260040161077b90613ea6565b6000828585604051602001610b3a93929190613c4d565b60408051601f198184030181529181528151602092830120600090815260129092529020549150505b9392505050565b6001600160a01b0382166000908152600260205260408120610b8c9083612566565b90505b92915050565b8051610ba1338261232f565b610bbd5760405162461bcd60e51b815260040161077b90613ea6565b60026000541415610c15576040805162461bcd60e51b815260206004820152601f60248201527f5265656e7472616e637947756172643a207265656e7472616e742063616c6c00604482015290519081900360640190fd5b6002600055600e546001600160a01b0316610c425760405162461bcd60e51b815260040161077b90613dca565b600e546020830151604051635cef66b360e11b815260009283926001600160a01b039091169163b9decd6691610c7a91600401613f86565b6101006040518083038186803b158015610c9357600080fd5b505afa158015610ca7573d6000803e3d6000fd5b505050506040513d601f19601f82011682018060405250810190610ccb9190613826565b5050505093509350505060008460000151856020015133604051602001610cf493929190613c78565b604051602081830303815290604052805190602001209050846040015160136000838152602001908152602001600020541015610d435760405162461bcd60e51b815260040161077b90613edd565b600e548551602087015160408089015160608a015160808b015192517f46698e7500000000000000000000000000000000000000000000000000000000815260009687966001600160a01b03909116956346698e7595610da99592949193600401613f9d565b6040805180830381600087803b158015610dc257600080fd5b505af1158015610dd6573d6000803e3d6000fd5b505050506040513d601f19601f82011682018060405250810190610dfa9190613b9a565b6040808a0151600087815260136020529190912054929450909250610e1f9190612572565b60136000858152602001908152602001600020819055506000859050610eba8860000151826001600160a01b0316630dfe16816040518163ffffffff1660e01b815260040160206040518083038186803b158015610e7c57600080fd5b505afa158015610e90573d6000803e3d6000fd5b505050506040513d601f19601f82011682018060405250810190610eb491906137d2565b856125cf565b610f398860000151826001600160a01b031663d21220a76040518163ffffffff1660e01b815260040160206040518083038186803b158015610efb57600080fd5b505afa158015610f0f573d6000803e3d6000fd5b505050506040513d601f19601f82011682018060405250810190610f3391906137d2565b846125cf565b87518590610f4d906014908490849061262d565b602089015189516040517fb65ca58d729d89d58e1ed48a179b40d4a6b56e3e101a10085a0f43915cf1448890610f869088908890613f8f565b60405180910390a35050600160005550505050505050565b61073a83838360405180602001604052806000815250611dbd565b600e546000906001600160a01b0316610fe45760405162461bcd60e51b815260040161077b90613dca565b600e54604051635cef66b360e11b81526000916001600160a01b03169063b9decd6690611015908890600401613f86565b6101006040518083038186803b15801561102e57600080fd5b505afa158015611042573d6000803e3d6000fd5b505050506040513d601f19601f820116820180604052508101906110669190613826565b5050600f546040517f82dc04db000000000000000000000000000000000000000000000000000000008152939750600096506001600160a01b031694506382dc04db93506110be928792508a91508990600401613cdd565b60606040518083038186803b1580156110d657600080fd5b505afa1580156110ea573d6000803e3d6000fd5b505050506040513d601f19601f8201168201806040525081019061110e9190613c20565b5090979650505050505050565b60008061112960038461281c565b509392505050565b8461113c338261232f565b6111585760405162461bcd60e51b815260040161077b90613ea6565b600260005414156111b0576040805162461bcd60e51b815260206004820152601f60248201527f5265656e7472616e637947756172643a207265656e7472616e742063616c6c00604482015290519081900360640190fd5b6002600055836111d25760405162461bcd60e51b815260040161077b90613d93565b600082116111f25760405162461bcd60e51b815260040161077b90613d93565b6111fd868686612838565b611208868484612838565b846001600160a01b0316867fa3d2cbcb90e0658235d4ba62aed9a50c231df9bc5bbfb74c95badbc798f38d1a85604051610a389190613ca0565b8051600090611251338261232f565b61126d5760405162461bcd60e51b815260040161077b90613ea6565b600260005414156112c5576040805162461bcd60e51b815260206004820152601f60248201527f5265656e7472616e637947756172643a207265656e7472616e742063616c6c00604482015290519081900360640190fd5b6002600055600e546001600160a01b03166112f25760405162461bcd60e51b815260040161077b90613dca565b600e546020840151604051635cef66b360e11b815260009283926001600160a01b039091169163b9decd669161132a91600401613f86565b6101006040518083038186803b15801561134357600080fd5b505afa158015611357573d6000803e3d6000fd5b505050506040513d601f19601f8201168201806040525081019061137b9190613826565b505050509350935050506000829050611429600e60009054906101000a90046001600160a01b03168760400151836001600160a01b0316630dfe16816040518163ffffffff1660e01b815260040160206040518083038186803b1580156113e157600080fd5b505afa1580156113f5573d6000803e3d6000fd5b505050506040513d601f19601f8201168201806040525081019061141991906137d2565b6001600160a01b0316919061287f565b611480600e60009054906101000a90046001600160a01b03168760600151836001600160a01b031663d21220a76040518163ffffffff1660e01b815260040160206040518083038186803b1580156113e157600080fd5b600e54865160208801516040808a015160608b015160808c015160a08d015193517fec28fcac000000000000000000000000000000000000000000000000000000008152600097889788976001600160a01b039092169663ec28fcac966114f1969295939490939190600401613fc0565b606060405180830381600087803b15801561150b57600080fd5b505af115801561151f573d6000803e3d6000fd5b505050506040513d601f19601f820116820180604052508101906115439190613c20565b9250925092506115c88960000151856001600160a01b0316630dfe16816040518163ffffffff1660e01b815260040160206040518083038186803b15801561158a57600080fd5b505afa15801561159e573d6000803e3d6000fd5b505050506040513d601f19601f820116820180604052508101906115c291906137d2565b846129d9565b6116478960000151856001600160a01b031663d21220a76040518163ffffffff1660e01b815260040160206040518083038186803b15801561160957600080fd5b505afa15801561161d573d6000803e3d6000fd5b505050506040513d601f19601f8201168201806040525081019061164191906137d2565b836129d9565b61169b600e60009054906101000a90046001600160a01b03166000866001600160a01b0316630dfe16816040518163ffffffff1660e01b815260040160206040518083038186803b1580156113e157600080fd5b6116ef600e60009054906101000a90046001600160a01b03166000866001600160a01b031663d21220a76040518163ffffffff1660e01b815260040160206040518083038186803b1580156113e157600080fd5b600089600001518a602001513360405160200161170e93929190613c78565b60408051601f198184030181529181528151602092830120600081815260139093529120549091506117409085612a54565b60008281526013602052604090205589518690611763906014908890849061262d565b60208b01518b51604051879291907f17de92c1076ec5855c3edd4a6084a82c184adfda177deb99d6532697cdac91cb90600090a4505060016000555090979650505050505050565b600e5460009081906001600160a01b03166117d85760405162461bcd60e51b815260040161077b90613dca565b600e54604051635cef66b360e11b81526000916001600160a01b03169063b9decd6690611809908790600401613f86565b6101006040518083038186803b15801561182257600080fd5b505afa158015611836573d6000803e3d6000fd5b505050506040513d601f19601f8201168201806040525081019061185a9190613826565b505050509350505050806001600160a01b031663c4a7761e6040518163ffffffff1660e01b8152600401604080518083038186803b15801561189b57600080fd5b505afa1580156118af573d6000803e3d6000fd5b505050506040513d601f19601f820116820180604052508101906118d39190613b9a565b909590945092505050565b6000610b8f826040518060600160405280602981526020016141516029913960039190612aae565b600f546001600160a01b031681565b600b546001600160a01b0316331461193f5760405162461bcd60e51b815260040161077b90613e6f565b600f805473ffffffffffffffffffffffffffffffffffffffff19166001600160a01b0392909216919091179055565b600c546000906001600160a01b0316331461199b5760405162461bcd60e51b815260040161077b90613e38565b6001600160a01b038216600090815260116020526040902054156119d15760405162461bcd60e51b815260040161077b90613d5c565b5060108054600181019091556119e78282612abb565b6001600160a01b038216600081815260116020526040808220849055518392917f74629109564de5ce9d04dc84bb5ecd8fbb0c98843a3fbd43f057825a9255449c91a3919050565b600a8054604080516020601f60026000196101006001881615020190951694909404938401819004810282018101909252828152606093909290918301828280156105fd5780601f106105d2576101008083540402835291602001916105fd565b60006001600160a01b038216611ad75760405162461bcd60e51b815260040180806020018281038252602a815260200180614127602a913960400191505060405180910390fd5b6001600160a01b0382166000908152600260205260409020610b8f90612324565b600090815260146020908152604091829020825160a08101845281546fffffffffffffffffffffffffffffffff908116808352600184015494830185905260028401549583018690526003909301548082166060840181905270010000000000000000000000000000000090910490911660809092018290529194929392565b600b546001600160a01b031681565b60088054604080516020601f60026000196101006001881615020190951694909404938401819004810282018101909252828152606093909290918301828280156105fd5780601f106105d2576101008083540402835291602001916105fd565b611bf06122a5565b6001600160a01b0316826001600160a01b03161415611c56576040805162461bcd60e51b815260206004820152601960248201527f4552433732313a20617070726f766520746f2063616c6c657200000000000000604482015290519081900360640190fd5b8060066000611c636122a5565b6001600160a01b0390811682526020808301939093526040918201600090812091871680825291909352912080547fffffffffffffffffffffffffffffffffffffffffffffffffffffffffffffff001692151592909217909155611cc56122a5565b6001600160a01b03167f17307eab39ab6107e8899845ad3d59bd9653f200f220920489ca2b5937696c318360405180821515815260200191505060405180910390a35050565b600b546001600160a01b03163314611d355760405162461bcd60e51b815260040161077b90613e6f565b600e805473ffffffffffffffffffffffffffffffffffffffff19166001600160a01b0392909216919091179055565b600c546001600160a01b03163314611d8e5760405162461bcd60e51b815260040161077b90613e38565b600d805473ffffffffffffffffffffffffffffffffffffffff19166001600160a01b0392909216919091179055565b611dce611dc86122a5565b8361232f565b611e095760405162461bcd60e51b81526004018080602001828103825260318152602001806142416031913960400191505060405180910390fd5b611e1584848484612be9565b50505050565b6060611e2682612298565b611e615760405162461bcd60e51b815260040180806020018281038252602f8152602001806141f1602f913960400191505060405180910390fd5b60008281526009602090815260408083208054825160026001831615610100026000190190921691909104601f810185900485028201850190935282815292909190830182828015611ef45780601f10611ec957610100808354040283529160200191611ef4565b820191906000526020600020905b815481529060010190602001808311611ed757829003601f168201915b505050505090506000611f05611a2f565b9050805160001415611f195750905061056c565b815115611fda5780826040516020018083805190602001908083835b60208310611f545780518252601f199092019160209182019101611f35565b51815160209384036101000a600019018019909216911617905285519190930192850191508083835b60208310611f9c5780518252601f199092019160209182019101611f7d565b6001836020036101000a038019825116818451168082178552505050505050905001925050506040516020818303038152906040529250505061056c565b80611fe485612c3b565b6040516020018083805190602001908083835b602083106120165780518252601f199092019160209182019101611ff7565b51815160209384036101000a600019018019909216911617905285519190930192850191508083835b6020831061205e5780518252601f19909201916020918201910161203f565b6001836020036101000a0380198251168184511680821785525050505050509050019250505060405160208183030381529060405292505050919050565b600e5460009081906001600160a01b03166120c95760405162461bcd60e51b815260040161077b90613dca565b600e54604051635cef66b360e11b81526000916001600160a01b03169063b9decd66906120fa908790600401613f86565b6101006040518083038186803b15801561211357600080fd5b505afa158015612127573d6000803e3d6000fd5b505050506040513d601f19601f8201168201806040525081019061214b9190613826565b505050509350505050806001600160a01b031663eae989a26040518163ffffffff1660e01b815260040160206040518083038186803b15801561218d57600080fd5b505afa1580156121a1573d6000803e3d6000fd5b505050506040513d601f19601f820116820180604052508101906121c59190613b31565b9250806001600160a01b031663a00fa77f6040518163ffffffff1660e01b815260040160206040518083038186803b15801561220057600080fd5b505afa158015612214573d6000803e3d6000fd5b505050506040513d601f19601f820116820180604052508101906122389190613b31565b915050915091565b6001600160a01b03918216600090815260066020908152604080832093909416825291909152205460ff1690565b6001600160a01b031660009081526011602052604090205490565b600d546001600160a01b031681565b6000610b8f600383612d4a565b3390565b6000818152600560205260409020805473ffffffffffffffffffffffffffffffffffffffff19166001600160a01b03841690811790915581906122eb826118de565b6001600160a01b03167f8c5be1e5ebec7d5bd14f71427d1e84f3dd0314c0f7b2291e5b200ac8c7c3b92560405160405180910390a45050565b6000610b8f82612d56565b600061233a82612298565b6123755760405162461bcd60e51b815260040180806020018281038252602c8152602001806140c3602c913960400191505060405180910390fd5b6000612380836118de565b9050806001600160a01b0316846001600160a01b031614806123bb5750836001600160a01b03166123b084610607565b6001600160a01b0316145b806123cb57506123cb8185612240565b949350505050565b826123de338261232f565b6123fa5760405162461bcd60e51b815260040161077b90613ea6565b6124058484846129d9565b611e156001600160a01b038416303385612d5a565b826001600160a01b031661242d826118de565b6001600160a01b0316146124725760405162461bcd60e51b81526004018080602001828103825260298152602001806141c86029913960400191505060405180910390fd5b6001600160a01b0382166124b75760405162461bcd60e51b81526004018080602001828103825260248152602001806140796024913960400191505060405180910390fd5b6124c283838361073a565b6124cd6000826122a9565b6001600160a01b03831660009081526002602052604090206124ef9082612de2565b506001600160a01b03821660009081526002602052604090206125129082612dee565b5061251f60038284612dfa565b5080826001600160a01b0316846001600160a01b03167fddf252ad1be2c89b69c2b068fc378daa952ba7f163c4a11628f55a4df523b3ef60405160405180910390a4505050565b6000610b8c8383612e10565b6000828211156125c9576040805162461bcd60e51b815260206004820152601e60248201527f536166654d6174683a207375627472616374696f6e206f766572666c6f770000604482015290519081900360640190fd5b50900390565b60008333846040516020016125e693929190613c4d565b60408051601f198184030181529181528151602092830120600081815260129093529120549091506126189083612a54565b60009182526012602052604090912055505050565b60005b826001600160a01b031663b135a1456040518163ffffffff1660e01b815260040160206040518083038186803b15801561266957600080fd5b505afa15801561267d573d6000803e3d6000fd5b505050506040513d602081101561269357600080fd5b505181101561281557600080846001600160a01b031663cc364f48846040518263ffffffff1660e01b815260040180828152602001915050604080518083038186803b1580156126e257600080fd5b505afa1580156126f6573d6000803e3d6000fd5b505050506040513d604081101561270c57600080fd5b5080516020909101519092509050600061272887878585612e74565b6fffffffffffffffffffffffffffffffff16111561280b57600061274f8886888686612ef9565b905060008060008060008b6001600160a01b031663514ea4bf6127738d8b8b612f23565b6040518263ffffffff1660e01b81526004018082815260200191505060a06040518083038186803b1580156127a757600080fd5b505afa1580156127bb573d6000803e3d6000fd5b505050506040513d60a08110156127d157600080fd5b50805160208201516040830151606084015160809094015192985090965094509092509050612804868686868686612f79565b5050505050505b5050600101612630565b5050505050565b600080808061282b8686612ff6565b9097909650945050505050565b82612843338261232f565b61285f5760405162461bcd60e51b815260040161077b90613ea6565b6128746001600160a01b038416333085612d5a565b611e158484846125cf565b80158061291e5750604080517fdd62ed3e0000000000000000000000000000000000000000000000000000000081523060048201526001600160a01b03848116602483015291519185169163dd62ed3e91604480820192602092909190829003018186803b1580156128f057600080fd5b505afa158015612904573d6000803e3d6000fd5b505050506040513d602081101561291a57600080fd5b5051155b6129595760405162461bcd60e51b815260040180806020018281038252603681526020018061429c6036913960400191505060405180910390fd5b604080516001600160a01b038416602482015260448082018490528251808303909101815260649091019091526020810180517bffffffffffffffffffffffffffffffffffffffffffffffffffffffff167f095ea7b30000000000000000000000000000000000000000000000000000000017905261073a908490613071565b60008333846040516020016129f093929190613c4d565b6040516020818303038152906040528051906020012090508160126000838152602001908152602001600020541015612a3b5760405162461bcd60e51b815260040161077b90613e01565b6000818152601260205260409020546126189083612572565b600082820183811015610b8c576040805162461bcd60e51b815260206004820152601b60248201527f536166654d6174683a206164646974696f6e206f766572666c6f770000000000604482015290519081900360640190fd5b60006123cb848484613122565b6001600160a01b038216612b16576040805162461bcd60e51b815260206004820181905260248201527f4552433732313a206d696e7420746f20746865207a65726f2061646472657373604482015290519081900360640190fd5b612b1f81612298565b15612b71576040805162461bcd60e51b815260206004820152601c60248201527f4552433732313a20746f6b656e20616c7265616479206d696e74656400000000604482015290519081900360640190fd5b612b7d6000838361073a565b6001600160a01b0382166000908152600260205260409020612b9f9082612dee565b50612bac60038284612dfa565b5060405181906001600160a01b038416906000907fddf252ad1be2c89b69c2b068fc378daa952ba7f163c4a11628f55a4df523b3ef908290a45050565b612bf484848461241a565b612c00848484846131ec565b611e155760405162461bcd60e51b81526004018080602001828103825260328152602001806140476032913960400191505060405180910390fd5b606081612c7c575060408051808201909152600181527f3000000000000000000000000000000000000000000000000000000000000000602082015261056c565b8160005b8115612c9457600101600a82049150612c80565b60008167ffffffffffffffff81118015612cad57600080fd5b506040519080825280601f01601f191660200182016040528015612cd8576020820181803683370190505b50859350905060001982015b8315612d4157600a840660300160f81b82828060019003935081518110612d0757fe5b60200101907effffffffffffffffffffffffffffffffffffffffffffffffffffffffffffff1916908160001a905350600a84049350612ce4565b50949350505050565b6000610b8c83836133c8565b5490565b604080516001600160a01b0380861660248301528416604482015260648082018490528251808303909101815260849091019091526020810180517bffffffffffffffffffffffffffffffffffffffffffffffffffffffff167f23b872dd00000000000000000000000000000000000000000000000000000000179052611e15908590613071565b6000610b8c83836133e0565b6000610b8c83836134a6565b60006123cb84846001600160a01b0385166134f0565b81546000908210612e525760405162461bcd60e51b81526004018080602001828103825260228152602001806140256022913960400191505060405180910390fd5b826000018281548110612e6157fe5b9060005260206000200154905092915050565b6000846001600160a01b031663514ea4bf612e90868686612f23565b6040518263ffffffff1660e01b81526004018082815260200191505060a06040518083038186803b158015612ec457600080fd5b505afa158015612ed8573d6000803e3d6000fd5b505050506040513d60a0811015612eee57600080fd5b505195945050505050565b6000856000612f0a87878787613587565b8152602001908152602001600020905095945050505050565b6040805160609490941b6bffffffffffffffffffffffff1916602080860191909152600293840b60e890811b60348701529290930b90911b60378401528051808403601a018152603a9093019052815191012090565b85546fffffffffffffffffffffffffffffffff9586167fffffffffffffffffffffffffffffffff000000000000000000000000000000009182161787556001870194909455600286019290925560039094018054918416700100000000000000000000000000000000029484169190921617909116919091179055565b81546000908190831061303a5760405162461bcd60e51b815260040180806020018281038252602281526020018061417a6022913960400191505060405180910390fd5b600084600001848154811061304b57fe5b906000526020600020906002020190508060000154816001015492509250509250929050565b60006130c6826040518060400160405280602081526020017f5361666545524332303a206c6f772d6c6576656c2063616c6c206661696c6564815250856001600160a01b03166135e09092919063ffffffff16565b80519091501561073a578080602001905160208110156130e557600080fd5b505161073a5760405162461bcd60e51b815260040180806020018281038252602a815260200180614272602a913960400191505060405180910390fd5b600082815260018401602052604081205482816131bd5760405162461bcd60e51b81526004018080602001828103825283818151815260200191508051906020019080838360005b8381101561318257818101518382015260200161316a565b50505050905090810190601f1680156131af5780820380516001836020036101000a031916815260200191505b509250505060405180910390fd5b508460000160018203815481106131d057fe5b9060005260206000209060020201600101549150509392505050565b6000613200846001600160a01b03166135ef565b61320c575060016123cb565b600061335d7f150b7a020000000000000000000000000000000000000000000000000000000061323a6122a5565b88878760405160240180856001600160a01b03168152602001846001600160a01b0316815260200183815260200180602001828103825283818151815260200191508051906020019080838360005b838110156132a1578181015183820152602001613289565b50505050905090810190601f1680156132ce5780820380516001836020036101000a031916815260200191505b5095505050505050604051602081830303815290604052907bffffffffffffffffffffffffffffffffffffffffffffffffffffffff19166020820180517bffffffffffffffffffffffffffffffffffffffffffffffffffffffff8381831617835250505050604051806060016040528060328152602001614047603291396001600160a01b03881691906135e0565b9050600081806020019051602081101561337657600080fd5b50517fffffffff00000000000000000000000000000000000000000000000000000000167f150b7a02000000000000000000000000000000000000000000000000000000001492505050949350505050565b60009081526001919091016020526040902054151590565b6000818152600183016020526040812054801561349c578354600019808301919081019060009087908390811061341357fe5b906000526020600020015490508087600001848154811061343057fe5b60009182526020808320909101929092558281526001898101909252604090209084019055865487908061346057fe5b60019003818190600052602060002001600090559055866001016000878152602001908152602001600020600090556001945050505050610b8f565b6000915050610b8f565b60006134b283836133c8565b6134e857508154600181810184556000848152602080822090930184905584548482528286019093526040902091909155610b8f565b506000610b8f565b600082815260018401602052604081205480613555575050604080518082018252838152602080820184815286546001818101895560008981528481209551600290930290950191825591519082015586548684528188019092529290912055610b63565b8285600001600183038154811061356857fe5b9060005260206000209060020201600101819055506000915050610b63565b6040805160208082019690965260609490941b6bffffffffffffffffffffffff191684820152600292830b60e890811b60548601529190920b901b60578301528051808303603a018152605a9092019052805191012090565b60606123cb84846000856135f5565b3b151590565b6060824710156136365760405162461bcd60e51b815260040180806020018281038252602681526020018061409d6026913960400191505060405180910390fd5b61363f856135ef565b613690576040805162461bcd60e51b815260206004820152601d60248201527f416464726573733a2063616c6c20746f206e6f6e2d636f6e7472616374000000604482015290519081900360640190fd5b600080866001600160a01b031685876040518082805190602001908083835b602083106136ce5780518252601f1990920191602091820191016136af565b6001836020036101000a03801982511681845116808217855250505050505090500191505060006040518083038185875af1925050503d8060008114613730576040519150601f19603f3d011682016040523d82523d6000602084013e613735565b606091505b5091509150613745828286613750565b979650505050505050565b6060831561375f575081610b63565b82511561376f5782518084602001fd5b60405162461bcd60e51b815260206004820181815284516024840152845185939192839260440191908501908083836000831561318257818101518382015260200161316a565b6000602082840312156137c7578081fd5b8135610b8c8161400c565b6000602082840312156137e3578081fd5b8151610b8c8161400c565b60008060408385031215613800578081fd5b823561380b8161400c565b9150602083013561381b8161400c565b809150509250929050565b600080600080600080600080610100898b031215613842578384fd5b885161384d8161400c565b60208a015190985061385e8161400c565b60408a015190975061386f8161400c565b60608a01519096506138808161400c565b60808a015160a08b015160c08c015160e0909c01519a9d999c50979a91999098919650945092505050565b6000806000606084860312156138bf578283fd5b83356138ca8161400c565b925060208401356138da8161400c565b929592945050506040919091013590565b60008060008060808587031215613900578384fd5b843561390b8161400c565b935060208581013561391c8161400c565b935060408601359250606086013567ffffffffffffffff8082111561393f578384fd5b818801915088601f830112613952578384fd5b81358181111561395e57fe5b61397084601f19601f84011601613fe8565b91508082528984828501011115613985578485fd5b8084840185840137810190920192909252939692955090935050565b600080604083850312156139b3578182fd5b82356139be8161400c565b91506020830135801515811461381b578182fd5b600080604083850312156139e4578182fd5b82356139ef8161400c565b946020939093013593505050565b600060208284031215613a0e578081fd5b5035919050565b600060208284031215613a26578081fd5b81357fffffffff0000000000000000000000000000000000000000000000000000000081168114610b8c578182fd5b600060c08284031215613a66578081fd5b60405160c0810181811067ffffffffffffffff82111715613a8357fe5b8060405250823581526020830135602082015260408301356040820152606083013560608201526080830135608082015260a083013560a08201528091505092915050565b600060a08284031215613ad9578081fd5b60405160a0810181811067ffffffffffffffff82111715613af657fe5b806040525082358152602083013560208201526040830135604082015260608301356060820152608083013560808201528091505092915050565b600060208284031215613b42578081fd5b5051919050565b600080600080600060a08688031215613b60578283fd5b853594506020860135613b728161400c565b9350604086013592506060860135613b898161400c565b949793965091946080013592915050565b60008060408385031215613bac578182fd5b505080516020909101519092909150565b600080600060608486031215613bd1578081fd5b83359250602084013591506040840135613bea8161400c565b809150509250925092565b600080600060608486031215613c09578081fd5b505081359360208301359350604090920135919050565b600080600060608486031215613c34578081fd5b8351925060208401519150604084015190509250925092565b9283526bffffffffffffffffffffffff19606092831b81166020850152911b16603482015260480190565b928352602083019190915260601b6bffffffffffffffffffffffff1916604082015260540190565b6001600160a01b0391909116815260200190565b6001600160a01b0394851681529290931660208301526040820152606081019190915260800190565b6001600160a01b039390931683526020830191909152604082015260600190565b901515815260200190565b6000602080835283518082850152825b81811015613d3557858101830151858201604001528201613d19565b81811115613d465783604083870101525b50601f01601f1916929092016040019392505050565b60208082526002908201527f4f4f000000000000000000000000000000000000000000000000000000000000604082015260600190565b60208082526002908201527f4e5a000000000000000000000000000000000000000000000000000000000000604082015260600190565b60208082526003908201527f4348490000000000000000000000000000000000000000000000000000000000604082015260600190565b60208082526014908201527f696e73756666696369656e742062616c616e6365000000000000000000000000604082015260600190565b60208082526008908201527f6f6e6c7920676f76000000000000000000000000000000000000000000000000604082015260600190565b6020808252600a908201527f6f6e6c79206f776e657200000000000000000000000000000000000000000000604082015260600190565b6020808252600c908201527f6e6f7420617070726f7665640000000000000000000000000000000000000000604082015260600190565b60208082526013908201527f696e73756666696369656e742073686172657300000000000000000000000000604082015260600190565b60208082526008908201527f6e65787420676f76000000000000000000000000000000000000000000000000604082015260600190565b6fffffffffffffffffffffffffffffffff95861681526020810194909452604084019290925283166060830152909116608082015260a00190565b90815260200190565b918252602082015260400190565b948552602085019390935260408401919091526060830152608082015260a00190565b958652602086019490945260408501929092526060840152608083015260a082015260c00190565b60405181810167ffffffffffffffff8111828210171561400457fe5b604052919050565b6001600160a01b038116811461402157600080fd5b5056fe456e756d657261626c655365743a20696e646578206f7574206f6620626f756e64734552433732313a207472616e7366657220746f206e6f6e20455243373231526563656976657220696d706c656d656e7465724552433732313a207472616e7366657220746f20746865207a65726f2061646472657373416464726573733a20696e73756666696369656e742062616c616e636520666f722063616c6c4552433732313a206f70657261746f7220717565727920666f72206e6f6e6578697374656e7420746f6b656e4552433732313a20617070726f76652063616c6c6572206973206e6f74206f776e6572206e6f7220617070726f76656420666f7220616c6c4552433732313a2062616c616e636520717565727920666f7220746865207a65726f20616464726573734552433732313a206f776e657220717565727920666f72206e6f6e6578697374656e7420746f6b656e456e756d657261626c654d61703a20696e646578206f7574206f6620626f756e64734552433732313a20617070726f76656420717565727920666f72206e6f6e6578697374656e7420746f6b656e4552433732313a207472616e73666572206f6620746f6b656e2074686174206973206e6f74206f776e4552433732314d657461646174613a2055524920717565727920666f72206e6f6e6578697374656e7420746f6b656e4552433732313a20617070726f76616c20746f2063757272656e74206f776e65724552433732313a207472616e736665722063616c6c6572206973206e6f74206f776e6572206e6f7220617070726f7665645361666545524332303a204552433230206f7065726174696f6e20646964206e6f7420737563636565645361666545524332303a20617070726f76652066726f6d206e6f6e2d7a65726f20746f206e6f6e2d7a65726f20616c6c6f77616e6365a164736f6c6343000706000a",
  "linkReferences": {},
  "deployedLinkReferences": {}
}