{
  "_format": "hh-sol-artifact-1",
  "contractName": "YangNFTVault",
  "sourceName": "contracts/YangNFTVault.sol",
  "abi": [
    {
      "inputs": [
        {
          "internalType": "address",
          "name": "_gov",
          "type": "address"
        }
      ],
      "stateMutability": "nonpayable",
      "type": "constructor"
    },
    {
      "anonymous": false,
      "inputs": [
        {
          "indexed": true,
          "internalType": "address",
          "name": "owner",
          "type": "address"
        },
        {
          "indexed": true,
          "internalType": "address",
          "name": "approved",
          "type": "address"
        },
        {
          "indexed": true,
          "internalType": "uint256",
          "name": "tokenId",
          "type": "uint256"
        }
      ],
      "name": "Approval",
      "type": "event"
    },
    {
      "anonymous": false,
      "inputs": [
        {
          "indexed": true,
          "internalType": "address",
          "name": "owner",
          "type": "address"
        },
        {
          "indexed": true,
          "internalType": "address",
          "name": "operator",
          "type": "address"
        },
        {
          "indexed": false,
          "internalType": "bool",
          "name": "approved",
          "type": "bool"
        }
      ],
      "name": "ApprovalForAll",
      "type": "event"
    },
    {
      "anonymous": false,
      "inputs": [
        {
          "indexed": true,
          "internalType": "uint256",
          "name": "tokenId",
          "type": "uint256"
        },
        {
          "indexed": true,
          "internalType": "address",
          "name": "token0",
          "type": "address"
        },
        {
          "indexed": false,
          "internalType": "address",
          "name": "token1",
          "type": "address"
        }
      ],
      "name": "Deposit",
      "type": "event"
    },
    {
      "anonymous": false,
      "inputs": [
        {
          "indexed": true,
          "internalType": "address",
          "name": "recipient",
          "type": "address"
        },
        {
          "indexed": true,
          "internalType": "uint256",
          "name": "tokenId",
          "type": "uint256"
        }
      ],
      "name": "MintYangNFT",
      "type": "event"
    },
    {
      "anonymous": false,
      "inputs": [
        {
          "indexed": true,
          "internalType": "uint256",
          "name": "yangId",
          "type": "uint256"
        },
        {
          "indexed": true,
          "internalType": "uint256",
          "name": "chiId",
          "type": "uint256"
        },
        {
          "indexed": true,
          "internalType": "uint256",
          "name": "share",
          "type": "uint256"
        }
      ],
      "name": "Subscribe",
      "type": "event"
    },
    {
      "anonymous": false,
      "inputs": [
        {
          "indexed": true,
          "internalType": "address",
          "name": "from",
          "type": "address"
        },
        {
          "indexed": true,
          "internalType": "address",
          "name": "to",
          "type": "address"
        },
        {
          "indexed": true,
          "internalType": "uint256",
          "name": "tokenId",
          "type": "uint256"
        }
      ],
      "name": "Transfer",
      "type": "event"
    },
    {
      "anonymous": false,
      "inputs": [
        {
          "indexed": true,
          "internalType": "uint256",
          "name": "yangId",
          "type": "uint256"
        },
        {
          "indexed": true,
          "internalType": "uint256",
          "name": "chiId",
          "type": "uint256"
        },
        {
          "indexed": false,
          "internalType": "uint256",
          "name": "amount0",
          "type": "uint256"
        },
        {
          "indexed": false,
          "internalType": "uint256",
          "name": "amount1",
          "type": "uint256"
        }
      ],
      "name": "UnSubscribe",
      "type": "event"
    },
    {
      "anonymous": false,
      "inputs": [
        {
          "indexed": true,
          "internalType": "uint256",
          "name": "tokenId",
          "type": "uint256"
        },
        {
          "indexed": true,
          "internalType": "address",
          "name": "token0",
          "type": "address"
        },
        {
          "indexed": false,
          "internalType": "address",
          "name": "token1",
          "type": "address"
        }
      ],
      "name": "Withdraw",
      "type": "event"
    },
    {
      "inputs": [],
      "name": "acceptGovernance",
      "outputs": [],
      "stateMutability": "nonpayable",
      "type": "function"
    },
    {
      "inputs": [
        {
          "internalType": "address",
          "name": "to",
          "type": "address"
        },
        {
          "internalType": "uint256",
          "name": "tokenId",
          "type": "uint256"
        }
      ],
      "name": "approve",
      "outputs": [],
      "stateMutability": "nonpayable",
      "type": "function"
    },
    {
      "inputs": [
        {
          "internalType": "address",
          "name": "owner",
          "type": "address"
        }
      ],
      "name": "balanceOf",
      "outputs": [
        {
          "internalType": "uint256",
          "name": "",
          "type": "uint256"
        }
      ],
      "stateMutability": "view",
      "type": "function"
    },
    {
      "inputs": [],
      "name": "baseURI",
      "outputs": [
        {
          "internalType": "string",
          "name": "",
          "type": "string"
        }
      ],
      "stateMutability": "view",
      "type": "function"
    },
    {
      "inputs": [
        {
          "internalType": "uint256",
          "name": "tokenId",
          "type": "uint256"
        },
        {
          "internalType": "address",
          "name": "token0",
          "type": "address"
        },
        {
          "internalType": "uint256",
          "name": "amount0",
          "type": "uint256"
        },
        {
          "internalType": "address",
          "name": "token1",
          "type": "address"
        },
        {
          "internalType": "uint256",
          "name": "amount1",
          "type": "uint256"
        }
      ],
      "name": "deposit",
      "outputs": [],
      "stateMutability": "nonpayable",
      "type": "function"
    },
    {
      "inputs": [
        {
          "internalType": "uint256",
          "name": "yangId",
          "type": "uint256"
        },
        {
          "internalType": "uint256",
          "name": "chiId",
          "type": "uint256"
        },
        {
          "internalType": "address",
          "name": "user",
          "type": "address"
        }
      ],
      "name": "getAmounts",
      "outputs": [
        {
          "internalType": "uint256",
          "name": "amount0",
          "type": "uint256"
        },
        {
          "internalType": "uint256",
          "name": "amount1",
          "type": "uint256"
        }
      ],
      "stateMutability": "view",
      "type": "function"
    },
    {
      "inputs": [
        {
          "internalType": "uint256",
          "name": "tokenId",
          "type": "uint256"
        }
      ],
      "name": "getApproved",
      "outputs": [
        {
          "internalType": "address",
          "name": "",
          "type": "address"
        }
      ],
      "stateMutability": "view",
      "type": "function"
    },
    {
      "inputs": [
        {
          "internalType": "uint256",
          "name": "chiId",
          "type": "uint256"
        }
      ],
      "name": "getCHIAccruedFees",
      "outputs": [
        {
          "internalType": "uint256",
          "name": "fee0",
          "type": "uint256"
        },
        {
          "internalType": "uint256",
          "name": "fee1",
          "type": "uint256"
        }
      ],
      "stateMutability": "view",
      "type": "function"
    },
    {
      "inputs": [
        {
          "internalType": "uint256",
          "name": "chiId",
          "type": "uint256"
        }
      ],
      "name": "getCHITotalAmounts",
      "outputs": [
        {
          "internalType": "uint256",
          "name": "amount0",
          "type": "uint256"
        },
        {
          "internalType": "uint256",
          "name": "amount1",
          "type": "uint256"
        }
      ],
      "stateMutability": "view",
      "type": "function"
    },
    {
      "inputs": [
        {
          "internalType": "uint256",
          "name": "chiId",
          "type": "uint256"
        },
        {
          "internalType": "uint256",
          "name": "amount0Desired",
          "type": "uint256"
        },
        {
          "internalType": "uint256",
          "name": "amount1Desired",
          "type": "uint256"
        }
      ],
      "name": "getShares",
      "outputs": [
        {
          "internalType": "uint256",
          "name": "",
          "type": "uint256"
        }
      ],
      "stateMutability": "view",
      "type": "function"
    },
    {
      "inputs": [],
      "name": "getTokenId",
      "outputs": [
        {
          "internalType": "uint256",
          "name": "",
          "type": "uint256"
        }
      ],
      "stateMutability": "view",
      "type": "function"
    },
    {
      "inputs": [],
      "name": "gov",
      "outputs": [
        {
          "internalType": "address",
          "name": "",
          "type": "address"
        }
      ],
      "stateMutability": "view",
      "type": "function"
    },
    {
      "inputs": [
        {
          "internalType": "address",
          "name": "owner",
          "type": "address"
        },
        {
          "internalType": "address",
          "name": "operator",
          "type": "address"
        }
      ],
      "name": "isApprovedForAll",
      "outputs": [
        {
          "internalType": "bool",
          "name": "",
          "type": "bool"
        }
      ],
      "stateMutability": "view",
      "type": "function"
    },
    {
      "inputs": [
        {
          "internalType": "address",
          "name": "recipient",
          "type": "address"
        }
      ],
      "name": "mint",
      "outputs": [
        {
          "internalType": "uint256",
          "name": "tokenId",
          "type": "uint256"
        }
      ],
      "stateMutability": "nonpayable",
      "type": "function"
    },
    {
      "inputs": [],
      "name": "name",
      "outputs": [
        {
          "internalType": "string",
          "name": "",
          "type": "string"
        }
      ],
      "stateMutability": "view",
      "type": "function"
    },
    {
      "inputs": [],
      "name": "nextgov",
      "outputs": [
        {
          "internalType": "address",
          "name": "",
          "type": "address"
        }
      ],
      "stateMutability": "view",
      "type": "function"
    },
    {
      "inputs": [],
      "name": "owner",
      "outputs": [
        {
          "internalType": "address",
          "name": "",
          "type": "address"
        }
      ],
      "stateMutability": "view",
      "type": "function"
    },
    {
      "inputs": [
        {
          "internalType": "uint256",
          "name": "tokenId",
          "type": "uint256"
        }
      ],
      "name": "ownerOf",
      "outputs": [
        {
          "internalType": "address",
          "name": "",
          "type": "address"
        }
      ],
      "stateMutability": "view",
      "type": "function"
    },
    {
      "inputs": [
        {
          "internalType": "bytes32",
          "name": "key",
          "type": "bytes32"
        }
      ],
      "name": "poolPositions",
      "outputs": [
        {
          "internalType": "uint128",
          "name": "liquidity",
          "type": "uint128"
        },
        {
          "internalType": "uint256",
          "name": "feeGrowthInside0LastX128",
          "type": "uint256"
        },
        {
          "internalType": "uint256",
          "name": "feeGrowthInside1LastX128",
          "type": "uint256"
        },
        {
          "internalType": "uint128",
          "name": "tokensOwed0",
          "type": "uint128"
        },
        {
          "internalType": "uint128",
          "name": "tokensOwed1",
          "type": "uint128"
        }
      ],
      "stateMutability": "view",
      "type": "function"
    },
    {
      "inputs": [
        {
          "internalType": "address",
          "name": "from",
          "type": "address"
        },
        {
          "internalType": "address",
          "name": "to",
          "type": "address"
        },
        {
          "internalType": "uint256",
          "name": "tokenId",
          "type": "uint256"
        }
      ],
      "name": "safeTransferFrom",
      "outputs": [],
      "stateMutability": "nonpayable",
      "type": "function"
    },
    {
      "inputs": [
        {
          "internalType": "address",
          "name": "from",
          "type": "address"
        },
        {
          "internalType": "address",
          "name": "to",
          "type": "address"
        },
        {
          "internalType": "uint256",
          "name": "tokenId",
          "type": "uint256"
        },
        {
          "internalType": "bytes",
          "name": "_data",
          "type": "bytes"
        }
      ],
      "name": "safeTransferFrom",
      "outputs": [],
      "stateMutability": "nonpayable",
      "type": "function"
    },
    {
      "inputs": [
        {
          "internalType": "address",
          "name": "operator",
          "type": "address"
        },
        {
          "internalType": "bool",
          "name": "approved",
          "type": "bool"
        }
      ],
      "name": "setApprovalForAll",
      "outputs": [],
      "stateMutability": "nonpayable",
      "type": "function"
    },
    {
      "inputs": [
        {
          "internalType": "address",
          "name": "_chiManager",
          "type": "address"
        }
      ],
      "name": "setCHIManager",
      "outputs": [],
      "stateMutability": "nonpayable",
      "type": "function"
    },
    {
      "inputs": [
        {
          "internalType": "address",
          "name": "_governance",
          "type": "address"
        }
      ],
      "name": "setGovernance",
      "outputs": [],
      "stateMutability": "nonpayable",
      "type": "function"
    },
    {
      "inputs": [
        {
          "internalType": "address",
          "name": "_yangView",
          "type": "address"
        }
      ],
      "name": "setYangView",
      "outputs": [],
      "stateMutability": "nonpayable",
      "type": "function"
    },
    {
      "inputs": [
        {
          "components": [
            {
              "internalType": "uint256",
              "name": "yangId",
              "type": "uint256"
            },
            {
              "internalType": "uint256",
              "name": "chiId",
              "type": "uint256"
            },
            {
              "internalType": "uint256",
              "name": "amount0Desired",
              "type": "uint256"
            },
            {
              "internalType": "uint256",
              "name": "amount1Desired",
              "type": "uint256"
            },
            {
              "internalType": "uint256",
              "name": "amount0Min",
              "type": "uint256"
            },
            {
              "internalType": "uint256",
              "name": "amount1Min",
              "type": "uint256"
            }
          ],
          "internalType": "struct IYangNFTVault.SubscribeParam",
          "name": "params",
          "type": "tuple"
        }
      ],
      "name": "subscribe",
      "outputs": [
        {
          "internalType": "uint256",
          "name": "",
          "type": "uint256"
        }
      ],
      "stateMutability": "nonpayable",
      "type": "function"
    },
    {
      "inputs": [
        {
          "internalType": "bytes4",
          "name": "interfaceId",
          "type": "bytes4"
        }
      ],
      "name": "supportsInterface",
      "outputs": [
        {
          "internalType": "bool",
          "name": "",
          "type": "bool"
        }
      ],
      "stateMutability": "view",
      "type": "function"
    },
    {
      "inputs": [],
      "name": "symbol",
      "outputs": [
        {
          "internalType": "string",
          "name": "",
          "type": "string"
        }
      ],
      "stateMutability": "view",
      "type": "function"
    },
    {
      "inputs": [
        {
          "internalType": "uint256",
          "name": "index",
          "type": "uint256"
        }
      ],
      "name": "tokenByIndex",
      "outputs": [
        {
          "internalType": "uint256",
          "name": "",
          "type": "uint256"
        }
      ],
      "stateMutability": "view",
      "type": "function"
    },
    {
      "inputs": [
        {
          "internalType": "address",
          "name": "owner",
          "type": "address"
        },
        {
          "internalType": "uint256",
          "name": "index",
          "type": "uint256"
        }
      ],
      "name": "tokenOfOwnerByIndex",
      "outputs": [
        {
          "internalType": "uint256",
          "name": "",
          "type": "uint256"
        }
      ],
      "stateMutability": "view",
      "type": "function"
    },
    {
      "inputs": [
        {
          "internalType": "uint256",
          "name": "tokenId",
          "type": "uint256"
        }
      ],
      "name": "tokenURI",
      "outputs": [
        {
          "internalType": "string",
          "name": "",
          "type": "string"
        }
      ],
      "stateMutability": "view",
      "type": "function"
    },
    {
      "inputs": [],
      "name": "totalSupply",
      "outputs": [
        {
          "internalType": "uint256",
          "name": "",
          "type": "uint256"
        }
      ],
      "stateMutability": "view",
      "type": "function"
    },
    {
      "inputs": [
        {
          "internalType": "address",
          "name": "from",
          "type": "address"
        },
        {
          "internalType": "address",
          "name": "to",
          "type": "address"
        },
        {
          "internalType": "uint256",
          "name": "tokenId",
          "type": "uint256"
        }
      ],
      "name": "transferFrom",
      "outputs": [],
      "stateMutability": "nonpayable",
      "type": "function"
    },
    {
      "inputs": [
        {
          "components": [
            {
              "internalType": "uint256",
              "name": "yangId",
              "type": "uint256"
            },
            {
              "internalType": "uint256",
              "name": "chiId",
              "type": "uint256"
            },
            {
              "internalType": "uint256",
              "name": "shares",
              "type": "uint256"
            },
            {
              "internalType": "uint256",
              "name": "amount0Min",
              "type": "uint256"
            },
            {
              "internalType": "uint256",
              "name": "amount1Min",
              "type": "uint256"
            }
          ],
          "internalType": "struct IYangNFTVault.UnSubscribeParam",
          "name": "params",
          "type": "tuple"
        }
      ],
      "name": "unsubscribe",
      "outputs": [],
      "stateMutability": "nonpayable",
      "type": "function"
    },
    {
      "inputs": [
        {
          "internalType": "uint256",
          "name": "tokenId",
          "type": "uint256"
        },
        {
          "internalType": "address",
          "name": "token0",
          "type": "address"
        },
        {
          "internalType": "uint256",
          "name": "amount0",
          "type": "uint256"
        },
        {
          "internalType": "address",
          "name": "token1",
          "type": "address"
        },
        {
          "internalType": "uint256",
          "name": "amount1",
          "type": "uint256"
        }
      ],
      "name": "withdraw",
      "outputs": [],
      "stateMutability": "nonpayable",
      "type": "function"
    },
    {
      "inputs": [
        {
          "internalType": "address",
          "name": "recipient",
          "type": "address"
        },
        {
          "internalType": "address",
          "name": "token",
          "type": "address"
        },
        {
          "internalType": "uint256",
          "name": "tokenId",
          "type": "uint256"
        }
      ],
      "name": "yangPositions",
      "outputs": [
        {
          "internalType": "uint256",
          "name": "",
          "type": "uint256"
        }
      ],
      "stateMutability": "view",
      "type": "function"
    },
    {
      "inputs": [],
      "name": "yangView",
      "outputs": [
        {
          "internalType": "address",
          "name": "",
          "type": "address"
        }
      ],
      "stateMutability": "view",
      "type": "function"
    }
  ],
  "bytecode": "0x608060405260016010553480156200001657600080fd5b50604051620045773803806200457783398101604081905262000039916200026c565b604080518082018252601481527f59414e472773204173736574204d616e616765720000000000000000000000006020808301919091528251808401909352600483526359414e4760e01b90830152600160005590620000a06301ffc9a760e01b62000138565b8151620000b5906007906020850190620001c0565b508051620000cb906008906020840190620001c0565b50620000de6380ac58cd60e01b62000138565b620000f0635b5e139f60e01b62000138565b6200010263780e9d6360e01b62000138565b5050600b8054336001600160a01b031991821617909155600c80549091166001600160a01b03929092169190911790556200029c565b6001600160e01b0319808216141562000198576040805162461bcd60e51b815260206004820152601c60248201527f4552433136353a20696e76616c696420696e7465726661636520696400000000604482015290519081900360640190fd5b6001600160e01b0319166000908152600160208190526040909120805460ff19169091179055565b828054600181600116156101000203166002900490600052602060002090601f016020900481019282620001f8576000855562000243565b82601f106200021357805160ff191683800117855562000243565b8280016001018555821562000243579182015b828111156200024357825182559160200191906001019062000226565b506200025192915062000255565b5090565b5b8082111562000251576000815560010162000256565b6000602082840312156200027e578081fd5b81516001600160a01b038116811462000295578182fd5b9392505050565b6142cb80620002ac6000396000f3fe608060405234801561001057600080fd5b50600436106102775760003560e01c80635c0d107e116101605780638da5cb5b116100d8578063b88d4fde1161008c578063e5d9cc9a11610071578063e5d9cc9a146104fd578063e985e9c514610510578063f94e4e801461052357610277565b8063b88d4fde146104d7578063c87b56dd146104ea57610277565b8063a22cb465116100bd578063a22cb4651461049e578063a244a481146104b1578063ab033ea9146104c457610277565b80638da5cb5b1461048e57806395d89b411461049657610277565b806365f13f2c1161012f5780636c0360eb116101145780636c0360eb1461044f57806370a08231146104575780638ae881ab1461046a57610277565b806365f13f2c146104295780636a6278421461043c57610277565b80635c0d107e146103e85780635f0600f7146103fb5780636352211e1461040e57806365b98e001461042157610277565b8063238efcbc116101f35780633ab2e4ba116101c257806342e6e0fe116101a757806342e6e0fe146103af5780634f6ccce7146103c2578063536fbbf7146103d557610277565b80633ab2e4ba1461038957806342842e0e1461039c57610277565b8063238efcbc1461034857806323b872dd146103505780632599da08146103635780632f745c591461037657610277565b8063095ea7b31161024a5780631468c8651161022f5780631468c8651461030c57806318160ddd1461032d5780631d322dbb1461033557610277565b8063095ea7b3146102ef57806312d43a511461030457610277565b8063010a38f51461027c57806301ffc9a71461029a57806306fdde03146102ba578063081812fc146102cf575b600080fd5b61028461052b565b6040516102919190613f73565b60405180910390f35b6102ad6102a8366004613a02565b61053e565b6040516102919190613ceb565b6102c2610579565b6040516102919190613cf6565b6102e26102dd3660046139ea565b61060f565b6040516102919190613c8d565b6103026102fd3660046139bf565b610671565b005b6102e2610747565b61031f61031a366004613baa565b610756565b604051610291929190613f7c565b61028461091e565b610302610343366004613b36565b61092f565b610302610a55565b61030261035e366004613898565b610aac565b610284610371366004613898565b610b03565b6102846103843660046139bf565b610b72565b610302610397366004613ab5565b610b9d565b6103026103aa366004613898565b610fa6565b6102846103bd366004613be2565b610fc1565b6102846103d03660046139ea565b611123565b6103026103e3366004613b36565b611139565b6102846103f6366004613a42565b61124a565b61031f6104093660046139ea565b6117b3565b6102e261041c3660046139ea565b6118e6565b6102e261190e565b6103026104373660046137a3565b61191d565b61028461044a3660046137a3565b611976565b6102c2611a37565b6102846104653660046137a3565b611a98565b61047d6104783660046139ea565b611b00565b604051610291959493929190613f38565b6102e2611b80565b6102c2611b8f565b6103026104ac36600461398e565b611bf0565b6103026104bf3660046137a3565b611d13565b6103026104d23660046137a3565b611d6c565b6103026104e53660046138d8565b611dc5565b6102c26104f83660046139ea565b611e23565b61031f61050b3660046139ea565b6120a4565b6102ad61051e3660046137db565b612248565b6102e2612276565b3360009081526011602052604090205490565b7fffffffff00000000000000000000000000000000000000000000000000000000811660009081526001602052604090205460ff165b919050565b60078054604080516020601f60026000196101006001881615020190951694909404938401819004810282018101909252828152606093909290918301828280156106055780601f106105da57610100808354040283529160200191610605565b820191906000526020600020905b8154815290600101906020018083116105e857829003601f168201915b5050505050905090565b600061061a82612285565b6106555760405162461bcd60e51b815260040180806020018281038252602c815260200180614189602c913960400191505060405180910390fd5b506000908152600560205260409020546001600160a01b031690565b600061067c826118e6565b9050806001600160a01b0316836001600160a01b031614156106cf5760405162461bcd60e51b815260040180806020018281038252602181526020018061420d6021913960400191505060405180910390fd5b806001600160a01b03166106e1612292565b6001600160a01b031614806106fd57506106fd8161051e612292565b6107385760405162461bcd60e51b81526004018080602001828103825260388152602001806140dc6038913960400191505060405180910390fd5b6107428383612296565b505050565b600c546001600160a01b031681565b600e5460009081906001600160a01b031661078c5760405162461bcd60e51b815260040161078390613db7565b60405180910390fd5b60008585856040516020016107a393929190613c65565b60408051601f198184030181529181528151602092830120600081815260139093529120549091501561091557600e54604051635cef66b360e11b815260009182916001600160a01b039091169063b9decd6690610805908a90600401613f73565b6101006040518083038186803b15801561081e57600080fd5b505afa158015610832573d6000803e3d6000fd5b505050506040513d601f19601f820116820180604052508101906108569190613813565b5050600f5460008a815260136020526040908190205490517fabb543880000000000000000000000000000000000000000000000000000000081529599509397506001600160a01b0316955063abb5438894506108be9388938893508f925090600401613ca1565b604080518083038186803b1580156108d557600080fd5b505afa1580156108e9573d6000803e3d6000fd5b505050506040513d601f19601f8201168201806040525081019061090d9190613b87565b909550935050505b50935093915050565b600061092a6003612311565b905090565b8461093a338261231c565b6109565760405162461bcd60e51b815260040161078390613e93565b600260005414156109ae576040805162461bcd60e51b815260206004820152601f60248201527f5265656e7472616e637947756172643a207265656e7472616e742063616c6c00604482015290519081900360640190fd5b6002600055836109d05760405162461bcd60e51b815260040161078390613d80565b600082116109f05760405162461bcd60e51b815260040161078390613d80565b6109fb8686866123c0565b610a068684846123c0565b846001600160a01b0316867fa51bb7c2c2049ab09fbff5561211a4ee34b3b4cee74c42f1bce5461cd4ef3f8d85604051610a409190613c8d565b60405180910390a35050600160005550505050565b600d546001600160a01b03163314610a7f5760405162461bcd60e51b815260040161078390613f01565b600c805473ffffffffffffffffffffffffffffffffffffffff199081163317909155600d80549091169055565b610abd610ab7612292565b8261231c565b610af85760405162461bcd60e51b815260040180806020018281038252603181526020018061422e6031913960400191505060405180910390fd5b610742838383612407565b6000610b0f848361231c565b610b2b5760405162461bcd60e51b815260040161078390613e93565b6000828585604051602001610b4293929190613c3a565b60408051601f198184030181529181528151602092830120600090815260129092529020549150505b9392505050565b6001600160a01b0382166000908152600260205260408120610b949083612553565b90505b92915050565b8051610ba9338261231c565b610bc55760405162461bcd60e51b815260040161078390613e93565b60026000541415610c1d576040805162461bcd60e51b815260206004820152601f60248201527f5265656e7472616e637947756172643a207265656e7472616e742063616c6c00604482015290519081900360640190fd5b6002600055600e546001600160a01b0316610c4a5760405162461bcd60e51b815260040161078390613db7565b600e546020830151604051635cef66b360e11b815260009283926001600160a01b039091169163b9decd6691610c8291600401613f73565b6101006040518083038186803b158015610c9b57600080fd5b505afa158015610caf573d6000803e3d6000fd5b505050506040513d601f19601f82011682018060405250810190610cd39190613813565b5050505093509350505060008460000151856020015133604051602001610cfc93929190613c65565b604051602081830303815290604052805190602001209050846040015160136000838152602001908152602001600020541015610d4b5760405162461bcd60e51b815260040161078390613eca565b600e548551602087015160408089015160608a015160808b015192517f46698e7500000000000000000000000000000000000000000000000000000000815260009687966001600160a01b03909116956346698e7595610db19592949193600401613f8a565b6040805180830381600087803b158015610dca57600080fd5b505af1158015610dde573d6000803e3d6000fd5b505050506040513d601f19601f82011682018060405250810190610e029190613b87565b6040808a0151600087815260136020529190912054929450909250610e27919061255f565b60136000858152602001908152602001600020819055506000859050610ec28860000151826001600160a01b0316630dfe16816040518163ffffffff1660e01b815260040160206040518083038186803b158015610e8457600080fd5b505afa158015610e98573d6000803e3d6000fd5b505050506040513d601f19601f82011682018060405250810190610ebc91906137bf565b856125bc565b610f418860000151826001600160a01b031663d21220a76040518163ffffffff1660e01b815260040160206040518083038186803b158015610f0357600080fd5b505afa158015610f17573d6000803e3d6000fd5b505050506040513d601f19601f82011682018060405250810190610f3b91906137bf565b846125bc565b87518590610f55906014908490849061261a565b602089015189516040517fb65ca58d729d89d58e1ed48a179b40d4a6b56e3e101a10085a0f43915cf1448890610f8e9088908890613f7c565b60405180910390a35050600160005550505050505050565b61074283838360405180602001604052806000815250611dc5565b600e546000906001600160a01b0316610fec5760405162461bcd60e51b815260040161078390613db7565b600e54604051635cef66b360e11b81526000916001600160a01b03169063b9decd669061101d908890600401613f73565b6101006040518083038186803b15801561103657600080fd5b505afa15801561104a573d6000803e3d6000fd5b505050506040513d601f19601f8201168201806040525081019061106e9190613813565b5050600f546040517f82dc04db000000000000000000000000000000000000000000000000000000008152939750600096506001600160a01b031694506382dc04db93506110c6928792508a91508990600401613cca565b60606040518083038186803b1580156110de57600080fd5b505afa1580156110f2573d6000803e3d6000fd5b505050506040513d601f19601f820116820180604052508101906111169190613c0d565b5090979650505050505050565b600080611131600384612809565b509392505050565b84611144338261231c565b6111605760405162461bcd60e51b815260040161078390613e93565b600260005414156111b8576040805162461bcd60e51b815260206004820152601f60248201527f5265656e7472616e637947756172643a207265656e7472616e742063616c6c00604482015290519081900360640190fd5b6002600055836111da5760405162461bcd60e51b815260040161078390613d80565b600082116111fa5760405162461bcd60e51b815260040161078390613d80565b611205868686612825565b611210868484612825565b846001600160a01b0316867fa3d2cbcb90e0658235d4ba62aed9a50c231df9bc5bbfb74c95badbc798f38d1a85604051610a409190613c8d565b8051600090611259338261231c565b6112755760405162461bcd60e51b815260040161078390613e93565b600260005414156112cd576040805162461bcd60e51b815260206004820152601f60248201527f5265656e7472616e637947756172643a207265656e7472616e742063616c6c00604482015290519081900360640190fd5b6002600055600e546001600160a01b03166112fa5760405162461bcd60e51b815260040161078390613db7565b600e546020840151604051635cef66b360e11b815260009283926001600160a01b039091169163b9decd669161133291600401613f73565b6101006040518083038186803b15801561134b57600080fd5b505afa15801561135f573d6000803e3d6000fd5b505050506040513d601f19601f820116820180604052508101906113839190613813565b505050509350935050506000829050611431600e60009054906101000a90046001600160a01b03168760400151836001600160a01b0316630dfe16816040518163ffffffff1660e01b815260040160206040518083038186803b1580156113e957600080fd5b505afa1580156113fd573d6000803e3d6000fd5b505050506040513d601f19601f8201168201806040525081019061142191906137bf565b6001600160a01b0316919061286c565b611488600e60009054906101000a90046001600160a01b03168760600151836001600160a01b031663d21220a76040518163ffffffff1660e01b815260040160206040518083038186803b1580156113e957600080fd5b600e54865160208801516040808a015160608b015160808c015160a08d015193517fec28fcac000000000000000000000000000000000000000000000000000000008152600097889788976001600160a01b039092169663ec28fcac966114f9969295939490939190600401613fad565b606060405180830381600087803b15801561151357600080fd5b505af1158015611527573d6000803e3d6000fd5b505050506040513d601f19601f8201168201806040525081019061154b9190613c0d565b9250925092506115d08960000151856001600160a01b0316630dfe16816040518163ffffffff1660e01b815260040160206040518083038186803b15801561159257600080fd5b505afa1580156115a6573d6000803e3d6000fd5b505050506040513d601f19601f820116820180604052508101906115ca91906137bf565b846129c6565b61164f8960000151856001600160a01b031663d21220a76040518163ffffffff1660e01b815260040160206040518083038186803b15801561161157600080fd5b505afa158015611625573d6000803e3d6000fd5b505050506040513d601f19601f8201168201806040525081019061164991906137bf565b836129c6565b6116a3600e60009054906101000a90046001600160a01b03166000866001600160a01b0316630dfe16816040518163ffffffff1660e01b815260040160206040518083038186803b1580156113e957600080fd5b6116f7600e60009054906101000a90046001600160a01b03166000866001600160a01b031663d21220a76040518163ffffffff1660e01b815260040160206040518083038186803b1580156113e957600080fd5b600089600001518a602001513360405160200161171693929190613c65565b60408051601f198184030181529181528151602092830120600081815260139093529120549091506117489085612a41565b6000828152601360205260409020558951869061176b906014908890849061261a565b60208b01518b51604051879291907f17de92c1076ec5855c3edd4a6084a82c184adfda177deb99d6532697cdac91cb90600090a4505060016000555090979650505050505050565b600e5460009081906001600160a01b03166117e05760405162461bcd60e51b815260040161078390613db7565b600e54604051635cef66b360e11b81526000916001600160a01b03169063b9decd6690611811908790600401613f73565b6101006040518083038186803b15801561182a57600080fd5b505afa15801561183e573d6000803e3d6000fd5b505050506040513d601f19601f820116820180604052508101906118629190613813565b505050509350505050806001600160a01b031663c4a7761e6040518163ffffffff1660e01b8152600401604080518083038186803b1580156118a357600080fd5b505afa1580156118b7573d6000803e3d6000fd5b505050506040513d601f19601f820116820180604052508101906118db9190613b87565b909590945092505050565b6000610b978260405180606001604052806029815260200161413e6029913960039190612a9b565b600f546001600160a01b031681565b600b546001600160a01b031633146119475760405162461bcd60e51b815260040161078390613e5c565b600f805473ffffffffffffffffffffffffffffffffffffffff19166001600160a01b0392909216919091179055565b600c546000906001600160a01b031633146119a35760405162461bcd60e51b815260040161078390613e25565b6001600160a01b038216600090815260116020526040902054156119d95760405162461bcd60e51b815260040161078390613d49565b5060108054600181019091556119ef8282612aa8565b6001600160a01b038216600081815260116020526040808220849055518392917f74629109564de5ce9d04dc84bb5ecd8fbb0c98843a3fbd43f057825a9255449c91a3919050565b600a8054604080516020601f60026000196101006001881615020190951694909404938401819004810282018101909252828152606093909290918301828280156106055780601f106105da57610100808354040283529160200191610605565b60006001600160a01b038216611adf5760405162461bcd60e51b815260040180806020018281038252602a815260200180614114602a913960400191505060405180910390fd5b6001600160a01b0382166000908152600260205260409020610b9790612311565b600090815260146020908152604091829020825160a08101845281546fffffffffffffffffffffffffffffffff908116808352600184015494830185905260028401549583018690526003909301548082166060840181905270010000000000000000000000000000000090910490911660809092018290529194929392565b600b546001600160a01b031681565b60088054604080516020601f60026000196101006001881615020190951694909404938401819004810282018101909252828152606093909290918301828280156106055780601f106105da57610100808354040283529160200191610605565b611bf8612292565b6001600160a01b0316826001600160a01b03161415611c5e576040805162461bcd60e51b815260206004820152601960248201527f4552433732313a20617070726f766520746f2063616c6c657200000000000000604482015290519081900360640190fd5b8060066000611c6b612292565b6001600160a01b0390811682526020808301939093526040918201600090812091871680825291909352912080547fffffffffffffffffffffffffffffffffffffffffffffffffffffffffffffff001692151592909217909155611ccd612292565b6001600160a01b03167f17307eab39ab6107e8899845ad3d59bd9653f200f220920489ca2b5937696c318360405180821515815260200191505060405180910390a35050565b600b546001600160a01b03163314611d3d5760405162461bcd60e51b815260040161078390613e5c565b600e805473ffffffffffffffffffffffffffffffffffffffff19166001600160a01b0392909216919091179055565b600c546001600160a01b03163314611d965760405162461bcd60e51b815260040161078390613e25565b600d805473ffffffffffffffffffffffffffffffffffffffff19166001600160a01b0392909216919091179055565b611dd6611dd0612292565b8361231c565b611e115760405162461bcd60e51b815260040180806020018281038252603181526020018061422e6031913960400191505060405180910390fd5b611e1d84848484612bd6565b50505050565b6060611e2e82612285565b611e695760405162461bcd60e51b815260040180806020018281038252602f8152602001806141de602f913960400191505060405180910390fd5b60008281526009602090815260408083208054825160026001831615610100026000190190921691909104601f810185900485028201850190935282815292909190830182828015611efc5780601f10611ed157610100808354040283529160200191611efc565b820191906000526020600020905b815481529060010190602001808311611edf57829003601f168201915b505050505090506000611f0d611a37565b9050805160001415611f2157509050610574565b815115611fe25780826040516020018083805190602001908083835b60208310611f5c5780518252601f199092019160209182019101611f3d565b51815160209384036101000a600019018019909216911617905285519190930192850191508083835b60208310611fa45780518252601f199092019160209182019101611f85565b6001836020036101000a0380198251168184511680821785525050505050509050019250505060405160208183030381529060405292505050610574565b80611fec85612c28565b6040516020018083805190602001908083835b6020831061201e5780518252601f199092019160209182019101611fff565b51815160209384036101000a600019018019909216911617905285519190930192850191508083835b602083106120665780518252601f199092019160209182019101612047565b6001836020036101000a0380198251168184511680821785525050505050509050019250505060405160208183030381529060405292505050919050565b600e5460009081906001600160a01b03166120d15760405162461bcd60e51b815260040161078390613db7565b600e54604051635cef66b360e11b81526000916001600160a01b03169063b9decd6690612102908790600401613f73565b6101006040518083038186803b15801561211b57600080fd5b505afa15801561212f573d6000803e3d6000fd5b505050506040513d601f19601f820116820180604052508101906121539190613813565b505050509350505050806001600160a01b031663eae989a26040518163ffffffff1660e01b815260040160206040518083038186803b15801561219557600080fd5b505afa1580156121a9573d6000803e3d6000fd5b505050506040513d601f19601f820116820180604052508101906121cd9190613b1e565b9250806001600160a01b031663a00fa77f6040518163ffffffff1660e01b815260040160206040518083038186803b15801561220857600080fd5b505afa15801561221c573d6000803e3d6000fd5b505050506040513d601f19601f820116820180604052508101906122409190613b1e565b915050915091565b6001600160a01b03918216600090815260066020908152604080832093909416825291909152205460ff1690565b600d546001600160a01b031681565b6000610b97600383612d37565b3390565b6000818152600560205260409020805473ffffffffffffffffffffffffffffffffffffffff19166001600160a01b03841690811790915581906122d8826118e6565b6001600160a01b03167f8c5be1e5ebec7d5bd14f71427d1e84f3dd0314c0f7b2291e5b200ac8c7c3b92560405160405180910390a45050565b6000610b9782612d43565b600061232782612285565b6123625760405162461bcd60e51b815260040180806020018281038252602c8152602001806140b0602c913960400191505060405180910390fd5b600061236d836118e6565b9050806001600160a01b0316846001600160a01b031614806123a85750836001600160a01b031661239d8461060f565b6001600160a01b0316145b806123b857506123b88185612248565b949350505050565b826123cb338261231c565b6123e75760405162461bcd60e51b815260040161078390613e93565b6123f28484846129c6565b611e1d6001600160a01b038416303385612d47565b826001600160a01b031661241a826118e6565b6001600160a01b03161461245f5760405162461bcd60e51b81526004018080602001828103825260298152602001806141b56029913960400191505060405180910390fd5b6001600160a01b0382166124a45760405162461bcd60e51b81526004018080602001828103825260248152602001806140666024913960400191505060405180910390fd5b6124af838383610742565b6124ba600082612296565b6001600160a01b03831660009081526002602052604090206124dc9082612dcf565b506001600160a01b03821660009081526002602052604090206124ff9082612ddb565b5061250c60038284612de7565b5080826001600160a01b0316846001600160a01b03167fddf252ad1be2c89b69c2b068fc378daa952ba7f163c4a11628f55a4df523b3ef60405160405180910390a4505050565b6000610b948383612dfd565b6000828211156125b6576040805162461bcd60e51b815260206004820152601e60248201527f536166654d6174683a207375627472616374696f6e206f766572666c6f770000604482015290519081900360640190fd5b50900390565b60008333846040516020016125d393929190613c3a565b60408051601f198184030181529181528151602092830120600081815260129093529120549091506126059083612a41565b60009182526012602052604090912055505050565b60005b826001600160a01b031663b135a1456040518163ffffffff1660e01b815260040160206040518083038186803b15801561265657600080fd5b505afa15801561266a573d6000803e3d6000fd5b505050506040513d602081101561268057600080fd5b505181101561280257600080846001600160a01b031663cc364f48846040518263ffffffff1660e01b815260040180828152602001915050604080518083038186803b1580156126cf57600080fd5b505afa1580156126e3573d6000803e3d6000fd5b505050506040513d60408110156126f957600080fd5b5080516020909101519092509050600061271587878585612e61565b6fffffffffffffffffffffffffffffffff1611156127f857600061273c8886888686612ee6565b905060008060008060008b6001600160a01b031663514ea4bf6127608d8b8b612f10565b6040518263ffffffff1660e01b81526004018082815260200191505060a06040518083038186803b15801561279457600080fd5b505afa1580156127a8573d6000803e3d6000fd5b505050506040513d60a08110156127be57600080fd5b508051602082015160408301516060840151608090940151929850909650945090925090506127f1868686868686612f66565b5050505050505b505060010161261d565b5050505050565b60008080806128188686612fe3565b9097909650945050505050565b82612830338261231c565b61284c5760405162461bcd60e51b815260040161078390613e93565b6128616001600160a01b038416333085612d47565b611e1d8484846125bc565b80158061290b5750604080517fdd62ed3e0000000000000000000000000000000000000000000000000000000081523060048201526001600160a01b03848116602483015291519185169163dd62ed3e91604480820192602092909190829003018186803b1580156128dd57600080fd5b505afa1580156128f1573d6000803e3d6000fd5b505050506040513d602081101561290757600080fd5b5051155b6129465760405162461bcd60e51b81526004018080602001828103825260368152602001806142896036913960400191505060405180910390fd5b604080516001600160a01b038416602482015260448082018490528251808303909101815260649091019091526020810180517bffffffffffffffffffffffffffffffffffffffffffffffffffffffff167f095ea7b30000000000000000000000000000000000000000000000000000000017905261074290849061305e565b60008333846040516020016129dd93929190613c3a565b6040516020818303038152906040528051906020012090508160126000838152602001908152602001600020541015612a285760405162461bcd60e51b815260040161078390613dee565b600081815260126020526040902054612605908361255f565b600082820183811015610b94576040805162461bcd60e51b815260206004820152601b60248201527f536166654d6174683a206164646974696f6e206f766572666c6f770000000000604482015290519081900360640190fd5b60006123b884848461310f565b6001600160a01b038216612b03576040805162461bcd60e51b815260206004820181905260248201527f4552433732313a206d696e7420746f20746865207a65726f2061646472657373604482015290519081900360640190fd5b612b0c81612285565b15612b5e576040805162461bcd60e51b815260206004820152601c60248201527f4552433732313a20746f6b656e20616c7265616479206d696e74656400000000604482015290519081900360640190fd5b612b6a60008383610742565b6001600160a01b0382166000908152600260205260409020612b8c9082612ddb565b50612b9960038284612de7565b5060405181906001600160a01b038416906000907fddf252ad1be2c89b69c2b068fc378daa952ba7f163c4a11628f55a4df523b3ef908290a45050565b612be1848484612407565b612bed848484846131d9565b611e1d5760405162461bcd60e51b81526004018080602001828103825260328152602001806140346032913960400191505060405180910390fd5b606081612c69575060408051808201909152600181527f30000000000000000000000000000000000000000000000000000000000000006020820152610574565b8160005b8115612c8157600101600a82049150612c6d565b60008167ffffffffffffffff81118015612c9a57600080fd5b506040519080825280601f01601f191660200182016040528015612cc5576020820181803683370190505b50859350905060001982015b8315612d2e57600a840660300160f81b82828060019003935081518110612cf457fe5b60200101907effffffffffffffffffffffffffffffffffffffffffffffffffffffffffffff1916908160001a905350600a84049350612cd1565b50949350505050565b6000610b9483836133b5565b5490565b604080516001600160a01b0380861660248301528416604482015260648082018490528251808303909101815260849091019091526020810180517bffffffffffffffffffffffffffffffffffffffffffffffffffffffff167f23b872dd00000000000000000000000000000000000000000000000000000000179052611e1d90859061305e565b6000610b9483836133cd565b6000610b948383613493565b60006123b884846001600160a01b0385166134dd565b81546000908210612e3f5760405162461bcd60e51b81526004018080602001828103825260228152602001806140126022913960400191505060405180910390fd5b826000018281548110612e4e57fe5b9060005260206000200154905092915050565b6000846001600160a01b031663514ea4bf612e7d868686612f10565b6040518263ffffffff1660e01b81526004018082815260200191505060a06040518083038186803b158015612eb157600080fd5b505afa158015612ec5573d6000803e3d6000fd5b505050506040513d60a0811015612edb57600080fd5b505195945050505050565b6000856000612ef787878787613574565b8152602001908152602001600020905095945050505050565b6040805160609490941b6bffffffffffffffffffffffff1916602080860191909152600293840b60e890811b60348701529290930b90911b60378401528051808403601a018152603a9093019052815191012090565b85546fffffffffffffffffffffffffffffffff9586167fffffffffffffffffffffffffffffffff000000000000000000000000000000009182161787556001870194909455600286019290925560039094018054918416700100000000000000000000000000000000029484169190921617909116919091179055565b8154600090819083106130275760405162461bcd60e51b81526004018080602001828103825260228152602001806141676022913960400191505060405180910390fd5b600084600001848154811061303857fe5b906000526020600020906002020190508060000154816001015492509250509250929050565b60006130b3826040518060400160405280602081526020017f5361666545524332303a206c6f772d6c6576656c2063616c6c206661696c6564815250856001600160a01b03166135cd9092919063ffffffff16565b805190915015610742578080602001905160208110156130d257600080fd5b50516107425760405162461bcd60e51b815260040180806020018281038252602a81526020018061425f602a913960400191505060405180910390fd5b600082815260018401602052604081205482816131aa5760405162461bcd60e51b81526004018080602001828103825283818151815260200191508051906020019080838360005b8381101561316f578181015183820152602001613157565b50505050905090810190601f16801561319c5780820380516001836020036101000a031916815260200191505b509250505060405180910390fd5b508460000160018203815481106131bd57fe5b9060005260206000209060020201600101549150509392505050565b60006131ed846001600160a01b03166135dc565b6131f9575060016123b8565b600061334a7f150b7a0200000000000000000000000000000000000000000000000000000000613227612292565b88878760405160240180856001600160a01b03168152602001846001600160a01b0316815260200183815260200180602001828103825283818151815260200191508051906020019080838360005b8381101561328e578181015183820152602001613276565b50505050905090810190601f1680156132bb5780820380516001836020036101000a031916815260200191505b5095505050505050604051602081830303815290604052907bffffffffffffffffffffffffffffffffffffffffffffffffffffffff19166020820180517bffffffffffffffffffffffffffffffffffffffffffffffffffffffff8381831617835250505050604051806060016040528060328152602001614034603291396001600160a01b03881691906135cd565b9050600081806020019051602081101561336357600080fd5b50517fffffffff00000000000000000000000000000000000000000000000000000000167f150b7a02000000000000000000000000000000000000000000000000000000001492505050949350505050565b60009081526001919091016020526040902054151590565b60008181526001830160205260408120548015613489578354600019808301919081019060009087908390811061340057fe5b906000526020600020015490508087600001848154811061341d57fe5b60009182526020808320909101929092558281526001898101909252604090209084019055865487908061344d57fe5b60019003818190600052602060002001600090559055866001016000878152602001908152602001600020600090556001945050505050610b97565b6000915050610b97565b600061349f83836133b5565b6134d557508154600181810184556000848152602080822090930184905584548482528286019093526040902091909155610b97565b506000610b97565b600082815260018401602052604081205480613542575050604080518082018252838152602080820184815286546001818101895560008981528481209551600290930290950191825591519082015586548684528188019092529290912055610b6b565b8285600001600183038154811061355557fe5b9060005260206000209060020201600101819055506000915050610b6b565b6040805160208082019690965260609490941b6bffffffffffffffffffffffff191684820152600292830b60e890811b60548601529190920b901b60578301528051808303603a018152605a9092019052805191012090565b60606123b884846000856135e2565b3b151590565b6060824710156136235760405162461bcd60e51b815260040180806020018281038252602681526020018061408a6026913960400191505060405180910390fd5b61362c856135dc565b61367d576040805162461bcd60e51b815260206004820152601d60248201527f416464726573733a2063616c6c20746f206e6f6e2d636f6e7472616374000000604482015290519081900360640190fd5b600080866001600160a01b031685876040518082805190602001908083835b602083106136bb5780518252601f19909201916020918201910161369c565b6001836020036101000a03801982511681845116808217855250505050505090500191505060006040518083038185875af1925050503d806000811461371d576040519150601f19603f3d011682016040523d82523d6000602084013e613722565b606091505b509150915061373282828661373d565b979650505050505050565b6060831561374c575081610b6b565b82511561375c5782518084602001fd5b60405162461bcd60e51b815260206004820181815284516024840152845185939192839260440191908501908083836000831561316f578181015183820152602001613157565b6000602082840312156137b4578081fd5b8135610b9481613ff9565b6000602082840312156137d0578081fd5b8151610b9481613ff9565b600080604083850312156137ed578081fd5b82356137f881613ff9565b9150602083013561380881613ff9565b809150509250929050565b600080600080600080600080610100898b03121561382f578384fd5b885161383a81613ff9565b60208a015190985061384b81613ff9565b60408a015190975061385c81613ff9565b60608a015190965061386d81613ff9565b60808a015160a08b015160c08c015160e0909c01519a9d999c50979a91999098919650945092505050565b6000806000606084860312156138ac578283fd5b83356138b781613ff9565b925060208401356138c781613ff9565b929592945050506040919091013590565b600080600080608085870312156138ed578384fd5b84356138f881613ff9565b935060208581013561390981613ff9565b935060408601359250606086013567ffffffffffffffff8082111561392c578384fd5b818801915088601f83011261393f578384fd5b81358181111561394b57fe5b61395d84601f19601f84011601613fd5565b91508082528984828501011115613972578485fd5b8084840185840137810190920192909252939692955090935050565b600080604083850312156139a0578182fd5b82356139ab81613ff9565b915060208301358015158114613808578182fd5b600080604083850312156139d1578182fd5b82356139dc81613ff9565b946020939093013593505050565b6000602082840312156139fb578081fd5b5035919050565b600060208284031215613a13578081fd5b81357fffffffff0000000000000000000000000000000000000000000000000000000081168114610b94578182fd5b600060c08284031215613a53578081fd5b60405160c0810181811067ffffffffffffffff82111715613a7057fe5b8060405250823581526020830135602082015260408301356040820152606083013560608201526080830135608082015260a083013560a08201528091505092915050565b600060a08284031215613ac6578081fd5b60405160a0810181811067ffffffffffffffff82111715613ae357fe5b806040525082358152602083013560208201526040830135604082015260608301356060820152608083013560808201528091505092915050565b600060208284031215613b2f578081fd5b5051919050565b600080600080600060a08688031215613b4d578283fd5b853594506020860135613b5f81613ff9565b9350604086013592506060860135613b7681613ff9565b949793965091946080013592915050565b60008060408385031215613b99578182fd5b505080516020909101519092909150565b600080600060608486031215613bbe578081fd5b83359250602084013591506040840135613bd781613ff9565b809150509250925092565b600080600060608486031215613bf6578081fd5b505081359360208301359350604090920135919050565b600080600060608486031215613c21578081fd5b8351925060208401519150604084015190509250925092565b9283526bffffffffffffffffffffffff19606092831b81166020850152911b16603482015260480190565b928352602083019190915260601b6bffffffffffffffffffffffff1916604082015260540190565b6001600160a01b0391909116815260200190565b6001600160a01b0394851681529290931660208301526040820152606081019190915260800190565b6001600160a01b039390931683526020830191909152604082015260600190565b901515815260200190565b6000602080835283518082850152825b81811015613d2257858101830151858201604001528201613d06565b81811115613d335783604083870101525b50601f01601f1916929092016040019392505050565b60208082526002908201527f4f4f000000000000000000000000000000000000000000000000000000000000604082015260600190565b60208082526002908201527f4e5a000000000000000000000000000000000000000000000000000000000000604082015260600190565b60208082526003908201527f4348490000000000000000000000000000000000000000000000000000000000604082015260600190565b60208082526014908201527f696e73756666696369656e742062616c616e6365000000000000000000000000604082015260600190565b60208082526008908201527f6f6e6c7920676f76000000000000000000000000000000000000000000000000604082015260600190565b6020808252600a908201527f6f6e6c79206f776e657200000000000000000000000000000000000000000000604082015260600190565b6020808252600c908201527f6e6f7420617070726f7665640000000000000000000000000000000000000000604082015260600190565b60208082526013908201527f696e73756666696369656e742073686172657300000000000000000000000000604082015260600190565b60208082526008908201527f6e65787420676f76000000000000000000000000000000000000000000000000604082015260600190565b6fffffffffffffffffffffffffffffffff95861681526020810194909452604084019290925283166060830152909116608082015260a00190565b90815260200190565b918252602082015260400190565b948552602085019390935260408401919091526060830152608082015260a00190565b958652602086019490945260408501929092526060840152608083015260a082015260c00190565b60405181810167ffffffffffffffff81118282101715613ff157fe5b604052919050565b6001600160a01b038116811461400e57600080fd5b5056fe456e756d657261626c655365743a20696e646578206f7574206f6620626f756e64734552433732313a207472616e7366657220746f206e6f6e20455243373231526563656976657220696d706c656d656e7465724552433732313a207472616e7366657220746f20746865207a65726f2061646472657373416464726573733a20696e73756666696369656e742062616c616e636520666f722063616c6c4552433732313a206f70657261746f7220717565727920666f72206e6f6e6578697374656e7420746f6b656e4552433732313a20617070726f76652063616c6c6572206973206e6f74206f776e6572206e6f7220617070726f76656420666f7220616c6c4552433732313a2062616c616e636520717565727920666f7220746865207a65726f20616464726573734552433732313a206f776e657220717565727920666f72206e6f6e6578697374656e7420746f6b656e456e756d657261626c654d61703a20696e646578206f7574206f6620626f756e64734552433732313a20617070726f76656420717565727920666f72206e6f6e6578697374656e7420746f6b656e4552433732313a207472616e73666572206f6620746f6b656e2074686174206973206e6f74206f776e4552433732314d657461646174613a2055524920717565727920666f72206e6f6e6578697374656e7420746f6b656e4552433732313a20617070726f76616c20746f2063757272656e74206f776e65724552433732313a207472616e736665722063616c6c6572206973206e6f74206f776e6572206e6f7220617070726f7665645361666545524332303a204552433230206f7065726174696f6e20646964206e6f7420737563636565645361666545524332303a20617070726f76652066726f6d206e6f6e2d7a65726f20746f206e6f6e2d7a65726f20616c6c6f77616e6365a164736f6c6343000706000a",
  "linkReferences": {},
  "deployedLinkReferences": {}
}