{
  "_format": "hh-sol-artifact-1",
  "contractName": "YangNFTVault",
  "sourceName": "contracts/YangNFTVault.sol",
  "abi": [
    {
      "inputs": [],
      "stateMutability": "nonpayable",
      "type": "constructor"
    },
    {
      "anonymous": false,
      "inputs": [
        {
          "indexed": true,
          "internalType": "address",
          "name": "owner",
          "type": "address"
        },
        {
          "indexed": true,
          "internalType": "address",
          "name": "approved",
          "type": "address"
        },
        {
          "indexed": true,
          "internalType": "uint256",
          "name": "tokenId",
          "type": "uint256"
        }
      ],
      "name": "Approval",
      "type": "event"
    },
    {
      "anonymous": false,
      "inputs": [
        {
          "indexed": true,
          "internalType": "address",
          "name": "owner",
          "type": "address"
        },
        {
          "indexed": true,
          "internalType": "address",
          "name": "operator",
          "type": "address"
        },
        {
          "indexed": false,
          "internalType": "bool",
          "name": "approved",
          "type": "bool"
        }
      ],
      "name": "ApprovalForAll",
      "type": "event"
    },
    {
      "anonymous": false,
      "inputs": [
        {
          "indexed": true,
          "internalType": "address",
          "name": "recipient",
          "type": "address"
        },
        {
          "indexed": true,
          "internalType": "uint256",
          "name": "tokenId",
          "type": "uint256"
        }
      ],
      "name": "MintYangNFT",
      "type": "event"
    },
    {
      "anonymous": false,
      "inputs": [
        {
          "indexed": true,
          "internalType": "uint256",
          "name": "yangId",
          "type": "uint256"
        },
        {
          "indexed": true,
          "internalType": "uint256",
          "name": "chiId",
          "type": "uint256"
        },
        {
          "indexed": true,
          "internalType": "uint256",
          "name": "share",
          "type": "uint256"
        }
      ],
      "name": "Subscribe",
      "type": "event"
    },
    {
      "anonymous": false,
      "inputs": [
        {
          "indexed": true,
          "internalType": "address",
          "name": "from",
          "type": "address"
        },
        {
          "indexed": true,
          "internalType": "address",
          "name": "to",
          "type": "address"
        },
        {
          "indexed": true,
          "internalType": "uint256",
          "name": "tokenId",
          "type": "uint256"
        }
      ],
      "name": "Transfer",
      "type": "event"
    },
    {
      "anonymous": false,
      "inputs": [
        {
          "indexed": true,
          "internalType": "uint256",
          "name": "yangId",
          "type": "uint256"
        },
        {
          "indexed": true,
          "internalType": "uint256",
          "name": "chiId",
          "type": "uint256"
        },
        {
          "indexed": false,
          "internalType": "uint256",
          "name": "amount0",
          "type": "uint256"
        },
        {
          "indexed": false,
          "internalType": "uint256",
          "name": "amount1",
          "type": "uint256"
        }
      ],
      "name": "UnSubscribe",
      "type": "event"
    },
    {
      "inputs": [
        {
          "internalType": "address",
          "name": "to",
          "type": "address"
        },
        {
          "internalType": "uint256",
          "name": "tokenId",
          "type": "uint256"
        }
      ],
      "name": "approve",
      "outputs": [],
      "stateMutability": "nonpayable",
      "type": "function"
    },
    {
      "inputs": [
        {
          "internalType": "address",
          "name": "owner",
          "type": "address"
        }
      ],
      "name": "balanceOf",
      "outputs": [
        {
          "internalType": "uint256",
          "name": "",
          "type": "uint256"
        }
      ],
      "stateMutability": "view",
      "type": "function"
    },
    {
      "inputs": [],
      "name": "baseURI",
      "outputs": [
        {
          "internalType": "string",
          "name": "",
          "type": "string"
        }
      ],
      "stateMutability": "view",
      "type": "function"
    },
    {
      "inputs": [
        {
          "internalType": "address",
          "name": "token0",
          "type": "address"
        },
        {
          "internalType": "uint256",
          "name": "amount0",
          "type": "uint256"
        },
        {
          "internalType": "address",
          "name": "token1",
          "type": "address"
        },
        {
          "internalType": "uint256",
          "name": "amount1",
          "type": "uint256"
        }
      ],
      "name": "deposit",
      "outputs": [],
      "stateMutability": "nonpayable",
      "type": "function"
    },
    {
      "inputs": [
        {
          "internalType": "uint256",
          "name": "yangId",
          "type": "uint256"
        },
        {
          "internalType": "uint256",
          "name": "chiId",
          "type": "uint256"
        }
      ],
      "name": "getAmounts",
      "outputs": [
        {
          "internalType": "uint256",
          "name": "amount0",
          "type": "uint256"
        },
        {
          "internalType": "uint256",
          "name": "amount1",
          "type": "uint256"
        }
      ],
      "stateMutability": "view",
      "type": "function"
    },
    {
      "inputs": [
        {
          "internalType": "uint256",
          "name": "tokenId",
          "type": "uint256"
        }
      ],
      "name": "getApproved",
      "outputs": [
        {
          "internalType": "address",
          "name": "",
          "type": "address"
        }
      ],
      "stateMutability": "view",
      "type": "function"
    },
    {
      "inputs": [
        {
          "internalType": "uint256",
          "name": "chiId",
          "type": "uint256"
        }
      ],
      "name": "getCHIAccruedFees",
      "outputs": [
        {
          "internalType": "uint256",
          "name": "fee0",
          "type": "uint256"
        },
        {
          "internalType": "uint256",
          "name": "fee1",
          "type": "uint256"
        }
      ],
      "stateMutability": "view",
      "type": "function"
    },
    {
      "inputs": [
        {
          "internalType": "uint256",
          "name": "chiId",
          "type": "uint256"
        }
      ],
      "name": "getCHITotalAmounts",
      "outputs": [
        {
          "internalType": "uint256",
          "name": "amount0",
          "type": "uint256"
        },
        {
          "internalType": "uint256",
          "name": "amount1",
          "type": "uint256"
        }
      ],
      "stateMutability": "view",
      "type": "function"
    },
    {
      "inputs": [
        {
          "internalType": "uint256",
          "name": "chiId",
          "type": "uint256"
        },
        {
          "internalType": "uint256",
          "name": "amount0Desired",
          "type": "uint256"
        },
        {
          "internalType": "uint256",
          "name": "amount1Desired",
          "type": "uint256"
        }
      ],
      "name": "getShares",
      "outputs": [
        {
          "internalType": "uint256",
          "name": "",
          "type": "uint256"
        }
      ],
      "stateMutability": "view",
      "type": "function"
    },
    {
      "inputs": [
        {
          "internalType": "address",
          "name": "recipient",
          "type": "address"
        }
      ],
      "name": "getTokenId",
      "outputs": [
        {
          "internalType": "uint256",
          "name": "",
          "type": "uint256"
        }
      ],
      "stateMutability": "view",
      "type": "function"
    },
    {
      "inputs": [
        {
          "internalType": "address",
          "name": "owner",
          "type": "address"
        },
        {
          "internalType": "address",
          "name": "operator",
          "type": "address"
        }
      ],
      "name": "isApprovedForAll",
      "outputs": [
        {
          "internalType": "bool",
          "name": "",
          "type": "bool"
        }
      ],
      "stateMutability": "view",
      "type": "function"
    },
    {
      "inputs": [
        {
          "internalType": "address",
          "name": "recipient",
          "type": "address"
        }
      ],
      "name": "mint",
      "outputs": [
        {
          "internalType": "uint256",
          "name": "tokenId",
          "type": "uint256"
        }
      ],
      "stateMutability": "nonpayable",
      "type": "function"
    },
    {
      "inputs": [],
      "name": "name",
      "outputs": [
        {
          "internalType": "string",
          "name": "",
          "type": "string"
        }
      ],
      "stateMutability": "view",
      "type": "function"
    },
    {
      "inputs": [],
      "name": "owner",
      "outputs": [
        {
          "internalType": "address",
          "name": "",
          "type": "address"
        }
      ],
      "stateMutability": "view",
      "type": "function"
    },
    {
      "inputs": [
        {
          "internalType": "uint256",
          "name": "tokenId",
          "type": "uint256"
        }
      ],
      "name": "ownerOf",
      "outputs": [
        {
          "internalType": "address",
          "name": "",
          "type": "address"
        }
      ],
      "stateMutability": "view",
      "type": "function"
    },
    {
      "inputs": [
        {
          "internalType": "bytes32",
          "name": "key",
          "type": "bytes32"
        }
      ],
      "name": "poolPositions",
      "outputs": [
        {
          "internalType": "uint128",
          "name": "liquidity",
          "type": "uint128"
        },
        {
          "internalType": "uint256",
          "name": "feeGrowthInside0LastX128",
          "type": "uint256"
        },
        {
          "internalType": "uint256",
          "name": "feeGrowthInside1LastX128",
          "type": "uint256"
        },
        {
          "internalType": "uint128",
          "name": "tokensOwed0",
          "type": "uint128"
        },
        {
          "internalType": "uint128",
          "name": "tokensOwed1",
          "type": "uint128"
        }
      ],
      "stateMutability": "view",
      "type": "function"
    },
    {
      "inputs": [
        {
          "internalType": "address",
          "name": "from",
          "type": "address"
        },
        {
          "internalType": "address",
          "name": "to",
          "type": "address"
        },
        {
          "internalType": "uint256",
          "name": "tokenId",
          "type": "uint256"
        }
      ],
      "name": "safeTransferFrom",
      "outputs": [],
      "stateMutability": "nonpayable",
      "type": "function"
    },
    {
      "inputs": [
        {
          "internalType": "address",
          "name": "from",
          "type": "address"
        },
        {
          "internalType": "address",
          "name": "to",
          "type": "address"
        },
        {
          "internalType": "uint256",
          "name": "tokenId",
          "type": "uint256"
        },
        {
          "internalType": "bytes",
          "name": "_data",
          "type": "bytes"
        }
      ],
      "name": "safeTransferFrom",
      "outputs": [],
      "stateMutability": "nonpayable",
      "type": "function"
    },
    {
      "inputs": [
        {
          "internalType": "address",
          "name": "operator",
          "type": "address"
        },
        {
          "internalType": "bool",
          "name": "approved",
          "type": "bool"
        }
      ],
      "name": "setApprovalForAll",
      "outputs": [],
      "stateMutability": "nonpayable",
      "type": "function"
    },
    {
      "inputs": [
        {
          "internalType": "address",
          "name": "_chiManager",
          "type": "address"
        }
      ],
      "name": "setCHIManager",
      "outputs": [],
      "stateMutability": "nonpayable",
      "type": "function"
    },
    {
      "inputs": [
        {
          "components": [
            {
              "internalType": "uint256",
              "name": "yangId",
              "type": "uint256"
            },
            {
              "internalType": "uint256",
              "name": "chiId",
              "type": "uint256"
            },
            {
              "internalType": "uint256",
              "name": "amount0Desired",
              "type": "uint256"
            },
            {
              "internalType": "uint256",
              "name": "amount1Desired",
              "type": "uint256"
            },
            {
              "internalType": "uint256",
              "name": "amount0Min",
              "type": "uint256"
            },
            {
              "internalType": "uint256",
              "name": "amount1Min",
              "type": "uint256"
            }
          ],
          "internalType": "struct IYangNFTVault.SubscribeParam",
          "name": "params",
          "type": "tuple"
        }
      ],
      "name": "subscribe",
      "outputs": [
        {
          "internalType": "uint256",
          "name": "amount0",
          "type": "uint256"
        },
        {
          "internalType": "uint256",
          "name": "amount1",
          "type": "uint256"
        },
        {
          "internalType": "uint256",
          "name": "shares",
          "type": "uint256"
        }
      ],
      "stateMutability": "nonpayable",
      "type": "function"
    },
    {
      "inputs": [
        {
          "internalType": "bytes4",
          "name": "interfaceId",
          "type": "bytes4"
        }
      ],
      "name": "supportsInterface",
      "outputs": [
        {
          "internalType": "bool",
          "name": "",
          "type": "bool"
        }
      ],
      "stateMutability": "view",
      "type": "function"
    },
    {
      "inputs": [],
      "name": "symbol",
      "outputs": [
        {
          "internalType": "string",
          "name": "",
          "type": "string"
        }
      ],
      "stateMutability": "view",
      "type": "function"
    },
    {
      "inputs": [
        {
          "internalType": "uint256",
          "name": "index",
          "type": "uint256"
        }
      ],
      "name": "tokenByIndex",
      "outputs": [
        {
          "internalType": "uint256",
          "name": "",
          "type": "uint256"
        }
      ],
      "stateMutability": "view",
      "type": "function"
    },
    {
      "inputs": [
        {
          "internalType": "address",
          "name": "owner",
          "type": "address"
        },
        {
          "internalType": "uint256",
          "name": "index",
          "type": "uint256"
        }
      ],
      "name": "tokenOfOwnerByIndex",
      "outputs": [
        {
          "internalType": "uint256",
          "name": "",
          "type": "uint256"
        }
      ],
      "stateMutability": "view",
      "type": "function"
    },
    {
      "inputs": [
        {
          "internalType": "uint256",
          "name": "tokenId",
          "type": "uint256"
        }
      ],
      "name": "tokenURI",
      "outputs": [
        {
          "internalType": "string",
          "name": "",
          "type": "string"
        }
      ],
      "stateMutability": "view",
      "type": "function"
    },
    {
      "inputs": [],
      "name": "totalSupply",
      "outputs": [
        {
          "internalType": "uint256",
          "name": "",
          "type": "uint256"
        }
      ],
      "stateMutability": "view",
      "type": "function"
    },
    {
      "inputs": [
        {
          "internalType": "address",
          "name": "from",
          "type": "address"
        },
        {
          "internalType": "address",
          "name": "to",
          "type": "address"
        },
        {
          "internalType": "uint256",
          "name": "tokenId",
          "type": "uint256"
        }
      ],
      "name": "transferFrom",
      "outputs": [],
      "stateMutability": "nonpayable",
      "type": "function"
    },
    {
      "inputs": [
        {
          "components": [
            {
              "internalType": "uint256",
              "name": "yangId",
              "type": "uint256"
            },
            {
              "internalType": "uint256",
              "name": "chiId",
              "type": "uint256"
            },
            {
              "internalType": "uint256",
              "name": "shares",
              "type": "uint256"
            },
            {
              "internalType": "uint256",
              "name": "amount0Min",
              "type": "uint256"
            },
            {
              "internalType": "uint256",
              "name": "amount1Min",
              "type": "uint256"
            }
          ],
          "internalType": "struct IYangNFTVault.UnSubscribeParam",
          "name": "params",
          "type": "tuple"
        }
      ],
      "name": "unsubscribe",
      "outputs": [],
      "stateMutability": "nonpayable",
      "type": "function"
    },
    {
      "inputs": [
        {
          "internalType": "address",
          "name": "token",
          "type": "address"
        }
      ],
      "name": "vaults",
      "outputs": [
        {
          "internalType": "uint256",
          "name": "",
          "type": "uint256"
        }
      ],
      "stateMutability": "view",
      "type": "function"
    },
    {
      "inputs": [
        {
          "internalType": "address",
          "name": "token0",
          "type": "address"
        },
        {
          "internalType": "uint256",
          "name": "amount0",
          "type": "uint256"
        },
        {
          "internalType": "address",
          "name": "token1",
          "type": "address"
        },
        {
          "internalType": "uint256",
          "name": "amount1",
          "type": "uint256"
        }
      ],
      "name": "withdraw",
      "outputs": [],
      "stateMutability": "nonpayable",
      "type": "function"
    },
    {
      "inputs": [
        {
          "internalType": "uint256",
          "name": "yangId",
          "type": "uint256"
        },
        {
          "internalType": "uint256",
          "name": "chiId",
          "type": "uint256"
        }
      ],
      "name": "yangPositions",
      "outputs": [
        {
          "internalType": "uint256",
          "name": "amount0",
          "type": "uint256"
        },
        {
          "internalType": "uint256",
          "name": "amount1",
          "type": "uint256"
        },
        {
          "internalType": "uint256",
          "name": "shares",
          "type": "uint256"
        }
      ],
      "stateMutability": "view",
      "type": "function"
    }
  ],
  "bytecode": "0x60806040526001600d553480156200001657600080fd5b50604080518082018252601481527f59414e472773204173736574204d616e616765720000000000000000000000006020808301919091528251808401909352600483526359414e4760e01b908301526001600055906200007e6301ffc9a760e01b620000fa565b81516200009390600790602085019062000182565b508051620000a990600890602084019062000182565b50620000bc6380ac58cd60e01b620000fa565b620000ce635b5e139f60e01b620000fa565b620000e063780e9d6360e01b620000fa565b5050600b80546001600160a01b031916331790556200022e565b6001600160e01b031980821614156200015a576040805162461bcd60e51b815260206004820152601c60248201527f4552433136353a20696e76616c696420696e7465726661636520696400000000604482015290519081900360640190fd5b6001600160e01b0319166000908152600160208190526040909120805460ff19169091179055565b828054600181600116156101000203166002900490600052602060002090601f016020900481019282620001ba576000855562000205565b82601f10620001d557805160ff191683800117855562000205565b8280016001018555821562000205579182015b8281111562000205578251825591602001919060010190620001e8565b506200021392915062000217565b5090565b5b8082111562000213576000815560010162000218565b615396806200023e6000396000f3fe608060405234801561001057600080fd5b50600436106101f05760003560e01c80636352211e1161010f578063a22cb465116100a2578063c87b56dd11610071578063c87b56dd1461043f578063e5d9cc9a14610452578063e985e9c514610465578063f153768614610478576101f0565b8063a22cb465146103f3578063a244a48114610406578063a622ee7c14610419578063b88d4fde1461042c576101f0565b80638ae881ab116100de5780638ae881ab146103ac5780638da5cb5b146103d057806390d25074146103d857806395d89b41146103eb576101f0565b80636352211e1461036b5780636a6278421461037e5780636c0360eb1461039157806370a0823114610399576101f0565b80632f745c59116101875780634b2084e3116101565780634b2084e31461031f5780634f6ccce7146103325780635c0d107e146103455780635f0600f714610358576101f0565b80632f745c59146102d35780633ab2e4ba146102e657806342842e0e146102f957806342e6e0fe1461030c576101f0565b8063095ea7b3116101c3578063095ea7b31461027557806316529c461461028a57806318160ddd146102ab57806323b872dd146102c0576101f0565b806301ffc9a7146101f55780630589ea3d1461021e57806306fdde0314610240578063081812fc14610255575b600080fd5b610208610203366004614c20565b61048b565b6040516102159190614e32565b60405180910390f35b61023161022c366004614d54565b6104c6565b6040516102159392919061501e565b61024861053b565b6040516102159190614e3d565b610268610263366004614c08565b6105d1565b6040516102159190614e1e565b610288610283366004614b96565b610633565b005b61029d610298366004614d54565b610709565b604051610215929190614e10565b6102b3610852565b6040516102159190615015565b6102886102ce366004614a6f565b610863565b6102b36102e1366004614b96565b6108ba565b6102886102f4366004614cd3565b6108e5565b610288610307366004614a6f565b610d75565b6102b361031a366004614d98565b610d90565b61028861032d366004614bc1565b610e62565b6102b3610340366004614c08565b610f85565b610231610353366004614c60565b610f9b565b61029d610366366004614c08565b6112a3565b610268610379366004614c08565b6113d6565b6102b361038c36600461497a565b6113fe565b610248611492565b6102b36103a736600461497a565b6114f3565b6103bf6103ba366004614c08565b61155b565b604051610215959493929190614fda565b6102686115ce565b6102886103e6366004614bc1565b6115dd565b61024861164d565b610288610401366004614b65565b6116ae565b61028861041436600461497a565b6117d1565b6102b361042736600461497a565b611835565b61028861043a366004614aaf565b611887565b61024861044d366004614c08565b6118df565b61029d610460366004614c08565b611b60565b6102086104733660046149b2565b611d04565b6102b361048636600461497a565b611d32565b7fffffffff00000000000000000000000000000000000000000000000000000000811660009081526001602052604090205460ff165b919050565b600080600080600f600087876040516020016104e3929190614e10565b60408051601f1981840301815291815281516020928301208352828201939093529082016000208251606081018452815480825260018301549382018490526002909201549301839052989097509095509350505050565b60078054604080516020601f60026000196101006001881615020190951694909404938401819004810282018101909252828152606093909290918301828280156105c75780601f1061059c576101008083540402835291602001916105c7565b820191906000526020600020905b8154815290600101906020018083116105aa57829003601f168201915b5050505050905090565b60006105dc82611d4d565b6106175760405162461bcd60e51b815260040180806020018281038252602c815260200180615254602c913960400191505060405180910390fd5b506000908152600560205260409020546001600160a01b031690565b600061063e826113d6565b9050806001600160a01b0316836001600160a01b031614156106915760405162461bcd60e51b81526004018080602001828103825260218152602001806152d86021913960400191505060405180910390fd5b806001600160a01b03166106a3611d5a565b6001600160a01b031614806106bf57506106bf81610473611d5a565b6106fa5760405162461bcd60e51b81526004018080602001828103825260388152602001806151866038913960400191505060405180910390fd5b6107048383611d5e565b505050565b600c5460009081906001600160a01b031661073f5760405162461bcd60e51b815260040161073690614efe565b60405180910390fd5b60008484604051602001610754929190614e10565b60408051601f1981840301815282825280516020918201206000818152600f83528390206060850184528054855260018101549285019290925260029091015491830182905292501561084957600c54604051635cef66b360e11b815260009182916001600160a01b039091169063b9decd66906107d6908a90600401615015565b6101006040518083038186803b1580156107ef57600080fd5b505afa158015610803573d6000803e3d6000fd5b505050506040513d601f19601f8201168201806040525081019061082791906149ea565b5050505093509350505061084182828a8660400151611de4565b909650945050505b50509250929050565b600061085e6003611e05565b905090565b61087461086e611d5a565b82611e10565b6108af5760405162461bcd60e51b81526004018080602001828103825260318152602001806152f96031913960400191505060405180910390fd5b610704838383611eb4565b6001600160a01b03821660009081526002602052604081206108dc9083612000565b90505b92915050565b80516108f13382611e10565b61090d5760405162461bcd60e51b815260040161073690614f6c565b600c546001600160a01b03166109355760405162461bcd60e51b815260040161073690614efe565b600c546020830151604051635cef66b360e11b815260009283926001600160a01b039091169163b9decd669161096d91600401615015565b6101006040518083038186803b15801561098657600080fd5b505afa15801561099a573d6000803e3d6000fd5b505050506040513d601f19601f820116820180604052508101906109be91906149ea565b505050509350935050506000846000015185602001516040516020016109e5929190614e10565b6040516020818303038152906040528051906020012090508460400151600f6000838152602001908152602001600020600201541015610a375760405162461bcd60e51b815260040161073690614fa3565b600c548551602087015160408089015160608a015160808b015192517f46698e7500000000000000000000000000000000000000000000000000000000815260009687966001600160a01b03909116956346698e7595610a9d9592949193600401615034565b6040805180830381600087803b158015610ab657600080fd5b505af1158015610aca573d6000803e3d6000fd5b505050506040513d601f19601f82011682018060405250810190610aee9190614d75565b9092509050848215610bc65760008860000151826001600160a01b0316630dfe16816040518163ffffffff1660e01b815260040160206040518083038186803b158015610b3a57600080fd5b505afa158015610b4e573d6000803e3d6000fd5b505050506040513d601f19601f82011682018060405250810190610b729190614996565b604051602001610b83929190614df0565b60408051601f19818403018152918152815160209283012060008181526011909352912054909150610bb5908561200c565b600091825260116020526040909120555b8115610c985760008860000151826001600160a01b031663d21220a76040518163ffffffff1660e01b815260040160206040518083038186803b158015610c0c57600080fd5b505afa158015610c20573d6000803e3d6000fd5b505050506040513d601f19601f82011682018060405250810190610c449190614996565b604051602001610c55929190614df0565b60408051601f19818403018152918152815160209283012060008181526011909352912054909150610c87908461200c565b600091825260116020526040909120555b87516020890151600091610caf91600f9190612066565b9050610ccc896040015182600201546120a190919063ffffffff16565b600282015580548410610ce0576000610cec565b8054610cec90856120a1565b815560018101548310610d00576000610d0f565b6001810154610d0f90846120a1565b600182015588518690610d2890601090859084906120fe565b60208a01518a516040517fb65ca58d729d89d58e1ed48a179b40d4a6b56e3e101a10085a0f43915cf1448890610d619089908990614e10565b60405180910390a350505050505050505050565b61070483838360405180602001604052806000815250611887565b600c546000906001600160a01b0316610dbb5760405162461bcd60e51b815260040161073690614efe565b600c54604051635cef66b360e11b81526000916001600160a01b03169063b9decd6690610dec908890600401615015565b6101006040518083038186803b158015610e0557600080fd5b505afa158015610e19573d6000803e3d6000fd5b505050506040513d601f19601f82011682018060405250810190610e3d91906149ea565b5050505093505050506000610e538286866122ed565b509093505050505b9392505050565b60008311610e825760405162461bcd60e51b815260040161073690614ec7565b60008111610ea25760405162461bcd60e51b815260040161073690614ec7565b6000610ead33611d32565b905060008186604051602001610ec4929190614df0565b60405160208183030381529060405280519060200120905060008285604051602001610ef1929190614df0565b60408051601f19818403018152918152815160209283012060008581526011909352912054909150610f2390876120a1565b600083815260116020526040808220929092558281522054610f4590856120a1565b600082815260116020526040902055610f686001600160a01b0388163388612407565b610f7c6001600160a01b0386163386612407565b50505050505050565b600080610f93600384612487565b509392505050565b60008060008360000151610faf3382611e10565b610fcb5760405162461bcd60e51b815260040161073690614f6c565b60026000541415611023576040805162461bcd60e51b815260206004820152601f60248201527f5265656e7472616e637947756172643a207265656e7472616e742063616c6c00604482015290519081900360640190fd5b6002600055600c546001600160a01b03166110505760405162461bcd60e51b815260040161073690614efe565b600c546020860151604051635cef66b360e11b815260009283926001600160a01b039091169163b9decd669161108891600401615015565b6101006040518083038186803b1580156110a157600080fd5b505afa1580156110b5573d6000803e3d6000fd5b505050506040513d601f19601f820116820180604052508101906110d991906149ea565b5050505093509350505060008290506000816001600160a01b0316630dfe16816040518163ffffffff1660e01b815260040160206040518083038186803b15801561112357600080fd5b505afa158015611137573d6000803e3d6000fd5b505050506040513d601f19601f8201168201806040525081019061115b9190614996565b90506000826001600160a01b031663d21220a76040518163ffffffff1660e01b815260040160206040518083038186803b15801561119857600080fd5b505afa1580156111ac573d6000803e3d6000fd5b505050506040513d601f19601f820116820180604052508101906111d09190614996565b90506111e6828b60400151838d606001516115dd565b6111f182828c6124a3565b8c5160208e0151939c50919a50985060009161120f91600f91612066565b805490915061121e908b61200c565b8155600181015461122f908a61200c565b60018201556002810154611243908961200c565b60028201558a5161125a90601090869088906120fe565b60208b01518b516040518a9291907f17de92c1076ec5855c3edd4a6084a82c184adfda177deb99d6532697cdac91cb90600090a450506001600055509597949650929450505050565b600c5460009081906001600160a01b03166112d05760405162461bcd60e51b815260040161073690614efe565b600c54604051635cef66b360e11b81526000916001600160a01b03169063b9decd6690611301908790600401615015565b6101006040518083038186803b15801561131a57600080fd5b505afa15801561132e573d6000803e3d6000fd5b505050506040513d601f19601f8201168201806040525081019061135291906149ea565b505050509350505050806001600160a01b031663c4a7761e6040518163ffffffff1660e01b8152600401604080518083038186803b15801561139357600080fd5b505afa1580156113a7573d6000803e3d6000fd5b505050506040513d601f19601f820116820180604052508101906113cb9190614d75565b909590945092505050565b60006108df826040518060600160405280602981526020016151e860299139600391906126ae565b6001600160a01b0381166000908152600e6020526040812054156114345760405162461bcd60e51b815260040161073690614e90565b50600d80546001810190915561144a82826126bb565b6001600160a01b0382166000818152600e6020526040808220849055518392917f74629109564de5ce9d04dc84bb5ecd8fbb0c98843a3fbd43f057825a9255449c91a3919050565b600a8054604080516020601f60026000196101006001881615020190951694909404938401819004810282018101909252828152606093909290918301828280156105c75780601f1061059c576101008083540402835291602001916105c7565b60006001600160a01b03821661153a5760405162461bcd60e51b815260040180806020018281038252602a8152602001806151be602a913960400191505060405180910390fd5b6001600160a01b03821660009081526002602052604090206108df90611e05565b600090815260106020908152604091829020825160a08101845281546fffffffffffffffffffffffffffffffff9081168083526001840154948301859052600284015495830186905260039093015480821660608401819052600160801b90910490911660809092018290529194929392565b600b546001600160a01b031681565b600083116115fd5760405162461bcd60e51b815260040161073690614ec7565b6000811161161d5760405162461bcd60e51b815260040161073690614ec7565b6116326001600160a01b0385163330866127e9565b6116476001600160a01b0383163330846127e9565b50505050565b60088054604080516020601f60026000196101006001881615020190951694909404938401819004810282018101909252828152606093909290918301828280156105c75780601f1061059c576101008083540402835291602001916105c7565b6116b6611d5a565b6001600160a01b0316826001600160a01b0316141561171c576040805162461bcd60e51b815260206004820152601960248201527f4552433732313a20617070726f766520746f2063616c6c657200000000000000604482015290519081900360640190fd5b8060066000611729611d5a565b6001600160a01b0390811682526020808301939093526040918201600090812091871680825291909352912080547fffffffffffffffffffffffffffffffffffffffffffffffffffffffffffffff00169215159290921790915561178b611d5a565b6001600160a01b03167f17307eab39ab6107e8899845ad3d59bd9653f200f220920489ca2b5937696c318360405180821515815260200191505060405180910390a35050565b600b546001600160a01b031633146117fb5760405162461bcd60e51b815260040161073690614f35565b600c80547fffffffffffffffffffffffff0000000000000000000000000000000000000000166001600160a01b0392909216919091179055565b60008061184133611d32565b905060116000828560405160200161185a929190614df0565b60405160208183030381529060405280519060200120815260200190815260200160002054915050919050565b611898611892611d5a565b83611e10565b6118d35760405162461bcd60e51b81526004018080602001828103825260318152602001806152f96031913960400191505060405180910390fd5b61164784848484612871565b60606118ea82611d4d565b6119255760405162461bcd60e51b815260040180806020018281038252602f8152602001806152a9602f913960400191505060405180910390fd5b60008281526009602090815260408083208054825160026001831615610100026000190190921691909104601f8101859004850282018501909352828152929091908301828280156119b85780601f1061198d576101008083540402835291602001916119b8565b820191906000526020600020905b81548152906001019060200180831161199b57829003601f168201915b5050505050905060006119c9611492565b90508051600014156119dd575090506104c1565b815115611a9e5780826040516020018083805190602001908083835b60208310611a185780518252601f1990920191602091820191016119f9565b51815160209384036101000a600019018019909216911617905285519190930192850191508083835b60208310611a605780518252601f199092019160209182019101611a41565b6001836020036101000a03801982511681845116808217855250505050505090500192505050604051602081830303815290604052925050506104c1565b80611aa8856128c3565b6040516020018083805190602001908083835b60208310611ada5780518252601f199092019160209182019101611abb565b51815160209384036101000a600019018019909216911617905285519190930192850191508083835b60208310611b225780518252601f199092019160209182019101611b03565b6001836020036101000a0380198251168184511680821785525050505050509050019250505060405160208183030381529060405292505050919050565b600c5460009081906001600160a01b0316611b8d5760405162461bcd60e51b815260040161073690614efe565b600c54604051635cef66b360e11b81526000916001600160a01b03169063b9decd6690611bbe908790600401615015565b6101006040518083038186803b158015611bd757600080fd5b505afa158015611beb573d6000803e3d6000fd5b505050506040513d601f19601f82011682018060405250810190611c0f91906149ea565b505050509350505050806001600160a01b031663eae989a26040518163ffffffff1660e01b815260040160206040518083038186803b158015611c5157600080fd5b505afa158015611c65573d6000803e3d6000fd5b505050506040513d601f19601f82011682018060405250810190611c899190614d3c565b9250806001600160a01b031663a00fa77f6040518163ffffffff1660e01b815260040160206040518083038186803b158015611cc457600080fd5b505afa158015611cd8573d6000803e3d6000fd5b505050506040513d601f19601f82011682018060405250810190611cfc9190614d3c565b915050915091565b6001600160a01b03918216600090815260066020908152604080832093909416825291909152205460ff1690565b6001600160a01b03166000908152600e602052604090205490565b60006108df6003836129d2565b3390565b600081815260056020526040902080547fffffffffffffffffffffffff0000000000000000000000000000000000000000166001600160a01b0384169081179091558190611dab826113d6565b6001600160a01b03167f8c5be1e5ebec7d5bd14f71427d1e84f3dd0314c0f7b2291e5b200ac8c7c3b92560405160405180910390a45050565b6000808486611df681833389896129de565b90999098509650505050505050565b60006108df82612f61565b6000611e1b82611d4d565b611e565760405162461bcd60e51b815260040180806020018281038252602c81526020018061515a602c913960400191505060405180910390fd5b6000611e61836113d6565b9050806001600160a01b0316846001600160a01b03161480611e9c5750836001600160a01b0316611e91846105d1565b6001600160a01b0316145b80611eac5750611eac8185611d04565b949350505050565b826001600160a01b0316611ec7826113d6565b6001600160a01b031614611f0c5760405162461bcd60e51b81526004018080602001828103825260298152602001806152806029913960400191505060405180910390fd5b6001600160a01b038216611f515760405162461bcd60e51b81526004018080602001828103825260248152602001806151106024913960400191505060405180910390fd5b611f5c838383610704565b611f67600082611d5e565b6001600160a01b0383166000908152600260205260409020611f899082612f65565b506001600160a01b0382166000908152600260205260409020611fac9082612f71565b50611fb960038284612f7d565b5080826001600160a01b0316846001600160a01b03167fddf252ad1be2c89b69c2b068fc378daa952ba7f163c4a11628f55a4df523b3ef60405160405180910390a4505050565b60006108dc8383612f93565b6000828201838110156108dc576040805162461bcd60e51b815260206004820152601b60248201527f536166654d6174683a206164646974696f6e206f766572666c6f770000000000604482015290519081900360640190fd5b604080516020808201949094528082019290925280518083038201815260609092018152815191830191909120600090815292909152902090565b6000828211156120f8576040805162461bcd60e51b815260206004820152601e60248201527f536166654d6174683a207375627472616374696f6e206f766572666c6f770000604482015290519081900360640190fd5b50900390565b60005b826001600160a01b031663b135a1456040518163ffffffff1660e01b815260040160206040518083038186803b15801561213a57600080fd5b505afa15801561214e573d6000803e3d6000fd5b505050506040513d602081101561216457600080fd5b50518110156122e657600080846001600160a01b031663cc364f48846040518263ffffffff1660e01b815260040180828152602001915050604080518083038186803b1580156121b357600080fd5b505afa1580156121c7573d6000803e3d6000fd5b505050506040513d60408110156121dd57600080fd5b508051602090910151909250905060006121f987878585612ff7565b6fffffffffffffffffffffffffffffffff1611156122dc576000612220888688868661307c565b905060008060008060008b6001600160a01b031663514ea4bf6122448d8b8b6130a6565b6040518263ffffffff1660e01b81526004018082815260200191505060a06040518083038186803b15801561227857600080fd5b505afa15801561228c573d6000803e3d6000fd5b505050506040513d60a08110156122a257600080fd5b508051602082015160408301516060840151608090940151929850909650945090925090506122d58686868686866130fc565b5050505050505b5050600101612101565b5050505050565b600080600080869050600080826001600160a01b031663c4a7761e6040518163ffffffff1660e01b8152600401604080518083038186803b15801561233157600080fd5b505afa158015612345573d6000803e3d6000fd5b505050506040513d604081101561235b57600080fd5b8101908080519060200190929190805190602001909291905050509150915060008060006123f085858d8d8a6001600160a01b03166318160ddd6040518163ffffffff1660e01b815260040160206040518083038186803b1580156123bf57600080fd5b505afa1580156123d3573d6000803e3d6000fd5b505050506040513d60208110156123e957600080fd5b505161316c565b919a50985096505050505050505b93509350939050565b604080516001600160a01b038416602482015260448082018490528251808303909101815260649091019091526020810180517bffffffffffffffffffffffffffffffffffffffffffffffffffffffff167fa9059cbb0000000000000000000000000000000000000000000000000000000017905261070490849061329f565b60008080806124968686613350565b9097909650945050505050565b600c546040820151600091829182916124c9916001600160a01b038981169216906133cb565b600c5460608501516124e9916001600160a01b03888116929116906133cb565b600c5484516020860151604080880151606089015160808a015160a08b015193517fec28fcac0000000000000000000000000000000000000000000000000000000081526001600160a01b039097169663ec28fcac966125529690959094939291600401615057565b606060405180830381600087803b15801561256c57600080fd5b505af1158015612580573d6000803e3d6000fd5b505050506040513d601f19601f820116820180604052508101906125a49190614dc3565b60408701519195509350909150839003156126125783516040516000916125cf918990602001614df0565b60408051601f19818403018152918152815160209283012060008181526011909352912054909150612601908561200c565b600091825260116020526040909120555b606084015182900315612678578351604051600091612635918890602001614df0565b60408051601f19818403018152918152815160209283012060008181526011909352912054909150612667908461200c565b600091825260116020526040909120555b600c54612693906001600160a01b03888116911660006133cb565b600c546123fe906001600160a01b03878116911660006133cb565b6000611eac848484613525565b6001600160a01b038216612716576040805162461bcd60e51b815260206004820181905260248201527f4552433732313a206d696e7420746f20746865207a65726f2061646472657373604482015290519081900360640190fd5b61271f81611d4d565b15612771576040805162461bcd60e51b815260206004820152601c60248201527f4552433732313a20746f6b656e20616c7265616479206d696e74656400000000604482015290519081900360640190fd5b61277d60008383610704565b6001600160a01b038216600090815260026020526040902061279f9082612f71565b506127ac60038284612f7d565b5060405181906001600160a01b038416906000907fddf252ad1be2c89b69c2b068fc378daa952ba7f163c4a11628f55a4df523b3ef908290a45050565b604080516001600160a01b0380861660248301528416604482015260648082018490528251808303909101815260849091019091526020810180517bffffffffffffffffffffffffffffffffffffffffffffffffffffffff167f23b872dd0000000000000000000000000000000000000000000000000000000017905261164790859061329f565b61287c848484611eb4565b612888848484846135ef565b6116475760405162461bcd60e51b81526004018080602001828103825260328152602001806150de6032913960400191505060405180910390fd5b606081612904575060408051808201909152600181527f300000000000000000000000000000000000000000000000000000000000000060208201526104c1565b8160005b811561291c57600101600a82049150612908565b60008167ffffffffffffffff8111801561293557600080fd5b506040519080825280601f01601f191660200182016040528015612960576020820181803683370190505b50859350905060001982015b83156129c957600a840660300160f81b8282806001900393508151811061298f57fe5b60200101907effffffffffffffffffffffffffffffffffffffffffffffffffffffffffffff1916908160001a905350600a8404935061296c565b50949350505050565b60006108dc83836137cb565b60008060005b866001600160a01b031663b135a1456040518163ffffffff1660e01b815260040160206040518083038186803b158015612a1d57600080fd5b505afa158015612a31573d6000803e3d6000fd5b505050506040513d6020811015612a4757600080fd5b5051811015612b9e57600080886001600160a01b031663cc364f48846040518263ffffffff1660e01b815260040180828152602001915050604080518083038186803b158015612a9657600080fd5b505afa158015612aaa573d6000803e3d6000fd5b505050506040513d6040811015612ac057600080fd5b50805160209091015190925090506000612adc8b8b8585612ff7565b90506fffffffffffffffffffffffffffffffff811615612b935760006040518061010001604052808d6001600160a01b031681526020018c6001600160a01b031681526020018b6001600160a01b031681526020018a8152602001836fffffffffffffffffffffffffffffffff1681526020018981526020018560020b81526020018460020b8152509050600080612b73836137e3565b91509150612b81898361200c565b9850612b8d888261200c565b97505050505b5050506001016129e4565b506000876001600160a01b0316630dfe16816040518163ffffffff1660e01b815260040160206040518083038186803b158015612bda57600080fd5b505afa158015612bee573d6000803e3d6000fd5b505050506040513d6020811015612c0457600080fd5b5051604080517fd21220a700000000000000000000000000000000000000000000000000000000815290519192506000916001600160a01b038b169163d21220a7916004808301926020929190829003018186803b158015612c6557600080fd5b505afa158015612c79573d6000803e3d6000fd5b505050506040513d6020811015612c8f57600080fd5b5051604080517f70a082310000000000000000000000000000000000000000000000000000000081526001600160a01b038b811660048301529151929350600092612e2392612db892908716916370a0823191602480820192602092909190829003018186803b158015612d0257600080fd5b505afa158015612d16573d6000803e3d6000fd5b505050506040513d6020811015612d2c57600080fd5b5051604080517feae989a200000000000000000000000000000000000000000000000000000000815290516001600160a01b038e169163eae989a2916004808301926020929190829003018186803b158015612d8757600080fd5b505afa158015612d9b573d6000803e3d6000fd5b505050506040513d6020811015612db157600080fd5b50516120a1565b878b6001600160a01b03166318160ddd6040518163ffffffff1660e01b815260040160206040518083038186803b158015612df257600080fd5b505afa158015612e06573d6000803e3d6000fd5b505050506040513d6020811015612e1c57600080fd5b505161394e565b90506000612f39612eff846001600160a01b03166370a082318d6040518263ffffffff1660e01b815260040180826001600160a01b0316815260200191505060206040518083038186803b158015612e7a57600080fd5b505afa158015612e8e573d6000803e3d6000fd5b505050506040513d6020811015612ea457600080fd5b5051604080517fa00fa77f00000000000000000000000000000000000000000000000000000000815290516001600160a01b038f169163a00fa77f916004808301926020929190829003018186803b158015612d8757600080fd5b888c6001600160a01b03166318160ddd6040518163ffffffff1660e01b815260040160206040518083038186803b158015612df257600080fd5b9050612f45868361200c565b9550612f51858261200c565b9450505050509550959350505050565b5490565b60006108dc83836139fd565b60006108dc8383613ac3565b6000611eac84846001600160a01b038516613b0d565b81546000908210612fd55760405162461bcd60e51b81526004018080602001828103825260228152602001806150bc6022913960400191505060405180910390fd5b826000018281548110612fe457fe5b9060005260206000200154905092915050565b6000846001600160a01b031663514ea4bf6130138686866130a6565b6040518263ffffffff1660e01b81526004018082815260200191505060a06040518083038186803b15801561304757600080fd5b505afa15801561305b573d6000803e3d6000fd5b505050506040513d60a081101561307157600080fd5b505195945050505050565b600085600061308d87878787613ba4565b8152602001908152602001600020905095945050505050565b6040805160609490941b6bffffffffffffffffffffffff1916602080860191909152600293840b60e890811b60348701529290930b90911b60378401528051808403601a018152603a9093019052815191012090565b85546fffffffffffffffffffffffffffffffff9586167fffffffffffffffffffffffffffffffff000000000000000000000000000000009182161787556001870194909455600286019290925560039094018054918416600160801b029484169190921617909116919091179055565b6000808083158061317d5750600088115b806131885750600087115b61318e57fe5b836131a95750849050836131a28282613bfd565b9250613294565b876131bb5750836131a281858961394e565b866131ce578591506131a282858a61394e565b60006131ec6131dd888a613c14565b6131e7888c613c14565b613c6d565b905060008111613243576040805162461bcd60e51b815260206004820152600160248201527f6300000000000000000000000000000000000000000000000000000000000000604482015290519081900360640190fd5b61326161325a6132548360016120a1565b8a613c7c565b600161200c565b925061327a61325a6132748360016120a1565b8b613c7c565b915061329061328a82878c61394e565b89613c7c565b9350505b955095509592505050565b60006132f4826040518060400160405280602081526020017f5361666545524332303a206c6f772d6c6576656c2063616c6c206661696c6564815250856001600160a01b0316613ce39092919063ffffffff16565b8051909150156107045780806020019051602081101561331357600080fd5b50516107045760405162461bcd60e51b815260040180806020018281038252602a81526020018061532a602a913960400191505060405180910390fd5b8154600090819083106133945760405162461bcd60e51b81526004018080602001828103825260228152602001806152116022913960400191505060405180910390fd5b60008460000184815481106133a557fe5b906000526020600020906002020190508060000154816001015492509250509250929050565b80158061346a5750604080517fdd62ed3e0000000000000000000000000000000000000000000000000000000081523060048201526001600160a01b03848116602483015291519185169163dd62ed3e91604480820192602092909190829003018186803b15801561343c57600080fd5b505afa158015613450573d6000803e3d6000fd5b505050506040513d602081101561346657600080fd5b5051155b6134a55760405162461bcd60e51b81526004018080602001828103825260368152602001806153546036913960400191505060405180910390fd5b604080516001600160a01b038416602482015260448082018490528251808303909101815260649091019091526020810180517bffffffffffffffffffffffffffffffffffffffffffffffffffffffff167f095ea7b30000000000000000000000000000000000000000000000000000000017905261070490849061329f565b600082815260018401602052604081205482816135c05760405162461bcd60e51b81526004018080602001828103825283818151815260200191508051906020019080838360005b8381101561358557818101518382015260200161356d565b50505050905090810190601f1680156135b25780820380516001836020036101000a031916815260200191505b509250505060405180910390fd5b508460000160018203815481106135d357fe5b9060005260206000209060020201600101549150509392505050565b6000613603846001600160a01b0316613cf2565b61360f57506001611eac565b60006137607f150b7a020000000000000000000000000000000000000000000000000000000061363d611d5a565b88878760405160240180856001600160a01b03168152602001846001600160a01b0316815260200183815260200180602001828103825283818151815260200191508051906020019080838360005b838110156136a457818101518382015260200161368c565b50505050905090810190601f1680156136d15780820380516001836020036101000a031916815260200191505b5095505050505050604051602081830303815290604052907bffffffffffffffffffffffffffffffffffffffffffffffffffffffff19166020820180517bffffffffffffffffffffffffffffffffffffffffffffffffffffffff83818316178352505050506040518060600160405280603281526020016150de603291396001600160a01b0388169190613ce3565b9050600081806020019051602081101561377957600080fd5b50517fffffffff00000000000000000000000000000000000000000000000000000000167f150b7a02000000000000000000000000000000000000000000000000000000001492505050949350505050565b60009081526001919091016020526040902054151590565b600080600061384f61384785608001516fffffffffffffffffffffffffffffffff168660a0015187602001516001600160a01b03166318160ddd6040518163ffffffff1660e01b815260040160206040518083038186803b158015612df257600080fd5b600003613cf8565b9050600081600f0b1315613948576060840151845160c086015160e0870151600092839261387d9287613d09565b91509150600061389b8489602001518a60c001518b60e00151613ba4565b905060006138b689602001518a60c001518b60e001516130a6565b905060006040518060c001604052808b600001516001600160a01b031681526020018b604001516001600160a01b031681526020018481526020018381526020018681526020018581525090506000806139198c60c001518d60e0015185613e26565b9150915081871161392a578661392c565b815b9a5080861161393b578561393d565b805b995050505050505050505b50915091565b6000808060001985870986860292508281109083900303905080613984576000841161397957600080fd5b508290049050610e5b565b80841161399057600080fd5b6000848688096000868103871696879004966002600389028118808a02820302808a02820302808a02820302808a02820302808a02820302808a02909103029181900381900460010186841190950394909402919094039290920491909117919091029150509392505050565b60008181526001830160205260408120548015613ab95783546000198083019190810190600090879083908110613a3057fe5b9060005260206000200154905080876000018481548110613a4d57fe5b600091825260208083209091019290925582815260018981019092526040902090840190558654879080613a7d57fe5b600190038181906000526020600020016000905590558660010160008781526020019081526020016000206000905560019450505050506108df565b60009150506108df565b6000613acf83836137cb565b613b05575081546001818101845560008481526020808220909301849055845484825282860190935260409020919091556108df565b5060006108df565b600082815260018401602052604081205480613b72575050604080518082018252838152602080820184815286546001818101895560008981528481209551600290930290950191825591519082015586548684528188019092529290912055610e5b565b82856000016001830381548110613b8557fe5b9060005260206000209060020201600101819055506000915050610e5b565b6040805160208082019690965260609490941b6bffffffffffffffffffffffff191684820152600292830b60e890811b60548601529190920b901b60578301528051808303603a018152605a9092019052805191012090565b600081831015613c0d57816108dc565b5090919050565b600082613c23575060006108df565b82820282848281613c3057fe5b04146108dc5760405162461bcd60e51b81526004018080602001828103825260218152602001806152336021913960400191505060405180910390fd5b6000818310613c0d57816108dc565b6000808211613cd2576040805162461bcd60e51b815260206004820152601a60248201527f536166654d6174683a206469766973696f6e206279207a65726f000000000000604482015290519081900360640190fd5b818381613cdb57fe5b049392505050565b6060611eac8484600085613f17565b3b151590565b80600f81900b81146104c157600080fd5b600080600080876001600160a01b0316633850c7bd6040518163ffffffff1660e01b815260040160e06040518083038186803b158015613d4857600080fd5b505afa158015613d5c573d6000803e3d6000fd5b505050506040513d60e0811015613d7257600080fd5b5080516020909101519092509050600080600f87900b15613e12578860020b8360020b1215613dbd57613db6613da78a614072565b613db08a614072565b896143c0565b9150613e12565b8760020b8360020b1215613df457613dd884613db08a614072565b9150613ded613de68a614072565b8589614404565b9050613e12565b613e0f613e008a614072565b613e098a614072565b89614404565b90505b60009182039a910398509650505050505050565b600080600080600080600087602001516001600160a01b0316638ae881ab89604001516040518263ffffffff1660e01b81526004018082815260200191505060a06040518083038186803b158015613e7d57600080fd5b505afa158015613e91573d6000803e3d6000fd5b505050506040513d60a0811015613ea757600080fd5b508051602082015160408301516060808501516080909501518d51918e0151949a5092985090965092945092506000918291613ee591908e8e614433565b91509150613f048787878d6080015188018e60a00151880187876146db565b9850985050505050505050935093915050565b606082471015613f585760405162461bcd60e51b81526004018080602001828103825260268152602001806151346026913960400191505060405180910390fd5b613f6185613cf2565b613fb2576040805162461bcd60e51b815260206004820152601d60248201527f416464726573733a2063616c6c20746f206e6f6e2d636f6e7472616374000000604482015290519081900360640190fd5b600080866001600160a01b031685876040518082805190602001908083835b60208310613ff05780518252601f199092019160209182019101613fd1565b6001836020036101000a03801982511681845116808217855250505050505090500191505060006040518083038185875af1925050503d8060008114614052576040519150601f19603f3d011682016040523d82523d6000602084013e614057565b606091505b509150915061406782828661474e565b979650505050505050565b60008060008360020b12614089578260020b614091565b8260020b6000035b9050620d89e88111156140eb576040805162461bcd60e51b815260206004820152600160248201527f5400000000000000000000000000000000000000000000000000000000000000604482015290519081900360640190fd5b6000600182166140ff57600160801b614111565b6ffffcb933bd6fad37aa2d162d1a5940015b70ffffffffffffffffffffffffffffffffff1690506002821615614145576ffff97272373d413259a46990580e213a0260801c5b6004821615614164576ffff2e50f5f656932ef12357cf3c7fdcc0260801c5b6008821615614183576fffe5caca7e10e4e61c3624eaa0941cd00260801c5b60108216156141a2576fffcb9843d60f6159c9db58835c9266440260801c5b60208216156141c1576fff973b41fa98c081472e6896dfb254c00260801c5b60408216156141e0576fff2ea16466c96a3843ec78b326b528610260801c5b60808216156141ff576ffe5dee046a99a2a811c461f1969c30530260801c5b61010082161561421f576ffcbe86c7900a88aedcffc83b479aa3a40260801c5b61020082161561423f576ff987a7253ac413176f2b074cf7815e540260801c5b61040082161561425f576ff3392b0822b70005940c7a398e4b70f30260801c5b61080082161561427f576fe7159475a2c29b7443b29c7fa6e889d90260801c5b61100082161561429f576fd097f3bdfd2022b8845ad8f792aa58250260801c5b6120008216156142bf576fa9f746462d870fdf8a65dc1f90e061e50260801c5b6140008216156142df576f70d869a156d2a1b890bb3df62baf32f70260801c5b6180008216156142ff576f31be135f97d08fd981231505542fcfa60260801c5b62010000821615614320576f09aa508b5b7a84e1c677de54f3e99bc90260801c5b62020000821615614340576e5d6af8dedb81196699c329225ee6040260801c5b6204000082161561435f576d2216e584f5fa1ea926041bedfe980260801c5b6208000082161561437c576b048a170391f7dc42444e8fa20260801c5b60008460020b131561439757806000198161439357fe5b0490505b6401000000008106156143ab5760016143ae565b60005b60ff16602082901c0192505050919050565b60008082600f0b126143e6576143e16143dc85858560016147b4565b614866565b611eac565b6143f96143dc85858560000360006147b4565b600003949350505050565b60008082600f0b12614420576143e16143dc8585856001614898565b6143f96143dc8585856000036000614898565b600080600080876001600160a01b031663514ea4bf886040518263ffffffff1660e01b81526004018082815260200191505060a06040518083038186803b15801561447d57600080fd5b505afa158015614491573d6000803e3d6000fd5b505050506040513d60a08110156144a757600080fd5b50602081015160409182015182517f3850c7bd000000000000000000000000000000000000000000000000000000008152925191945092506000916001600160a01b038b1691633850c7bd9160048082019260e092909190829003018186803b15801561451357600080fd5b505afa158015614527573d6000803e3d6000fd5b505050506040513d60e081101561453d57600080fd5b5060200151604080517ff30dba9300000000000000000000000000000000000000000000000000000000815260028a900b6004820152905191925060009182916001600160a01b038d169163f30dba939160248082019261010092909190829003018186803b1580156145af57600080fd5b505afa1580156145c3573d6000803e3d6000fd5b505050506040513d6101008110156145da57600080fd5b506040810151606090910151909250905060008060028b810b9086900b1261460657508290508161460f565b50508185038185035b6000808e6001600160a01b031663f30dba938d6040518263ffffffff1660e01b8152600401808260020b81526020019150506101006040518083038186803b15801561465a57600080fd5b505afa15801561466e573d6000803e3d6000fd5b505050506040513d61010081101561468557600080fd5b506040810151606090910151909250905060008060028e810b908a900b12156146b25750829050816146bb565b50508189038189035b94909903989098039e91909603919091039b509950505050505050505050565b6000806147018885038a6fffffffffffffffffffffffffffffffff16600160801b61394e565b860195506147288784038a6fffffffffffffffffffffffffffffffff16600160801b61394e565b6fffffffffffffffffffffffffffffffff9687169a950190951697509295505050505050565b6060831561475d575081610e5b565b82511561476d5782518084602001fd5b60405162461bcd60e51b815260206004820181815284516024840152845185939192839260440191908501908083836000831561358557818101518382015260200161356d565b6000836001600160a01b0316856001600160a01b031611156147d4579293925b7bffffffffffffffffffffffffffffffff000000000000000000000000606084901b166001600160a01b03868603811690871661481057600080fd5b8361484057866001600160a01b03166148338383896001600160a01b031661394e565b8161483a57fe5b04614067565b6140676148578383896001600160a01b0316614935565b886001600160a01b031661496f565b60007f8000000000000000000000000000000000000000000000000000000000000000821061489457600080fd5b5090565b6000836001600160a01b0316856001600160a01b031611156148b8579293925b816148f7576148f2836fffffffffffffffffffffffffffffffff168686036001600160a01b03166c0100000000000000000000000061394e565b61492c565b61492c836fffffffffffffffffffffffffffffffff168686036001600160a01b03166c01000000000000000000000000614935565b95945050505050565b600061494284848461394e565b90506000828061494e57fe5b8486091115610e5b57600019811061496557600080fd5b6001019392505050565b808204910615150190565b60006020828403121561498b578081fd5b81356108dc816150a3565b6000602082840312156149a7578081fd5b81516108dc816150a3565b600080604083850312156149c4578081fd5b82356149cf816150a3565b915060208301356149df816150a3565b809150509250929050565b600080600080600080600080610100898b031215614a06578384fd5b8851614a11816150a3565b60208a0151909850614a22816150a3565b60408a0151909750614a33816150a3565b60608a0151909650614a44816150a3565b60808a015160a08b015160c08c015160e0909c01519a9d999c50979a91999098919650945092505050565b600080600060608486031215614a83578283fd5b8335614a8e816150a3565b92506020840135614a9e816150a3565b929592945050506040919091013590565b60008060008060808587031215614ac4578384fd5b8435614acf816150a3565b9350602085810135614ae0816150a3565b935060408601359250606086013567ffffffffffffffff80821115614b03578384fd5b818801915088601f830112614b16578384fd5b813581811115614b2257fe5b614b3484601f19601f8401160161507f565b91508082528984828501011115614b49578485fd5b8084840185840137810190920192909252939692955090935050565b60008060408385031215614b77578182fd5b8235614b82816150a3565b9150602083013580151581146149df578182fd5b60008060408385031215614ba8578182fd5b8235614bb3816150a3565b946020939093013593505050565b60008060008060808587031215614bd6578384fd5b8435614be1816150a3565b9350602085013592506040850135614bf8816150a3565b9396929550929360600135925050565b600060208284031215614c19578081fd5b5035919050565b600060208284031215614c31578081fd5b81357fffffffff00000000000000000000000000000000000000000000000000000000811681146108dc578182fd5b600060c08284031215614c71578081fd5b60405160c0810181811067ffffffffffffffff82111715614c8e57fe5b8060405250823581526020830135602082015260408301356040820152606083013560608201526080830135608082015260a083013560a08201528091505092915050565b600060a08284031215614ce4578081fd5b60405160a0810181811067ffffffffffffffff82111715614d0157fe5b806040525082358152602083013560208201526040830135604082015260608301356060820152608083013560808201528091505092915050565b600060208284031215614d4d578081fd5b5051919050565b60008060408385031215614d66578182fd5b50508035926020909101359150565b60008060408385031215614d87578182fd5b505080516020909101519092909150565b600080600060608486031215614dac578081fd5b505081359360208301359350604090920135919050565b600080600060608486031215614dd7578081fd5b8351925060208401519150604084015190509250925092565b91825260601b6bffffffffffffffffffffffff1916602082015260340190565b918252602082015260400190565b6001600160a01b0391909116815260200190565b901515815260200190565b6000602080835283518082850152825b81811015614e6957858101830151858201604001528201614e4d565b81811115614e7a5783604083870101525b50601f01601f1916929092016040019392505050565b60208082526002908201527f4f4f000000000000000000000000000000000000000000000000000000000000604082015260600190565b60208082526002908201527f4e5a000000000000000000000000000000000000000000000000000000000000604082015260600190565b60208082526003908201527f4348490000000000000000000000000000000000000000000000000000000000604082015260600190565b6020808252600a908201527f6f6e6c79206f776e657200000000000000000000000000000000000000000000604082015260600190565b6020808252600c908201527f6e6f7420617070726f7665640000000000000000000000000000000000000000604082015260600190565b60208082526013908201527f696e73756666696369656e742073686172657300000000000000000000000000604082015260600190565b6fffffffffffffffffffffffffffffffff95861681526020810194909452604084019290925283166060830152909116608082015260a00190565b90815260200190565b9283526020830191909152604082015260600190565b948552602085019390935260408401919091526060830152608082015260a00190565b958652602086019490945260408501929092526060840152608083015260a082015260c00190565b60405181810167ffffffffffffffff8111828210171561509b57fe5b604052919050565b6001600160a01b03811681146150b857600080fd5b5056fe456e756d657261626c655365743a20696e646578206f7574206f6620626f756e64734552433732313a207472616e7366657220746f206e6f6e20455243373231526563656976657220696d706c656d656e7465724552433732313a207472616e7366657220746f20746865207a65726f2061646472657373416464726573733a20696e73756666696369656e742062616c616e636520666f722063616c6c4552433732313a206f70657261746f7220717565727920666f72206e6f6e6578697374656e7420746f6b656e4552433732313a20617070726f76652063616c6c6572206973206e6f74206f776e6572206e6f7220617070726f76656420666f7220616c6c4552433732313a2062616c616e636520717565727920666f7220746865207a65726f20616464726573734552433732313a206f776e657220717565727920666f72206e6f6e6578697374656e7420746f6b656e456e756d657261626c654d61703a20696e646578206f7574206f6620626f756e6473536166654d6174683a206d756c7469706c69636174696f6e206f766572666c6f774552433732313a20617070726f76656420717565727920666f72206e6f6e6578697374656e7420746f6b656e4552433732313a207472616e73666572206f6620746f6b656e2074686174206973206e6f74206f776e4552433732314d657461646174613a2055524920717565727920666f72206e6f6e6578697374656e7420746f6b656e4552433732313a20617070726f76616c20746f2063757272656e74206f776e65724552433732313a207472616e736665722063616c6c6572206973206e6f74206f776e6572206e6f7220617070726f7665645361666545524332303a204552433230206f7065726174696f6e20646964206e6f7420737563636565645361666545524332303a20617070726f76652066726f6d206e6f6e2d7a65726f20746f206e6f6e2d7a65726f20616c6c6f77616e6365a164736f6c6343000706000a",
  "linkReferences": {},
  "deployedLinkReferences": {}
}