{
  "_format": "hh-sol-artifact-1",
  "contractName": "YangNFTVault",
  "sourceName": "contracts/YangNFTVault.sol",
  "abi": [
    {
      "inputs": [
        {
          "internalType": "bytes32",
          "name": "_merkleRoot",
          "type": "bytes32"
        }
      ],
      "stateMutability": "nonpayable",
      "type": "constructor"
    },
    {
      "anonymous": false,
      "inputs": [
        {
          "indexed": true,
          "internalType": "address",
          "name": "owner",
          "type": "address"
        },
        {
          "indexed": true,
          "internalType": "address",
          "name": "approved",
          "type": "address"
        },
        {
          "indexed": true,
          "internalType": "uint256",
          "name": "tokenId",
          "type": "uint256"
        }
      ],
      "name": "Approval",
      "type": "event"
    },
    {
      "anonymous": false,
      "inputs": [
        {
          "indexed": true,
          "internalType": "address",
          "name": "owner",
          "type": "address"
        },
        {
          "indexed": true,
          "internalType": "address",
          "name": "operator",
          "type": "address"
        },
        {
          "indexed": false,
          "internalType": "bool",
          "name": "approved",
          "type": "bool"
        }
      ],
      "name": "ApprovalForAll",
      "type": "event"
    },
    {
      "anonymous": false,
      "inputs": [
        {
          "indexed": true,
          "internalType": "uint256",
          "name": "tokenId",
          "type": "uint256"
        },
        {
          "indexed": true,
          "internalType": "address",
          "name": "token0",
          "type": "address"
        },
        {
          "indexed": false,
          "internalType": "address",
          "name": "token1",
          "type": "address"
        }
      ],
      "name": "Deposit",
      "type": "event"
    },
    {
      "anonymous": false,
      "inputs": [
        {
          "indexed": true,
          "internalType": "address",
          "name": "recipient",
          "type": "address"
        },
        {
          "indexed": true,
          "internalType": "uint256",
          "name": "tokenId",
          "type": "uint256"
        }
      ],
      "name": "MintYangNFT",
      "type": "event"
    },
    {
      "anonymous": false,
      "inputs": [
        {
          "indexed": true,
          "internalType": "uint256",
          "name": "yangId",
          "type": "uint256"
        },
        {
          "indexed": true,
          "internalType": "uint256",
          "name": "chiId",
          "type": "uint256"
        },
        {
          "indexed": true,
          "internalType": "uint256",
          "name": "share",
          "type": "uint256"
        }
      ],
      "name": "Subscribe",
      "type": "event"
    },
    {
      "anonymous": false,
      "inputs": [
        {
          "indexed": true,
          "internalType": "address",
          "name": "from",
          "type": "address"
        },
        {
          "indexed": true,
          "internalType": "address",
          "name": "to",
          "type": "address"
        },
        {
          "indexed": true,
          "internalType": "uint256",
          "name": "tokenId",
          "type": "uint256"
        }
      ],
      "name": "Transfer",
      "type": "event"
    },
    {
      "anonymous": false,
      "inputs": [
        {
          "indexed": true,
          "internalType": "uint256",
          "name": "yangId",
          "type": "uint256"
        },
        {
          "indexed": true,
          "internalType": "uint256",
          "name": "chiId",
          "type": "uint256"
        },
        {
          "indexed": false,
          "internalType": "uint256",
          "name": "amount0",
          "type": "uint256"
        },
        {
          "indexed": false,
          "internalType": "uint256",
          "name": "amount1",
          "type": "uint256"
        }
      ],
      "name": "UnSubscribe",
      "type": "event"
    },
    {
      "anonymous": false,
      "inputs": [
        {
          "indexed": true,
          "internalType": "uint256",
          "name": "tokenId",
          "type": "uint256"
        },
        {
          "indexed": true,
          "internalType": "address",
          "name": "token0",
          "type": "address"
        },
        {
          "indexed": false,
          "internalType": "address",
          "name": "token1",
          "type": "address"
        }
      ],
      "name": "Withdraw",
      "type": "event"
    },
    {
      "inputs": [
        {
          "internalType": "address",
          "name": "to",
          "type": "address"
        },
        {
          "internalType": "uint256",
          "name": "tokenId",
          "type": "uint256"
        }
      ],
      "name": "approve",
      "outputs": [],
      "stateMutability": "nonpayable",
      "type": "function"
    },
    {
      "inputs": [
        {
          "internalType": "address",
          "name": "owner",
          "type": "address"
        }
      ],
      "name": "balanceOf",
      "outputs": [
        {
          "internalType": "uint256",
          "name": "",
          "type": "uint256"
        }
      ],
      "stateMutability": "view",
      "type": "function"
    },
    {
      "inputs": [],
      "name": "baseURI",
      "outputs": [
        {
          "internalType": "string",
          "name": "",
          "type": "string"
        }
      ],
      "stateMutability": "view",
      "type": "function"
    },
    {
      "inputs": [
        {
          "internalType": "uint256",
          "name": "tokenId",
          "type": "uint256"
        },
        {
          "internalType": "address",
          "name": "token0",
          "type": "address"
        },
        {
          "internalType": "uint256",
          "name": "amount0",
          "type": "uint256"
        },
        {
          "internalType": "address",
          "name": "token1",
          "type": "address"
        },
        {
          "internalType": "uint256",
          "name": "amount1",
          "type": "uint256"
        }
      ],
      "name": "deposit",
      "outputs": [],
      "stateMutability": "nonpayable",
      "type": "function"
    },
    {
      "inputs": [
        {
          "internalType": "uint256",
          "name": "yangId",
          "type": "uint256"
        },
        {
          "internalType": "uint256",
          "name": "chiId",
          "type": "uint256"
        },
        {
          "internalType": "address",
          "name": "user",
          "type": "address"
        }
      ],
      "name": "getAmounts",
      "outputs": [
        {
          "internalType": "uint256",
          "name": "amount0",
          "type": "uint256"
        },
        {
          "internalType": "uint256",
          "name": "amount1",
          "type": "uint256"
        }
      ],
      "stateMutability": "view",
      "type": "function"
    },
    {
      "inputs": [
        {
          "internalType": "uint256",
          "name": "tokenId",
          "type": "uint256"
        }
      ],
      "name": "getApproved",
      "outputs": [
        {
          "internalType": "address",
          "name": "",
          "type": "address"
        }
      ],
      "stateMutability": "view",
      "type": "function"
    },
    {
      "inputs": [
        {
          "internalType": "uint256",
          "name": "chiId",
          "type": "uint256"
        }
      ],
      "name": "getCHIAccruedFees",
      "outputs": [
        {
          "internalType": "uint256",
          "name": "fee0",
          "type": "uint256"
        },
        {
          "internalType": "uint256",
          "name": "fee1",
          "type": "uint256"
        }
      ],
      "stateMutability": "view",
      "type": "function"
    },
    {
      "inputs": [
        {
          "internalType": "uint256",
          "name": "chiId",
          "type": "uint256"
        }
      ],
      "name": "getCHITotalAmounts",
      "outputs": [
        {
          "internalType": "uint256",
          "name": "amount0",
          "type": "uint256"
        },
        {
          "internalType": "uint256",
          "name": "amount1",
          "type": "uint256"
        }
      ],
      "stateMutability": "view",
      "type": "function"
    },
    {
      "inputs": [
        {
          "internalType": "uint256",
          "name": "chiId",
          "type": "uint256"
        },
        {
          "internalType": "uint256",
          "name": "amount0Desired",
          "type": "uint256"
        },
        {
          "internalType": "uint256",
          "name": "amount1Desired",
          "type": "uint256"
        }
      ],
      "name": "getShares",
      "outputs": [
        {
          "internalType": "uint256",
          "name": "",
          "type": "uint256"
        }
      ],
      "stateMutability": "view",
      "type": "function"
    },
    {
      "inputs": [],
      "name": "gov",
      "outputs": [
        {
          "internalType": "address",
          "name": "",
          "type": "address"
        }
      ],
      "stateMutability": "view",
      "type": "function"
    },
    {
      "inputs": [
        {
          "internalType": "address",
          "name": "owner",
          "type": "address"
        },
        {
          "internalType": "address",
          "name": "operator",
          "type": "address"
        }
      ],
      "name": "isApprovedForAll",
      "outputs": [
        {
          "internalType": "bool",
          "name": "",
          "type": "bool"
        }
      ],
      "stateMutability": "view",
      "type": "function"
    },
    {
      "inputs": [],
      "name": "merkleRoot",
      "outputs": [
        {
          "internalType": "bytes32",
          "name": "",
          "type": "bytes32"
        }
      ],
      "stateMutability": "view",
      "type": "function"
    },
    {
      "inputs": [
        {
          "internalType": "address",
          "name": "recipient",
          "type": "address"
        },
        {
          "internalType": "bytes32[]",
          "name": "merkleProof",
          "type": "bytes32[]"
        }
      ],
      "name": "mint",
      "outputs": [
        {
          "internalType": "uint256",
          "name": "tokenId",
          "type": "uint256"
        }
      ],
      "stateMutability": "nonpayable",
      "type": "function"
    },
    {
      "inputs": [],
      "name": "name",
      "outputs": [
        {
          "internalType": "string",
          "name": "",
          "type": "string"
        }
      ],
      "stateMutability": "view",
      "type": "function"
    },
    {
      "inputs": [],
      "name": "nextgov",
      "outputs": [
        {
          "internalType": "address",
          "name": "",
          "type": "address"
        }
      ],
      "stateMutability": "view",
      "type": "function"
    },
    {
      "inputs": [],
      "name": "owner",
      "outputs": [
        {
          "internalType": "address",
          "name": "",
          "type": "address"
        }
      ],
      "stateMutability": "view",
      "type": "function"
    },
    {
      "inputs": [
        {
          "internalType": "uint256",
          "name": "tokenId",
          "type": "uint256"
        }
      ],
      "name": "ownerOf",
      "outputs": [
        {
          "internalType": "address",
          "name": "",
          "type": "address"
        }
      ],
      "stateMutability": "view",
      "type": "function"
    },
    {
      "inputs": [
        {
          "internalType": "bytes32",
          "name": "key",
          "type": "bytes32"
        }
      ],
      "name": "poolPositions",
      "outputs": [
        {
          "internalType": "uint128",
          "name": "liquidity",
          "type": "uint128"
        },
        {
          "internalType": "uint256",
          "name": "feeGrowthInside0LastX128",
          "type": "uint256"
        },
        {
          "internalType": "uint256",
          "name": "feeGrowthInside1LastX128",
          "type": "uint256"
        },
        {
          "internalType": "uint128",
          "name": "tokensOwed0",
          "type": "uint128"
        },
        {
          "internalType": "uint128",
          "name": "tokensOwed1",
          "type": "uint128"
        }
      ],
      "stateMutability": "view",
      "type": "function"
    },
    {
      "inputs": [
        {
          "internalType": "address",
          "name": "from",
          "type": "address"
        },
        {
          "internalType": "address",
          "name": "to",
          "type": "address"
        },
        {
          "internalType": "uint256",
          "name": "tokenId",
          "type": "uint256"
        }
      ],
      "name": "safeTransferFrom",
      "outputs": [],
      "stateMutability": "nonpayable",
      "type": "function"
    },
    {
      "inputs": [
        {
          "internalType": "address",
          "name": "from",
          "type": "address"
        },
        {
          "internalType": "address",
          "name": "to",
          "type": "address"
        },
        {
          "internalType": "uint256",
          "name": "tokenId",
          "type": "uint256"
        },
        {
          "internalType": "bytes",
          "name": "_data",
          "type": "bytes"
        }
      ],
      "name": "safeTransferFrom",
      "outputs": [],
      "stateMutability": "nonpayable",
      "type": "function"
    },
    {
      "inputs": [
        {
          "internalType": "address",
          "name": "operator",
          "type": "address"
        },
        {
          "internalType": "bool",
          "name": "approved",
          "type": "bool"
        }
      ],
      "name": "setApprovalForAll",
      "outputs": [],
      "stateMutability": "nonpayable",
      "type": "function"
    },
    {
      "inputs": [
        {
          "internalType": "address",
          "name": "_chiManager",
          "type": "address"
        }
      ],
      "name": "setCHIManager",
      "outputs": [],
      "stateMutability": "nonpayable",
      "type": "function"
    },
    {
      "inputs": [
        {
          "internalType": "address",
          "name": "_yangView",
          "type": "address"
        }
      ],
      "name": "setYangView",
      "outputs": [],
      "stateMutability": "nonpayable",
      "type": "function"
    },
    {
      "inputs": [
        {
          "components": [
            {
              "internalType": "uint256",
              "name": "yangId",
              "type": "uint256"
            },
            {
              "internalType": "uint256",
              "name": "chiId",
              "type": "uint256"
            },
            {
              "internalType": "uint256",
              "name": "amount0Desired",
              "type": "uint256"
            },
            {
              "internalType": "uint256",
              "name": "amount1Desired",
              "type": "uint256"
            },
            {
              "internalType": "uint256",
              "name": "amount0Min",
              "type": "uint256"
            },
            {
              "internalType": "uint256",
              "name": "amount1Min",
              "type": "uint256"
            }
          ],
          "internalType": "struct IYangNFTVault.SubscribeParam",
          "name": "params",
          "type": "tuple"
        }
      ],
      "name": "subscribe",
      "outputs": [
        {
          "internalType": "uint256",
          "name": "",
          "type": "uint256"
        }
      ],
      "stateMutability": "nonpayable",
      "type": "function"
    },
    {
      "inputs": [
        {
          "internalType": "bytes4",
          "name": "interfaceId",
          "type": "bytes4"
        }
      ],
      "name": "supportsInterface",
      "outputs": [
        {
          "internalType": "bool",
          "name": "",
          "type": "bool"
        }
      ],
      "stateMutability": "view",
      "type": "function"
    },
    {
      "inputs": [],
      "name": "symbol",
      "outputs": [
        {
          "internalType": "string",
          "name": "",
          "type": "string"
        }
      ],
      "stateMutability": "view",
      "type": "function"
    },
    {
      "inputs": [
        {
          "internalType": "uint256",
          "name": "index",
          "type": "uint256"
        }
      ],
      "name": "tokenByIndex",
      "outputs": [
        {
          "internalType": "uint256",
          "name": "",
          "type": "uint256"
        }
      ],
      "stateMutability": "view",
      "type": "function"
    },
    {
      "inputs": [
        {
          "internalType": "address",
          "name": "owner",
          "type": "address"
        },
        {
          "internalType": "uint256",
          "name": "index",
          "type": "uint256"
        }
      ],
      "name": "tokenOfOwnerByIndex",
      "outputs": [
        {
          "internalType": "uint256",
          "name": "",
          "type": "uint256"
        }
      ],
      "stateMutability": "view",
      "type": "function"
    },
    {
      "inputs": [
        {
          "internalType": "uint256",
          "name": "tokenId",
          "type": "uint256"
        }
      ],
      "name": "tokenURI",
      "outputs": [
        {
          "internalType": "string",
          "name": "",
          "type": "string"
        }
      ],
      "stateMutability": "view",
      "type": "function"
    },
    {
      "inputs": [],
      "name": "totalSupply",
      "outputs": [
        {
          "internalType": "uint256",
          "name": "",
          "type": "uint256"
        }
      ],
      "stateMutability": "view",
      "type": "function"
    },
    {
      "inputs": [
        {
          "internalType": "address",
          "name": "from",
          "type": "address"
        },
        {
          "internalType": "address",
          "name": "to",
          "type": "address"
        },
        {
          "internalType": "uint256",
          "name": "tokenId",
          "type": "uint256"
        }
      ],
      "name": "transferFrom",
      "outputs": [],
      "stateMutability": "nonpayable",
      "type": "function"
    },
    {
      "inputs": [
        {
          "components": [
            {
              "internalType": "uint256",
              "name": "yangId",
              "type": "uint256"
            },
            {
              "internalType": "uint256",
              "name": "chiId",
              "type": "uint256"
            },
            {
              "internalType": "uint256",
              "name": "shares",
              "type": "uint256"
            },
            {
              "internalType": "uint256",
              "name": "amount0Min",
              "type": "uint256"
            },
            {
              "internalType": "uint256",
              "name": "amount1Min",
              "type": "uint256"
            }
          ],
          "internalType": "struct IYangNFTVault.UnSubscribeParam",
          "name": "params",
          "type": "tuple"
        }
      ],
      "name": "unsubscribe",
      "outputs": [],
      "stateMutability": "nonpayable",
      "type": "function"
    },
    {
      "inputs": [
        {
          "internalType": "bytes32",
          "name": "_merkleRoot",
          "type": "bytes32"
        }
      ],
      "name": "updateMerkleRoot",
      "outputs": [],
      "stateMutability": "nonpayable",
      "type": "function"
    },
    {
      "inputs": [
        {
          "internalType": "uint256",
          "name": "tokenId",
          "type": "uint256"
        },
        {
          "internalType": "address",
          "name": "token0",
          "type": "address"
        },
        {
          "internalType": "uint256",
          "name": "amount0",
          "type": "uint256"
        },
        {
          "internalType": "address",
          "name": "token1",
          "type": "address"
        },
        {
          "internalType": "uint256",
          "name": "amount1",
          "type": "uint256"
        }
      ],
      "name": "withdraw",
      "outputs": [],
      "stateMutability": "nonpayable",
      "type": "function"
    },
    {
      "inputs": [
        {
          "internalType": "address",
          "name": "recipient",
          "type": "address"
        },
        {
          "internalType": "address",
          "name": "token",
          "type": "address"
        },
        {
          "internalType": "uint256",
          "name": "tokenId",
          "type": "uint256"
        }
      ],
      "name": "yangPositions",
      "outputs": [
        {
          "internalType": "uint256",
          "name": "",
          "type": "uint256"
        }
      ],
      "stateMutability": "view",
      "type": "function"
    },
    {
      "inputs": [],
      "name": "yangView",
      "outputs": [
        {
          "internalType": "address",
          "name": "",
          "type": "address"
        }
      ],
      "stateMutability": "view",
      "type": "function"
    }
  ],
  "bytecode": "0x608060405260016011553480156200001657600080fd5b50604051620045f9380380620045f9833981016040819052620000399162000253565b604080518082018252601481527f59414e472773204173736574204d616e616765720000000000000000000000006020808301919091528251808401909352600483526359414e4760e01b90830152600160005590620000a06301ffc9a760e01b6200011f565b8151620000b5906007906020850190620001a7565b508051620000cb906008906020840190620001a7565b50620000de6380ac58cd60e01b6200011f565b620000f0635b5e139f60e01b6200011f565b6200010263780e9d6360e01b6200011f565b5050600b80546001600160a01b031916331790556010556200026c565b6001600160e01b031980821614156200017f576040805162461bcd60e51b815260206004820152601c60248201527f4552433136353a20696e76616c696420696e7465726661636520696400000000604482015290519081900360640190fd5b6001600160e01b0319166000908152600160208190526040909120805460ff19169091179055565b828054600181600116156101000203166002900490600052602060002090601f016020900481019282620001df57600085556200022a565b82601f10620001fa57805160ff19168380011785556200022a565b828001600101855582156200022a579182015b828111156200022a5782518255916020019190600101906200020d565b50620002389291506200023c565b5090565b5b808211156200023857600081556001016200023d565b60006020828403121562000265578081fd5b5051919050565b61437d806200027c6000396000f3fe608060405234801561001057600080fd5b506004361061025c5760003560e01c80635c0d107e116101455780638da5cb5b116100bd578063b88d4fde1161008c578063e5d9cc9a11610071578063e5d9cc9a146104da578063e985e9c5146104ed578063f94e4e80146105005761025c565b8063b88d4fde146104b4578063c87b56dd146104c75761025c565b80638da5cb5b1461047e57806395d89b4114610486578063a22cb4651461048e578063a244a481146104a15761025c565b806365f13f2c1161011457806370a08231116100f957806370a08231146104345780637bf32270146104475780638ae881ab1461045a5761025c565b806365f13f2c146104195780636c0360eb1461042c5761025c565b80635c0d107e146103d85780635f0600f7146103eb5780636352211e146103fe57806365b98e00146104115761025c565b80632599da08116101d857806342842e0e116101a75780634783f0ef1161018c5780634783f0ef1461039f5780634f6ccce7146103b2578063536fbbf7146103c55761025c565b806342842e0e1461037957806342e6e0fe1461038c5761025c565b80632599da08146103385780632eb4a7ab1461034b5780632f745c59146103535780633ab2e4ba146103665761025c565b806312d43a511161022f57806318160ddd1161021457806318160ddd146102fd5780631d322dbb1461031257806323b872dd146103255761025c565b806312d43a51146102d45780631468c865146102dc5761025c565b806301ffc9a71461026157806306fdde031461028a578063081812fc1461029f578063095ea7b3146102bf575b600080fd5b61027461026f366004613ace565b610508565b6040516102819190613dd4565b60405180910390f35b610292610543565b6040516102819190613de8565b6102b26102ad366004613ab6565b6105d9565b6040516102819190613d76565b6102d26102cd366004613a8b565b61063b565b005b6102b2610711565b6102ef6102ea366004613c76565b610720565b60405161028192919061402e565b6103056108e8565b6040516102819190613ddf565b6102d2610320366004613c02565b6108f9565b6102d26103333660046138e2565b610a1f565b6103056103463660046138e2565b610a76565b610305610ae5565b610305610361366004613a8b565b610aeb565b6102d2610374366004613b81565b610b16565b6102d26103873660046138e2565b610f1f565b61030561039a366004613cae565b610f3a565b6102d26103ad366004613ab6565b61109c565b6103056103c0366004613ab6565b6110cb565b6102d26103d3366004613c02565b6110e1565b6103056103e6366004613b0e565b6111f2565b6102ef6103f9366004613ab6565b61175b565b6102b261040c366004613ab6565b61188e565b6102b26118b6565b6102d26104273660046137ed565b6118c5565b61029261191e565b6103056104423660046137ed565b61197f565b6103056104553660046139d8565b6119e7565b61046d610468366004613ab6565b611b18565b604051610281959493929190613ff3565b6102b2611b98565b610292611ba7565b6102d261049c366004613a5a565b611c08565b6102d26104af3660046137ed565b611d0d565b6102d26104c2366004613922565b611d66565b6102926104d5366004613ab6565b611dc4565b6102ef6104e8366004613ab6565b612045565b6102746104fb366004613825565b6121e9565b6102b2612217565b7fffffffff00000000000000000000000000000000000000000000000000000000811660009081526001602052604090205460ff165b919050565b60078054604080516020601f60026000196101006001881615020190951694909404938401819004810282018101909252828152606093909290918301828280156105cf5780601f106105a4576101008083540402835291602001916105cf565b820191906000526020600020905b8154815290600101906020018083116105b257829003601f168201915b5050505050905090565b60006105e482612226565b61061f5760405162461bcd60e51b815260040180806020018281038252602c81526020018061423b602c913960400191505060405180910390fd5b506000908152600560205260409020546001600160a01b031690565b60006106468261188e565b9050806001600160a01b0316836001600160a01b031614156106995760405162461bcd60e51b81526004018080602001828103825260218152602001806142bf6021913960400191505060405180910390fd5b806001600160a01b03166106ab612233565b6001600160a01b031614806106c757506106c7816104fb612233565b6107025760405162461bcd60e51b815260040180806020018281038252603881526020018061418e6038913960400191505060405180910390fd5b61070c8383612237565b505050565b600c546001600160a01b031681565b600e5460009081906001600160a01b03166107565760405162461bcd60e51b815260040161074d90613ee0565b60405180910390fd5b600085858560405160200161076d93929190613d4e565b60408051601f19818403018152918152815160209283012060008181526014909352912054909150156108df57600e54604051635cef66b360e11b815260009182916001600160a01b039091169063b9decd66906107cf908a90600401613ddf565b6101006040518083038186803b1580156107e857600080fd5b505afa1580156107fc573d6000803e3d6000fd5b505050506040513d601f19601f82011682018060405250810190610820919061385d565b5050600f5460008a815260146020526040908190205490517fabb543880000000000000000000000000000000000000000000000000000000081529599509397506001600160a01b0316955063abb5438894506108889388938893508f925090600401613d8a565b604080518083038186803b15801561089f57600080fd5b505afa1580156108b3573d6000803e3d6000fd5b505050506040513d601f19601f820116820180604052508101906108d79190613c53565b909550935050505b50935093915050565b60006108f460036122b2565b905090565b8461090433826122bd565b6109205760405162461bcd60e51b815260040161074d90613f85565b60026000541415610978576040805162461bcd60e51b815260206004820152601f60248201527f5265656e7472616e637947756172643a207265656e7472616e742063616c6c00604482015290519081900360640190fd5b60026000558361099a5760405162461bcd60e51b815260040161074d90613ea9565b600082116109ba5760405162461bcd60e51b815260040161074d90613ea9565b6109c5868686612361565b6109d0868484612361565b846001600160a01b0316867fa51bb7c2c2049ab09fbff5561211a4ee34b3b4cee74c42f1bce5461cd4ef3f8d85604051610a0a9190613d76565b60405180910390a35050600160005550505050565b610a30610a2a612233565b826122bd565b610a6b5760405162461bcd60e51b81526004018080602001828103825260318152602001806142e06031913960400191505060405180910390fd5b61070c8383836123a8565b6000610a8284836122bd565b610a9e5760405162461bcd60e51b815260040161074d90613f85565b6000828585604051602001610ab593929190613d23565b60408051601f198184030181529181528151602092830120600090815260139092529020549150505b9392505050565b60105481565b6001600160a01b0382166000908152600260205260408120610b0d90836124f4565b90505b92915050565b8051610b2233826122bd565b610b3e5760405162461bcd60e51b815260040161074d90613f85565b60026000541415610b96576040805162461bcd60e51b815260206004820152601f60248201527f5265656e7472616e637947756172643a207265656e7472616e742063616c6c00604482015290519081900360640190fd5b6002600055600e546001600160a01b0316610bc35760405162461bcd60e51b815260040161074d90613ee0565b600e546020830151604051635cef66b360e11b815260009283926001600160a01b039091169163b9decd6691610bfb91600401613ddf565b6101006040518083038186803b158015610c1457600080fd5b505afa158015610c28573d6000803e3d6000fd5b505050506040513d601f19601f82011682018060405250810190610c4c919061385d565b5050505093509350505060008460000151856020015133604051602001610c7593929190613d4e565b604051602081830303815290604052805190602001209050846040015160146000838152602001908152602001600020541015610cc45760405162461bcd60e51b815260040161074d90613fbc565b600e548551602087015160408089015160608a015160808b015192517f46698e7500000000000000000000000000000000000000000000000000000000815260009687966001600160a01b03909116956346698e7595610d2a959294919360040161403c565b6040805180830381600087803b158015610d4357600080fd5b505af1158015610d57573d6000803e3d6000fd5b505050506040513d601f19601f82011682018060405250810190610d7b9190613c53565b6040808a0151600087815260146020529190912054929450909250610da09190612500565b60146000858152602001908152602001600020819055506000859050610e3b8860000151826001600160a01b0316630dfe16816040518163ffffffff1660e01b815260040160206040518083038186803b158015610dfd57600080fd5b505afa158015610e11573d6000803e3d6000fd5b505050506040513d601f19601f82011682018060405250810190610e359190613809565b8561255d565b610eba8860000151826001600160a01b031663d21220a76040518163ffffffff1660e01b815260040160206040518083038186803b158015610e7c57600080fd5b505afa158015610e90573d6000803e3d6000fd5b505050506040513d601f19601f82011682018060405250810190610eb49190613809565b8461255d565b87518590610ece90601590849084906125bb565b602089015189516040517fb65ca58d729d89d58e1ed48a179b40d4a6b56e3e101a10085a0f43915cf1448890610f07908890889061402e565b60405180910390a35050600160005550505050505050565b61070c83838360405180602001604052806000815250611d66565b600e546000906001600160a01b0316610f655760405162461bcd60e51b815260040161074d90613ee0565b600e54604051635cef66b360e11b81526000916001600160a01b03169063b9decd6690610f96908890600401613ddf565b6101006040518083038186803b158015610faf57600080fd5b505afa158015610fc3573d6000803e3d6000fd5b505050506040513d601f19601f82011682018060405250810190610fe7919061385d565b5050600f546040517f82dc04db000000000000000000000000000000000000000000000000000000008152939750600096506001600160a01b031694506382dc04db935061103f928792508a91508990600401613db3565b60606040518083038186803b15801561105757600080fd5b505afa15801561106b573d6000803e3d6000fd5b505050506040513d601f19601f8201168201806040525081019061108f9190613cd9565b5090979650505050505050565b600b546001600160a01b031633146110c65760405162461bcd60e51b815260040161074d90613f4e565b601055565b6000806110d96003846127aa565b509392505050565b846110ec33826122bd565b6111085760405162461bcd60e51b815260040161074d90613f85565b60026000541415611160576040805162461bcd60e51b815260206004820152601f60248201527f5265656e7472616e637947756172643a207265656e7472616e742063616c6c00604482015290519081900360640190fd5b6002600055836111825760405162461bcd60e51b815260040161074d90613ea9565b600082116111a25760405162461bcd60e51b815260040161074d90613ea9565b6111ad8686866127c6565b6111b88684846127c6565b846001600160a01b0316867fa3d2cbcb90e0658235d4ba62aed9a50c231df9bc5bbfb74c95badbc798f38d1a85604051610a0a9190613d76565b805160009061120133826122bd565b61121d5760405162461bcd60e51b815260040161074d90613f85565b60026000541415611275576040805162461bcd60e51b815260206004820152601f60248201527f5265656e7472616e637947756172643a207265656e7472616e742063616c6c00604482015290519081900360640190fd5b6002600055600e546001600160a01b03166112a25760405162461bcd60e51b815260040161074d90613ee0565b600e546020840151604051635cef66b360e11b815260009283926001600160a01b039091169163b9decd66916112da91600401613ddf565b6101006040518083038186803b1580156112f357600080fd5b505afa158015611307573d6000803e3d6000fd5b505050506040513d601f19601f8201168201806040525081019061132b919061385d565b5050505093509350505060008290506113d9600e60009054906101000a90046001600160a01b03168760400151836001600160a01b0316630dfe16816040518163ffffffff1660e01b815260040160206040518083038186803b15801561139157600080fd5b505afa1580156113a5573d6000803e3d6000fd5b505050506040513d601f19601f820116820180604052508101906113c99190613809565b6001600160a01b0316919061280d565b611430600e60009054906101000a90046001600160a01b03168760600151836001600160a01b031663d21220a76040518163ffffffff1660e01b815260040160206040518083038186803b15801561139157600080fd5b600e54865160208801516040808a015160608b015160808c015160a08d015193517fec28fcac000000000000000000000000000000000000000000000000000000008152600097889788976001600160a01b039092169663ec28fcac966114a196929593949093919060040161405f565b606060405180830381600087803b1580156114bb57600080fd5b505af11580156114cf573d6000803e3d6000fd5b505050506040513d601f19601f820116820180604052508101906114f39190613cd9565b9250925092506115788960000151856001600160a01b0316630dfe16816040518163ffffffff1660e01b815260040160206040518083038186803b15801561153a57600080fd5b505afa15801561154e573d6000803e3d6000fd5b505050506040513d601f19601f820116820180604052508101906115729190613809565b84612967565b6115f78960000151856001600160a01b031663d21220a76040518163ffffffff1660e01b815260040160206040518083038186803b1580156115b957600080fd5b505afa1580156115cd573d6000803e3d6000fd5b505050506040513d601f19601f820116820180604052508101906115f19190613809565b83612967565b61164b600e60009054906101000a90046001600160a01b03166000866001600160a01b0316630dfe16816040518163ffffffff1660e01b815260040160206040518083038186803b15801561139157600080fd5b61169f600e60009054906101000a90046001600160a01b03166000866001600160a01b031663d21220a76040518163ffffffff1660e01b815260040160206040518083038186803b15801561139157600080fd5b600089600001518a60200151336040516020016116be93929190613d4e565b60408051601f198184030181529181528151602092830120600081815260149093529120549091506116f090856129e2565b6000828152601460205260409020558951869061171390601590889084906125bb565b60208b01518b51604051879291907f17de92c1076ec5855c3edd4a6084a82c184adfda177deb99d6532697cdac91cb90600090a4505060016000555090979650505050505050565b600e5460009081906001600160a01b03166117885760405162461bcd60e51b815260040161074d90613ee0565b600e54604051635cef66b360e11b81526000916001600160a01b03169063b9decd66906117b9908790600401613ddf565b6101006040518083038186803b1580156117d257600080fd5b505afa1580156117e6573d6000803e3d6000fd5b505050506040513d601f19601f8201168201806040525081019061180a919061385d565b505050509350505050806001600160a01b031663c4a7761e6040518163ffffffff1660e01b8152600401604080518083038186803b15801561184b57600080fd5b505afa15801561185f573d6000803e3d6000fd5b505050506040513d601f19601f820116820180604052508101906118839190613c53565b909590945092505050565b6000610b10826040518060600160405280602981526020016141f06029913960039190612a3c565b600f546001600160a01b031681565b600b546001600160a01b031633146118ef5760405162461bcd60e51b815260040161074d90613f4e565b600f805473ffffffffffffffffffffffffffffffffffffffff19166001600160a01b0392909216919091179055565b600a8054604080516020601f60026000196101006001881615020190951694909404938401819004810282018101909252828152606093909290918301828280156105cf5780601f106105a4576101008083540402835291602001916105cf565b60006001600160a01b0382166119c65760405162461bcd60e51b815260040180806020018281038252602a8152602001806141c6602a913960400191505060405180910390fd5b6001600160a01b0382166000908152600260205260409020610b10906122b2565b600082826000336040516020016119fe9190613d06565b604051602081830303815290604052805190602001209050611a57838380806020026020016040519081016040528093929190818152602001838360200280828437600092019190915250506010549150849050612a49565b611a735760405162461bcd60e51b815260040161074d90613e3b565b6001600160a01b03871660009081526012602052604090205460ff1615611aac5760405162461bcd60e51b815260040161074d90613e72565b60118054600181019091559350611ac38785612af2565b6001600160a01b038716600081815260126020526040808220805460ff19166001179055518692917f74629109564de5ce9d04dc84bb5ecd8fbb0c98843a3fbd43f057825a9255449c91a35050509392505050565b600090815260156020908152604091829020825160a08101845281546fffffffffffffffffffffffffffffffff908116808352600184015494830185905260028401549583018690526003909301548082166060840181905270010000000000000000000000000000000090910490911660809092018290529194929392565b600b546001600160a01b031681565b60088054604080516020601f60026000196101006001881615020190951694909404938401819004810282018101909252828152606093909290918301828280156105cf5780601f106105a4576101008083540402835291602001916105cf565b611c10612233565b6001600160a01b0316826001600160a01b03161415611c76576040805162461bcd60e51b815260206004820152601960248201527f4552433732313a20617070726f766520746f2063616c6c657200000000000000604482015290519081900360640190fd5b8060066000611c83612233565b6001600160a01b03908116825260208083019390935260409182016000908120918716808252919093529120805460ff191692151592909217909155611cc7612233565b6001600160a01b03167f17307eab39ab6107e8899845ad3d59bd9653f200f220920489ca2b5937696c318360405180821515815260200191505060405180910390a35050565b600b546001600160a01b03163314611d375760405162461bcd60e51b815260040161074d90613f4e565b600e805473ffffffffffffffffffffffffffffffffffffffff19166001600160a01b0392909216919091179055565b611d77611d71612233565b836122bd565b611db25760405162461bcd60e51b81526004018080602001828103825260318152602001806142e06031913960400191505060405180910390fd5b611dbe84848484612c20565b50505050565b6060611dcf82612226565b611e0a5760405162461bcd60e51b815260040180806020018281038252602f815260200180614290602f913960400191505060405180910390fd5b60008281526009602090815260408083208054825160026001831615610100026000190190921691909104601f810185900485028201850190935282815292909190830182828015611e9d5780601f10611e7257610100808354040283529160200191611e9d565b820191906000526020600020905b815481529060010190602001808311611e8057829003601f168201915b505050505090506000611eae61191e565b9050805160001415611ec25750905061053e565b815115611f835780826040516020018083805190602001908083835b60208310611efd5780518252601f199092019160209182019101611ede565b51815160209384036101000a600019018019909216911617905285519190930192850191508083835b60208310611f455780518252601f199092019160209182019101611f26565b6001836020036101000a038019825116818451168082178552505050505050905001925050506040516020818303038152906040529250505061053e565b80611f8d85612c72565b6040516020018083805190602001908083835b60208310611fbf5780518252601f199092019160209182019101611fa0565b51815160209384036101000a600019018019909216911617905285519190930192850191508083835b602083106120075780518252601f199092019160209182019101611fe8565b6001836020036101000a0380198251168184511680821785525050505050509050019250505060405160208183030381529060405292505050919050565b600e5460009081906001600160a01b03166120725760405162461bcd60e51b815260040161074d90613ee0565b600e54604051635cef66b360e11b81526000916001600160a01b03169063b9decd66906120a3908790600401613ddf565b6101006040518083038186803b1580156120bc57600080fd5b505afa1580156120d0573d6000803e3d6000fd5b505050506040513d601f19601f820116820180604052508101906120f4919061385d565b505050509350505050806001600160a01b031663eae989a26040518163ffffffff1660e01b815260040160206040518083038186803b15801561213657600080fd5b505afa15801561214a573d6000803e3d6000fd5b505050506040513d601f19601f8201168201806040525081019061216e9190613bea565b9250806001600160a01b031663a00fa77f6040518163ffffffff1660e01b815260040160206040518083038186803b1580156121a957600080fd5b505afa1580156121bd573d6000803e3d6000fd5b505050506040513d601f19601f820116820180604052508101906121e19190613bea565b915050915091565b6001600160a01b03918216600090815260066020908152604080832093909416825291909152205460ff1690565b600d546001600160a01b031681565b6000610b10600383612d81565b3390565b6000818152600560205260409020805473ffffffffffffffffffffffffffffffffffffffff19166001600160a01b03841690811790915581906122798261188e565b6001600160a01b03167f8c5be1e5ebec7d5bd14f71427d1e84f3dd0314c0f7b2291e5b200ac8c7c3b92560405160405180910390a45050565b6000610b1082612d8d565b60006122c882612226565b6123035760405162461bcd60e51b815260040180806020018281038252602c815260200180614162602c913960400191505060405180910390fd5b600061230e8361188e565b9050806001600160a01b0316846001600160a01b031614806123495750836001600160a01b031661233e846105d9565b6001600160a01b0316145b80612359575061235981856121e9565b949350505050565b8261236c33826122bd565b6123885760405162461bcd60e51b815260040161074d90613f85565b612393848484612967565b611dbe6001600160a01b038416303385612d91565b826001600160a01b03166123bb8261188e565b6001600160a01b0316146124005760405162461bcd60e51b81526004018080602001828103825260298152602001806142676029913960400191505060405180910390fd5b6001600160a01b0382166124455760405162461bcd60e51b81526004018080602001828103825260248152602001806141186024913960400191505060405180910390fd5b61245083838361070c565b61245b600082612237565b6001600160a01b038316600090815260026020526040902061247d9082612e19565b506001600160a01b03821660009081526002602052604090206124a09082612e25565b506124ad60038284612e31565b5080826001600160a01b0316846001600160a01b03167fddf252ad1be2c89b69c2b068fc378daa952ba7f163c4a11628f55a4df523b3ef60405160405180910390a4505050565b6000610b0d8383612e47565b600082821115612557576040805162461bcd60e51b815260206004820152601e60248201527f536166654d6174683a207375627472616374696f6e206f766572666c6f770000604482015290519081900360640190fd5b50900390565b600083338460405160200161257493929190613d23565b60408051601f198184030181529181528151602092830120600081815260139093529120549091506125a690836129e2565b60009182526013602052604090912055505050565b60005b826001600160a01b031663b135a1456040518163ffffffff1660e01b815260040160206040518083038186803b1580156125f757600080fd5b505afa15801561260b573d6000803e3d6000fd5b505050506040513d602081101561262157600080fd5b50518110156127a357600080846001600160a01b031663cc364f48846040518263ffffffff1660e01b815260040180828152602001915050604080518083038186803b15801561267057600080fd5b505afa158015612684573d6000803e3d6000fd5b505050506040513d604081101561269a57600080fd5b508051602090910151909250905060006126b687878585612eab565b6fffffffffffffffffffffffffffffffff1611156127995760006126dd8886888686612f30565b905060008060008060008b6001600160a01b031663514ea4bf6127018d8b8b612f5a565b6040518263ffffffff1660e01b81526004018082815260200191505060a06040518083038186803b15801561273557600080fd5b505afa158015612749573d6000803e3d6000fd5b505050506040513d60a081101561275f57600080fd5b50805160208201516040830151606084015160809094015192985090965094509092509050612792868686868686612fb0565b5050505050505b50506001016125be565b5050505050565b60008080806127b9868661302d565b9097909650945050505050565b826127d133826122bd565b6127ed5760405162461bcd60e51b815260040161074d90613f85565b6128026001600160a01b038416333085612d91565b611dbe84848461255d565b8015806128ac5750604080517fdd62ed3e0000000000000000000000000000000000000000000000000000000081523060048201526001600160a01b03848116602483015291519185169163dd62ed3e91604480820192602092909190829003018186803b15801561287e57600080fd5b505afa158015612892573d6000803e3d6000fd5b505050506040513d60208110156128a857600080fd5b5051155b6128e75760405162461bcd60e51b815260040180806020018281038252603681526020018061433b6036913960400191505060405180910390fd5b604080516001600160a01b038416602482015260448082018490528251808303909101815260649091019091526020810180517bffffffffffffffffffffffffffffffffffffffffffffffffffffffff167f095ea7b30000000000000000000000000000000000000000000000000000000017905261070c9084906130a8565b600083338460405160200161297e93929190613d23565b60405160208183030381529060405280519060200120905081601360008381526020019081526020016000205410156129c95760405162461bcd60e51b815260040161074d90613f17565b6000818152601360205260409020546125a69083612500565b600082820183811015610b0d576040805162461bcd60e51b815260206004820152601b60248201527f536166654d6174683a206164646974696f6e206f766572666c6f770000000000604482015290519081900360640190fd5b6000612359848484613159565b600081815b8551811015612ae7576000868281518110612a6557fe5b60200260200101519050808311612aac5782816040516020018083815260200182815260200192505050604051602081830303815290604052805190602001209250612ade565b808360405160200180838152602001828152602001925050506040516020818303038152906040528051906020012092505b50600101612a4e565b509092149392505050565b6001600160a01b038216612b4d576040805162461bcd60e51b815260206004820181905260248201527f4552433732313a206d696e7420746f20746865207a65726f2061646472657373604482015290519081900360640190fd5b612b5681612226565b15612ba8576040805162461bcd60e51b815260206004820152601c60248201527f4552433732313a20746f6b656e20616c7265616479206d696e74656400000000604482015290519081900360640190fd5b612bb46000838361070c565b6001600160a01b0382166000908152600260205260409020612bd69082612e25565b50612be360038284612e31565b5060405181906001600160a01b038416906000907fddf252ad1be2c89b69c2b068fc378daa952ba7f163c4a11628f55a4df523b3ef908290a45050565b612c2b8484846123a8565b612c3784848484613223565b611dbe5760405162461bcd60e51b81526004018080602001828103825260328152602001806140e66032913960400191505060405180910390fd5b606081612cb3575060408051808201909152600181527f3000000000000000000000000000000000000000000000000000000000000000602082015261053e565b8160005b8115612ccb57600101600a82049150612cb7565b60008167ffffffffffffffff81118015612ce457600080fd5b506040519080825280601f01601f191660200182016040528015612d0f576020820181803683370190505b50859350905060001982015b8315612d7857600a840660300160f81b82828060019003935081518110612d3e57fe5b60200101907effffffffffffffffffffffffffffffffffffffffffffffffffffffffffffff1916908160001a905350600a84049350612d1b565b50949350505050565b6000610b0d83836133ff565b5490565b604080516001600160a01b0380861660248301528416604482015260648082018490528251808303909101815260849091019091526020810180517bffffffffffffffffffffffffffffffffffffffffffffffffffffffff167f23b872dd00000000000000000000000000000000000000000000000000000000179052611dbe9085906130a8565b6000610b0d8383613417565b6000610b0d83836134dd565b600061235984846001600160a01b038516613527565b81546000908210612e895760405162461bcd60e51b81526004018080602001828103825260228152602001806140c46022913960400191505060405180910390fd5b826000018281548110612e9857fe5b9060005260206000200154905092915050565b6000846001600160a01b031663514ea4bf612ec7868686612f5a565b6040518263ffffffff1660e01b81526004018082815260200191505060a06040518083038186803b158015612efb57600080fd5b505afa158015612f0f573d6000803e3d6000fd5b505050506040513d60a0811015612f2557600080fd5b505195945050505050565b6000856000612f41878787876135be565b8152602001908152602001600020905095945050505050565b6040805160609490941b6bffffffffffffffffffffffff1916602080860191909152600293840b60e890811b60348701529290930b90911b60378401528051808403601a018152603a9093019052815191012090565b85546fffffffffffffffffffffffffffffffff9586167fffffffffffffffffffffffffffffffff000000000000000000000000000000009182161787556001870194909455600286019290925560039094018054918416700100000000000000000000000000000000029484169190921617909116919091179055565b8154600090819083106130715760405162461bcd60e51b81526004018080602001828103825260228152602001806142196022913960400191505060405180910390fd5b600084600001848154811061308257fe5b906000526020600020906002020190508060000154816001015492509250509250929050565b60006130fd826040518060400160405280602081526020017f5361666545524332303a206c6f772d6c6576656c2063616c6c206661696c6564815250856001600160a01b03166136179092919063ffffffff16565b80519091501561070c5780806020019051602081101561311c57600080fd5b505161070c5760405162461bcd60e51b815260040180806020018281038252602a815260200180614311602a913960400191505060405180910390fd5b600082815260018401602052604081205482816131f45760405162461bcd60e51b81526004018080602001828103825283818151815260200191508051906020019080838360005b838110156131b95781810151838201526020016131a1565b50505050905090810190601f1680156131e65780820380516001836020036101000a031916815260200191505b509250505060405180910390fd5b5084600001600182038154811061320757fe5b9060005260206000209060020201600101549150509392505050565b6000613237846001600160a01b0316613626565b61324357506001612359565b60006133947f150b7a0200000000000000000000000000000000000000000000000000000000613271612233565b88878760405160240180856001600160a01b03168152602001846001600160a01b0316815260200183815260200180602001828103825283818151815260200191508051906020019080838360005b838110156132d85781810151838201526020016132c0565b50505050905090810190601f1680156133055780820380516001836020036101000a031916815260200191505b5095505050505050604051602081830303815290604052907bffffffffffffffffffffffffffffffffffffffffffffffffffffffff19166020820180517bffffffffffffffffffffffffffffffffffffffffffffffffffffffff83818316178352505050506040518060600160405280603281526020016140e6603291396001600160a01b0388169190613617565b905060008180602001905160208110156133ad57600080fd5b50517fffffffff00000000000000000000000000000000000000000000000000000000167f150b7a02000000000000000000000000000000000000000000000000000000001492505050949350505050565b60009081526001919091016020526040902054151590565b600081815260018301602052604081205480156134d3578354600019808301919081019060009087908390811061344a57fe5b906000526020600020015490508087600001848154811061346757fe5b60009182526020808320909101929092558281526001898101909252604090209084019055865487908061349757fe5b60019003818190600052602060002001600090559055866001016000878152602001908152602001600020600090556001945050505050610b10565b6000915050610b10565b60006134e983836133ff565b61351f57508154600181810184556000848152602080822090930184905584548482528286019093526040902091909155610b10565b506000610b10565b60008281526001840160205260408120548061358c575050604080518082018252838152602080820184815286546001818101895560008981528481209551600290930290950191825591519082015586548684528188019092529290912055610ade565b8285600001600183038154811061359f57fe5b9060005260206000209060020201600101819055506000915050610ade565b6040805160208082019690965260609490941b6bffffffffffffffffffffffff191684820152600292830b60e890811b60548601529190920b901b60578301528051808303603a018152605a9092019052805191012090565b6060612359848460008561362c565b3b151590565b60608247101561366d5760405162461bcd60e51b815260040180806020018281038252602681526020018061413c6026913960400191505060405180910390fd5b61367685613626565b6136c7576040805162461bcd60e51b815260206004820152601d60248201527f416464726573733a2063616c6c20746f206e6f6e2d636f6e7472616374000000604482015290519081900360640190fd5b600080866001600160a01b031685876040518082805190602001908083835b602083106137055780518252601f1990920191602091820191016136e6565b6001836020036101000a03801982511681845116808217855250505050505090500191505060006040518083038185875af1925050503d8060008114613767576040519150601f19603f3d011682016040523d82523d6000602084013e61376c565b606091505b509150915061377c828286613787565b979650505050505050565b60608315613796575081610ade565b8251156137a65782518084602001fd5b60405162461bcd60e51b81526020600482018181528451602484015284518593919283926044019190850190808383600083156131b95781810151838201526020016131a1565b6000602082840312156137fe578081fd5b8135610b0d816140ab565b60006020828403121561381a578081fd5b8151610b0d816140ab565b60008060408385031215613837578081fd5b8235613842816140ab565b91506020830135613852816140ab565b809150509250929050565b600080600080600080600080610100898b031215613879578384fd5b8851613884816140ab565b60208a0151909850613895816140ab565b60408a01519097506138a6816140ab565b60608a01519096506138b7816140ab565b60808a015160a08b015160c08c015160e0909c01519a9d999c50979a91999098919650945092505050565b6000806000606084860312156138f6578283fd5b8335613901816140ab565b92506020840135613911816140ab565b929592945050506040919091013590565b60008060008060808587031215613937578384fd5b8435613942816140ab565b9350602085810135613953816140ab565b935060408601359250606086013567ffffffffffffffff80821115613976578384fd5b818801915088601f830112613989578384fd5b81358181111561399557fe5b6139a784601f19601f84011601614087565b915080825289848285010111156139bc578485fd5b8084840185840137810190920192909252939692955090935050565b6000806000604084860312156139ec578283fd5b83356139f7816140ab565b9250602084013567ffffffffffffffff80821115613a13578384fd5b818601915086601f830112613a26578384fd5b813581811115613a34578485fd5b8760208083028501011115613a47578485fd5b6020830194508093505050509250925092565b60008060408385031215613a6c578182fd5b8235613a77816140ab565b915060208301358015158114613852578182fd5b60008060408385031215613a9d578081fd5b8235613aa8816140ab565b946020939093013593505050565b600060208284031215613ac7578081fd5b5035919050565b600060208284031215613adf578081fd5b81357fffffffff0000000000000000000000000000000000000000000000000000000081168114610b0d578182fd5b600060c08284031215613b1f578081fd5b60405160c0810181811067ffffffffffffffff82111715613b3c57fe5b8060405250823581526020830135602082015260408301356040820152606083013560608201526080830135608082015260a083013560a08201528091505092915050565b600060a08284031215613b92578081fd5b60405160a0810181811067ffffffffffffffff82111715613baf57fe5b806040525082358152602083013560208201526040830135604082015260608301356060820152608083013560808201528091505092915050565b600060208284031215613bfb578081fd5b5051919050565b600080600080600060a08688031215613c19578283fd5b853594506020860135613c2b816140ab565b9350604086013592506060860135613c42816140ab565b949793965091946080013592915050565b60008060408385031215613c65578182fd5b505080516020909101519092909150565b600080600060608486031215613c8a578081fd5b83359250602084013591506040840135613ca3816140ab565b809150509250925092565b600080600060608486031215613cc2578081fd5b505081359360208301359350604090920135919050565b600080600060608486031215613ced578081fd5b8351925060208401519150604084015190509250925092565b60609190911b6bffffffffffffffffffffffff1916815260140190565b9283526bffffffffffffffffffffffff19606092831b81166020850152911b16603482015260480190565b928352602083019190915260601b6bffffffffffffffffffffffff1916604082015260540190565b6001600160a01b0391909116815260200190565b6001600160a01b0394851681529290931660208301526040820152606081019190915260800190565b6001600160a01b039390931683526020830191909152604082015260600190565b901515815260200190565b90815260200190565b6000602080835283518082850152825b81811015613e1457858101830151858201604001528201613df8565b81811115613e255783604083870101525b50601f01601f1916929092016040019392505050565b60208082526009908201527f6f6e6c7920676f76730000000000000000000000000000000000000000000000604082015260600190565b60208082526002908201527f4f4f000000000000000000000000000000000000000000000000000000000000604082015260600190565b60208082526002908201527f4e5a000000000000000000000000000000000000000000000000000000000000604082015260600190565b60208082526003908201527f4348490000000000000000000000000000000000000000000000000000000000604082015260600190565b60208082526014908201527f696e73756666696369656e742062616c616e6365000000000000000000000000604082015260600190565b6020808252600a908201527f6f6e6c79206f776e657200000000000000000000000000000000000000000000604082015260600190565b6020808252600c908201527f6e6f7420617070726f7665640000000000000000000000000000000000000000604082015260600190565b60208082526013908201527f696e73756666696369656e742073686172657300000000000000000000000000604082015260600190565b6fffffffffffffffffffffffffffffffff95861681526020810194909452604084019290925283166060830152909116608082015260a00190565b918252602082015260400190565b948552602085019390935260408401919091526060830152608082015260a00190565b958652602086019490945260408501929092526060840152608083015260a082015260c00190565b60405181810167ffffffffffffffff811182821017156140a357fe5b604052919050565b6001600160a01b03811681146140c057600080fd5b5056fe456e756d657261626c655365743a20696e646578206f7574206f6620626f756e64734552433732313a207472616e7366657220746f206e6f6e20455243373231526563656976657220696d706c656d656e7465724552433732313a207472616e7366657220746f20746865207a65726f2061646472657373416464726573733a20696e73756666696369656e742062616c616e636520666f722063616c6c4552433732313a206f70657261746f7220717565727920666f72206e6f6e6578697374656e7420746f6b656e4552433732313a20617070726f76652063616c6c6572206973206e6f74206f776e6572206e6f7220617070726f76656420666f7220616c6c4552433732313a2062616c616e636520717565727920666f7220746865207a65726f20616464726573734552433732313a206f776e657220717565727920666f72206e6f6e6578697374656e7420746f6b656e456e756d657261626c654d61703a20696e646578206f7574206f6620626f756e64734552433732313a20617070726f76656420717565727920666f72206e6f6e6578697374656e7420746f6b656e4552433732313a207472616e73666572206f6620746f6b656e2074686174206973206e6f74206f776e4552433732314d657461646174613a2055524920717565727920666f72206e6f6e6578697374656e7420746f6b656e4552433732313a20617070726f76616c20746f2063757272656e74206f776e65724552433732313a207472616e736665722063616c6c6572206973206e6f74206f776e6572206e6f7220617070726f7665645361666545524332303a204552433230206f7065726174696f6e20646964206e6f7420737563636565645361666545524332303a20617070726f76652066726f6d206e6f6e2d7a65726f20746f206e6f6e2d7a65726f20616c6c6f77616e6365a164736f6c6343000706000a",
  "linkReferences": {},
  "deployedLinkReferences": {}
}