{
  "_format": "hh-sol-artifact-1",
  "contractName": "TestCHIVault",
  "sourceName": "contracts/test/TestCHIVault.sol",
  "abi": [
    {
      "inputs": [
        {
          "internalType": "address",
          "name": "_pool",
          "type": "address"
        },
        {
          "internalType": "address",
          "name": "_manager",
          "type": "address"
        },
        {
          "internalType": "uint256",
          "name": "_protocolFee_",
          "type": "uint256"
        }
      ],
      "stateMutability": "nonpayable",
      "type": "constructor"
    },
    {
      "anonymous": false,
      "inputs": [
        {
          "indexed": false,
          "internalType": "uint256",
          "name": "feesFromPool0",
          "type": "uint256"
        },
        {
          "indexed": false,
          "internalType": "uint256",
          "name": "feesFromPool1",
          "type": "uint256"
        }
      ],
      "name": "CollectFee",
      "type": "event"
    },
    {
      "anonymous": false,
      "inputs": [
        {
          "indexed": true,
          "internalType": "uint256",
          "name": "yangId",
          "type": "uint256"
        },
        {
          "indexed": false,
          "internalType": "uint256",
          "name": "shares",
          "type": "uint256"
        },
        {
          "indexed": false,
          "internalType": "uint256",
          "name": "amount0",
          "type": "uint256"
        },
        {
          "indexed": false,
          "internalType": "uint256",
          "name": "amount1",
          "type": "uint256"
        }
      ],
      "name": "Deposit",
      "type": "event"
    },
    {
      "anonymous": false,
      "inputs": [
        {
          "indexed": true,
          "internalType": "uint256",
          "name": "yangId",
          "type": "uint256"
        },
        {
          "indexed": true,
          "internalType": "address",
          "name": "to",
          "type": "address"
        },
        {
          "indexed": false,
          "internalType": "uint256",
          "name": "shares",
          "type": "uint256"
        },
        {
          "indexed": false,
          "internalType": "uint256",
          "name": "amount0",
          "type": "uint256"
        },
        {
          "indexed": false,
          "internalType": "uint256",
          "name": "amount1",
          "type": "uint256"
        }
      ],
      "name": "Withdraw",
      "type": "event"
    },
    {
      "inputs": [],
      "name": "CHIManager",
      "outputs": [
        {
          "internalType": "contract ICHIManager",
          "name": "",
          "type": "address"
        }
      ],
      "stateMutability": "view",
      "type": "function"
    },
    {
      "inputs": [],
      "name": "FEE_BASE",
      "outputs": [
        {
          "internalType": "uint256",
          "name": "",
          "type": "uint256"
        }
      ],
      "stateMutability": "view",
      "type": "function"
    },
    {
      "inputs": [],
      "name": "accruedProtocolFees0",
      "outputs": [
        {
          "internalType": "uint256",
          "name": "",
          "type": "uint256"
        }
      ],
      "stateMutability": "view",
      "type": "function"
    },
    {
      "inputs": [],
      "name": "accruedProtocolFees1",
      "outputs": [
        {
          "internalType": "uint256",
          "name": "",
          "type": "uint256"
        }
      ],
      "stateMutability": "view",
      "type": "function"
    },
    {
      "inputs": [
        {
          "internalType": "uint256",
          "name": "rangeIndex",
          "type": "uint256"
        },
        {
          "internalType": "uint256",
          "name": "amount0Desired",
          "type": "uint256"
        },
        {
          "internalType": "uint256",
          "name": "amount1Desired",
          "type": "uint256"
        }
      ],
      "name": "addLiquidityToPosition",
      "outputs": [],
      "stateMutability": "nonpayable",
      "type": "function"
    },
    {
      "inputs": [
        {
          "internalType": "int24",
          "name": "tickLower",
          "type": "int24"
        },
        {
          "internalType": "int24",
          "name": "tickUpper",
          "type": "int24"
        }
      ],
      "name": "addRange",
      "outputs": [],
      "stateMutability": "nonpayable",
      "type": "function"
    },
    {
      "inputs": [
        {
          "internalType": "uint256",
          "name": "amount0",
          "type": "uint256"
        },
        {
          "internalType": "uint256",
          "name": "amount1",
          "type": "uint256"
        },
        {
          "internalType": "address",
          "name": "to",
          "type": "address"
        }
      ],
      "name": "collectProtocol",
      "outputs": [],
      "stateMutability": "nonpayable",
      "type": "function"
    },
    {
      "inputs": [
        {
          "internalType": "uint256",
          "name": "yangId",
          "type": "uint256"
        },
        {
          "internalType": "uint256",
          "name": "amount0Desired",
          "type": "uint256"
        },
        {
          "internalType": "uint256",
          "name": "amount1Desired",
          "type": "uint256"
        },
        {
          "internalType": "uint256",
          "name": "amount0Min",
          "type": "uint256"
        },
        {
          "internalType": "uint256",
          "name": "amount1Min",
          "type": "uint256"
        }
      ],
      "name": "deposit",
      "outputs": [
        {
          "internalType": "uint256",
          "name": "shares",
          "type": "uint256"
        },
        {
          "internalType": "uint256",
          "name": "amount0",
          "type": "uint256"
        },
        {
          "internalType": "uint256",
          "name": "amount1",
          "type": "uint256"
        }
      ],
      "stateMutability": "nonpayable",
      "type": "function"
    },
    {
      "inputs": [
        {
          "internalType": "uint256",
          "name": "index",
          "type": "uint256"
        }
      ],
      "name": "getRange",
      "outputs": [
        {
          "internalType": "int24",
          "name": "tickLower",
          "type": "int24"
        },
        {
          "internalType": "int24",
          "name": "tickUpper",
          "type": "int24"
        }
      ],
      "stateMutability": "view",
      "type": "function"
    },
    {
      "inputs": [],
      "name": "getRangeCount",
      "outputs": [
        {
          "internalType": "uint256",
          "name": "",
          "type": "uint256"
        }
      ],
      "stateMutability": "view",
      "type": "function"
    },
    {
      "inputs": [],
      "name": "getTotalAmounts",
      "outputs": [
        {
          "internalType": "uint256",
          "name": "total0",
          "type": "uint256"
        },
        {
          "internalType": "uint256",
          "name": "total1",
          "type": "uint256"
        }
      ],
      "stateMutability": "view",
      "type": "function"
    },
    {
      "inputs": [],
      "name": "harvestFee",
      "outputs": [],
      "stateMutability": "nonpayable",
      "type": "function"
    },
    {
      "inputs": [],
      "name": "pool",
      "outputs": [
        {
          "internalType": "contract IUniswapV3Pool",
          "name": "",
          "type": "address"
        }
      ],
      "stateMutability": "view",
      "type": "function"
    },
    {
      "inputs": [],
      "name": "protocolFee",
      "outputs": [
        {
          "internalType": "uint256",
          "name": "",
          "type": "uint256"
        }
      ],
      "stateMutability": "view",
      "type": "function"
    },
    {
      "inputs": [
        {
          "internalType": "uint256",
          "name": "rangeIndex",
          "type": "uint256"
        }
      ],
      "name": "removeAllLiquidityFromPosition",
      "outputs": [
        {
          "internalType": "uint256",
          "name": "amount0",
          "type": "uint256"
        },
        {
          "internalType": "uint256",
          "name": "amount1",
          "type": "uint256"
        }
      ],
      "stateMutability": "nonpayable",
      "type": "function"
    },
    {
      "inputs": [
        {
          "internalType": "uint256",
          "name": "rangeIndex",
          "type": "uint256"
        },
        {
          "internalType": "uint128",
          "name": "liquidity",
          "type": "uint128"
        }
      ],
      "name": "removeLiquidityFromPosition",
      "outputs": [
        {
          "internalType": "uint256",
          "name": "amount0",
          "type": "uint256"
        },
        {
          "internalType": "uint256",
          "name": "amount1",
          "type": "uint256"
        }
      ],
      "stateMutability": "nonpayable",
      "type": "function"
    },
    {
      "inputs": [
        {
          "internalType": "int24",
          "name": "tickLower",
          "type": "int24"
        },
        {
          "internalType": "int24",
          "name": "tickUpper",
          "type": "int24"
        }
      ],
      "name": "removeRange",
      "outputs": [],
      "stateMutability": "nonpayable",
      "type": "function"
    },
    {
      "inputs": [],
      "name": "tickSpacing",
      "outputs": [
        {
          "internalType": "int24",
          "name": "",
          "type": "int24"
        }
      ],
      "stateMutability": "view",
      "type": "function"
    },
    {
      "inputs": [],
      "name": "token0",
      "outputs": [
        {
          "internalType": "contract IERC20",
          "name": "",
          "type": "address"
        }
      ],
      "stateMutability": "view",
      "type": "function"
    },
    {
      "inputs": [],
      "name": "token1",
      "outputs": [
        {
          "internalType": "contract IERC20",
          "name": "",
          "type": "address"
        }
      ],
      "stateMutability": "view",
      "type": "function"
    },
    {
      "inputs": [],
      "name": "totalSupply",
      "outputs": [
        {
          "internalType": "uint256",
          "name": "",
          "type": "uint256"
        }
      ],
      "stateMutability": "view",
      "type": "function"
    },
    {
      "inputs": [
        {
          "internalType": "uint256",
          "name": "amount0Owed",
          "type": "uint256"
        },
        {
          "internalType": "uint256",
          "name": "amount1Owed",
          "type": "uint256"
        },
        {
          "internalType": "bytes",
          "name": "data",
          "type": "bytes"
        }
      ],
      "name": "uniswapV3MintCallback",
      "outputs": [],
      "stateMutability": "nonpayable",
      "type": "function"
    },
    {
      "inputs": [
        {
          "internalType": "uint256",
          "name": "yangId",
          "type": "uint256"
        },
        {
          "internalType": "uint256",
          "name": "shares",
          "type": "uint256"
        },
        {
          "internalType": "uint256",
          "name": "amount0Min",
          "type": "uint256"
        },
        {
          "internalType": "uint256",
          "name": "amount1Min",
          "type": "uint256"
        },
        {
          "internalType": "address",
          "name": "to",
          "type": "address"
        }
      ],
      "name": "withdraw",
      "outputs": [
        {
          "internalType": "uint256",
          "name": "amount0",
          "type": "uint256"
        },
        {
          "internalType": "uint256",
          "name": "amount1",
          "type": "uint256"
        }
      ],
      "stateMutability": "nonpayable",
      "type": "function"
    }
  ],
  "bytecode": "0x60e0604052620f42406005553480156200001857600080fd5b50604051620036ba380380620036ba8339810160408190526200003b9162000299565b600080546001600160a01b0319166001600160a01b03858116919091179182905560408051630dfe168160e01b815290519290911691630dfe168191600480820192602092909190829003018186803b1580156200009857600080fd5b505afa158015620000ad573d6000803e3d6000fd5b505050506040513d601f19601f82011682018060405250810190620000d3919062000275565b60601b6001600160601b0319166080526000546040805163d21220a760e01b815290516001600160a01b039092169163d21220a791600480820192602092909190829003018186803b1580156200012957600080fd5b505afa1580156200013e573d6000803e3d6000fd5b505050506040513d601f19601f8201168201806040525081019062000164919062000275565b60601b6001600160601b03191660a052600054604080516334324e9f60e21b815290516001600160a01b039092169163d0c93a7c91600480820192602092909190829003018186803b158015620001ba57600080fd5b505afa158015620001cf573d6000803e3d6000fd5b505050506040513d601f19601f82011682018060405250810190620001f59190620002d9565b600290810b900b60e81b60c052600180546001600160a01b0319166001600160a01b038416179055600481905560055481106200024f5760405162461bcd60e51b81526004016200024690620002fc565b60405180910390fd5b50505062000317565b80516001600160a01b03811681146200027057600080fd5b919050565b60006020828403121562000287578081fd5b620002928262000258565b9392505050565b600080600060608486031215620002ae578182fd5b620002b98462000258565b9250620002c96020850162000258565b9150604084015190509250925092565b600060208284031215620002eb578081fd5b81518060020b811462000292578182fd5b6020808252600190820152603360f91b604082015260600190565b60805160601c60a05160601c60c05160e81c6133316200038960003980610b235280611b965280611be65250806103b552806109c75280610b475280610bcd5280610d1c528061144452508061037b52806103e352806109a35280610b935280610ce2528061139a52506133316000f3fe608060405234801561001057600080fd5b506004361061018d5760003560e01c8063b5962917116100e3578063d34879971161008c578063db4dcce411610066578063db4dcce4146102f2578063eae989a214610305578063ecefc7051461030d5761018d565b8063d3487997146102b9578063d473a654146102cc578063d4da6185146102df5761018d565b8063cc364f48116100bd578063cc364f481461027b578063d0c93a7c1461029c578063d21220a7146102b15761018d565b8063b596291714610249578063bf02b5ea14610251578063c4a7761e146102735761018d565b80635a64998b11610145578063a00fa77f1161011f578063a00fa77f14610231578063b0e21e8a14610239578063b135a145146102415761018d565b80635a64998b146102035780639d60da50146102165780639d9d75be1461021e5761018d565b806316f0115b1161017657806316f0115b146101c557806318160ddd146101cd5780632106fa46146101e25761018d565b80630430c130146101925780630dfe1681146101a7575b600080fd5b6101a56101a0366004612bd2565b610315565b005b6101af6103e1565b6040516101bc9190612d70565b60405180910390f35b6101af610405565b6101d5610414565b6040516101bc9190612e49565b6101f56101f0366004612b5b565b61041a565b6040516101bc929190613234565b6101a56102113660046129fa565b6105cd565b6101af610662565b6101a561022c366004612c85565b610671565b6101d56107d4565b6101d56107da565b6101d56107e0565b6101a56107f1565b61026461025f366004612cee565b61089d565b6040516101bc93929190613242565b6101f5610a73565b61028e610289366004612b5b565b610b06565b6040516101bc929190612e8a565b6102a4610b21565b6040516101bc9190612e7c565b6101af610b45565b6101a56102c7366004612c0a565b610b69565b6101f56102da366004612cb0565b610bfa565b6101f56102ed366004612b8b565b610df8565b6101a56103003660046129fa565b610fd4565b6101d561106c565b6101d5611072565b6001546001600160a01b031633146103485760405162461bcd60e51b815260040161033f906131fd565b60405180910390fd5b6002546103559084611078565b6002556003546103659083611078565b60035582156103a2576103a26001600160a01b037f00000000000000000000000000000000000000000000000000000000000000001682856110da565b81156103dc576103dc6001600160a01b037f00000000000000000000000000000000000000000000000000000000000000001682846110da565b505050565b7f000000000000000000000000000000000000000000000000000000000000000081565b6000546001600160a01b031681565b60065490565b60015460009081906001600160a01b031633146104495760405162461bcd60e51b815260040161033f906131fd565b60008061045f61045a60078761115a565b61116d565b91509150600061046f838361117e565b90506001600160801b038116156105c55760005460405163a34123a760e01b81526001600160a01b039091169063a34123a7906104b490869086908690600401612e9e565b6040805180830381600087803b1580156104cd57600080fd5b505af11580156104e1573d6000803e3d6000fd5b505050506040513d601f19601f820116820180604052508101906105059190612baf565b9095509350841515806105185750600084115b156105c5576000546001600160a01b0316634f1eb3d830858561053a8a61123a565b6105438a61123a565b6040518663ffffffff1660e01b8152600401610563959493929190612e0c565b6040805180830381600087803b15801561057c57600080fd5b505af1158015610590573d6000803e3d6000fd5b505050506040513d601f19601f820116820180604052508101906105b49190612a32565b6001600160801b0391821696501693505b505050915091565b6001546001600160a01b031633146105f75760405162461bcd60e51b815260040161033f906131fd565b6000806106048484611255565b91509150816000146106285760405162461bcd60e51b815260040161033f90612fd7565b80156106465760405162461bcd60e51b815260040161033f90612fd7565b61065b610653858561135b565b600790611384565b5050505050565b6001546001600160a01b031681565b6001546001600160a01b0316331461069b5760405162461bcd60e51b815260040161033f906131fd565b6000806106ac61045a60078761115a565b915091506106b8611390565b8411156106d75760405162461bcd60e51b815260040161033f9061307c565b6106df61143a565b8311156106fe5760405162461bcd60e51b815260040161033f9061300e565b600061070c8383878761148e565b90506001600160801b038116156107cc57600080546040805192835260208301908190527f3c8a7d8d0000000000000000000000000000000000000000000000000000000090526001600160a01b031690633c8a7d8d9061077890309087908790879060248101612d84565b6040805180830381600087803b15801561079157600080fd5b505af11580156107a5573d6000803e3d6000fd5b505050506040513d601f19601f820116820180604052508101906107c99190612baf565b50505b505050505050565b60035490565b60045490565b60006107ec6007611553565b905090565b6000806107fc61155e565b60005b6108096007611553565b81101561085f5760008061082161045a60078561115a565b915091506000806108328484611637565b9092509050610841878361181b565b965061084d868261181b565b955050600190930192506107ff915050565b507f38436c42bcfd74414acafc159a381bf74b9880bc4c1c9f922686fc7161d9c7ad8282604051610891929190613234565b60405180910390a15050565b600154600090819081906001600160a01b031633146108ce5760405162461bcd60e51b815260040161033f906131fd565b60008711806108dd5750600086115b6108f95760405162461bcd60e51b815260040161033f906131c6565b61090161155e565b61090b8787611875565b919450925090508261092f5760405162461bcd60e51b815260040161033f90612fa0565b8482101561094f5760405162461bcd60e51b815260040161033f90612f69565b8381101561096f5760405162461bcd60e51b815260040161033f90613158565b6040517fed1bbd0b000000000000000000000000000000000000000000000000000000008152339063ed1bbd0b906109f1907f00000000000000000000000000000000000000000000000000000000000000009086907f0000000000000000000000000000000000000000000000000000000000000000908790600401612e52565b600060405180830381600087803b158015610a0b57600080fd5b505af1158015610a1f573d6000803e3d6000fd5b50505050610a2c836119a5565b877f9b776d199f09c774f5b205c9bc2ac6f40d508c347aaea919867eeaf06ebef0e9848484604051610a6093929190613242565b60405180910390a2955095509592505050565b60008060005b610a836007611553565b811015610ad957600080610a9b61045a60078561115a565b91509150600080610aac8484611255565b9092509050610abb878361181b565b9650610ac7868261181b565b95505060019093019250610a79915050565b50610aec610ae5611390565b839061181b565b9150610b00610af961143a565b829061181b565b90509091565b600080610b1761045a60078561115a565b9094909350915050565b7f000000000000000000000000000000000000000000000000000000000000000081565b7f000000000000000000000000000000000000000000000000000000000000000081565b6000546001600160a01b03163314610b8057600080fd5b8315610bba57610bba6001600160a01b037f00000000000000000000000000000000000000000000000000000000000000001633866110da565b8215610bf457610bf46001600160a01b037f00000000000000000000000000000000000000000000000000000000000000001633856110da565b50505050565b60015460009081906001600160a01b03163314610c295760405162461bcd60e51b815260040161033f906131fd565b60008611610c495760405162461bcd60e51b815260040161033f90612fa0565b6001600160a01b03831615801590610c6a57506001600160a01b0383163014155b610c865760405162461bcd60e51b815260040161033f90612f32565b600080610c9388866119b0565b915091506000610cb7600654610cb18b610cab611390565b90611a38565b90611a91565b90506000610ccd600654610cb18c610cab61143a565b90508115610d0957610d096001600160a01b037f00000000000000000000000000000000000000000000000000000000000000001688846110da565b8015610d4357610d436001600160a01b037f00000000000000000000000000000000000000000000000000000000000000001688836110da565b610d4d848361181b565b9550610d59838261181b565b945088861015610d7b5760405162461bcd60e51b815260040161033f90612f69565b87851015610d9b5760405162461bcd60e51b815260040161033f90613158565b610da48a611af8565b866001600160a01b03168b7f30011545efcd097ee25dae81386c1513acbd42b2af85ac6caae1a3b7d51933668c8989604051610de293929190613242565b60405180910390a3505050509550959350505050565b60015460009081906001600160a01b03163314610e275760405162461bcd60e51b815260040161033f906131fd565b600080610e3861045a60078861115a565b91509150610e46828261117e565b6001600160801b0316856001600160801b03161115610e775760405162461bcd60e51b815260040161033f90613045565b6001600160801b03851615610fcb5760005460405163a34123a760e01b81526001600160a01b039091169063a34123a790610eba90859085908a90600401612e9e565b6040805180830381600087803b158015610ed357600080fd5b505af1158015610ee7573d6000803e3d6000fd5b505050506040513d601f19601f82011682018060405250810190610f0b9190612baf565b909450925083151580610f1e5750600083115b15610fcb576000546001600160a01b0316634f1eb3d8308484610f408961123a565b610f498961123a565b6040518663ffffffff1660e01b8152600401610f69959493929190612e0c565b6040805180830381600087803b158015610f8257600080fd5b505af1158015610f96573d6000803e3d6000fd5b505050506040513d601f19601f82011682018060405250810190610fba9190612a32565b6001600160801b0391821695501692505b50509250929050565b6001546001600160a01b03163314610ffe5760405162461bcd60e51b815260040161033f906131fd565b60008061100b8484611255565b915091508160001461102f5760405162461bcd60e51b815260040161033f90612fd7565b801561104d5760405162461bcd60e51b815260040161033f90612fd7565b6110578484611b04565b61065b611064858561135b565b600790611c38565b60025490565b60055481565b6000828211156110cf576040805162461bcd60e51b815260206004820152601e60248201527f536166654d6174683a207375627472616374696f6e206f766572666c6f770000604482015290519081900360640190fd5b508082035b92915050565b604080516001600160a01b038416602482015260448082018490528251808303909101815260649091019091526020810180517bffffffffffffffffffffffffffffffffffffffffffffffffffffffff167fa9059cbb000000000000000000000000000000000000000000000000000000001790526103dc908490611c44565b60006111668383611cf5565b9392505050565b608081901c9160c091821b90911d90565b60008030848460405160200161119693929190612d28565b60408051601f1981840301815290829052805160209091012060005463514ea4bf60e01b83529092506001600160a01b03169063514ea4bf906111dd908490600401612e49565b60a06040518083038186803b1580156111f557600080fd5b505afa158015611209573d6000803e3d6000fd5b505050506040513d601f19601f8201168201806040525081019061122d9190612a60565b5092979650505050505050565b806001600160801b038116811461125057600080fd5b919050565b600080600030858560405160200161126f93929190612d28565b60408051601f198184030181529082905280516020909101206000805463514ea4bf60e01b845291935091829182916001600160a01b039091169063514ea4bf906112be908790600401612e49565b60a06040518083038186803b1580156112d657600080fd5b505afa1580156112ea573d6000803e3d6000fd5b505050506040513d601f19601f8201168201806040525081019061130e9190612a60565b9450945050509250611321888885611d59565b9096509450611339866001600160801b03841661181b565b955061134e856001600160801b03831661181b565b9450505050509250929050565b600290810b62ffffff1691900b60801b72ffffff00000000000000000000000000000000160190565b60006111668383611e14565b60006107ec6002547f00000000000000000000000000000000000000000000000000000000000000006001600160a01b03166370a08231306040518263ffffffff1660e01b81526004016113e49190612d70565b60206040518083038186803b1580156113fc57600080fd5b505afa158015611410573d6000803e3d6000fd5b505050506040513d601f19601f820116820180604052508101906114349190612b73565b90611078565b60006107ec6003547f00000000000000000000000000000000000000000000000000000000000000006001600160a01b03166370a08231306040518263ffffffff1660e01b81526004016113e49190612d70565b60008054604080517f3850c7bd000000000000000000000000000000000000000000000000000000008152905183926001600160a01b031691633850c7bd9160048083019260e0929190829003018186803b1580156114ec57600080fd5b505afa158015611500573d6000803e3d6000fd5b505050506040513d601f19601f820116820180604052508101906115249190612ac1565b50505050505090506115498161153988611eda565b61154288611eda565b8787612235565b9695505050505050565b60006110d4826122f9565b60005b61156b6007611553565b8110156116345760008061158361045a60078561115a565b915091506000611593838361117e565b6001600160801b0316111561162a576000805460405163a34123a760e01b81526001600160a01b039091169163a34123a7916115d6918691869190600401612e9e565b6040805180830381600087803b1580156115ef57600080fd5b505af1158015611603573d6000803e3d6000fd5b505050506040513d601f19601f820116820180604052508101906116279190612baf565b50505b5050600101611561565b50565b600080600030858560405160200161165193929190612d28565b60408051601f198184030181529082905280516020909101206000805463514ea4bf60e01b84529193509182916001600160a01b03169063514ea4bf9061169c908690600401612e49565b60a06040518083038186803b1580156116b457600080fd5b505afa1580156116c8573d6000803e3d6000fd5b505050506040513d601f19601f820116820180604052508101906116ec9190612a60565b6000546040517f4f1eb3d80000000000000000000000000000000000000000000000000000000081529297509095506001600160a01b03169350634f1eb3d89250611744915030908b908b9088908890600401612e0c565b6040805180830381600087803b15801561175d57600080fd5b505af1158015611771573d6000803e3d6000fd5b505050506040513d601f19601f820116820180604052508101906117959190612a32565b6004546001600160801b0392831697509116945060009081901561180f576117ce600554610cb16004548a611a3890919063ffffffff16565b91506117eb600554610cb160045489611a3890919063ffffffff16565b6002549091506117fb908361181b565b60025560035461180b908261181b565b6003555b50505050509250929050565b600082820183811015611166576040805162461bcd60e51b815260206004820152601b60248201527f536166654d6174683a206164646974696f6e206f766572666c6f770000000000604482015290519081900360640190fd5b6000806000806000611885610a73565b915091506006546000148061189a5750600082115b806118a55750600081115b6118ab57fe5b6006546118c9578693508592506118c284846122fd565b945061199c565b816118ea578592506118c281610cb160065486611a3890919063ffffffff16565b8061190b578693506118c282610cb160065487611a3890919063ffffffff16565b600061192961191a8984611a38565b6119248986611a38565b612314565b90506000811161194b5760405162461bcd60e51b815260040161033f90612efb565b611964600161195e84610cb18584611078565b9061181b565b9450611979600161195e85610cb18584611078565b935061199882610cb185610cb160065486611a3890919063ffffffff16565b9550505b50509250925092565b600680549091019055565b60008060005b6119c06007611553565b811015611a30576000806119d861045a60078561115a565b9150915060006119e8838361117e565b6001600160801b03161115611a2657600080611a0684848b8b612323565b9092509050611a15878361181b565b9650611a21868261181b565b955050505b50506001016119b6565b509250929050565b600082611a47575060006110d4565b82820282848281611a5457fe5b04146111665760405162461bcd60e51b81526004018080602001828103825260218152602001806132da6021913960400191505060405180910390fd5b6000808211611ae7576040805162461bcd60e51b815260206004820152601a60248201527f536166654d6174683a206469766973696f6e206279207a65726f000000000000604482015290519081900360640190fd5b818381611af057fe5b049392505050565b60068054919091039055565b8060020b8260020b12611b295760405162461bcd60e51b815260040161033f90612ec4565b7ffffffffffffffffffffffffffffffffffffffffffffffffffffffffffff27618600283900b1215611b6d5760405162461bcd60e51b815260040161033f906130ea565b620d89e8600282900b1315611b945760405162461bcd60e51b815260040161033f906130b3565b7f000000000000000000000000000000000000000000000000000000000000000060020b8260020b81611bc357fe5b0760020b15611be45760405162461bcd60e51b815260040161033f90613121565b7f000000000000000000000000000000000000000000000000000000000000000060020b8160020b81611c1357fe5b0760020b15611c345760405162461bcd60e51b815260040161033f9061318f565b5050565b600061116683836124c1565b6000611c99826040518060400160405280602081526020017f5361666545524332303a206c6f772d6c6576656c2063616c6c206661696c6564815250856001600160a01b031661250b9092919063ffffffff16565b8051909150156103dc57808060200190516020811015611cb857600080fd5b50516103dc5760405162461bcd60e51b815260040180806020018281038252602a8152602001806132fb602a913960400191505060405180910390fd5b81546000908210611d375760405162461bcd60e51b81526004018080602001828103825260228152602001806132926022913960400191505060405180910390fd5b826000018281548110611d4657fe5b9060005260206000200154905092915050565b60008060008060009054906101000a90046001600160a01b03166001600160a01b0316633850c7bd6040518163ffffffff1660e01b815260040160e06040518083038186803b158015611dab57600080fd5b505afa158015611dbf573d6000803e3d6000fd5b505050506040513d601f19601f82011682018060405250810190611de39190612ac1565b5050505050509050611e0781611df888611eda565b611e0188611eda565b87612522565b9097909650945050505050565b60008181526001830160205260408120548015611ed05783546000198083019190810190600090879083908110611e4757fe5b9060005260206000200154905080876000018481548110611e6457fe5b600091825260208083209091019290925582815260018981019092526040902090840190558654879080611e9457fe5b600190038181906000526020600020016000905590558660010160008781526020019081526020016000206000905560019450505050506110d4565b60009150506110d4565b60008060008360020b12611ef1578260020b611ef9565b8260020b6000035b9050620d89e8811115611f53576040805162461bcd60e51b815260206004820152600160248201527f5400000000000000000000000000000000000000000000000000000000000000604482015290519081900360640190fd5b600060018216611f7457700100000000000000000000000000000000611f86565b6ffffcb933bd6fad37aa2d162d1a5940015b70ffffffffffffffffffffffffffffffffff1690506002821615611fba576ffff97272373d413259a46990580e213a0260801c5b6004821615611fd9576ffff2e50f5f656932ef12357cf3c7fdcc0260801c5b6008821615611ff8576fffe5caca7e10e4e61c3624eaa0941cd00260801c5b6010821615612017576fffcb9843d60f6159c9db58835c9266440260801c5b6020821615612036576fff973b41fa98c081472e6896dfb254c00260801c5b6040821615612055576fff2ea16466c96a3843ec78b326b528610260801c5b6080821615612074576ffe5dee046a99a2a811c461f1969c30530260801c5b610100821615612094576ffcbe86c7900a88aedcffc83b479aa3a40260801c5b6102008216156120b4576ff987a7253ac413176f2b074cf7815e540260801c5b6104008216156120d4576ff3392b0822b70005940c7a398e4b70f30260801c5b6108008216156120f4576fe7159475a2c29b7443b29c7fa6e889d90260801c5b611000821615612114576fd097f3bdfd2022b8845ad8f792aa58250260801c5b612000821615612134576fa9f746462d870fdf8a65dc1f90e061e50260801c5b614000821615612154576f70d869a156d2a1b890bb3df62baf32f70260801c5b618000821615612174576f31be135f97d08fd981231505542fcfa60260801c5b62010000821615612195576f09aa508b5b7a84e1c677de54f3e99bc90260801c5b620200008216156121b5576e5d6af8dedb81196699c329225ee6040260801c5b620400008216156121d4576d2216e584f5fa1ea926041bedfe980260801c5b620800008216156121f1576b048a170391f7dc42444e8fa20260801c5b60008460020b131561220c57806000198161220857fe5b0490505b640100000000810615612220576001612223565b60005b60ff16602082901c0192505050919050565b6000836001600160a01b0316856001600160a01b03161115612255579293925b846001600160a01b0316866001600160a01b031611612280576122798585856125be565b90506122f0565b836001600160a01b0316866001600160a01b031610156122e25760006122a78786866125be565b905060006122b6878986612625565b9050806001600160801b0316826001600160801b0316106122d757806122d9565b815b925050506122f0565b6122ed858584612625565b90505b95945050505050565b5490565b60008183101561230d5781611166565b5090919050565b600081831061230d5781611166565b6000806000612332878761117e565b9050600061236061235b600654610cb189866001600160801b0316611a3890919063ffffffff16565b61123a565b90506001600160801b038116156124b65760005460405163a34123a760e01b81526001600160a01b039091169063a34123a7906123a5908b908b908690600401612e9e565b6040805180830381600087803b1580156123be57600080fd5b505af11580156123d2573d6000803e3d6000fd5b505050506040513d601f19601f820116820180604052508101906123f69190612baf565b9094509250831515806124095750600083115b156124b6576000546001600160a01b0316634f1eb3d8868a8a61242b8961123a565b6124348961123a565b6040518663ffffffff1660e01b8152600401612454959493929190612e0c565b6040805180830381600087803b15801561246d57600080fd5b505af1158015612481573d6000803e3d6000fd5b505050506040513d601f19601f820116820180604052508101906124a59190612a32565b6001600160801b0391821695501692505b505094509492505050565b60006124cd838361266b565b612503575081546001818101845560008481526020808220909301849055845484825282860190935260409020919091556110d4565b5060006110d4565b606061251a8484600085612683565b949350505050565b600080836001600160a01b0316856001600160a01b03161115612543579293925b846001600160a01b0316866001600160a01b03161161256e576125678585856127de565b91506125b5565b836001600160a01b0316866001600160a01b031610156125a7576125938685856127de565b91506125a0858785612847565b90506125b5565b6125b2858585612847565b90505b94509492505050565b6000826001600160a01b0316846001600160a01b031611156125de579192915b600061260a856001600160a01b0316856001600160a01b03166c0100000000000000000000000061288f565b90506122f061235b84838888036001600160a01b031661288f565b6000826001600160a01b0316846001600160a01b03161115612645579192915b61251a61235b836c010000000000000000000000008787036001600160a01b031661288f565b60009081526001919091016020526040902054151590565b6060824710156126c45760405162461bcd60e51b81526004018080602001828103825260268152602001806132b46026913960400191505060405180910390fd5b6126cd8561293e565b61271e576040805162461bcd60e51b815260206004820152601d60248201527f416464726573733a2063616c6c20746f206e6f6e2d636f6e7472616374000000604482015290519081900360640190fd5b600080866001600160a01b031685876040518082805190602001908083835b6020831061275c5780518252601f19909201916020918201910161273d565b6001836020036101000a03801982511681845116808217855250505050505090500191505060006040518083038185875af1925050503d80600081146127be576040519150601f19603f3d011682016040523d82523d6000602084013e6127c3565b606091505b50915091506127d3828286612944565b979650505050505050565b6000826001600160a01b0316846001600160a01b031611156127fe579192915b836001600160a01b0316612837606060ff16846001600160801b0316901b8686036001600160a01b0316866001600160a01b031661288f565b8161283e57fe5b04949350505050565b6000826001600160a01b0316846001600160a01b03161115612867579192915b61251a826001600160801b03168585036001600160a01b03166c010000000000000000000000005b60008080600019858709868602925082811090839003039050806128c557600084116128ba57600080fd5b508290049050611166565b8084116128d157600080fd5b6000848688096000868103871696879004966002600389028118808a02820302808a02820302808a02820302808a02820302808a02820302808a02909103029181900381900460010186841190950394909402919094039290920491909117919091029150509392505050565b3b151590565b60608315612953575081611166565b8251156129635782518084602001fd5b8160405162461bcd60e51b81526004018080602001828103825283818151815260200191508051906020019080838360005b838110156129ad578181015183820152602001612995565b50505050905090810190601f1680156129da5780820380516001836020036101000a031916815260200191505b509250505060405180910390fd5b805161ffff8116811461125057600080fd5b60008060408385031215612a0c578182fd5b8235612a178161326d565b91506020830135612a278161326d565b809150509250929050565b60008060408385031215612a44578182fd5b8251612a4f8161327c565b6020840151909250612a278161327c565b600080600080600060a08688031215612a77578081fd5b8551612a828161327c565b8095505060208601519350604086015192506060860151612aa28161327c565b6080870151909250612ab38161327c565b809150509295509295909350565b600080600080600080600060e0888a031215612adb578182fd5b8751612ae681613258565b6020890151909750612af78161326d565b9550612b05604089016129e8565b9450612b13606089016129e8565b9350612b21608089016129e8565b925060a088015160ff81168114612b36578283fd5b60c08901519092508015158114612b4b578182fd5b8091505092959891949750929550565b600060208284031215612b6c578081fd5b5035919050565b600060208284031215612b84578081fd5b5051919050565b60008060408385031215612b9d578182fd5b823591506020830135612a278161327c565b60008060408385031215612bc1578182fd5b505080516020909101519092909150565b600080600060608486031215612be6578283fd5b83359250602084013591506040840135612bff81613258565b809150509250925092565b60008060008060608587031215612c1f578384fd5b8435935060208501359250604085013567ffffffffffffffff80821115612c44578384fd5b818701915087601f830112612c57578384fd5b813581811115612c65578485fd5b886020828501011115612c76578485fd5b95989497505060200194505050565b600080600060608486031215612c99578081fd5b505081359360208301359350604090920135919050565b600080600080600060a08688031215612cc7578283fd5b853594506020860135935060408601359250606086013591506080860135612ab381613258565b600080600080600060a08688031215612d05578283fd5b505083359560208501359550604085013594606081013594506080013592509050565b60609390931b7fffffffffffffffffffffffffffffffffffffffff000000000000000000000000168352600291820b60e890811b6014850152910b901b6017820152601a0190565b6001600160a01b0391909116815260200190565b60006001600160a01b038716825260208660020b818401528560020b60408401526001600160801b038516606084015260a0608084015283518060a0850152825b81811015612de15785810183015185820160c001528201612dc5565b81811115612df2578360c083870101525b50601f01601f19169290920160c001979650505050505050565b6001600160a01b03959095168552600293840b60208601529190920b60408401526001600160801b03918216606084015216608082015260a00190565b90815260200190565b6001600160a01b039485168152602081019390935292166040820152606081019190915260800190565b60029190910b815260200190565b600292830b8152910b602082015260400190565b600293840b81529190920b60208201526001600160801b03909116604082015260600190565b60208082526003908201527f544c550000000000000000000000000000000000000000000000000000000000604082015260600190565b60208082526001908201527f6300000000000000000000000000000000000000000000000000000000000000604082015260600190565b60208082526002908201527f746f000000000000000000000000000000000000000000000000000000000000604082015260600190565b60208082526003908201527f41304d0000000000000000000000000000000000000000000000000000000000604082015260600190565b60208082526001908201527f7300000000000000000000000000000000000000000000000000000000000000604082015260600190565b60208082526002908201527f6130000000000000000000000000000000000000000000000000000000000000604082015260600190565b60208082526003908201527f4942310000000000000000000000000000000000000000000000000000000000604082015260600190565b60208082526001908201527f4c00000000000000000000000000000000000000000000000000000000000000604082015260600190565b60208082526003908201527f4942300000000000000000000000000000000000000000000000000000000000604082015260600190565b60208082526003908201527f54554d0000000000000000000000000000000000000000000000000000000000604082015260600190565b60208082526003908201527f544c4d0000000000000000000000000000000000000000000000000000000000604082015260600190565b60208082526003908201527f544c460000000000000000000000000000000000000000000000000000000000604082015260600190565b60208082526003908201527f41314d0000000000000000000000000000000000000000000000000000000000604082015260600190565b60208082526003908201527f5455460000000000000000000000000000000000000000000000000000000000604082015260600190565b60208082526004908201527f6130613100000000000000000000000000000000000000000000000000000000604082015260600190565b60208082526001908201527f6d00000000000000000000000000000000000000000000000000000000000000604082015260600190565b918252602082015260400190565b9283526020830191909152604082015260600190565b6001600160a01b038116811461163457600080fd5b8060020b811461163457600080fd5b6001600160801b038116811461163457600080fdfe456e756d657261626c655365743a20696e646578206f7574206f6620626f756e6473416464726573733a20696e73756666696369656e742062616c616e636520666f722063616c6c536166654d6174683a206d756c7469706c69636174696f6e206f766572666c6f775361666545524332303a204552433230206f7065726174696f6e20646964206e6f742073756363656564a164736f6c6343000706000a",
  "linkReferences": {},
  "deployedLinkReferences": {}
}