{
  "_format": "hh-sol-artifact-1",
  "contractName": "TestRouter",
  "sourceName": "contracts/test/TestRouter.sol",
  "abi": [
    {
      "inputs": [
        {
          "internalType": "address",
          "name": "pool",
          "type": "address"
        },
        {
          "internalType": "bool",
          "name": "zeroForOne",
          "type": "bool"
        },
        {
          "internalType": "int256",
          "name": "amountSpecified",
          "type": "int256"
        },
        {
          "internalType": "uint160",
          "name": "sqrtPriceLimitX96",
          "type": "uint160"
        }
      ],
      "name": "getSwapResult",
      "outputs": [
        {
          "internalType": "int256",
          "name": "amount0Delta",
          "type": "int256"
        },
        {
          "internalType": "int256",
          "name": "amount1Delta",
          "type": "int256"
        },
        {
          "internalType": "uint160",
          "name": "nextSqrtRatio",
          "type": "uint160"
        }
      ],
      "stateMutability": "nonpayable",
      "type": "function"
    },
    {
      "inputs": [
        {
          "internalType": "contract IUniswapV3Pool",
          "name": "pool",
          "type": "address"
        },
        {
          "internalType": "int24",
          "name": "tickLower",
          "type": "int24"
        },
        {
          "internalType": "int24",
          "name": "tickUpper",
          "type": "int24"
        },
        {
          "internalType": "uint128",
          "name": "amount",
          "type": "uint128"
        }
      ],
      "name": "mint",
      "outputs": [
        {
          "internalType": "uint256",
          "name": "",
          "type": "uint256"
        },
        {
          "internalType": "uint256",
          "name": "",
          "type": "uint256"
        }
      ],
      "stateMutability": "nonpayable",
      "type": "function"
    },
    {
      "inputs": [
        {
          "internalType": "address",
          "name": "pool",
          "type": "address"
        },
        {
          "internalType": "uint256",
          "name": "amount1Out",
          "type": "uint256"
        },
        {
          "internalType": "address",
          "name": "recipient",
          "type": "address"
        },
        {
          "internalType": "uint160",
          "name": "sqrtPriceLimitX96",
          "type": "uint160"
        }
      ],
      "name": "swap0ForExact1",
      "outputs": [],
      "stateMutability": "nonpayable",
      "type": "function"
    },
    {
      "inputs": [
        {
          "internalType": "address",
          "name": "pool",
          "type": "address"
        },
        {
          "internalType": "uint256",
          "name": "amount0Out",
          "type": "uint256"
        },
        {
          "internalType": "address",
          "name": "recipient",
          "type": "address"
        },
        {
          "internalType": "uint160",
          "name": "sqrtPriceLimitX96",
          "type": "uint160"
        }
      ],
      "name": "swap1ForExact0",
      "outputs": [],
      "stateMutability": "nonpayable",
      "type": "function"
    },
    {
      "inputs": [
        {
          "internalType": "address",
          "name": "pool",
          "type": "address"
        },
        {
          "internalType": "uint256",
          "name": "amount0In",
          "type": "uint256"
        },
        {
          "internalType": "address",
          "name": "recipient",
          "type": "address"
        },
        {
          "internalType": "uint160",
          "name": "sqrtPriceLimitX96",
          "type": "uint160"
        }
      ],
      "name": "swapExact0For1",
      "outputs": [],
      "stateMutability": "nonpayable",
      "type": "function"
    },
    {
      "inputs": [
        {
          "internalType": "address",
          "name": "pool",
          "type": "address"
        },
        {
          "internalType": "uint256",
          "name": "amount1In",
          "type": "uint256"
        },
        {
          "internalType": "address",
          "name": "recipient",
          "type": "address"
        },
        {
          "internalType": "uint160",
          "name": "sqrtPriceLimitX96",
          "type": "uint160"
        }
      ],
      "name": "swapExact1For0",
      "outputs": [],
      "stateMutability": "nonpayable",
      "type": "function"
    },
    {
      "inputs": [
        {
          "internalType": "uint256",
          "name": "amount0Owed",
          "type": "uint256"
        },
        {
          "internalType": "uint256",
          "name": "amount1Owed",
          "type": "uint256"
        },
        {
          "internalType": "bytes",
          "name": "data",
          "type": "bytes"
        }
      ],
      "name": "uniswapV3MintCallback",
      "outputs": [],
      "stateMutability": "nonpayable",
      "type": "function"
    },
    {
      "inputs": [
        {
          "internalType": "int256",
          "name": "amount0Delta",
          "type": "int256"
        },
        {
          "internalType": "int256",
          "name": "amount1Delta",
          "type": "int256"
        },
        {
          "internalType": "bytes",
          "name": "data",
          "type": "bytes"
        }
      ],
      "name": "uniswapV3SwapCallback",
      "outputs": [],
      "stateMutability": "nonpayable",
      "type": "function"
    }
  ],
  "bytecode": "0x608060405234801561001057600080fd5b50610cd8806100206000396000f3fe608060405234801561001057600080fd5b50600436106100885760003560e01c8063d34879971161005b578063d3487997146101d5578063e2be910914610251578063f603482c1461028d578063fa461e33146102c957610088565b80636dfc0ddb1461008d5780637f2ba7bc146100cb578063b8cca34e1461012e578063bac7bf7814610199575b600080fd5b6100c9600480360360808110156100a357600080fd5b506001600160a01b03813581169160208101359160408201358116916060013516610345565b005b610107600480360360808110156100e157600080fd5b506001600160a01b03813581169160208101351515916040820135916060013516610483565b6040805193845260208401929092526001600160a01b031682820152519081900360600190f35b6101806004803603608081101561014457600080fd5b5080356001600160a01b0316906020810135600290810b91604081013590910b90606001356fffffffffffffffffffffffffffffffff16610658565b6040805192835260208301919091528051918290030190f35b6100c9600480360360808110156101af57600080fd5b506001600160a01b038135811691602081013591604082013581169160600135166107ab565b6100c9600480360360608110156101eb57600080fd5b81359160208101359181019060608101604082013564010000000081111561021257600080fd5b82018360208201111561022457600080fd5b8035906020019184600183028401116401000000008311171561024657600080fd5b50909250905061086a565b6100c96004803603608081101561026757600080fd5b506001600160a01b03813581169160208101359160408201358116916060013516610a72565b6100c9600480360360808110156102a357600080fd5b506001600160a01b03813581169160208101359160408201358116916060013516610a8d565b6100c9600480360360608110156102df57600080fd5b81359160208101359181019060608101604082013564010000000081111561030657600080fd5b82018360208201111561031857600080fd5b8035906020019184600183028401116401000000008311171561033a57600080fd5b509092509050610aa8565b836001600160a01b031663128acb0883600161036087610c99565b853360405160200180826001600160a01b031681526020019150506040516020818303038152906040526040518663ffffffff1660e01b815260040180866001600160a01b031681526020018515158152602001848152602001836001600160a01b0316815260200180602001828103825283818151815260200191508051906020019080838360005b838110156104025781810151838201526020016103ea565b50505050905090810190601f16801561042f5780820380516001836020036101000a031916815260200191505b5096505050505050506040805180830381600087803b15801561045157600080fd5b505af1158015610465573d6000803e3d6000fd5b505050506040513d604081101561047b57600080fd5b505050505050565b6000806000866001600160a01b031663128acb08338888883360405160200180826001600160a01b031681526020019150506040516020818303038152906040526040518663ffffffff1660e01b815260040180866001600160a01b031681526020018515158152602001848152602001836001600160a01b0316815260200180602001828103825283818151815260200191508051906020019080838360005b8381101561053c578181015183820152602001610524565b50505050905090810190601f1680156105695780820380516001836020036101000a031916815260200191505b5096505050505050506040805180830381600087803b15801561058b57600080fd5b505af115801561059f573d6000803e3d6000fd5b505050506040513d60408110156105b557600080fd5b508051602090910151604080517f3850c7bd00000000000000000000000000000000000000000000000000000000815290519295509093506001600160a01b03891691633850c7bd9160048082019260e092909190829003018186803b15801561061e57600080fd5b505afa158015610632573d6000803e3d6000fd5b505050506040513d60e081101561064857600080fd5b5051929791965091945092505050565b600080856001600160a01b0316633c8a7d8d338787873360405160200180826001600160a01b031681526020019150506040516020818303038152906040526040518663ffffffff1660e01b815260040180866001600160a01b031681526020018560020b81526020018460020b8152602001836fffffffffffffffffffffffffffffffff16815260200180602001828103825283818151815260200191508051906020019080838360005b8381101561071c578181015183820152602001610704565b50505050905090810190601f1680156107495780820380516001836020036101000a031916815260200191505b5096505050505050506040805180830381600087803b15801561076b57600080fd5b505af115801561077f573d6000803e3d6000fd5b505050506040513d604081101561079557600080fd5b5080516020909101519097909650945050505050565b836001600160a01b031663128acb088360016107c687610c99565b600003853360405160200180826001600160a01b031681526020019150506040516020818303038152906040526040518663ffffffff1660e01b815260040180866001600160a01b031681526020018515158152602001848152602001836001600160a01b031681526020018060200182810382528381815181526020019150805190602001908083836000838110156104025781810151838201526020016103ea565b60008282602081101561087c57600080fd5b50356001600160a01b03169050841561097a57336001600160a01b0316630dfe16816040518163ffffffff1660e01b815260040160206040518083038186803b1580156108c857600080fd5b505afa1580156108dc573d6000803e3d6000fd5b505050506040513d60208110156108f257600080fd5b5051604080516323b872dd60e01b81526001600160a01b03848116600483015233602483015260448201899052915191909216916323b872dd9160648083019260209291908290030181600087803b15801561094d57600080fd5b505af1158015610961573d6000803e3d6000fd5b505050506040513d602081101561097757600080fd5b50505b8315610a6b57336001600160a01b031663d21220a76040518163ffffffff1660e01b815260040160206040518083038186803b1580156109b957600080fd5b505afa1580156109cd573d6000803e3d6000fd5b505050506040513d60208110156109e357600080fd5b5051604080516323b872dd60e01b81526001600160a01b03848116600483015233602483015260448201889052915191909216916323b872dd9160648083019260209291908290030181600087803b158015610a3e57600080fd5b505af1158015610a52573d6000803e3d6000fd5b505050506040513d6020811015610a6857600080fd5b50505b5050505050565b836001600160a01b031663128acb0883600061036087610c99565b836001600160a01b031663128acb088360006107c687610c99565b600082826020811015610aba57600080fd5b50356001600160a01b031690506000851315610bc057336001600160a01b0316630dfe16816040518163ffffffff1660e01b815260040160206040518083038186803b158015610b0957600080fd5b505afa158015610b1d573d6000803e3d6000fd5b505050506040513d6020811015610b3357600080fd5b5051604080516323b872dd60e01b81526001600160a01b03848116600483015233602483015260448201899052915191909216916323b872dd9160648083019260209291908290030181600087803b158015610b8e57600080fd5b505af1158015610ba2573d6000803e3d6000fd5b505050506040513d6020811015610bb857600080fd5b50610a6b9050565b6000841315610c8757336001600160a01b031663d21220a76040518163ffffffff1660e01b815260040160206040518083038186803b158015610c0257600080fd5b505afa158015610c16573d6000803e3d6000fd5b505050506040513d6020811015610c2c57600080fd5b5051604080516323b872dd60e01b81526001600160a01b03848116600483015233602483015260448201889052915191909216916323b872dd9160648083019260209291908290030181600087803b158015610b8e57600080fd5b84158015610c93575083155b610a6b57fe5b60007f80000000000000000000000000000000000000000000000000000000000000008210610cc757600080fd5b509056fea164736f6c6343000706000a",
  "linkReferences": {},
  "deployedLinkReferences": {}
}